{
	"data": {
		"bytecode": {
			"linkReferences": {
				"remix_tests.sol": {
					"Assert": [
						{
							"length": 20,
							"start": 168
						},
						{
							"length": 20,
							"start": 462
						},
						{
							"length": 20,
							"start": 767
						},
						{
							"length": 20,
							"start": 1072
						},
						{
							"length": 20,
							"start": 1377
						},
						{
							"length": 20,
							"start": 1682
						},
						{
							"length": 20,
							"start": 1987
						},
						{
							"length": 20,
							"start": 2292
						},
						{
							"length": 20,
							"start": 2597
						},
						{
							"length": 20,
							"start": 2902
						},
						{
							"length": 20,
							"start": 3207
						},
						{
							"length": 20,
							"start": 3512
						},
						{
							"length": 20,
							"start": 3817
						},
						{
							"length": 20,
							"start": 4122
						},
						{
							"length": 20,
							"start": 4427
						},
						{
							"length": 20,
							"start": 4732
						},
						{
							"length": 20,
							"start": 5037
						},
						{
							"length": 20,
							"start": 5342
						},
						{
							"length": 20,
							"start": 5647
						},
						{
							"length": 20,
							"start": 5952
						},
						{
							"length": 20,
							"start": 6257
						},
						{
							"length": 20,
							"start": 6562
						},
						{
							"length": 20,
							"start": 6866
						},
						{
							"length": 20,
							"start": 7170
						},
						{
							"length": 20,
							"start": 7474
						},
						{
							"length": 20,
							"start": 7778
						},
						{
							"length": 20,
							"start": 8082
						},
						{
							"length": 20,
							"start": 8386
						},
						{
							"length": 20,
							"start": 8690
						},
						{
							"length": 20,
							"start": 8994
						},
						{
							"length": 20,
							"start": 9298
						},
						{
							"length": 20,
							"start": 9602
						},
						{
							"length": 20,
							"start": 9906
						},
						{
							"length": 20,
							"start": 10210
						},
						{
							"length": 20,
							"start": 10514
						},
						{
							"length": 20,
							"start": 10818
						},
						{
							"length": 20,
							"start": 11122
						},
						{
							"length": 20,
							"start": 11426
						},
						{
							"length": 20,
							"start": 11730
						},
						{
							"length": 20,
							"start": 12034
						},
						{
							"length": 20,
							"start": 12338
						},
						{
							"length": 20,
							"start": 12642
						}
					]
				}
			},
			"object": "608060405234801561001057600080fd5b506175e480620000216000396000f3fe60806040523480156200001157600080fd5b5060043610620000465760003560e01c80630290df4b146200004b5780636ef9928814620000575780637fea0d4b1462000079575b600080fd5b6200005562000085565b005b6200006162003271565b6040516200007091906200339b565b60405180910390f35b6200008362003295565b005b73__$acbfb1c35000d78352310b16a054a6b106$__63abcd796061064060008054906101000a900473ffffffffffffffffffffffffffffffffffffffff1673ffffffffffffffffffffffffffffffffffffffff1663b4b7914d6000620186a06040518363ffffffff1660e01b81526004016200010392919062003448565b602060405180830381865afa15801562000121573d6000803e3d6000fd5b505050506040513d601f19601f82011682018060405250810190620001479190620034ab565b6040518363ffffffff1660e01b815260040162000166929190620035b8565b602060405180830381865af415801562000184573d6000803e3d6000fd5b505050506040513d601f19601f82011682018060405250810190620001aa919062003637565b5073__$acbfb1c35000d78352310b16a054a6b106$__63abcd796061064060008054906101000a900473ffffffffffffffffffffffffffffffffffffffff1673ffffffffffffffffffffffffffffffffffffffff1663b4b7914d6b1027e72f1f12813088000000620186a06040518363ffffffff1660e01b815260040162000234929190620036ac565b602060405180830381865afa15801562000252573d6000803e3d6000fd5b505050506040513d601f19601f82011682018060405250810190620002789190620034ab565b6040518363ffffffff1660e01b815260040162000297929190620035b8565b602060405180830381865af4158015620002b5573d6000803e3d6000fd5b505050506040513d601f19601f82011682018060405250810190620002db919062003637565b5073__$acbfb1c35000d78352310b16a054a6b106$__63abcd796061064060008054906101000a900473ffffffffffffffffffffffffffffffffffffffff1673ffffffffffffffffffffffffffffffffffffffff1663b4b7914d6b183bdac6ae9bc1c8cc000000620186a06040518363ffffffff1660e01b8152600401620003659291906200371c565b602060405180830381865afa15801562000383573d6000803e3d6000fd5b505050506040513d601f19601f82011682018060405250810190620003a99190620034ab565b6040518363ffffffff1660e01b8152600401620003c8929190620035b8565b602060405180830381865af4158015620003e6573d6000803e3d6000fd5b505050506040513d601f19601f820116820180604052508101906200040c919062003637565b5073__$acbfb1c35000d78352310b16a054a6b106$__63abcd796061044c60008054906101000a900473ffffffffffffffffffffffffffffffffffffffff1673ffffffffffffffffffffffffffffffffffffffff1663b4b7914d6b183bdac6ae9bc1c8cc000001620186a06040518363ffffffff1660e01b8152600401620004969291906200378c565b602060405180830381865afa158015620004b4573d6000803e3d6000fd5b505050506040513d601f19601f82011682018060405250810190620004da9190620034ab565b6040518363ffffffff1660e01b8152600401620004f9929190620037fc565b602060405180830381865af415801562000517573d6000803e3d6000fd5b505050506040513d601f19601f820116820180604052508101906200053d919062003637565b5073__$acbfb1c35000d78352310b16a054a6b106$__63abcd796061044c60008054906101000a900473ffffffffffffffffffffffffffffffffffffffff1673ffffffffffffffffffffffffffffffffffffffff1663b4b7914d6b19d971e4fe8401e740000000620186a06040518363ffffffff1660e01b8152600401620005c792919062003881565b602060405180830381865afa158015620005e5573d6000803e3d6000fd5b505050506040513d601f19601f820116820180604052508101906200060b9190620034ab565b6040518363ffffffff1660e01b81526004016200062a929190620037fc565b602060405180830381865af415801562000648573d6000803e3d6000fd5b505050506040513d601f19601f820116820180604052508101906200066e919062003637565b5073__$acbfb1c35000d78352310b16a054a6b106$__63abcd796061044c60008054906101000a900473ffffffffffffffffffffffffffffffffffffffff1673ffffffffffffffffffffffffffffffffffffffff1663b4b7914d6b2863c1f5cdae42f954000000620186a06040518363ffffffff1660e01b8152600401620006f8929190620038f1565b602060405180830381865afa15801562000716573d6000803e3d6000fd5b505050506040513d601f19601f820116820180604052508101906200073c9190620034ab565b6040518363ffffffff1660e01b81526004016200075b929190620037fc565b602060405180830381865af415801562000779573d6000803e3d6000fd5b505050506040513d601f19601f820116820180604052508101906200079f919062003637565b5073__$acbfb1c35000d78352310b16a054a6b106$__63abcd79606102fe60008054906101000a900473ffffffffffffffffffffffffffffffffffffffff1673ffffffffffffffffffffffffffffffffffffffff1663b4b7914d6b2863c1f5cdae42f954000001620186a06040518363ffffffff1660e01b81526004016200082992919062003961565b602060405180830381865afa15801562000847573d6000803e3d6000fd5b505050506040513d601f19601f820116820180604052508101906200086d9190620034ab565b6040518363ffffffff1660e01b81526004016200088c929190620039d1565b602060405180830381865af4158015620008aa573d6000803e3d6000fd5b505050506040513d601f19601f82011682018060405250810190620008d0919062003637565b5073__$acbfb1c35000d78352310b16a054a6b106$__63abcd79606102fe60008054906101000a900473ffffffffffffffffffffffffffffffffffffffff1673ffffffffffffffffffffffffffffffffffffffff1663b4b7914d6b32154cabad1fc3b00c000000620186a06040518363ffffffff1660e01b81526004016200095a92919062003a56565b602060405180830381865afa15801562000978573d6000803e3d6000fd5b505050506040513d601f19601f820116820180604052508101906200099e9190620034ab565b6040518363ffffffff1660e01b8152600401620009bd929190620039d1565b602060405180830381865af4158015620009db573d6000803e3d6000fd5b505050506040513d601f19601f8201168201806040525081019062000a01919062003637565b5073__$acbfb1c35000d78352310b16a054a6b106$__63abcd79606102fe60008054906101000a900473ffffffffffffffffffffffffffffffffffffffff1673ffffffffffffffffffffffffffffffffffffffff1663b4b7914d6b388ba924ecc0c429dc000000620186a06040518363ffffffff1660e01b815260040162000a8b92919062003ac6565b602060405180830381865afa15801562000aa9573d6000803e3d6000fd5b505050506040513d601f19601f8201168201806040525081019062000acf9190620034ab565b6040518363ffffffff1660e01b815260040162000aee929190620039d1565b602060405180830381865af415801562000b0c573d6000803e3d6000fd5b505050506040513d601f19601f8201168201806040525081019062000b32919062003637565b5073__$acbfb1c35000d78352310b16a054a6b106$__63abcd796061022060008054906101000a900473ffffffffffffffffffffffffffffffffffffffff1673ffffffffffffffffffffffffffffffffffffffff1663b4b7914d6b388ba924ecc0c429dc000001620186a06040518363ffffffff1660e01b815260040162000bbc92919062003b36565b602060405180830381865afa15801562000bda573d6000803e3d6000fd5b505050506040513d601f19601f8201168201806040525081019062000c009190620034ab565b6040518363ffffffff1660e01b815260040162000c1f92919062003ba6565b602060405180830381865af415801562000c3d573d6000803e3d6000fd5b505050506040513d601f19601f8201168201806040525081019062000c63919062003637565b5073__$acbfb1c35000d78352310b16a054a6b106$__63abcd796061022060008054906101000a900473ffffffffffffffffffffffffffffffffffffffff1673ffffffffffffffffffffffffffffffffffffffff1663b4b7914d6b423d33dacc3244e094000000620186a06040518363ffffffff1660e01b815260040162000ced92919062003c2b565b602060405180830381865afa15801562000d0b573d6000803e3d6000fd5b505050506040513d601f19601f8201168201806040525081019062000d319190620034ab565b6040518363ffffffff1660e01b815260040162000d5092919062003ba6565b602060405180830381865af415801562000d6e573d6000803e3d6000fd5b505050506040513d601f19601f8201168201806040525081019062000d94919062003637565b5073__$acbfb1c35000d78352310b16a054a6b106$__63abcd796061022060008054906101000a900473ffffffffffffffffffffffffffffffffffffffff1673ffffffffffffffffffffffffffffffffffffffff1663b4b7914d6b48b390540bd3455a64000000620186a06040518363ffffffff1660e01b815260040162000e1e92919062003c9b565b602060405180830381865afa15801562000e3c573d6000803e3d6000fd5b505050506040513d601f19601f8201168201806040525081019062000e629190620034ab565b6040518363ffffffff1660e01b815260040162000e8192919062003ba6565b602060405180830381865af415801562000e9f573d6000803e3d6000fd5b505050506040513d601f19601f8201168201806040525081019062000ec5919062003637565b5073__$acbfb1c35000d78352310b16a054a6b106$__63abcd796061018c60008054906101000a900473ffffffffffffffffffffffffffffffffffffffff1673ffffffffffffffffffffffffffffffffffffffff1663b4b7914d6b48b390540bd3455a64000001620186a06040518363ffffffff1660e01b815260040162000f4f92919062003d0b565b602060405180830381865afa15801562000f6d573d6000803e3d6000fd5b505050506040513d601f19601f8201168201806040525081019062000f939190620034ab565b6040518363ffffffff1660e01b815260040162000fb292919062003d7b565b602060405180830381865af415801562000fd0573d6000803e3d6000fd5b505050506040513d601f19601f8201168201806040525081019062000ff6919062003637565b5073__$acbfb1c35000d78352310b16a054a6b106$__63abcd796061018c60008054906101000a900473ffffffffffffffffffffffffffffffffffffffff1673ffffffffffffffffffffffffffffffffffffffff1663b4b7914d6b52651b09eb44c6111c000000620186a06040518363ffffffff1660e01b81526004016200108092919062003e00565b602060405180830381865afa1580156200109e573d6000803e3d6000fd5b505050506040513d601f19601f82011682018060405250810190620010c49190620034ab565b6040518363ffffffff1660e01b8152600401620010e392919062003d7b565b602060405180830381865af415801562001101573d6000803e3d6000fd5b505050506040513d601f19601f8201168201806040525081019062001127919062003637565b5073__$acbfb1c35000d78352310b16a054a6b106$__63abcd796061018c60008054906101000a900473ffffffffffffffffffffffffffffffffffffffff1673ffffffffffffffffffffffffffffffffffffffff1663b4b7914d6b58db77832ae5c68aec000000620186a06040518363ffffffff1660e01b8152600401620011b192919062003e70565b602060405180830381865afa158015620011cf573d6000803e3d6000fd5b505050506040513d601f19601f82011682018060405250810190620011f59190620034ab565b6040518363ffffffff1660e01b81526004016200121492919062003d7b565b602060405180830381865af415801562001232573d6000803e3d6000fd5b505050506040513d601f19601f8201168201806040525081019062001258919062003637565b5073__$acbfb1c35000d78352310b16a054a6b106$__63abcd796061018c60008054906101000a900473ffffffffffffffffffffffffffffffffffffffff1673ffffffffffffffffffffffffffffffffffffffff1663b4b7914d6b48b390540bd3455a64000001620186a06040518363ffffffff1660e01b8152600401620012e292919062003d0b565b602060405180830381865afa15801562001300573d6000803e3d6000fd5b505050506040513d601f19601f82011682018060405250810190620013269190620034ab565b6040518363ffffffff1660e01b81526004016200134592919062003d7b565b602060405180830381865af415801562001363573d6000803e3d6000fd5b505050506040513d601f19601f8201168201806040525081019062001389919062003637565b5073__$acbfb1c35000d78352310b16a054a6b106$__63abcd796061018c60008054906101000a900473ffffffffffffffffffffffffffffffffffffffff1673ffffffffffffffffffffffffffffffffffffffff1663b4b7914d6b52651b09eb44c6111c000000620186a06040518363ffffffff1660e01b81526004016200141392919062003e00565b602060405180830381865afa15801562001431573d6000803e3d6000fd5b505050506040513d601f19601f82011682018060405250810190620014579190620034ab565b6040518363ffffffff1660e01b81526004016200147692919062003d7b565b602060405180830381865af415801562001494573d6000803e3d6000fd5b505050506040513d601f19601f82011682018060405250810190620014ba919062003637565b5073__$acbfb1c35000d78352310b16a054a6b106$__63abcd796061018c60008054906101000a900473ffffffffffffffffffffffffffffffffffffffff1673ffffffffffffffffffffffffffffffffffffffff1663b4b7914d6b58db77832ae5c68aec000000620186a06040518363ffffffff1660e01b81526004016200154492919062003e70565b602060405180830381865afa15801562001562573d6000803e3d6000fd5b505050506040513d601f19601f82011682018060405250810190620015889190620034ab565b6040518363ffffffff1660e01b8152600401620015a792919062003d7b565b602060405180830381865af4158015620015c5573d6000803e3d6000fd5b505050506040513d601f19601f82011682018060405250810190620015eb919062003637565b5073__$acbfb1c35000d78352310b16a054a6b106$__63abcd796061012960008054906101000a900473ffffffffffffffffffffffffffffffffffffffff1673ffffffffffffffffffffffffffffffffffffffff1663b4b7914d6b58db77832ae5c68aec000001620186a06040518363ffffffff1660e01b81526004016200167592919062003ee0565b602060405180830381865afa15801562001693573d6000803e3d6000fd5b505050506040513d601f19601f82011682018060405250810190620016b99190620034ab565b6040518363ffffffff1660e01b8152600401620016d892919062003f50565b602060405180830381865af4158015620016f6573d6000803e3d6000fd5b505050506040513d601f19601f820116820180604052508101906200171c919062003637565b5073__$acbfb1c35000d78352310b16a054a6b106$__63abcd796061012960008054906101000a900473ffffffffffffffffffffffffffffffffffffffff1673ffffffffffffffffffffffffffffffffffffffff1663b4b7914d6b628d02390a574741a4000000620186a06040518363ffffffff1660e01b8152600401620017a692919062003fd5565b602060405180830381865afa158015620017c4573d6000803e3d6000fd5b505050506040513d601f19601f82011682018060405250810190620017ea9190620034ab565b6040518363ffffffff1660e01b81526004016200180992919062003f50565b602060405180830381865af415801562001827573d6000803e3d6000fd5b505050506040513d601f19601f820116820180604052508101906200184d919062003637565b5073__$acbfb1c35000d78352310b16a054a6b106$__63abcd796061012960008054906101000a900473ffffffffffffffffffffffffffffffffffffffff1673ffffffffffffffffffffffffffffffffffffffff1663b4b7914d6b69035eb249f847bb74000000620186a06040518363ffffffff1660e01b8152600401620018d792919062004045565b602060405180830381865afa158015620018f5573d6000803e3d6000fd5b505050506040513d601f19601f820116820180604052508101906200191b9190620034ab565b6040518363ffffffff1660e01b81526004016200193a92919062003f50565b602060405180830381865af415801562001958573d6000803e3d6000fd5b505050506040513d601f19601f820116820180604052508101906200197e919062003637565b5073__$acbfb1c35000d78352310b16a054a6b106$__63abcd796060e760008054906101000a900473ffffffffffffffffffffffffffffffffffffffff1673ffffffffffffffffffffffffffffffffffffffff1663b4b7914d6b69035eb249f847bb74000001620186a06040518363ffffffff1660e01b815260040162001a07929190620040b5565b602060405180830381865afa15801562001a25573d6000803e3d6000fd5b505050506040513d601f19601f8201168201806040525081019062001a4b9190620034ab565b6040518363ffffffff1660e01b815260040162001a6a92919062004125565b602060405180830381865af415801562001a88573d6000803e3d6000fd5b505050506040513d601f19601f8201168201806040525081019062001aae919062003637565b5073__$acbfb1c35000d78352310b16a054a6b106$__63abcd796060e760008054906101000a900473ffffffffffffffffffffffffffffffffffffffff1673ffffffffffffffffffffffffffffffffffffffff1663b4b7914d6b6f79bb2b8999483544000000620186a06040518363ffffffff1660e01b815260040162001b37929190620041aa565b602060405180830381865afa15801562001b55573d6000803e3d6000fd5b505050506040513d601f19601f8201168201806040525081019062001b7b9190620034ab565b6040518363ffffffff1660e01b815260040162001b9a92919062004125565b602060405180830381865af415801562001bb8573d6000803e3d6000fd5b505050506040513d601f19601f8201168201806040525081019062001bde919062003637565b5073__$acbfb1c35000d78352310b16a054a6b106$__63abcd796060e760008054906101000a900473ffffffffffffffffffffffffffffffffffffffff1673ffffffffffffffffffffffffffffffffffffffff1663b4b7914d6b71175249d9818853b8000000620186a06040518363ffffffff1660e01b815260040162001c679291906200421a565b602060405180830381865afa15801562001c85573d6000803e3d6000fd5b505050506040513d601f19601f8201168201806040525081019062001cab9190620034ab565b6040518363ffffffff1660e01b815260040162001cca92919062004125565b602060405180830381865af415801562001ce8573d6000803e3d6000fd5b505050506040513d601f19601f8201168201806040525081019062001d0e919062003637565b5073__$acbfb1c35000d78352310b16a054a6b106$__63abcd796060bb60008054906101000a900473ffffffffffffffffffffffffffffffffffffffff1673ffffffffffffffffffffffffffffffffffffffff1663b4b7914d6b71175249d9818853b8000001620186a06040518363ffffffff1660e01b815260040162001d979291906200428a565b602060405180830381865afa15801562001db5573d6000803e3d6000fd5b505050506040513d601f19601f8201168201806040525081019062001ddb9190620034ab565b6040518363ffffffff1660e01b815260040162001dfa929190620042fa565b602060405180830381865af415801562001e18573d6000803e3d6000fd5b505050506040513d601f19601f8201168201806040525081019062001e3e919062003637565b5073__$acbfb1c35000d78352310b16a054a6b106$__63abcd796060bb60008054906101000a900473ffffffffffffffffffffffffffffffffffffffff1673ffffffffffffffffffffffffffffffffffffffff1663b4b7914d6b7452808679520890a0000000620186a06040518363ffffffff1660e01b815260040162001ec79291906200437f565b602060405180830381865afa15801562001ee5573d6000803e3d6000fd5b505050506040513d601f19601f8201168201806040525081019062001f0b9190620034ab565b6040518363ffffffff1660e01b815260040162001f2a929190620042fa565b602060405180830381865af415801562001f48573d6000803e3d6000fd5b505050506040513d601f19601f8201168201806040525081019062001f6e919062003637565b5073__$acbfb1c35000d78352310b16a054a6b106$__63abcd796060bb60008054906101000a900473ffffffffffffffffffffffffffffffffffffffff1673ffffffffffffffffffffffffffffffffffffffff1663b4b7914d6b792b45e1690ac8ebfc000000620186a06040518363ffffffff1660e01b815260040162001ff7929190620043ef565b602060405180830381865afa15801562002015573d6000803e3d6000fd5b505050506040513d601f19601f820116820180604052508101906200203b9190620034ab565b6040518363ffffffff1660e01b81526004016200205a929190620042fa565b602060405180830381865af415801562002078573d6000803e3d6000fd5b505050506040513d601f19601f820116820180604052508101906200209e919062003637565b5073__$acbfb1c35000d78352310b16a054a6b106$__63abcd7960609e60008054906101000a900473ffffffffffffffffffffffffffffffffffffffff1673ffffffffffffffffffffffffffffffffffffffff1663b4b7914d6b792b45e1690ac8ebfc000001620186a06040518363ffffffff1660e01b8152600401620021279291906200445f565b602060405180830381865afa15801562002145573d6000803e3d6000fd5b505050506040513d601f19601f820116820180604052508101906200216b9190620034ab565b6040518363ffffffff1660e01b81526004016200218a929190620044cf565b602060405180830381865af4158015620021a8573d6000803e3d6000fd5b505050506040513d601f19601f82011682018060405250810190620021ce919062003637565b5073__$acbfb1c35000d78352310b16a054a6b106$__63abcd7960609e60008054906101000a900473ffffffffffffffffffffffffffffffffffffffff1673ffffffffffffffffffffffffffffffffffffffff1663b4b7914d6b7c66741e08db4928e4000000620186a06040518363ffffffff1660e01b81526004016200225792919062004554565b602060405180830381865afa15801562002275573d6000803e3d6000fd5b505050506040513d601f19601f820116820180604052508101906200229b9190620034ab565b6040518363ffffffff1660e01b8152600401620022ba929190620044cf565b602060405180830381865af4158015620022d8573d6000803e3d6000fd5b505050506040513d601f19601f82011682018060405250810190620022fe919062003637565b5073__$acbfb1c35000d78352310b16a054a6b106$__63abcd7960609e60008054906101000a900473ffffffffffffffffffffffffffffffffffffffff1673ffffffffffffffffffffffffffffffffffffffff1663b4b7914d6b813f3978f894098440000000620186a06040518363ffffffff1660e01b815260040162002387929190620045c4565b602060405180830381865afa158015620023a5573d6000803e3d6000fd5b505050506040513d601f19601f82011682018060405250810190620023cb9190620034ab565b6040518363ffffffff1660e01b8152600401620023ea929190620044cf565b602060405180830381865af415801562002408573d6000803e3d6000fd5b505050506040513d601f19601f820116820180604052508101906200242e919062003637565b5073__$acbfb1c35000d78352310b16a054a6b106$__63abcd7960608a60008054906101000a900473ffffffffffffffffffffffffffffffffffffffff1673ffffffffffffffffffffffffffffffffffffffff1663b4b7914d6b813f3978f894098440000001620186a06040518363ffffffff1660e01b8152600401620024b792919062004634565b602060405180830381865afa158015620024d5573d6000803e3d6000fd5b505050506040513d601f19601f82011682018060405250810190620024fb9190620034ab565b6040518363ffffffff1660e01b81526004016200251a929190620046a4565b602060405180830381865af415801562002538573d6000803e3d6000fd5b505050506040513d601f19601f820116820180604052508101906200255e919062003637565b5073__$acbfb1c35000d78352310b16a054a6b106$__63abcd7960608a60008054906101000a900473ffffffffffffffffffffffffffffffffffffffff1673ffffffffffffffffffffffffffffffffffffffff1663b4b7914d6b847a67b5986489c128000000620186a06040518363ffffffff1660e01b8152600401620025e792919062004729565b602060405180830381865afa15801562002605573d6000803e3d6000fd5b505050506040513d601f19601f820116820180604052508101906200262b9190620034ab565b6040518363ffffffff1660e01b81526004016200264a929190620046a4565b602060405180830381865af415801562002668573d6000803e3d6000fd5b505050506040513d601f19601f820116820180604052508101906200268e919062003637565b5073__$acbfb1c35000d78352310b16a054a6b106$__63abcd7960608a60008054906101000a900473ffffffffffffffffffffffffffffffffffffffff1673ffffffffffffffffffffffffffffffffffffffff1663b4b7914d6b89532d10881d4a1c84000000620186a06040518363ffffffff1660e01b81526004016200271792919062004799565b602060405180830381865afa15801562002735573d6000803e3d6000fd5b505050506040513d601f19601f820116820180604052508101906200275b9190620034ab565b6040518363ffffffff1660e01b81526004016200277a929190620046a4565b602060405180830381865af415801562002798573d6000803e3d6000fd5b505050506040513d601f19601f82011682018060405250810190620027be919062003637565b5073__$acbfb1c35000d78352310b16a054a6b106$__63abcd7960607d60008054906101000a900473ffffffffffffffffffffffffffffffffffffffff1673ffffffffffffffffffffffffffffffffffffffff1663b4b7914d6b89532d10881d4a1c84000001620186a06040518363ffffffff1660e01b81526004016200284792919062004809565b602060405180830381865afa15801562002865573d6000803e3d6000fd5b505050506040513d601f19601f820116820180604052508101906200288b9190620034ab565b6040518363ffffffff1660e01b8152600401620028aa92919062004879565b602060405180830381865af4158015620028c8573d6000803e3d6000fd5b505050506040513d601f19601f82011682018060405250810190620028ee919062003637565b5073__$acbfb1c35000d78352310b16a054a6b106$__63abcd7960607d60008054906101000a900473ffffffffffffffffffffffffffffffffffffffff1673ffffffffffffffffffffffffffffffffffffffff1663b4b7914d6b8c8e5b4d27edca596c000000620186a06040518363ffffffff1660e01b815260040162002977929190620048fe565b602060405180830381865afa15801562002995573d6000803e3d6000fd5b505050506040513d601f19601f82011682018060405250810190620029bb9190620034ab565b6040518363ffffffff1660e01b8152600401620029da92919062004879565b602060405180830381865af4158015620029f8573d6000803e3d6000fd5b505050506040513d601f19601f8201168201806040525081019062002a1e919062003637565b5073__$acbfb1c35000d78352310b16a054a6b106$__63abcd7960607d60008054906101000a900473ffffffffffffffffffffffffffffffffffffffff1673ffffffffffffffffffffffffffffffffffffffff1663b4b7914d6b916720a817a68ab4c8000000620186a06040518363ffffffff1660e01b815260040162002aa79291906200496e565b602060405180830381865afa15801562002ac5573d6000803e3d6000fd5b505050506040513d601f19601f8201168201806040525081019062002aeb9190620034ab565b6040518363ffffffff1660e01b815260040162002b0a92919062004879565b602060405180830381865af415801562002b28573d6000803e3d6000fd5b505050506040513d601f19601f8201168201806040525081019062002b4e919062003637565b5073__$acbfb1c35000d78352310b16a054a6b106$__63abcd7960607560008054906101000a900473ffffffffffffffffffffffffffffffffffffffff1673ffffffffffffffffffffffffffffffffffffffff1663b4b7914d6b916720a817a68ab4c8000001620186a06040518363ffffffff1660e01b815260040162002bd7929190620049de565b602060405180830381865afa15801562002bf5573d6000803e3d6000fd5b505050506040513d601f19601f8201168201806040525081019062002c1b9190620034ab565b6040518363ffffffff1660e01b815260040162002c3a92919062004a4e565b602060405180830381865af415801562002c58573d6000803e3d6000fd5b505050506040513d601f19601f8201168201806040525081019062002c7e919062003637565b5073__$acbfb1c35000d78352310b16a054a6b106$__63abcd7960607560008054906101000a900473ffffffffffffffffffffffffffffffffffffffff1673ffffffffffffffffffffffffffffffffffffffff1663b4b7914d6b94a24ee4b7770af1b0000000620186a06040518363ffffffff1660e01b815260040162002d0792919062004ad3565b602060405180830381865afa15801562002d25573d6000803e3d6000fd5b505050506040513d601f19601f8201168201806040525081019062002d4b9190620034ab565b6040518363ffffffff1660e01b815260040162002d6a92919062004a4e565b602060405180830381865af415801562002d88573d6000803e3d6000fd5b505050506040513d601f19601f8201168201806040525081019062002dae919062003637565b5073__$acbfb1c35000d78352310b16a054a6b106$__63abcd7960607560008054906101000a900473ffffffffffffffffffffffffffffffffffffffff1673ffffffffffffffffffffffffffffffffffffffff1663b4b7914d6b997b143fa72fcb4d0c000000620186a06040518363ffffffff1660e01b815260040162002e3792919062004b43565b602060405180830381865afa15801562002e55573d6000803e3d6000fd5b505050506040513d601f19601f8201168201806040525081019062002e7b9190620034ab565b6040518363ffffffff1660e01b815260040162002e9a92919062004a4e565b602060405180830381865af415801562002eb8573d6000803e3d6000fd5b505050506040513d601f19601f8201168201806040525081019062002ede919062003637565b5073__$acbfb1c35000d78352310b16a054a6b106$__63abcd7960606460008054906101000a900473ffffffffffffffffffffffffffffffffffffffff1673ffffffffffffffffffffffffffffffffffffffff1663b4b7914d6b997b143fa72fcb4d0c000001620186a06040518363ffffffff1660e01b815260040162002f6792919062004bb3565b602060405180830381865afa15801562002f85573d6000803e3d6000fd5b505050506040513d601f19601f8201168201806040525081019062002fab9190620034ab565b6040518363ffffffff1660e01b815260040162002fca92919062004c23565b602060405180830381865af415801562002fe8573d6000803e3d6000fd5b505050506040513d601f19601f820116820180604052508101906200300e919062003637565b5073__$acbfb1c35000d78352310b16a054a6b106$__63abcd7960606460008054906101000a900473ffffffffffffffffffffffffffffffffffffffff1673ffffffffffffffffffffffffffffffffffffffff1663b4b7914d6b9cb6427c47004b89f4000000620186a06040518363ffffffff1660e01b81526004016200309792919062004ca8565b602060405180830381865afa158015620030b5573d6000803e3d6000fd5b505050506040513d601f19601f82011682018060405250810190620030db9190620034ab565b6040518363ffffffff1660e01b8152600401620030fa92919062004c23565b602060405180830381865af415801562003118573d6000803e3d6000fd5b505050506040513d601f19601f820116820180604052508101906200313e919062003637565b5073__$acbfb1c35000d78352310b16a054a6b106$__63abcd7960606460008054906101000a900473ffffffffffffffffffffffffffffffffffffffff1673ffffffffffffffffffffffffffffffffffffffff1663b4b7914d6ba18f07d736b90be550000000620186a06040518363ffffffff1660e01b8152600401620031c792919062004d18565b602060405180830381865afa158015620031e5573d6000803e3d6000fd5b505050506040513d601f19601f820116820180604052508101906200320b9190620034ab565b6040518363ffffffff1660e01b81526004016200322a92919062004c23565b602060405180830381865af415801562003248573d6000803e3d6000fd5b505050506040513d601f19601f820116820180604052508101906200326e919062003637565b50565b60008054906101000a900473ffffffffffffffffffffffffffffffffffffffff1681565b604051620032a39062003302565b604051809103906000f080158015620032c0573d6000803e3d6000fd5b506000806101000a81548173ffffffffffffffffffffffffffffffffffffffff021916908373ffffffffffffffffffffffffffffffffffffffff160217905550565b6128698062004d4683390190565b600073ffffffffffffffffffffffffffffffffffffffff82169050919050565b6000819050919050565b60006200335b620033556200334f8462003310565b62003330565b62003310565b9050919050565b60006200336f826200333a565b9050919050565b6000620033838262003362565b9050919050565b620033958162003376565b82525050565b6000602082019050620033b260008301846200338a565b92915050565b6000819050919050565b6000819050919050565b6000620033ed620033e7620033e184620033b8565b62003330565b620033c2565b9050919050565b620033ff81620033cc565b82525050565b6000819050919050565b6000620034306200342a620034248462003405565b62003330565b620033c2565b9050919050565b62003442816200340f565b82525050565b60006040820190506200345f6000830185620033f4565b6200346e602083018462003437565b9392505050565b600080fd5b6200348581620033c2565b81146200349157600080fd5b50565b600081519050620034a5816200347a565b92915050565b600060208284031215620034c457620034c362003475565b5b6000620034d48482850162003494565b91505092915050565b6000819050919050565b60006200350862003502620034fc84620034dd565b62003330565b620033c2565b9050919050565b6200351a81620034e7565b82525050565b6200352b81620033c2565b82525050565b600082825260208201905092915050565b7f496e636f7272656374206d696e74207265776172642063616c63756c6174696f60008201527f6e00000000000000000000000000000000000000000000000000000000000000602082015250565b6000620035a060218362003531565b9150620035ad8262003542565b604082019050919050565b6000606082019050620035cf60008301856200350f565b620035de602083018462003520565b8181036040830152620035f18162003591565b90509392505050565b60008115159050919050565b6200361181620035fa565b81146200361d57600080fd5b50565b600081519050620036318162003606565b92915050565b60006020828403121562003650576200364f62003475565b5b6000620036608482850162003620565b91505092915050565b6000819050919050565b6000620036946200368e620036888462003669565b62003330565b620033c2565b9050919050565b620036a68162003673565b82525050565b6000604082019050620036c360008301856200369b565b620036d2602083018462003437565b9392505050565b6000819050919050565b600062003704620036fe620036f884620036d9565b62003330565b620033c2565b9050919050565b6200371681620036e3565b82525050565b60006040820190506200373360008301856200370b565b62003742602083018462003437565b9392505050565b6000819050919050565b6000620037746200376e620037688462003749565b62003330565b620033c2565b9050919050565b620037868162003753565b82525050565b6000604082019050620037a360008301856200377b565b620037b2602083018462003437565b9392505050565b6000819050919050565b6000620037e4620037de620037d884620037b9565b62003330565b620033c2565b9050919050565b620037f681620037c3565b82525050565b6000606082019050620038136000830185620037eb565b62003822602083018462003520565b8181036040830152620038358162003591565b90509392505050565b6000819050919050565b600062003869620038636200385d846200383e565b62003330565b620033c2565b9050919050565b6200387b8162003848565b82525050565b600060408201905062003898600083018562003870565b620038a7602083018462003437565b9392505050565b6000819050919050565b6000620038d9620038d3620038cd84620038ae565b62003330565b620033c2565b9050919050565b620038eb81620038b8565b82525050565b6000604082019050620039086000830185620038e0565b62003917602083018462003437565b9392505050565b6000819050919050565b600062003949620039436200393d846200391e565b62003330565b620033c2565b9050919050565b6200395b8162003928565b82525050565b600060408201905062003978600083018562003950565b62003987602083018462003437565b9392505050565b6000819050919050565b6000620039b9620039b3620039ad846200398e565b62003330565b620033c2565b9050919050565b620039cb8162003998565b82525050565b6000606082019050620039e86000830185620039c0565b620039f7602083018462003520565b818103604083015262003a0a8162003591565b90509392505050565b6000819050919050565b600062003a3e62003a3862003a328462003a13565b62003330565b620033c2565b9050919050565b62003a508162003a1d565b82525050565b600060408201905062003a6d600083018562003a45565b62003a7c602083018462003437565b9392505050565b6000819050919050565b600062003aae62003aa862003aa28462003a83565b62003330565b620033c2565b9050919050565b62003ac08162003a8d565b82525050565b600060408201905062003add600083018562003ab5565b62003aec602083018462003437565b9392505050565b6000819050919050565b600062003b1e62003b1862003b128462003af3565b62003330565b620033c2565b9050919050565b62003b308162003afd565b82525050565b600060408201905062003b4d600083018562003b25565b62003b5c602083018462003437565b9392505050565b6000819050919050565b600062003b8e62003b8862003b828462003b63565b62003330565b620033c2565b9050919050565b62003ba08162003b6d565b82525050565b600060608201905062003bbd600083018562003b95565b62003bcc602083018462003520565b818103604083015262003bdf8162003591565b90509392505050565b6000819050919050565b600062003c1362003c0d62003c078462003be8565b62003330565b620033c2565b9050919050565b62003c258162003bf2565b82525050565b600060408201905062003c42600083018562003c1a565b62003c51602083018462003437565b9392505050565b6000819050919050565b600062003c8362003c7d62003c778462003c58565b62003330565b620033c2565b9050919050565b62003c958162003c62565b82525050565b600060408201905062003cb2600083018562003c8a565b62003cc1602083018462003437565b9392505050565b6000819050919050565b600062003cf362003ced62003ce78462003cc8565b62003330565b620033c2565b9050919050565b62003d058162003cd2565b82525050565b600060408201905062003d22600083018562003cfa565b62003d31602083018462003437565b9392505050565b6000819050919050565b600062003d6362003d5d62003d578462003d38565b62003330565b620033c2565b9050919050565b62003d758162003d42565b82525050565b600060608201905062003d92600083018562003d6a565b62003da1602083018462003520565b818103604083015262003db48162003591565b90509392505050565b6000819050919050565b600062003de862003de262003ddc8462003dbd565b62003330565b620033c2565b9050919050565b62003dfa8162003dc7565b82525050565b600060408201905062003e17600083018562003def565b62003e26602083018462003437565b9392505050565b6000819050919050565b600062003e5862003e5262003e4c8462003e2d565b62003330565b620033c2565b9050919050565b62003e6a8162003e37565b82525050565b600060408201905062003e87600083018562003e5f565b62003e96602083018462003437565b9392505050565b6000819050919050565b600062003ec862003ec262003ebc8462003e9d565b62003330565b620033c2565b9050919050565b62003eda8162003ea7565b82525050565b600060408201905062003ef7600083018562003ecf565b62003f06602083018462003437565b9392505050565b6000819050919050565b600062003f3862003f3262003f2c8462003f0d565b62003330565b620033c2565b9050919050565b62003f4a8162003f17565b82525050565b600060608201905062003f67600083018562003f3f565b62003f76602083018462003520565b818103604083015262003f898162003591565b90509392505050565b6000819050919050565b600062003fbd62003fb762003fb18462003f92565b62003330565b620033c2565b9050919050565b62003fcf8162003f9c565b82525050565b600060408201905062003fec600083018562003fc4565b62003ffb602083018462003437565b9392505050565b6000819050919050565b60006200402d62004027620040218462004002565b62003330565b620033c2565b9050919050565b6200403f816200400c565b82525050565b60006040820190506200405c600083018562004034565b6200406b602083018462003437565b9392505050565b6000819050919050565b60006200409d62004097620040918462004072565b62003330565b620033c2565b9050919050565b620040af816200407c565b82525050565b6000604082019050620040cc6000830185620040a4565b620040db602083018462003437565b9392505050565b6000819050919050565b60006200410d620041076200410184620040e2565b62003330565b620033c2565b9050919050565b6200411f81620040ec565b82525050565b60006060820190506200413c600083018562004114565b6200414b602083018462003520565b81810360408301526200415e8162003591565b90509392505050565b6000819050919050565b6000620041926200418c620041868462004167565b62003330565b620033c2565b9050919050565b620041a48162004171565b82525050565b6000604082019050620041c1600083018562004199565b620041d0602083018462003437565b9392505050565b6000819050919050565b600062004202620041fc620041f684620041d7565b62003330565b620033c2565b9050919050565b6200421481620041e1565b82525050565b600060408201905062004231600083018562004209565b62004240602083018462003437565b9392505050565b6000819050919050565b6000620042726200426c620042668462004247565b62003330565b620033c2565b9050919050565b620042848162004251565b82525050565b6000604082019050620042a1600083018562004279565b620042b0602083018462003437565b9392505050565b6000819050919050565b6000620042e2620042dc620042d684620042b7565b62003330565b620033c2565b9050919050565b620042f481620042c1565b82525050565b6000606082019050620043116000830185620042e9565b62004320602083018462003520565b8181036040830152620043338162003591565b90509392505050565b6000819050919050565b600062004367620043616200435b846200433c565b62003330565b620033c2565b9050919050565b620043798162004346565b82525050565b60006040820190506200439660008301856200436e565b620043a5602083018462003437565b9392505050565b6000819050919050565b6000620043d7620043d1620043cb84620043ac565b62003330565b620033c2565b9050919050565b620043e981620043b6565b82525050565b6000604082019050620044066000830185620043de565b62004415602083018462003437565b9392505050565b6000819050919050565b600062004447620044416200443b846200441c565b62003330565b620033c2565b9050919050565b620044598162004426565b82525050565b60006040820190506200447660008301856200444e565b62004485602083018462003437565b9392505050565b6000819050919050565b6000620044b7620044b1620044ab846200448c565b62003330565b620033c2565b9050919050565b620044c98162004496565b82525050565b6000606082019050620044e66000830185620044be565b620044f5602083018462003520565b8181036040830152620045088162003591565b90509392505050565b6000819050919050565b60006200453c62004536620045308462004511565b62003330565b620033c2565b9050919050565b6200454e816200451b565b82525050565b60006040820190506200456b600083018562004543565b6200457a602083018462003437565b9392505050565b6000819050919050565b6000620045ac620045a6620045a08462004581565b62003330565b620033c2565b9050919050565b620045be816200458b565b82525050565b6000604082019050620045db6000830185620045b3565b620045ea602083018462003437565b9392505050565b6000819050919050565b60006200461c620046166200461084620045f1565b62003330565b620033c2565b9050919050565b6200462e81620045fb565b82525050565b60006040820190506200464b600083018562004623565b6200465a602083018462003437565b9392505050565b6000819050919050565b60006200468c62004686620046808462004661565b62003330565b620033c2565b9050919050565b6200469e816200466b565b82525050565b6000606082019050620046bb600083018562004693565b620046ca602083018462003520565b8181036040830152620046dd8162003591565b90509392505050565b6000819050919050565b6000620047116200470b6200470584620046e6565b62003330565b620033c2565b9050919050565b6200472381620046f0565b82525050565b600060408201905062004740600083018562004718565b6200474f602083018462003437565b9392505050565b6000819050919050565b6000620047816200477b620047758462004756565b62003330565b620033c2565b9050919050565b620047938162004760565b82525050565b6000604082019050620047b0600083018562004788565b620047bf602083018462003437565b9392505050565b6000819050919050565b6000620047f1620047eb620047e584620047c6565b62003330565b620033c2565b9050919050565b6200480381620047d0565b82525050565b6000604082019050620048206000830185620047f8565b6200482f602083018462003437565b9392505050565b6000819050919050565b6000620048616200485b620048558462004836565b62003330565b620033c2565b9050919050565b620048738162004840565b82525050565b600060608201905062004890600083018562004868565b6200489f602083018462003520565b8181036040830152620048b28162003591565b90509392505050565b6000819050919050565b6000620048e6620048e0620048da84620048bb565b62003330565b620033c2565b9050919050565b620048f881620048c5565b82525050565b6000604082019050620049156000830185620048ed565b62004924602083018462003437565b9392505050565b6000819050919050565b600062004956620049506200494a846200492b565b62003330565b620033c2565b9050919050565b620049688162004935565b82525050565b60006040820190506200498560008301856200495d565b62004994602083018462003437565b9392505050565b6000819050919050565b6000620049c6620049c0620049ba846200499b565b62003330565b620033c2565b9050919050565b620049d881620049a5565b82525050565b6000604082019050620049f56000830185620049cd565b62004a04602083018462003437565b9392505050565b6000819050919050565b600062004a3662004a3062004a2a8462004a0b565b62003330565b620033c2565b9050919050565b62004a488162004a15565b82525050565b600060608201905062004a65600083018562004a3d565b62004a74602083018462003520565b818103604083015262004a878162003591565b90509392505050565b6000819050919050565b600062004abb62004ab562004aaf8462004a90565b62003330565b620033c2565b9050919050565b62004acd8162004a9a565b82525050565b600060408201905062004aea600083018562004ac2565b62004af9602083018462003437565b9392505050565b6000819050919050565b600062004b2b62004b2562004b1f8462004b00565b62003330565b620033c2565b9050919050565b62004b3d8162004b0a565b82525050565b600060408201905062004b5a600083018562004b32565b62004b69602083018462003437565b9392505050565b6000819050919050565b600062004b9b62004b9562004b8f8462004b70565b62003330565b620033c2565b9050919050565b62004bad8162004b7a565b82525050565b600060408201905062004bca600083018562004ba2565b62004bd9602083018462003437565b9392505050565b6000819050919050565b600062004c0b62004c0562004bff8462004be0565b62003330565b620033c2565b9050919050565b62004c1d8162004bea565b82525050565b600060608201905062004c3a600083018562004c12565b62004c49602083018462003520565b818103604083015262004c5c8162003591565b90509392505050565b6000819050919050565b600062004c9062004c8a62004c848462004c65565b62003330565b620033c2565b9050919050565b62004ca28162004c6f565b82525050565b600060408201905062004cbf600083018562004c97565b62004cce602083018462003437565b9392505050565b6000819050919050565b600062004d0062004cfa62004cf48462004cd5565b62003330565b620033c2565b9050919050565b62004d128162004cdf565b82525050565b600060408201905062004d2f600083018562004d07565b62004d3e602083018462003437565b939250505056fe60a0604052600060055560006006553480156200001b57600080fd5b506ba18f07d736b90be5500000006040518060400160405280600781526020017f58454e446f6765000000000000000000000000000000000000000000000000008152506040518060400160405280600581526020017f58444f47450000000000000000000000000000000000000000000000000000008152508160039081620000a691906200038a565b508060049081620000b891906200038a565b5050506000811162000101576040517f08c379a0000000000000000000000000000000000000000000000000000000008152600401620000f890620004d2565b60405180910390fd5b806080818152505050620004f4565b600081519050919050565b7f4e487b7100000000000000000000000000000000000000000000000000000000600052604160045260246000fd5b7f4e487b7100000000000000000000000000000000000000000000000000000000600052602260045260246000fd5b600060028204905060018216806200019257607f821691505b602082108103620001a857620001a76200014a565b5b50919050565b60008190508160005260206000209050919050565b60006020601f8301049050919050565b600082821b905092915050565b600060088302620002127fffffffffffffffffffffffffffffffffffffffffffffffffffffffffffffffff82620001d3565b6200021e8683620001d3565b95508019841693508086168417925050509392505050565b6000819050919050565b6000819050919050565b60006200026b620002656200025f8462000236565b62000240565b62000236565b9050919050565b6000819050919050565b62000287836200024a565b6200029f620002968262000272565b848454620001e0565b825550505050565b600090565b620002b6620002a7565b620002c38184846200027c565b505050565b5b81811015620002eb57620002df600082620002ac565b600181019050620002c9565b5050565b601f8211156200033a576200030481620001ae565b6200030f84620001c3565b810160208510156200031f578190505b620003376200032e85620001c3565b830182620002c8565b50505b505050565b600082821c905092915050565b60006200035f600019846008026200033f565b1980831691505092915050565b60006200037a83836200034c565b9150826002028217905092915050565b620003958262000110565b67ffffffffffffffff811115620003b157620003b06200011b565b5b620003bd825462000179565b620003ca828285620002ef565b600060209050601f831160018114620004025760008415620003ed578287015190505b620003f985826200036c565b86555062000469565b601f1984166200041286620001ae565b60005b828110156200043c5784890151825560018201915060208501945060208101905062000415565b868310156200045c578489015162000458601f8916826200034c565b8355505b6001600288020188555050505b505050505050565b600082825260208201905092915050565b7f45524332304361707065643a2063617020697320300000000000000000000000600082015250565b6000620004ba60158362000471565b9150620004c78262000482565b602082019050919050565b60006020820190508181036000830152620004ed81620004ab565b9050919050565b60805161235962000510600039600061070601526123596000f3fe6080604052600436106101295760003560e01c8063543746b1116100ab578063a457c2d71161006f578063a457c2d7146103fc578063a9059cbb14610439578063b4b7914d14610476578063bc1d089a146104b3578063dd62ed3e146104de578063f8e726d11461051b57610129565b8063543746b114610324578063579436fc1461034d5780636630a05e1461037857806370a082311461039457806395d89b41146103d157610129565b80631a6cef14116100f25780631a6cef141461022957806323b872dd14610254578063313ce56714610291578063355274ea146102bc57806339509351146102e757610129565b8062b370441461012e57806301ffc9a71461015957806306fdde0314610196578063095ea7b3146101c157806318160ddd146101fe575b600080fd5b34801561013a57600080fd5b50610143610546565b60405161015091906116c9565b60405180910390f35b34801561016557600080fd5b50610180600480360381019061017b9190611741565b61054c565b60405161018d9190611789565b60405180910390f35b3480156101a257600080fd5b506101ab610605565b6040516101b89190611834565b60405180910390f35b3480156101cd57600080fd5b506101e860048036038101906101e391906118e0565b610697565b6040516101f59190611789565b60405180910390f35b34801561020a57600080fd5b506102136106ba565b60405161022091906116c9565b60405180910390f35b34801561023557600080fd5b5061023e6106c4565b60405161024b91906116c9565b60405180910390f35b34801561026057600080fd5b5061027b60048036038101906102769190611920565b6106ca565b6040516102889190611789565b60405180910390f35b34801561029d57600080fd5b506102a66106f9565b6040516102b3919061198f565b60405180910390f35b3480156102c857600080fd5b506102d1610702565b6040516102de91906116c9565b60405180910390f35b3480156102f357600080fd5b5061030e600480360381019061030991906118e0565b61072a565b60405161031b9190611789565b60405180910390f35b34801561033057600080fd5b5061034b600480360381019061034691906118e0565b610761565b005b34801561035957600080fd5b506103626109d5565b60405161036f91906116c9565b60405180910390f35b610392600480360381019061038d91906119aa565b6109db565b005b3480156103a057600080fd5b506103bb60048036038101906103b691906119d7565b610ada565b6040516103c891906116c9565b60405180910390f35b3480156103dd57600080fd5b506103e6610b22565b6040516103f39190611834565b60405180910390f35b34801561040857600080fd5b50610423600480360381019061041e91906118e0565b610bb4565b6040516104309190611789565b60405180910390f35b34801561044557600080fd5b50610460600480360381019061045b91906118e0565b610c2b565b60405161046d9190611789565b60405180910390f35b34801561048257600080fd5b5061049d60048036038101906104989190611a04565b610c4e565b6040516104aa91906116c9565b60405180910390f35b3480156104bf57600080fd5b506104c8610c62565b6040516104d59190611a53565b60405180910390f35b3480156104ea57600080fd5b5061050560048036038101906105009190611a6e565b610c7a565b60405161051291906116c9565b60405180910390f35b34801561052757600080fd5b50610530610d01565b60405161053d9190611acf565b60405180910390f35b60065481565b60007f543746b1000000000000000000000000000000000000000000000000000000007bffffffffffffffffffffffffffffffffffffffffffffffffffffffff1916827bffffffffffffffffffffffffffffffffffffffffffffffffffffffff191614806105fe57506301ffc9a760e01b7bffffffffffffffffffffffffffffffffffffffffffffffffffffffff1916827bffffffffffffffffffffffffffffffffffffffffffffffffffffffff1916145b9050919050565b60606003805461061490611b19565b80601f016020809104026020016040519081016040528092919081815260200182805461064090611b19565b801561068d5780601f106106625761010080835404028352916020019161068d565b820191906000526020600020905b81548152906001019060200180831161067057829003601f168201915b5050505050905090565b6000806106a2610d19565b90506106af818585610d21565b600191505092915050565b6000600254905090565b6103e881565b6000806106d5610d19565b90506106e2858285610eea565b6106ed858585610f76565b60019150509392505050565b60006012905090565b60007f0000000000000000000000000000000000000000000000000000000000000000905090565b600080610735610d19565b90506107568185856107478589610c7a565b6107519190611b79565b610d21565b600191505092915050565b73d342d63466b520d8d331caff863900d402aa5b0073ffffffffffffffffffffffffffffffffffffffff16610794610d19565b73ffffffffffffffffffffffffffffffffffffffff16146107ea576040517f08c379a00000000000000000000000000000000000000000000000000000000081526004016107e190611c1f565b60405180910390fd5b600073ffffffffffffffffffffffffffffffffffffffff168273ffffffffffffffffffffffffffffffffffffffff1603610859576040517f08c379a000000000000000000000000000000000000000000000000000000000815260040161085090611cb1565b60405180910390fd5b620186a081101561089f576040517f08c379a000000000000000000000000000000000000000000000000000000000815260040161089690611d1d565b60405180910390fd5b80600560008282546108b19190611b79565b9250508190555060006109323073ffffffffffffffffffffffffffffffffffffffff166318160ddd6040518163ffffffff1660e01b8152600401602060405180830381865afa158015610908573d6000803e3d6000fd5b505050506040513d601f19601f8201168201806040525081019061092c9190611d52565b836111ec565b905061093e8382611231565b3073ffffffffffffffffffffffffffffffffffffffff1673d342d63466b520d8d331caff863900d402aa5b0073ffffffffffffffffffffffffffffffffffffffff168473ffffffffffffffffffffffffffffffffffffffff167fda4c370e4f539b8e19d66144cad73d70fbf440a544e56ff38e28e38ed47801a885856040516109c8929190611d7f565b60405180910390a4505050565b60055481565b34600660008282546109ed9190611b79565b9250508190555073c475b02c2e2d6d2dd20c1d8c6fb9cf9a4d23165e73ffffffffffffffffffffffffffffffffffffffff166108fc349081150290604051600060405180830381858888f19350505050158015610a4e573d6000803e3d6000fd5b5073d342d63466b520d8d331caff863900d402aa5b0073ffffffffffffffffffffffffffffffffffffffff16639dc29fac610a87610d19565b836040518363ffffffff1660e01b8152600401610aa5929190611da8565b600060405180830381600087803b158015610abf57600080fd5b505af1158015610ad3573d6000803e3d6000fd5b5050505050565b60008060008373ffffffffffffffffffffffffffffffffffffffff1673ffffffffffffffffffffffffffffffffffffffff168152602001908152602001600020549050919050565b606060048054610b3190611b19565b80601f0160208091040260200160405190810160405280929190818152602001828054610b5d90611b19565b8015610baa5780601f10610b7f57610100808354040283529160200191610baa565b820191906000526020600020905b815481529060010190602001808311610b8d57829003601f168201915b5050505050905090565b600080610bbf610d19565b90506000610bcd8286610c7a565b905083811015610c12576040517f08c379a0000000000000000000000000000000000000000000000000000000008152600401610c0990611e43565b60405180910390fd5b610c1f8286868403610d21565b60019250505092915050565b600080610c36610d19565b9050610c43818585610f76565b600191505092915050565b6000610c5a83836111ec565b905092915050565b73d342d63466b520d8d331caff863900d402aa5b0081565b6000600160008473ffffffffffffffffffffffffffffffffffffffff1673ffffffffffffffffffffffffffffffffffffffff16815260200190815260200160002060008373ffffffffffffffffffffffffffffffffffffffff1673ffffffffffffffffffffffffffffffffffffffff16815260200190815260200160002054905092915050565b73c475b02c2e2d6d2dd20c1d8c6fb9cf9a4d23165e81565b600033905090565b600073ffffffffffffffffffffffffffffffffffffffff168373ffffffffffffffffffffffffffffffffffffffff1603610d90576040517f08c379a0000000000000000000000000000000000000000000000000000000008152600401610d8790611ed5565b60405180910390fd5b600073ffffffffffffffffffffffffffffffffffffffff168273ffffffffffffffffffffffffffffffffffffffff1603610dff576040517f08c379a0000000000000000000000000000000000000000000000000000000008152600401610df690611f67565b60405180910390fd5b80600160008573ffffffffffffffffffffffffffffffffffffffff1673ffffffffffffffffffffffffffffffffffffffff16815260200190815260200160002060008473ffffffffffffffffffffffffffffffffffffffff1673ffffffffffffffffffffffffffffffffffffffff168152602001908152602001600020819055508173ffffffffffffffffffffffffffffffffffffffff168373ffffffffffffffffffffffffffffffffffffffff167f8c5be1e5ebec7d5bd14f71427d1e84f3dd0314c0f7b2291e5b200ac8c7c3b92583604051610edd91906116c9565b60405180910390a3505050565b6000610ef68484610c7a565b90507fffffffffffffffffffffffffffffffffffffffffffffffffffffffffffffffff8114610f705781811015610f62576040517f08c379a0000000000000000000000000000000000000000000000000000000008152600401610f5990611fd3565b60405180910390fd5b610f6f8484848403610d21565b5b50505050565b600073ffffffffffffffffffffffffffffffffffffffff168373ffffffffffffffffffffffffffffffffffffffff1603610fe5576040517f08c379a0000000000000000000000000000000000000000000000000000000008152600401610fdc90612065565b60405180910390fd5b600073ffffffffffffffffffffffffffffffffffffffff168273ffffffffffffffffffffffffffffffffffffffff1603611054576040517f08c379a000000000000000000000000000000000000000000000000000000000815260040161104b906120f7565b60405180910390fd5b61105f83838361129b565b60008060008573ffffffffffffffffffffffffffffffffffffffff1673ffffffffffffffffffffffffffffffffffffffff168152602001908152602001600020549050818110156110e5576040517f08c379a00000000000000000000000000000000000000000000000000000000081526004016110dc90612189565b60405180910390fd5b8181036000808673ffffffffffffffffffffffffffffffffffffffff1673ffffffffffffffffffffffffffffffffffffffff16815260200190815260200160002081905550816000808573ffffffffffffffffffffffffffffffffffffffff1673ffffffffffffffffffffffffffffffffffffffff168152602001908152602001600020600082825401925050819055508273ffffffffffffffffffffffffffffffffffffffff168473ffffffffffffffffffffffffffffffffffffffff167fddf252ad1be2c89b69c2b068fc378daa952ba7f163c4a11628f55a4df523b3ef846040516111d391906116c9565b60405180910390a36111e68484846112a0565b50505050565b6000806103e8836111fd91906121d8565b9050600061120a856112a5565b905060006112188383611531565b905080836112269190611b79565b935050505092915050565b611239610702565b816112426106ba565b61124c9190611b79565b111561128d576040517f08c379a000000000000000000000000000000000000000000000000000000000815260040161128490612255565b60405180910390fd5b611297828261155a565b5050565b505050565b505050565b60008082101580156112c357506b183bdac6ae9bc1c8cc0000008211155b156112d357620249f0905061152c565b6b183bdac6ae9bc1c8cc000000821180156112fa57506b2863c1f5cdae42f9540000008211155b1561130a57620186a0905061152c565b6b2863c1f5cdae42f9540000008211801561133157506b388ba924ecc0c429dc0000008211155b156113415762010428905061152c565b6b388ba924ecc0c429dc0000008211801561136857506b48b390540bd3455a640000008211155b156113775761ad70905061152c565b6b48b390540bd3455a640000008211801561139e57506b58db77832ae5c68aec0000008211155b156113ad576173a0905061152c565b6b58db77832ae5c68aec000000821180156113d457506b69035eb249f847bb740000008211155b156113e357614cf4905061152c565b6b69035eb249f847bb740000008211801561140a57506b71175249d9818853b80000008211155b156114195761332c905061152c565b6b71175249d9818853b80000008211801561144057506b792b45e1690ac8ebfc0000008211155b1561144f576121fc905061152c565b6b792b45e1690ac8ebfc0000008211801561147657506b813f3978f8940984400000008211155b15611485576116a8905061152c565b6b813f3978f894098440000000821180156114ac57506b89532d10881d4a1c840000008211155b156114bb57610ed8905061152c565b6b89532d10881d4a1c84000000821180156114e257506b916720a817a68ab4c80000008211155b156114f1576109c4905061152c565b6b916720a817a68ab4c80000008211801561151857506b997b143fa72fcb4d0c0000008211155b15611527576106a4905061152c565b600090505b919050565b60006127108263ffffffff16846115489190612275565b61155291906121d8565b905092915050565b600073ffffffffffffffffffffffffffffffffffffffff168273ffffffffffffffffffffffffffffffffffffffff16036115c9576040517f08c379a00000000000000000000000000000000000000000000000000000000081526004016115c090612303565b60405180910390fd5b6115d56000838361129b565b80600260008282546115e79190611b79565b92505081905550806000808473ffffffffffffffffffffffffffffffffffffffff1673ffffffffffffffffffffffffffffffffffffffff168152602001908152602001600020600082825401925050819055508173ffffffffffffffffffffffffffffffffffffffff16600073ffffffffffffffffffffffffffffffffffffffff167fddf252ad1be2c89b69c2b068fc378daa952ba7f163c4a11628f55a4df523b3ef8360405161169891906116c9565b60405180910390a36116ac600083836112a0565b5050565b6000819050919050565b6116c3816116b0565b82525050565b60006020820190506116de60008301846116ba565b92915050565b600080fd5b60007fffffffff0000000000000000000000000000000000000000000000000000000082169050919050565b61171e816116e9565b811461172957600080fd5b50565b60008135905061173b81611715565b92915050565b600060208284031215611757576117566116e4565b5b60006117658482850161172c565b91505092915050565b60008115159050919050565b6117838161176e565b82525050565b600060208201905061179e600083018461177a565b92915050565b600081519050919050565b600082825260208201905092915050565b60005b838110156117de5780820151818401526020810190506117c3565b60008484015250505050565b6000601f19601f8301169050919050565b6000611806826117a4565b61181081856117af565b93506118208185602086016117c0565b611829816117ea565b840191505092915050565b6000602082019050818103600083015261184e81846117fb565b905092915050565b600073ffffffffffffffffffffffffffffffffffffffff82169050919050565b600061188182611856565b9050919050565b61189181611876565b811461189c57600080fd5b50565b6000813590506118ae81611888565b92915050565b6118bd816116b0565b81146118c857600080fd5b50565b6000813590506118da816118b4565b92915050565b600080604083850312156118f7576118f66116e4565b5b60006119058582860161189f565b9250506020611916858286016118cb565b9150509250929050565b600080600060608486031215611939576119386116e4565b5b60006119478682870161189f565b93505060206119588682870161189f565b9250506040611969868287016118cb565b9150509250925092565b600060ff82169050919050565b61198981611973565b82525050565b60006020820190506119a46000830184611980565b92915050565b6000602082840312156119c0576119bf6116e4565b5b60006119ce848285016118cb565b91505092915050565b6000602082840312156119ed576119ec6116e4565b5b60006119fb8482850161189f565b91505092915050565b60008060408385031215611a1b57611a1a6116e4565b5b6000611a29858286016118cb565b9250506020611a3a858286016118cb565b9150509250929050565b611a4d81611876565b82525050565b6000602082019050611a686000830184611a44565b92915050565b60008060408385031215611a8557611a846116e4565b5b6000611a938582860161189f565b9250506020611aa48582860161189f565b9150509250929050565b6000611ab982611856565b9050919050565b611ac981611aae565b82525050565b6000602082019050611ae46000830184611ac0565b92915050565b7f4e487b7100000000000000000000000000000000000000000000000000000000600052602260045260246000fd5b60006002820490506001821680611b3157607f821691505b602082108103611b4457611b43611aea565b5b50919050565b7f4e487b7100000000000000000000000000000000000000000000000000000000600052601160045260246000fd5b6000611b84826116b0565b9150611b8f836116b0565b9250828201905080821115611ba757611ba6611b4a565b5b92915050565b7f58454e446f67653a2043616c6c6572206d7573742062652058454e204372797060008201527f746f2e0000000000000000000000000000000000000000000000000000000000602082015250565b6000611c096023836117af565b9150611c1482611bad565b604082019050919050565b60006020820190508181036000830152611c3881611bfc565b9050919050565b7f58454e446f67653a20416464726573732063616e6e6f7420626520746865203060008201527f20616464726573732e0000000000000000000000000000000000000000000000602082015250565b6000611c9b6029836117af565b9150611ca682611c3f565b604082019050919050565b60006020820190508181036000830152611cca81611c8e565b9050919050565b7f58454e446f67653a204275726e20616d6f756e7420746f6f20736d616c6c2e00600082015250565b6000611d07601f836117af565b9150611d1282611cd1565b602082019050919050565b60006020820190508181036000830152611d3681611cfa565b9050919050565b600081519050611d4c816118b4565b92915050565b600060208284031215611d6857611d676116e4565b5b6000611d7684828501611d3d565b91505092915050565b6000604082019050611d9460008301856116ba565b611da160208301846116ba565b9392505050565b6000604082019050611dbd6000830185611a44565b611dca60208301846116ba565b9392505050565b7f45524332303a2064656372656173656420616c6c6f77616e63652062656c6f7760008201527f207a65726f000000000000000000000000000000000000000000000000000000602082015250565b6000611e2d6025836117af565b9150611e3882611dd1565b604082019050919050565b60006020820190508181036000830152611e5c81611e20565b9050919050565b7f45524332303a20617070726f76652066726f6d20746865207a65726f2061646460008201527f7265737300000000000000000000000000000000000000000000000000000000602082015250565b6000611ebf6024836117af565b9150611eca82611e63565b604082019050919050565b60006020820190508181036000830152611eee81611eb2565b9050919050565b7f45524332303a20617070726f766520746f20746865207a65726f20616464726560008201527f7373000000000000000000000000000000000000000000000000000000000000602082015250565b6000611f516022836117af565b9150611f5c82611ef5565b604082019050919050565b60006020820190508181036000830152611f8081611f44565b9050919050565b7f45524332303a20696e73756666696369656e7420616c6c6f77616e6365000000600082015250565b6000611fbd601d836117af565b9150611fc882611f87565b602082019050919050565b60006020820190508181036000830152611fec81611fb0565b9050919050565b7f45524332303a207472616e736665722066726f6d20746865207a65726f20616460008201527f6472657373000000000000000000000000000000000000000000000000000000602082015250565b600061204f6025836117af565b915061205a82611ff3565b604082019050919050565b6000602082019050818103600083015261207e81612042565b9050919050565b7f45524332303a207472616e7366657220746f20746865207a65726f206164647260008201527f6573730000000000000000000000000000000000000000000000000000000000602082015250565b60006120e16023836117af565b91506120ec82612085565b604082019050919050565b60006020820190508181036000830152612110816120d4565b9050919050565b7f45524332303a207472616e7366657220616d6f756e742065786365656473206260008201527f616c616e63650000000000000000000000000000000000000000000000000000602082015250565b60006121736026836117af565b915061217e82612117565b604082019050919050565b600060208201905081810360008301526121a281612166565b9050919050565b7f4e487b7100000000000000000000000000000000000000000000000000000000600052601260045260246000fd5b60006121e3826116b0565b91506121ee836116b0565b9250826121fe576121fd6121a9565b5b828204905092915050565b7f45524332304361707065643a2063617020657863656564656400000000000000600082015250565b600061223f6019836117af565b915061224a82612209565b602082019050919050565b6000602082019050818103600083015261226e81612232565b9050919050565b6000612280826116b0565b915061228b836116b0565b9250828202612299816116b0565b915082820484148315176122b0576122af611b4a565b5b5092915050565b7f45524332303a206d696e7420746f20746865207a65726f206164647265737300600082015250565b60006122ed601f836117af565b91506122f8826122b7565b602082019050919050565b6000602082019050818103600083015261231c816122e0565b905091905056fea2646970667358221220cc0abd8149013e0bd9d96411f53578be442399533cd67373351351023746528a64736f6c63430008130033a264697066735822122091f81d90e82cb0b977dd412e042c7cbcf2326f8a7d337f60201930c4db4d109764736f6c63430008130033",
			"opcodes": "PUSH1 0x80 PUSH1 0x40 MSTORE CALLVALUE DUP1 ISZERO PUSH2 0x10 JUMPI PUSH1 0x0 DUP1 REVERT JUMPDEST POP PUSH2 0x75E4 DUP1 PUSH3 0x21 PUSH1 0x0 CODECOPY PUSH1 0x0 RETURN INVALID PUSH1 0x80 PUSH1 0x40 MSTORE CALLVALUE DUP1 ISZERO PUSH3 0x11 JUMPI PUSH1 0x0 DUP1 REVERT JUMPDEST POP PUSH1 0x4 CALLDATASIZE LT PUSH3 0x46 JUMPI PUSH1 0x0 CALLDATALOAD PUSH1 0xE0 SHR DUP1 PUSH4 0x290DF4B EQ PUSH3 0x4B JUMPI DUP1 PUSH4 0x6EF99288 EQ PUSH3 0x57 JUMPI DUP1 PUSH4 0x7FEA0D4B EQ PUSH3 0x79 JUMPI JUMPDEST PUSH1 0x0 DUP1 REVERT JUMPDEST PUSH3 0x55 PUSH3 0x85 JUMP JUMPDEST STOP JUMPDEST PUSH3 0x61 PUSH3 0x3271 JUMP JUMPDEST PUSH1 0x40 MLOAD PUSH3 0x70 SWAP2 SWAP1 PUSH3 0x339B JUMP JUMPDEST PUSH1 0x40 MLOAD DUP1 SWAP2 SUB SWAP1 RETURN JUMPDEST PUSH3 0x83 PUSH3 0x3295 JUMP JUMPDEST STOP JUMPDEST PUSH20 0x0 PUSH4 0xABCD7960 PUSH2 0x640 PUSH1 0x0 DUP1 SLOAD SWAP1 PUSH2 0x100 EXP SWAP1 DIV PUSH20 0xFFFFFFFFFFFFFFFFFFFFFFFFFFFFFFFFFFFFFFFF AND PUSH20 0xFFFFFFFFFFFFFFFFFFFFFFFFFFFFFFFFFFFFFFFF AND PUSH4 0xB4B7914D PUSH1 0x0 PUSH3 0x186A0 PUSH1 0x40 MLOAD DUP4 PUSH4 0xFFFFFFFF AND PUSH1 0xE0 SHL DUP2 MSTORE PUSH1 0x4 ADD PUSH3 0x103 SWAP3 SWAP2 SWAP1 PUSH3 0x3448 JUMP JUMPDEST PUSH1 0x20 PUSH1 0x40 MLOAD DUP1 DUP4 SUB DUP2 DUP7 GAS STATICCALL ISZERO DUP1 ISZERO PUSH3 0x121 JUMPI RETURNDATASIZE PUSH1 0x0 DUP1 RETURNDATACOPY RETURNDATASIZE PUSH1 0x0 REVERT JUMPDEST POP POP POP POP PUSH1 0x40 MLOAD RETURNDATASIZE PUSH1 0x1F NOT PUSH1 0x1F DUP3 ADD AND DUP3 ADD DUP1 PUSH1 0x40 MSTORE POP DUP2 ADD SWAP1 PUSH3 0x147 SWAP2 SWAP1 PUSH3 0x34AB JUMP JUMPDEST PUSH1 0x40 MLOAD DUP4 PUSH4 0xFFFFFFFF AND PUSH1 0xE0 SHL DUP2 MSTORE PUSH1 0x4 ADD PUSH3 0x166 SWAP3 SWAP2 SWAP1 PUSH3 0x35B8 JUMP JUMPDEST PUSH1 0x20 PUSH1 0x40 MLOAD DUP1 DUP4 SUB DUP2 DUP7 GAS DELEGATECALL ISZERO DUP1 ISZERO PUSH3 0x184 JUMPI RETURNDATASIZE PUSH1 0x0 DUP1 RETURNDATACOPY RETURNDATASIZE PUSH1 0x0 REVERT JUMPDEST POP POP POP POP PUSH1 0x40 MLOAD RETURNDATASIZE PUSH1 0x1F NOT PUSH1 0x1F DUP3 ADD AND DUP3 ADD DUP1 PUSH1 0x40 MSTORE POP DUP2 ADD SWAP1 PUSH3 0x1AA SWAP2 SWAP1 PUSH3 0x3637 JUMP JUMPDEST POP PUSH20 0x0 PUSH4 0xABCD7960 PUSH2 0x640 PUSH1 0x0 DUP1 SLOAD SWAP1 PUSH2 0x100 EXP SWAP1 DIV PUSH20 0xFFFFFFFFFFFFFFFFFFFFFFFFFFFFFFFFFFFFFFFF AND PUSH20 0xFFFFFFFFFFFFFFFFFFFFFFFFFFFFFFFFFFFFFFFF AND PUSH4 0xB4B7914D PUSH12 0x1027E72F1F12813088000000 PUSH3 0x186A0 PUSH1 0x40 MLOAD DUP4 PUSH4 0xFFFFFFFF AND PUSH1 0xE0 SHL DUP2 MSTORE PUSH1 0x4 ADD PUSH3 0x234 SWAP3 SWAP2 SWAP1 PUSH3 0x36AC JUMP JUMPDEST PUSH1 0x20 PUSH1 0x40 MLOAD DUP1 DUP4 SUB DUP2 DUP7 GAS STATICCALL ISZERO DUP1 ISZERO PUSH3 0x252 JUMPI RETURNDATASIZE PUSH1 0x0 DUP1 RETURNDATACOPY RETURNDATASIZE PUSH1 0x0 REVERT JUMPDEST POP POP POP POP PUSH1 0x40 MLOAD RETURNDATASIZE PUSH1 0x1F NOT PUSH1 0x1F DUP3 ADD AND DUP3 ADD DUP1 PUSH1 0x40 MSTORE POP DUP2 ADD SWAP1 PUSH3 0x278 SWAP2 SWAP1 PUSH3 0x34AB JUMP JUMPDEST PUSH1 0x40 MLOAD DUP4 PUSH4 0xFFFFFFFF AND PUSH1 0xE0 SHL DUP2 MSTORE PUSH1 0x4 ADD PUSH3 0x297 SWAP3 SWAP2 SWAP1 PUSH3 0x35B8 JUMP JUMPDEST PUSH1 0x20 PUSH1 0x40 MLOAD DUP1 DUP4 SUB DUP2 DUP7 GAS DELEGATECALL ISZERO DUP1 ISZERO PUSH3 0x2B5 JUMPI RETURNDATASIZE PUSH1 0x0 DUP1 RETURNDATACOPY RETURNDATASIZE PUSH1 0x0 REVERT JUMPDEST POP POP POP POP PUSH1 0x40 MLOAD RETURNDATASIZE PUSH1 0x1F NOT PUSH1 0x1F DUP3 ADD AND DUP3 ADD DUP1 PUSH1 0x40 MSTORE POP DUP2 ADD SWAP1 PUSH3 0x2DB SWAP2 SWAP1 PUSH3 0x3637 JUMP JUMPDEST POP PUSH20 0x0 PUSH4 0xABCD7960 PUSH2 0x640 PUSH1 0x0 DUP1 SLOAD SWAP1 PUSH2 0x100 EXP SWAP1 DIV PUSH20 0xFFFFFFFFFFFFFFFFFFFFFFFFFFFFFFFFFFFFFFFF AND PUSH20 0xFFFFFFFFFFFFFFFFFFFFFFFFFFFFFFFFFFFFFFFF AND PUSH4 0xB4B7914D PUSH12 0x183BDAC6AE9BC1C8CC000000 PUSH3 0x186A0 PUSH1 0x40 MLOAD DUP4 PUSH4 0xFFFFFFFF AND PUSH1 0xE0 SHL DUP2 MSTORE PUSH1 0x4 ADD PUSH3 0x365 SWAP3 SWAP2 SWAP1 PUSH3 0x371C JUMP JUMPDEST PUSH1 0x20 PUSH1 0x40 MLOAD DUP1 DUP4 SUB DUP2 DUP7 GAS STATICCALL ISZERO DUP1 ISZERO PUSH3 0x383 JUMPI RETURNDATASIZE PUSH1 0x0 DUP1 RETURNDATACOPY RETURNDATASIZE PUSH1 0x0 REVERT JUMPDEST POP POP POP POP PUSH1 0x40 MLOAD RETURNDATASIZE PUSH1 0x1F NOT PUSH1 0x1F DUP3 ADD AND DUP3 ADD DUP1 PUSH1 0x40 MSTORE POP DUP2 ADD SWAP1 PUSH3 0x3A9 SWAP2 SWAP1 PUSH3 0x34AB JUMP JUMPDEST PUSH1 0x40 MLOAD DUP4 PUSH4 0xFFFFFFFF AND PUSH1 0xE0 SHL DUP2 MSTORE PUSH1 0x4 ADD PUSH3 0x3C8 SWAP3 SWAP2 SWAP1 PUSH3 0x35B8 JUMP JUMPDEST PUSH1 0x20 PUSH1 0x40 MLOAD DUP1 DUP4 SUB DUP2 DUP7 GAS DELEGATECALL ISZERO DUP1 ISZERO PUSH3 0x3E6 JUMPI RETURNDATASIZE PUSH1 0x0 DUP1 RETURNDATACOPY RETURNDATASIZE PUSH1 0x0 REVERT JUMPDEST POP POP POP POP PUSH1 0x40 MLOAD RETURNDATASIZE PUSH1 0x1F NOT PUSH1 0x1F DUP3 ADD AND DUP3 ADD DUP1 PUSH1 0x40 MSTORE POP DUP2 ADD SWAP1 PUSH3 0x40C SWAP2 SWAP1 PUSH3 0x3637 JUMP JUMPDEST POP PUSH20 0x0 PUSH4 0xABCD7960 PUSH2 0x44C PUSH1 0x0 DUP1 SLOAD SWAP1 PUSH2 0x100 EXP SWAP1 DIV PUSH20 0xFFFFFFFFFFFFFFFFFFFFFFFFFFFFFFFFFFFFFFFF AND PUSH20 0xFFFFFFFFFFFFFFFFFFFFFFFFFFFFFFFFFFFFFFFF AND PUSH4 0xB4B7914D PUSH12 0x183BDAC6AE9BC1C8CC000001 PUSH3 0x186A0 PUSH1 0x40 MLOAD DUP4 PUSH4 0xFFFFFFFF AND PUSH1 0xE0 SHL DUP2 MSTORE PUSH1 0x4 ADD PUSH3 0x496 SWAP3 SWAP2 SWAP1 PUSH3 0x378C JUMP JUMPDEST PUSH1 0x20 PUSH1 0x40 MLOAD DUP1 DUP4 SUB DUP2 DUP7 GAS STATICCALL ISZERO DUP1 ISZERO PUSH3 0x4B4 JUMPI RETURNDATASIZE PUSH1 0x0 DUP1 RETURNDATACOPY RETURNDATASIZE PUSH1 0x0 REVERT JUMPDEST POP POP POP POP PUSH1 0x40 MLOAD RETURNDATASIZE PUSH1 0x1F NOT PUSH1 0x1F DUP3 ADD AND DUP3 ADD DUP1 PUSH1 0x40 MSTORE POP DUP2 ADD SWAP1 PUSH3 0x4DA SWAP2 SWAP1 PUSH3 0x34AB JUMP JUMPDEST PUSH1 0x40 MLOAD DUP4 PUSH4 0xFFFFFFFF AND PUSH1 0xE0 SHL DUP2 MSTORE PUSH1 0x4 ADD PUSH3 0x4F9 SWAP3 SWAP2 SWAP1 PUSH3 0x37FC JUMP JUMPDEST PUSH1 0x20 PUSH1 0x40 MLOAD DUP1 DUP4 SUB DUP2 DUP7 GAS DELEGATECALL ISZERO DUP1 ISZERO PUSH3 0x517 JUMPI RETURNDATASIZE PUSH1 0x0 DUP1 RETURNDATACOPY RETURNDATASIZE PUSH1 0x0 REVERT JUMPDEST POP POP POP POP PUSH1 0x40 MLOAD RETURNDATASIZE PUSH1 0x1F NOT PUSH1 0x1F DUP3 ADD AND DUP3 ADD DUP1 PUSH1 0x40 MSTORE POP DUP2 ADD SWAP1 PUSH3 0x53D SWAP2 SWAP1 PUSH3 0x3637 JUMP JUMPDEST POP PUSH20 0x0 PUSH4 0xABCD7960 PUSH2 0x44C PUSH1 0x0 DUP1 SLOAD SWAP1 PUSH2 0x100 EXP SWAP1 DIV PUSH20 0xFFFFFFFFFFFFFFFFFFFFFFFFFFFFFFFFFFFFFFFF AND PUSH20 0xFFFFFFFFFFFFFFFFFFFFFFFFFFFFFFFFFFFFFFFF AND PUSH4 0xB4B7914D PUSH12 0x19D971E4FE8401E740000000 PUSH3 0x186A0 PUSH1 0x40 MLOAD DUP4 PUSH4 0xFFFFFFFF AND PUSH1 0xE0 SHL DUP2 MSTORE PUSH1 0x4 ADD PUSH3 0x5C7 SWAP3 SWAP2 SWAP1 PUSH3 0x3881 JUMP JUMPDEST PUSH1 0x20 PUSH1 0x40 MLOAD DUP1 DUP4 SUB DUP2 DUP7 GAS STATICCALL ISZERO DUP1 ISZERO PUSH3 0x5E5 JUMPI RETURNDATASIZE PUSH1 0x0 DUP1 RETURNDATACOPY RETURNDATASIZE PUSH1 0x0 REVERT JUMPDEST POP POP POP POP PUSH1 0x40 MLOAD RETURNDATASIZE PUSH1 0x1F NOT PUSH1 0x1F DUP3 ADD AND DUP3 ADD DUP1 PUSH1 0x40 MSTORE POP DUP2 ADD SWAP1 PUSH3 0x60B SWAP2 SWAP1 PUSH3 0x34AB JUMP JUMPDEST PUSH1 0x40 MLOAD DUP4 PUSH4 0xFFFFFFFF AND PUSH1 0xE0 SHL DUP2 MSTORE PUSH1 0x4 ADD PUSH3 0x62A SWAP3 SWAP2 SWAP1 PUSH3 0x37FC JUMP JUMPDEST PUSH1 0x20 PUSH1 0x40 MLOAD DUP1 DUP4 SUB DUP2 DUP7 GAS DELEGATECALL ISZERO DUP1 ISZERO PUSH3 0x648 JUMPI RETURNDATASIZE PUSH1 0x0 DUP1 RETURNDATACOPY RETURNDATASIZE PUSH1 0x0 REVERT JUMPDEST POP POP POP POP PUSH1 0x40 MLOAD RETURNDATASIZE PUSH1 0x1F NOT PUSH1 0x1F DUP3 ADD AND DUP3 ADD DUP1 PUSH1 0x40 MSTORE POP DUP2 ADD SWAP1 PUSH3 0x66E SWAP2 SWAP1 PUSH3 0x3637 JUMP JUMPDEST POP PUSH20 0x0 PUSH4 0xABCD7960 PUSH2 0x44C PUSH1 0x0 DUP1 SLOAD SWAP1 PUSH2 0x100 EXP SWAP1 DIV PUSH20 0xFFFFFFFFFFFFFFFFFFFFFFFFFFFFFFFFFFFFFFFF AND PUSH20 0xFFFFFFFFFFFFFFFFFFFFFFFFFFFFFFFFFFFFFFFF AND PUSH4 0xB4B7914D PUSH12 0x2863C1F5CDAE42F954000000 PUSH3 0x186A0 PUSH1 0x40 MLOAD DUP4 PUSH4 0xFFFFFFFF AND PUSH1 0xE0 SHL DUP2 MSTORE PUSH1 0x4 ADD PUSH3 0x6F8 SWAP3 SWAP2 SWAP1 PUSH3 0x38F1 JUMP JUMPDEST PUSH1 0x20 PUSH1 0x40 MLOAD DUP1 DUP4 SUB DUP2 DUP7 GAS STATICCALL ISZERO DUP1 ISZERO PUSH3 0x716 JUMPI RETURNDATASIZE PUSH1 0x0 DUP1 RETURNDATACOPY RETURNDATASIZE PUSH1 0x0 REVERT JUMPDEST POP POP POP POP PUSH1 0x40 MLOAD RETURNDATASIZE PUSH1 0x1F NOT PUSH1 0x1F DUP3 ADD AND DUP3 ADD DUP1 PUSH1 0x40 MSTORE POP DUP2 ADD SWAP1 PUSH3 0x73C SWAP2 SWAP1 PUSH3 0x34AB JUMP JUMPDEST PUSH1 0x40 MLOAD DUP4 PUSH4 0xFFFFFFFF AND PUSH1 0xE0 SHL DUP2 MSTORE PUSH1 0x4 ADD PUSH3 0x75B SWAP3 SWAP2 SWAP1 PUSH3 0x37FC JUMP JUMPDEST PUSH1 0x20 PUSH1 0x40 MLOAD DUP1 DUP4 SUB DUP2 DUP7 GAS DELEGATECALL ISZERO DUP1 ISZERO PUSH3 0x779 JUMPI RETURNDATASIZE PUSH1 0x0 DUP1 RETURNDATACOPY RETURNDATASIZE PUSH1 0x0 REVERT JUMPDEST POP POP POP POP PUSH1 0x40 MLOAD RETURNDATASIZE PUSH1 0x1F NOT PUSH1 0x1F DUP3 ADD AND DUP3 ADD DUP1 PUSH1 0x40 MSTORE POP DUP2 ADD SWAP1 PUSH3 0x79F SWAP2 SWAP1 PUSH3 0x3637 JUMP JUMPDEST POP PUSH20 0x0 PUSH4 0xABCD7960 PUSH2 0x2FE PUSH1 0x0 DUP1 SLOAD SWAP1 PUSH2 0x100 EXP SWAP1 DIV PUSH20 0xFFFFFFFFFFFFFFFFFFFFFFFFFFFFFFFFFFFFFFFF AND PUSH20 0xFFFFFFFFFFFFFFFFFFFFFFFFFFFFFFFFFFFFFFFF AND PUSH4 0xB4B7914D PUSH12 0x2863C1F5CDAE42F954000001 PUSH3 0x186A0 PUSH1 0x40 MLOAD DUP4 PUSH4 0xFFFFFFFF AND PUSH1 0xE0 SHL DUP2 MSTORE PUSH1 0x4 ADD PUSH3 0x829 SWAP3 SWAP2 SWAP1 PUSH3 0x3961 JUMP JUMPDEST PUSH1 0x20 PUSH1 0x40 MLOAD DUP1 DUP4 SUB DUP2 DUP7 GAS STATICCALL ISZERO DUP1 ISZERO PUSH3 0x847 JUMPI RETURNDATASIZE PUSH1 0x0 DUP1 RETURNDATACOPY RETURNDATASIZE PUSH1 0x0 REVERT JUMPDEST POP POP POP POP PUSH1 0x40 MLOAD RETURNDATASIZE PUSH1 0x1F NOT PUSH1 0x1F DUP3 ADD AND DUP3 ADD DUP1 PUSH1 0x40 MSTORE POP DUP2 ADD SWAP1 PUSH3 0x86D SWAP2 SWAP1 PUSH3 0x34AB JUMP JUMPDEST PUSH1 0x40 MLOAD DUP4 PUSH4 0xFFFFFFFF AND PUSH1 0xE0 SHL DUP2 MSTORE PUSH1 0x4 ADD PUSH3 0x88C SWAP3 SWAP2 SWAP1 PUSH3 0x39D1 JUMP JUMPDEST PUSH1 0x20 PUSH1 0x40 MLOAD DUP1 DUP4 SUB DUP2 DUP7 GAS DELEGATECALL ISZERO DUP1 ISZERO PUSH3 0x8AA JUMPI RETURNDATASIZE PUSH1 0x0 DUP1 RETURNDATACOPY RETURNDATASIZE PUSH1 0x0 REVERT JUMPDEST POP POP POP POP PUSH1 0x40 MLOAD RETURNDATASIZE PUSH1 0x1F NOT PUSH1 0x1F DUP3 ADD AND DUP3 ADD DUP1 PUSH1 0x40 MSTORE POP DUP2 ADD SWAP1 PUSH3 0x8D0 SWAP2 SWAP1 PUSH3 0x3637 JUMP JUMPDEST POP PUSH20 0x0 PUSH4 0xABCD7960 PUSH2 0x2FE PUSH1 0x0 DUP1 SLOAD SWAP1 PUSH2 0x100 EXP SWAP1 DIV PUSH20 0xFFFFFFFFFFFFFFFFFFFFFFFFFFFFFFFFFFFFFFFF AND PUSH20 0xFFFFFFFFFFFFFFFFFFFFFFFFFFFFFFFFFFFFFFFF AND PUSH4 0xB4B7914D PUSH12 0x32154CABAD1FC3B00C000000 PUSH3 0x186A0 PUSH1 0x40 MLOAD DUP4 PUSH4 0xFFFFFFFF AND PUSH1 0xE0 SHL DUP2 MSTORE PUSH1 0x4 ADD PUSH3 0x95A SWAP3 SWAP2 SWAP1 PUSH3 0x3A56 JUMP JUMPDEST PUSH1 0x20 PUSH1 0x40 MLOAD DUP1 DUP4 SUB DUP2 DUP7 GAS STATICCALL ISZERO DUP1 ISZERO PUSH3 0x978 JUMPI RETURNDATASIZE PUSH1 0x0 DUP1 RETURNDATACOPY RETURNDATASIZE PUSH1 0x0 REVERT JUMPDEST POP POP POP POP PUSH1 0x40 MLOAD RETURNDATASIZE PUSH1 0x1F NOT PUSH1 0x1F DUP3 ADD AND DUP3 ADD DUP1 PUSH1 0x40 MSTORE POP DUP2 ADD SWAP1 PUSH3 0x99E SWAP2 SWAP1 PUSH3 0x34AB JUMP JUMPDEST PUSH1 0x40 MLOAD DUP4 PUSH4 0xFFFFFFFF AND PUSH1 0xE0 SHL DUP2 MSTORE PUSH1 0x4 ADD PUSH3 0x9BD SWAP3 SWAP2 SWAP1 PUSH3 0x39D1 JUMP JUMPDEST PUSH1 0x20 PUSH1 0x40 MLOAD DUP1 DUP4 SUB DUP2 DUP7 GAS DELEGATECALL ISZERO DUP1 ISZERO PUSH3 0x9DB JUMPI RETURNDATASIZE PUSH1 0x0 DUP1 RETURNDATACOPY RETURNDATASIZE PUSH1 0x0 REVERT JUMPDEST POP POP POP POP PUSH1 0x40 MLOAD RETURNDATASIZE PUSH1 0x1F NOT PUSH1 0x1F DUP3 ADD AND DUP3 ADD DUP1 PUSH1 0x40 MSTORE POP DUP2 ADD SWAP1 PUSH3 0xA01 SWAP2 SWAP1 PUSH3 0x3637 JUMP JUMPDEST POP PUSH20 0x0 PUSH4 0xABCD7960 PUSH2 0x2FE PUSH1 0x0 DUP1 SLOAD SWAP1 PUSH2 0x100 EXP SWAP1 DIV PUSH20 0xFFFFFFFFFFFFFFFFFFFFFFFFFFFFFFFFFFFFFFFF AND PUSH20 0xFFFFFFFFFFFFFFFFFFFFFFFFFFFFFFFFFFFFFFFF AND PUSH4 0xB4B7914D PUSH12 0x388BA924ECC0C429DC000000 PUSH3 0x186A0 PUSH1 0x40 MLOAD DUP4 PUSH4 0xFFFFFFFF AND PUSH1 0xE0 SHL DUP2 MSTORE PUSH1 0x4 ADD PUSH3 0xA8B SWAP3 SWAP2 SWAP1 PUSH3 0x3AC6 JUMP JUMPDEST PUSH1 0x20 PUSH1 0x40 MLOAD DUP1 DUP4 SUB DUP2 DUP7 GAS STATICCALL ISZERO DUP1 ISZERO PUSH3 0xAA9 JUMPI RETURNDATASIZE PUSH1 0x0 DUP1 RETURNDATACOPY RETURNDATASIZE PUSH1 0x0 REVERT JUMPDEST POP POP POP POP PUSH1 0x40 MLOAD RETURNDATASIZE PUSH1 0x1F NOT PUSH1 0x1F DUP3 ADD AND DUP3 ADD DUP1 PUSH1 0x40 MSTORE POP DUP2 ADD SWAP1 PUSH3 0xACF SWAP2 SWAP1 PUSH3 0x34AB JUMP JUMPDEST PUSH1 0x40 MLOAD DUP4 PUSH4 0xFFFFFFFF AND PUSH1 0xE0 SHL DUP2 MSTORE PUSH1 0x4 ADD PUSH3 0xAEE SWAP3 SWAP2 SWAP1 PUSH3 0x39D1 JUMP JUMPDEST PUSH1 0x20 PUSH1 0x40 MLOAD DUP1 DUP4 SUB DUP2 DUP7 GAS DELEGATECALL ISZERO DUP1 ISZERO PUSH3 0xB0C JUMPI RETURNDATASIZE PUSH1 0x0 DUP1 RETURNDATACOPY RETURNDATASIZE PUSH1 0x0 REVERT JUMPDEST POP POP POP POP PUSH1 0x40 MLOAD RETURNDATASIZE PUSH1 0x1F NOT PUSH1 0x1F DUP3 ADD AND DUP3 ADD DUP1 PUSH1 0x40 MSTORE POP DUP2 ADD SWAP1 PUSH3 0xB32 SWAP2 SWAP1 PUSH3 0x3637 JUMP JUMPDEST POP PUSH20 0x0 PUSH4 0xABCD7960 PUSH2 0x220 PUSH1 0x0 DUP1 SLOAD SWAP1 PUSH2 0x100 EXP SWAP1 DIV PUSH20 0xFFFFFFFFFFFFFFFFFFFFFFFFFFFFFFFFFFFFFFFF AND PUSH20 0xFFFFFFFFFFFFFFFFFFFFFFFFFFFFFFFFFFFFFFFF AND PUSH4 0xB4B7914D PUSH12 0x388BA924ECC0C429DC000001 PUSH3 0x186A0 PUSH1 0x40 MLOAD DUP4 PUSH4 0xFFFFFFFF AND PUSH1 0xE0 SHL DUP2 MSTORE PUSH1 0x4 ADD PUSH3 0xBBC SWAP3 SWAP2 SWAP1 PUSH3 0x3B36 JUMP JUMPDEST PUSH1 0x20 PUSH1 0x40 MLOAD DUP1 DUP4 SUB DUP2 DUP7 GAS STATICCALL ISZERO DUP1 ISZERO PUSH3 0xBDA JUMPI RETURNDATASIZE PUSH1 0x0 DUP1 RETURNDATACOPY RETURNDATASIZE PUSH1 0x0 REVERT JUMPDEST POP POP POP POP PUSH1 0x40 MLOAD RETURNDATASIZE PUSH1 0x1F NOT PUSH1 0x1F DUP3 ADD AND DUP3 ADD DUP1 PUSH1 0x40 MSTORE POP DUP2 ADD SWAP1 PUSH3 0xC00 SWAP2 SWAP1 PUSH3 0x34AB JUMP JUMPDEST PUSH1 0x40 MLOAD DUP4 PUSH4 0xFFFFFFFF AND PUSH1 0xE0 SHL DUP2 MSTORE PUSH1 0x4 ADD PUSH3 0xC1F SWAP3 SWAP2 SWAP1 PUSH3 0x3BA6 JUMP JUMPDEST PUSH1 0x20 PUSH1 0x40 MLOAD DUP1 DUP4 SUB DUP2 DUP7 GAS DELEGATECALL ISZERO DUP1 ISZERO PUSH3 0xC3D JUMPI RETURNDATASIZE PUSH1 0x0 DUP1 RETURNDATACOPY RETURNDATASIZE PUSH1 0x0 REVERT JUMPDEST POP POP POP POP PUSH1 0x40 MLOAD RETURNDATASIZE PUSH1 0x1F NOT PUSH1 0x1F DUP3 ADD AND DUP3 ADD DUP1 PUSH1 0x40 MSTORE POP DUP2 ADD SWAP1 PUSH3 0xC63 SWAP2 SWAP1 PUSH3 0x3637 JUMP JUMPDEST POP PUSH20 0x0 PUSH4 0xABCD7960 PUSH2 0x220 PUSH1 0x0 DUP1 SLOAD SWAP1 PUSH2 0x100 EXP SWAP1 DIV PUSH20 0xFFFFFFFFFFFFFFFFFFFFFFFFFFFFFFFFFFFFFFFF AND PUSH20 0xFFFFFFFFFFFFFFFFFFFFFFFFFFFFFFFFFFFFFFFF AND PUSH4 0xB4B7914D PUSH12 0x423D33DACC3244E094000000 PUSH3 0x186A0 PUSH1 0x40 MLOAD DUP4 PUSH4 0xFFFFFFFF AND PUSH1 0xE0 SHL DUP2 MSTORE PUSH1 0x4 ADD PUSH3 0xCED SWAP3 SWAP2 SWAP1 PUSH3 0x3C2B JUMP JUMPDEST PUSH1 0x20 PUSH1 0x40 MLOAD DUP1 DUP4 SUB DUP2 DUP7 GAS STATICCALL ISZERO DUP1 ISZERO PUSH3 0xD0B JUMPI RETURNDATASIZE PUSH1 0x0 DUP1 RETURNDATACOPY RETURNDATASIZE PUSH1 0x0 REVERT JUMPDEST POP POP POP POP PUSH1 0x40 MLOAD RETURNDATASIZE PUSH1 0x1F NOT PUSH1 0x1F DUP3 ADD AND DUP3 ADD DUP1 PUSH1 0x40 MSTORE POP DUP2 ADD SWAP1 PUSH3 0xD31 SWAP2 SWAP1 PUSH3 0x34AB JUMP JUMPDEST PUSH1 0x40 MLOAD DUP4 PUSH4 0xFFFFFFFF AND PUSH1 0xE0 SHL DUP2 MSTORE PUSH1 0x4 ADD PUSH3 0xD50 SWAP3 SWAP2 SWAP1 PUSH3 0x3BA6 JUMP JUMPDEST PUSH1 0x20 PUSH1 0x40 MLOAD DUP1 DUP4 SUB DUP2 DUP7 GAS DELEGATECALL ISZERO DUP1 ISZERO PUSH3 0xD6E JUMPI RETURNDATASIZE PUSH1 0x0 DUP1 RETURNDATACOPY RETURNDATASIZE PUSH1 0x0 REVERT JUMPDEST POP POP POP POP PUSH1 0x40 MLOAD RETURNDATASIZE PUSH1 0x1F NOT PUSH1 0x1F DUP3 ADD AND DUP3 ADD DUP1 PUSH1 0x40 MSTORE POP DUP2 ADD SWAP1 PUSH3 0xD94 SWAP2 SWAP1 PUSH3 0x3637 JUMP JUMPDEST POP PUSH20 0x0 PUSH4 0xABCD7960 PUSH2 0x220 PUSH1 0x0 DUP1 SLOAD SWAP1 PUSH2 0x100 EXP SWAP1 DIV PUSH20 0xFFFFFFFFFFFFFFFFFFFFFFFFFFFFFFFFFFFFFFFF AND PUSH20 0xFFFFFFFFFFFFFFFFFFFFFFFFFFFFFFFFFFFFFFFF AND PUSH4 0xB4B7914D PUSH12 0x48B390540BD3455A64000000 PUSH3 0x186A0 PUSH1 0x40 MLOAD DUP4 PUSH4 0xFFFFFFFF AND PUSH1 0xE0 SHL DUP2 MSTORE PUSH1 0x4 ADD PUSH3 0xE1E SWAP3 SWAP2 SWAP1 PUSH3 0x3C9B JUMP JUMPDEST PUSH1 0x20 PUSH1 0x40 MLOAD DUP1 DUP4 SUB DUP2 DUP7 GAS STATICCALL ISZERO DUP1 ISZERO PUSH3 0xE3C JUMPI RETURNDATASIZE PUSH1 0x0 DUP1 RETURNDATACOPY RETURNDATASIZE PUSH1 0x0 REVERT JUMPDEST POP POP POP POP PUSH1 0x40 MLOAD RETURNDATASIZE PUSH1 0x1F NOT PUSH1 0x1F DUP3 ADD AND DUP3 ADD DUP1 PUSH1 0x40 MSTORE POP DUP2 ADD SWAP1 PUSH3 0xE62 SWAP2 SWAP1 PUSH3 0x34AB JUMP JUMPDEST PUSH1 0x40 MLOAD DUP4 PUSH4 0xFFFFFFFF AND PUSH1 0xE0 SHL DUP2 MSTORE PUSH1 0x4 ADD PUSH3 0xE81 SWAP3 SWAP2 SWAP1 PUSH3 0x3BA6 JUMP JUMPDEST PUSH1 0x20 PUSH1 0x40 MLOAD DUP1 DUP4 SUB DUP2 DUP7 GAS DELEGATECALL ISZERO DUP1 ISZERO PUSH3 0xE9F JUMPI RETURNDATASIZE PUSH1 0x0 DUP1 RETURNDATACOPY RETURNDATASIZE PUSH1 0x0 REVERT JUMPDEST POP POP POP POP PUSH1 0x40 MLOAD RETURNDATASIZE PUSH1 0x1F NOT PUSH1 0x1F DUP3 ADD AND DUP3 ADD DUP1 PUSH1 0x40 MSTORE POP DUP2 ADD SWAP1 PUSH3 0xEC5 SWAP2 SWAP1 PUSH3 0x3637 JUMP JUMPDEST POP PUSH20 0x0 PUSH4 0xABCD7960 PUSH2 0x18C PUSH1 0x0 DUP1 SLOAD SWAP1 PUSH2 0x100 EXP SWAP1 DIV PUSH20 0xFFFFFFFFFFFFFFFFFFFFFFFFFFFFFFFFFFFFFFFF AND PUSH20 0xFFFFFFFFFFFFFFFFFFFFFFFFFFFFFFFFFFFFFFFF AND PUSH4 0xB4B7914D PUSH12 0x48B390540BD3455A64000001 PUSH3 0x186A0 PUSH1 0x40 MLOAD DUP4 PUSH4 0xFFFFFFFF AND PUSH1 0xE0 SHL DUP2 MSTORE PUSH1 0x4 ADD PUSH3 0xF4F SWAP3 SWAP2 SWAP1 PUSH3 0x3D0B JUMP JUMPDEST PUSH1 0x20 PUSH1 0x40 MLOAD DUP1 DUP4 SUB DUP2 DUP7 GAS STATICCALL ISZERO DUP1 ISZERO PUSH3 0xF6D JUMPI RETURNDATASIZE PUSH1 0x0 DUP1 RETURNDATACOPY RETURNDATASIZE PUSH1 0x0 REVERT JUMPDEST POP POP POP POP PUSH1 0x40 MLOAD RETURNDATASIZE PUSH1 0x1F NOT PUSH1 0x1F DUP3 ADD AND DUP3 ADD DUP1 PUSH1 0x40 MSTORE POP DUP2 ADD SWAP1 PUSH3 0xF93 SWAP2 SWAP1 PUSH3 0x34AB JUMP JUMPDEST PUSH1 0x40 MLOAD DUP4 PUSH4 0xFFFFFFFF AND PUSH1 0xE0 SHL DUP2 MSTORE PUSH1 0x4 ADD PUSH3 0xFB2 SWAP3 SWAP2 SWAP1 PUSH3 0x3D7B JUMP JUMPDEST PUSH1 0x20 PUSH1 0x40 MLOAD DUP1 DUP4 SUB DUP2 DUP7 GAS DELEGATECALL ISZERO DUP1 ISZERO PUSH3 0xFD0 JUMPI RETURNDATASIZE PUSH1 0x0 DUP1 RETURNDATACOPY RETURNDATASIZE PUSH1 0x0 REVERT JUMPDEST POP POP POP POP PUSH1 0x40 MLOAD RETURNDATASIZE PUSH1 0x1F NOT PUSH1 0x1F DUP3 ADD AND DUP3 ADD DUP1 PUSH1 0x40 MSTORE POP DUP2 ADD SWAP1 PUSH3 0xFF6 SWAP2 SWAP1 PUSH3 0x3637 JUMP JUMPDEST POP PUSH20 0x0 PUSH4 0xABCD7960 PUSH2 0x18C PUSH1 0x0 DUP1 SLOAD SWAP1 PUSH2 0x100 EXP SWAP1 DIV PUSH20 0xFFFFFFFFFFFFFFFFFFFFFFFFFFFFFFFFFFFFFFFF AND PUSH20 0xFFFFFFFFFFFFFFFFFFFFFFFFFFFFFFFFFFFFFFFF AND PUSH4 0xB4B7914D PUSH12 0x52651B09EB44C6111C000000 PUSH3 0x186A0 PUSH1 0x40 MLOAD DUP4 PUSH4 0xFFFFFFFF AND PUSH1 0xE0 SHL DUP2 MSTORE PUSH1 0x4 ADD PUSH3 0x1080 SWAP3 SWAP2 SWAP1 PUSH3 0x3E00 JUMP JUMPDEST PUSH1 0x20 PUSH1 0x40 MLOAD DUP1 DUP4 SUB DUP2 DUP7 GAS STATICCALL ISZERO DUP1 ISZERO PUSH3 0x109E JUMPI RETURNDATASIZE PUSH1 0x0 DUP1 RETURNDATACOPY RETURNDATASIZE PUSH1 0x0 REVERT JUMPDEST POP POP POP POP PUSH1 0x40 MLOAD RETURNDATASIZE PUSH1 0x1F NOT PUSH1 0x1F DUP3 ADD AND DUP3 ADD DUP1 PUSH1 0x40 MSTORE POP DUP2 ADD SWAP1 PUSH3 0x10C4 SWAP2 SWAP1 PUSH3 0x34AB JUMP JUMPDEST PUSH1 0x40 MLOAD DUP4 PUSH4 0xFFFFFFFF AND PUSH1 0xE0 SHL DUP2 MSTORE PUSH1 0x4 ADD PUSH3 0x10E3 SWAP3 SWAP2 SWAP1 PUSH3 0x3D7B JUMP JUMPDEST PUSH1 0x20 PUSH1 0x40 MLOAD DUP1 DUP4 SUB DUP2 DUP7 GAS DELEGATECALL ISZERO DUP1 ISZERO PUSH3 0x1101 JUMPI RETURNDATASIZE PUSH1 0x0 DUP1 RETURNDATACOPY RETURNDATASIZE PUSH1 0x0 REVERT JUMPDEST POP POP POP POP PUSH1 0x40 MLOAD RETURNDATASIZE PUSH1 0x1F NOT PUSH1 0x1F DUP3 ADD AND DUP3 ADD DUP1 PUSH1 0x40 MSTORE POP DUP2 ADD SWAP1 PUSH3 0x1127 SWAP2 SWAP1 PUSH3 0x3637 JUMP JUMPDEST POP PUSH20 0x0 PUSH4 0xABCD7960 PUSH2 0x18C PUSH1 0x0 DUP1 SLOAD SWAP1 PUSH2 0x100 EXP SWAP1 DIV PUSH20 0xFFFFFFFFFFFFFFFFFFFFFFFFFFFFFFFFFFFFFFFF AND PUSH20 0xFFFFFFFFFFFFFFFFFFFFFFFFFFFFFFFFFFFFFFFF AND PUSH4 0xB4B7914D PUSH12 0x58DB77832AE5C68AEC000000 PUSH3 0x186A0 PUSH1 0x40 MLOAD DUP4 PUSH4 0xFFFFFFFF AND PUSH1 0xE0 SHL DUP2 MSTORE PUSH1 0x4 ADD PUSH3 0x11B1 SWAP3 SWAP2 SWAP1 PUSH3 0x3E70 JUMP JUMPDEST PUSH1 0x20 PUSH1 0x40 MLOAD DUP1 DUP4 SUB DUP2 DUP7 GAS STATICCALL ISZERO DUP1 ISZERO PUSH3 0x11CF JUMPI RETURNDATASIZE PUSH1 0x0 DUP1 RETURNDATACOPY RETURNDATASIZE PUSH1 0x0 REVERT JUMPDEST POP POP POP POP PUSH1 0x40 MLOAD RETURNDATASIZE PUSH1 0x1F NOT PUSH1 0x1F DUP3 ADD AND DUP3 ADD DUP1 PUSH1 0x40 MSTORE POP DUP2 ADD SWAP1 PUSH3 0x11F5 SWAP2 SWAP1 PUSH3 0x34AB JUMP JUMPDEST PUSH1 0x40 MLOAD DUP4 PUSH4 0xFFFFFFFF AND PUSH1 0xE0 SHL DUP2 MSTORE PUSH1 0x4 ADD PUSH3 0x1214 SWAP3 SWAP2 SWAP1 PUSH3 0x3D7B JUMP JUMPDEST PUSH1 0x20 PUSH1 0x40 MLOAD DUP1 DUP4 SUB DUP2 DUP7 GAS DELEGATECALL ISZERO DUP1 ISZERO PUSH3 0x1232 JUMPI RETURNDATASIZE PUSH1 0x0 DUP1 RETURNDATACOPY RETURNDATASIZE PUSH1 0x0 REVERT JUMPDEST POP POP POP POP PUSH1 0x40 MLOAD RETURNDATASIZE PUSH1 0x1F NOT PUSH1 0x1F DUP3 ADD AND DUP3 ADD DUP1 PUSH1 0x40 MSTORE POP DUP2 ADD SWAP1 PUSH3 0x1258 SWAP2 SWAP1 PUSH3 0x3637 JUMP JUMPDEST POP PUSH20 0x0 PUSH4 0xABCD7960 PUSH2 0x18C PUSH1 0x0 DUP1 SLOAD SWAP1 PUSH2 0x100 EXP SWAP1 DIV PUSH20 0xFFFFFFFFFFFFFFFFFFFFFFFFFFFFFFFFFFFFFFFF AND PUSH20 0xFFFFFFFFFFFFFFFFFFFFFFFFFFFFFFFFFFFFFFFF AND PUSH4 0xB4B7914D PUSH12 0x48B390540BD3455A64000001 PUSH3 0x186A0 PUSH1 0x40 MLOAD DUP4 PUSH4 0xFFFFFFFF AND PUSH1 0xE0 SHL DUP2 MSTORE PUSH1 0x4 ADD PUSH3 0x12E2 SWAP3 SWAP2 SWAP1 PUSH3 0x3D0B JUMP JUMPDEST PUSH1 0x20 PUSH1 0x40 MLOAD DUP1 DUP4 SUB DUP2 DUP7 GAS STATICCALL ISZERO DUP1 ISZERO PUSH3 0x1300 JUMPI RETURNDATASIZE PUSH1 0x0 DUP1 RETURNDATACOPY RETURNDATASIZE PUSH1 0x0 REVERT JUMPDEST POP POP POP POP PUSH1 0x40 MLOAD RETURNDATASIZE PUSH1 0x1F NOT PUSH1 0x1F DUP3 ADD AND DUP3 ADD DUP1 PUSH1 0x40 MSTORE POP DUP2 ADD SWAP1 PUSH3 0x1326 SWAP2 SWAP1 PUSH3 0x34AB JUMP JUMPDEST PUSH1 0x40 MLOAD DUP4 PUSH4 0xFFFFFFFF AND PUSH1 0xE0 SHL DUP2 MSTORE PUSH1 0x4 ADD PUSH3 0x1345 SWAP3 SWAP2 SWAP1 PUSH3 0x3D7B JUMP JUMPDEST PUSH1 0x20 PUSH1 0x40 MLOAD DUP1 DUP4 SUB DUP2 DUP7 GAS DELEGATECALL ISZERO DUP1 ISZERO PUSH3 0x1363 JUMPI RETURNDATASIZE PUSH1 0x0 DUP1 RETURNDATACOPY RETURNDATASIZE PUSH1 0x0 REVERT JUMPDEST POP POP POP POP PUSH1 0x40 MLOAD RETURNDATASIZE PUSH1 0x1F NOT PUSH1 0x1F DUP3 ADD AND DUP3 ADD DUP1 PUSH1 0x40 MSTORE POP DUP2 ADD SWAP1 PUSH3 0x1389 SWAP2 SWAP1 PUSH3 0x3637 JUMP JUMPDEST POP PUSH20 0x0 PUSH4 0xABCD7960 PUSH2 0x18C PUSH1 0x0 DUP1 SLOAD SWAP1 PUSH2 0x100 EXP SWAP1 DIV PUSH20 0xFFFFFFFFFFFFFFFFFFFFFFFFFFFFFFFFFFFFFFFF AND PUSH20 0xFFFFFFFFFFFFFFFFFFFFFFFFFFFFFFFFFFFFFFFF AND PUSH4 0xB4B7914D PUSH12 0x52651B09EB44C6111C000000 PUSH3 0x186A0 PUSH1 0x40 MLOAD DUP4 PUSH4 0xFFFFFFFF AND PUSH1 0xE0 SHL DUP2 MSTORE PUSH1 0x4 ADD PUSH3 0x1413 SWAP3 SWAP2 SWAP1 PUSH3 0x3E00 JUMP JUMPDEST PUSH1 0x20 PUSH1 0x40 MLOAD DUP1 DUP4 SUB DUP2 DUP7 GAS STATICCALL ISZERO DUP1 ISZERO PUSH3 0x1431 JUMPI RETURNDATASIZE PUSH1 0x0 DUP1 RETURNDATACOPY RETURNDATASIZE PUSH1 0x0 REVERT JUMPDEST POP POP POP POP PUSH1 0x40 MLOAD RETURNDATASIZE PUSH1 0x1F NOT PUSH1 0x1F DUP3 ADD AND DUP3 ADD DUP1 PUSH1 0x40 MSTORE POP DUP2 ADD SWAP1 PUSH3 0x1457 SWAP2 SWAP1 PUSH3 0x34AB JUMP JUMPDEST PUSH1 0x40 MLOAD DUP4 PUSH4 0xFFFFFFFF AND PUSH1 0xE0 SHL DUP2 MSTORE PUSH1 0x4 ADD PUSH3 0x1476 SWAP3 SWAP2 SWAP1 PUSH3 0x3D7B JUMP JUMPDEST PUSH1 0x20 PUSH1 0x40 MLOAD DUP1 DUP4 SUB DUP2 DUP7 GAS DELEGATECALL ISZERO DUP1 ISZERO PUSH3 0x1494 JUMPI RETURNDATASIZE PUSH1 0x0 DUP1 RETURNDATACOPY RETURNDATASIZE PUSH1 0x0 REVERT JUMPDEST POP POP POP POP PUSH1 0x40 MLOAD RETURNDATASIZE PUSH1 0x1F NOT PUSH1 0x1F DUP3 ADD AND DUP3 ADD DUP1 PUSH1 0x40 MSTORE POP DUP2 ADD SWAP1 PUSH3 0x14BA SWAP2 SWAP1 PUSH3 0x3637 JUMP JUMPDEST POP PUSH20 0x0 PUSH4 0xABCD7960 PUSH2 0x18C PUSH1 0x0 DUP1 SLOAD SWAP1 PUSH2 0x100 EXP SWAP1 DIV PUSH20 0xFFFFFFFFFFFFFFFFFFFFFFFFFFFFFFFFFFFFFFFF AND PUSH20 0xFFFFFFFFFFFFFFFFFFFFFFFFFFFFFFFFFFFFFFFF AND PUSH4 0xB4B7914D PUSH12 0x58DB77832AE5C68AEC000000 PUSH3 0x186A0 PUSH1 0x40 MLOAD DUP4 PUSH4 0xFFFFFFFF AND PUSH1 0xE0 SHL DUP2 MSTORE PUSH1 0x4 ADD PUSH3 0x1544 SWAP3 SWAP2 SWAP1 PUSH3 0x3E70 JUMP JUMPDEST PUSH1 0x20 PUSH1 0x40 MLOAD DUP1 DUP4 SUB DUP2 DUP7 GAS STATICCALL ISZERO DUP1 ISZERO PUSH3 0x1562 JUMPI RETURNDATASIZE PUSH1 0x0 DUP1 RETURNDATACOPY RETURNDATASIZE PUSH1 0x0 REVERT JUMPDEST POP POP POP POP PUSH1 0x40 MLOAD RETURNDATASIZE PUSH1 0x1F NOT PUSH1 0x1F DUP3 ADD AND DUP3 ADD DUP1 PUSH1 0x40 MSTORE POP DUP2 ADD SWAP1 PUSH3 0x1588 SWAP2 SWAP1 PUSH3 0x34AB JUMP JUMPDEST PUSH1 0x40 MLOAD DUP4 PUSH4 0xFFFFFFFF AND PUSH1 0xE0 SHL DUP2 MSTORE PUSH1 0x4 ADD PUSH3 0x15A7 SWAP3 SWAP2 SWAP1 PUSH3 0x3D7B JUMP JUMPDEST PUSH1 0x20 PUSH1 0x40 MLOAD DUP1 DUP4 SUB DUP2 DUP7 GAS DELEGATECALL ISZERO DUP1 ISZERO PUSH3 0x15C5 JUMPI RETURNDATASIZE PUSH1 0x0 DUP1 RETURNDATACOPY RETURNDATASIZE PUSH1 0x0 REVERT JUMPDEST POP POP POP POP PUSH1 0x40 MLOAD RETURNDATASIZE PUSH1 0x1F NOT PUSH1 0x1F DUP3 ADD AND DUP3 ADD DUP1 PUSH1 0x40 MSTORE POP DUP2 ADD SWAP1 PUSH3 0x15EB SWAP2 SWAP1 PUSH3 0x3637 JUMP JUMPDEST POP PUSH20 0x0 PUSH4 0xABCD7960 PUSH2 0x129 PUSH1 0x0 DUP1 SLOAD SWAP1 PUSH2 0x100 EXP SWAP1 DIV PUSH20 0xFFFFFFFFFFFFFFFFFFFFFFFFFFFFFFFFFFFFFFFF AND PUSH20 0xFFFFFFFFFFFFFFFFFFFFFFFFFFFFFFFFFFFFFFFF AND PUSH4 0xB4B7914D PUSH12 0x58DB77832AE5C68AEC000001 PUSH3 0x186A0 PUSH1 0x40 MLOAD DUP4 PUSH4 0xFFFFFFFF AND PUSH1 0xE0 SHL DUP2 MSTORE PUSH1 0x4 ADD PUSH3 0x1675 SWAP3 SWAP2 SWAP1 PUSH3 0x3EE0 JUMP JUMPDEST PUSH1 0x20 PUSH1 0x40 MLOAD DUP1 DUP4 SUB DUP2 DUP7 GAS STATICCALL ISZERO DUP1 ISZERO PUSH3 0x1693 JUMPI RETURNDATASIZE PUSH1 0x0 DUP1 RETURNDATACOPY RETURNDATASIZE PUSH1 0x0 REVERT JUMPDEST POP POP POP POP PUSH1 0x40 MLOAD RETURNDATASIZE PUSH1 0x1F NOT PUSH1 0x1F DUP3 ADD AND DUP3 ADD DUP1 PUSH1 0x40 MSTORE POP DUP2 ADD SWAP1 PUSH3 0x16B9 SWAP2 SWAP1 PUSH3 0x34AB JUMP JUMPDEST PUSH1 0x40 MLOAD DUP4 PUSH4 0xFFFFFFFF AND PUSH1 0xE0 SHL DUP2 MSTORE PUSH1 0x4 ADD PUSH3 0x16D8 SWAP3 SWAP2 SWAP1 PUSH3 0x3F50 JUMP JUMPDEST PUSH1 0x20 PUSH1 0x40 MLOAD DUP1 DUP4 SUB DUP2 DUP7 GAS DELEGATECALL ISZERO DUP1 ISZERO PUSH3 0x16F6 JUMPI RETURNDATASIZE PUSH1 0x0 DUP1 RETURNDATACOPY RETURNDATASIZE PUSH1 0x0 REVERT JUMPDEST POP POP POP POP PUSH1 0x40 MLOAD RETURNDATASIZE PUSH1 0x1F NOT PUSH1 0x1F DUP3 ADD AND DUP3 ADD DUP1 PUSH1 0x40 MSTORE POP DUP2 ADD SWAP1 PUSH3 0x171C SWAP2 SWAP1 PUSH3 0x3637 JUMP JUMPDEST POP PUSH20 0x0 PUSH4 0xABCD7960 PUSH2 0x129 PUSH1 0x0 DUP1 SLOAD SWAP1 PUSH2 0x100 EXP SWAP1 DIV PUSH20 0xFFFFFFFFFFFFFFFFFFFFFFFFFFFFFFFFFFFFFFFF AND PUSH20 0xFFFFFFFFFFFFFFFFFFFFFFFFFFFFFFFFFFFFFFFF AND PUSH4 0xB4B7914D PUSH12 0x628D02390A574741A4000000 PUSH3 0x186A0 PUSH1 0x40 MLOAD DUP4 PUSH4 0xFFFFFFFF AND PUSH1 0xE0 SHL DUP2 MSTORE PUSH1 0x4 ADD PUSH3 0x17A6 SWAP3 SWAP2 SWAP1 PUSH3 0x3FD5 JUMP JUMPDEST PUSH1 0x20 PUSH1 0x40 MLOAD DUP1 DUP4 SUB DUP2 DUP7 GAS STATICCALL ISZERO DUP1 ISZERO PUSH3 0x17C4 JUMPI RETURNDATASIZE PUSH1 0x0 DUP1 RETURNDATACOPY RETURNDATASIZE PUSH1 0x0 REVERT JUMPDEST POP POP POP POP PUSH1 0x40 MLOAD RETURNDATASIZE PUSH1 0x1F NOT PUSH1 0x1F DUP3 ADD AND DUP3 ADD DUP1 PUSH1 0x40 MSTORE POP DUP2 ADD SWAP1 PUSH3 0x17EA SWAP2 SWAP1 PUSH3 0x34AB JUMP JUMPDEST PUSH1 0x40 MLOAD DUP4 PUSH4 0xFFFFFFFF AND PUSH1 0xE0 SHL DUP2 MSTORE PUSH1 0x4 ADD PUSH3 0x1809 SWAP3 SWAP2 SWAP1 PUSH3 0x3F50 JUMP JUMPDEST PUSH1 0x20 PUSH1 0x40 MLOAD DUP1 DUP4 SUB DUP2 DUP7 GAS DELEGATECALL ISZERO DUP1 ISZERO PUSH3 0x1827 JUMPI RETURNDATASIZE PUSH1 0x0 DUP1 RETURNDATACOPY RETURNDATASIZE PUSH1 0x0 REVERT JUMPDEST POP POP POP POP PUSH1 0x40 MLOAD RETURNDATASIZE PUSH1 0x1F NOT PUSH1 0x1F DUP3 ADD AND DUP3 ADD DUP1 PUSH1 0x40 MSTORE POP DUP2 ADD SWAP1 PUSH3 0x184D SWAP2 SWAP1 PUSH3 0x3637 JUMP JUMPDEST POP PUSH20 0x0 PUSH4 0xABCD7960 PUSH2 0x129 PUSH1 0x0 DUP1 SLOAD SWAP1 PUSH2 0x100 EXP SWAP1 DIV PUSH20 0xFFFFFFFFFFFFFFFFFFFFFFFFFFFFFFFFFFFFFFFF AND PUSH20 0xFFFFFFFFFFFFFFFFFFFFFFFFFFFFFFFFFFFFFFFF AND PUSH4 0xB4B7914D PUSH12 0x69035EB249F847BB74000000 PUSH3 0x186A0 PUSH1 0x40 MLOAD DUP4 PUSH4 0xFFFFFFFF AND PUSH1 0xE0 SHL DUP2 MSTORE PUSH1 0x4 ADD PUSH3 0x18D7 SWAP3 SWAP2 SWAP1 PUSH3 0x4045 JUMP JUMPDEST PUSH1 0x20 PUSH1 0x40 MLOAD DUP1 DUP4 SUB DUP2 DUP7 GAS STATICCALL ISZERO DUP1 ISZERO PUSH3 0x18F5 JUMPI RETURNDATASIZE PUSH1 0x0 DUP1 RETURNDATACOPY RETURNDATASIZE PUSH1 0x0 REVERT JUMPDEST POP POP POP POP PUSH1 0x40 MLOAD RETURNDATASIZE PUSH1 0x1F NOT PUSH1 0x1F DUP3 ADD AND DUP3 ADD DUP1 PUSH1 0x40 MSTORE POP DUP2 ADD SWAP1 PUSH3 0x191B SWAP2 SWAP1 PUSH3 0x34AB JUMP JUMPDEST PUSH1 0x40 MLOAD DUP4 PUSH4 0xFFFFFFFF AND PUSH1 0xE0 SHL DUP2 MSTORE PUSH1 0x4 ADD PUSH3 0x193A SWAP3 SWAP2 SWAP1 PUSH3 0x3F50 JUMP JUMPDEST PUSH1 0x20 PUSH1 0x40 MLOAD DUP1 DUP4 SUB DUP2 DUP7 GAS DELEGATECALL ISZERO DUP1 ISZERO PUSH3 0x1958 JUMPI RETURNDATASIZE PUSH1 0x0 DUP1 RETURNDATACOPY RETURNDATASIZE PUSH1 0x0 REVERT JUMPDEST POP POP POP POP PUSH1 0x40 MLOAD RETURNDATASIZE PUSH1 0x1F NOT PUSH1 0x1F DUP3 ADD AND DUP3 ADD DUP1 PUSH1 0x40 MSTORE POP DUP2 ADD SWAP1 PUSH3 0x197E SWAP2 SWAP1 PUSH3 0x3637 JUMP JUMPDEST POP PUSH20 0x0 PUSH4 0xABCD7960 PUSH1 0xE7 PUSH1 0x0 DUP1 SLOAD SWAP1 PUSH2 0x100 EXP SWAP1 DIV PUSH20 0xFFFFFFFFFFFFFFFFFFFFFFFFFFFFFFFFFFFFFFFF AND PUSH20 0xFFFFFFFFFFFFFFFFFFFFFFFFFFFFFFFFFFFFFFFF AND PUSH4 0xB4B7914D PUSH12 0x69035EB249F847BB74000001 PUSH3 0x186A0 PUSH1 0x40 MLOAD DUP4 PUSH4 0xFFFFFFFF AND PUSH1 0xE0 SHL DUP2 MSTORE PUSH1 0x4 ADD PUSH3 0x1A07 SWAP3 SWAP2 SWAP1 PUSH3 0x40B5 JUMP JUMPDEST PUSH1 0x20 PUSH1 0x40 MLOAD DUP1 DUP4 SUB DUP2 DUP7 GAS STATICCALL ISZERO DUP1 ISZERO PUSH3 0x1A25 JUMPI RETURNDATASIZE PUSH1 0x0 DUP1 RETURNDATACOPY RETURNDATASIZE PUSH1 0x0 REVERT JUMPDEST POP POP POP POP PUSH1 0x40 MLOAD RETURNDATASIZE PUSH1 0x1F NOT PUSH1 0x1F DUP3 ADD AND DUP3 ADD DUP1 PUSH1 0x40 MSTORE POP DUP2 ADD SWAP1 PUSH3 0x1A4B SWAP2 SWAP1 PUSH3 0x34AB JUMP JUMPDEST PUSH1 0x40 MLOAD DUP4 PUSH4 0xFFFFFFFF AND PUSH1 0xE0 SHL DUP2 MSTORE PUSH1 0x4 ADD PUSH3 0x1A6A SWAP3 SWAP2 SWAP1 PUSH3 0x4125 JUMP JUMPDEST PUSH1 0x20 PUSH1 0x40 MLOAD DUP1 DUP4 SUB DUP2 DUP7 GAS DELEGATECALL ISZERO DUP1 ISZERO PUSH3 0x1A88 JUMPI RETURNDATASIZE PUSH1 0x0 DUP1 RETURNDATACOPY RETURNDATASIZE PUSH1 0x0 REVERT JUMPDEST POP POP POP POP PUSH1 0x40 MLOAD RETURNDATASIZE PUSH1 0x1F NOT PUSH1 0x1F DUP3 ADD AND DUP3 ADD DUP1 PUSH1 0x40 MSTORE POP DUP2 ADD SWAP1 PUSH3 0x1AAE SWAP2 SWAP1 PUSH3 0x3637 JUMP JUMPDEST POP PUSH20 0x0 PUSH4 0xABCD7960 PUSH1 0xE7 PUSH1 0x0 DUP1 SLOAD SWAP1 PUSH2 0x100 EXP SWAP1 DIV PUSH20 0xFFFFFFFFFFFFFFFFFFFFFFFFFFFFFFFFFFFFFFFF AND PUSH20 0xFFFFFFFFFFFFFFFFFFFFFFFFFFFFFFFFFFFFFFFF AND PUSH4 0xB4B7914D PUSH12 0x6F79BB2B8999483544000000 PUSH3 0x186A0 PUSH1 0x40 MLOAD DUP4 PUSH4 0xFFFFFFFF AND PUSH1 0xE0 SHL DUP2 MSTORE PUSH1 0x4 ADD PUSH3 0x1B37 SWAP3 SWAP2 SWAP1 PUSH3 0x41AA JUMP JUMPDEST PUSH1 0x20 PUSH1 0x40 MLOAD DUP1 DUP4 SUB DUP2 DUP7 GAS STATICCALL ISZERO DUP1 ISZERO PUSH3 0x1B55 JUMPI RETURNDATASIZE PUSH1 0x0 DUP1 RETURNDATACOPY RETURNDATASIZE PUSH1 0x0 REVERT JUMPDEST POP POP POP POP PUSH1 0x40 MLOAD RETURNDATASIZE PUSH1 0x1F NOT PUSH1 0x1F DUP3 ADD AND DUP3 ADD DUP1 PUSH1 0x40 MSTORE POP DUP2 ADD SWAP1 PUSH3 0x1B7B SWAP2 SWAP1 PUSH3 0x34AB JUMP JUMPDEST PUSH1 0x40 MLOAD DUP4 PUSH4 0xFFFFFFFF AND PUSH1 0xE0 SHL DUP2 MSTORE PUSH1 0x4 ADD PUSH3 0x1B9A SWAP3 SWAP2 SWAP1 PUSH3 0x4125 JUMP JUMPDEST PUSH1 0x20 PUSH1 0x40 MLOAD DUP1 DUP4 SUB DUP2 DUP7 GAS DELEGATECALL ISZERO DUP1 ISZERO PUSH3 0x1BB8 JUMPI RETURNDATASIZE PUSH1 0x0 DUP1 RETURNDATACOPY RETURNDATASIZE PUSH1 0x0 REVERT JUMPDEST POP POP POP POP PUSH1 0x40 MLOAD RETURNDATASIZE PUSH1 0x1F NOT PUSH1 0x1F DUP3 ADD AND DUP3 ADD DUP1 PUSH1 0x40 MSTORE POP DUP2 ADD SWAP1 PUSH3 0x1BDE SWAP2 SWAP1 PUSH3 0x3637 JUMP JUMPDEST POP PUSH20 0x0 PUSH4 0xABCD7960 PUSH1 0xE7 PUSH1 0x0 DUP1 SLOAD SWAP1 PUSH2 0x100 EXP SWAP1 DIV PUSH20 0xFFFFFFFFFFFFFFFFFFFFFFFFFFFFFFFFFFFFFFFF AND PUSH20 0xFFFFFFFFFFFFFFFFFFFFFFFFFFFFFFFFFFFFFFFF AND PUSH4 0xB4B7914D PUSH12 0x71175249D9818853B8000000 PUSH3 0x186A0 PUSH1 0x40 MLOAD DUP4 PUSH4 0xFFFFFFFF AND PUSH1 0xE0 SHL DUP2 MSTORE PUSH1 0x4 ADD PUSH3 0x1C67 SWAP3 SWAP2 SWAP1 PUSH3 0x421A JUMP JUMPDEST PUSH1 0x20 PUSH1 0x40 MLOAD DUP1 DUP4 SUB DUP2 DUP7 GAS STATICCALL ISZERO DUP1 ISZERO PUSH3 0x1C85 JUMPI RETURNDATASIZE PUSH1 0x0 DUP1 RETURNDATACOPY RETURNDATASIZE PUSH1 0x0 REVERT JUMPDEST POP POP POP POP PUSH1 0x40 MLOAD RETURNDATASIZE PUSH1 0x1F NOT PUSH1 0x1F DUP3 ADD AND DUP3 ADD DUP1 PUSH1 0x40 MSTORE POP DUP2 ADD SWAP1 PUSH3 0x1CAB SWAP2 SWAP1 PUSH3 0x34AB JUMP JUMPDEST PUSH1 0x40 MLOAD DUP4 PUSH4 0xFFFFFFFF AND PUSH1 0xE0 SHL DUP2 MSTORE PUSH1 0x4 ADD PUSH3 0x1CCA SWAP3 SWAP2 SWAP1 PUSH3 0x4125 JUMP JUMPDEST PUSH1 0x20 PUSH1 0x40 MLOAD DUP1 DUP4 SUB DUP2 DUP7 GAS DELEGATECALL ISZERO DUP1 ISZERO PUSH3 0x1CE8 JUMPI RETURNDATASIZE PUSH1 0x0 DUP1 RETURNDATACOPY RETURNDATASIZE PUSH1 0x0 REVERT JUMPDEST POP POP POP POP PUSH1 0x40 MLOAD RETURNDATASIZE PUSH1 0x1F NOT PUSH1 0x1F DUP3 ADD AND DUP3 ADD DUP1 PUSH1 0x40 MSTORE POP DUP2 ADD SWAP1 PUSH3 0x1D0E SWAP2 SWAP1 PUSH3 0x3637 JUMP JUMPDEST POP PUSH20 0x0 PUSH4 0xABCD7960 PUSH1 0xBB PUSH1 0x0 DUP1 SLOAD SWAP1 PUSH2 0x100 EXP SWAP1 DIV PUSH20 0xFFFFFFFFFFFFFFFFFFFFFFFFFFFFFFFFFFFFFFFF AND PUSH20 0xFFFFFFFFFFFFFFFFFFFFFFFFFFFFFFFFFFFFFFFF AND PUSH4 0xB4B7914D PUSH12 0x71175249D9818853B8000001 PUSH3 0x186A0 PUSH1 0x40 MLOAD DUP4 PUSH4 0xFFFFFFFF AND PUSH1 0xE0 SHL DUP2 MSTORE PUSH1 0x4 ADD PUSH3 0x1D97 SWAP3 SWAP2 SWAP1 PUSH3 0x428A JUMP JUMPDEST PUSH1 0x20 PUSH1 0x40 MLOAD DUP1 DUP4 SUB DUP2 DUP7 GAS STATICCALL ISZERO DUP1 ISZERO PUSH3 0x1DB5 JUMPI RETURNDATASIZE PUSH1 0x0 DUP1 RETURNDATACOPY RETURNDATASIZE PUSH1 0x0 REVERT JUMPDEST POP POP POP POP PUSH1 0x40 MLOAD RETURNDATASIZE PUSH1 0x1F NOT PUSH1 0x1F DUP3 ADD AND DUP3 ADD DUP1 PUSH1 0x40 MSTORE POP DUP2 ADD SWAP1 PUSH3 0x1DDB SWAP2 SWAP1 PUSH3 0x34AB JUMP JUMPDEST PUSH1 0x40 MLOAD DUP4 PUSH4 0xFFFFFFFF AND PUSH1 0xE0 SHL DUP2 MSTORE PUSH1 0x4 ADD PUSH3 0x1DFA SWAP3 SWAP2 SWAP1 PUSH3 0x42FA JUMP JUMPDEST PUSH1 0x20 PUSH1 0x40 MLOAD DUP1 DUP4 SUB DUP2 DUP7 GAS DELEGATECALL ISZERO DUP1 ISZERO PUSH3 0x1E18 JUMPI RETURNDATASIZE PUSH1 0x0 DUP1 RETURNDATACOPY RETURNDATASIZE PUSH1 0x0 REVERT JUMPDEST POP POP POP POP PUSH1 0x40 MLOAD RETURNDATASIZE PUSH1 0x1F NOT PUSH1 0x1F DUP3 ADD AND DUP3 ADD DUP1 PUSH1 0x40 MSTORE POP DUP2 ADD SWAP1 PUSH3 0x1E3E SWAP2 SWAP1 PUSH3 0x3637 JUMP JUMPDEST POP PUSH20 0x0 PUSH4 0xABCD7960 PUSH1 0xBB PUSH1 0x0 DUP1 SLOAD SWAP1 PUSH2 0x100 EXP SWAP1 DIV PUSH20 0xFFFFFFFFFFFFFFFFFFFFFFFFFFFFFFFFFFFFFFFF AND PUSH20 0xFFFFFFFFFFFFFFFFFFFFFFFFFFFFFFFFFFFFFFFF AND PUSH4 0xB4B7914D PUSH12 0x7452808679520890A0000000 PUSH3 0x186A0 PUSH1 0x40 MLOAD DUP4 PUSH4 0xFFFFFFFF AND PUSH1 0xE0 SHL DUP2 MSTORE PUSH1 0x4 ADD PUSH3 0x1EC7 SWAP3 SWAP2 SWAP1 PUSH3 0x437F JUMP JUMPDEST PUSH1 0x20 PUSH1 0x40 MLOAD DUP1 DUP4 SUB DUP2 DUP7 GAS STATICCALL ISZERO DUP1 ISZERO PUSH3 0x1EE5 JUMPI RETURNDATASIZE PUSH1 0x0 DUP1 RETURNDATACOPY RETURNDATASIZE PUSH1 0x0 REVERT JUMPDEST POP POP POP POP PUSH1 0x40 MLOAD RETURNDATASIZE PUSH1 0x1F NOT PUSH1 0x1F DUP3 ADD AND DUP3 ADD DUP1 PUSH1 0x40 MSTORE POP DUP2 ADD SWAP1 PUSH3 0x1F0B SWAP2 SWAP1 PUSH3 0x34AB JUMP JUMPDEST PUSH1 0x40 MLOAD DUP4 PUSH4 0xFFFFFFFF AND PUSH1 0xE0 SHL DUP2 MSTORE PUSH1 0x4 ADD PUSH3 0x1F2A SWAP3 SWAP2 SWAP1 PUSH3 0x42FA JUMP JUMPDEST PUSH1 0x20 PUSH1 0x40 MLOAD DUP1 DUP4 SUB DUP2 DUP7 GAS DELEGATECALL ISZERO DUP1 ISZERO PUSH3 0x1F48 JUMPI RETURNDATASIZE PUSH1 0x0 DUP1 RETURNDATACOPY RETURNDATASIZE PUSH1 0x0 REVERT JUMPDEST POP POP POP POP PUSH1 0x40 MLOAD RETURNDATASIZE PUSH1 0x1F NOT PUSH1 0x1F DUP3 ADD AND DUP3 ADD DUP1 PUSH1 0x40 MSTORE POP DUP2 ADD SWAP1 PUSH3 0x1F6E SWAP2 SWAP1 PUSH3 0x3637 JUMP JUMPDEST POP PUSH20 0x0 PUSH4 0xABCD7960 PUSH1 0xBB PUSH1 0x0 DUP1 SLOAD SWAP1 PUSH2 0x100 EXP SWAP1 DIV PUSH20 0xFFFFFFFFFFFFFFFFFFFFFFFFFFFFFFFFFFFFFFFF AND PUSH20 0xFFFFFFFFFFFFFFFFFFFFFFFFFFFFFFFFFFFFFFFF AND PUSH4 0xB4B7914D PUSH12 0x792B45E1690AC8EBFC000000 PUSH3 0x186A0 PUSH1 0x40 MLOAD DUP4 PUSH4 0xFFFFFFFF AND PUSH1 0xE0 SHL DUP2 MSTORE PUSH1 0x4 ADD PUSH3 0x1FF7 SWAP3 SWAP2 SWAP1 PUSH3 0x43EF JUMP JUMPDEST PUSH1 0x20 PUSH1 0x40 MLOAD DUP1 DUP4 SUB DUP2 DUP7 GAS STATICCALL ISZERO DUP1 ISZERO PUSH3 0x2015 JUMPI RETURNDATASIZE PUSH1 0x0 DUP1 RETURNDATACOPY RETURNDATASIZE PUSH1 0x0 REVERT JUMPDEST POP POP POP POP PUSH1 0x40 MLOAD RETURNDATASIZE PUSH1 0x1F NOT PUSH1 0x1F DUP3 ADD AND DUP3 ADD DUP1 PUSH1 0x40 MSTORE POP DUP2 ADD SWAP1 PUSH3 0x203B SWAP2 SWAP1 PUSH3 0x34AB JUMP JUMPDEST PUSH1 0x40 MLOAD DUP4 PUSH4 0xFFFFFFFF AND PUSH1 0xE0 SHL DUP2 MSTORE PUSH1 0x4 ADD PUSH3 0x205A SWAP3 SWAP2 SWAP1 PUSH3 0x42FA JUMP JUMPDEST PUSH1 0x20 PUSH1 0x40 MLOAD DUP1 DUP4 SUB DUP2 DUP7 GAS DELEGATECALL ISZERO DUP1 ISZERO PUSH3 0x2078 JUMPI RETURNDATASIZE PUSH1 0x0 DUP1 RETURNDATACOPY RETURNDATASIZE PUSH1 0x0 REVERT JUMPDEST POP POP POP POP PUSH1 0x40 MLOAD RETURNDATASIZE PUSH1 0x1F NOT PUSH1 0x1F DUP3 ADD AND DUP3 ADD DUP1 PUSH1 0x40 MSTORE POP DUP2 ADD SWAP1 PUSH3 0x209E SWAP2 SWAP1 PUSH3 0x3637 JUMP JUMPDEST POP PUSH20 0x0 PUSH4 0xABCD7960 PUSH1 0x9E PUSH1 0x0 DUP1 SLOAD SWAP1 PUSH2 0x100 EXP SWAP1 DIV PUSH20 0xFFFFFFFFFFFFFFFFFFFFFFFFFFFFFFFFFFFFFFFF AND PUSH20 0xFFFFFFFFFFFFFFFFFFFFFFFFFFFFFFFFFFFFFFFF AND PUSH4 0xB4B7914D PUSH12 0x792B45E1690AC8EBFC000001 PUSH3 0x186A0 PUSH1 0x40 MLOAD DUP4 PUSH4 0xFFFFFFFF AND PUSH1 0xE0 SHL DUP2 MSTORE PUSH1 0x4 ADD PUSH3 0x2127 SWAP3 SWAP2 SWAP1 PUSH3 0x445F JUMP JUMPDEST PUSH1 0x20 PUSH1 0x40 MLOAD DUP1 DUP4 SUB DUP2 DUP7 GAS STATICCALL ISZERO DUP1 ISZERO PUSH3 0x2145 JUMPI RETURNDATASIZE PUSH1 0x0 DUP1 RETURNDATACOPY RETURNDATASIZE PUSH1 0x0 REVERT JUMPDEST POP POP POP POP PUSH1 0x40 MLOAD RETURNDATASIZE PUSH1 0x1F NOT PUSH1 0x1F DUP3 ADD AND DUP3 ADD DUP1 PUSH1 0x40 MSTORE POP DUP2 ADD SWAP1 PUSH3 0x216B SWAP2 SWAP1 PUSH3 0x34AB JUMP JUMPDEST PUSH1 0x40 MLOAD DUP4 PUSH4 0xFFFFFFFF AND PUSH1 0xE0 SHL DUP2 MSTORE PUSH1 0x4 ADD PUSH3 0x218A SWAP3 SWAP2 SWAP1 PUSH3 0x44CF JUMP JUMPDEST PUSH1 0x20 PUSH1 0x40 MLOAD DUP1 DUP4 SUB DUP2 DUP7 GAS DELEGATECALL ISZERO DUP1 ISZERO PUSH3 0x21A8 JUMPI RETURNDATASIZE PUSH1 0x0 DUP1 RETURNDATACOPY RETURNDATASIZE PUSH1 0x0 REVERT JUMPDEST POP POP POP POP PUSH1 0x40 MLOAD RETURNDATASIZE PUSH1 0x1F NOT PUSH1 0x1F DUP3 ADD AND DUP3 ADD DUP1 PUSH1 0x40 MSTORE POP DUP2 ADD SWAP1 PUSH3 0x21CE SWAP2 SWAP1 PUSH3 0x3637 JUMP JUMPDEST POP PUSH20 0x0 PUSH4 0xABCD7960 PUSH1 0x9E PUSH1 0x0 DUP1 SLOAD SWAP1 PUSH2 0x100 EXP SWAP1 DIV PUSH20 0xFFFFFFFFFFFFFFFFFFFFFFFFFFFFFFFFFFFFFFFF AND PUSH20 0xFFFFFFFFFFFFFFFFFFFFFFFFFFFFFFFFFFFFFFFF AND PUSH4 0xB4B7914D PUSH12 0x7C66741E08DB4928E4000000 PUSH3 0x186A0 PUSH1 0x40 MLOAD DUP4 PUSH4 0xFFFFFFFF AND PUSH1 0xE0 SHL DUP2 MSTORE PUSH1 0x4 ADD PUSH3 0x2257 SWAP3 SWAP2 SWAP1 PUSH3 0x4554 JUMP JUMPDEST PUSH1 0x20 PUSH1 0x40 MLOAD DUP1 DUP4 SUB DUP2 DUP7 GAS STATICCALL ISZERO DUP1 ISZERO PUSH3 0x2275 JUMPI RETURNDATASIZE PUSH1 0x0 DUP1 RETURNDATACOPY RETURNDATASIZE PUSH1 0x0 REVERT JUMPDEST POP POP POP POP PUSH1 0x40 MLOAD RETURNDATASIZE PUSH1 0x1F NOT PUSH1 0x1F DUP3 ADD AND DUP3 ADD DUP1 PUSH1 0x40 MSTORE POP DUP2 ADD SWAP1 PUSH3 0x229B SWAP2 SWAP1 PUSH3 0x34AB JUMP JUMPDEST PUSH1 0x40 MLOAD DUP4 PUSH4 0xFFFFFFFF AND PUSH1 0xE0 SHL DUP2 MSTORE PUSH1 0x4 ADD PUSH3 0x22BA SWAP3 SWAP2 SWAP1 PUSH3 0x44CF JUMP JUMPDEST PUSH1 0x20 PUSH1 0x40 MLOAD DUP1 DUP4 SUB DUP2 DUP7 GAS DELEGATECALL ISZERO DUP1 ISZERO PUSH3 0x22D8 JUMPI RETURNDATASIZE PUSH1 0x0 DUP1 RETURNDATACOPY RETURNDATASIZE PUSH1 0x0 REVERT JUMPDEST POP POP POP POP PUSH1 0x40 MLOAD RETURNDATASIZE PUSH1 0x1F NOT PUSH1 0x1F DUP3 ADD AND DUP3 ADD DUP1 PUSH1 0x40 MSTORE POP DUP2 ADD SWAP1 PUSH3 0x22FE SWAP2 SWAP1 PUSH3 0x3637 JUMP JUMPDEST POP PUSH20 0x0 PUSH4 0xABCD7960 PUSH1 0x9E PUSH1 0x0 DUP1 SLOAD SWAP1 PUSH2 0x100 EXP SWAP1 DIV PUSH20 0xFFFFFFFFFFFFFFFFFFFFFFFFFFFFFFFFFFFFFFFF AND PUSH20 0xFFFFFFFFFFFFFFFFFFFFFFFFFFFFFFFFFFFFFFFF AND PUSH4 0xB4B7914D PUSH12 0x813F3978F894098440000000 PUSH3 0x186A0 PUSH1 0x40 MLOAD DUP4 PUSH4 0xFFFFFFFF AND PUSH1 0xE0 SHL DUP2 MSTORE PUSH1 0x4 ADD PUSH3 0x2387 SWAP3 SWAP2 SWAP1 PUSH3 0x45C4 JUMP JUMPDEST PUSH1 0x20 PUSH1 0x40 MLOAD DUP1 DUP4 SUB DUP2 DUP7 GAS STATICCALL ISZERO DUP1 ISZERO PUSH3 0x23A5 JUMPI RETURNDATASIZE PUSH1 0x0 DUP1 RETURNDATACOPY RETURNDATASIZE PUSH1 0x0 REVERT JUMPDEST POP POP POP POP PUSH1 0x40 MLOAD RETURNDATASIZE PUSH1 0x1F NOT PUSH1 0x1F DUP3 ADD AND DUP3 ADD DUP1 PUSH1 0x40 MSTORE POP DUP2 ADD SWAP1 PUSH3 0x23CB SWAP2 SWAP1 PUSH3 0x34AB JUMP JUMPDEST PUSH1 0x40 MLOAD DUP4 PUSH4 0xFFFFFFFF AND PUSH1 0xE0 SHL DUP2 MSTORE PUSH1 0x4 ADD PUSH3 0x23EA SWAP3 SWAP2 SWAP1 PUSH3 0x44CF JUMP JUMPDEST PUSH1 0x20 PUSH1 0x40 MLOAD DUP1 DUP4 SUB DUP2 DUP7 GAS DELEGATECALL ISZERO DUP1 ISZERO PUSH3 0x2408 JUMPI RETURNDATASIZE PUSH1 0x0 DUP1 RETURNDATACOPY RETURNDATASIZE PUSH1 0x0 REVERT JUMPDEST POP POP POP POP PUSH1 0x40 MLOAD RETURNDATASIZE PUSH1 0x1F NOT PUSH1 0x1F DUP3 ADD AND DUP3 ADD DUP1 PUSH1 0x40 MSTORE POP DUP2 ADD SWAP1 PUSH3 0x242E SWAP2 SWAP1 PUSH3 0x3637 JUMP JUMPDEST POP PUSH20 0x0 PUSH4 0xABCD7960 PUSH1 0x8A PUSH1 0x0 DUP1 SLOAD SWAP1 PUSH2 0x100 EXP SWAP1 DIV PUSH20 0xFFFFFFFFFFFFFFFFFFFFFFFFFFFFFFFFFFFFFFFF AND PUSH20 0xFFFFFFFFFFFFFFFFFFFFFFFFFFFFFFFFFFFFFFFF AND PUSH4 0xB4B7914D PUSH12 0x813F3978F894098440000001 PUSH3 0x186A0 PUSH1 0x40 MLOAD DUP4 PUSH4 0xFFFFFFFF AND PUSH1 0xE0 SHL DUP2 MSTORE PUSH1 0x4 ADD PUSH3 0x24B7 SWAP3 SWAP2 SWAP1 PUSH3 0x4634 JUMP JUMPDEST PUSH1 0x20 PUSH1 0x40 MLOAD DUP1 DUP4 SUB DUP2 DUP7 GAS STATICCALL ISZERO DUP1 ISZERO PUSH3 0x24D5 JUMPI RETURNDATASIZE PUSH1 0x0 DUP1 RETURNDATACOPY RETURNDATASIZE PUSH1 0x0 REVERT JUMPDEST POP POP POP POP PUSH1 0x40 MLOAD RETURNDATASIZE PUSH1 0x1F NOT PUSH1 0x1F DUP3 ADD AND DUP3 ADD DUP1 PUSH1 0x40 MSTORE POP DUP2 ADD SWAP1 PUSH3 0x24FB SWAP2 SWAP1 PUSH3 0x34AB JUMP JUMPDEST PUSH1 0x40 MLOAD DUP4 PUSH4 0xFFFFFFFF AND PUSH1 0xE0 SHL DUP2 MSTORE PUSH1 0x4 ADD PUSH3 0x251A SWAP3 SWAP2 SWAP1 PUSH3 0x46A4 JUMP JUMPDEST PUSH1 0x20 PUSH1 0x40 MLOAD DUP1 DUP4 SUB DUP2 DUP7 GAS DELEGATECALL ISZERO DUP1 ISZERO PUSH3 0x2538 JUMPI RETURNDATASIZE PUSH1 0x0 DUP1 RETURNDATACOPY RETURNDATASIZE PUSH1 0x0 REVERT JUMPDEST POP POP POP POP PUSH1 0x40 MLOAD RETURNDATASIZE PUSH1 0x1F NOT PUSH1 0x1F DUP3 ADD AND DUP3 ADD DUP1 PUSH1 0x40 MSTORE POP DUP2 ADD SWAP1 PUSH3 0x255E SWAP2 SWAP1 PUSH3 0x3637 JUMP JUMPDEST POP PUSH20 0x0 PUSH4 0xABCD7960 PUSH1 0x8A PUSH1 0x0 DUP1 SLOAD SWAP1 PUSH2 0x100 EXP SWAP1 DIV PUSH20 0xFFFFFFFFFFFFFFFFFFFFFFFFFFFFFFFFFFFFFFFF AND PUSH20 0xFFFFFFFFFFFFFFFFFFFFFFFFFFFFFFFFFFFFFFFF AND PUSH4 0xB4B7914D PUSH12 0x847A67B5986489C128000000 PUSH3 0x186A0 PUSH1 0x40 MLOAD DUP4 PUSH4 0xFFFFFFFF AND PUSH1 0xE0 SHL DUP2 MSTORE PUSH1 0x4 ADD PUSH3 0x25E7 SWAP3 SWAP2 SWAP1 PUSH3 0x4729 JUMP JUMPDEST PUSH1 0x20 PUSH1 0x40 MLOAD DUP1 DUP4 SUB DUP2 DUP7 GAS STATICCALL ISZERO DUP1 ISZERO PUSH3 0x2605 JUMPI RETURNDATASIZE PUSH1 0x0 DUP1 RETURNDATACOPY RETURNDATASIZE PUSH1 0x0 REVERT JUMPDEST POP POP POP POP PUSH1 0x40 MLOAD RETURNDATASIZE PUSH1 0x1F NOT PUSH1 0x1F DUP3 ADD AND DUP3 ADD DUP1 PUSH1 0x40 MSTORE POP DUP2 ADD SWAP1 PUSH3 0x262B SWAP2 SWAP1 PUSH3 0x34AB JUMP JUMPDEST PUSH1 0x40 MLOAD DUP4 PUSH4 0xFFFFFFFF AND PUSH1 0xE0 SHL DUP2 MSTORE PUSH1 0x4 ADD PUSH3 0x264A SWAP3 SWAP2 SWAP1 PUSH3 0x46A4 JUMP JUMPDEST PUSH1 0x20 PUSH1 0x40 MLOAD DUP1 DUP4 SUB DUP2 DUP7 GAS DELEGATECALL ISZERO DUP1 ISZERO PUSH3 0x2668 JUMPI RETURNDATASIZE PUSH1 0x0 DUP1 RETURNDATACOPY RETURNDATASIZE PUSH1 0x0 REVERT JUMPDEST POP POP POP POP PUSH1 0x40 MLOAD RETURNDATASIZE PUSH1 0x1F NOT PUSH1 0x1F DUP3 ADD AND DUP3 ADD DUP1 PUSH1 0x40 MSTORE POP DUP2 ADD SWAP1 PUSH3 0x268E SWAP2 SWAP1 PUSH3 0x3637 JUMP JUMPDEST POP PUSH20 0x0 PUSH4 0xABCD7960 PUSH1 0x8A PUSH1 0x0 DUP1 SLOAD SWAP1 PUSH2 0x100 EXP SWAP1 DIV PUSH20 0xFFFFFFFFFFFFFFFFFFFFFFFFFFFFFFFFFFFFFFFF AND PUSH20 0xFFFFFFFFFFFFFFFFFFFFFFFFFFFFFFFFFFFFFFFF AND PUSH4 0xB4B7914D PUSH12 0x89532D10881D4A1C84000000 PUSH3 0x186A0 PUSH1 0x40 MLOAD DUP4 PUSH4 0xFFFFFFFF AND PUSH1 0xE0 SHL DUP2 MSTORE PUSH1 0x4 ADD PUSH3 0x2717 SWAP3 SWAP2 SWAP1 PUSH3 0x4799 JUMP JUMPDEST PUSH1 0x20 PUSH1 0x40 MLOAD DUP1 DUP4 SUB DUP2 DUP7 GAS STATICCALL ISZERO DUP1 ISZERO PUSH3 0x2735 JUMPI RETURNDATASIZE PUSH1 0x0 DUP1 RETURNDATACOPY RETURNDATASIZE PUSH1 0x0 REVERT JUMPDEST POP POP POP POP PUSH1 0x40 MLOAD RETURNDATASIZE PUSH1 0x1F NOT PUSH1 0x1F DUP3 ADD AND DUP3 ADD DUP1 PUSH1 0x40 MSTORE POP DUP2 ADD SWAP1 PUSH3 0x275B SWAP2 SWAP1 PUSH3 0x34AB JUMP JUMPDEST PUSH1 0x40 MLOAD DUP4 PUSH4 0xFFFFFFFF AND PUSH1 0xE0 SHL DUP2 MSTORE PUSH1 0x4 ADD PUSH3 0x277A SWAP3 SWAP2 SWAP1 PUSH3 0x46A4 JUMP JUMPDEST PUSH1 0x20 PUSH1 0x40 MLOAD DUP1 DUP4 SUB DUP2 DUP7 GAS DELEGATECALL ISZERO DUP1 ISZERO PUSH3 0x2798 JUMPI RETURNDATASIZE PUSH1 0x0 DUP1 RETURNDATACOPY RETURNDATASIZE PUSH1 0x0 REVERT JUMPDEST POP POP POP POP PUSH1 0x40 MLOAD RETURNDATASIZE PUSH1 0x1F NOT PUSH1 0x1F DUP3 ADD AND DUP3 ADD DUP1 PUSH1 0x40 MSTORE POP DUP2 ADD SWAP1 PUSH3 0x27BE SWAP2 SWAP1 PUSH3 0x3637 JUMP JUMPDEST POP PUSH20 0x0 PUSH4 0xABCD7960 PUSH1 0x7D PUSH1 0x0 DUP1 SLOAD SWAP1 PUSH2 0x100 EXP SWAP1 DIV PUSH20 0xFFFFFFFFFFFFFFFFFFFFFFFFFFFFFFFFFFFFFFFF AND PUSH20 0xFFFFFFFFFFFFFFFFFFFFFFFFFFFFFFFFFFFFFFFF AND PUSH4 0xB4B7914D PUSH12 0x89532D10881D4A1C84000001 PUSH3 0x186A0 PUSH1 0x40 MLOAD DUP4 PUSH4 0xFFFFFFFF AND PUSH1 0xE0 SHL DUP2 MSTORE PUSH1 0x4 ADD PUSH3 0x2847 SWAP3 SWAP2 SWAP1 PUSH3 0x4809 JUMP JUMPDEST PUSH1 0x20 PUSH1 0x40 MLOAD DUP1 DUP4 SUB DUP2 DUP7 GAS STATICCALL ISZERO DUP1 ISZERO PUSH3 0x2865 JUMPI RETURNDATASIZE PUSH1 0x0 DUP1 RETURNDATACOPY RETURNDATASIZE PUSH1 0x0 REVERT JUMPDEST POP POP POP POP PUSH1 0x40 MLOAD RETURNDATASIZE PUSH1 0x1F NOT PUSH1 0x1F DUP3 ADD AND DUP3 ADD DUP1 PUSH1 0x40 MSTORE POP DUP2 ADD SWAP1 PUSH3 0x288B SWAP2 SWAP1 PUSH3 0x34AB JUMP JUMPDEST PUSH1 0x40 MLOAD DUP4 PUSH4 0xFFFFFFFF AND PUSH1 0xE0 SHL DUP2 MSTORE PUSH1 0x4 ADD PUSH3 0x28AA SWAP3 SWAP2 SWAP1 PUSH3 0x4879 JUMP JUMPDEST PUSH1 0x20 PUSH1 0x40 MLOAD DUP1 DUP4 SUB DUP2 DUP7 GAS DELEGATECALL ISZERO DUP1 ISZERO PUSH3 0x28C8 JUMPI RETURNDATASIZE PUSH1 0x0 DUP1 RETURNDATACOPY RETURNDATASIZE PUSH1 0x0 REVERT JUMPDEST POP POP POP POP PUSH1 0x40 MLOAD RETURNDATASIZE PUSH1 0x1F NOT PUSH1 0x1F DUP3 ADD AND DUP3 ADD DUP1 PUSH1 0x40 MSTORE POP DUP2 ADD SWAP1 PUSH3 0x28EE SWAP2 SWAP1 PUSH3 0x3637 JUMP JUMPDEST POP PUSH20 0x0 PUSH4 0xABCD7960 PUSH1 0x7D PUSH1 0x0 DUP1 SLOAD SWAP1 PUSH2 0x100 EXP SWAP1 DIV PUSH20 0xFFFFFFFFFFFFFFFFFFFFFFFFFFFFFFFFFFFFFFFF AND PUSH20 0xFFFFFFFFFFFFFFFFFFFFFFFFFFFFFFFFFFFFFFFF AND PUSH4 0xB4B7914D PUSH12 0x8C8E5B4D27EDCA596C000000 PUSH3 0x186A0 PUSH1 0x40 MLOAD DUP4 PUSH4 0xFFFFFFFF AND PUSH1 0xE0 SHL DUP2 MSTORE PUSH1 0x4 ADD PUSH3 0x2977 SWAP3 SWAP2 SWAP1 PUSH3 0x48FE JUMP JUMPDEST PUSH1 0x20 PUSH1 0x40 MLOAD DUP1 DUP4 SUB DUP2 DUP7 GAS STATICCALL ISZERO DUP1 ISZERO PUSH3 0x2995 JUMPI RETURNDATASIZE PUSH1 0x0 DUP1 RETURNDATACOPY RETURNDATASIZE PUSH1 0x0 REVERT JUMPDEST POP POP POP POP PUSH1 0x40 MLOAD RETURNDATASIZE PUSH1 0x1F NOT PUSH1 0x1F DUP3 ADD AND DUP3 ADD DUP1 PUSH1 0x40 MSTORE POP DUP2 ADD SWAP1 PUSH3 0x29BB SWAP2 SWAP1 PUSH3 0x34AB JUMP JUMPDEST PUSH1 0x40 MLOAD DUP4 PUSH4 0xFFFFFFFF AND PUSH1 0xE0 SHL DUP2 MSTORE PUSH1 0x4 ADD PUSH3 0x29DA SWAP3 SWAP2 SWAP1 PUSH3 0x4879 JUMP JUMPDEST PUSH1 0x20 PUSH1 0x40 MLOAD DUP1 DUP4 SUB DUP2 DUP7 GAS DELEGATECALL ISZERO DUP1 ISZERO PUSH3 0x29F8 JUMPI RETURNDATASIZE PUSH1 0x0 DUP1 RETURNDATACOPY RETURNDATASIZE PUSH1 0x0 REVERT JUMPDEST POP POP POP POP PUSH1 0x40 MLOAD RETURNDATASIZE PUSH1 0x1F NOT PUSH1 0x1F DUP3 ADD AND DUP3 ADD DUP1 PUSH1 0x40 MSTORE POP DUP2 ADD SWAP1 PUSH3 0x2A1E SWAP2 SWAP1 PUSH3 0x3637 JUMP JUMPDEST POP PUSH20 0x0 PUSH4 0xABCD7960 PUSH1 0x7D PUSH1 0x0 DUP1 SLOAD SWAP1 PUSH2 0x100 EXP SWAP1 DIV PUSH20 0xFFFFFFFFFFFFFFFFFFFFFFFFFFFFFFFFFFFFFFFF AND PUSH20 0xFFFFFFFFFFFFFFFFFFFFFFFFFFFFFFFFFFFFFFFF AND PUSH4 0xB4B7914D PUSH12 0x916720A817A68AB4C8000000 PUSH3 0x186A0 PUSH1 0x40 MLOAD DUP4 PUSH4 0xFFFFFFFF AND PUSH1 0xE0 SHL DUP2 MSTORE PUSH1 0x4 ADD PUSH3 0x2AA7 SWAP3 SWAP2 SWAP1 PUSH3 0x496E JUMP JUMPDEST PUSH1 0x20 PUSH1 0x40 MLOAD DUP1 DUP4 SUB DUP2 DUP7 GAS STATICCALL ISZERO DUP1 ISZERO PUSH3 0x2AC5 JUMPI RETURNDATASIZE PUSH1 0x0 DUP1 RETURNDATACOPY RETURNDATASIZE PUSH1 0x0 REVERT JUMPDEST POP POP POP POP PUSH1 0x40 MLOAD RETURNDATASIZE PUSH1 0x1F NOT PUSH1 0x1F DUP3 ADD AND DUP3 ADD DUP1 PUSH1 0x40 MSTORE POP DUP2 ADD SWAP1 PUSH3 0x2AEB SWAP2 SWAP1 PUSH3 0x34AB JUMP JUMPDEST PUSH1 0x40 MLOAD DUP4 PUSH4 0xFFFFFFFF AND PUSH1 0xE0 SHL DUP2 MSTORE PUSH1 0x4 ADD PUSH3 0x2B0A SWAP3 SWAP2 SWAP1 PUSH3 0x4879 JUMP JUMPDEST PUSH1 0x20 PUSH1 0x40 MLOAD DUP1 DUP4 SUB DUP2 DUP7 GAS DELEGATECALL ISZERO DUP1 ISZERO PUSH3 0x2B28 JUMPI RETURNDATASIZE PUSH1 0x0 DUP1 RETURNDATACOPY RETURNDATASIZE PUSH1 0x0 REVERT JUMPDEST POP POP POP POP PUSH1 0x40 MLOAD RETURNDATASIZE PUSH1 0x1F NOT PUSH1 0x1F DUP3 ADD AND DUP3 ADD DUP1 PUSH1 0x40 MSTORE POP DUP2 ADD SWAP1 PUSH3 0x2B4E SWAP2 SWAP1 PUSH3 0x3637 JUMP JUMPDEST POP PUSH20 0x0 PUSH4 0xABCD7960 PUSH1 0x75 PUSH1 0x0 DUP1 SLOAD SWAP1 PUSH2 0x100 EXP SWAP1 DIV PUSH20 0xFFFFFFFFFFFFFFFFFFFFFFFFFFFFFFFFFFFFFFFF AND PUSH20 0xFFFFFFFFFFFFFFFFFFFFFFFFFFFFFFFFFFFFFFFF AND PUSH4 0xB4B7914D PUSH12 0x916720A817A68AB4C8000001 PUSH3 0x186A0 PUSH1 0x40 MLOAD DUP4 PUSH4 0xFFFFFFFF AND PUSH1 0xE0 SHL DUP2 MSTORE PUSH1 0x4 ADD PUSH3 0x2BD7 SWAP3 SWAP2 SWAP1 PUSH3 0x49DE JUMP JUMPDEST PUSH1 0x20 PUSH1 0x40 MLOAD DUP1 DUP4 SUB DUP2 DUP7 GAS STATICCALL ISZERO DUP1 ISZERO PUSH3 0x2BF5 JUMPI RETURNDATASIZE PUSH1 0x0 DUP1 RETURNDATACOPY RETURNDATASIZE PUSH1 0x0 REVERT JUMPDEST POP POP POP POP PUSH1 0x40 MLOAD RETURNDATASIZE PUSH1 0x1F NOT PUSH1 0x1F DUP3 ADD AND DUP3 ADD DUP1 PUSH1 0x40 MSTORE POP DUP2 ADD SWAP1 PUSH3 0x2C1B SWAP2 SWAP1 PUSH3 0x34AB JUMP JUMPDEST PUSH1 0x40 MLOAD DUP4 PUSH4 0xFFFFFFFF AND PUSH1 0xE0 SHL DUP2 MSTORE PUSH1 0x4 ADD PUSH3 0x2C3A SWAP3 SWAP2 SWAP1 PUSH3 0x4A4E JUMP JUMPDEST PUSH1 0x20 PUSH1 0x40 MLOAD DUP1 DUP4 SUB DUP2 DUP7 GAS DELEGATECALL ISZERO DUP1 ISZERO PUSH3 0x2C58 JUMPI RETURNDATASIZE PUSH1 0x0 DUP1 RETURNDATACOPY RETURNDATASIZE PUSH1 0x0 REVERT JUMPDEST POP POP POP POP PUSH1 0x40 MLOAD RETURNDATASIZE PUSH1 0x1F NOT PUSH1 0x1F DUP3 ADD AND DUP3 ADD DUP1 PUSH1 0x40 MSTORE POP DUP2 ADD SWAP1 PUSH3 0x2C7E SWAP2 SWAP1 PUSH3 0x3637 JUMP JUMPDEST POP PUSH20 0x0 PUSH4 0xABCD7960 PUSH1 0x75 PUSH1 0x0 DUP1 SLOAD SWAP1 PUSH2 0x100 EXP SWAP1 DIV PUSH20 0xFFFFFFFFFFFFFFFFFFFFFFFFFFFFFFFFFFFFFFFF AND PUSH20 0xFFFFFFFFFFFFFFFFFFFFFFFFFFFFFFFFFFFFFFFF AND PUSH4 0xB4B7914D PUSH12 0x94A24EE4B7770AF1B0000000 PUSH3 0x186A0 PUSH1 0x40 MLOAD DUP4 PUSH4 0xFFFFFFFF AND PUSH1 0xE0 SHL DUP2 MSTORE PUSH1 0x4 ADD PUSH3 0x2D07 SWAP3 SWAP2 SWAP1 PUSH3 0x4AD3 JUMP JUMPDEST PUSH1 0x20 PUSH1 0x40 MLOAD DUP1 DUP4 SUB DUP2 DUP7 GAS STATICCALL ISZERO DUP1 ISZERO PUSH3 0x2D25 JUMPI RETURNDATASIZE PUSH1 0x0 DUP1 RETURNDATACOPY RETURNDATASIZE PUSH1 0x0 REVERT JUMPDEST POP POP POP POP PUSH1 0x40 MLOAD RETURNDATASIZE PUSH1 0x1F NOT PUSH1 0x1F DUP3 ADD AND DUP3 ADD DUP1 PUSH1 0x40 MSTORE POP DUP2 ADD SWAP1 PUSH3 0x2D4B SWAP2 SWAP1 PUSH3 0x34AB JUMP JUMPDEST PUSH1 0x40 MLOAD DUP4 PUSH4 0xFFFFFFFF AND PUSH1 0xE0 SHL DUP2 MSTORE PUSH1 0x4 ADD PUSH3 0x2D6A SWAP3 SWAP2 SWAP1 PUSH3 0x4A4E JUMP JUMPDEST PUSH1 0x20 PUSH1 0x40 MLOAD DUP1 DUP4 SUB DUP2 DUP7 GAS DELEGATECALL ISZERO DUP1 ISZERO PUSH3 0x2D88 JUMPI RETURNDATASIZE PUSH1 0x0 DUP1 RETURNDATACOPY RETURNDATASIZE PUSH1 0x0 REVERT JUMPDEST POP POP POP POP PUSH1 0x40 MLOAD RETURNDATASIZE PUSH1 0x1F NOT PUSH1 0x1F DUP3 ADD AND DUP3 ADD DUP1 PUSH1 0x40 MSTORE POP DUP2 ADD SWAP1 PUSH3 0x2DAE SWAP2 SWAP1 PUSH3 0x3637 JUMP JUMPDEST POP PUSH20 0x0 PUSH4 0xABCD7960 PUSH1 0x75 PUSH1 0x0 DUP1 SLOAD SWAP1 PUSH2 0x100 EXP SWAP1 DIV PUSH20 0xFFFFFFFFFFFFFFFFFFFFFFFFFFFFFFFFFFFFFFFF AND PUSH20 0xFFFFFFFFFFFFFFFFFFFFFFFFFFFFFFFFFFFFFFFF AND PUSH4 0xB4B7914D PUSH12 0x997B143FA72FCB4D0C000000 PUSH3 0x186A0 PUSH1 0x40 MLOAD DUP4 PUSH4 0xFFFFFFFF AND PUSH1 0xE0 SHL DUP2 MSTORE PUSH1 0x4 ADD PUSH3 0x2E37 SWAP3 SWAP2 SWAP1 PUSH3 0x4B43 JUMP JUMPDEST PUSH1 0x20 PUSH1 0x40 MLOAD DUP1 DUP4 SUB DUP2 DUP7 GAS STATICCALL ISZERO DUP1 ISZERO PUSH3 0x2E55 JUMPI RETURNDATASIZE PUSH1 0x0 DUP1 RETURNDATACOPY RETURNDATASIZE PUSH1 0x0 REVERT JUMPDEST POP POP POP POP PUSH1 0x40 MLOAD RETURNDATASIZE PUSH1 0x1F NOT PUSH1 0x1F DUP3 ADD AND DUP3 ADD DUP1 PUSH1 0x40 MSTORE POP DUP2 ADD SWAP1 PUSH3 0x2E7B SWAP2 SWAP1 PUSH3 0x34AB JUMP JUMPDEST PUSH1 0x40 MLOAD DUP4 PUSH4 0xFFFFFFFF AND PUSH1 0xE0 SHL DUP2 MSTORE PUSH1 0x4 ADD PUSH3 0x2E9A SWAP3 SWAP2 SWAP1 PUSH3 0x4A4E JUMP JUMPDEST PUSH1 0x20 PUSH1 0x40 MLOAD DUP1 DUP4 SUB DUP2 DUP7 GAS DELEGATECALL ISZERO DUP1 ISZERO PUSH3 0x2EB8 JUMPI RETURNDATASIZE PUSH1 0x0 DUP1 RETURNDATACOPY RETURNDATASIZE PUSH1 0x0 REVERT JUMPDEST POP POP POP POP PUSH1 0x40 MLOAD RETURNDATASIZE PUSH1 0x1F NOT PUSH1 0x1F DUP3 ADD AND DUP3 ADD DUP1 PUSH1 0x40 MSTORE POP DUP2 ADD SWAP1 PUSH3 0x2EDE SWAP2 SWAP1 PUSH3 0x3637 JUMP JUMPDEST POP PUSH20 0x0 PUSH4 0xABCD7960 PUSH1 0x64 PUSH1 0x0 DUP1 SLOAD SWAP1 PUSH2 0x100 EXP SWAP1 DIV PUSH20 0xFFFFFFFFFFFFFFFFFFFFFFFFFFFFFFFFFFFFFFFF AND PUSH20 0xFFFFFFFFFFFFFFFFFFFFFFFFFFFFFFFFFFFFFFFF AND PUSH4 0xB4B7914D PUSH12 0x997B143FA72FCB4D0C000001 PUSH3 0x186A0 PUSH1 0x40 MLOAD DUP4 PUSH4 0xFFFFFFFF AND PUSH1 0xE0 SHL DUP2 MSTORE PUSH1 0x4 ADD PUSH3 0x2F67 SWAP3 SWAP2 SWAP1 PUSH3 0x4BB3 JUMP JUMPDEST PUSH1 0x20 PUSH1 0x40 MLOAD DUP1 DUP4 SUB DUP2 DUP7 GAS STATICCALL ISZERO DUP1 ISZERO PUSH3 0x2F85 JUMPI RETURNDATASIZE PUSH1 0x0 DUP1 RETURNDATACOPY RETURNDATASIZE PUSH1 0x0 REVERT JUMPDEST POP POP POP POP PUSH1 0x40 MLOAD RETURNDATASIZE PUSH1 0x1F NOT PUSH1 0x1F DUP3 ADD AND DUP3 ADD DUP1 PUSH1 0x40 MSTORE POP DUP2 ADD SWAP1 PUSH3 0x2FAB SWAP2 SWAP1 PUSH3 0x34AB JUMP JUMPDEST PUSH1 0x40 MLOAD DUP4 PUSH4 0xFFFFFFFF AND PUSH1 0xE0 SHL DUP2 MSTORE PUSH1 0x4 ADD PUSH3 0x2FCA SWAP3 SWAP2 SWAP1 PUSH3 0x4C23 JUMP JUMPDEST PUSH1 0x20 PUSH1 0x40 MLOAD DUP1 DUP4 SUB DUP2 DUP7 GAS DELEGATECALL ISZERO DUP1 ISZERO PUSH3 0x2FE8 JUMPI RETURNDATASIZE PUSH1 0x0 DUP1 RETURNDATACOPY RETURNDATASIZE PUSH1 0x0 REVERT JUMPDEST POP POP POP POP PUSH1 0x40 MLOAD RETURNDATASIZE PUSH1 0x1F NOT PUSH1 0x1F DUP3 ADD AND DUP3 ADD DUP1 PUSH1 0x40 MSTORE POP DUP2 ADD SWAP1 PUSH3 0x300E SWAP2 SWAP1 PUSH3 0x3637 JUMP JUMPDEST POP PUSH20 0x0 PUSH4 0xABCD7960 PUSH1 0x64 PUSH1 0x0 DUP1 SLOAD SWAP1 PUSH2 0x100 EXP SWAP1 DIV PUSH20 0xFFFFFFFFFFFFFFFFFFFFFFFFFFFFFFFFFFFFFFFF AND PUSH20 0xFFFFFFFFFFFFFFFFFFFFFFFFFFFFFFFFFFFFFFFF AND PUSH4 0xB4B7914D PUSH12 0x9CB6427C47004B89F4000000 PUSH3 0x186A0 PUSH1 0x40 MLOAD DUP4 PUSH4 0xFFFFFFFF AND PUSH1 0xE0 SHL DUP2 MSTORE PUSH1 0x4 ADD PUSH3 0x3097 SWAP3 SWAP2 SWAP1 PUSH3 0x4CA8 JUMP JUMPDEST PUSH1 0x20 PUSH1 0x40 MLOAD DUP1 DUP4 SUB DUP2 DUP7 GAS STATICCALL ISZERO DUP1 ISZERO PUSH3 0x30B5 JUMPI RETURNDATASIZE PUSH1 0x0 DUP1 RETURNDATACOPY RETURNDATASIZE PUSH1 0x0 REVERT JUMPDEST POP POP POP POP PUSH1 0x40 MLOAD RETURNDATASIZE PUSH1 0x1F NOT PUSH1 0x1F DUP3 ADD AND DUP3 ADD DUP1 PUSH1 0x40 MSTORE POP DUP2 ADD SWAP1 PUSH3 0x30DB SWAP2 SWAP1 PUSH3 0x34AB JUMP JUMPDEST PUSH1 0x40 MLOAD DUP4 PUSH4 0xFFFFFFFF AND PUSH1 0xE0 SHL DUP2 MSTORE PUSH1 0x4 ADD PUSH3 0x30FA SWAP3 SWAP2 SWAP1 PUSH3 0x4C23 JUMP JUMPDEST PUSH1 0x20 PUSH1 0x40 MLOAD DUP1 DUP4 SUB DUP2 DUP7 GAS DELEGATECALL ISZERO DUP1 ISZERO PUSH3 0x3118 JUMPI RETURNDATASIZE PUSH1 0x0 DUP1 RETURNDATACOPY RETURNDATASIZE PUSH1 0x0 REVERT JUMPDEST POP POP POP POP PUSH1 0x40 MLOAD RETURNDATASIZE PUSH1 0x1F NOT PUSH1 0x1F DUP3 ADD AND DUP3 ADD DUP1 PUSH1 0x40 MSTORE POP DUP2 ADD SWAP1 PUSH3 0x313E SWAP2 SWAP1 PUSH3 0x3637 JUMP JUMPDEST POP PUSH20 0x0 PUSH4 0xABCD7960 PUSH1 0x64 PUSH1 0x0 DUP1 SLOAD SWAP1 PUSH2 0x100 EXP SWAP1 DIV PUSH20 0xFFFFFFFFFFFFFFFFFFFFFFFFFFFFFFFFFFFFFFFF AND PUSH20 0xFFFFFFFFFFFFFFFFFFFFFFFFFFFFFFFFFFFFFFFF AND PUSH4 0xB4B7914D PUSH12 0xA18F07D736B90BE550000000 PUSH3 0x186A0 PUSH1 0x40 MLOAD DUP4 PUSH4 0xFFFFFFFF AND PUSH1 0xE0 SHL DUP2 MSTORE PUSH1 0x4 ADD PUSH3 0x31C7 SWAP3 SWAP2 SWAP1 PUSH3 0x4D18 JUMP JUMPDEST PUSH1 0x20 PUSH1 0x40 MLOAD DUP1 DUP4 SUB DUP2 DUP7 GAS STATICCALL ISZERO DUP1 ISZERO PUSH3 0x31E5 JUMPI RETURNDATASIZE PUSH1 0x0 DUP1 RETURNDATACOPY RETURNDATASIZE PUSH1 0x0 REVERT JUMPDEST POP POP POP POP PUSH1 0x40 MLOAD RETURNDATASIZE PUSH1 0x1F NOT PUSH1 0x1F DUP3 ADD AND DUP3 ADD DUP1 PUSH1 0x40 MSTORE POP DUP2 ADD SWAP1 PUSH3 0x320B SWAP2 SWAP1 PUSH3 0x34AB JUMP JUMPDEST PUSH1 0x40 MLOAD DUP4 PUSH4 0xFFFFFFFF AND PUSH1 0xE0 SHL DUP2 MSTORE PUSH1 0x4 ADD PUSH3 0x322A SWAP3 SWAP2 SWAP1 PUSH3 0x4C23 JUMP JUMPDEST PUSH1 0x20 PUSH1 0x40 MLOAD DUP1 DUP4 SUB DUP2 DUP7 GAS DELEGATECALL ISZERO DUP1 ISZERO PUSH3 0x3248 JUMPI RETURNDATASIZE PUSH1 0x0 DUP1 RETURNDATACOPY RETURNDATASIZE PUSH1 0x0 REVERT JUMPDEST POP POP POP POP PUSH1 0x40 MLOAD RETURNDATASIZE PUSH1 0x1F NOT PUSH1 0x1F DUP3 ADD AND DUP3 ADD DUP1 PUSH1 0x40 MSTORE POP DUP2 ADD SWAP1 PUSH3 0x326E SWAP2 SWAP1 PUSH3 0x3637 JUMP JUMPDEST POP JUMP JUMPDEST PUSH1 0x0 DUP1 SLOAD SWAP1 PUSH2 0x100 EXP SWAP1 DIV PUSH20 0xFFFFFFFFFFFFFFFFFFFFFFFFFFFFFFFFFFFFFFFF AND DUP2 JUMP JUMPDEST PUSH1 0x40 MLOAD PUSH3 0x32A3 SWAP1 PUSH3 0x3302 JUMP JUMPDEST PUSH1 0x40 MLOAD DUP1 SWAP2 SUB SWAP1 PUSH1 0x0 CREATE DUP1 ISZERO DUP1 ISZERO PUSH3 0x32C0 JUMPI RETURNDATASIZE PUSH1 0x0 DUP1 RETURNDATACOPY RETURNDATASIZE PUSH1 0x0 REVERT JUMPDEST POP PUSH1 0x0 DUP1 PUSH2 0x100 EXP DUP2 SLOAD DUP2 PUSH20 0xFFFFFFFFFFFFFFFFFFFFFFFFFFFFFFFFFFFFFFFF MUL NOT AND SWAP1 DUP4 PUSH20 0xFFFFFFFFFFFFFFFFFFFFFFFFFFFFFFFFFFFFFFFF AND MUL OR SWAP1 SSTORE POP JUMP JUMPDEST PUSH2 0x2869 DUP1 PUSH3 0x4D46 DUP4 CODECOPY ADD SWAP1 JUMP JUMPDEST PUSH1 0x0 PUSH20 0xFFFFFFFFFFFFFFFFFFFFFFFFFFFFFFFFFFFFFFFF DUP3 AND SWAP1 POP SWAP2 SWAP1 POP JUMP JUMPDEST PUSH1 0x0 DUP2 SWAP1 POP SWAP2 SWAP1 POP JUMP JUMPDEST PUSH1 0x0 PUSH3 0x335B PUSH3 0x3355 PUSH3 0x334F DUP5 PUSH3 0x3310 JUMP JUMPDEST PUSH3 0x3330 JUMP JUMPDEST PUSH3 0x3310 JUMP JUMPDEST SWAP1 POP SWAP2 SWAP1 POP JUMP JUMPDEST PUSH1 0x0 PUSH3 0x336F DUP3 PUSH3 0x333A JUMP JUMPDEST SWAP1 POP SWAP2 SWAP1 POP JUMP JUMPDEST PUSH1 0x0 PUSH3 0x3383 DUP3 PUSH3 0x3362 JUMP JUMPDEST SWAP1 POP SWAP2 SWAP1 POP JUMP JUMPDEST PUSH3 0x3395 DUP2 PUSH3 0x3376 JUMP JUMPDEST DUP3 MSTORE POP POP JUMP JUMPDEST PUSH1 0x0 PUSH1 0x20 DUP3 ADD SWAP1 POP PUSH3 0x33B2 PUSH1 0x0 DUP4 ADD DUP5 PUSH3 0x338A JUMP JUMPDEST SWAP3 SWAP2 POP POP JUMP JUMPDEST PUSH1 0x0 DUP2 SWAP1 POP SWAP2 SWAP1 POP JUMP JUMPDEST PUSH1 0x0 DUP2 SWAP1 POP SWAP2 SWAP1 POP JUMP JUMPDEST PUSH1 0x0 PUSH3 0x33ED PUSH3 0x33E7 PUSH3 0x33E1 DUP5 PUSH3 0x33B8 JUMP JUMPDEST PUSH3 0x3330 JUMP JUMPDEST PUSH3 0x33C2 JUMP JUMPDEST SWAP1 POP SWAP2 SWAP1 POP JUMP JUMPDEST PUSH3 0x33FF DUP2 PUSH3 0x33CC JUMP JUMPDEST DUP3 MSTORE POP POP JUMP JUMPDEST PUSH1 0x0 DUP2 SWAP1 POP SWAP2 SWAP1 POP JUMP JUMPDEST PUSH1 0x0 PUSH3 0x3430 PUSH3 0x342A PUSH3 0x3424 DUP5 PUSH3 0x3405 JUMP JUMPDEST PUSH3 0x3330 JUMP JUMPDEST PUSH3 0x33C2 JUMP JUMPDEST SWAP1 POP SWAP2 SWAP1 POP JUMP JUMPDEST PUSH3 0x3442 DUP2 PUSH3 0x340F JUMP JUMPDEST DUP3 MSTORE POP POP JUMP JUMPDEST PUSH1 0x0 PUSH1 0x40 DUP3 ADD SWAP1 POP PUSH3 0x345F PUSH1 0x0 DUP4 ADD DUP6 PUSH3 0x33F4 JUMP JUMPDEST PUSH3 0x346E PUSH1 0x20 DUP4 ADD DUP5 PUSH3 0x3437 JUMP JUMPDEST SWAP4 SWAP3 POP POP POP JUMP JUMPDEST PUSH1 0x0 DUP1 REVERT JUMPDEST PUSH3 0x3485 DUP2 PUSH3 0x33C2 JUMP JUMPDEST DUP2 EQ PUSH3 0x3491 JUMPI PUSH1 0x0 DUP1 REVERT JUMPDEST POP JUMP JUMPDEST PUSH1 0x0 DUP2 MLOAD SWAP1 POP PUSH3 0x34A5 DUP2 PUSH3 0x347A JUMP JUMPDEST SWAP3 SWAP2 POP POP JUMP JUMPDEST PUSH1 0x0 PUSH1 0x20 DUP3 DUP5 SUB SLT ISZERO PUSH3 0x34C4 JUMPI PUSH3 0x34C3 PUSH3 0x3475 JUMP JUMPDEST JUMPDEST PUSH1 0x0 PUSH3 0x34D4 DUP5 DUP3 DUP6 ADD PUSH3 0x3494 JUMP JUMPDEST SWAP2 POP POP SWAP3 SWAP2 POP POP JUMP JUMPDEST PUSH1 0x0 DUP2 SWAP1 POP SWAP2 SWAP1 POP JUMP JUMPDEST PUSH1 0x0 PUSH3 0x3508 PUSH3 0x3502 PUSH3 0x34FC DUP5 PUSH3 0x34DD JUMP JUMPDEST PUSH3 0x3330 JUMP JUMPDEST PUSH3 0x33C2 JUMP JUMPDEST SWAP1 POP SWAP2 SWAP1 POP JUMP JUMPDEST PUSH3 0x351A DUP2 PUSH3 0x34E7 JUMP JUMPDEST DUP3 MSTORE POP POP JUMP JUMPDEST PUSH3 0x352B DUP2 PUSH3 0x33C2 JUMP JUMPDEST DUP3 MSTORE POP POP JUMP JUMPDEST PUSH1 0x0 DUP3 DUP3 MSTORE PUSH1 0x20 DUP3 ADD SWAP1 POP SWAP3 SWAP2 POP POP JUMP JUMPDEST PUSH32 0x496E636F7272656374206D696E74207265776172642063616C63756C6174696F PUSH1 0x0 DUP3 ADD MSTORE PUSH32 0x6E00000000000000000000000000000000000000000000000000000000000000 PUSH1 0x20 DUP3 ADD MSTORE POP JUMP JUMPDEST PUSH1 0x0 PUSH3 0x35A0 PUSH1 0x21 DUP4 PUSH3 0x3531 JUMP JUMPDEST SWAP2 POP PUSH3 0x35AD DUP3 PUSH3 0x3542 JUMP JUMPDEST PUSH1 0x40 DUP3 ADD SWAP1 POP SWAP2 SWAP1 POP JUMP JUMPDEST PUSH1 0x0 PUSH1 0x60 DUP3 ADD SWAP1 POP PUSH3 0x35CF PUSH1 0x0 DUP4 ADD DUP6 PUSH3 0x350F JUMP JUMPDEST PUSH3 0x35DE PUSH1 0x20 DUP4 ADD DUP5 PUSH3 0x3520 JUMP JUMPDEST DUP2 DUP2 SUB PUSH1 0x40 DUP4 ADD MSTORE PUSH3 0x35F1 DUP2 PUSH3 0x3591 JUMP JUMPDEST SWAP1 POP SWAP4 SWAP3 POP POP POP JUMP JUMPDEST PUSH1 0x0 DUP2 ISZERO ISZERO SWAP1 POP SWAP2 SWAP1 POP JUMP JUMPDEST PUSH3 0x3611 DUP2 PUSH3 0x35FA JUMP JUMPDEST DUP2 EQ PUSH3 0x361D JUMPI PUSH1 0x0 DUP1 REVERT JUMPDEST POP JUMP JUMPDEST PUSH1 0x0 DUP2 MLOAD SWAP1 POP PUSH3 0x3631 DUP2 PUSH3 0x3606 JUMP JUMPDEST SWAP3 SWAP2 POP POP JUMP JUMPDEST PUSH1 0x0 PUSH1 0x20 DUP3 DUP5 SUB SLT ISZERO PUSH3 0x3650 JUMPI PUSH3 0x364F PUSH3 0x3475 JUMP JUMPDEST JUMPDEST PUSH1 0x0 PUSH3 0x3660 DUP5 DUP3 DUP6 ADD PUSH3 0x3620 JUMP JUMPDEST SWAP2 POP POP SWAP3 SWAP2 POP POP JUMP JUMPDEST PUSH1 0x0 DUP2 SWAP1 POP SWAP2 SWAP1 POP JUMP JUMPDEST PUSH1 0x0 PUSH3 0x3694 PUSH3 0x368E PUSH3 0x3688 DUP5 PUSH3 0x3669 JUMP JUMPDEST PUSH3 0x3330 JUMP JUMPDEST PUSH3 0x33C2 JUMP JUMPDEST SWAP1 POP SWAP2 SWAP1 POP JUMP JUMPDEST PUSH3 0x36A6 DUP2 PUSH3 0x3673 JUMP JUMPDEST DUP3 MSTORE POP POP JUMP JUMPDEST PUSH1 0x0 PUSH1 0x40 DUP3 ADD SWAP1 POP PUSH3 0x36C3 PUSH1 0x0 DUP4 ADD DUP6 PUSH3 0x369B JUMP JUMPDEST PUSH3 0x36D2 PUSH1 0x20 DUP4 ADD DUP5 PUSH3 0x3437 JUMP JUMPDEST SWAP4 SWAP3 POP POP POP JUMP JUMPDEST PUSH1 0x0 DUP2 SWAP1 POP SWAP2 SWAP1 POP JUMP JUMPDEST PUSH1 0x0 PUSH3 0x3704 PUSH3 0x36FE PUSH3 0x36F8 DUP5 PUSH3 0x36D9 JUMP JUMPDEST PUSH3 0x3330 JUMP JUMPDEST PUSH3 0x33C2 JUMP JUMPDEST SWAP1 POP SWAP2 SWAP1 POP JUMP JUMPDEST PUSH3 0x3716 DUP2 PUSH3 0x36E3 JUMP JUMPDEST DUP3 MSTORE POP POP JUMP JUMPDEST PUSH1 0x0 PUSH1 0x40 DUP3 ADD SWAP1 POP PUSH3 0x3733 PUSH1 0x0 DUP4 ADD DUP6 PUSH3 0x370B JUMP JUMPDEST PUSH3 0x3742 PUSH1 0x20 DUP4 ADD DUP5 PUSH3 0x3437 JUMP JUMPDEST SWAP4 SWAP3 POP POP POP JUMP JUMPDEST PUSH1 0x0 DUP2 SWAP1 POP SWAP2 SWAP1 POP JUMP JUMPDEST PUSH1 0x0 PUSH3 0x3774 PUSH3 0x376E PUSH3 0x3768 DUP5 PUSH3 0x3749 JUMP JUMPDEST PUSH3 0x3330 JUMP JUMPDEST PUSH3 0x33C2 JUMP JUMPDEST SWAP1 POP SWAP2 SWAP1 POP JUMP JUMPDEST PUSH3 0x3786 DUP2 PUSH3 0x3753 JUMP JUMPDEST DUP3 MSTORE POP POP JUMP JUMPDEST PUSH1 0x0 PUSH1 0x40 DUP3 ADD SWAP1 POP PUSH3 0x37A3 PUSH1 0x0 DUP4 ADD DUP6 PUSH3 0x377B JUMP JUMPDEST PUSH3 0x37B2 PUSH1 0x20 DUP4 ADD DUP5 PUSH3 0x3437 JUMP JUMPDEST SWAP4 SWAP3 POP POP POP JUMP JUMPDEST PUSH1 0x0 DUP2 SWAP1 POP SWAP2 SWAP1 POP JUMP JUMPDEST PUSH1 0x0 PUSH3 0x37E4 PUSH3 0x37DE PUSH3 0x37D8 DUP5 PUSH3 0x37B9 JUMP JUMPDEST PUSH3 0x3330 JUMP JUMPDEST PUSH3 0x33C2 JUMP JUMPDEST SWAP1 POP SWAP2 SWAP1 POP JUMP JUMPDEST PUSH3 0x37F6 DUP2 PUSH3 0x37C3 JUMP JUMPDEST DUP3 MSTORE POP POP JUMP JUMPDEST PUSH1 0x0 PUSH1 0x60 DUP3 ADD SWAP1 POP PUSH3 0x3813 PUSH1 0x0 DUP4 ADD DUP6 PUSH3 0x37EB JUMP JUMPDEST PUSH3 0x3822 PUSH1 0x20 DUP4 ADD DUP5 PUSH3 0x3520 JUMP JUMPDEST DUP2 DUP2 SUB PUSH1 0x40 DUP4 ADD MSTORE PUSH3 0x3835 DUP2 PUSH3 0x3591 JUMP JUMPDEST SWAP1 POP SWAP4 SWAP3 POP POP POP JUMP JUMPDEST PUSH1 0x0 DUP2 SWAP1 POP SWAP2 SWAP1 POP JUMP JUMPDEST PUSH1 0x0 PUSH3 0x3869 PUSH3 0x3863 PUSH3 0x385D DUP5 PUSH3 0x383E JUMP JUMPDEST PUSH3 0x3330 JUMP JUMPDEST PUSH3 0x33C2 JUMP JUMPDEST SWAP1 POP SWAP2 SWAP1 POP JUMP JUMPDEST PUSH3 0x387B DUP2 PUSH3 0x3848 JUMP JUMPDEST DUP3 MSTORE POP POP JUMP JUMPDEST PUSH1 0x0 PUSH1 0x40 DUP3 ADD SWAP1 POP PUSH3 0x3898 PUSH1 0x0 DUP4 ADD DUP6 PUSH3 0x3870 JUMP JUMPDEST PUSH3 0x38A7 PUSH1 0x20 DUP4 ADD DUP5 PUSH3 0x3437 JUMP JUMPDEST SWAP4 SWAP3 POP POP POP JUMP JUMPDEST PUSH1 0x0 DUP2 SWAP1 POP SWAP2 SWAP1 POP JUMP JUMPDEST PUSH1 0x0 PUSH3 0x38D9 PUSH3 0x38D3 PUSH3 0x38CD DUP5 PUSH3 0x38AE JUMP JUMPDEST PUSH3 0x3330 JUMP JUMPDEST PUSH3 0x33C2 JUMP JUMPDEST SWAP1 POP SWAP2 SWAP1 POP JUMP JUMPDEST PUSH3 0x38EB DUP2 PUSH3 0x38B8 JUMP JUMPDEST DUP3 MSTORE POP POP JUMP JUMPDEST PUSH1 0x0 PUSH1 0x40 DUP3 ADD SWAP1 POP PUSH3 0x3908 PUSH1 0x0 DUP4 ADD DUP6 PUSH3 0x38E0 JUMP JUMPDEST PUSH3 0x3917 PUSH1 0x20 DUP4 ADD DUP5 PUSH3 0x3437 JUMP JUMPDEST SWAP4 SWAP3 POP POP POP JUMP JUMPDEST PUSH1 0x0 DUP2 SWAP1 POP SWAP2 SWAP1 POP JUMP JUMPDEST PUSH1 0x0 PUSH3 0x3949 PUSH3 0x3943 PUSH3 0x393D DUP5 PUSH3 0x391E JUMP JUMPDEST PUSH3 0x3330 JUMP JUMPDEST PUSH3 0x33C2 JUMP JUMPDEST SWAP1 POP SWAP2 SWAP1 POP JUMP JUMPDEST PUSH3 0x395B DUP2 PUSH3 0x3928 JUMP JUMPDEST DUP3 MSTORE POP POP JUMP JUMPDEST PUSH1 0x0 PUSH1 0x40 DUP3 ADD SWAP1 POP PUSH3 0x3978 PUSH1 0x0 DUP4 ADD DUP6 PUSH3 0x3950 JUMP JUMPDEST PUSH3 0x3987 PUSH1 0x20 DUP4 ADD DUP5 PUSH3 0x3437 JUMP JUMPDEST SWAP4 SWAP3 POP POP POP JUMP JUMPDEST PUSH1 0x0 DUP2 SWAP1 POP SWAP2 SWAP1 POP JUMP JUMPDEST PUSH1 0x0 PUSH3 0x39B9 PUSH3 0x39B3 PUSH3 0x39AD DUP5 PUSH3 0x398E JUMP JUMPDEST PUSH3 0x3330 JUMP JUMPDEST PUSH3 0x33C2 JUMP JUMPDEST SWAP1 POP SWAP2 SWAP1 POP JUMP JUMPDEST PUSH3 0x39CB DUP2 PUSH3 0x3998 JUMP JUMPDEST DUP3 MSTORE POP POP JUMP JUMPDEST PUSH1 0x0 PUSH1 0x60 DUP3 ADD SWAP1 POP PUSH3 0x39E8 PUSH1 0x0 DUP4 ADD DUP6 PUSH3 0x39C0 JUMP JUMPDEST PUSH3 0x39F7 PUSH1 0x20 DUP4 ADD DUP5 PUSH3 0x3520 JUMP JUMPDEST DUP2 DUP2 SUB PUSH1 0x40 DUP4 ADD MSTORE PUSH3 0x3A0A DUP2 PUSH3 0x3591 JUMP JUMPDEST SWAP1 POP SWAP4 SWAP3 POP POP POP JUMP JUMPDEST PUSH1 0x0 DUP2 SWAP1 POP SWAP2 SWAP1 POP JUMP JUMPDEST PUSH1 0x0 PUSH3 0x3A3E PUSH3 0x3A38 PUSH3 0x3A32 DUP5 PUSH3 0x3A13 JUMP JUMPDEST PUSH3 0x3330 JUMP JUMPDEST PUSH3 0x33C2 JUMP JUMPDEST SWAP1 POP SWAP2 SWAP1 POP JUMP JUMPDEST PUSH3 0x3A50 DUP2 PUSH3 0x3A1D JUMP JUMPDEST DUP3 MSTORE POP POP JUMP JUMPDEST PUSH1 0x0 PUSH1 0x40 DUP3 ADD SWAP1 POP PUSH3 0x3A6D PUSH1 0x0 DUP4 ADD DUP6 PUSH3 0x3A45 JUMP JUMPDEST PUSH3 0x3A7C PUSH1 0x20 DUP4 ADD DUP5 PUSH3 0x3437 JUMP JUMPDEST SWAP4 SWAP3 POP POP POP JUMP JUMPDEST PUSH1 0x0 DUP2 SWAP1 POP SWAP2 SWAP1 POP JUMP JUMPDEST PUSH1 0x0 PUSH3 0x3AAE PUSH3 0x3AA8 PUSH3 0x3AA2 DUP5 PUSH3 0x3A83 JUMP JUMPDEST PUSH3 0x3330 JUMP JUMPDEST PUSH3 0x33C2 JUMP JUMPDEST SWAP1 POP SWAP2 SWAP1 POP JUMP JUMPDEST PUSH3 0x3AC0 DUP2 PUSH3 0x3A8D JUMP JUMPDEST DUP3 MSTORE POP POP JUMP JUMPDEST PUSH1 0x0 PUSH1 0x40 DUP3 ADD SWAP1 POP PUSH3 0x3ADD PUSH1 0x0 DUP4 ADD DUP6 PUSH3 0x3AB5 JUMP JUMPDEST PUSH3 0x3AEC PUSH1 0x20 DUP4 ADD DUP5 PUSH3 0x3437 JUMP JUMPDEST SWAP4 SWAP3 POP POP POP JUMP JUMPDEST PUSH1 0x0 DUP2 SWAP1 POP SWAP2 SWAP1 POP JUMP JUMPDEST PUSH1 0x0 PUSH3 0x3B1E PUSH3 0x3B18 PUSH3 0x3B12 DUP5 PUSH3 0x3AF3 JUMP JUMPDEST PUSH3 0x3330 JUMP JUMPDEST PUSH3 0x33C2 JUMP JUMPDEST SWAP1 POP SWAP2 SWAP1 POP JUMP JUMPDEST PUSH3 0x3B30 DUP2 PUSH3 0x3AFD JUMP JUMPDEST DUP3 MSTORE POP POP JUMP JUMPDEST PUSH1 0x0 PUSH1 0x40 DUP3 ADD SWAP1 POP PUSH3 0x3B4D PUSH1 0x0 DUP4 ADD DUP6 PUSH3 0x3B25 JUMP JUMPDEST PUSH3 0x3B5C PUSH1 0x20 DUP4 ADD DUP5 PUSH3 0x3437 JUMP JUMPDEST SWAP4 SWAP3 POP POP POP JUMP JUMPDEST PUSH1 0x0 DUP2 SWAP1 POP SWAP2 SWAP1 POP JUMP JUMPDEST PUSH1 0x0 PUSH3 0x3B8E PUSH3 0x3B88 PUSH3 0x3B82 DUP5 PUSH3 0x3B63 JUMP JUMPDEST PUSH3 0x3330 JUMP JUMPDEST PUSH3 0x33C2 JUMP JUMPDEST SWAP1 POP SWAP2 SWAP1 POP JUMP JUMPDEST PUSH3 0x3BA0 DUP2 PUSH3 0x3B6D JUMP JUMPDEST DUP3 MSTORE POP POP JUMP JUMPDEST PUSH1 0x0 PUSH1 0x60 DUP3 ADD SWAP1 POP PUSH3 0x3BBD PUSH1 0x0 DUP4 ADD DUP6 PUSH3 0x3B95 JUMP JUMPDEST PUSH3 0x3BCC PUSH1 0x20 DUP4 ADD DUP5 PUSH3 0x3520 JUMP JUMPDEST DUP2 DUP2 SUB PUSH1 0x40 DUP4 ADD MSTORE PUSH3 0x3BDF DUP2 PUSH3 0x3591 JUMP JUMPDEST SWAP1 POP SWAP4 SWAP3 POP POP POP JUMP JUMPDEST PUSH1 0x0 DUP2 SWAP1 POP SWAP2 SWAP1 POP JUMP JUMPDEST PUSH1 0x0 PUSH3 0x3C13 PUSH3 0x3C0D PUSH3 0x3C07 DUP5 PUSH3 0x3BE8 JUMP JUMPDEST PUSH3 0x3330 JUMP JUMPDEST PUSH3 0x33C2 JUMP JUMPDEST SWAP1 POP SWAP2 SWAP1 POP JUMP JUMPDEST PUSH3 0x3C25 DUP2 PUSH3 0x3BF2 JUMP JUMPDEST DUP3 MSTORE POP POP JUMP JUMPDEST PUSH1 0x0 PUSH1 0x40 DUP3 ADD SWAP1 POP PUSH3 0x3C42 PUSH1 0x0 DUP4 ADD DUP6 PUSH3 0x3C1A JUMP JUMPDEST PUSH3 0x3C51 PUSH1 0x20 DUP4 ADD DUP5 PUSH3 0x3437 JUMP JUMPDEST SWAP4 SWAP3 POP POP POP JUMP JUMPDEST PUSH1 0x0 DUP2 SWAP1 POP SWAP2 SWAP1 POP JUMP JUMPDEST PUSH1 0x0 PUSH3 0x3C83 PUSH3 0x3C7D PUSH3 0x3C77 DUP5 PUSH3 0x3C58 JUMP JUMPDEST PUSH3 0x3330 JUMP JUMPDEST PUSH3 0x33C2 JUMP JUMPDEST SWAP1 POP SWAP2 SWAP1 POP JUMP JUMPDEST PUSH3 0x3C95 DUP2 PUSH3 0x3C62 JUMP JUMPDEST DUP3 MSTORE POP POP JUMP JUMPDEST PUSH1 0x0 PUSH1 0x40 DUP3 ADD SWAP1 POP PUSH3 0x3CB2 PUSH1 0x0 DUP4 ADD DUP6 PUSH3 0x3C8A JUMP JUMPDEST PUSH3 0x3CC1 PUSH1 0x20 DUP4 ADD DUP5 PUSH3 0x3437 JUMP JUMPDEST SWAP4 SWAP3 POP POP POP JUMP JUMPDEST PUSH1 0x0 DUP2 SWAP1 POP SWAP2 SWAP1 POP JUMP JUMPDEST PUSH1 0x0 PUSH3 0x3CF3 PUSH3 0x3CED PUSH3 0x3CE7 DUP5 PUSH3 0x3CC8 JUMP JUMPDEST PUSH3 0x3330 JUMP JUMPDEST PUSH3 0x33C2 JUMP JUMPDEST SWAP1 POP SWAP2 SWAP1 POP JUMP JUMPDEST PUSH3 0x3D05 DUP2 PUSH3 0x3CD2 JUMP JUMPDEST DUP3 MSTORE POP POP JUMP JUMPDEST PUSH1 0x0 PUSH1 0x40 DUP3 ADD SWAP1 POP PUSH3 0x3D22 PUSH1 0x0 DUP4 ADD DUP6 PUSH3 0x3CFA JUMP JUMPDEST PUSH3 0x3D31 PUSH1 0x20 DUP4 ADD DUP5 PUSH3 0x3437 JUMP JUMPDEST SWAP4 SWAP3 POP POP POP JUMP JUMPDEST PUSH1 0x0 DUP2 SWAP1 POP SWAP2 SWAP1 POP JUMP JUMPDEST PUSH1 0x0 PUSH3 0x3D63 PUSH3 0x3D5D PUSH3 0x3D57 DUP5 PUSH3 0x3D38 JUMP JUMPDEST PUSH3 0x3330 JUMP JUMPDEST PUSH3 0x33C2 JUMP JUMPDEST SWAP1 POP SWAP2 SWAP1 POP JUMP JUMPDEST PUSH3 0x3D75 DUP2 PUSH3 0x3D42 JUMP JUMPDEST DUP3 MSTORE POP POP JUMP JUMPDEST PUSH1 0x0 PUSH1 0x60 DUP3 ADD SWAP1 POP PUSH3 0x3D92 PUSH1 0x0 DUP4 ADD DUP6 PUSH3 0x3D6A JUMP JUMPDEST PUSH3 0x3DA1 PUSH1 0x20 DUP4 ADD DUP5 PUSH3 0x3520 JUMP JUMPDEST DUP2 DUP2 SUB PUSH1 0x40 DUP4 ADD MSTORE PUSH3 0x3DB4 DUP2 PUSH3 0x3591 JUMP JUMPDEST SWAP1 POP SWAP4 SWAP3 POP POP POP JUMP JUMPDEST PUSH1 0x0 DUP2 SWAP1 POP SWAP2 SWAP1 POP JUMP JUMPDEST PUSH1 0x0 PUSH3 0x3DE8 PUSH3 0x3DE2 PUSH3 0x3DDC DUP5 PUSH3 0x3DBD JUMP JUMPDEST PUSH3 0x3330 JUMP JUMPDEST PUSH3 0x33C2 JUMP JUMPDEST SWAP1 POP SWAP2 SWAP1 POP JUMP JUMPDEST PUSH3 0x3DFA DUP2 PUSH3 0x3DC7 JUMP JUMPDEST DUP3 MSTORE POP POP JUMP JUMPDEST PUSH1 0x0 PUSH1 0x40 DUP3 ADD SWAP1 POP PUSH3 0x3E17 PUSH1 0x0 DUP4 ADD DUP6 PUSH3 0x3DEF JUMP JUMPDEST PUSH3 0x3E26 PUSH1 0x20 DUP4 ADD DUP5 PUSH3 0x3437 JUMP JUMPDEST SWAP4 SWAP3 POP POP POP JUMP JUMPDEST PUSH1 0x0 DUP2 SWAP1 POP SWAP2 SWAP1 POP JUMP JUMPDEST PUSH1 0x0 PUSH3 0x3E58 PUSH3 0x3E52 PUSH3 0x3E4C DUP5 PUSH3 0x3E2D JUMP JUMPDEST PUSH3 0x3330 JUMP JUMPDEST PUSH3 0x33C2 JUMP JUMPDEST SWAP1 POP SWAP2 SWAP1 POP JUMP JUMPDEST PUSH3 0x3E6A DUP2 PUSH3 0x3E37 JUMP JUMPDEST DUP3 MSTORE POP POP JUMP JUMPDEST PUSH1 0x0 PUSH1 0x40 DUP3 ADD SWAP1 POP PUSH3 0x3E87 PUSH1 0x0 DUP4 ADD DUP6 PUSH3 0x3E5F JUMP JUMPDEST PUSH3 0x3E96 PUSH1 0x20 DUP4 ADD DUP5 PUSH3 0x3437 JUMP JUMPDEST SWAP4 SWAP3 POP POP POP JUMP JUMPDEST PUSH1 0x0 DUP2 SWAP1 POP SWAP2 SWAP1 POP JUMP JUMPDEST PUSH1 0x0 PUSH3 0x3EC8 PUSH3 0x3EC2 PUSH3 0x3EBC DUP5 PUSH3 0x3E9D JUMP JUMPDEST PUSH3 0x3330 JUMP JUMPDEST PUSH3 0x33C2 JUMP JUMPDEST SWAP1 POP SWAP2 SWAP1 POP JUMP JUMPDEST PUSH3 0x3EDA DUP2 PUSH3 0x3EA7 JUMP JUMPDEST DUP3 MSTORE POP POP JUMP JUMPDEST PUSH1 0x0 PUSH1 0x40 DUP3 ADD SWAP1 POP PUSH3 0x3EF7 PUSH1 0x0 DUP4 ADD DUP6 PUSH3 0x3ECF JUMP JUMPDEST PUSH3 0x3F06 PUSH1 0x20 DUP4 ADD DUP5 PUSH3 0x3437 JUMP JUMPDEST SWAP4 SWAP3 POP POP POP JUMP JUMPDEST PUSH1 0x0 DUP2 SWAP1 POP SWAP2 SWAP1 POP JUMP JUMPDEST PUSH1 0x0 PUSH3 0x3F38 PUSH3 0x3F32 PUSH3 0x3F2C DUP5 PUSH3 0x3F0D JUMP JUMPDEST PUSH3 0x3330 JUMP JUMPDEST PUSH3 0x33C2 JUMP JUMPDEST SWAP1 POP SWAP2 SWAP1 POP JUMP JUMPDEST PUSH3 0x3F4A DUP2 PUSH3 0x3F17 JUMP JUMPDEST DUP3 MSTORE POP POP JUMP JUMPDEST PUSH1 0x0 PUSH1 0x60 DUP3 ADD SWAP1 POP PUSH3 0x3F67 PUSH1 0x0 DUP4 ADD DUP6 PUSH3 0x3F3F JUMP JUMPDEST PUSH3 0x3F76 PUSH1 0x20 DUP4 ADD DUP5 PUSH3 0x3520 JUMP JUMPDEST DUP2 DUP2 SUB PUSH1 0x40 DUP4 ADD MSTORE PUSH3 0x3F89 DUP2 PUSH3 0x3591 JUMP JUMPDEST SWAP1 POP SWAP4 SWAP3 POP POP POP JUMP JUMPDEST PUSH1 0x0 DUP2 SWAP1 POP SWAP2 SWAP1 POP JUMP JUMPDEST PUSH1 0x0 PUSH3 0x3FBD PUSH3 0x3FB7 PUSH3 0x3FB1 DUP5 PUSH3 0x3F92 JUMP JUMPDEST PUSH3 0x3330 JUMP JUMPDEST PUSH3 0x33C2 JUMP JUMPDEST SWAP1 POP SWAP2 SWAP1 POP JUMP JUMPDEST PUSH3 0x3FCF DUP2 PUSH3 0x3F9C JUMP JUMPDEST DUP3 MSTORE POP POP JUMP JUMPDEST PUSH1 0x0 PUSH1 0x40 DUP3 ADD SWAP1 POP PUSH3 0x3FEC PUSH1 0x0 DUP4 ADD DUP6 PUSH3 0x3FC4 JUMP JUMPDEST PUSH3 0x3FFB PUSH1 0x20 DUP4 ADD DUP5 PUSH3 0x3437 JUMP JUMPDEST SWAP4 SWAP3 POP POP POP JUMP JUMPDEST PUSH1 0x0 DUP2 SWAP1 POP SWAP2 SWAP1 POP JUMP JUMPDEST PUSH1 0x0 PUSH3 0x402D PUSH3 0x4027 PUSH3 0x4021 DUP5 PUSH3 0x4002 JUMP JUMPDEST PUSH3 0x3330 JUMP JUMPDEST PUSH3 0x33C2 JUMP JUMPDEST SWAP1 POP SWAP2 SWAP1 POP JUMP JUMPDEST PUSH3 0x403F DUP2 PUSH3 0x400C JUMP JUMPDEST DUP3 MSTORE POP POP JUMP JUMPDEST PUSH1 0x0 PUSH1 0x40 DUP3 ADD SWAP1 POP PUSH3 0x405C PUSH1 0x0 DUP4 ADD DUP6 PUSH3 0x4034 JUMP JUMPDEST PUSH3 0x406B PUSH1 0x20 DUP4 ADD DUP5 PUSH3 0x3437 JUMP JUMPDEST SWAP4 SWAP3 POP POP POP JUMP JUMPDEST PUSH1 0x0 DUP2 SWAP1 POP SWAP2 SWAP1 POP JUMP JUMPDEST PUSH1 0x0 PUSH3 0x409D PUSH3 0x4097 PUSH3 0x4091 DUP5 PUSH3 0x4072 JUMP JUMPDEST PUSH3 0x3330 JUMP JUMPDEST PUSH3 0x33C2 JUMP JUMPDEST SWAP1 POP SWAP2 SWAP1 POP JUMP JUMPDEST PUSH3 0x40AF DUP2 PUSH3 0x407C JUMP JUMPDEST DUP3 MSTORE POP POP JUMP JUMPDEST PUSH1 0x0 PUSH1 0x40 DUP3 ADD SWAP1 POP PUSH3 0x40CC PUSH1 0x0 DUP4 ADD DUP6 PUSH3 0x40A4 JUMP JUMPDEST PUSH3 0x40DB PUSH1 0x20 DUP4 ADD DUP5 PUSH3 0x3437 JUMP JUMPDEST SWAP4 SWAP3 POP POP POP JUMP JUMPDEST PUSH1 0x0 DUP2 SWAP1 POP SWAP2 SWAP1 POP JUMP JUMPDEST PUSH1 0x0 PUSH3 0x410D PUSH3 0x4107 PUSH3 0x4101 DUP5 PUSH3 0x40E2 JUMP JUMPDEST PUSH3 0x3330 JUMP JUMPDEST PUSH3 0x33C2 JUMP JUMPDEST SWAP1 POP SWAP2 SWAP1 POP JUMP JUMPDEST PUSH3 0x411F DUP2 PUSH3 0x40EC JUMP JUMPDEST DUP3 MSTORE POP POP JUMP JUMPDEST PUSH1 0x0 PUSH1 0x60 DUP3 ADD SWAP1 POP PUSH3 0x413C PUSH1 0x0 DUP4 ADD DUP6 PUSH3 0x4114 JUMP JUMPDEST PUSH3 0x414B PUSH1 0x20 DUP4 ADD DUP5 PUSH3 0x3520 JUMP JUMPDEST DUP2 DUP2 SUB PUSH1 0x40 DUP4 ADD MSTORE PUSH3 0x415E DUP2 PUSH3 0x3591 JUMP JUMPDEST SWAP1 POP SWAP4 SWAP3 POP POP POP JUMP JUMPDEST PUSH1 0x0 DUP2 SWAP1 POP SWAP2 SWAP1 POP JUMP JUMPDEST PUSH1 0x0 PUSH3 0x4192 PUSH3 0x418C PUSH3 0x4186 DUP5 PUSH3 0x4167 JUMP JUMPDEST PUSH3 0x3330 JUMP JUMPDEST PUSH3 0x33C2 JUMP JUMPDEST SWAP1 POP SWAP2 SWAP1 POP JUMP JUMPDEST PUSH3 0x41A4 DUP2 PUSH3 0x4171 JUMP JUMPDEST DUP3 MSTORE POP POP JUMP JUMPDEST PUSH1 0x0 PUSH1 0x40 DUP3 ADD SWAP1 POP PUSH3 0x41C1 PUSH1 0x0 DUP4 ADD DUP6 PUSH3 0x4199 JUMP JUMPDEST PUSH3 0x41D0 PUSH1 0x20 DUP4 ADD DUP5 PUSH3 0x3437 JUMP JUMPDEST SWAP4 SWAP3 POP POP POP JUMP JUMPDEST PUSH1 0x0 DUP2 SWAP1 POP SWAP2 SWAP1 POP JUMP JUMPDEST PUSH1 0x0 PUSH3 0x4202 PUSH3 0x41FC PUSH3 0x41F6 DUP5 PUSH3 0x41D7 JUMP JUMPDEST PUSH3 0x3330 JUMP JUMPDEST PUSH3 0x33C2 JUMP JUMPDEST SWAP1 POP SWAP2 SWAP1 POP JUMP JUMPDEST PUSH3 0x4214 DUP2 PUSH3 0x41E1 JUMP JUMPDEST DUP3 MSTORE POP POP JUMP JUMPDEST PUSH1 0x0 PUSH1 0x40 DUP3 ADD SWAP1 POP PUSH3 0x4231 PUSH1 0x0 DUP4 ADD DUP6 PUSH3 0x4209 JUMP JUMPDEST PUSH3 0x4240 PUSH1 0x20 DUP4 ADD DUP5 PUSH3 0x3437 JUMP JUMPDEST SWAP4 SWAP3 POP POP POP JUMP JUMPDEST PUSH1 0x0 DUP2 SWAP1 POP SWAP2 SWAP1 POP JUMP JUMPDEST PUSH1 0x0 PUSH3 0x4272 PUSH3 0x426C PUSH3 0x4266 DUP5 PUSH3 0x4247 JUMP JUMPDEST PUSH3 0x3330 JUMP JUMPDEST PUSH3 0x33C2 JUMP JUMPDEST SWAP1 POP SWAP2 SWAP1 POP JUMP JUMPDEST PUSH3 0x4284 DUP2 PUSH3 0x4251 JUMP JUMPDEST DUP3 MSTORE POP POP JUMP JUMPDEST PUSH1 0x0 PUSH1 0x40 DUP3 ADD SWAP1 POP PUSH3 0x42A1 PUSH1 0x0 DUP4 ADD DUP6 PUSH3 0x4279 JUMP JUMPDEST PUSH3 0x42B0 PUSH1 0x20 DUP4 ADD DUP5 PUSH3 0x3437 JUMP JUMPDEST SWAP4 SWAP3 POP POP POP JUMP JUMPDEST PUSH1 0x0 DUP2 SWAP1 POP SWAP2 SWAP1 POP JUMP JUMPDEST PUSH1 0x0 PUSH3 0x42E2 PUSH3 0x42DC PUSH3 0x42D6 DUP5 PUSH3 0x42B7 JUMP JUMPDEST PUSH3 0x3330 JUMP JUMPDEST PUSH3 0x33C2 JUMP JUMPDEST SWAP1 POP SWAP2 SWAP1 POP JUMP JUMPDEST PUSH3 0x42F4 DUP2 PUSH3 0x42C1 JUMP JUMPDEST DUP3 MSTORE POP POP JUMP JUMPDEST PUSH1 0x0 PUSH1 0x60 DUP3 ADD SWAP1 POP PUSH3 0x4311 PUSH1 0x0 DUP4 ADD DUP6 PUSH3 0x42E9 JUMP JUMPDEST PUSH3 0x4320 PUSH1 0x20 DUP4 ADD DUP5 PUSH3 0x3520 JUMP JUMPDEST DUP2 DUP2 SUB PUSH1 0x40 DUP4 ADD MSTORE PUSH3 0x4333 DUP2 PUSH3 0x3591 JUMP JUMPDEST SWAP1 POP SWAP4 SWAP3 POP POP POP JUMP JUMPDEST PUSH1 0x0 DUP2 SWAP1 POP SWAP2 SWAP1 POP JUMP JUMPDEST PUSH1 0x0 PUSH3 0x4367 PUSH3 0x4361 PUSH3 0x435B DUP5 PUSH3 0x433C JUMP JUMPDEST PUSH3 0x3330 JUMP JUMPDEST PUSH3 0x33C2 JUMP JUMPDEST SWAP1 POP SWAP2 SWAP1 POP JUMP JUMPDEST PUSH3 0x4379 DUP2 PUSH3 0x4346 JUMP JUMPDEST DUP3 MSTORE POP POP JUMP JUMPDEST PUSH1 0x0 PUSH1 0x40 DUP3 ADD SWAP1 POP PUSH3 0x4396 PUSH1 0x0 DUP4 ADD DUP6 PUSH3 0x436E JUMP JUMPDEST PUSH3 0x43A5 PUSH1 0x20 DUP4 ADD DUP5 PUSH3 0x3437 JUMP JUMPDEST SWAP4 SWAP3 POP POP POP JUMP JUMPDEST PUSH1 0x0 DUP2 SWAP1 POP SWAP2 SWAP1 POP JUMP JUMPDEST PUSH1 0x0 PUSH3 0x43D7 PUSH3 0x43D1 PUSH3 0x43CB DUP5 PUSH3 0x43AC JUMP JUMPDEST PUSH3 0x3330 JUMP JUMPDEST PUSH3 0x33C2 JUMP JUMPDEST SWAP1 POP SWAP2 SWAP1 POP JUMP JUMPDEST PUSH3 0x43E9 DUP2 PUSH3 0x43B6 JUMP JUMPDEST DUP3 MSTORE POP POP JUMP JUMPDEST PUSH1 0x0 PUSH1 0x40 DUP3 ADD SWAP1 POP PUSH3 0x4406 PUSH1 0x0 DUP4 ADD DUP6 PUSH3 0x43DE JUMP JUMPDEST PUSH3 0x4415 PUSH1 0x20 DUP4 ADD DUP5 PUSH3 0x3437 JUMP JUMPDEST SWAP4 SWAP3 POP POP POP JUMP JUMPDEST PUSH1 0x0 DUP2 SWAP1 POP SWAP2 SWAP1 POP JUMP JUMPDEST PUSH1 0x0 PUSH3 0x4447 PUSH3 0x4441 PUSH3 0x443B DUP5 PUSH3 0x441C JUMP JUMPDEST PUSH3 0x3330 JUMP JUMPDEST PUSH3 0x33C2 JUMP JUMPDEST SWAP1 POP SWAP2 SWAP1 POP JUMP JUMPDEST PUSH3 0x4459 DUP2 PUSH3 0x4426 JUMP JUMPDEST DUP3 MSTORE POP POP JUMP JUMPDEST PUSH1 0x0 PUSH1 0x40 DUP3 ADD SWAP1 POP PUSH3 0x4476 PUSH1 0x0 DUP4 ADD DUP6 PUSH3 0x444E JUMP JUMPDEST PUSH3 0x4485 PUSH1 0x20 DUP4 ADD DUP5 PUSH3 0x3437 JUMP JUMPDEST SWAP4 SWAP3 POP POP POP JUMP JUMPDEST PUSH1 0x0 DUP2 SWAP1 POP SWAP2 SWAP1 POP JUMP JUMPDEST PUSH1 0x0 PUSH3 0x44B7 PUSH3 0x44B1 PUSH3 0x44AB DUP5 PUSH3 0x448C JUMP JUMPDEST PUSH3 0x3330 JUMP JUMPDEST PUSH3 0x33C2 JUMP JUMPDEST SWAP1 POP SWAP2 SWAP1 POP JUMP JUMPDEST PUSH3 0x44C9 DUP2 PUSH3 0x4496 JUMP JUMPDEST DUP3 MSTORE POP POP JUMP JUMPDEST PUSH1 0x0 PUSH1 0x60 DUP3 ADD SWAP1 POP PUSH3 0x44E6 PUSH1 0x0 DUP4 ADD DUP6 PUSH3 0x44BE JUMP JUMPDEST PUSH3 0x44F5 PUSH1 0x20 DUP4 ADD DUP5 PUSH3 0x3520 JUMP JUMPDEST DUP2 DUP2 SUB PUSH1 0x40 DUP4 ADD MSTORE PUSH3 0x4508 DUP2 PUSH3 0x3591 JUMP JUMPDEST SWAP1 POP SWAP4 SWAP3 POP POP POP JUMP JUMPDEST PUSH1 0x0 DUP2 SWAP1 POP SWAP2 SWAP1 POP JUMP JUMPDEST PUSH1 0x0 PUSH3 0x453C PUSH3 0x4536 PUSH3 0x4530 DUP5 PUSH3 0x4511 JUMP JUMPDEST PUSH3 0x3330 JUMP JUMPDEST PUSH3 0x33C2 JUMP JUMPDEST SWAP1 POP SWAP2 SWAP1 POP JUMP JUMPDEST PUSH3 0x454E DUP2 PUSH3 0x451B JUMP JUMPDEST DUP3 MSTORE POP POP JUMP JUMPDEST PUSH1 0x0 PUSH1 0x40 DUP3 ADD SWAP1 POP PUSH3 0x456B PUSH1 0x0 DUP4 ADD DUP6 PUSH3 0x4543 JUMP JUMPDEST PUSH3 0x457A PUSH1 0x20 DUP4 ADD DUP5 PUSH3 0x3437 JUMP JUMPDEST SWAP4 SWAP3 POP POP POP JUMP JUMPDEST PUSH1 0x0 DUP2 SWAP1 POP SWAP2 SWAP1 POP JUMP JUMPDEST PUSH1 0x0 PUSH3 0x45AC PUSH3 0x45A6 PUSH3 0x45A0 DUP5 PUSH3 0x4581 JUMP JUMPDEST PUSH3 0x3330 JUMP JUMPDEST PUSH3 0x33C2 JUMP JUMPDEST SWAP1 POP SWAP2 SWAP1 POP JUMP JUMPDEST PUSH3 0x45BE DUP2 PUSH3 0x458B JUMP JUMPDEST DUP3 MSTORE POP POP JUMP JUMPDEST PUSH1 0x0 PUSH1 0x40 DUP3 ADD SWAP1 POP PUSH3 0x45DB PUSH1 0x0 DUP4 ADD DUP6 PUSH3 0x45B3 JUMP JUMPDEST PUSH3 0x45EA PUSH1 0x20 DUP4 ADD DUP5 PUSH3 0x3437 JUMP JUMPDEST SWAP4 SWAP3 POP POP POP JUMP JUMPDEST PUSH1 0x0 DUP2 SWAP1 POP SWAP2 SWAP1 POP JUMP JUMPDEST PUSH1 0x0 PUSH3 0x461C PUSH3 0x4616 PUSH3 0x4610 DUP5 PUSH3 0x45F1 JUMP JUMPDEST PUSH3 0x3330 JUMP JUMPDEST PUSH3 0x33C2 JUMP JUMPDEST SWAP1 POP SWAP2 SWAP1 POP JUMP JUMPDEST PUSH3 0x462E DUP2 PUSH3 0x45FB JUMP JUMPDEST DUP3 MSTORE POP POP JUMP JUMPDEST PUSH1 0x0 PUSH1 0x40 DUP3 ADD SWAP1 POP PUSH3 0x464B PUSH1 0x0 DUP4 ADD DUP6 PUSH3 0x4623 JUMP JUMPDEST PUSH3 0x465A PUSH1 0x20 DUP4 ADD DUP5 PUSH3 0x3437 JUMP JUMPDEST SWAP4 SWAP3 POP POP POP JUMP JUMPDEST PUSH1 0x0 DUP2 SWAP1 POP SWAP2 SWAP1 POP JUMP JUMPDEST PUSH1 0x0 PUSH3 0x468C PUSH3 0x4686 PUSH3 0x4680 DUP5 PUSH3 0x4661 JUMP JUMPDEST PUSH3 0x3330 JUMP JUMPDEST PUSH3 0x33C2 JUMP JUMPDEST SWAP1 POP SWAP2 SWAP1 POP JUMP JUMPDEST PUSH3 0x469E DUP2 PUSH3 0x466B JUMP JUMPDEST DUP3 MSTORE POP POP JUMP JUMPDEST PUSH1 0x0 PUSH1 0x60 DUP3 ADD SWAP1 POP PUSH3 0x46BB PUSH1 0x0 DUP4 ADD DUP6 PUSH3 0x4693 JUMP JUMPDEST PUSH3 0x46CA PUSH1 0x20 DUP4 ADD DUP5 PUSH3 0x3520 JUMP JUMPDEST DUP2 DUP2 SUB PUSH1 0x40 DUP4 ADD MSTORE PUSH3 0x46DD DUP2 PUSH3 0x3591 JUMP JUMPDEST SWAP1 POP SWAP4 SWAP3 POP POP POP JUMP JUMPDEST PUSH1 0x0 DUP2 SWAP1 POP SWAP2 SWAP1 POP JUMP JUMPDEST PUSH1 0x0 PUSH3 0x4711 PUSH3 0x470B PUSH3 0x4705 DUP5 PUSH3 0x46E6 JUMP JUMPDEST PUSH3 0x3330 JUMP JUMPDEST PUSH3 0x33C2 JUMP JUMPDEST SWAP1 POP SWAP2 SWAP1 POP JUMP JUMPDEST PUSH3 0x4723 DUP2 PUSH3 0x46F0 JUMP JUMPDEST DUP3 MSTORE POP POP JUMP JUMPDEST PUSH1 0x0 PUSH1 0x40 DUP3 ADD SWAP1 POP PUSH3 0x4740 PUSH1 0x0 DUP4 ADD DUP6 PUSH3 0x4718 JUMP JUMPDEST PUSH3 0x474F PUSH1 0x20 DUP4 ADD DUP5 PUSH3 0x3437 JUMP JUMPDEST SWAP4 SWAP3 POP POP POP JUMP JUMPDEST PUSH1 0x0 DUP2 SWAP1 POP SWAP2 SWAP1 POP JUMP JUMPDEST PUSH1 0x0 PUSH3 0x4781 PUSH3 0x477B PUSH3 0x4775 DUP5 PUSH3 0x4756 JUMP JUMPDEST PUSH3 0x3330 JUMP JUMPDEST PUSH3 0x33C2 JUMP JUMPDEST SWAP1 POP SWAP2 SWAP1 POP JUMP JUMPDEST PUSH3 0x4793 DUP2 PUSH3 0x4760 JUMP JUMPDEST DUP3 MSTORE POP POP JUMP JUMPDEST PUSH1 0x0 PUSH1 0x40 DUP3 ADD SWAP1 POP PUSH3 0x47B0 PUSH1 0x0 DUP4 ADD DUP6 PUSH3 0x4788 JUMP JUMPDEST PUSH3 0x47BF PUSH1 0x20 DUP4 ADD DUP5 PUSH3 0x3437 JUMP JUMPDEST SWAP4 SWAP3 POP POP POP JUMP JUMPDEST PUSH1 0x0 DUP2 SWAP1 POP SWAP2 SWAP1 POP JUMP JUMPDEST PUSH1 0x0 PUSH3 0x47F1 PUSH3 0x47EB PUSH3 0x47E5 DUP5 PUSH3 0x47C6 JUMP JUMPDEST PUSH3 0x3330 JUMP JUMPDEST PUSH3 0x33C2 JUMP JUMPDEST SWAP1 POP SWAP2 SWAP1 POP JUMP JUMPDEST PUSH3 0x4803 DUP2 PUSH3 0x47D0 JUMP JUMPDEST DUP3 MSTORE POP POP JUMP JUMPDEST PUSH1 0x0 PUSH1 0x40 DUP3 ADD SWAP1 POP PUSH3 0x4820 PUSH1 0x0 DUP4 ADD DUP6 PUSH3 0x47F8 JUMP JUMPDEST PUSH3 0x482F PUSH1 0x20 DUP4 ADD DUP5 PUSH3 0x3437 JUMP JUMPDEST SWAP4 SWAP3 POP POP POP JUMP JUMPDEST PUSH1 0x0 DUP2 SWAP1 POP SWAP2 SWAP1 POP JUMP JUMPDEST PUSH1 0x0 PUSH3 0x4861 PUSH3 0x485B PUSH3 0x4855 DUP5 PUSH3 0x4836 JUMP JUMPDEST PUSH3 0x3330 JUMP JUMPDEST PUSH3 0x33C2 JUMP JUMPDEST SWAP1 POP SWAP2 SWAP1 POP JUMP JUMPDEST PUSH3 0x4873 DUP2 PUSH3 0x4840 JUMP JUMPDEST DUP3 MSTORE POP POP JUMP JUMPDEST PUSH1 0x0 PUSH1 0x60 DUP3 ADD SWAP1 POP PUSH3 0x4890 PUSH1 0x0 DUP4 ADD DUP6 PUSH3 0x4868 JUMP JUMPDEST PUSH3 0x489F PUSH1 0x20 DUP4 ADD DUP5 PUSH3 0x3520 JUMP JUMPDEST DUP2 DUP2 SUB PUSH1 0x40 DUP4 ADD MSTORE PUSH3 0x48B2 DUP2 PUSH3 0x3591 JUMP JUMPDEST SWAP1 POP SWAP4 SWAP3 POP POP POP JUMP JUMPDEST PUSH1 0x0 DUP2 SWAP1 POP SWAP2 SWAP1 POP JUMP JUMPDEST PUSH1 0x0 PUSH3 0x48E6 PUSH3 0x48E0 PUSH3 0x48DA DUP5 PUSH3 0x48BB JUMP JUMPDEST PUSH3 0x3330 JUMP JUMPDEST PUSH3 0x33C2 JUMP JUMPDEST SWAP1 POP SWAP2 SWAP1 POP JUMP JUMPDEST PUSH3 0x48F8 DUP2 PUSH3 0x48C5 JUMP JUMPDEST DUP3 MSTORE POP POP JUMP JUMPDEST PUSH1 0x0 PUSH1 0x40 DUP3 ADD SWAP1 POP PUSH3 0x4915 PUSH1 0x0 DUP4 ADD DUP6 PUSH3 0x48ED JUMP JUMPDEST PUSH3 0x4924 PUSH1 0x20 DUP4 ADD DUP5 PUSH3 0x3437 JUMP JUMPDEST SWAP4 SWAP3 POP POP POP JUMP JUMPDEST PUSH1 0x0 DUP2 SWAP1 POP SWAP2 SWAP1 POP JUMP JUMPDEST PUSH1 0x0 PUSH3 0x4956 PUSH3 0x4950 PUSH3 0x494A DUP5 PUSH3 0x492B JUMP JUMPDEST PUSH3 0x3330 JUMP JUMPDEST PUSH3 0x33C2 JUMP JUMPDEST SWAP1 POP SWAP2 SWAP1 POP JUMP JUMPDEST PUSH3 0x4968 DUP2 PUSH3 0x4935 JUMP JUMPDEST DUP3 MSTORE POP POP JUMP JUMPDEST PUSH1 0x0 PUSH1 0x40 DUP3 ADD SWAP1 POP PUSH3 0x4985 PUSH1 0x0 DUP4 ADD DUP6 PUSH3 0x495D JUMP JUMPDEST PUSH3 0x4994 PUSH1 0x20 DUP4 ADD DUP5 PUSH3 0x3437 JUMP JUMPDEST SWAP4 SWAP3 POP POP POP JUMP JUMPDEST PUSH1 0x0 DUP2 SWAP1 POP SWAP2 SWAP1 POP JUMP JUMPDEST PUSH1 0x0 PUSH3 0x49C6 PUSH3 0x49C0 PUSH3 0x49BA DUP5 PUSH3 0x499B JUMP JUMPDEST PUSH3 0x3330 JUMP JUMPDEST PUSH3 0x33C2 JUMP JUMPDEST SWAP1 POP SWAP2 SWAP1 POP JUMP JUMPDEST PUSH3 0x49D8 DUP2 PUSH3 0x49A5 JUMP JUMPDEST DUP3 MSTORE POP POP JUMP JUMPDEST PUSH1 0x0 PUSH1 0x40 DUP3 ADD SWAP1 POP PUSH3 0x49F5 PUSH1 0x0 DUP4 ADD DUP6 PUSH3 0x49CD JUMP JUMPDEST PUSH3 0x4A04 PUSH1 0x20 DUP4 ADD DUP5 PUSH3 0x3437 JUMP JUMPDEST SWAP4 SWAP3 POP POP POP JUMP JUMPDEST PUSH1 0x0 DUP2 SWAP1 POP SWAP2 SWAP1 POP JUMP JUMPDEST PUSH1 0x0 PUSH3 0x4A36 PUSH3 0x4A30 PUSH3 0x4A2A DUP5 PUSH3 0x4A0B JUMP JUMPDEST PUSH3 0x3330 JUMP JUMPDEST PUSH3 0x33C2 JUMP JUMPDEST SWAP1 POP SWAP2 SWAP1 POP JUMP JUMPDEST PUSH3 0x4A48 DUP2 PUSH3 0x4A15 JUMP JUMPDEST DUP3 MSTORE POP POP JUMP JUMPDEST PUSH1 0x0 PUSH1 0x60 DUP3 ADD SWAP1 POP PUSH3 0x4A65 PUSH1 0x0 DUP4 ADD DUP6 PUSH3 0x4A3D JUMP JUMPDEST PUSH3 0x4A74 PUSH1 0x20 DUP4 ADD DUP5 PUSH3 0x3520 JUMP JUMPDEST DUP2 DUP2 SUB PUSH1 0x40 DUP4 ADD MSTORE PUSH3 0x4A87 DUP2 PUSH3 0x3591 JUMP JUMPDEST SWAP1 POP SWAP4 SWAP3 POP POP POP JUMP JUMPDEST PUSH1 0x0 DUP2 SWAP1 POP SWAP2 SWAP1 POP JUMP JUMPDEST PUSH1 0x0 PUSH3 0x4ABB PUSH3 0x4AB5 PUSH3 0x4AAF DUP5 PUSH3 0x4A90 JUMP JUMPDEST PUSH3 0x3330 JUMP JUMPDEST PUSH3 0x33C2 JUMP JUMPDEST SWAP1 POP SWAP2 SWAP1 POP JUMP JUMPDEST PUSH3 0x4ACD DUP2 PUSH3 0x4A9A JUMP JUMPDEST DUP3 MSTORE POP POP JUMP JUMPDEST PUSH1 0x0 PUSH1 0x40 DUP3 ADD SWAP1 POP PUSH3 0x4AEA PUSH1 0x0 DUP4 ADD DUP6 PUSH3 0x4AC2 JUMP JUMPDEST PUSH3 0x4AF9 PUSH1 0x20 DUP4 ADD DUP5 PUSH3 0x3437 JUMP JUMPDEST SWAP4 SWAP3 POP POP POP JUMP JUMPDEST PUSH1 0x0 DUP2 SWAP1 POP SWAP2 SWAP1 POP JUMP JUMPDEST PUSH1 0x0 PUSH3 0x4B2B PUSH3 0x4B25 PUSH3 0x4B1F DUP5 PUSH3 0x4B00 JUMP JUMPDEST PUSH3 0x3330 JUMP JUMPDEST PUSH3 0x33C2 JUMP JUMPDEST SWAP1 POP SWAP2 SWAP1 POP JUMP JUMPDEST PUSH3 0x4B3D DUP2 PUSH3 0x4B0A JUMP JUMPDEST DUP3 MSTORE POP POP JUMP JUMPDEST PUSH1 0x0 PUSH1 0x40 DUP3 ADD SWAP1 POP PUSH3 0x4B5A PUSH1 0x0 DUP4 ADD DUP6 PUSH3 0x4B32 JUMP JUMPDEST PUSH3 0x4B69 PUSH1 0x20 DUP4 ADD DUP5 PUSH3 0x3437 JUMP JUMPDEST SWAP4 SWAP3 POP POP POP JUMP JUMPDEST PUSH1 0x0 DUP2 SWAP1 POP SWAP2 SWAP1 POP JUMP JUMPDEST PUSH1 0x0 PUSH3 0x4B9B PUSH3 0x4B95 PUSH3 0x4B8F DUP5 PUSH3 0x4B70 JUMP JUMPDEST PUSH3 0x3330 JUMP JUMPDEST PUSH3 0x33C2 JUMP JUMPDEST SWAP1 POP SWAP2 SWAP1 POP JUMP JUMPDEST PUSH3 0x4BAD DUP2 PUSH3 0x4B7A JUMP JUMPDEST DUP3 MSTORE POP POP JUMP JUMPDEST PUSH1 0x0 PUSH1 0x40 DUP3 ADD SWAP1 POP PUSH3 0x4BCA PUSH1 0x0 DUP4 ADD DUP6 PUSH3 0x4BA2 JUMP JUMPDEST PUSH3 0x4BD9 PUSH1 0x20 DUP4 ADD DUP5 PUSH3 0x3437 JUMP JUMPDEST SWAP4 SWAP3 POP POP POP JUMP JUMPDEST PUSH1 0x0 DUP2 SWAP1 POP SWAP2 SWAP1 POP JUMP JUMPDEST PUSH1 0x0 PUSH3 0x4C0B PUSH3 0x4C05 PUSH3 0x4BFF DUP5 PUSH3 0x4BE0 JUMP JUMPDEST PUSH3 0x3330 JUMP JUMPDEST PUSH3 0x33C2 JUMP JUMPDEST SWAP1 POP SWAP2 SWAP1 POP JUMP JUMPDEST PUSH3 0x4C1D DUP2 PUSH3 0x4BEA JUMP JUMPDEST DUP3 MSTORE POP POP JUMP JUMPDEST PUSH1 0x0 PUSH1 0x60 DUP3 ADD SWAP1 POP PUSH3 0x4C3A PUSH1 0x0 DUP4 ADD DUP6 PUSH3 0x4C12 JUMP JUMPDEST PUSH3 0x4C49 PUSH1 0x20 DUP4 ADD DUP5 PUSH3 0x3520 JUMP JUMPDEST DUP2 DUP2 SUB PUSH1 0x40 DUP4 ADD MSTORE PUSH3 0x4C5C DUP2 PUSH3 0x3591 JUMP JUMPDEST SWAP1 POP SWAP4 SWAP3 POP POP POP JUMP JUMPDEST PUSH1 0x0 DUP2 SWAP1 POP SWAP2 SWAP1 POP JUMP JUMPDEST PUSH1 0x0 PUSH3 0x4C90 PUSH3 0x4C8A PUSH3 0x4C84 DUP5 PUSH3 0x4C65 JUMP JUMPDEST PUSH3 0x3330 JUMP JUMPDEST PUSH3 0x33C2 JUMP JUMPDEST SWAP1 POP SWAP2 SWAP1 POP JUMP JUMPDEST PUSH3 0x4CA2 DUP2 PUSH3 0x4C6F JUMP JUMPDEST DUP3 MSTORE POP POP JUMP JUMPDEST PUSH1 0x0 PUSH1 0x40 DUP3 ADD SWAP1 POP PUSH3 0x4CBF PUSH1 0x0 DUP4 ADD DUP6 PUSH3 0x4C97 JUMP JUMPDEST PUSH3 0x4CCE PUSH1 0x20 DUP4 ADD DUP5 PUSH3 0x3437 JUMP JUMPDEST SWAP4 SWAP3 POP POP POP JUMP JUMPDEST PUSH1 0x0 DUP2 SWAP1 POP SWAP2 SWAP1 POP JUMP JUMPDEST PUSH1 0x0 PUSH3 0x4D00 PUSH3 0x4CFA PUSH3 0x4CF4 DUP5 PUSH3 0x4CD5 JUMP JUMPDEST PUSH3 0x3330 JUMP JUMPDEST PUSH3 0x33C2 JUMP JUMPDEST SWAP1 POP SWAP2 SWAP1 POP JUMP JUMPDEST PUSH3 0x4D12 DUP2 PUSH3 0x4CDF JUMP JUMPDEST DUP3 MSTORE POP POP JUMP JUMPDEST PUSH1 0x0 PUSH1 0x40 DUP3 ADD SWAP1 POP PUSH3 0x4D2F PUSH1 0x0 DUP4 ADD DUP6 PUSH3 0x4D07 JUMP JUMPDEST PUSH3 0x4D3E PUSH1 0x20 DUP4 ADD DUP5 PUSH3 0x3437 JUMP JUMPDEST SWAP4 SWAP3 POP POP POP JUMP INVALID PUSH1 0xA0 PUSH1 0x40 MSTORE PUSH1 0x0 PUSH1 0x5 SSTORE PUSH1 0x0 PUSH1 0x6 SSTORE CALLVALUE DUP1 ISZERO PUSH3 0x1B JUMPI PUSH1 0x0 DUP1 REVERT JUMPDEST POP PUSH12 0xA18F07D736B90BE550000000 PUSH1 0x40 MLOAD DUP1 PUSH1 0x40 ADD PUSH1 0x40 MSTORE DUP1 PUSH1 0x7 DUP2 MSTORE PUSH1 0x20 ADD PUSH32 0x58454E446F676500000000000000000000000000000000000000000000000000 DUP2 MSTORE POP PUSH1 0x40 MLOAD DUP1 PUSH1 0x40 ADD PUSH1 0x40 MSTORE DUP1 PUSH1 0x5 DUP2 MSTORE PUSH1 0x20 ADD PUSH32 0x58444F4745000000000000000000000000000000000000000000000000000000 DUP2 MSTORE POP DUP2 PUSH1 0x3 SWAP1 DUP2 PUSH3 0xA6 SWAP2 SWAP1 PUSH3 0x38A JUMP JUMPDEST POP DUP1 PUSH1 0x4 SWAP1 DUP2 PUSH3 0xB8 SWAP2 SWAP1 PUSH3 0x38A JUMP JUMPDEST POP POP POP PUSH1 0x0 DUP2 GT PUSH3 0x101 JUMPI PUSH1 0x40 MLOAD PUSH32 0x8C379A000000000000000000000000000000000000000000000000000000000 DUP2 MSTORE PUSH1 0x4 ADD PUSH3 0xF8 SWAP1 PUSH3 0x4D2 JUMP JUMPDEST PUSH1 0x40 MLOAD DUP1 SWAP2 SUB SWAP1 REVERT JUMPDEST DUP1 PUSH1 0x80 DUP2 DUP2 MSTORE POP POP POP PUSH3 0x4F4 JUMP JUMPDEST PUSH1 0x0 DUP2 MLOAD SWAP1 POP SWAP2 SWAP1 POP JUMP JUMPDEST PUSH32 0x4E487B7100000000000000000000000000000000000000000000000000000000 PUSH1 0x0 MSTORE PUSH1 0x41 PUSH1 0x4 MSTORE PUSH1 0x24 PUSH1 0x0 REVERT JUMPDEST PUSH32 0x4E487B7100000000000000000000000000000000000000000000000000000000 PUSH1 0x0 MSTORE PUSH1 0x22 PUSH1 0x4 MSTORE PUSH1 0x24 PUSH1 0x0 REVERT JUMPDEST PUSH1 0x0 PUSH1 0x2 DUP3 DIV SWAP1 POP PUSH1 0x1 DUP3 AND DUP1 PUSH3 0x192 JUMPI PUSH1 0x7F DUP3 AND SWAP2 POP JUMPDEST PUSH1 0x20 DUP3 LT DUP2 SUB PUSH3 0x1A8 JUMPI PUSH3 0x1A7 PUSH3 0x14A JUMP JUMPDEST JUMPDEST POP SWAP2 SWAP1 POP JUMP JUMPDEST PUSH1 0x0 DUP2 SWAP1 POP DUP2 PUSH1 0x0 MSTORE PUSH1 0x20 PUSH1 0x0 KECCAK256 SWAP1 POP SWAP2 SWAP1 POP JUMP JUMPDEST PUSH1 0x0 PUSH1 0x20 PUSH1 0x1F DUP4 ADD DIV SWAP1 POP SWAP2 SWAP1 POP JUMP JUMPDEST PUSH1 0x0 DUP3 DUP3 SHL SWAP1 POP SWAP3 SWAP2 POP POP JUMP JUMPDEST PUSH1 0x0 PUSH1 0x8 DUP4 MUL PUSH3 0x212 PUSH32 0xFFFFFFFFFFFFFFFFFFFFFFFFFFFFFFFFFFFFFFFFFFFFFFFFFFFFFFFFFFFFFFFF DUP3 PUSH3 0x1D3 JUMP JUMPDEST PUSH3 0x21E DUP7 DUP4 PUSH3 0x1D3 JUMP JUMPDEST SWAP6 POP DUP1 NOT DUP5 AND SWAP4 POP DUP1 DUP7 AND DUP5 OR SWAP3 POP POP POP SWAP4 SWAP3 POP POP POP JUMP JUMPDEST PUSH1 0x0 DUP2 SWAP1 POP SWAP2 SWAP1 POP JUMP JUMPDEST PUSH1 0x0 DUP2 SWAP1 POP SWAP2 SWAP1 POP JUMP JUMPDEST PUSH1 0x0 PUSH3 0x26B PUSH3 0x265 PUSH3 0x25F DUP5 PUSH3 0x236 JUMP JUMPDEST PUSH3 0x240 JUMP JUMPDEST PUSH3 0x236 JUMP JUMPDEST SWAP1 POP SWAP2 SWAP1 POP JUMP JUMPDEST PUSH1 0x0 DUP2 SWAP1 POP SWAP2 SWAP1 POP JUMP JUMPDEST PUSH3 0x287 DUP4 PUSH3 0x24A JUMP JUMPDEST PUSH3 0x29F PUSH3 0x296 DUP3 PUSH3 0x272 JUMP JUMPDEST DUP5 DUP5 SLOAD PUSH3 0x1E0 JUMP JUMPDEST DUP3 SSTORE POP POP POP POP JUMP JUMPDEST PUSH1 0x0 SWAP1 JUMP JUMPDEST PUSH3 0x2B6 PUSH3 0x2A7 JUMP JUMPDEST PUSH3 0x2C3 DUP2 DUP5 DUP5 PUSH3 0x27C JUMP JUMPDEST POP POP POP JUMP JUMPDEST JUMPDEST DUP2 DUP2 LT ISZERO PUSH3 0x2EB JUMPI PUSH3 0x2DF PUSH1 0x0 DUP3 PUSH3 0x2AC JUMP JUMPDEST PUSH1 0x1 DUP2 ADD SWAP1 POP PUSH3 0x2C9 JUMP JUMPDEST POP POP JUMP JUMPDEST PUSH1 0x1F DUP3 GT ISZERO PUSH3 0x33A JUMPI PUSH3 0x304 DUP2 PUSH3 0x1AE JUMP JUMPDEST PUSH3 0x30F DUP5 PUSH3 0x1C3 JUMP JUMPDEST DUP2 ADD PUSH1 0x20 DUP6 LT ISZERO PUSH3 0x31F JUMPI DUP2 SWAP1 POP JUMPDEST PUSH3 0x337 PUSH3 0x32E DUP6 PUSH3 0x1C3 JUMP JUMPDEST DUP4 ADD DUP3 PUSH3 0x2C8 JUMP JUMPDEST POP POP JUMPDEST POP POP POP JUMP JUMPDEST PUSH1 0x0 DUP3 DUP3 SHR SWAP1 POP SWAP3 SWAP2 POP POP JUMP JUMPDEST PUSH1 0x0 PUSH3 0x35F PUSH1 0x0 NOT DUP5 PUSH1 0x8 MUL PUSH3 0x33F JUMP JUMPDEST NOT DUP1 DUP4 AND SWAP2 POP POP SWAP3 SWAP2 POP POP JUMP JUMPDEST PUSH1 0x0 PUSH3 0x37A DUP4 DUP4 PUSH3 0x34C JUMP JUMPDEST SWAP2 POP DUP3 PUSH1 0x2 MUL DUP3 OR SWAP1 POP SWAP3 SWAP2 POP POP JUMP JUMPDEST PUSH3 0x395 DUP3 PUSH3 0x110 JUMP JUMPDEST PUSH8 0xFFFFFFFFFFFFFFFF DUP2 GT ISZERO PUSH3 0x3B1 JUMPI PUSH3 0x3B0 PUSH3 0x11B JUMP JUMPDEST JUMPDEST PUSH3 0x3BD DUP3 SLOAD PUSH3 0x179 JUMP JUMPDEST PUSH3 0x3CA DUP3 DUP3 DUP6 PUSH3 0x2EF JUMP JUMPDEST PUSH1 0x0 PUSH1 0x20 SWAP1 POP PUSH1 0x1F DUP4 GT PUSH1 0x1 DUP2 EQ PUSH3 0x402 JUMPI PUSH1 0x0 DUP5 ISZERO PUSH3 0x3ED JUMPI DUP3 DUP8 ADD MLOAD SWAP1 POP JUMPDEST PUSH3 0x3F9 DUP6 DUP3 PUSH3 0x36C JUMP JUMPDEST DUP7 SSTORE POP PUSH3 0x469 JUMP JUMPDEST PUSH1 0x1F NOT DUP5 AND PUSH3 0x412 DUP7 PUSH3 0x1AE JUMP JUMPDEST PUSH1 0x0 JUMPDEST DUP3 DUP2 LT ISZERO PUSH3 0x43C JUMPI DUP5 DUP10 ADD MLOAD DUP3 SSTORE PUSH1 0x1 DUP3 ADD SWAP2 POP PUSH1 0x20 DUP6 ADD SWAP5 POP PUSH1 0x20 DUP2 ADD SWAP1 POP PUSH3 0x415 JUMP JUMPDEST DUP7 DUP4 LT ISZERO PUSH3 0x45C JUMPI DUP5 DUP10 ADD MLOAD PUSH3 0x458 PUSH1 0x1F DUP10 AND DUP3 PUSH3 0x34C JUMP JUMPDEST DUP4 SSTORE POP JUMPDEST PUSH1 0x1 PUSH1 0x2 DUP9 MUL ADD DUP9 SSTORE POP POP POP JUMPDEST POP POP POP POP POP POP JUMP JUMPDEST PUSH1 0x0 DUP3 DUP3 MSTORE PUSH1 0x20 DUP3 ADD SWAP1 POP SWAP3 SWAP2 POP POP JUMP JUMPDEST PUSH32 0x45524332304361707065643A2063617020697320300000000000000000000000 PUSH1 0x0 DUP3 ADD MSTORE POP JUMP JUMPDEST PUSH1 0x0 PUSH3 0x4BA PUSH1 0x15 DUP4 PUSH3 0x471 JUMP JUMPDEST SWAP2 POP PUSH3 0x4C7 DUP3 PUSH3 0x482 JUMP JUMPDEST PUSH1 0x20 DUP3 ADD SWAP1 POP SWAP2 SWAP1 POP JUMP JUMPDEST PUSH1 0x0 PUSH1 0x20 DUP3 ADD SWAP1 POP DUP2 DUP2 SUB PUSH1 0x0 DUP4 ADD MSTORE PUSH3 0x4ED DUP2 PUSH3 0x4AB JUMP JUMPDEST SWAP1 POP SWAP2 SWAP1 POP JUMP JUMPDEST PUSH1 0x80 MLOAD PUSH2 0x2359 PUSH3 0x510 PUSH1 0x0 CODECOPY PUSH1 0x0 PUSH2 0x706 ADD MSTORE PUSH2 0x2359 PUSH1 0x0 RETURN INVALID PUSH1 0x80 PUSH1 0x40 MSTORE PUSH1 0x4 CALLDATASIZE LT PUSH2 0x129 JUMPI PUSH1 0x0 CALLDATALOAD PUSH1 0xE0 SHR DUP1 PUSH4 0x543746B1 GT PUSH2 0xAB JUMPI DUP1 PUSH4 0xA457C2D7 GT PUSH2 0x6F JUMPI DUP1 PUSH4 0xA457C2D7 EQ PUSH2 0x3FC JUMPI DUP1 PUSH4 0xA9059CBB EQ PUSH2 0x439 JUMPI DUP1 PUSH4 0xB4B7914D EQ PUSH2 0x476 JUMPI DUP1 PUSH4 0xBC1D089A EQ PUSH2 0x4B3 JUMPI DUP1 PUSH4 0xDD62ED3E EQ PUSH2 0x4DE JUMPI DUP1 PUSH4 0xF8E726D1 EQ PUSH2 0x51B JUMPI PUSH2 0x129 JUMP JUMPDEST DUP1 PUSH4 0x543746B1 EQ PUSH2 0x324 JUMPI DUP1 PUSH4 0x579436FC EQ PUSH2 0x34D JUMPI DUP1 PUSH4 0x6630A05E EQ PUSH2 0x378 JUMPI DUP1 PUSH4 0x70A08231 EQ PUSH2 0x394 JUMPI DUP1 PUSH4 0x95D89B41 EQ PUSH2 0x3D1 JUMPI PUSH2 0x129 JUMP JUMPDEST DUP1 PUSH4 0x1A6CEF14 GT PUSH2 0xF2 JUMPI DUP1 PUSH4 0x1A6CEF14 EQ PUSH2 0x229 JUMPI DUP1 PUSH4 0x23B872DD EQ PUSH2 0x254 JUMPI DUP1 PUSH4 0x313CE567 EQ PUSH2 0x291 JUMPI DUP1 PUSH4 0x355274EA EQ PUSH2 0x2BC JUMPI DUP1 PUSH4 0x39509351 EQ PUSH2 0x2E7 JUMPI PUSH2 0x129 JUMP JUMPDEST DUP1 PUSH3 0xB37044 EQ PUSH2 0x12E JUMPI DUP1 PUSH4 0x1FFC9A7 EQ PUSH2 0x159 JUMPI DUP1 PUSH4 0x6FDDE03 EQ PUSH2 0x196 JUMPI DUP1 PUSH4 0x95EA7B3 EQ PUSH2 0x1C1 JUMPI DUP1 PUSH4 0x18160DDD EQ PUSH2 0x1FE JUMPI JUMPDEST PUSH1 0x0 DUP1 REVERT JUMPDEST CALLVALUE DUP1 ISZERO PUSH2 0x13A JUMPI PUSH1 0x0 DUP1 REVERT JUMPDEST POP PUSH2 0x143 PUSH2 0x546 JUMP JUMPDEST PUSH1 0x40 MLOAD PUSH2 0x150 SWAP2 SWAP1 PUSH2 0x16C9 JUMP JUMPDEST PUSH1 0x40 MLOAD DUP1 SWAP2 SUB SWAP1 RETURN JUMPDEST CALLVALUE DUP1 ISZERO PUSH2 0x165 JUMPI PUSH1 0x0 DUP1 REVERT JUMPDEST POP PUSH2 0x180 PUSH1 0x4 DUP1 CALLDATASIZE SUB DUP2 ADD SWAP1 PUSH2 0x17B SWAP2 SWAP1 PUSH2 0x1741 JUMP JUMPDEST PUSH2 0x54C JUMP JUMPDEST PUSH1 0x40 MLOAD PUSH2 0x18D SWAP2 SWAP1 PUSH2 0x1789 JUMP JUMPDEST PUSH1 0x40 MLOAD DUP1 SWAP2 SUB SWAP1 RETURN JUMPDEST CALLVALUE DUP1 ISZERO PUSH2 0x1A2 JUMPI PUSH1 0x0 DUP1 REVERT JUMPDEST POP PUSH2 0x1AB PUSH2 0x605 JUMP JUMPDEST PUSH1 0x40 MLOAD PUSH2 0x1B8 SWAP2 SWAP1 PUSH2 0x1834 JUMP JUMPDEST PUSH1 0x40 MLOAD DUP1 SWAP2 SUB SWAP1 RETURN JUMPDEST CALLVALUE DUP1 ISZERO PUSH2 0x1CD JUMPI PUSH1 0x0 DUP1 REVERT JUMPDEST POP PUSH2 0x1E8 PUSH1 0x4 DUP1 CALLDATASIZE SUB DUP2 ADD SWAP1 PUSH2 0x1E3 SWAP2 SWAP1 PUSH2 0x18E0 JUMP JUMPDEST PUSH2 0x697 JUMP JUMPDEST PUSH1 0x40 MLOAD PUSH2 0x1F5 SWAP2 SWAP1 PUSH2 0x1789 JUMP JUMPDEST PUSH1 0x40 MLOAD DUP1 SWAP2 SUB SWAP1 RETURN JUMPDEST CALLVALUE DUP1 ISZERO PUSH2 0x20A JUMPI PUSH1 0x0 DUP1 REVERT JUMPDEST POP PUSH2 0x213 PUSH2 0x6BA JUMP JUMPDEST PUSH1 0x40 MLOAD PUSH2 0x220 SWAP2 SWAP1 PUSH2 0x16C9 JUMP JUMPDEST PUSH1 0x40 MLOAD DUP1 SWAP2 SUB SWAP1 RETURN JUMPDEST CALLVALUE DUP1 ISZERO PUSH2 0x235 JUMPI PUSH1 0x0 DUP1 REVERT JUMPDEST POP PUSH2 0x23E PUSH2 0x6C4 JUMP JUMPDEST PUSH1 0x40 MLOAD PUSH2 0x24B SWAP2 SWAP1 PUSH2 0x16C9 JUMP JUMPDEST PUSH1 0x40 MLOAD DUP1 SWAP2 SUB SWAP1 RETURN JUMPDEST CALLVALUE DUP1 ISZERO PUSH2 0x260 JUMPI PUSH1 0x0 DUP1 REVERT JUMPDEST POP PUSH2 0x27B PUSH1 0x4 DUP1 CALLDATASIZE SUB DUP2 ADD SWAP1 PUSH2 0x276 SWAP2 SWAP1 PUSH2 0x1920 JUMP JUMPDEST PUSH2 0x6CA JUMP JUMPDEST PUSH1 0x40 MLOAD PUSH2 0x288 SWAP2 SWAP1 PUSH2 0x1789 JUMP JUMPDEST PUSH1 0x40 MLOAD DUP1 SWAP2 SUB SWAP1 RETURN JUMPDEST CALLVALUE DUP1 ISZERO PUSH2 0x29D JUMPI PUSH1 0x0 DUP1 REVERT JUMPDEST POP PUSH2 0x2A6 PUSH2 0x6F9 JUMP JUMPDEST PUSH1 0x40 MLOAD PUSH2 0x2B3 SWAP2 SWAP1 PUSH2 0x198F JUMP JUMPDEST PUSH1 0x40 MLOAD DUP1 SWAP2 SUB SWAP1 RETURN JUMPDEST CALLVALUE DUP1 ISZERO PUSH2 0x2C8 JUMPI PUSH1 0x0 DUP1 REVERT JUMPDEST POP PUSH2 0x2D1 PUSH2 0x702 JUMP JUMPDEST PUSH1 0x40 MLOAD PUSH2 0x2DE SWAP2 SWAP1 PUSH2 0x16C9 JUMP JUMPDEST PUSH1 0x40 MLOAD DUP1 SWAP2 SUB SWAP1 RETURN JUMPDEST CALLVALUE DUP1 ISZERO PUSH2 0x2F3 JUMPI PUSH1 0x0 DUP1 REVERT JUMPDEST POP PUSH2 0x30E PUSH1 0x4 DUP1 CALLDATASIZE SUB DUP2 ADD SWAP1 PUSH2 0x309 SWAP2 SWAP1 PUSH2 0x18E0 JUMP JUMPDEST PUSH2 0x72A JUMP JUMPDEST PUSH1 0x40 MLOAD PUSH2 0x31B SWAP2 SWAP1 PUSH2 0x1789 JUMP JUMPDEST PUSH1 0x40 MLOAD DUP1 SWAP2 SUB SWAP1 RETURN JUMPDEST CALLVALUE DUP1 ISZERO PUSH2 0x330 JUMPI PUSH1 0x0 DUP1 REVERT JUMPDEST POP PUSH2 0x34B PUSH1 0x4 DUP1 CALLDATASIZE SUB DUP2 ADD SWAP1 PUSH2 0x346 SWAP2 SWAP1 PUSH2 0x18E0 JUMP JUMPDEST PUSH2 0x761 JUMP JUMPDEST STOP JUMPDEST CALLVALUE DUP1 ISZERO PUSH2 0x359 JUMPI PUSH1 0x0 DUP1 REVERT JUMPDEST POP PUSH2 0x362 PUSH2 0x9D5 JUMP JUMPDEST PUSH1 0x40 MLOAD PUSH2 0x36F SWAP2 SWAP1 PUSH2 0x16C9 JUMP JUMPDEST PUSH1 0x40 MLOAD DUP1 SWAP2 SUB SWAP1 RETURN JUMPDEST PUSH2 0x392 PUSH1 0x4 DUP1 CALLDATASIZE SUB DUP2 ADD SWAP1 PUSH2 0x38D SWAP2 SWAP1 PUSH2 0x19AA JUMP JUMPDEST PUSH2 0x9DB JUMP JUMPDEST STOP JUMPDEST CALLVALUE DUP1 ISZERO PUSH2 0x3A0 JUMPI PUSH1 0x0 DUP1 REVERT JUMPDEST POP PUSH2 0x3BB PUSH1 0x4 DUP1 CALLDATASIZE SUB DUP2 ADD SWAP1 PUSH2 0x3B6 SWAP2 SWAP1 PUSH2 0x19D7 JUMP JUMPDEST PUSH2 0xADA JUMP JUMPDEST PUSH1 0x40 MLOAD PUSH2 0x3C8 SWAP2 SWAP1 PUSH2 0x16C9 JUMP JUMPDEST PUSH1 0x40 MLOAD DUP1 SWAP2 SUB SWAP1 RETURN JUMPDEST CALLVALUE DUP1 ISZERO PUSH2 0x3DD JUMPI PUSH1 0x0 DUP1 REVERT JUMPDEST POP PUSH2 0x3E6 PUSH2 0xB22 JUMP JUMPDEST PUSH1 0x40 MLOAD PUSH2 0x3F3 SWAP2 SWAP1 PUSH2 0x1834 JUMP JUMPDEST PUSH1 0x40 MLOAD DUP1 SWAP2 SUB SWAP1 RETURN JUMPDEST CALLVALUE DUP1 ISZERO PUSH2 0x408 JUMPI PUSH1 0x0 DUP1 REVERT JUMPDEST POP PUSH2 0x423 PUSH1 0x4 DUP1 CALLDATASIZE SUB DUP2 ADD SWAP1 PUSH2 0x41E SWAP2 SWAP1 PUSH2 0x18E0 JUMP JUMPDEST PUSH2 0xBB4 JUMP JUMPDEST PUSH1 0x40 MLOAD PUSH2 0x430 SWAP2 SWAP1 PUSH2 0x1789 JUMP JUMPDEST PUSH1 0x40 MLOAD DUP1 SWAP2 SUB SWAP1 RETURN JUMPDEST CALLVALUE DUP1 ISZERO PUSH2 0x445 JUMPI PUSH1 0x0 DUP1 REVERT JUMPDEST POP PUSH2 0x460 PUSH1 0x4 DUP1 CALLDATASIZE SUB DUP2 ADD SWAP1 PUSH2 0x45B SWAP2 SWAP1 PUSH2 0x18E0 JUMP JUMPDEST PUSH2 0xC2B JUMP JUMPDEST PUSH1 0x40 MLOAD PUSH2 0x46D SWAP2 SWAP1 PUSH2 0x1789 JUMP JUMPDEST PUSH1 0x40 MLOAD DUP1 SWAP2 SUB SWAP1 RETURN JUMPDEST CALLVALUE DUP1 ISZERO PUSH2 0x482 JUMPI PUSH1 0x0 DUP1 REVERT JUMPDEST POP PUSH2 0x49D PUSH1 0x4 DUP1 CALLDATASIZE SUB DUP2 ADD SWAP1 PUSH2 0x498 SWAP2 SWAP1 PUSH2 0x1A04 JUMP JUMPDEST PUSH2 0xC4E JUMP JUMPDEST PUSH1 0x40 MLOAD PUSH2 0x4AA SWAP2 SWAP1 PUSH2 0x16C9 JUMP JUMPDEST PUSH1 0x40 MLOAD DUP1 SWAP2 SUB SWAP1 RETURN JUMPDEST CALLVALUE DUP1 ISZERO PUSH2 0x4BF JUMPI PUSH1 0x0 DUP1 REVERT JUMPDEST POP PUSH2 0x4C8 PUSH2 0xC62 JUMP JUMPDEST PUSH1 0x40 MLOAD PUSH2 0x4D5 SWAP2 SWAP1 PUSH2 0x1A53 JUMP JUMPDEST PUSH1 0x40 MLOAD DUP1 SWAP2 SUB SWAP1 RETURN JUMPDEST CALLVALUE DUP1 ISZERO PUSH2 0x4EA JUMPI PUSH1 0x0 DUP1 REVERT JUMPDEST POP PUSH2 0x505 PUSH1 0x4 DUP1 CALLDATASIZE SUB DUP2 ADD SWAP1 PUSH2 0x500 SWAP2 SWAP1 PUSH2 0x1A6E JUMP JUMPDEST PUSH2 0xC7A JUMP JUMPDEST PUSH1 0x40 MLOAD PUSH2 0x512 SWAP2 SWAP1 PUSH2 0x16C9 JUMP JUMPDEST PUSH1 0x40 MLOAD DUP1 SWAP2 SUB SWAP1 RETURN JUMPDEST CALLVALUE DUP1 ISZERO PUSH2 0x527 JUMPI PUSH1 0x0 DUP1 REVERT JUMPDEST POP PUSH2 0x530 PUSH2 0xD01 JUMP JUMPDEST PUSH1 0x40 MLOAD PUSH2 0x53D SWAP2 SWAP1 PUSH2 0x1ACF JUMP JUMPDEST PUSH1 0x40 MLOAD DUP1 SWAP2 SUB SWAP1 RETURN JUMPDEST PUSH1 0x6 SLOAD DUP2 JUMP JUMPDEST PUSH1 0x0 PUSH32 0x543746B100000000000000000000000000000000000000000000000000000000 PUSH28 0xFFFFFFFFFFFFFFFFFFFFFFFFFFFFFFFFFFFFFFFFFFFFFFFFFFFFFFFF NOT AND DUP3 PUSH28 0xFFFFFFFFFFFFFFFFFFFFFFFFFFFFFFFFFFFFFFFFFFFFFFFFFFFFFFFF NOT AND EQ DUP1 PUSH2 0x5FE JUMPI POP PUSH4 0x1FFC9A7 PUSH1 0xE0 SHL PUSH28 0xFFFFFFFFFFFFFFFFFFFFFFFFFFFFFFFFFFFFFFFFFFFFFFFFFFFFFFFF NOT AND DUP3 PUSH28 0xFFFFFFFFFFFFFFFFFFFFFFFFFFFFFFFFFFFFFFFFFFFFFFFFFFFFFFFF NOT AND EQ JUMPDEST SWAP1 POP SWAP2 SWAP1 POP JUMP JUMPDEST PUSH1 0x60 PUSH1 0x3 DUP1 SLOAD PUSH2 0x614 SWAP1 PUSH2 0x1B19 JUMP JUMPDEST DUP1 PUSH1 0x1F ADD PUSH1 0x20 DUP1 SWAP2 DIV MUL PUSH1 0x20 ADD PUSH1 0x40 MLOAD SWAP1 DUP2 ADD PUSH1 0x40 MSTORE DUP1 SWAP3 SWAP2 SWAP1 DUP2 DUP2 MSTORE PUSH1 0x20 ADD DUP3 DUP1 SLOAD PUSH2 0x640 SWAP1 PUSH2 0x1B19 JUMP JUMPDEST DUP1 ISZERO PUSH2 0x68D JUMPI DUP1 PUSH1 0x1F LT PUSH2 0x662 JUMPI PUSH2 0x100 DUP1 DUP4 SLOAD DIV MUL DUP4 MSTORE SWAP2 PUSH1 0x20 ADD SWAP2 PUSH2 0x68D JUMP JUMPDEST DUP3 ADD SWAP2 SWAP1 PUSH1 0x0 MSTORE PUSH1 0x20 PUSH1 0x0 KECCAK256 SWAP1 JUMPDEST DUP2 SLOAD DUP2 MSTORE SWAP1 PUSH1 0x1 ADD SWAP1 PUSH1 0x20 ADD DUP1 DUP4 GT PUSH2 0x670 JUMPI DUP3 SWAP1 SUB PUSH1 0x1F AND DUP3 ADD SWAP2 JUMPDEST POP POP POP POP POP SWAP1 POP SWAP1 JUMP JUMPDEST PUSH1 0x0 DUP1 PUSH2 0x6A2 PUSH2 0xD19 JUMP JUMPDEST SWAP1 POP PUSH2 0x6AF DUP2 DUP6 DUP6 PUSH2 0xD21 JUMP JUMPDEST PUSH1 0x1 SWAP2 POP POP SWAP3 SWAP2 POP POP JUMP JUMPDEST PUSH1 0x0 PUSH1 0x2 SLOAD SWAP1 POP SWAP1 JUMP JUMPDEST PUSH2 0x3E8 DUP2 JUMP JUMPDEST PUSH1 0x0 DUP1 PUSH2 0x6D5 PUSH2 0xD19 JUMP JUMPDEST SWAP1 POP PUSH2 0x6E2 DUP6 DUP3 DUP6 PUSH2 0xEEA JUMP JUMPDEST PUSH2 0x6ED DUP6 DUP6 DUP6 PUSH2 0xF76 JUMP JUMPDEST PUSH1 0x1 SWAP2 POP POP SWAP4 SWAP3 POP POP POP JUMP JUMPDEST PUSH1 0x0 PUSH1 0x12 SWAP1 POP SWAP1 JUMP JUMPDEST PUSH1 0x0 PUSH32 0x0 SWAP1 POP SWAP1 JUMP JUMPDEST PUSH1 0x0 DUP1 PUSH2 0x735 PUSH2 0xD19 JUMP JUMPDEST SWAP1 POP PUSH2 0x756 DUP2 DUP6 DUP6 PUSH2 0x747 DUP6 DUP10 PUSH2 0xC7A JUMP JUMPDEST PUSH2 0x751 SWAP2 SWAP1 PUSH2 0x1B79 JUMP JUMPDEST PUSH2 0xD21 JUMP JUMPDEST PUSH1 0x1 SWAP2 POP POP SWAP3 SWAP2 POP POP JUMP JUMPDEST PUSH20 0xD342D63466B520D8D331CAFF863900D402AA5B00 PUSH20 0xFFFFFFFFFFFFFFFFFFFFFFFFFFFFFFFFFFFFFFFF AND PUSH2 0x794 PUSH2 0xD19 JUMP JUMPDEST PUSH20 0xFFFFFFFFFFFFFFFFFFFFFFFFFFFFFFFFFFFFFFFF AND EQ PUSH2 0x7EA JUMPI PUSH1 0x40 MLOAD PUSH32 0x8C379A000000000000000000000000000000000000000000000000000000000 DUP2 MSTORE PUSH1 0x4 ADD PUSH2 0x7E1 SWAP1 PUSH2 0x1C1F JUMP JUMPDEST PUSH1 0x40 MLOAD DUP1 SWAP2 SUB SWAP1 REVERT JUMPDEST PUSH1 0x0 PUSH20 0xFFFFFFFFFFFFFFFFFFFFFFFFFFFFFFFFFFFFFFFF AND DUP3 PUSH20 0xFFFFFFFFFFFFFFFFFFFFFFFFFFFFFFFFFFFFFFFF AND SUB PUSH2 0x859 JUMPI PUSH1 0x40 MLOAD PUSH32 0x8C379A000000000000000000000000000000000000000000000000000000000 DUP2 MSTORE PUSH1 0x4 ADD PUSH2 0x850 SWAP1 PUSH2 0x1CB1 JUMP JUMPDEST PUSH1 0x40 MLOAD DUP1 SWAP2 SUB SWAP1 REVERT JUMPDEST PUSH3 0x186A0 DUP2 LT ISZERO PUSH2 0x89F JUMPI PUSH1 0x40 MLOAD PUSH32 0x8C379A000000000000000000000000000000000000000000000000000000000 DUP2 MSTORE PUSH1 0x4 ADD PUSH2 0x896 SWAP1 PUSH2 0x1D1D JUMP JUMPDEST PUSH1 0x40 MLOAD DUP1 SWAP2 SUB SWAP1 REVERT JUMPDEST DUP1 PUSH1 0x5 PUSH1 0x0 DUP3 DUP3 SLOAD PUSH2 0x8B1 SWAP2 SWAP1 PUSH2 0x1B79 JUMP JUMPDEST SWAP3 POP POP DUP2 SWAP1 SSTORE POP PUSH1 0x0 PUSH2 0x932 ADDRESS PUSH20 0xFFFFFFFFFFFFFFFFFFFFFFFFFFFFFFFFFFFFFFFF AND PUSH4 0x18160DDD PUSH1 0x40 MLOAD DUP2 PUSH4 0xFFFFFFFF AND PUSH1 0xE0 SHL DUP2 MSTORE PUSH1 0x4 ADD PUSH1 0x20 PUSH1 0x40 MLOAD DUP1 DUP4 SUB DUP2 DUP7 GAS STATICCALL ISZERO DUP1 ISZERO PUSH2 0x908 JUMPI RETURNDATASIZE PUSH1 0x0 DUP1 RETURNDATACOPY RETURNDATASIZE PUSH1 0x0 REVERT JUMPDEST POP POP POP POP PUSH1 0x40 MLOAD RETURNDATASIZE PUSH1 0x1F NOT PUSH1 0x1F DUP3 ADD AND DUP3 ADD DUP1 PUSH1 0x40 MSTORE POP DUP2 ADD SWAP1 PUSH2 0x92C SWAP2 SWAP1 PUSH2 0x1D52 JUMP JUMPDEST DUP4 PUSH2 0x11EC JUMP JUMPDEST SWAP1 POP PUSH2 0x93E DUP4 DUP3 PUSH2 0x1231 JUMP JUMPDEST ADDRESS PUSH20 0xFFFFFFFFFFFFFFFFFFFFFFFFFFFFFFFFFFFFFFFF AND PUSH20 0xD342D63466B520D8D331CAFF863900D402AA5B00 PUSH20 0xFFFFFFFFFFFFFFFFFFFFFFFFFFFFFFFFFFFFFFFF AND DUP5 PUSH20 0xFFFFFFFFFFFFFFFFFFFFFFFFFFFFFFFFFFFFFFFF AND PUSH32 0xDA4C370E4F539B8E19D66144CAD73D70FBF440A544E56FF38E28E38ED47801A8 DUP6 DUP6 PUSH1 0x40 MLOAD PUSH2 0x9C8 SWAP3 SWAP2 SWAP1 PUSH2 0x1D7F JUMP JUMPDEST PUSH1 0x40 MLOAD DUP1 SWAP2 SUB SWAP1 LOG4 POP POP POP JUMP JUMPDEST PUSH1 0x5 SLOAD DUP2 JUMP JUMPDEST CALLVALUE PUSH1 0x6 PUSH1 0x0 DUP3 DUP3 SLOAD PUSH2 0x9ED SWAP2 SWAP1 PUSH2 0x1B79 JUMP JUMPDEST SWAP3 POP POP DUP2 SWAP1 SSTORE POP PUSH20 0xC475B02C2E2D6D2DD20C1D8C6FB9CF9A4D23165E PUSH20 0xFFFFFFFFFFFFFFFFFFFFFFFFFFFFFFFFFFFFFFFF AND PUSH2 0x8FC CALLVALUE SWAP1 DUP2 ISZERO MUL SWAP1 PUSH1 0x40 MLOAD PUSH1 0x0 PUSH1 0x40 MLOAD DUP1 DUP4 SUB DUP2 DUP6 DUP9 DUP9 CALL SWAP4 POP POP POP POP ISZERO DUP1 ISZERO PUSH2 0xA4E JUMPI RETURNDATASIZE PUSH1 0x0 DUP1 RETURNDATACOPY RETURNDATASIZE PUSH1 0x0 REVERT JUMPDEST POP PUSH20 0xD342D63466B520D8D331CAFF863900D402AA5B00 PUSH20 0xFFFFFFFFFFFFFFFFFFFFFFFFFFFFFFFFFFFFFFFF AND PUSH4 0x9DC29FAC PUSH2 0xA87 PUSH2 0xD19 JUMP JUMPDEST DUP4 PUSH1 0x40 MLOAD DUP4 PUSH4 0xFFFFFFFF AND PUSH1 0xE0 SHL DUP2 MSTORE PUSH1 0x4 ADD PUSH2 0xAA5 SWAP3 SWAP2 SWAP1 PUSH2 0x1DA8 JUMP JUMPDEST PUSH1 0x0 PUSH1 0x40 MLOAD DUP1 DUP4 SUB DUP2 PUSH1 0x0 DUP8 DUP1 EXTCODESIZE ISZERO DUP1 ISZERO PUSH2 0xABF JUMPI PUSH1 0x0 DUP1 REVERT JUMPDEST POP GAS CALL ISZERO DUP1 ISZERO PUSH2 0xAD3 JUMPI RETURNDATASIZE PUSH1 0x0 DUP1 RETURNDATACOPY RETURNDATASIZE PUSH1 0x0 REVERT JUMPDEST POP POP POP POP POP JUMP JUMPDEST PUSH1 0x0 DUP1 PUSH1 0x0 DUP4 PUSH20 0xFFFFFFFFFFFFFFFFFFFFFFFFFFFFFFFFFFFFFFFF AND PUSH20 0xFFFFFFFFFFFFFFFFFFFFFFFFFFFFFFFFFFFFFFFF AND DUP2 MSTORE PUSH1 0x20 ADD SWAP1 DUP2 MSTORE PUSH1 0x20 ADD PUSH1 0x0 KECCAK256 SLOAD SWAP1 POP SWAP2 SWAP1 POP JUMP JUMPDEST PUSH1 0x60 PUSH1 0x4 DUP1 SLOAD PUSH2 0xB31 SWAP1 PUSH2 0x1B19 JUMP JUMPDEST DUP1 PUSH1 0x1F ADD PUSH1 0x20 DUP1 SWAP2 DIV MUL PUSH1 0x20 ADD PUSH1 0x40 MLOAD SWAP1 DUP2 ADD PUSH1 0x40 MSTORE DUP1 SWAP3 SWAP2 SWAP1 DUP2 DUP2 MSTORE PUSH1 0x20 ADD DUP3 DUP1 SLOAD PUSH2 0xB5D SWAP1 PUSH2 0x1B19 JUMP JUMPDEST DUP1 ISZERO PUSH2 0xBAA JUMPI DUP1 PUSH1 0x1F LT PUSH2 0xB7F JUMPI PUSH2 0x100 DUP1 DUP4 SLOAD DIV MUL DUP4 MSTORE SWAP2 PUSH1 0x20 ADD SWAP2 PUSH2 0xBAA JUMP JUMPDEST DUP3 ADD SWAP2 SWAP1 PUSH1 0x0 MSTORE PUSH1 0x20 PUSH1 0x0 KECCAK256 SWAP1 JUMPDEST DUP2 SLOAD DUP2 MSTORE SWAP1 PUSH1 0x1 ADD SWAP1 PUSH1 0x20 ADD DUP1 DUP4 GT PUSH2 0xB8D JUMPI DUP3 SWAP1 SUB PUSH1 0x1F AND DUP3 ADD SWAP2 JUMPDEST POP POP POP POP POP SWAP1 POP SWAP1 JUMP JUMPDEST PUSH1 0x0 DUP1 PUSH2 0xBBF PUSH2 0xD19 JUMP JUMPDEST SWAP1 POP PUSH1 0x0 PUSH2 0xBCD DUP3 DUP7 PUSH2 0xC7A JUMP JUMPDEST SWAP1 POP DUP4 DUP2 LT ISZERO PUSH2 0xC12 JUMPI PUSH1 0x40 MLOAD PUSH32 0x8C379A000000000000000000000000000000000000000000000000000000000 DUP2 MSTORE PUSH1 0x4 ADD PUSH2 0xC09 SWAP1 PUSH2 0x1E43 JUMP JUMPDEST PUSH1 0x40 MLOAD DUP1 SWAP2 SUB SWAP1 REVERT JUMPDEST PUSH2 0xC1F DUP3 DUP7 DUP7 DUP5 SUB PUSH2 0xD21 JUMP JUMPDEST PUSH1 0x1 SWAP3 POP POP POP SWAP3 SWAP2 POP POP JUMP JUMPDEST PUSH1 0x0 DUP1 PUSH2 0xC36 PUSH2 0xD19 JUMP JUMPDEST SWAP1 POP PUSH2 0xC43 DUP2 DUP6 DUP6 PUSH2 0xF76 JUMP JUMPDEST PUSH1 0x1 SWAP2 POP POP SWAP3 SWAP2 POP POP JUMP JUMPDEST PUSH1 0x0 PUSH2 0xC5A DUP4 DUP4 PUSH2 0x11EC JUMP JUMPDEST SWAP1 POP SWAP3 SWAP2 POP POP JUMP JUMPDEST PUSH20 0xD342D63466B520D8D331CAFF863900D402AA5B00 DUP2 JUMP JUMPDEST PUSH1 0x0 PUSH1 0x1 PUSH1 0x0 DUP5 PUSH20 0xFFFFFFFFFFFFFFFFFFFFFFFFFFFFFFFFFFFFFFFF AND PUSH20 0xFFFFFFFFFFFFFFFFFFFFFFFFFFFFFFFFFFFFFFFF AND DUP2 MSTORE PUSH1 0x20 ADD SWAP1 DUP2 MSTORE PUSH1 0x20 ADD PUSH1 0x0 KECCAK256 PUSH1 0x0 DUP4 PUSH20 0xFFFFFFFFFFFFFFFFFFFFFFFFFFFFFFFFFFFFFFFF AND PUSH20 0xFFFFFFFFFFFFFFFFFFFFFFFFFFFFFFFFFFFFFFFF AND DUP2 MSTORE PUSH1 0x20 ADD SWAP1 DUP2 MSTORE PUSH1 0x20 ADD PUSH1 0x0 KECCAK256 SLOAD SWAP1 POP SWAP3 SWAP2 POP POP JUMP JUMPDEST PUSH20 0xC475B02C2E2D6D2DD20C1D8C6FB9CF9A4D23165E DUP2 JUMP JUMPDEST PUSH1 0x0 CALLER SWAP1 POP SWAP1 JUMP JUMPDEST PUSH1 0x0 PUSH20 0xFFFFFFFFFFFFFFFFFFFFFFFFFFFFFFFFFFFFFFFF AND DUP4 PUSH20 0xFFFFFFFFFFFFFFFFFFFFFFFFFFFFFFFFFFFFFFFF AND SUB PUSH2 0xD90 JUMPI PUSH1 0x40 MLOAD PUSH32 0x8C379A000000000000000000000000000000000000000000000000000000000 DUP2 MSTORE PUSH1 0x4 ADD PUSH2 0xD87 SWAP1 PUSH2 0x1ED5 JUMP JUMPDEST PUSH1 0x40 MLOAD DUP1 SWAP2 SUB SWAP1 REVERT JUMPDEST PUSH1 0x0 PUSH20 0xFFFFFFFFFFFFFFFFFFFFFFFFFFFFFFFFFFFFFFFF AND DUP3 PUSH20 0xFFFFFFFFFFFFFFFFFFFFFFFFFFFFFFFFFFFFFFFF AND SUB PUSH2 0xDFF JUMPI PUSH1 0x40 MLOAD PUSH32 0x8C379A000000000000000000000000000000000000000000000000000000000 DUP2 MSTORE PUSH1 0x4 ADD PUSH2 0xDF6 SWAP1 PUSH2 0x1F67 JUMP JUMPDEST PUSH1 0x40 MLOAD DUP1 SWAP2 SUB SWAP1 REVERT JUMPDEST DUP1 PUSH1 0x1 PUSH1 0x0 DUP6 PUSH20 0xFFFFFFFFFFFFFFFFFFFFFFFFFFFFFFFFFFFFFFFF AND PUSH20 0xFFFFFFFFFFFFFFFFFFFFFFFFFFFFFFFFFFFFFFFF AND DUP2 MSTORE PUSH1 0x20 ADD SWAP1 DUP2 MSTORE PUSH1 0x20 ADD PUSH1 0x0 KECCAK256 PUSH1 0x0 DUP5 PUSH20 0xFFFFFFFFFFFFFFFFFFFFFFFFFFFFFFFFFFFFFFFF AND PUSH20 0xFFFFFFFFFFFFFFFFFFFFFFFFFFFFFFFFFFFFFFFF AND DUP2 MSTORE PUSH1 0x20 ADD SWAP1 DUP2 MSTORE PUSH1 0x20 ADD PUSH1 0x0 KECCAK256 DUP2 SWAP1 SSTORE POP DUP2 PUSH20 0xFFFFFFFFFFFFFFFFFFFFFFFFFFFFFFFFFFFFFFFF AND DUP4 PUSH20 0xFFFFFFFFFFFFFFFFFFFFFFFFFFFFFFFFFFFFFFFF AND PUSH32 0x8C5BE1E5EBEC7D5BD14F71427D1E84F3DD0314C0F7B2291E5B200AC8C7C3B925 DUP4 PUSH1 0x40 MLOAD PUSH2 0xEDD SWAP2 SWAP1 PUSH2 0x16C9 JUMP JUMPDEST PUSH1 0x40 MLOAD DUP1 SWAP2 SUB SWAP1 LOG3 POP POP POP JUMP JUMPDEST PUSH1 0x0 PUSH2 0xEF6 DUP5 DUP5 PUSH2 0xC7A JUMP JUMPDEST SWAP1 POP PUSH32 0xFFFFFFFFFFFFFFFFFFFFFFFFFFFFFFFFFFFFFFFFFFFFFFFFFFFFFFFFFFFFFFFF DUP2 EQ PUSH2 0xF70 JUMPI DUP2 DUP2 LT ISZERO PUSH2 0xF62 JUMPI PUSH1 0x40 MLOAD PUSH32 0x8C379A000000000000000000000000000000000000000000000000000000000 DUP2 MSTORE PUSH1 0x4 ADD PUSH2 0xF59 SWAP1 PUSH2 0x1FD3 JUMP JUMPDEST PUSH1 0x40 MLOAD DUP1 SWAP2 SUB SWAP1 REVERT JUMPDEST PUSH2 0xF6F DUP5 DUP5 DUP5 DUP5 SUB PUSH2 0xD21 JUMP JUMPDEST JUMPDEST POP POP POP POP JUMP JUMPDEST PUSH1 0x0 PUSH20 0xFFFFFFFFFFFFFFFFFFFFFFFFFFFFFFFFFFFFFFFF AND DUP4 PUSH20 0xFFFFFFFFFFFFFFFFFFFFFFFFFFFFFFFFFFFFFFFF AND SUB PUSH2 0xFE5 JUMPI PUSH1 0x40 MLOAD PUSH32 0x8C379A000000000000000000000000000000000000000000000000000000000 DUP2 MSTORE PUSH1 0x4 ADD PUSH2 0xFDC SWAP1 PUSH2 0x2065 JUMP JUMPDEST PUSH1 0x40 MLOAD DUP1 SWAP2 SUB SWAP1 REVERT JUMPDEST PUSH1 0x0 PUSH20 0xFFFFFFFFFFFFFFFFFFFFFFFFFFFFFFFFFFFFFFFF AND DUP3 PUSH20 0xFFFFFFFFFFFFFFFFFFFFFFFFFFFFFFFFFFFFFFFF AND SUB PUSH2 0x1054 JUMPI PUSH1 0x40 MLOAD PUSH32 0x8C379A000000000000000000000000000000000000000000000000000000000 DUP2 MSTORE PUSH1 0x4 ADD PUSH2 0x104B SWAP1 PUSH2 0x20F7 JUMP JUMPDEST PUSH1 0x40 MLOAD DUP1 SWAP2 SUB SWAP1 REVERT JUMPDEST PUSH2 0x105F DUP4 DUP4 DUP4 PUSH2 0x129B JUMP JUMPDEST PUSH1 0x0 DUP1 PUSH1 0x0 DUP6 PUSH20 0xFFFFFFFFFFFFFFFFFFFFFFFFFFFFFFFFFFFFFFFF AND PUSH20 0xFFFFFFFFFFFFFFFFFFFFFFFFFFFFFFFFFFFFFFFF AND DUP2 MSTORE PUSH1 0x20 ADD SWAP1 DUP2 MSTORE PUSH1 0x20 ADD PUSH1 0x0 KECCAK256 SLOAD SWAP1 POP DUP2 DUP2 LT ISZERO PUSH2 0x10E5 JUMPI PUSH1 0x40 MLOAD PUSH32 0x8C379A000000000000000000000000000000000000000000000000000000000 DUP2 MSTORE PUSH1 0x4 ADD PUSH2 0x10DC SWAP1 PUSH2 0x2189 JUMP JUMPDEST PUSH1 0x40 MLOAD DUP1 SWAP2 SUB SWAP1 REVERT JUMPDEST DUP2 DUP2 SUB PUSH1 0x0 DUP1 DUP7 PUSH20 0xFFFFFFFFFFFFFFFFFFFFFFFFFFFFFFFFFFFFFFFF AND PUSH20 0xFFFFFFFFFFFFFFFFFFFFFFFFFFFFFFFFFFFFFFFF AND DUP2 MSTORE PUSH1 0x20 ADD SWAP1 DUP2 MSTORE PUSH1 0x20 ADD PUSH1 0x0 KECCAK256 DUP2 SWAP1 SSTORE POP DUP2 PUSH1 0x0 DUP1 DUP6 PUSH20 0xFFFFFFFFFFFFFFFFFFFFFFFFFFFFFFFFFFFFFFFF AND PUSH20 0xFFFFFFFFFFFFFFFFFFFFFFFFFFFFFFFFFFFFFFFF AND DUP2 MSTORE PUSH1 0x20 ADD SWAP1 DUP2 MSTORE PUSH1 0x20 ADD PUSH1 0x0 KECCAK256 PUSH1 0x0 DUP3 DUP3 SLOAD ADD SWAP3 POP POP DUP2 SWAP1 SSTORE POP DUP3 PUSH20 0xFFFFFFFFFFFFFFFFFFFFFFFFFFFFFFFFFFFFFFFF AND DUP5 PUSH20 0xFFFFFFFFFFFFFFFFFFFFFFFFFFFFFFFFFFFFFFFF AND PUSH32 0xDDF252AD1BE2C89B69C2B068FC378DAA952BA7F163C4A11628F55A4DF523B3EF DUP5 PUSH1 0x40 MLOAD PUSH2 0x11D3 SWAP2 SWAP1 PUSH2 0x16C9 JUMP JUMPDEST PUSH1 0x40 MLOAD DUP1 SWAP2 SUB SWAP1 LOG3 PUSH2 0x11E6 DUP5 DUP5 DUP5 PUSH2 0x12A0 JUMP JUMPDEST POP POP POP POP JUMP JUMPDEST PUSH1 0x0 DUP1 PUSH2 0x3E8 DUP4 PUSH2 0x11FD SWAP2 SWAP1 PUSH2 0x21D8 JUMP JUMPDEST SWAP1 POP PUSH1 0x0 PUSH2 0x120A DUP6 PUSH2 0x12A5 JUMP JUMPDEST SWAP1 POP PUSH1 0x0 PUSH2 0x1218 DUP4 DUP4 PUSH2 0x1531 JUMP JUMPDEST SWAP1 POP DUP1 DUP4 PUSH2 0x1226 SWAP2 SWAP1 PUSH2 0x1B79 JUMP JUMPDEST SWAP4 POP POP POP POP SWAP3 SWAP2 POP POP JUMP JUMPDEST PUSH2 0x1239 PUSH2 0x702 JUMP JUMPDEST DUP2 PUSH2 0x1242 PUSH2 0x6BA JUMP JUMPDEST PUSH2 0x124C SWAP2 SWAP1 PUSH2 0x1B79 JUMP JUMPDEST GT ISZERO PUSH2 0x128D JUMPI PUSH1 0x40 MLOAD PUSH32 0x8C379A000000000000000000000000000000000000000000000000000000000 DUP2 MSTORE PUSH1 0x4 ADD PUSH2 0x1284 SWAP1 PUSH2 0x2255 JUMP JUMPDEST PUSH1 0x40 MLOAD DUP1 SWAP2 SUB SWAP1 REVERT JUMPDEST PUSH2 0x1297 DUP3 DUP3 PUSH2 0x155A JUMP JUMPDEST POP POP JUMP JUMPDEST POP POP POP JUMP JUMPDEST POP POP POP JUMP JUMPDEST PUSH1 0x0 DUP1 DUP3 LT ISZERO DUP1 ISZERO PUSH2 0x12C3 JUMPI POP PUSH12 0x183BDAC6AE9BC1C8CC000000 DUP3 GT ISZERO JUMPDEST ISZERO PUSH2 0x12D3 JUMPI PUSH3 0x249F0 SWAP1 POP PUSH2 0x152C JUMP JUMPDEST PUSH12 0x183BDAC6AE9BC1C8CC000000 DUP3 GT DUP1 ISZERO PUSH2 0x12FA JUMPI POP PUSH12 0x2863C1F5CDAE42F954000000 DUP3 GT ISZERO JUMPDEST ISZERO PUSH2 0x130A JUMPI PUSH3 0x186A0 SWAP1 POP PUSH2 0x152C JUMP JUMPDEST PUSH12 0x2863C1F5CDAE42F954000000 DUP3 GT DUP1 ISZERO PUSH2 0x1331 JUMPI POP PUSH12 0x388BA924ECC0C429DC000000 DUP3 GT ISZERO JUMPDEST ISZERO PUSH2 0x1341 JUMPI PUSH3 0x10428 SWAP1 POP PUSH2 0x152C JUMP JUMPDEST PUSH12 0x388BA924ECC0C429DC000000 DUP3 GT DUP1 ISZERO PUSH2 0x1368 JUMPI POP PUSH12 0x48B390540BD3455A64000000 DUP3 GT ISZERO JUMPDEST ISZERO PUSH2 0x1377 JUMPI PUSH2 0xAD70 SWAP1 POP PUSH2 0x152C JUMP JUMPDEST PUSH12 0x48B390540BD3455A64000000 DUP3 GT DUP1 ISZERO PUSH2 0x139E JUMPI POP PUSH12 0x58DB77832AE5C68AEC000000 DUP3 GT ISZERO JUMPDEST ISZERO PUSH2 0x13AD JUMPI PUSH2 0x73A0 SWAP1 POP PUSH2 0x152C JUMP JUMPDEST PUSH12 0x58DB77832AE5C68AEC000000 DUP3 GT DUP1 ISZERO PUSH2 0x13D4 JUMPI POP PUSH12 0x69035EB249F847BB74000000 DUP3 GT ISZERO JUMPDEST ISZERO PUSH2 0x13E3 JUMPI PUSH2 0x4CF4 SWAP1 POP PUSH2 0x152C JUMP JUMPDEST PUSH12 0x69035EB249F847BB74000000 DUP3 GT DUP1 ISZERO PUSH2 0x140A JUMPI POP PUSH12 0x71175249D9818853B8000000 DUP3 GT ISZERO JUMPDEST ISZERO PUSH2 0x1419 JUMPI PUSH2 0x332C SWAP1 POP PUSH2 0x152C JUMP JUMPDEST PUSH12 0x71175249D9818853B8000000 DUP3 GT DUP1 ISZERO PUSH2 0x1440 JUMPI POP PUSH12 0x792B45E1690AC8EBFC000000 DUP3 GT ISZERO JUMPDEST ISZERO PUSH2 0x144F JUMPI PUSH2 0x21FC SWAP1 POP PUSH2 0x152C JUMP JUMPDEST PUSH12 0x792B45E1690AC8EBFC000000 DUP3 GT DUP1 ISZERO PUSH2 0x1476 JUMPI POP PUSH12 0x813F3978F894098440000000 DUP3 GT ISZERO JUMPDEST ISZERO PUSH2 0x1485 JUMPI PUSH2 0x16A8 SWAP1 POP PUSH2 0x152C JUMP JUMPDEST PUSH12 0x813F3978F894098440000000 DUP3 GT DUP1 ISZERO PUSH2 0x14AC JUMPI POP PUSH12 0x89532D10881D4A1C84000000 DUP3 GT ISZERO JUMPDEST ISZERO PUSH2 0x14BB JUMPI PUSH2 0xED8 SWAP1 POP PUSH2 0x152C JUMP JUMPDEST PUSH12 0x89532D10881D4A1C84000000 DUP3 GT DUP1 ISZERO PUSH2 0x14E2 JUMPI POP PUSH12 0x916720A817A68AB4C8000000 DUP3 GT ISZERO JUMPDEST ISZERO PUSH2 0x14F1 JUMPI PUSH2 0x9C4 SWAP1 POP PUSH2 0x152C JUMP JUMPDEST PUSH12 0x916720A817A68AB4C8000000 DUP3 GT DUP1 ISZERO PUSH2 0x1518 JUMPI POP PUSH12 0x997B143FA72FCB4D0C000000 DUP3 GT ISZERO JUMPDEST ISZERO PUSH2 0x1527 JUMPI PUSH2 0x6A4 SWAP1 POP PUSH2 0x152C JUMP JUMPDEST PUSH1 0x0 SWAP1 POP JUMPDEST SWAP2 SWAP1 POP JUMP JUMPDEST PUSH1 0x0 PUSH2 0x2710 DUP3 PUSH4 0xFFFFFFFF AND DUP5 PUSH2 0x1548 SWAP2 SWAP1 PUSH2 0x2275 JUMP JUMPDEST PUSH2 0x1552 SWAP2 SWAP1 PUSH2 0x21D8 JUMP JUMPDEST SWAP1 POP SWAP3 SWAP2 POP POP JUMP JUMPDEST PUSH1 0x0 PUSH20 0xFFFFFFFFFFFFFFFFFFFFFFFFFFFFFFFFFFFFFFFF AND DUP3 PUSH20 0xFFFFFFFFFFFFFFFFFFFFFFFFFFFFFFFFFFFFFFFF AND SUB PUSH2 0x15C9 JUMPI PUSH1 0x40 MLOAD PUSH32 0x8C379A000000000000000000000000000000000000000000000000000000000 DUP2 MSTORE PUSH1 0x4 ADD PUSH2 0x15C0 SWAP1 PUSH2 0x2303 JUMP JUMPDEST PUSH1 0x40 MLOAD DUP1 SWAP2 SUB SWAP1 REVERT JUMPDEST PUSH2 0x15D5 PUSH1 0x0 DUP4 DUP4 PUSH2 0x129B JUMP JUMPDEST DUP1 PUSH1 0x2 PUSH1 0x0 DUP3 DUP3 SLOAD PUSH2 0x15E7 SWAP2 SWAP1 PUSH2 0x1B79 JUMP JUMPDEST SWAP3 POP POP DUP2 SWAP1 SSTORE POP DUP1 PUSH1 0x0 DUP1 DUP5 PUSH20 0xFFFFFFFFFFFFFFFFFFFFFFFFFFFFFFFFFFFFFFFF AND PUSH20 0xFFFFFFFFFFFFFFFFFFFFFFFFFFFFFFFFFFFFFFFF AND DUP2 MSTORE PUSH1 0x20 ADD SWAP1 DUP2 MSTORE PUSH1 0x20 ADD PUSH1 0x0 KECCAK256 PUSH1 0x0 DUP3 DUP3 SLOAD ADD SWAP3 POP POP DUP2 SWAP1 SSTORE POP DUP2 PUSH20 0xFFFFFFFFFFFFFFFFFFFFFFFFFFFFFFFFFFFFFFFF AND PUSH1 0x0 PUSH20 0xFFFFFFFFFFFFFFFFFFFFFFFFFFFFFFFFFFFFFFFF AND PUSH32 0xDDF252AD1BE2C89B69C2B068FC378DAA952BA7F163C4A11628F55A4DF523B3EF DUP4 PUSH1 0x40 MLOAD PUSH2 0x1698 SWAP2 SWAP1 PUSH2 0x16C9 JUMP JUMPDEST PUSH1 0x40 MLOAD DUP1 SWAP2 SUB SWAP1 LOG3 PUSH2 0x16AC PUSH1 0x0 DUP4 DUP4 PUSH2 0x12A0 JUMP JUMPDEST POP POP JUMP JUMPDEST PUSH1 0x0 DUP2 SWAP1 POP SWAP2 SWAP1 POP JUMP JUMPDEST PUSH2 0x16C3 DUP2 PUSH2 0x16B0 JUMP JUMPDEST DUP3 MSTORE POP POP JUMP JUMPDEST PUSH1 0x0 PUSH1 0x20 DUP3 ADD SWAP1 POP PUSH2 0x16DE PUSH1 0x0 DUP4 ADD DUP5 PUSH2 0x16BA JUMP JUMPDEST SWAP3 SWAP2 POP POP JUMP JUMPDEST PUSH1 0x0 DUP1 REVERT JUMPDEST PUSH1 0x0 PUSH32 0xFFFFFFFF00000000000000000000000000000000000000000000000000000000 DUP3 AND SWAP1 POP SWAP2 SWAP1 POP JUMP JUMPDEST PUSH2 0x171E DUP2 PUSH2 0x16E9 JUMP JUMPDEST DUP2 EQ PUSH2 0x1729 JUMPI PUSH1 0x0 DUP1 REVERT JUMPDEST POP JUMP JUMPDEST PUSH1 0x0 DUP2 CALLDATALOAD SWAP1 POP PUSH2 0x173B DUP2 PUSH2 0x1715 JUMP JUMPDEST SWAP3 SWAP2 POP POP JUMP JUMPDEST PUSH1 0x0 PUSH1 0x20 DUP3 DUP5 SUB SLT ISZERO PUSH2 0x1757 JUMPI PUSH2 0x1756 PUSH2 0x16E4 JUMP JUMPDEST JUMPDEST PUSH1 0x0 PUSH2 0x1765 DUP5 DUP3 DUP6 ADD PUSH2 0x172C JUMP JUMPDEST SWAP2 POP POP SWAP3 SWAP2 POP POP JUMP JUMPDEST PUSH1 0x0 DUP2 ISZERO ISZERO SWAP1 POP SWAP2 SWAP1 POP JUMP JUMPDEST PUSH2 0x1783 DUP2 PUSH2 0x176E JUMP JUMPDEST DUP3 MSTORE POP POP JUMP JUMPDEST PUSH1 0x0 PUSH1 0x20 DUP3 ADD SWAP1 POP PUSH2 0x179E PUSH1 0x0 DUP4 ADD DUP5 PUSH2 0x177A JUMP JUMPDEST SWAP3 SWAP2 POP POP JUMP JUMPDEST PUSH1 0x0 DUP2 MLOAD SWAP1 POP SWAP2 SWAP1 POP JUMP JUMPDEST PUSH1 0x0 DUP3 DUP3 MSTORE PUSH1 0x20 DUP3 ADD SWAP1 POP SWAP3 SWAP2 POP POP JUMP JUMPDEST PUSH1 0x0 JUMPDEST DUP4 DUP2 LT ISZERO PUSH2 0x17DE JUMPI DUP1 DUP3 ADD MLOAD DUP2 DUP5 ADD MSTORE PUSH1 0x20 DUP2 ADD SWAP1 POP PUSH2 0x17C3 JUMP JUMPDEST PUSH1 0x0 DUP5 DUP5 ADD MSTORE POP POP POP POP JUMP JUMPDEST PUSH1 0x0 PUSH1 0x1F NOT PUSH1 0x1F DUP4 ADD AND SWAP1 POP SWAP2 SWAP1 POP JUMP JUMPDEST PUSH1 0x0 PUSH2 0x1806 DUP3 PUSH2 0x17A4 JUMP JUMPDEST PUSH2 0x1810 DUP2 DUP6 PUSH2 0x17AF JUMP JUMPDEST SWAP4 POP PUSH2 0x1820 DUP2 DUP6 PUSH1 0x20 DUP7 ADD PUSH2 0x17C0 JUMP JUMPDEST PUSH2 0x1829 DUP2 PUSH2 0x17EA JUMP JUMPDEST DUP5 ADD SWAP2 POP POP SWAP3 SWAP2 POP POP JUMP JUMPDEST PUSH1 0x0 PUSH1 0x20 DUP3 ADD SWAP1 POP DUP2 DUP2 SUB PUSH1 0x0 DUP4 ADD MSTORE PUSH2 0x184E DUP2 DUP5 PUSH2 0x17FB JUMP JUMPDEST SWAP1 POP SWAP3 SWAP2 POP POP JUMP JUMPDEST PUSH1 0x0 PUSH20 0xFFFFFFFFFFFFFFFFFFFFFFFFFFFFFFFFFFFFFFFF DUP3 AND SWAP1 POP SWAP2 SWAP1 POP JUMP JUMPDEST PUSH1 0x0 PUSH2 0x1881 DUP3 PUSH2 0x1856 JUMP JUMPDEST SWAP1 POP SWAP2 SWAP1 POP JUMP JUMPDEST PUSH2 0x1891 DUP2 PUSH2 0x1876 JUMP JUMPDEST DUP2 EQ PUSH2 0x189C JUMPI PUSH1 0x0 DUP1 REVERT JUMPDEST POP JUMP JUMPDEST PUSH1 0x0 DUP2 CALLDATALOAD SWAP1 POP PUSH2 0x18AE DUP2 PUSH2 0x1888 JUMP JUMPDEST SWAP3 SWAP2 POP POP JUMP JUMPDEST PUSH2 0x18BD DUP2 PUSH2 0x16B0 JUMP JUMPDEST DUP2 EQ PUSH2 0x18C8 JUMPI PUSH1 0x0 DUP1 REVERT JUMPDEST POP JUMP JUMPDEST PUSH1 0x0 DUP2 CALLDATALOAD SWAP1 POP PUSH2 0x18DA DUP2 PUSH2 0x18B4 JUMP JUMPDEST SWAP3 SWAP2 POP POP JUMP JUMPDEST PUSH1 0x0 DUP1 PUSH1 0x40 DUP4 DUP6 SUB SLT ISZERO PUSH2 0x18F7 JUMPI PUSH2 0x18F6 PUSH2 0x16E4 JUMP JUMPDEST JUMPDEST PUSH1 0x0 PUSH2 0x1905 DUP6 DUP3 DUP7 ADD PUSH2 0x189F JUMP JUMPDEST SWAP3 POP POP PUSH1 0x20 PUSH2 0x1916 DUP6 DUP3 DUP7 ADD PUSH2 0x18CB JUMP JUMPDEST SWAP2 POP POP SWAP3 POP SWAP3 SWAP1 POP JUMP JUMPDEST PUSH1 0x0 DUP1 PUSH1 0x0 PUSH1 0x60 DUP5 DUP7 SUB SLT ISZERO PUSH2 0x1939 JUMPI PUSH2 0x1938 PUSH2 0x16E4 JUMP JUMPDEST JUMPDEST PUSH1 0x0 PUSH2 0x1947 DUP7 DUP3 DUP8 ADD PUSH2 0x189F JUMP JUMPDEST SWAP4 POP POP PUSH1 0x20 PUSH2 0x1958 DUP7 DUP3 DUP8 ADD PUSH2 0x189F JUMP JUMPDEST SWAP3 POP POP PUSH1 0x40 PUSH2 0x1969 DUP7 DUP3 DUP8 ADD PUSH2 0x18CB JUMP JUMPDEST SWAP2 POP POP SWAP3 POP SWAP3 POP SWAP3 JUMP JUMPDEST PUSH1 0x0 PUSH1 0xFF DUP3 AND SWAP1 POP SWAP2 SWAP1 POP JUMP JUMPDEST PUSH2 0x1989 DUP2 PUSH2 0x1973 JUMP JUMPDEST DUP3 MSTORE POP POP JUMP JUMPDEST PUSH1 0x0 PUSH1 0x20 DUP3 ADD SWAP1 POP PUSH2 0x19A4 PUSH1 0x0 DUP4 ADD DUP5 PUSH2 0x1980 JUMP JUMPDEST SWAP3 SWAP2 POP POP JUMP JUMPDEST PUSH1 0x0 PUSH1 0x20 DUP3 DUP5 SUB SLT ISZERO PUSH2 0x19C0 JUMPI PUSH2 0x19BF PUSH2 0x16E4 JUMP JUMPDEST JUMPDEST PUSH1 0x0 PUSH2 0x19CE DUP5 DUP3 DUP6 ADD PUSH2 0x18CB JUMP JUMPDEST SWAP2 POP POP SWAP3 SWAP2 POP POP JUMP JUMPDEST PUSH1 0x0 PUSH1 0x20 DUP3 DUP5 SUB SLT ISZERO PUSH2 0x19ED JUMPI PUSH2 0x19EC PUSH2 0x16E4 JUMP JUMPDEST JUMPDEST PUSH1 0x0 PUSH2 0x19FB DUP5 DUP3 DUP6 ADD PUSH2 0x189F JUMP JUMPDEST SWAP2 POP POP SWAP3 SWAP2 POP POP JUMP JUMPDEST PUSH1 0x0 DUP1 PUSH1 0x40 DUP4 DUP6 SUB SLT ISZERO PUSH2 0x1A1B JUMPI PUSH2 0x1A1A PUSH2 0x16E4 JUMP JUMPDEST JUMPDEST PUSH1 0x0 PUSH2 0x1A29 DUP6 DUP3 DUP7 ADD PUSH2 0x18CB JUMP JUMPDEST SWAP3 POP POP PUSH1 0x20 PUSH2 0x1A3A DUP6 DUP3 DUP7 ADD PUSH2 0x18CB JUMP JUMPDEST SWAP2 POP POP SWAP3 POP SWAP3 SWAP1 POP JUMP JUMPDEST PUSH2 0x1A4D DUP2 PUSH2 0x1876 JUMP JUMPDEST DUP3 MSTORE POP POP JUMP JUMPDEST PUSH1 0x0 PUSH1 0x20 DUP3 ADD SWAP1 POP PUSH2 0x1A68 PUSH1 0x0 DUP4 ADD DUP5 PUSH2 0x1A44 JUMP JUMPDEST SWAP3 SWAP2 POP POP JUMP JUMPDEST PUSH1 0x0 DUP1 PUSH1 0x40 DUP4 DUP6 SUB SLT ISZERO PUSH2 0x1A85 JUMPI PUSH2 0x1A84 PUSH2 0x16E4 JUMP JUMPDEST JUMPDEST PUSH1 0x0 PUSH2 0x1A93 DUP6 DUP3 DUP7 ADD PUSH2 0x189F JUMP JUMPDEST SWAP3 POP POP PUSH1 0x20 PUSH2 0x1AA4 DUP6 DUP3 DUP7 ADD PUSH2 0x189F JUMP JUMPDEST SWAP2 POP POP SWAP3 POP SWAP3 SWAP1 POP JUMP JUMPDEST PUSH1 0x0 PUSH2 0x1AB9 DUP3 PUSH2 0x1856 JUMP JUMPDEST SWAP1 POP SWAP2 SWAP1 POP JUMP JUMPDEST PUSH2 0x1AC9 DUP2 PUSH2 0x1AAE JUMP JUMPDEST DUP3 MSTORE POP POP JUMP JUMPDEST PUSH1 0x0 PUSH1 0x20 DUP3 ADD SWAP1 POP PUSH2 0x1AE4 PUSH1 0x0 DUP4 ADD DUP5 PUSH2 0x1AC0 JUMP JUMPDEST SWAP3 SWAP2 POP POP JUMP JUMPDEST PUSH32 0x4E487B7100000000000000000000000000000000000000000000000000000000 PUSH1 0x0 MSTORE PUSH1 0x22 PUSH1 0x4 MSTORE PUSH1 0x24 PUSH1 0x0 REVERT JUMPDEST PUSH1 0x0 PUSH1 0x2 DUP3 DIV SWAP1 POP PUSH1 0x1 DUP3 AND DUP1 PUSH2 0x1B31 JUMPI PUSH1 0x7F DUP3 AND SWAP2 POP JUMPDEST PUSH1 0x20 DUP3 LT DUP2 SUB PUSH2 0x1B44 JUMPI PUSH2 0x1B43 PUSH2 0x1AEA JUMP JUMPDEST JUMPDEST POP SWAP2 SWAP1 POP JUMP JUMPDEST PUSH32 0x4E487B7100000000000000000000000000000000000000000000000000000000 PUSH1 0x0 MSTORE PUSH1 0x11 PUSH1 0x4 MSTORE PUSH1 0x24 PUSH1 0x0 REVERT JUMPDEST PUSH1 0x0 PUSH2 0x1B84 DUP3 PUSH2 0x16B0 JUMP JUMPDEST SWAP2 POP PUSH2 0x1B8F DUP4 PUSH2 0x16B0 JUMP JUMPDEST SWAP3 POP DUP3 DUP3 ADD SWAP1 POP DUP1 DUP3 GT ISZERO PUSH2 0x1BA7 JUMPI PUSH2 0x1BA6 PUSH2 0x1B4A JUMP JUMPDEST JUMPDEST SWAP3 SWAP2 POP POP JUMP JUMPDEST PUSH32 0x58454E446F67653A2043616C6C6572206D7573742062652058454E2043727970 PUSH1 0x0 DUP3 ADD MSTORE PUSH32 0x746F2E0000000000000000000000000000000000000000000000000000000000 PUSH1 0x20 DUP3 ADD MSTORE POP JUMP JUMPDEST PUSH1 0x0 PUSH2 0x1C09 PUSH1 0x23 DUP4 PUSH2 0x17AF JUMP JUMPDEST SWAP2 POP PUSH2 0x1C14 DUP3 PUSH2 0x1BAD JUMP JUMPDEST PUSH1 0x40 DUP3 ADD SWAP1 POP SWAP2 SWAP1 POP JUMP JUMPDEST PUSH1 0x0 PUSH1 0x20 DUP3 ADD SWAP1 POP DUP2 DUP2 SUB PUSH1 0x0 DUP4 ADD MSTORE PUSH2 0x1C38 DUP2 PUSH2 0x1BFC JUMP JUMPDEST SWAP1 POP SWAP2 SWAP1 POP JUMP JUMPDEST PUSH32 0x58454E446F67653A20416464726573732063616E6E6F74206265207468652030 PUSH1 0x0 DUP3 ADD MSTORE PUSH32 0x20616464726573732E0000000000000000000000000000000000000000000000 PUSH1 0x20 DUP3 ADD MSTORE POP JUMP JUMPDEST PUSH1 0x0 PUSH2 0x1C9B PUSH1 0x29 DUP4 PUSH2 0x17AF JUMP JUMPDEST SWAP2 POP PUSH2 0x1CA6 DUP3 PUSH2 0x1C3F JUMP JUMPDEST PUSH1 0x40 DUP3 ADD SWAP1 POP SWAP2 SWAP1 POP JUMP JUMPDEST PUSH1 0x0 PUSH1 0x20 DUP3 ADD SWAP1 POP DUP2 DUP2 SUB PUSH1 0x0 DUP4 ADD MSTORE PUSH2 0x1CCA DUP2 PUSH2 0x1C8E JUMP JUMPDEST SWAP1 POP SWAP2 SWAP1 POP JUMP JUMPDEST PUSH32 0x58454E446F67653A204275726E20616D6F756E7420746F6F20736D616C6C2E00 PUSH1 0x0 DUP3 ADD MSTORE POP JUMP JUMPDEST PUSH1 0x0 PUSH2 0x1D07 PUSH1 0x1F DUP4 PUSH2 0x17AF JUMP JUMPDEST SWAP2 POP PUSH2 0x1D12 DUP3 PUSH2 0x1CD1 JUMP JUMPDEST PUSH1 0x20 DUP3 ADD SWAP1 POP SWAP2 SWAP1 POP JUMP JUMPDEST PUSH1 0x0 PUSH1 0x20 DUP3 ADD SWAP1 POP DUP2 DUP2 SUB PUSH1 0x0 DUP4 ADD MSTORE PUSH2 0x1D36 DUP2 PUSH2 0x1CFA JUMP JUMPDEST SWAP1 POP SWAP2 SWAP1 POP JUMP JUMPDEST PUSH1 0x0 DUP2 MLOAD SWAP1 POP PUSH2 0x1D4C DUP2 PUSH2 0x18B4 JUMP JUMPDEST SWAP3 SWAP2 POP POP JUMP JUMPDEST PUSH1 0x0 PUSH1 0x20 DUP3 DUP5 SUB SLT ISZERO PUSH2 0x1D68 JUMPI PUSH2 0x1D67 PUSH2 0x16E4 JUMP JUMPDEST JUMPDEST PUSH1 0x0 PUSH2 0x1D76 DUP5 DUP3 DUP6 ADD PUSH2 0x1D3D JUMP JUMPDEST SWAP2 POP POP SWAP3 SWAP2 POP POP JUMP JUMPDEST PUSH1 0x0 PUSH1 0x40 DUP3 ADD SWAP1 POP PUSH2 0x1D94 PUSH1 0x0 DUP4 ADD DUP6 PUSH2 0x16BA JUMP JUMPDEST PUSH2 0x1DA1 PUSH1 0x20 DUP4 ADD DUP5 PUSH2 0x16BA JUMP JUMPDEST SWAP4 SWAP3 POP POP POP JUMP JUMPDEST PUSH1 0x0 PUSH1 0x40 DUP3 ADD SWAP1 POP PUSH2 0x1DBD PUSH1 0x0 DUP4 ADD DUP6 PUSH2 0x1A44 JUMP JUMPDEST PUSH2 0x1DCA PUSH1 0x20 DUP4 ADD DUP5 PUSH2 0x16BA JUMP JUMPDEST SWAP4 SWAP3 POP POP POP JUMP JUMPDEST PUSH32 0x45524332303A2064656372656173656420616C6C6F77616E63652062656C6F77 PUSH1 0x0 DUP3 ADD MSTORE PUSH32 0x207A65726F000000000000000000000000000000000000000000000000000000 PUSH1 0x20 DUP3 ADD MSTORE POP JUMP JUMPDEST PUSH1 0x0 PUSH2 0x1E2D PUSH1 0x25 DUP4 PUSH2 0x17AF JUMP JUMPDEST SWAP2 POP PUSH2 0x1E38 DUP3 PUSH2 0x1DD1 JUMP JUMPDEST PUSH1 0x40 DUP3 ADD SWAP1 POP SWAP2 SWAP1 POP JUMP JUMPDEST PUSH1 0x0 PUSH1 0x20 DUP3 ADD SWAP1 POP DUP2 DUP2 SUB PUSH1 0x0 DUP4 ADD MSTORE PUSH2 0x1E5C DUP2 PUSH2 0x1E20 JUMP JUMPDEST SWAP1 POP SWAP2 SWAP1 POP JUMP JUMPDEST PUSH32 0x45524332303A20617070726F76652066726F6D20746865207A65726F20616464 PUSH1 0x0 DUP3 ADD MSTORE PUSH32 0x7265737300000000000000000000000000000000000000000000000000000000 PUSH1 0x20 DUP3 ADD MSTORE POP JUMP JUMPDEST PUSH1 0x0 PUSH2 0x1EBF PUSH1 0x24 DUP4 PUSH2 0x17AF JUMP JUMPDEST SWAP2 POP PUSH2 0x1ECA DUP3 PUSH2 0x1E63 JUMP JUMPDEST PUSH1 0x40 DUP3 ADD SWAP1 POP SWAP2 SWAP1 POP JUMP JUMPDEST PUSH1 0x0 PUSH1 0x20 DUP3 ADD SWAP1 POP DUP2 DUP2 SUB PUSH1 0x0 DUP4 ADD MSTORE PUSH2 0x1EEE DUP2 PUSH2 0x1EB2 JUMP JUMPDEST SWAP1 POP SWAP2 SWAP1 POP JUMP JUMPDEST PUSH32 0x45524332303A20617070726F766520746F20746865207A65726F206164647265 PUSH1 0x0 DUP3 ADD MSTORE PUSH32 0x7373000000000000000000000000000000000000000000000000000000000000 PUSH1 0x20 DUP3 ADD MSTORE POP JUMP JUMPDEST PUSH1 0x0 PUSH2 0x1F51 PUSH1 0x22 DUP4 PUSH2 0x17AF JUMP JUMPDEST SWAP2 POP PUSH2 0x1F5C DUP3 PUSH2 0x1EF5 JUMP JUMPDEST PUSH1 0x40 DUP3 ADD SWAP1 POP SWAP2 SWAP1 POP JUMP JUMPDEST PUSH1 0x0 PUSH1 0x20 DUP3 ADD SWAP1 POP DUP2 DUP2 SUB PUSH1 0x0 DUP4 ADD MSTORE PUSH2 0x1F80 DUP2 PUSH2 0x1F44 JUMP JUMPDEST SWAP1 POP SWAP2 SWAP1 POP JUMP JUMPDEST PUSH32 0x45524332303A20696E73756666696369656E7420616C6C6F77616E6365000000 PUSH1 0x0 DUP3 ADD MSTORE POP JUMP JUMPDEST PUSH1 0x0 PUSH2 0x1FBD PUSH1 0x1D DUP4 PUSH2 0x17AF JUMP JUMPDEST SWAP2 POP PUSH2 0x1FC8 DUP3 PUSH2 0x1F87 JUMP JUMPDEST PUSH1 0x20 DUP3 ADD SWAP1 POP SWAP2 SWAP1 POP JUMP JUMPDEST PUSH1 0x0 PUSH1 0x20 DUP3 ADD SWAP1 POP DUP2 DUP2 SUB PUSH1 0x0 DUP4 ADD MSTORE PUSH2 0x1FEC DUP2 PUSH2 0x1FB0 JUMP JUMPDEST SWAP1 POP SWAP2 SWAP1 POP JUMP JUMPDEST PUSH32 0x45524332303A207472616E736665722066726F6D20746865207A65726F206164 PUSH1 0x0 DUP3 ADD MSTORE PUSH32 0x6472657373000000000000000000000000000000000000000000000000000000 PUSH1 0x20 DUP3 ADD MSTORE POP JUMP JUMPDEST PUSH1 0x0 PUSH2 0x204F PUSH1 0x25 DUP4 PUSH2 0x17AF JUMP JUMPDEST SWAP2 POP PUSH2 0x205A DUP3 PUSH2 0x1FF3 JUMP JUMPDEST PUSH1 0x40 DUP3 ADD SWAP1 POP SWAP2 SWAP1 POP JUMP JUMPDEST PUSH1 0x0 PUSH1 0x20 DUP3 ADD SWAP1 POP DUP2 DUP2 SUB PUSH1 0x0 DUP4 ADD MSTORE PUSH2 0x207E DUP2 PUSH2 0x2042 JUMP JUMPDEST SWAP1 POP SWAP2 SWAP1 POP JUMP JUMPDEST PUSH32 0x45524332303A207472616E7366657220746F20746865207A65726F2061646472 PUSH1 0x0 DUP3 ADD MSTORE PUSH32 0x6573730000000000000000000000000000000000000000000000000000000000 PUSH1 0x20 DUP3 ADD MSTORE POP JUMP JUMPDEST PUSH1 0x0 PUSH2 0x20E1 PUSH1 0x23 DUP4 PUSH2 0x17AF JUMP JUMPDEST SWAP2 POP PUSH2 0x20EC DUP3 PUSH2 0x2085 JUMP JUMPDEST PUSH1 0x40 DUP3 ADD SWAP1 POP SWAP2 SWAP1 POP JUMP JUMPDEST PUSH1 0x0 PUSH1 0x20 DUP3 ADD SWAP1 POP DUP2 DUP2 SUB PUSH1 0x0 DUP4 ADD MSTORE PUSH2 0x2110 DUP2 PUSH2 0x20D4 JUMP JUMPDEST SWAP1 POP SWAP2 SWAP1 POP JUMP JUMPDEST PUSH32 0x45524332303A207472616E7366657220616D6F756E7420657863656564732062 PUSH1 0x0 DUP3 ADD MSTORE PUSH32 0x616C616E63650000000000000000000000000000000000000000000000000000 PUSH1 0x20 DUP3 ADD MSTORE POP JUMP JUMPDEST PUSH1 0x0 PUSH2 0x2173 PUSH1 0x26 DUP4 PUSH2 0x17AF JUMP JUMPDEST SWAP2 POP PUSH2 0x217E DUP3 PUSH2 0x2117 JUMP JUMPDEST PUSH1 0x40 DUP3 ADD SWAP1 POP SWAP2 SWAP1 POP JUMP JUMPDEST PUSH1 0x0 PUSH1 0x20 DUP3 ADD SWAP1 POP DUP2 DUP2 SUB PUSH1 0x0 DUP4 ADD MSTORE PUSH2 0x21A2 DUP2 PUSH2 0x2166 JUMP JUMPDEST SWAP1 POP SWAP2 SWAP1 POP JUMP JUMPDEST PUSH32 0x4E487B7100000000000000000000000000000000000000000000000000000000 PUSH1 0x0 MSTORE PUSH1 0x12 PUSH1 0x4 MSTORE PUSH1 0x24 PUSH1 0x0 REVERT JUMPDEST PUSH1 0x0 PUSH2 0x21E3 DUP3 PUSH2 0x16B0 JUMP JUMPDEST SWAP2 POP PUSH2 0x21EE DUP4 PUSH2 0x16B0 JUMP JUMPDEST SWAP3 POP DUP3 PUSH2 0x21FE JUMPI PUSH2 0x21FD PUSH2 0x21A9 JUMP JUMPDEST JUMPDEST DUP3 DUP3 DIV SWAP1 POP SWAP3 SWAP2 POP POP JUMP JUMPDEST PUSH32 0x45524332304361707065643A2063617020657863656564656400000000000000 PUSH1 0x0 DUP3 ADD MSTORE POP JUMP JUMPDEST PUSH1 0x0 PUSH2 0x223F PUSH1 0x19 DUP4 PUSH2 0x17AF JUMP JUMPDEST SWAP2 POP PUSH2 0x224A DUP3 PUSH2 0x2209 JUMP JUMPDEST PUSH1 0x20 DUP3 ADD SWAP1 POP SWAP2 SWAP1 POP JUMP JUMPDEST PUSH1 0x0 PUSH1 0x20 DUP3 ADD SWAP1 POP DUP2 DUP2 SUB PUSH1 0x0 DUP4 ADD MSTORE PUSH2 0x226E DUP2 PUSH2 0x2232 JUMP JUMPDEST SWAP1 POP SWAP2 SWAP1 POP JUMP JUMPDEST PUSH1 0x0 PUSH2 0x2280 DUP3 PUSH2 0x16B0 JUMP JUMPDEST SWAP2 POP PUSH2 0x228B DUP4 PUSH2 0x16B0 JUMP JUMPDEST SWAP3 POP DUP3 DUP3 MUL PUSH2 0x2299 DUP2 PUSH2 0x16B0 JUMP JUMPDEST SWAP2 POP DUP3 DUP3 DIV DUP5 EQ DUP4 ISZERO OR PUSH2 0x22B0 JUMPI PUSH2 0x22AF PUSH2 0x1B4A JUMP JUMPDEST JUMPDEST POP SWAP3 SWAP2 POP POP JUMP JUMPDEST PUSH32 0x45524332303A206D696E7420746F20746865207A65726F206164647265737300 PUSH1 0x0 DUP3 ADD MSTORE POP JUMP JUMPDEST PUSH1 0x0 PUSH2 0x22ED PUSH1 0x1F DUP4 PUSH2 0x17AF JUMP JUMPDEST SWAP2 POP PUSH2 0x22F8 DUP3 PUSH2 0x22B7 JUMP JUMPDEST PUSH1 0x20 DUP3 ADD SWAP1 POP SWAP2 SWAP1 POP JUMP JUMPDEST PUSH1 0x0 PUSH1 0x20 DUP3 ADD SWAP1 POP DUP2 DUP2 SUB PUSH1 0x0 DUP4 ADD MSTORE PUSH2 0x231C DUP2 PUSH2 0x22E0 JUMP JUMPDEST SWAP1 POP SWAP2 SWAP1 POP JUMP INVALID LOG2 PUSH5 0x6970667358 0x22 SLT KECCAK256 0xCC EXP 0xBD DUP2 0x49 ADD RETURNDATACOPY SIGNEXTEND 0xD9 0xD9 PUSH5 0x11F53578BE PREVRANDAO 0x23 SWAP10 MSTORE8 EXTCODECOPY 0xD6 PUSH20 0x73351351023746528A64736F6C63430008130033 LOG2 PUSH5 0x6970667358 0x22 SLT KECCAK256 SWAP2 0xF8 SAR SWAP1 0xE8 0x2C 0xB0 0xB9 PUSH24 0xDD412E042C7CBCF2326F8A7D337F60201930C4DB4D109764 PUSH20 0x6F6C634300081300330000000000000000000000 "
		},
		"gasEstimates": {
			"creation": {
				"codeDepositCost": "6036000",
				"executionCost": "7455",
				"totalCost": "6043455"
			},
			"external": {
				"beforeAll()": "infinite",
				"checkCalculateMintReward()": "infinite",
				"xenDoge()": "infinite"
			}
		},
		"methodIdentifiers": {
			"beforeAll()": "7fea0d4b",
			"checkCalculateMintReward()": "0290df4b",
			"xenDoge()": "6ef99288"
		}
	},
	"abi": [
		{
			"inputs": [],
			"name": "beforeAll",
			"outputs": [],
			"stateMutability": "nonpayable",
			"type": "function"
		},
		{
			"inputs": [],
			"name": "checkCalculateMintReward",
			"outputs": [],
			"stateMutability": "nonpayable",
			"type": "function"
		},
		{
			"inputs": [],
			"name": "xenDoge",
			"outputs": [
				{
					"internalType": "contract ExposedXENDoge",
					"name": "",
					"type": "address"
				}
			],
			"stateMutability": "view",
			"type": "function"
		}
	]
}