{
	"contracts/XENDoge.sol": {
		"XENDoge": {
			"abi": [
				{
					"inputs": [],
					"stateMutability": "nonpayable",
					"type": "constructor"
				},
				{
					"anonymous": false,
					"inputs": [
						{
							"indexed": true,
							"internalType": "address",
							"name": "owner",
							"type": "address"
						},
						{
							"indexed": true,
							"internalType": "address",
							"name": "spender",
							"type": "address"
						},
						{
							"indexed": false,
							"internalType": "uint256",
							"name": "value",
							"type": "uint256"
						}
					],
					"name": "Approval",
					"type": "event"
				},
				{
					"anonymous": false,
					"inputs": [
						{
							"indexed": true,
							"internalType": "address",
							"name": "user",
							"type": "address"
						},
						{
							"indexed": true,
							"internalType": "address",
							"name": "xenContract",
							"type": "address"
						},
						{
							"indexed": true,
							"internalType": "address",
							"name": "tokenContract",
							"type": "address"
						},
						{
							"indexed": false,
							"internalType": "uint256",
							"name": "xenAmount",
							"type": "uint256"
						},
						{
							"indexed": false,
							"internalType": "uint256",
							"name": "tokenAmount",
							"type": "uint256"
						}
					],
					"name": "Redeemed",
					"type": "event"
				},
				{
					"anonymous": false,
					"inputs": [
						{
							"indexed": true,
							"internalType": "address",
							"name": "from",
							"type": "address"
						},
						{
							"indexed": true,
							"internalType": "address",
							"name": "to",
							"type": "address"
						},
						{
							"indexed": false,
							"internalType": "uint256",
							"name": "value",
							"type": "uint256"
						}
					],
					"name": "Transfer",
					"type": "event"
				},
				{
					"inputs": [],
					"name": "DONATION_ADDRESS",
					"outputs": [
						{
							"internalType": "address payable",
							"name": "",
							"type": "address"
						}
					],
					"stateMutability": "view",
					"type": "function"
				},
				{
					"inputs": [],
					"name": "XEN_ADDRESS",
					"outputs": [
						{
							"internalType": "address",
							"name": "",
							"type": "address"
						}
					],
					"stateMutability": "view",
					"type": "function"
				},
				{
					"inputs": [],
					"name": "XEN_BURN_RATIO",
					"outputs": [
						{
							"internalType": "uint256",
							"name": "",
							"type": "uint256"
						}
					],
					"stateMutability": "view",
					"type": "function"
				},
				{
					"inputs": [
						{
							"internalType": "address",
							"name": "owner",
							"type": "address"
						},
						{
							"internalType": "address",
							"name": "spender",
							"type": "address"
						}
					],
					"name": "allowance",
					"outputs": [
						{
							"internalType": "uint256",
							"name": "",
							"type": "uint256"
						}
					],
					"stateMutability": "view",
					"type": "function"
				},
				{
					"inputs": [
						{
							"internalType": "address",
							"name": "spender",
							"type": "address"
						},
						{
							"internalType": "uint256",
							"name": "amount",
							"type": "uint256"
						}
					],
					"name": "approve",
					"outputs": [
						{
							"internalType": "bool",
							"name": "",
							"type": "bool"
						}
					],
					"stateMutability": "nonpayable",
					"type": "function"
				},
				{
					"inputs": [
						{
							"internalType": "address",
							"name": "account",
							"type": "address"
						}
					],
					"name": "balanceOf",
					"outputs": [
						{
							"internalType": "uint256",
							"name": "",
							"type": "uint256"
						}
					],
					"stateMutability": "view",
					"type": "function"
				},
				{
					"inputs": [
						{
							"internalType": "uint256",
							"name": "xen",
							"type": "uint256"
						}
					],
					"name": "burnXEN",
					"outputs": [],
					"stateMutability": "payable",
					"type": "function"
				},
				{
					"inputs": [],
					"name": "cap",
					"outputs": [
						{
							"internalType": "uint256",
							"name": "",
							"type": "uint256"
						}
					],
					"stateMutability": "view",
					"type": "function"
				},
				{
					"inputs": [],
					"name": "decimals",
					"outputs": [
						{
							"internalType": "uint8",
							"name": "",
							"type": "uint8"
						}
					],
					"stateMutability": "view",
					"type": "function"
				},
				{
					"inputs": [
						{
							"internalType": "address",
							"name": "spender",
							"type": "address"
						},
						{
							"internalType": "uint256",
							"name": "subtractedValue",
							"type": "uint256"
						}
					],
					"name": "decreaseAllowance",
					"outputs": [
						{
							"internalType": "bool",
							"name": "",
							"type": "bool"
						}
					],
					"stateMutability": "nonpayable",
					"type": "function"
				},
				{
					"inputs": [
						{
							"internalType": "address",
							"name": "spender",
							"type": "address"
						},
						{
							"internalType": "uint256",
							"name": "addedValue",
							"type": "uint256"
						}
					],
					"name": "increaseAllowance",
					"outputs": [
						{
							"internalType": "bool",
							"name": "",
							"type": "bool"
						}
					],
					"stateMutability": "nonpayable",
					"type": "function"
				},
				{
					"inputs": [],
					"name": "name",
					"outputs": [
						{
							"internalType": "string",
							"name": "",
							"type": "string"
						}
					],
					"stateMutability": "view",
					"type": "function"
				},
				{
					"inputs": [
						{
							"internalType": "address",
							"name": "user",
							"type": "address"
						},
						{
							"internalType": "uint256",
							"name": "amount",
							"type": "uint256"
						}
					],
					"name": "onTokenBurned",
					"outputs": [],
					"stateMutability": "nonpayable",
					"type": "function"
				},
				{
					"inputs": [
						{
							"internalType": "bytes4",
							"name": "interfaceId",
							"type": "bytes4"
						}
					],
					"name": "supportsInterface",
					"outputs": [
						{
							"internalType": "bool",
							"name": "",
							"type": "bool"
						}
					],
					"stateMutability": "view",
					"type": "function"
				},
				{
					"inputs": [],
					"name": "symbol",
					"outputs": [
						{
							"internalType": "string",
							"name": "",
							"type": "string"
						}
					],
					"stateMutability": "view",
					"type": "function"
				},
				{
					"inputs": [],
					"name": "totalSupply",
					"outputs": [
						{
							"internalType": "uint256",
							"name": "",
							"type": "uint256"
						}
					],
					"stateMutability": "view",
					"type": "function"
				},
				{
					"inputs": [],
					"name": "totalXenBurned",
					"outputs": [
						{
							"internalType": "uint256",
							"name": "",
							"type": "uint256"
						}
					],
					"stateMutability": "view",
					"type": "function"
				},
				{
					"inputs": [
						{
							"internalType": "address",
							"name": "to",
							"type": "address"
						},
						{
							"internalType": "uint256",
							"name": "amount",
							"type": "uint256"
						}
					],
					"name": "transfer",
					"outputs": [
						{
							"internalType": "bool",
							"name": "",
							"type": "bool"
						}
					],
					"stateMutability": "nonpayable",
					"type": "function"
				},
				{
					"inputs": [
						{
							"internalType": "address",
							"name": "from",
							"type": "address"
						},
						{
							"internalType": "address",
							"name": "to",
							"type": "address"
						},
						{
							"internalType": "uint256",
							"name": "amount",
							"type": "uint256"
						}
					],
					"name": "transferFrom",
					"outputs": [
						{
							"internalType": "bool",
							"name": "",
							"type": "bool"
						}
					],
					"stateMutability": "nonpayable",
					"type": "function"
				}
			],
			"devdoc": {
				"events": {
					"Approval(address,address,uint256)": {
						"details": "Emitted when the allowance of a `spender` for an `owner` is set by a call to {approve}. `value` is the new allowance."
					},
					"Transfer(address,address,uint256)": {
						"details": "Emitted when `value` tokens are moved from one account (`from`) to another (`to`). Note that `value` may be zero."
					}
				},
				"kind": "dev",
				"methods": {
					"allowance(address,address)": {
						"details": "See {IERC20-allowance}."
					},
					"approve(address,uint256)": {
						"details": "See {IERC20-approve}. NOTE: If `amount` is the maximum `uint256`, the allowance is not updated on `transferFrom`. This is semantically equivalent to an infinite approval. Requirements: - `spender` cannot be the zero address."
					},
					"balanceOf(address)": {
						"details": "See {IERC20-balanceOf}."
					},
					"cap()": {
						"details": "Returns the cap on the token's total supply."
					},
					"decimals()": {
						"details": "Returns the number of decimals used to get its user representation. For example, if `decimals` equals `2`, a balance of `505` tokens should be displayed to a user as `5.05` (`505 / 10 ** 2`). Tokens usually opt for a value of 18, imitating the relationship between Ether and Wei. This is the value {ERC20} uses, unless this function is overridden; NOTE: This information is only used for _display_ purposes: it in no way affects any of the arithmetic of the contract, including {IERC20-balanceOf} and {IERC20-transfer}."
					},
					"decreaseAllowance(address,uint256)": {
						"details": "Atomically decreases the allowance granted to `spender` by the caller. This is an alternative to {approve} that can be used as a mitigation for problems described in {IERC20-approve}. Emits an {Approval} event indicating the updated allowance. Requirements: - `spender` cannot be the zero address. - `spender` must have allowance for the caller of at least `subtractedValue`."
					},
					"increaseAllowance(address,uint256)": {
						"details": "Atomically increases the allowance granted to `spender` by the caller. This is an alternative to {approve} that can be used as a mitigation for problems described in {IERC20-approve}. Emits an {Approval} event indicating the updated allowance. Requirements: - `spender` cannot be the zero address."
					},
					"name()": {
						"details": "Returns the name of the token."
					},
					"supportsInterface(bytes4)": {
						"details": "Returns true if this contract implements the interface defined by `interfaceId`. See the corresponding https://eips.ethereum.org/EIPS/eip-165#how-interfaces-are-identified[EIP section] to learn more about how these ids are created. This function call must use less than 30 000 gas."
					},
					"symbol()": {
						"details": "Returns the symbol of the token, usually a shorter version of the name."
					},
					"totalSupply()": {
						"details": "See {IERC20-totalSupply}."
					},
					"transfer(address,uint256)": {
						"details": "See {IERC20-transfer}. Requirements: - `to` cannot be the zero address. - the caller must have a balance of at least `amount`."
					},
					"transferFrom(address,address,uint256)": {
						"details": "See {IERC20-transferFrom}. Emits an {Approval} event indicating the updated allowance. This is not required by the EIP. See the note at the beginning of {ERC20}. NOTE: Does not update the allowance if the current allowance is the maximum `uint256`. Requirements: - `from` and `to` cannot be the zero address. - `from` must have a balance of at least `amount`. - the caller must have allowance for ``from``'s tokens of at least `amount`."
					}
				},
				"version": 1
			},
			"evm": {
				"assembly": "    /* \"contracts/XENDoge.sol\":343:3883  contract XENDoge is ERC20Capped, IERC165, IBurnRedeemable { ... */\n  mstore(0x40, 0xa0)\n    /* \"contracts/XENDoge.sol\":689:690  0 */\n  0x00\n    /* \"contracts/XENDoge.sol\":657:690  uint256 public totalXenBurned = 0 */\n  0x05\n  sstore\n    /* \"contracts/XENDoge.sol\":699:784  constructor() ERC20(\"XENDoge\", \"XDOGE\") ERC20Capped(50000000000000000000000000000) {} */\n  callvalue\n  dup1\n  iszero\n  tag_1\n  jumpi\n  0x00\n  dup1\n  revert\ntag_1:\n  pop\n    /* \"contracts/XENDoge.sol\":751:780  50000000000000000000000000000 */\n  0xa18f07d736b90be550000000\n    /* \"@openzeppelin/contracts/token/ERC20/ERC20.sol\":1976:2089  constructor(string memory name_, string memory symbol_) {... */\n  mload(0x40)\n  dup1\n  0x40\n  add\n  0x40\n  mstore\n  dup1\n  0x07\n  dup2\n  mstore\n  0x20\n  add\n  0x58454e446f676500000000000000000000000000000000000000000000000000\n  dup2\n  mstore\n  pop\n  mload(0x40)\n  dup1\n  0x40\n  add\n  0x40\n  mstore\n  dup1\n  0x05\n  dup2\n  mstore\n  0x20\n  add\n  0x58444f4745000000000000000000000000000000000000000000000000000000\n  dup2\n  mstore\n  pop\n    /* \"@openzeppelin/contracts/token/ERC20/ERC20.sol\":2050:2055  name_ */\n  dup2\n    /* \"@openzeppelin/contracts/token/ERC20/ERC20.sol\":2042:2047  _name */\n  0x03\n    /* \"@openzeppelin/contracts/token/ERC20/ERC20.sol\":2042:2055  _name = name_ */\n  swap1\n  dup2\n  tag_6\n  swap2\n  swap1\n  tag_7\n  jump\t// in\ntag_6:\n  pop\n    /* \"@openzeppelin/contracts/token/ERC20/ERC20.sol\":2075:2082  symbol_ */\n  dup1\n    /* \"@openzeppelin/contracts/token/ERC20/ERC20.sol\":2065:2072  _symbol */\n  0x04\n    /* \"@openzeppelin/contracts/token/ERC20/ERC20.sol\":2065:2082  _symbol = symbol_ */\n  swap1\n  dup2\n  tag_8\n  swap2\n  swap1\n  tag_7\n  jump\t// in\ntag_8:\n  pop\n    /* \"@openzeppelin/contracts/token/ERC20/ERC20.sol\":1976:2089  constructor(string memory name_, string memory symbol_) {... */\n  pop\n  pop\n    /* \"@openzeppelin/contracts/token/ERC20/extensions/ERC20Capped.sol\":501:502  0 */\n  0x00\n    /* \"@openzeppelin/contracts/token/ERC20/extensions/ERC20Capped.sol\":494:498  cap_ */\n  dup2\n    /* \"@openzeppelin/contracts/token/ERC20/extensions/ERC20Capped.sol\":494:502  cap_ > 0 */\n  gt\n    /* \"@openzeppelin/contracts/token/ERC20/extensions/ERC20Capped.sol\":486:528  require(cap_ > 0, \"ERC20Capped: cap is 0\") */\n  tag_10\n  jumpi\n  mload(0x40)\n  0x08c379a000000000000000000000000000000000000000000000000000000000\n  dup2\n  mstore\n  0x04\n  add\n  tag_11\n  swap1\n  tag_12\n  jump\t// in\ntag_11:\n  mload(0x40)\n  dup1\n  swap2\n  sub\n  swap1\n  revert\ntag_10:\n    /* \"@openzeppelin/contracts/token/ERC20/extensions/ERC20Capped.sol\":545:549  cap_ */\n  dup1\n    /* \"@openzeppelin/contracts/token/ERC20/extensions/ERC20Capped.sol\":538:549  _cap = cap_ */\n  0x80\n  dup2\n  dup2\n  mstore\n  pop\n  pop\n    /* \"@openzeppelin/contracts/token/ERC20/extensions/ERC20Capped.sol\":450:556  constructor(uint256 cap_) {... */\n  pop\n    /* \"contracts/XENDoge.sol\":343:3883  contract XENDoge is ERC20Capped, IERC165, IBurnRedeemable { ... */\n  jump(tag_14)\n    /* \"#utility.yul\":7:106   */\ntag_15:\n    /* \"#utility.yul\":59:65   */\n  0x00\n    /* \"#utility.yul\":93:98   */\n  dup2\n    /* \"#utility.yul\":87:99   */\n  mload\n    /* \"#utility.yul\":77:99   */\n  swap1\n  pop\n    /* \"#utility.yul\":7:106   */\n  swap2\n  swap1\n  pop\n  jump\t// out\n    /* \"#utility.yul\":112:292   */\ntag_16:\n    /* \"#utility.yul\":160:237   */\n  0x4e487b7100000000000000000000000000000000000000000000000000000000\n    /* \"#utility.yul\":157:158   */\n  0x00\n    /* \"#utility.yul\":150:238   */\n  mstore\n    /* \"#utility.yul\":257:261   */\n  0x41\n    /* \"#utility.yul\":254:255   */\n  0x04\n    /* \"#utility.yul\":247:262   */\n  mstore\n    /* \"#utility.yul\":281:285   */\n  0x24\n    /* \"#utility.yul\":278:279   */\n  0x00\n    /* \"#utility.yul\":271:286   */\n  revert\n    /* \"#utility.yul\":298:478   */\ntag_17:\n    /* \"#utility.yul\":346:423   */\n  0x4e487b7100000000000000000000000000000000000000000000000000000000\n    /* \"#utility.yul\":343:344   */\n  0x00\n    /* \"#utility.yul\":336:424   */\n  mstore\n    /* \"#utility.yul\":443:447   */\n  0x22\n    /* \"#utility.yul\":440:441   */\n  0x04\n    /* \"#utility.yul\":433:448   */\n  mstore\n    /* \"#utility.yul\":467:471   */\n  0x24\n    /* \"#utility.yul\":464:465   */\n  0x00\n    /* \"#utility.yul\":457:472   */\n  revert\n    /* \"#utility.yul\":484:804   */\ntag_18:\n    /* \"#utility.yul\":528:534   */\n  0x00\n    /* \"#utility.yul\":565:566   */\n  0x02\n    /* \"#utility.yul\":559:563   */\n  dup3\n    /* \"#utility.yul\":555:567   */\n  div\n    /* \"#utility.yul\":545:567   */\n  swap1\n  pop\n    /* \"#utility.yul\":612:613   */\n  0x01\n    /* \"#utility.yul\":606:610   */\n  dup3\n    /* \"#utility.yul\":602:614   */\n  and\n    /* \"#utility.yul\":633:651   */\n  dup1\n    /* \"#utility.yul\":623:704   */\n  tag_43\n  jumpi\n    /* \"#utility.yul\":689:693   */\n  0x7f\n    /* \"#utility.yul\":681:687   */\n  dup3\n    /* \"#utility.yul\":677:694   */\n  and\n    /* \"#utility.yul\":667:694   */\n  swap2\n  pop\n    /* \"#utility.yul\":623:704   */\ntag_43:\n    /* \"#utility.yul\":751:753   */\n  0x20\n    /* \"#utility.yul\":743:749   */\n  dup3\n    /* \"#utility.yul\":740:754   */\n  lt\n    /* \"#utility.yul\":720:738   */\n  dup2\n    /* \"#utility.yul\":717:755   */\n  sub\n    /* \"#utility.yul\":714:798   */\n  tag_44\n  jumpi\n    /* \"#utility.yul\":770:788   */\n  tag_45\n  tag_17\n  jump\t// in\ntag_45:\n    /* \"#utility.yul\":714:798   */\ntag_44:\n    /* \"#utility.yul\":535:804   */\n  pop\n    /* \"#utility.yul\":484:804   */\n  swap2\n  swap1\n  pop\n  jump\t// out\n    /* \"#utility.yul\":810:951   */\ntag_19:\n    /* \"#utility.yul\":859:863   */\n  0x00\n    /* \"#utility.yul\":882:885   */\n  dup2\n    /* \"#utility.yul\":874:885   */\n  swap1\n  pop\n    /* \"#utility.yul\":905:908   */\n  dup2\n    /* \"#utility.yul\":902:903   */\n  0x00\n    /* \"#utility.yul\":895:909   */\n  mstore\n    /* \"#utility.yul\":939:943   */\n  0x20\n    /* \"#utility.yul\":936:937   */\n  0x00\n    /* \"#utility.yul\":926:944   */\n  keccak256\n    /* \"#utility.yul\":918:944   */\n  swap1\n  pop\n    /* \"#utility.yul\":810:951   */\n  swap2\n  swap1\n  pop\n  jump\t// out\n    /* \"#utility.yul\":957:1050   */\ntag_20:\n    /* \"#utility.yul\":994:1000   */\n  0x00\n    /* \"#utility.yul\":1041:1043   */\n  0x20\n    /* \"#utility.yul\":1036:1038   */\n  0x1f\n    /* \"#utility.yul\":1029:1034   */\n  dup4\n    /* \"#utility.yul\":1025:1039   */\n  add\n    /* \"#utility.yul\":1021:1044   */\n  div\n    /* \"#utility.yul\":1011:1044   */\n  swap1\n  pop\n    /* \"#utility.yul\":957:1050   */\n  swap2\n  swap1\n  pop\n  jump\t// out\n    /* \"#utility.yul\":1056:1163   */\ntag_21:\n    /* \"#utility.yul\":1100:1108   */\n  0x00\n    /* \"#utility.yul\":1150:1155   */\n  dup3\n    /* \"#utility.yul\":1144:1148   */\n  dup3\n    /* \"#utility.yul\":1140:1156   */\n  shl\n    /* \"#utility.yul\":1119:1156   */\n  swap1\n  pop\n    /* \"#utility.yul\":1056:1163   */\n  swap3\n  swap2\n  pop\n  pop\n  jump\t// out\n    /* \"#utility.yul\":1169:1562   */\ntag_22:\n    /* \"#utility.yul\":1238:1244   */\n  0x00\n    /* \"#utility.yul\":1288:1289   */\n  0x08\n    /* \"#utility.yul\":1276:1286   */\n  dup4\n    /* \"#utility.yul\":1272:1290   */\n  mul\n    /* \"#utility.yul\":1311:1408   */\n  tag_50\n    /* \"#utility.yul\":1341:1407   */\n  0xffffffffffffffffffffffffffffffffffffffffffffffffffffffffffffffff\n    /* \"#utility.yul\":1330:1339   */\n  dup3\n    /* \"#utility.yul\":1311:1408   */\n  tag_21\n  jump\t// in\ntag_50:\n    /* \"#utility.yul\":1429:1468   */\n  tag_51\n    /* \"#utility.yul\":1459:1467   */\n  dup7\n    /* \"#utility.yul\":1448:1457   */\n  dup4\n    /* \"#utility.yul\":1429:1468   */\n  tag_21\n  jump\t// in\ntag_51:\n    /* \"#utility.yul\":1417:1468   */\n  swap6\n  pop\n    /* \"#utility.yul\":1501:1505   */\n  dup1\n    /* \"#utility.yul\":1497:1506   */\n  not\n    /* \"#utility.yul\":1490:1495   */\n  dup5\n    /* \"#utility.yul\":1486:1507   */\n  and\n    /* \"#utility.yul\":1477:1507   */\n  swap4\n  pop\n    /* \"#utility.yul\":1550:1554   */\n  dup1\n    /* \"#utility.yul\":1540:1548   */\n  dup7\n    /* \"#utility.yul\":1536:1555   */\n  and\n    /* \"#utility.yul\":1529:1534   */\n  dup5\n    /* \"#utility.yul\":1526:1556   */\n  or\n    /* \"#utility.yul\":1516:1556   */\n  swap3\n  pop\n    /* \"#utility.yul\":1245:1562   */\n  pop\n  pop\n    /* \"#utility.yul\":1169:1562   */\n  swap4\n  swap3\n  pop\n  pop\n  pop\n  jump\t// out\n    /* \"#utility.yul\":1568:1645   */\ntag_23:\n    /* \"#utility.yul\":1605:1612   */\n  0x00\n    /* \"#utility.yul\":1634:1639   */\n  dup2\n    /* \"#utility.yul\":1623:1639   */\n  swap1\n  pop\n    /* \"#utility.yul\":1568:1645   */\n  swap2\n  swap1\n  pop\n  jump\t// out\n    /* \"#utility.yul\":1651:1711   */\ntag_24:\n    /* \"#utility.yul\":1679:1682   */\n  0x00\n    /* \"#utility.yul\":1700:1705   */\n  dup2\n    /* \"#utility.yul\":1693:1705   */\n  swap1\n  pop\n    /* \"#utility.yul\":1651:1711   */\n  swap2\n  swap1\n  pop\n  jump\t// out\n    /* \"#utility.yul\":1717:1859   */\ntag_25:\n    /* \"#utility.yul\":1767:1776   */\n  0x00\n    /* \"#utility.yul\":1800:1853   */\n  tag_55\n    /* \"#utility.yul\":1818:1852   */\n  tag_56\n    /* \"#utility.yul\":1827:1851   */\n  tag_57\n    /* \"#utility.yul\":1845:1850   */\n  dup5\n    /* \"#utility.yul\":1827:1851   */\n  tag_23\n  jump\t// in\ntag_57:\n    /* \"#utility.yul\":1818:1852   */\n  tag_24\n  jump\t// in\ntag_56:\n    /* \"#utility.yul\":1800:1853   */\n  tag_23\n  jump\t// in\ntag_55:\n    /* \"#utility.yul\":1787:1853   */\n  swap1\n  pop\n    /* \"#utility.yul\":1717:1859   */\n  swap2\n  swap1\n  pop\n  jump\t// out\n    /* \"#utility.yul\":1865:1940   */\ntag_26:\n    /* \"#utility.yul\":1908:1911   */\n  0x00\n    /* \"#utility.yul\":1929:1934   */\n  dup2\n    /* \"#utility.yul\":1922:1934   */\n  swap1\n  pop\n    /* \"#utility.yul\":1865:1940   */\n  swap2\n  swap1\n  pop\n  jump\t// out\n    /* \"#utility.yul\":1946:2215   */\ntag_27:\n    /* \"#utility.yul\":2056:2095   */\n  tag_60\n    /* \"#utility.yul\":2087:2094   */\n  dup4\n    /* \"#utility.yul\":2056:2095   */\n  tag_25\n  jump\t// in\ntag_60:\n    /* \"#utility.yul\":2117:2208   */\n  tag_61\n    /* \"#utility.yul\":2166:2207   */\n  tag_62\n    /* \"#utility.yul\":2190:2206   */\n  dup3\n    /* \"#utility.yul\":2166:2207   */\n  tag_26\n  jump\t// in\ntag_62:\n    /* \"#utility.yul\":2158:2164   */\n  dup5\n    /* \"#utility.yul\":2151:2155   */\n  dup5\n    /* \"#utility.yul\":2145:2156   */\n  sload\n    /* \"#utility.yul\":2117:2208   */\n  tag_22\n  jump\t// in\ntag_61:\n    /* \"#utility.yul\":2111:2115   */\n  dup3\n    /* \"#utility.yul\":2104:2209   */\n  sstore\n    /* \"#utility.yul\":2022:2215   */\n  pop\n    /* \"#utility.yul\":1946:2215   */\n  pop\n  pop\n  pop\n  jump\t// out\n    /* \"#utility.yul\":2221:2294   */\ntag_28:\n    /* \"#utility.yul\":2266:2269   */\n  0x00\n    /* \"#utility.yul\":2221:2294   */\n  swap1\n  jump\t// out\n    /* \"#utility.yul\":2300:2489   */\ntag_29:\n    /* \"#utility.yul\":2377:2409   */\n  tag_65\n  tag_28\n  jump\t// in\ntag_65:\n    /* \"#utility.yul\":2418:2483   */\n  tag_66\n    /* \"#utility.yul\":2476:2482   */\n  dup2\n    /* \"#utility.yul\":2468:2474   */\n  dup5\n    /* \"#utility.yul\":2462:2466   */\n  dup5\n    /* \"#utility.yul\":2418:2483   */\n  tag_27\n  jump\t// in\ntag_66:\n    /* \"#utility.yul\":2353:2489   */\n  pop\n    /* \"#utility.yul\":2300:2489   */\n  pop\n  pop\n  jump\t// out\n    /* \"#utility.yul\":2495:2681   */\ntag_30:\n    /* \"#utility.yul\":2555:2675   */\ntag_68:\n    /* \"#utility.yul\":2572:2575   */\n  dup2\n    /* \"#utility.yul\":2565:2570   */\n  dup2\n    /* \"#utility.yul\":2562:2576   */\n  lt\n    /* \"#utility.yul\":2555:2675   */\n  iszero\n  tag_70\n  jumpi\n    /* \"#utility.yul\":2626:2665   */\n  tag_71\n    /* \"#utility.yul\":2663:2664   */\n  0x00\n    /* \"#utility.yul\":2656:2661   */\n  dup3\n    /* \"#utility.yul\":2626:2665   */\n  tag_29\n  jump\t// in\ntag_71:\n    /* \"#utility.yul\":2599:2600   */\n  0x01\n    /* \"#utility.yul\":2592:2597   */\n  dup2\n    /* \"#utility.yul\":2588:2601   */\n  add\n    /* \"#utility.yul\":2579:2601   */\n  swap1\n  pop\n    /* \"#utility.yul\":2555:2675   */\n  jump(tag_68)\ntag_70:\n    /* \"#utility.yul\":2495:2681   */\n  pop\n  pop\n  jump\t// out\n    /* \"#utility.yul\":2687:3230   */\ntag_31:\n    /* \"#utility.yul\":2788:2790   */\n  0x1f\n    /* \"#utility.yul\":2783:2786   */\n  dup3\n    /* \"#utility.yul\":2780:2791   */\n  gt\n    /* \"#utility.yul\":2777:3223   */\n  iszero\n  tag_73\n  jumpi\n    /* \"#utility.yul\":2822:2860   */\n  tag_74\n    /* \"#utility.yul\":2854:2859   */\n  dup2\n    /* \"#utility.yul\":2822:2860   */\n  tag_19\n  jump\t// in\ntag_74:\n    /* \"#utility.yul\":2906:2935   */\n  tag_75\n    /* \"#utility.yul\":2924:2934   */\n  dup5\n    /* \"#utility.yul\":2906:2935   */\n  tag_20\n  jump\t// in\ntag_75:\n    /* \"#utility.yul\":2896:2904   */\n  dup2\n    /* \"#utility.yul\":2892:2936   */\n  add\n    /* \"#utility.yul\":3089:3091   */\n  0x20\n    /* \"#utility.yul\":3077:3087   */\n  dup6\n    /* \"#utility.yul\":3074:3092   */\n  lt\n    /* \"#utility.yul\":3071:3120   */\n  iszero\n  tag_76\n  jumpi\n    /* \"#utility.yul\":3110:3118   */\n  dup2\n    /* \"#utility.yul\":3095:3118   */\n  swap1\n  pop\n    /* \"#utility.yul\":3071:3120   */\ntag_76:\n    /* \"#utility.yul\":3133:3213   */\n  tag_77\n    /* \"#utility.yul\":3189:3211   */\n  tag_78\n    /* \"#utility.yul\":3207:3210   */\n  dup6\n    /* \"#utility.yul\":3189:3211   */\n  tag_20\n  jump\t// in\ntag_78:\n    /* \"#utility.yul\":3179:3187   */\n  dup4\n    /* \"#utility.yul\":3175:3212   */\n  add\n    /* \"#utility.yul\":3162:3173   */\n  dup3\n    /* \"#utility.yul\":3133:3213   */\n  tag_30\n  jump\t// in\ntag_77:\n    /* \"#utility.yul\":2792:3223   */\n  pop\n  pop\n    /* \"#utility.yul\":2777:3223   */\ntag_73:\n    /* \"#utility.yul\":2687:3230   */\n  pop\n  pop\n  pop\n  jump\t// out\n    /* \"#utility.yul\":3236:3353   */\ntag_32:\n    /* \"#utility.yul\":3290:3298   */\n  0x00\n    /* \"#utility.yul\":3340:3345   */\n  dup3\n    /* \"#utility.yul\":3334:3338   */\n  dup3\n    /* \"#utility.yul\":3330:3346   */\n  shr\n    /* \"#utility.yul\":3309:3346   */\n  swap1\n  pop\n    /* \"#utility.yul\":3236:3353   */\n  swap3\n  swap2\n  pop\n  pop\n  jump\t// out\n    /* \"#utility.yul\":3359:3528   */\ntag_33:\n    /* \"#utility.yul\":3403:3409   */\n  0x00\n    /* \"#utility.yul\":3436:3487   */\n  tag_81\n    /* \"#utility.yul\":3484:3485   */\n  0x00\n    /* \"#utility.yul\":3480:3486   */\n  not\n    /* \"#utility.yul\":3472:3477   */\n  dup5\n    /* \"#utility.yul\":3469:3470   */\n  0x08\n    /* \"#utility.yul\":3465:3478   */\n  mul\n    /* \"#utility.yul\":3436:3487   */\n  tag_32\n  jump\t// in\ntag_81:\n    /* \"#utility.yul\":3432:3488   */\n  not\n    /* \"#utility.yul\":3517:3521   */\n  dup1\n    /* \"#utility.yul\":3511:3515   */\n  dup4\n    /* \"#utility.yul\":3507:3522   */\n  and\n    /* \"#utility.yul\":3497:3522   */\n  swap2\n  pop\n    /* \"#utility.yul\":3410:3528   */\n  pop\n    /* \"#utility.yul\":3359:3528   */\n  swap3\n  swap2\n  pop\n  pop\n  jump\t// out\n    /* \"#utility.yul\":3533:3828   */\ntag_34:\n    /* \"#utility.yul\":3609:3613   */\n  0x00\n    /* \"#utility.yul\":3755:3784   */\n  tag_83\n    /* \"#utility.yul\":3780:3783   */\n  dup4\n    /* \"#utility.yul\":3774:3778   */\n  dup4\n    /* \"#utility.yul\":3755:3784   */\n  tag_33\n  jump\t// in\ntag_83:\n    /* \"#utility.yul\":3747:3784   */\n  swap2\n  pop\n    /* \"#utility.yul\":3817:3820   */\n  dup3\n    /* \"#utility.yul\":3814:3815   */\n  0x02\n    /* \"#utility.yul\":3810:3821   */\n  mul\n    /* \"#utility.yul\":3804:3808   */\n  dup3\n    /* \"#utility.yul\":3801:3822   */\n  or\n    /* \"#utility.yul\":3793:3822   */\n  swap1\n  pop\n    /* \"#utility.yul\":3533:3828   */\n  swap3\n  swap2\n  pop\n  pop\n  jump\t// out\n    /* \"#utility.yul\":3833:5228   */\ntag_7:\n    /* \"#utility.yul\":3950:3987   */\n  tag_85\n    /* \"#utility.yul\":3983:3986   */\n  dup3\n    /* \"#utility.yul\":3950:3987   */\n  tag_15\n  jump\t// in\ntag_85:\n    /* \"#utility.yul\":4052:4070   */\n  0xffffffffffffffff\n    /* \"#utility.yul\":4044:4050   */\n  dup2\n    /* \"#utility.yul\":4041:4071   */\n  gt\n    /* \"#utility.yul\":4038:4094   */\n  iszero\n  tag_86\n  jumpi\n    /* \"#utility.yul\":4074:4092   */\n  tag_87\n  tag_16\n  jump\t// in\ntag_87:\n    /* \"#utility.yul\":4038:4094   */\ntag_86:\n    /* \"#utility.yul\":4118:4156   */\n  tag_88\n    /* \"#utility.yul\":4150:4154   */\n  dup3\n    /* \"#utility.yul\":4144:4155   */\n  sload\n    /* \"#utility.yul\":4118:4156   */\n  tag_18\n  jump\t// in\ntag_88:\n    /* \"#utility.yul\":4203:4270   */\n  tag_89\n    /* \"#utility.yul\":4263:4269   */\n  dup3\n    /* \"#utility.yul\":4255:4261   */\n  dup3\n    /* \"#utility.yul\":4249:4253   */\n  dup6\n    /* \"#utility.yul\":4203:4270   */\n  tag_31\n  jump\t// in\ntag_89:\n    /* \"#utility.yul\":4297:4298   */\n  0x00\n    /* \"#utility.yul\":4321:4325   */\n  0x20\n    /* \"#utility.yul\":4308:4325   */\n  swap1\n  pop\n    /* \"#utility.yul\":4353:4355   */\n  0x1f\n    /* \"#utility.yul\":4345:4351   */\n  dup4\n    /* \"#utility.yul\":4342:4356   */\n  gt\n    /* \"#utility.yul\":4370:4371   */\n  0x01\n    /* \"#utility.yul\":4365:4983   */\n  dup2\n  eq\n  tag_91\n  jumpi\n    /* \"#utility.yul\":5027:5028   */\n  0x00\n    /* \"#utility.yul\":5044:5050   */\n  dup5\n    /* \"#utility.yul\":5041:5118   */\n  iszero\n  tag_92\n  jumpi\n    /* \"#utility.yul\":5093:5102   */\n  dup3\n    /* \"#utility.yul\":5088:5091   */\n  dup8\n    /* \"#utility.yul\":5084:5103   */\n  add\n    /* \"#utility.yul\":5078:5104   */\n  mload\n    /* \"#utility.yul\":5069:5104   */\n  swap1\n  pop\n    /* \"#utility.yul\":5041:5118   */\ntag_92:\n    /* \"#utility.yul\":5144:5211   */\n  tag_93\n    /* \"#utility.yul\":5204:5210   */\n  dup6\n    /* \"#utility.yul\":5197:5202   */\n  dup3\n    /* \"#utility.yul\":5144:5211   */\n  tag_34\n  jump\t// in\ntag_93:\n    /* \"#utility.yul\":5138:5142   */\n  dup7\n    /* \"#utility.yul\":5131:5212   */\n  sstore\n    /* \"#utility.yul\":5000:5222   */\n  pop\n    /* \"#utility.yul\":4335:5222   */\n  jump(tag_90)\n    /* \"#utility.yul\":4365:4983   */\ntag_91:\n    /* \"#utility.yul\":4417:4421   */\n  0x1f\n    /* \"#utility.yul\":4413:4422   */\n  not\n    /* \"#utility.yul\":4405:4411   */\n  dup5\n    /* \"#utility.yul\":4401:4423   */\n  and\n    /* \"#utility.yul\":4451:4488   */\n  tag_94\n    /* \"#utility.yul\":4483:4487   */\n  dup7\n    /* \"#utility.yul\":4451:4488   */\n  tag_19\n  jump\t// in\ntag_94:\n    /* \"#utility.yul\":4510:4511   */\n  0x00\n    /* \"#utility.yul\":4524:4732   */\ntag_95:\n    /* \"#utility.yul\":4538:4545   */\n  dup3\n    /* \"#utility.yul\":4535:4536   */\n  dup2\n    /* \"#utility.yul\":4532:4546   */\n  lt\n    /* \"#utility.yul\":4524:4732   */\n  iszero\n  tag_97\n  jumpi\n    /* \"#utility.yul\":4617:4626   */\n  dup5\n    /* \"#utility.yul\":4612:4615   */\n  dup10\n    /* \"#utility.yul\":4608:4627   */\n  add\n    /* \"#utility.yul\":4602:4628   */\n  mload\n    /* \"#utility.yul\":4594:4600   */\n  dup3\n    /* \"#utility.yul\":4587:4629   */\n  sstore\n    /* \"#utility.yul\":4668:4669   */\n  0x01\n    /* \"#utility.yul\":4660:4666   */\n  dup3\n    /* \"#utility.yul\":4656:4670   */\n  add\n    /* \"#utility.yul\":4646:4670   */\n  swap2\n  pop\n    /* \"#utility.yul\":4715:4717   */\n  0x20\n    /* \"#utility.yul\":4704:4713   */\n  dup6\n    /* \"#utility.yul\":4700:4718   */\n  add\n    /* \"#utility.yul\":4687:4718   */\n  swap5\n  pop\n    /* \"#utility.yul\":4561:4565   */\n  0x20\n    /* \"#utility.yul\":4558:4559   */\n  dup2\n    /* \"#utility.yul\":4554:4566   */\n  add\n    /* \"#utility.yul\":4549:4566   */\n  swap1\n  pop\n    /* \"#utility.yul\":4524:4732   */\n  jump(tag_95)\ntag_97:\n    /* \"#utility.yul\":4760:4766   */\n  dup7\n    /* \"#utility.yul\":4751:4758   */\n  dup4\n    /* \"#utility.yul\":4748:4767   */\n  lt\n    /* \"#utility.yul\":4745:4924   */\n  iszero\n  tag_98\n  jumpi\n    /* \"#utility.yul\":4818:4827   */\n  dup5\n    /* \"#utility.yul\":4813:4816   */\n  dup10\n    /* \"#utility.yul\":4809:4828   */\n  add\n    /* \"#utility.yul\":4803:4829   */\n  mload\n    /* \"#utility.yul\":4861:4909   */\n  tag_99\n    /* \"#utility.yul\":4903:4907   */\n  0x1f\n    /* \"#utility.yul\":4895:4901   */\n  dup10\n    /* \"#utility.yul\":4891:4908   */\n  and\n    /* \"#utility.yul\":4880:4889   */\n  dup3\n    /* \"#utility.yul\":4861:4909   */\n  tag_33\n  jump\t// in\ntag_99:\n    /* \"#utility.yul\":4853:4859   */\n  dup4\n    /* \"#utility.yul\":4846:4910   */\n  sstore\n    /* \"#utility.yul\":4768:4924   */\n  pop\n    /* \"#utility.yul\":4745:4924   */\ntag_98:\n    /* \"#utility.yul\":4970:4971   */\n  0x01\n    /* \"#utility.yul\":4966:4967   */\n  0x02\n    /* \"#utility.yul\":4958:4964   */\n  dup9\n    /* \"#utility.yul\":4954:4968   */\n  mul\n    /* \"#utility.yul\":4950:4972   */\n  add\n    /* \"#utility.yul\":4944:4948   */\n  dup9\n    /* \"#utility.yul\":4937:4973   */\n  sstore\n    /* \"#utility.yul\":4372:4983   */\n  pop\n  pop\n  pop\n    /* \"#utility.yul\":4335:5222   */\ntag_90:\n  pop\n    /* \"#utility.yul\":3925:5228   */\n  pop\n  pop\n  pop\n    /* \"#utility.yul\":3833:5228   */\n  pop\n  pop\n  jump\t// out\n    /* \"#utility.yul\":5234:5403   */\ntag_35:\n    /* \"#utility.yul\":5318:5329   */\n  0x00\n    /* \"#utility.yul\":5352:5358   */\n  dup3\n    /* \"#utility.yul\":5347:5350   */\n  dup3\n    /* \"#utility.yul\":5340:5359   */\n  mstore\n    /* \"#utility.yul\":5392:5396   */\n  0x20\n    /* \"#utility.yul\":5387:5390   */\n  dup3\n    /* \"#utility.yul\":5383:5397   */\n  add\n    /* \"#utility.yul\":5368:5397   */\n  swap1\n  pop\n    /* \"#utility.yul\":5234:5403   */\n  swap3\n  swap2\n  pop\n  pop\n  jump\t// out\n    /* \"#utility.yul\":5409:5580   */\ntag_36:\n    /* \"#utility.yul\":5549:5572   */\n  0x45524332304361707065643a2063617020697320300000000000000000000000\n    /* \"#utility.yul\":5545:5546   */\n  0x00\n    /* \"#utility.yul\":5537:5543   */\n  dup3\n    /* \"#utility.yul\":5533:5547   */\n  add\n    /* \"#utility.yul\":5526:5573   */\n  mstore\n    /* \"#utility.yul\":5409:5580   */\n  pop\n  jump\t// out\n    /* \"#utility.yul\":5586:5952   */\ntag_37:\n    /* \"#utility.yul\":5728:5731   */\n  0x00\n    /* \"#utility.yul\":5749:5816   */\n  tag_103\n    /* \"#utility.yul\":5813:5815   */\n  0x15\n    /* \"#utility.yul\":5808:5811   */\n  dup4\n    /* \"#utility.yul\":5749:5816   */\n  tag_35\n  jump\t// in\ntag_103:\n    /* \"#utility.yul\":5742:5816   */\n  swap2\n  pop\n    /* \"#utility.yul\":5825:5918   */\n  tag_104\n    /* \"#utility.yul\":5914:5917   */\n  dup3\n    /* \"#utility.yul\":5825:5918   */\n  tag_36\n  jump\t// in\ntag_104:\n    /* \"#utility.yul\":5943:5945   */\n  0x20\n    /* \"#utility.yul\":5938:5941   */\n  dup3\n    /* \"#utility.yul\":5934:5946   */\n  add\n    /* \"#utility.yul\":5927:5946   */\n  swap1\n  pop\n    /* \"#utility.yul\":5586:5952   */\n  swap2\n  swap1\n  pop\n  jump\t// out\n    /* \"#utility.yul\":5958:6377   */\ntag_12:\n    /* \"#utility.yul\":6124:6128   */\n  0x00\n    /* \"#utility.yul\":6162:6164   */\n  0x20\n    /* \"#utility.yul\":6151:6160   */\n  dup3\n    /* \"#utility.yul\":6147:6165   */\n  add\n    /* \"#utility.yul\":6139:6165   */\n  swap1\n  pop\n    /* \"#utility.yul\":6211:6220   */\n  dup2\n    /* \"#utility.yul\":6205:6209   */\n  dup2\n    /* \"#utility.yul\":6201:6221   */\n  sub\n    /* \"#utility.yul\":6197:6198   */\n  0x00\n    /* \"#utility.yul\":6186:6195   */\n  dup4\n    /* \"#utility.yul\":6182:6199   */\n  add\n    /* \"#utility.yul\":6175:6222   */\n  mstore\n    /* \"#utility.yul\":6239:6370   */\n  tag_106\n    /* \"#utility.yul\":6365:6369   */\n  dup2\n    /* \"#utility.yul\":6239:6370   */\n  tag_37\n  jump\t// in\ntag_106:\n    /* \"#utility.yul\":6231:6370   */\n  swap1\n  pop\n    /* \"#utility.yul\":5958:6377   */\n  swap2\n  swap1\n  pop\n  jump\t// out\n    /* \"contracts/XENDoge.sol\":343:3883  contract XENDoge is ERC20Capped, IERC165, IBurnRedeemable { ... */\ntag_14:\n  mload(0x80)\n  codecopy(0x00, dataOffset(sub_0), dataSize(sub_0))\n  0x00\n  assignImmutable(\"0x3458437a5f15baa46336263fead0d1d72e4acda03961eb239e7d1c02a1c98ad3\")\n  return(0x00, dataSize(sub_0))\nstop\n\nsub_0: assembly {\n        /* \"contracts/XENDoge.sol\":343:3883  contract XENDoge is ERC20Capped, IERC165, IBurnRedeemable { ... */\n      mstore(0x40, 0x80)\n      jumpi(tag_1, lt(calldatasize, 0x04))\n      shr(0xe0, calldataload(0x00))\n      dup1\n      0x543746b1\n      gt\n      tag_21\n      jumpi\n      dup1\n      0xa457c2d7\n      gt\n      tag_22\n      jumpi\n      dup1\n      0xa457c2d7\n      eq\n      tag_16\n      jumpi\n      dup1\n      0xa9059cbb\n      eq\n      tag_17\n      jumpi\n      dup1\n      0xbc1d089a\n      eq\n      tag_18\n      jumpi\n      dup1\n      0xdd62ed3e\n      eq\n      tag_19\n      jumpi\n      dup1\n      0xf8e726d1\n      eq\n      tag_20\n      jumpi\n      jump(tag_1)\n    tag_22:\n      dup1\n      0x543746b1\n      eq\n      tag_11\n      jumpi\n      dup1\n      0x579436fc\n      eq\n      tag_12\n      jumpi\n      dup1\n      0x6630a05e\n      eq\n      tag_13\n      jumpi\n      dup1\n      0x70a08231\n      eq\n      tag_14\n      jumpi\n      dup1\n      0x95d89b41\n      eq\n      tag_15\n      jumpi\n      jump(tag_1)\n    tag_21:\n      dup1\n      0x1a6cef14\n      gt\n      tag_23\n      jumpi\n      dup1\n      0x1a6cef14\n      eq\n      tag_6\n      jumpi\n      dup1\n      0x23b872dd\n      eq\n      tag_7\n      jumpi\n      dup1\n      0x313ce567\n      eq\n      tag_8\n      jumpi\n      dup1\n      0x355274ea\n      eq\n      tag_9\n      jumpi\n      dup1\n      0x39509351\n      eq\n      tag_10\n      jumpi\n      jump(tag_1)\n    tag_23:\n      dup1\n      0x01ffc9a7\n      eq\n      tag_2\n      jumpi\n      dup1\n      0x06fdde03\n      eq\n      tag_3\n      jumpi\n      dup1\n      0x095ea7b3\n      eq\n      tag_4\n      jumpi\n      dup1\n      0x18160ddd\n      eq\n      tag_5\n      jumpi\n    tag_1:\n      0x00\n      dup1\n      revert\n        /* \"contracts/XENDoge.sol\":792:1007  function supportsInterface(bytes4 interfaceId) public view virtual override returns (bool) {... */\n    tag_2:\n      callvalue\n      dup1\n      iszero\n      tag_24\n      jumpi\n      0x00\n      dup1\n      revert\n    tag_24:\n      pop\n      tag_25\n      0x04\n      dup1\n      calldatasize\n      sub\n      dup2\n      add\n      swap1\n      tag_26\n      swap2\n      swap1\n      tag_27\n      jump\t// in\n    tag_26:\n      tag_28\n      jump\t// in\n    tag_25:\n      mload(0x40)\n      tag_29\n      swap2\n      swap1\n      tag_30\n      jump\t// in\n    tag_29:\n      mload(0x40)\n      dup1\n      swap2\n      sub\n      swap1\n      return\n        /* \"@openzeppelin/contracts/token/ERC20/ERC20.sol\":2154:2252  function name() public view virtual override returns (string memory) {... */\n    tag_3:\n      callvalue\n      dup1\n      iszero\n      tag_31\n      jumpi\n      0x00\n      dup1\n      revert\n    tag_31:\n      pop\n      tag_32\n      tag_33\n      jump\t// in\n    tag_32:\n      mload(0x40)\n      tag_34\n      swap2\n      swap1\n      tag_35\n      jump\t// in\n    tag_34:\n      mload(0x40)\n      dup1\n      swap2\n      sub\n      swap1\n      return\n        /* \"@openzeppelin/contracts/token/ERC20/ERC20.sol\":4431:4628  function approve(address spender, uint256 amount) public virtual override returns (bool) {... */\n    tag_4:\n      callvalue\n      dup1\n      iszero\n      tag_36\n      jumpi\n      0x00\n      dup1\n      revert\n    tag_36:\n      pop\n      tag_37\n      0x04\n      dup1\n      calldatasize\n      sub\n      dup2\n      add\n      swap1\n      tag_38\n      swap2\n      swap1\n      tag_39\n      jump\t// in\n    tag_38:\n      tag_40\n      jump\t// in\n    tag_37:\n      mload(0x40)\n      tag_41\n      swap2\n      swap1\n      tag_30\n      jump\t// in\n    tag_41:\n      mload(0x40)\n      dup1\n      swap2\n      sub\n      swap1\n      return\n        /* \"@openzeppelin/contracts/token/ERC20/ERC20.sol\":3242:3348  function totalSupply() public view virtual override returns (uint256) {... */\n    tag_5:\n      callvalue\n      dup1\n      iszero\n      tag_42\n      jumpi\n      0x00\n      dup1\n      revert\n    tag_42:\n      pop\n      tag_43\n      tag_44\n      jump\t// in\n    tag_43:\n      mload(0x40)\n      tag_45\n      swap2\n      swap1\n      tag_46\n      jump\t// in\n    tag_45:\n      mload(0x40)\n      dup1\n      swap2\n      sub\n      swap1\n      return\n        /* \"contracts/XENDoge.sol\":605:650  uint256 public constant XEN_BURN_RATIO = 1000 */\n    tag_6:\n      callvalue\n      dup1\n      iszero\n      tag_47\n      jumpi\n      0x00\n      dup1\n      revert\n    tag_47:\n      pop\n      tag_48\n      tag_49\n      jump\t// in\n    tag_48:\n      mload(0x40)\n      tag_50\n      swap2\n      swap1\n      tag_46\n      jump\t// in\n    tag_50:\n      mload(0x40)\n      dup1\n      swap2\n      sub\n      swap1\n      return\n        /* \"@openzeppelin/contracts/token/ERC20/ERC20.sol\":5190:5476  function transferFrom(... */\n    tag_7:\n      callvalue\n      dup1\n      iszero\n      tag_51\n      jumpi\n      0x00\n      dup1\n      revert\n    tag_51:\n      pop\n      tag_52\n      0x04\n      dup1\n      calldatasize\n      sub\n      dup2\n      add\n      swap1\n      tag_53\n      swap2\n      swap1\n      tag_54\n      jump\t// in\n    tag_53:\n      tag_55\n      jump\t// in\n    tag_52:\n      mload(0x40)\n      tag_56\n      swap2\n      swap1\n      tag_30\n      jump\t// in\n    tag_56:\n      mload(0x40)\n      dup1\n      swap2\n      sub\n      swap1\n      return\n        /* \"@openzeppelin/contracts/token/ERC20/ERC20.sol\":3091:3182  function decimals() public view virtual override returns (uint8) {... */\n    tag_8:\n      callvalue\n      dup1\n      iszero\n      tag_57\n      jumpi\n      0x00\n      dup1\n      revert\n    tag_57:\n      pop\n      tag_58\n      tag_59\n      jump\t// in\n    tag_58:\n      mload(0x40)\n      tag_60\n      swap2\n      swap1\n      tag_61\n      jump\t// in\n    tag_60:\n      mload(0x40)\n      dup1\n      swap2\n      sub\n      swap1\n      return\n        /* \"@openzeppelin/contracts/token/ERC20/extensions/ERC20Capped.sol\":635:716  function cap() public view virtual returns (uint256) {... */\n    tag_9:\n      callvalue\n      dup1\n      iszero\n      tag_62\n      jumpi\n      0x00\n      dup1\n      revert\n    tag_62:\n      pop\n      tag_63\n      tag_64\n      jump\t// in\n    tag_63:\n      mload(0x40)\n      tag_65\n      swap2\n      swap1\n      tag_46\n      jump\t// in\n    tag_65:\n      mload(0x40)\n      dup1\n      swap2\n      sub\n      swap1\n      return\n        /* \"@openzeppelin/contracts/token/ERC20/ERC20.sol\":5871:6105  function increaseAllowance(address spender, uint256 addedValue) public virtual returns (bool) {... */\n    tag_10:\n      callvalue\n      dup1\n      iszero\n      tag_66\n      jumpi\n      0x00\n      dup1\n      revert\n    tag_66:\n      pop\n      tag_67\n      0x04\n      dup1\n      calldatasize\n      sub\n      dup2\n      add\n      swap1\n      tag_68\n      swap2\n      swap1\n      tag_39\n      jump\t// in\n    tag_68:\n      tag_69\n      jump\t// in\n    tag_67:\n      mload(0x40)\n      tag_70\n      swap2\n      swap1\n      tag_30\n      jump\t// in\n    tag_70:\n      mload(0x40)\n      dup1\n      swap2\n      sub\n      swap1\n      return\n        /* \"contracts/XENDoge.sol\":1185:1698  function onTokenBurned(address user, uint256 amount) external {... */\n    tag_11:\n      callvalue\n      dup1\n      iszero\n      tag_71\n      jumpi\n      0x00\n      dup1\n      revert\n    tag_71:\n      pop\n      tag_72\n      0x04\n      dup1\n      calldatasize\n      sub\n      dup2\n      add\n      swap1\n      tag_73\n      swap2\n      swap1\n      tag_39\n      jump\t// in\n    tag_73:\n      tag_74\n      jump\t// in\n    tag_72:\n      stop\n        /* \"contracts/XENDoge.sol\":657:690  uint256 public totalXenBurned = 0 */\n    tag_12:\n      callvalue\n      dup1\n      iszero\n      tag_75\n      jumpi\n      0x00\n      dup1\n      revert\n    tag_75:\n      pop\n      tag_76\n      tag_77\n      jump\t// in\n    tag_76:\n      mload(0x40)\n      tag_78\n      swap2\n      swap1\n      tag_46\n      jump\t// in\n    tag_78:\n      mload(0x40)\n      dup1\n      swap2\n      sub\n      swap1\n      return\n        /* \"contracts/XENDoge.sol\":1015:1177  function burnXEN(uint256 xen) public payable {... */\n    tag_13:\n      tag_79\n      0x04\n      dup1\n      calldatasize\n      sub\n      dup2\n      add\n      swap1\n      tag_80\n      swap2\n      swap1\n      tag_81\n      jump\t// in\n    tag_80:\n      tag_82\n      jump\t// in\n    tag_79:\n      stop\n        /* \"@openzeppelin/contracts/token/ERC20/ERC20.sol\":3406:3531  function balanceOf(address account) public view virtual override returns (uint256) {... */\n    tag_14:\n      callvalue\n      dup1\n      iszero\n      tag_83\n      jumpi\n      0x00\n      dup1\n      revert\n    tag_83:\n      pop\n      tag_84\n      0x04\n      dup1\n      calldatasize\n      sub\n      dup2\n      add\n      swap1\n      tag_85\n      swap2\n      swap1\n      tag_86\n      jump\t// in\n    tag_85:\n      tag_87\n      jump\t// in\n    tag_84:\n      mload(0x40)\n      tag_88\n      swap2\n      swap1\n      tag_46\n      jump\t// in\n    tag_88:\n      mload(0x40)\n      dup1\n      swap2\n      sub\n      swap1\n      return\n        /* \"@openzeppelin/contracts/token/ERC20/ERC20.sol\":2365:2467  function symbol() public view virtual override returns (string memory) {... */\n    tag_15:\n      callvalue\n      dup1\n      iszero\n      tag_89\n      jumpi\n      0x00\n      dup1\n      revert\n    tag_89:\n      pop\n      tag_90\n      tag_91\n      jump\t// in\n    tag_90:\n      mload(0x40)\n      tag_92\n      swap2\n      swap1\n      tag_35\n      jump\t// in\n    tag_92:\n      mload(0x40)\n      dup1\n      swap2\n      sub\n      swap1\n      return\n        /* \"@openzeppelin/contracts/token/ERC20/ERC20.sol\":6592:7019  function decreaseAllowance(address spender, uint256 subtractedValue) public virtual returns (bool) {... */\n    tag_16:\n      callvalue\n      dup1\n      iszero\n      tag_93\n      jumpi\n      0x00\n      dup1\n      revert\n    tag_93:\n      pop\n      tag_94\n      0x04\n      dup1\n      calldatasize\n      sub\n      dup2\n      add\n      swap1\n      tag_95\n      swap2\n      swap1\n      tag_39\n      jump\t// in\n    tag_95:\n      tag_96\n      jump\t// in\n    tag_94:\n      mload(0x40)\n      tag_97\n      swap2\n      swap1\n      tag_30\n      jump\t// in\n    tag_97:\n      mload(0x40)\n      dup1\n      swap2\n      sub\n      swap1\n      return\n        /* \"@openzeppelin/contracts/token/ERC20/ERC20.sol\":3727:3916  function transfer(address to, uint256 amount) public virtual override returns (bool) {... */\n    tag_17:\n      callvalue\n      dup1\n      iszero\n      tag_98\n      jumpi\n      0x00\n      dup1\n      revert\n    tag_98:\n      pop\n      tag_99\n      0x04\n      dup1\n      calldatasize\n      sub\n      dup2\n      add\n      swap1\n      tag_100\n      swap2\n      swap1\n      tag_39\n      jump\t// in\n    tag_100:\n      tag_101\n      jump\t// in\n    tag_99:\n      mload(0x40)\n      tag_102\n      swap2\n      swap1\n      tag_30\n      jump\t// in\n    tag_102:\n      mload(0x40)\n      dup1\n      swap2\n      sub\n      swap1\n      return\n        /* \"contracts/XENDoge.sol\":409:489  address public constant XEN_ADDRESS = 0xD342D63466B520d8D331CaFF863900d402Aa5b00 */\n    tag_18:\n      callvalue\n      dup1\n      iszero\n      tag_103\n      jumpi\n      0x00\n      dup1\n      revert\n    tag_103:\n      pop\n      tag_104\n      tag_105\n      jump\t// in\n    tag_104:\n      mload(0x40)\n      tag_106\n      swap2\n      swap1\n      tag_107\n      jump\t// in\n    tag_106:\n      mload(0x40)\n      dup1\n      swap2\n      sub\n      swap1\n      return\n        /* \"@openzeppelin/contracts/token/ERC20/ERC20.sol\":3974:4123  function allowance(address owner, address spender) public view virtual override returns (uint256) {... */\n    tag_19:\n      callvalue\n      dup1\n      iszero\n      tag_108\n      jumpi\n      0x00\n      dup1\n      revert\n    tag_108:\n      pop\n      tag_109\n      0x04\n      dup1\n      calldatasize\n      sub\n      dup2\n      add\n      swap1\n      tag_110\n      swap2\n      swap1\n      tag_111\n      jump\t// in\n    tag_110:\n      tag_112\n      jump\t// in\n    tag_109:\n      mload(0x40)\n      tag_113\n      swap2\n      swap1\n      tag_46\n      jump\t// in\n    tag_113:\n      mload(0x40)\n      dup1\n      swap2\n      sub\n      swap1\n      return\n        /* \"contracts/XENDoge.sol\":496:598  address payable public constant DONATION_ADDRESS = payable(0xc475b02C2e2D6D2Dd20c1D8c6fB9Cf9a4D23165e) */\n    tag_20:\n      callvalue\n      dup1\n      iszero\n      tag_114\n      jumpi\n      0x00\n      dup1\n      revert\n    tag_114:\n      pop\n      tag_115\n      tag_116\n      jump\t// in\n    tag_115:\n      mload(0x40)\n      tag_117\n      swap2\n      swap1\n      tag_118\n      jump\t// in\n    tag_117:\n      mload(0x40)\n      dup1\n      swap2\n      sub\n      swap1\n      return\n        /* \"contracts/XENDoge.sol\":792:1007  function supportsInterface(bytes4 interfaceId) public view virtual override returns (bool) {... */\n    tag_28:\n        /* \"contracts/XENDoge.sol\":877:881  bool */\n      0x00\n        /* \"contracts/XENDoge.sol\":916:949  type(IBurnRedeemable).interfaceId */\n      0x543746b100000000000000000000000000000000000000000000000000000000\n        /* \"contracts/XENDoge.sol\":901:949  interfaceId == type(IBurnRedeemable).interfaceId */\n      not(0xffffffffffffffffffffffffffffffffffffffffffffffffffffffff)\n      and\n        /* \"contracts/XENDoge.sol\":901:912  interfaceId */\n      dup3\n        /* \"contracts/XENDoge.sol\":901:949  interfaceId == type(IBurnRedeemable).interfaceId */\n      not(0xffffffffffffffffffffffffffffffffffffffffffffffffffffffff)\n      and\n      eq\n        /* \"contracts/XENDoge.sol\":901:999  interfaceId == type(IBurnRedeemable).interfaceId || interfaceId == this.supportsInterface.selector */\n      dup1\n      tag_120\n      jumpi\n      pop\n        /* \"contracts/XENDoge.sol\":968:999  this.supportsInterface.selector */\n      shl(0xe0, 0x01ffc9a7)\n        /* \"contracts/XENDoge.sol\":953:999  interfaceId == this.supportsInterface.selector */\n      not(0xffffffffffffffffffffffffffffffffffffffffffffffffffffffff)\n      and\n        /* \"contracts/XENDoge.sol\":953:964  interfaceId */\n      dup3\n        /* \"contracts/XENDoge.sol\":953:999  interfaceId == this.supportsInterface.selector */\n      not(0xffffffffffffffffffffffffffffffffffffffffffffffffffffffff)\n      and\n      eq\n        /* \"contracts/XENDoge.sol\":901:999  interfaceId == type(IBurnRedeemable).interfaceId || interfaceId == this.supportsInterface.selector */\n    tag_120:\n        /* \"contracts/XENDoge.sol\":894:999  return interfaceId == type(IBurnRedeemable).interfaceId || interfaceId == this.supportsInterface.selector */\n      swap1\n      pop\n        /* \"contracts/XENDoge.sol\":792:1007  function supportsInterface(bytes4 interfaceId) public view virtual override returns (bool) {... */\n      swap2\n      swap1\n      pop\n      jump\t// out\n        /* \"@openzeppelin/contracts/token/ERC20/ERC20.sol\":2154:2252  function name() public view virtual override returns (string memory) {... */\n    tag_33:\n        /* \"@openzeppelin/contracts/token/ERC20/ERC20.sol\":2208:2221  string memory */\n      0x60\n        /* \"@openzeppelin/contracts/token/ERC20/ERC20.sol\":2240:2245  _name */\n      0x03\n        /* \"@openzeppelin/contracts/token/ERC20/ERC20.sol\":2233:2245  return _name */\n      dup1\n      sload\n      tag_122\n      swap1\n      tag_123\n      jump\t// in\n    tag_122:\n      dup1\n      0x1f\n      add\n      0x20\n      dup1\n      swap2\n      div\n      mul\n      0x20\n      add\n      mload(0x40)\n      swap1\n      dup2\n      add\n      0x40\n      mstore\n      dup1\n      swap3\n      swap2\n      swap1\n      dup2\n      dup2\n      mstore\n      0x20\n      add\n      dup3\n      dup1\n      sload\n      tag_124\n      swap1\n      tag_123\n      jump\t// in\n    tag_124:\n      dup1\n      iszero\n      tag_125\n      jumpi\n      dup1\n      0x1f\n      lt\n      tag_126\n      jumpi\n      0x0100\n      dup1\n      dup4\n      sload\n      div\n      mul\n      dup4\n      mstore\n      swap2\n      0x20\n      add\n      swap2\n      jump(tag_125)\n    tag_126:\n      dup3\n      add\n      swap2\n      swap1\n      0x00\n      mstore\n      keccak256(0x00, 0x20)\n      swap1\n    tag_127:\n      dup2\n      sload\n      dup2\n      mstore\n      swap1\n      0x01\n      add\n      swap1\n      0x20\n      add\n      dup1\n      dup4\n      gt\n      tag_127\n      jumpi\n      dup3\n      swap1\n      sub\n      0x1f\n      and\n      dup3\n      add\n      swap2\n    tag_125:\n      pop\n      pop\n      pop\n      pop\n      pop\n      swap1\n      pop\n        /* \"@openzeppelin/contracts/token/ERC20/ERC20.sol\":2154:2252  function name() public view virtual override returns (string memory) {... */\n      swap1\n      jump\t// out\n        /* \"@openzeppelin/contracts/token/ERC20/ERC20.sol\":4431:4628  function approve(address spender, uint256 amount) public virtual override returns (bool) {... */\n    tag_40:\n        /* \"@openzeppelin/contracts/token/ERC20/ERC20.sol\":4514:4518  bool */\n      0x00\n        /* \"@openzeppelin/contracts/token/ERC20/ERC20.sol\":4530:4543  address owner */\n      dup1\n        /* \"@openzeppelin/contracts/token/ERC20/ERC20.sol\":4546:4558  _msgSender() */\n      tag_129\n        /* \"@openzeppelin/contracts/token/ERC20/ERC20.sol\":4546:4556  _msgSender */\n      tag_130\n        /* \"@openzeppelin/contracts/token/ERC20/ERC20.sol\":4546:4558  _msgSender() */\n      jump\t// in\n    tag_129:\n        /* \"@openzeppelin/contracts/token/ERC20/ERC20.sol\":4530:4558  address owner = _msgSender() */\n      swap1\n      pop\n        /* \"@openzeppelin/contracts/token/ERC20/ERC20.sol\":4568:4600  _approve(owner, spender, amount) */\n      tag_131\n        /* \"@openzeppelin/contracts/token/ERC20/ERC20.sol\":4577:4582  owner */\n      dup2\n        /* \"@openzeppelin/contracts/token/ERC20/ERC20.sol\":4584:4591  spender */\n      dup6\n        /* \"@openzeppelin/contracts/token/ERC20/ERC20.sol\":4593:4599  amount */\n      dup6\n        /* \"@openzeppelin/contracts/token/ERC20/ERC20.sol\":4568:4576  _approve */\n      tag_132\n        /* \"@openzeppelin/contracts/token/ERC20/ERC20.sol\":4568:4600  _approve(owner, spender, amount) */\n      jump\t// in\n    tag_131:\n        /* \"@openzeppelin/contracts/token/ERC20/ERC20.sol\":4617:4621  true */\n      0x01\n        /* \"@openzeppelin/contracts/token/ERC20/ERC20.sol\":4610:4621  return true */\n      swap2\n      pop\n      pop\n        /* \"@openzeppelin/contracts/token/ERC20/ERC20.sol\":4431:4628  function approve(address spender, uint256 amount) public virtual override returns (bool) {... */\n      swap3\n      swap2\n      pop\n      pop\n      jump\t// out\n        /* \"@openzeppelin/contracts/token/ERC20/ERC20.sol\":3242:3348  function totalSupply() public view virtual override returns (uint256) {... */\n    tag_44:\n        /* \"@openzeppelin/contracts/token/ERC20/ERC20.sol\":3303:3310  uint256 */\n      0x00\n        /* \"@openzeppelin/contracts/token/ERC20/ERC20.sol\":3329:3341  _totalSupply */\n      sload(0x02)\n        /* \"@openzeppelin/contracts/token/ERC20/ERC20.sol\":3322:3341  return _totalSupply */\n      swap1\n      pop\n        /* \"@openzeppelin/contracts/token/ERC20/ERC20.sol\":3242:3348  function totalSupply() public view virtual override returns (uint256) {... */\n      swap1\n      jump\t// out\n        /* \"contracts/XENDoge.sol\":605:650  uint256 public constant XEN_BURN_RATIO = 1000 */\n    tag_49:\n        /* \"contracts/XENDoge.sol\":646:650  1000 */\n      0x03e8\n        /* \"contracts/XENDoge.sol\":605:650  uint256 public constant XEN_BURN_RATIO = 1000 */\n      dup2\n      jump\t// out\n        /* \"@openzeppelin/contracts/token/ERC20/ERC20.sol\":5190:5476  function transferFrom(... */\n    tag_55:\n        /* \"@openzeppelin/contracts/token/ERC20/ERC20.sol\":5317:5321  bool */\n      0x00\n        /* \"@openzeppelin/contracts/token/ERC20/ERC20.sol\":5333:5348  address spender */\n      dup1\n        /* \"@openzeppelin/contracts/token/ERC20/ERC20.sol\":5351:5363  _msgSender() */\n      tag_135\n        /* \"@openzeppelin/contracts/token/ERC20/ERC20.sol\":5351:5361  _msgSender */\n      tag_130\n        /* \"@openzeppelin/contracts/token/ERC20/ERC20.sol\":5351:5363  _msgSender() */\n      jump\t// in\n    tag_135:\n        /* \"@openzeppelin/contracts/token/ERC20/ERC20.sol\":5333:5363  address spender = _msgSender() */\n      swap1\n      pop\n        /* \"@openzeppelin/contracts/token/ERC20/ERC20.sol\":5373:5411  _spendAllowance(from, spender, amount) */\n      tag_136\n        /* \"@openzeppelin/contracts/token/ERC20/ERC20.sol\":5389:5393  from */\n      dup6\n        /* \"@openzeppelin/contracts/token/ERC20/ERC20.sol\":5395:5402  spender */\n      dup3\n        /* \"@openzeppelin/contracts/token/ERC20/ERC20.sol\":5404:5410  amount */\n      dup6\n        /* \"@openzeppelin/contracts/token/ERC20/ERC20.sol\":5373:5388  _spendAllowance */\n      tag_137\n        /* \"@openzeppelin/contracts/token/ERC20/ERC20.sol\":5373:5411  _spendAllowance(from, spender, amount) */\n      jump\t// in\n    tag_136:\n        /* \"@openzeppelin/contracts/token/ERC20/ERC20.sol\":5421:5448  _transfer(from, to, amount) */\n      tag_138\n        /* \"@openzeppelin/contracts/token/ERC20/ERC20.sol\":5431:5435  from */\n      dup6\n        /* \"@openzeppelin/contracts/token/ERC20/ERC20.sol\":5437:5439  to */\n      dup6\n        /* \"@openzeppelin/contracts/token/ERC20/ERC20.sol\":5441:5447  amount */\n      dup6\n        /* \"@openzeppelin/contracts/token/ERC20/ERC20.sol\":5421:5430  _transfer */\n      tag_139\n        /* \"@openzeppelin/contracts/token/ERC20/ERC20.sol\":5421:5448  _transfer(from, to, amount) */\n      jump\t// in\n    tag_138:\n        /* \"@openzeppelin/contracts/token/ERC20/ERC20.sol\":5465:5469  true */\n      0x01\n        /* \"@openzeppelin/contracts/token/ERC20/ERC20.sol\":5458:5469  return true */\n      swap2\n      pop\n      pop\n        /* \"@openzeppelin/contracts/token/ERC20/ERC20.sol\":5190:5476  function transferFrom(... */\n      swap4\n      swap3\n      pop\n      pop\n      pop\n      jump\t// out\n        /* \"@openzeppelin/contracts/token/ERC20/ERC20.sol\":3091:3182  function decimals() public view virtual override returns (uint8) {... */\n    tag_59:\n        /* \"@openzeppelin/contracts/token/ERC20/ERC20.sol\":3149:3154  uint8 */\n      0x00\n        /* \"@openzeppelin/contracts/token/ERC20/ERC20.sol\":3173:3175  18 */\n      0x12\n        /* \"@openzeppelin/contracts/token/ERC20/ERC20.sol\":3166:3175  return 18 */\n      swap1\n      pop\n        /* \"@openzeppelin/contracts/token/ERC20/ERC20.sol\":3091:3182  function decimals() public view virtual override returns (uint8) {... */\n      swap1\n      jump\t// out\n        /* \"@openzeppelin/contracts/token/ERC20/extensions/ERC20Capped.sol\":635:716  function cap() public view virtual returns (uint256) {... */\n    tag_64:\n        /* \"@openzeppelin/contracts/token/ERC20/extensions/ERC20Capped.sol\":679:686  uint256 */\n      0x00\n        /* \"@openzeppelin/contracts/token/ERC20/extensions/ERC20Capped.sol\":705:709  _cap */\n      immutable(\"0x3458437a5f15baa46336263fead0d1d72e4acda03961eb239e7d1c02a1c98ad3\")\n        /* \"@openzeppelin/contracts/token/ERC20/extensions/ERC20Capped.sol\":698:709  return _cap */\n      swap1\n      pop\n        /* \"@openzeppelin/contracts/token/ERC20/extensions/ERC20Capped.sol\":635:716  function cap() public view virtual returns (uint256) {... */\n      swap1\n      jump\t// out\n        /* \"@openzeppelin/contracts/token/ERC20/ERC20.sol\":5871:6105  function increaseAllowance(address spender, uint256 addedValue) public virtual returns (bool) {... */\n    tag_69:\n        /* \"@openzeppelin/contracts/token/ERC20/ERC20.sol\":5959:5963  bool */\n      0x00\n        /* \"@openzeppelin/contracts/token/ERC20/ERC20.sol\":5975:5988  address owner */\n      dup1\n        /* \"@openzeppelin/contracts/token/ERC20/ERC20.sol\":5991:6003  _msgSender() */\n      tag_143\n        /* \"@openzeppelin/contracts/token/ERC20/ERC20.sol\":5991:6001  _msgSender */\n      tag_130\n        /* \"@openzeppelin/contracts/token/ERC20/ERC20.sol\":5991:6003  _msgSender() */\n      jump\t// in\n    tag_143:\n        /* \"@openzeppelin/contracts/token/ERC20/ERC20.sol\":5975:6003  address owner = _msgSender() */\n      swap1\n      pop\n        /* \"@openzeppelin/contracts/token/ERC20/ERC20.sol\":6013:6077  _approve(owner, spender, allowance(owner, spender) + addedValue) */\n      tag_144\n        /* \"@openzeppelin/contracts/token/ERC20/ERC20.sol\":6022:6027  owner */\n      dup2\n        /* \"@openzeppelin/contracts/token/ERC20/ERC20.sol\":6029:6036  spender */\n      dup6\n        /* \"@openzeppelin/contracts/token/ERC20/ERC20.sol\":6066:6076  addedValue */\n      dup6\n        /* \"@openzeppelin/contracts/token/ERC20/ERC20.sol\":6038:6063  allowance(owner, spender) */\n      tag_145\n        /* \"@openzeppelin/contracts/token/ERC20/ERC20.sol\":6048:6053  owner */\n      dup6\n        /* \"@openzeppelin/contracts/token/ERC20/ERC20.sol\":6055:6062  spender */\n      dup10\n        /* \"@openzeppelin/contracts/token/ERC20/ERC20.sol\":6038:6047  allowance */\n      tag_112\n        /* \"@openzeppelin/contracts/token/ERC20/ERC20.sol\":6038:6063  allowance(owner, spender) */\n      jump\t// in\n    tag_145:\n        /* \"@openzeppelin/contracts/token/ERC20/ERC20.sol\":6038:6076  allowance(owner, spender) + addedValue */\n      tag_146\n      swap2\n      swap1\n      tag_147\n      jump\t// in\n    tag_146:\n        /* \"@openzeppelin/contracts/token/ERC20/ERC20.sol\":6013:6021  _approve */\n      tag_132\n        /* \"@openzeppelin/contracts/token/ERC20/ERC20.sol\":6013:6077  _approve(owner, spender, allowance(owner, spender) + addedValue) */\n      jump\t// in\n    tag_144:\n        /* \"@openzeppelin/contracts/token/ERC20/ERC20.sol\":6094:6098  true */\n      0x01\n        /* \"@openzeppelin/contracts/token/ERC20/ERC20.sol\":6087:6098  return true */\n      swap2\n      pop\n      pop\n        /* \"@openzeppelin/contracts/token/ERC20/ERC20.sol\":5871:6105  function increaseAllowance(address spender, uint256 addedValue) public virtual returns (bool) {... */\n      swap3\n      swap2\n      pop\n      pop\n      jump\t// out\n        /* \"contracts/XENDoge.sol\":1185:1698  function onTokenBurned(address user, uint256 amount) external {... */\n    tag_74:\n        /* \"contracts/XENDoge.sol\":447:489  0xD342D63466B520d8D331CaFF863900d402Aa5b00 */\n      0xd342d63466b520d8d331caff863900d402aa5b00\n        /* \"contracts/XENDoge.sol\":1266:1293  _msgSender() == XEN_ADDRESS */\n      0xffffffffffffffffffffffffffffffffffffffff\n      and\n        /* \"contracts/XENDoge.sol\":1266:1278  _msgSender() */\n      tag_149\n        /* \"contracts/XENDoge.sol\":1266:1276  _msgSender */\n      tag_130\n        /* \"contracts/XENDoge.sol\":1266:1278  _msgSender() */\n      jump\t// in\n    tag_149:\n        /* \"contracts/XENDoge.sol\":1266:1293  _msgSender() == XEN_ADDRESS */\n      0xffffffffffffffffffffffffffffffffffffffff\n      and\n      eq\n        /* \"contracts/XENDoge.sol\":1258:1333  require(_msgSender() == XEN_ADDRESS, \"XENDoge: Caller must be XEN Crypto.\") */\n      tag_150\n      jumpi\n      mload(0x40)\n      0x08c379a000000000000000000000000000000000000000000000000000000000\n      dup2\n      mstore\n      0x04\n      add\n      tag_151\n      swap1\n      tag_152\n      jump\t// in\n    tag_151:\n      mload(0x40)\n      dup1\n      swap2\n      sub\n      swap1\n      revert\n    tag_150:\n        /* \"contracts/XENDoge.sol\":1368:1369  0 */\n      0x00\n        /* \"contracts/XENDoge.sol\":1352:1370  user != address(0) */\n      0xffffffffffffffffffffffffffffffffffffffff\n      and\n        /* \"contracts/XENDoge.sol\":1352:1356  user */\n      dup3\n        /* \"contracts/XENDoge.sol\":1352:1370  user != address(0) */\n      0xffffffffffffffffffffffffffffffffffffffff\n      and\n      sub\n        /* \"contracts/XENDoge.sol\":1344:1416  require(user != address(0), \"XENDoge: Address cannot be the 0 address.\") */\n      tag_153\n      jumpi\n      mload(0x40)\n      0x08c379a000000000000000000000000000000000000000000000000000000000\n      dup2\n      mstore\n      0x04\n      add\n      tag_154\n      swap1\n      tag_155\n      jump\t// in\n    tag_154:\n      mload(0x40)\n      dup1\n      swap2\n      sub\n      swap1\n      revert\n    tag_153:\n        /* \"contracts/XENDoge.sol\":1445:1451  100000 */\n      0x0186a0\n        /* \"contracts/XENDoge.sol\":1435:1441  amount */\n      dup2\n        /* \"contracts/XENDoge.sol\":1435:1451  amount >= 100000 */\n      lt\n      iszero\n        /* \"contracts/XENDoge.sol\":1427:1487  require(amount >= 100000, \"XENDoge: Burn amount too small.\") */\n      tag_156\n      jumpi\n      mload(0x40)\n      0x08c379a000000000000000000000000000000000000000000000000000000000\n      dup2\n      mstore\n      0x04\n      add\n      tag_157\n      swap1\n      tag_158\n      jump\t// in\n    tag_157:\n      mload(0x40)\n      dup1\n      swap2\n      sub\n      swap1\n      revert\n    tag_156:\n        /* \"contracts/XENDoge.sol\":1518:1524  amount */\n      dup1\n        /* \"contracts/XENDoge.sol\":1500:1514  totalXenBurned */\n      0x05\n      0x00\n        /* \"contracts/XENDoge.sol\":1500:1524  totalXenBurned += amount */\n      dup3\n      dup3\n      sload\n      tag_159\n      swap2\n      swap1\n      tag_147\n      jump\t// in\n    tag_159:\n      swap3\n      pop\n      pop\n      dup2\n      swap1\n      sstore\n      pop\n        /* \"contracts/XENDoge.sol\":1537:1552  uint256 xenDoge */\n      0x00\n        /* \"contracts/XENDoge.sol\":1555:1582  calculateMintReward(amount) */\n      tag_160\n        /* \"contracts/XENDoge.sol\":1575:1581  amount */\n      dup3\n        /* \"contracts/XENDoge.sol\":1555:1574  calculateMintReward */\n      tag_161\n        /* \"contracts/XENDoge.sol\":1555:1582  calculateMintReward(amount) */\n      jump\t// in\n    tag_160:\n        /* \"contracts/XENDoge.sol\":1537:1582  uint256 xenDoge = calculateMintReward(amount) */\n      swap1\n      pop\n        /* \"contracts/XENDoge.sol\":1593:1613  _mint(user, xenDoge) */\n      tag_162\n        /* \"contracts/XENDoge.sol\":1599:1603  user */\n      dup4\n        /* \"contracts/XENDoge.sol\":1605:1612  xenDoge */\n      dup3\n        /* \"contracts/XENDoge.sol\":1593:1598  _mint */\n      tag_163\n        /* \"contracts/XENDoge.sol\":1593:1613  _mint(user, xenDoge) */\n      jump\t// in\n    tag_162:\n        /* \"contracts/XENDoge.sol\":1667:1671  this */\n      address\n        /* \"contracts/XENDoge.sol\":1631:1690  Redeemed(user, XEN_ADDRESS, address(this), amount, xenDoge) */\n      0xffffffffffffffffffffffffffffffffffffffff\n      and\n        /* \"contracts/XENDoge.sol\":447:489  0xD342D63466B520d8D331CaFF863900d402Aa5b00 */\n      0xd342d63466b520d8d331caff863900d402aa5b00\n        /* \"contracts/XENDoge.sol\":1631:1690  Redeemed(user, XEN_ADDRESS, address(this), amount, xenDoge) */\n      0xffffffffffffffffffffffffffffffffffffffff\n      and\n        /* \"contracts/XENDoge.sol\":1640:1644  user */\n      dup5\n        /* \"contracts/XENDoge.sol\":1631:1690  Redeemed(user, XEN_ADDRESS, address(this), amount, xenDoge) */\n      0xffffffffffffffffffffffffffffffffffffffff\n      and\n      0xda4c370e4f539b8e19d66144cad73d70fbf440a544e56ff38e28e38ed47801a8\n        /* \"contracts/XENDoge.sol\":1674:1680  amount */\n      dup6\n        /* \"contracts/XENDoge.sol\":1682:1689  xenDoge */\n      dup6\n        /* \"contracts/XENDoge.sol\":1631:1690  Redeemed(user, XEN_ADDRESS, address(this), amount, xenDoge) */\n      mload(0x40)\n      tag_164\n      swap3\n      swap2\n      swap1\n      tag_165\n      jump\t// in\n    tag_164:\n      mload(0x40)\n      dup1\n      swap2\n      sub\n      swap1\n      log4\n        /* \"contracts/XENDoge.sol\":1247:1698  {... */\n      pop\n        /* \"contracts/XENDoge.sol\":1185:1698  function onTokenBurned(address user, uint256 amount) external {... */\n      pop\n      pop\n      jump\t// out\n        /* \"contracts/XENDoge.sol\":657:690  uint256 public totalXenBurned = 0 */\n    tag_77:\n      sload(0x05)\n      dup2\n      jump\t// out\n        /* \"contracts/XENDoge.sol\":1015:1177  function burnXEN(uint256 xen) public payable {... */\n    tag_82:\n        /* \"contracts/XENDoge.sol\":555:597  0xc475b02C2e2D6D2Dd20c1D8c6fB9Cf9a4D23165e */\n      0xc475b02c2e2d6d2dd20c1d8c6fb9cf9a4d23165e\n        /* \"contracts/XENDoge.sol\":1071:1096  DONATION_ADDRESS.transfer */\n      0xffffffffffffffffffffffffffffffffffffffff\n      and\n        /* \"contracts/XENDoge.sol\":1071:1107  DONATION_ADDRESS.transfer(msg.value) */\n      0x08fc\n        /* \"contracts/XENDoge.sol\":1097:1106  msg.value */\n      callvalue\n        /* \"contracts/XENDoge.sol\":1071:1107  DONATION_ADDRESS.transfer(msg.value) */\n      swap1\n      dup2\n      iszero\n      mul\n      swap1\n      mload(0x40)\n      0x00\n      mload(0x40)\n      dup1\n      dup4\n      sub\n      dup2\n      dup6\n      dup9\n      dup9\n      call\n      swap4\n      pop\n      pop\n      pop\n      pop\n      iszero\n      dup1\n      iszero\n      tag_168\n      jumpi\n      returndatasize\n      0x00\n      dup1\n      returndatacopy\n      revert(0x00, returndatasize)\n    tag_168:\n      pop\n        /* \"contracts/XENDoge.sol\":447:489  0xD342D63466B520d8D331CaFF863900d402Aa5b00 */\n      0xd342d63466b520d8d331caff863900d402aa5b00\n        /* \"contracts/XENDoge.sol\":1118:1150  IBurnableToken(XEN_ADDRESS).burn */\n      0xffffffffffffffffffffffffffffffffffffffff\n      and\n      0x9dc29fac\n        /* \"contracts/XENDoge.sol\":1151:1163  _msgSender() */\n      tag_169\n        /* \"contracts/XENDoge.sol\":1151:1161  _msgSender */\n      tag_130\n        /* \"contracts/XENDoge.sol\":1151:1163  _msgSender() */\n      jump\t// in\n    tag_169:\n        /* \"contracts/XENDoge.sol\":1165:1168  xen */\n      dup4\n        /* \"contracts/XENDoge.sol\":1118:1169  IBurnableToken(XEN_ADDRESS).burn(_msgSender(), xen) */\n      mload(0x40)\n      dup4\n      0xffffffff\n      and\n      0xe0\n      shl\n      dup2\n      mstore\n      0x04\n      add\n      tag_170\n      swap3\n      swap2\n      swap1\n      tag_171\n      jump\t// in\n    tag_170:\n      0x00\n      mload(0x40)\n      dup1\n      dup4\n      sub\n      dup2\n      0x00\n      dup8\n      dup1\n      extcodesize\n      iszero\n      dup1\n      iszero\n      tag_172\n      jumpi\n      0x00\n      dup1\n      revert\n    tag_172:\n      pop\n      gas\n      call\n      iszero\n      dup1\n      iszero\n      tag_174\n      jumpi\n      returndatasize\n      0x00\n      dup1\n      returndatacopy\n      revert(0x00, returndatasize)\n    tag_174:\n      pop\n      pop\n      pop\n      pop\n        /* \"contracts/XENDoge.sol\":1015:1177  function burnXEN(uint256 xen) public payable {... */\n      pop\n      jump\t// out\n        /* \"@openzeppelin/contracts/token/ERC20/ERC20.sol\":3406:3531  function balanceOf(address account) public view virtual override returns (uint256) {... */\n    tag_87:\n        /* \"@openzeppelin/contracts/token/ERC20/ERC20.sol\":3480:3487  uint256 */\n      0x00\n        /* \"@openzeppelin/contracts/token/ERC20/ERC20.sol\":3506:3515  _balances */\n      dup1\n        /* \"@openzeppelin/contracts/token/ERC20/ERC20.sol\":3506:3524  _balances[account] */\n      0x00\n        /* \"@openzeppelin/contracts/token/ERC20/ERC20.sol\":3516:3523  account */\n      dup4\n        /* \"@openzeppelin/contracts/token/ERC20/ERC20.sol\":3506:3524  _balances[account] */\n      0xffffffffffffffffffffffffffffffffffffffff\n      and\n      0xffffffffffffffffffffffffffffffffffffffff\n      and\n      dup2\n      mstore\n      0x20\n      add\n      swap1\n      dup2\n      mstore\n      0x20\n      add\n      0x00\n      keccak256\n      sload\n        /* \"@openzeppelin/contracts/token/ERC20/ERC20.sol\":3499:3524  return _balances[account] */\n      swap1\n      pop\n        /* \"@openzeppelin/contracts/token/ERC20/ERC20.sol\":3406:3531  function balanceOf(address account) public view virtual override returns (uint256) {... */\n      swap2\n      swap1\n      pop\n      jump\t// out\n        /* \"@openzeppelin/contracts/token/ERC20/ERC20.sol\":2365:2467  function symbol() public view virtual override returns (string memory) {... */\n    tag_91:\n        /* \"@openzeppelin/contracts/token/ERC20/ERC20.sol\":2421:2434  string memory */\n      0x60\n        /* \"@openzeppelin/contracts/token/ERC20/ERC20.sol\":2453:2460  _symbol */\n      0x04\n        /* \"@openzeppelin/contracts/token/ERC20/ERC20.sol\":2446:2460  return _symbol */\n      dup1\n      sload\n      tag_177\n      swap1\n      tag_123\n      jump\t// in\n    tag_177:\n      dup1\n      0x1f\n      add\n      0x20\n      dup1\n      swap2\n      div\n      mul\n      0x20\n      add\n      mload(0x40)\n      swap1\n      dup2\n      add\n      0x40\n      mstore\n      dup1\n      swap3\n      swap2\n      swap1\n      dup2\n      dup2\n      mstore\n      0x20\n      add\n      dup3\n      dup1\n      sload\n      tag_178\n      swap1\n      tag_123\n      jump\t// in\n    tag_178:\n      dup1\n      iszero\n      tag_179\n      jumpi\n      dup1\n      0x1f\n      lt\n      tag_180\n      jumpi\n      0x0100\n      dup1\n      dup4\n      sload\n      div\n      mul\n      dup4\n      mstore\n      swap2\n      0x20\n      add\n      swap2\n      jump(tag_179)\n    tag_180:\n      dup3\n      add\n      swap2\n      swap1\n      0x00\n      mstore\n      keccak256(0x00, 0x20)\n      swap1\n    tag_181:\n      dup2\n      sload\n      dup2\n      mstore\n      swap1\n      0x01\n      add\n      swap1\n      0x20\n      add\n      dup1\n      dup4\n      gt\n      tag_181\n      jumpi\n      dup3\n      swap1\n      sub\n      0x1f\n      and\n      dup3\n      add\n      swap2\n    tag_179:\n      pop\n      pop\n      pop\n      pop\n      pop\n      swap1\n      pop\n        /* \"@openzeppelin/contracts/token/ERC20/ERC20.sol\":2365:2467  function symbol() public view virtual override returns (string memory) {... */\n      swap1\n      jump\t// out\n        /* \"@openzeppelin/contracts/token/ERC20/ERC20.sol\":6592:7019  function decreaseAllowance(address spender, uint256 subtractedValue) public virtual returns (bool) {... */\n    tag_96:\n        /* \"@openzeppelin/contracts/token/ERC20/ERC20.sol\":6685:6689  bool */\n      0x00\n        /* \"@openzeppelin/contracts/token/ERC20/ERC20.sol\":6701:6714  address owner */\n      dup1\n        /* \"@openzeppelin/contracts/token/ERC20/ERC20.sol\":6717:6729  _msgSender() */\n      tag_183\n        /* \"@openzeppelin/contracts/token/ERC20/ERC20.sol\":6717:6727  _msgSender */\n      tag_130\n        /* \"@openzeppelin/contracts/token/ERC20/ERC20.sol\":6717:6729  _msgSender() */\n      jump\t// in\n    tag_183:\n        /* \"@openzeppelin/contracts/token/ERC20/ERC20.sol\":6701:6729  address owner = _msgSender() */\n      swap1\n      pop\n        /* \"@openzeppelin/contracts/token/ERC20/ERC20.sol\":6739:6763  uint256 currentAllowance */\n      0x00\n        /* \"@openzeppelin/contracts/token/ERC20/ERC20.sol\":6766:6791  allowance(owner, spender) */\n      tag_184\n        /* \"@openzeppelin/contracts/token/ERC20/ERC20.sol\":6776:6781  owner */\n      dup3\n        /* \"@openzeppelin/contracts/token/ERC20/ERC20.sol\":6783:6790  spender */\n      dup7\n        /* \"@openzeppelin/contracts/token/ERC20/ERC20.sol\":6766:6775  allowance */\n      tag_112\n        /* \"@openzeppelin/contracts/token/ERC20/ERC20.sol\":6766:6791  allowance(owner, spender) */\n      jump\t// in\n    tag_184:\n        /* \"@openzeppelin/contracts/token/ERC20/ERC20.sol\":6739:6791  uint256 currentAllowance = allowance(owner, spender) */\n      swap1\n      pop\n        /* \"@openzeppelin/contracts/token/ERC20/ERC20.sol\":6829:6844  subtractedValue */\n      dup4\n        /* \"@openzeppelin/contracts/token/ERC20/ERC20.sol\":6809:6825  currentAllowance */\n      dup2\n        /* \"@openzeppelin/contracts/token/ERC20/ERC20.sol\":6809:6844  currentAllowance >= subtractedValue */\n      lt\n      iszero\n        /* \"@openzeppelin/contracts/token/ERC20/ERC20.sol\":6801:6886  require(currentAllowance >= subtractedValue, \"ERC20: decreased allowance below zero\") */\n      tag_185\n      jumpi\n      mload(0x40)\n      0x08c379a000000000000000000000000000000000000000000000000000000000\n      dup2\n      mstore\n      0x04\n      add\n      tag_186\n      swap1\n      tag_187\n      jump\t// in\n    tag_186:\n      mload(0x40)\n      dup1\n      swap2\n      sub\n      swap1\n      revert\n    tag_185:\n        /* \"@openzeppelin/contracts/token/ERC20/ERC20.sol\":6920:6980  _approve(owner, spender, currentAllowance - subtractedValue) */\n      tag_188\n        /* \"@openzeppelin/contracts/token/ERC20/ERC20.sol\":6929:6934  owner */\n      dup3\n        /* \"@openzeppelin/contracts/token/ERC20/ERC20.sol\":6936:6943  spender */\n      dup7\n        /* \"@openzeppelin/contracts/token/ERC20/ERC20.sol\":6964:6979  subtractedValue */\n      dup7\n        /* \"@openzeppelin/contracts/token/ERC20/ERC20.sol\":6945:6961  currentAllowance */\n      dup5\n        /* \"@openzeppelin/contracts/token/ERC20/ERC20.sol\":6945:6979  currentAllowance - subtractedValue */\n      sub\n        /* \"@openzeppelin/contracts/token/ERC20/ERC20.sol\":6920:6928  _approve */\n      tag_132\n        /* \"@openzeppelin/contracts/token/ERC20/ERC20.sol\":6920:6980  _approve(owner, spender, currentAllowance - subtractedValue) */\n      jump\t// in\n    tag_188:\n        /* \"@openzeppelin/contracts/token/ERC20/ERC20.sol\":7008:7012  true */\n      0x01\n        /* \"@openzeppelin/contracts/token/ERC20/ERC20.sol\":7001:7012  return true */\n      swap3\n      pop\n      pop\n      pop\n        /* \"@openzeppelin/contracts/token/ERC20/ERC20.sol\":6592:7019  function decreaseAllowance(address spender, uint256 subtractedValue) public virtual returns (bool) {... */\n      swap3\n      swap2\n      pop\n      pop\n      jump\t// out\n        /* \"@openzeppelin/contracts/token/ERC20/ERC20.sol\":3727:3916  function transfer(address to, uint256 amount) public virtual override returns (bool) {... */\n    tag_101:\n        /* \"@openzeppelin/contracts/token/ERC20/ERC20.sol\":3806:3810  bool */\n      0x00\n        /* \"@openzeppelin/contracts/token/ERC20/ERC20.sol\":3822:3835  address owner */\n      dup1\n        /* \"@openzeppelin/contracts/token/ERC20/ERC20.sol\":3838:3850  _msgSender() */\n      tag_190\n        /* \"@openzeppelin/contracts/token/ERC20/ERC20.sol\":3838:3848  _msgSender */\n      tag_130\n        /* \"@openzeppelin/contracts/token/ERC20/ERC20.sol\":3838:3850  _msgSender() */\n      jump\t// in\n    tag_190:\n        /* \"@openzeppelin/contracts/token/ERC20/ERC20.sol\":3822:3850  address owner = _msgSender() */\n      swap1\n      pop\n        /* \"@openzeppelin/contracts/token/ERC20/ERC20.sol\":3860:3888  _transfer(owner, to, amount) */\n      tag_191\n        /* \"@openzeppelin/contracts/token/ERC20/ERC20.sol\":3870:3875  owner */\n      dup2\n        /* \"@openzeppelin/contracts/token/ERC20/ERC20.sol\":3877:3879  to */\n      dup6\n        /* \"@openzeppelin/contracts/token/ERC20/ERC20.sol\":3881:3887  amount */\n      dup6\n        /* \"@openzeppelin/contracts/token/ERC20/ERC20.sol\":3860:3869  _transfer */\n      tag_139\n        /* \"@openzeppelin/contracts/token/ERC20/ERC20.sol\":3860:3888  _transfer(owner, to, amount) */\n      jump\t// in\n    tag_191:\n        /* \"@openzeppelin/contracts/token/ERC20/ERC20.sol\":3905:3909  true */\n      0x01\n        /* \"@openzeppelin/contracts/token/ERC20/ERC20.sol\":3898:3909  return true */\n      swap2\n      pop\n      pop\n        /* \"@openzeppelin/contracts/token/ERC20/ERC20.sol\":3727:3916  function transfer(address to, uint256 amount) public virtual override returns (bool) {... */\n      swap3\n      swap2\n      pop\n      pop\n      jump\t// out\n        /* \"contracts/XENDoge.sol\":409:489  address public constant XEN_ADDRESS = 0xD342D63466B520d8D331CaFF863900d402Aa5b00 */\n    tag_105:\n        /* \"contracts/XENDoge.sol\":447:489  0xD342D63466B520d8D331CaFF863900d402Aa5b00 */\n      0xd342d63466b520d8d331caff863900d402aa5b00\n        /* \"contracts/XENDoge.sol\":409:489  address public constant XEN_ADDRESS = 0xD342D63466B520d8D331CaFF863900d402Aa5b00 */\n      dup2\n      jump\t// out\n        /* \"@openzeppelin/contracts/token/ERC20/ERC20.sol\":3974:4123  function allowance(address owner, address spender) public view virtual override returns (uint256) {... */\n    tag_112:\n        /* \"@openzeppelin/contracts/token/ERC20/ERC20.sol\":4063:4070  uint256 */\n      0x00\n        /* \"@openzeppelin/contracts/token/ERC20/ERC20.sol\":4089:4100  _allowances */\n      0x01\n        /* \"@openzeppelin/contracts/token/ERC20/ERC20.sol\":4089:4107  _allowances[owner] */\n      0x00\n        /* \"@openzeppelin/contracts/token/ERC20/ERC20.sol\":4101:4106  owner */\n      dup5\n        /* \"@openzeppelin/contracts/token/ERC20/ERC20.sol\":4089:4107  _allowances[owner] */\n      0xffffffffffffffffffffffffffffffffffffffff\n      and\n      0xffffffffffffffffffffffffffffffffffffffff\n      and\n      dup2\n      mstore\n      0x20\n      add\n      swap1\n      dup2\n      mstore\n      0x20\n      add\n      0x00\n      keccak256\n        /* \"@openzeppelin/contracts/token/ERC20/ERC20.sol\":4089:4116  _allowances[owner][spender] */\n      0x00\n        /* \"@openzeppelin/contracts/token/ERC20/ERC20.sol\":4108:4115  spender */\n      dup4\n        /* \"@openzeppelin/contracts/token/ERC20/ERC20.sol\":4089:4116  _allowances[owner][spender] */\n      0xffffffffffffffffffffffffffffffffffffffff\n      and\n      0xffffffffffffffffffffffffffffffffffffffff\n      and\n      dup2\n      mstore\n      0x20\n      add\n      swap1\n      dup2\n      mstore\n      0x20\n      add\n      0x00\n      keccak256\n      sload\n        /* \"@openzeppelin/contracts/token/ERC20/ERC20.sol\":4082:4116  return _allowances[owner][spender] */\n      swap1\n      pop\n        /* \"@openzeppelin/contracts/token/ERC20/ERC20.sol\":3974:4123  function allowance(address owner, address spender) public view virtual override returns (uint256) {... */\n      swap3\n      swap2\n      pop\n      pop\n      jump\t// out\n        /* \"contracts/XENDoge.sol\":496:598  address payable public constant DONATION_ADDRESS = payable(0xc475b02C2e2D6D2Dd20c1D8c6fB9Cf9a4D23165e) */\n    tag_116:\n        /* \"contracts/XENDoge.sol\":555:597  0xc475b02C2e2D6D2Dd20c1D8c6fB9Cf9a4D23165e */\n      0xc475b02c2e2d6d2dd20c1d8c6fb9cf9a4d23165e\n        /* \"contracts/XENDoge.sol\":496:598  address payable public constant DONATION_ADDRESS = payable(0xc475b02C2e2D6D2Dd20c1D8c6fB9Cf9a4D23165e) */\n      dup2\n      jump\t// out\n        /* \"@openzeppelin/contracts/utils/Context.sol\":640:736  function _msgSender() internal view virtual returns (address) {... */\n    tag_130:\n        /* \"@openzeppelin/contracts/utils/Context.sol\":693:700  address */\n      0x00\n        /* \"@openzeppelin/contracts/utils/Context.sol\":719:729  msg.sender */\n      caller\n        /* \"@openzeppelin/contracts/utils/Context.sol\":712:729  return msg.sender */\n      swap1\n      pop\n        /* \"@openzeppelin/contracts/utils/Context.sol\":640:736  function _msgSender() internal view virtual returns (address) {... */\n      swap1\n      jump\t// out\n        /* \"@openzeppelin/contracts/token/ERC20/ERC20.sol\":10504:10874  function _approve(... */\n    tag_132:\n        /* \"@openzeppelin/contracts/token/ERC20/ERC20.sol\":10652:10653  0 */\n      0x00\n        /* \"@openzeppelin/contracts/token/ERC20/ERC20.sol\":10635:10654  owner != address(0) */\n      0xffffffffffffffffffffffffffffffffffffffff\n      and\n        /* \"@openzeppelin/contracts/token/ERC20/ERC20.sol\":10635:10640  owner */\n      dup4\n        /* \"@openzeppelin/contracts/token/ERC20/ERC20.sol\":10635:10654  owner != address(0) */\n      0xffffffffffffffffffffffffffffffffffffffff\n      and\n      sub\n        /* \"@openzeppelin/contracts/token/ERC20/ERC20.sol\":10627:10695  require(owner != address(0), \"ERC20: approve from the zero address\") */\n      tag_195\n      jumpi\n      mload(0x40)\n      0x08c379a000000000000000000000000000000000000000000000000000000000\n      dup2\n      mstore\n      0x04\n      add\n      tag_196\n      swap1\n      tag_197\n      jump\t// in\n    tag_196:\n      mload(0x40)\n      dup1\n      swap2\n      sub\n      swap1\n      revert\n    tag_195:\n        /* \"@openzeppelin/contracts/token/ERC20/ERC20.sol\":10732:10733  0 */\n      0x00\n        /* \"@openzeppelin/contracts/token/ERC20/ERC20.sol\":10713:10734  spender != address(0) */\n      0xffffffffffffffffffffffffffffffffffffffff\n      and\n        /* \"@openzeppelin/contracts/token/ERC20/ERC20.sol\":10713:10720  spender */\n      dup3\n        /* \"@openzeppelin/contracts/token/ERC20/ERC20.sol\":10713:10734  spender != address(0) */\n      0xffffffffffffffffffffffffffffffffffffffff\n      and\n      sub\n        /* \"@openzeppelin/contracts/token/ERC20/ERC20.sol\":10705:10773  require(spender != address(0), \"ERC20: approve to the zero address\") */\n      tag_198\n      jumpi\n      mload(0x40)\n      0x08c379a000000000000000000000000000000000000000000000000000000000\n      dup2\n      mstore\n      0x04\n      add\n      tag_199\n      swap1\n      tag_200\n      jump\t// in\n    tag_199:\n      mload(0x40)\n      dup1\n      swap2\n      sub\n      swap1\n      revert\n    tag_198:\n        /* \"@openzeppelin/contracts/token/ERC20/ERC20.sol\":10814:10820  amount */\n      dup1\n        /* \"@openzeppelin/contracts/token/ERC20/ERC20.sol\":10784:10795  _allowances */\n      0x01\n        /* \"@openzeppelin/contracts/token/ERC20/ERC20.sol\":10784:10802  _allowances[owner] */\n      0x00\n        /* \"@openzeppelin/contracts/token/ERC20/ERC20.sol\":10796:10801  owner */\n      dup6\n        /* \"@openzeppelin/contracts/token/ERC20/ERC20.sol\":10784:10802  _allowances[owner] */\n      0xffffffffffffffffffffffffffffffffffffffff\n      and\n      0xffffffffffffffffffffffffffffffffffffffff\n      and\n      dup2\n      mstore\n      0x20\n      add\n      swap1\n      dup2\n      mstore\n      0x20\n      add\n      0x00\n      keccak256\n        /* \"@openzeppelin/contracts/token/ERC20/ERC20.sol\":10784:10811  _allowances[owner][spender] */\n      0x00\n        /* \"@openzeppelin/contracts/token/ERC20/ERC20.sol\":10803:10810  spender */\n      dup5\n        /* \"@openzeppelin/contracts/token/ERC20/ERC20.sol\":10784:10811  _allowances[owner][spender] */\n      0xffffffffffffffffffffffffffffffffffffffff\n      and\n      0xffffffffffffffffffffffffffffffffffffffff\n      and\n      dup2\n      mstore\n      0x20\n      add\n      swap1\n      dup2\n      mstore\n      0x20\n      add\n      0x00\n      keccak256\n        /* \"@openzeppelin/contracts/token/ERC20/ERC20.sol\":10784:10820  _allowances[owner][spender] = amount */\n      dup2\n      swap1\n      sstore\n      pop\n        /* \"@openzeppelin/contracts/token/ERC20/ERC20.sol\":10851:10858  spender */\n      dup2\n        /* \"@openzeppelin/contracts/token/ERC20/ERC20.sol\":10835:10867  Approval(owner, spender, amount) */\n      0xffffffffffffffffffffffffffffffffffffffff\n      and\n        /* \"@openzeppelin/contracts/token/ERC20/ERC20.sol\":10844:10849  owner */\n      dup4\n        /* \"@openzeppelin/contracts/token/ERC20/ERC20.sol\":10835:10867  Approval(owner, spender, amount) */\n      0xffffffffffffffffffffffffffffffffffffffff\n      and\n      0x8c5be1e5ebec7d5bd14f71427d1e84f3dd0314c0f7b2291e5b200ac8c7c3b925\n        /* \"@openzeppelin/contracts/token/ERC20/ERC20.sol\":10860:10866  amount */\n      dup4\n        /* \"@openzeppelin/contracts/token/ERC20/ERC20.sol\":10835:10867  Approval(owner, spender, amount) */\n      mload(0x40)\n      tag_201\n      swap2\n      swap1\n      tag_46\n      jump\t// in\n    tag_201:\n      mload(0x40)\n      dup1\n      swap2\n      sub\n      swap1\n      log3\n        /* \"@openzeppelin/contracts/token/ERC20/ERC20.sol\":10504:10874  function _approve(... */\n      pop\n      pop\n      pop\n      jump\t// out\n        /* \"@openzeppelin/contracts/token/ERC20/ERC20.sol\":11155:11596  function _spendAllowance(... */\n    tag_137:\n        /* \"@openzeppelin/contracts/token/ERC20/ERC20.sol\":11285:11309  uint256 currentAllowance */\n      0x00\n        /* \"@openzeppelin/contracts/token/ERC20/ERC20.sol\":11312:11337  allowance(owner, spender) */\n      tag_203\n        /* \"@openzeppelin/contracts/token/ERC20/ERC20.sol\":11322:11327  owner */\n      dup5\n        /* \"@openzeppelin/contracts/token/ERC20/ERC20.sol\":11329:11336  spender */\n      dup5\n        /* \"@openzeppelin/contracts/token/ERC20/ERC20.sol\":11312:11321  allowance */\n      tag_112\n        /* \"@openzeppelin/contracts/token/ERC20/ERC20.sol\":11312:11337  allowance(owner, spender) */\n      jump\t// in\n    tag_203:\n        /* \"@openzeppelin/contracts/token/ERC20/ERC20.sol\":11285:11337  uint256 currentAllowance = allowance(owner, spender) */\n      swap1\n      pop\n        /* \"@openzeppelin/contracts/token/ERC20/ERC20.sol\":11371:11388  type(uint256).max */\n      0xffffffffffffffffffffffffffffffffffffffffffffffffffffffffffffffff\n        /* \"@openzeppelin/contracts/token/ERC20/ERC20.sol\":11351:11367  currentAllowance */\n      dup2\n        /* \"@openzeppelin/contracts/token/ERC20/ERC20.sol\":11351:11388  currentAllowance != type(uint256).max */\n      eq\n        /* \"@openzeppelin/contracts/token/ERC20/ERC20.sol\":11347:11590  if (currentAllowance != type(uint256).max) {... */\n      tag_204\n      jumpi\n        /* \"@openzeppelin/contracts/token/ERC20/ERC20.sol\":11432:11438  amount */\n      dup2\n        /* \"@openzeppelin/contracts/token/ERC20/ERC20.sol\":11412:11428  currentAllowance */\n      dup2\n        /* \"@openzeppelin/contracts/token/ERC20/ERC20.sol\":11412:11438  currentAllowance >= amount */\n      lt\n      iszero\n        /* \"@openzeppelin/contracts/token/ERC20/ERC20.sol\":11404:11472  require(currentAllowance >= amount, \"ERC20: insufficient allowance\") */\n      tag_205\n      jumpi\n      mload(0x40)\n      0x08c379a000000000000000000000000000000000000000000000000000000000\n      dup2\n      mstore\n      0x04\n      add\n      tag_206\n      swap1\n      tag_207\n      jump\t// in\n    tag_206:\n      mload(0x40)\n      dup1\n      swap2\n      sub\n      swap1\n      revert\n    tag_205:\n        /* \"@openzeppelin/contracts/token/ERC20/ERC20.sol\":11514:11565  _approve(owner, spender, currentAllowance - amount) */\n      tag_208\n        /* \"@openzeppelin/contracts/token/ERC20/ERC20.sol\":11523:11528  owner */\n      dup5\n        /* \"@openzeppelin/contracts/token/ERC20/ERC20.sol\":11530:11537  spender */\n      dup5\n        /* \"@openzeppelin/contracts/token/ERC20/ERC20.sol\":11558:11564  amount */\n      dup5\n        /* \"@openzeppelin/contracts/token/ERC20/ERC20.sol\":11539:11555  currentAllowance */\n      dup5\n        /* \"@openzeppelin/contracts/token/ERC20/ERC20.sol\":11539:11564  currentAllowance - amount */\n      sub\n        /* \"@openzeppelin/contracts/token/ERC20/ERC20.sol\":11514:11522  _approve */\n      tag_132\n        /* \"@openzeppelin/contracts/token/ERC20/ERC20.sol\":11514:11565  _approve(owner, spender, currentAllowance - amount) */\n      jump\t// in\n    tag_208:\n        /* \"@openzeppelin/contracts/token/ERC20/ERC20.sol\":11347:11590  if (currentAllowance != type(uint256).max) {... */\n    tag_204:\n        /* \"@openzeppelin/contracts/token/ERC20/ERC20.sol\":11275:11596  {... */\n      pop\n        /* \"@openzeppelin/contracts/token/ERC20/ERC20.sol\":11155:11596  function _spendAllowance(... */\n      pop\n      pop\n      pop\n      jump\t// out\n        /* \"@openzeppelin/contracts/token/ERC20/ERC20.sol\":7473:8291  function _transfer(... */\n    tag_139:\n        /* \"@openzeppelin/contracts/token/ERC20/ERC20.sol\":7615:7616  0 */\n      0x00\n        /* \"@openzeppelin/contracts/token/ERC20/ERC20.sol\":7599:7617  from != address(0) */\n      0xffffffffffffffffffffffffffffffffffffffff\n      and\n        /* \"@openzeppelin/contracts/token/ERC20/ERC20.sol\":7599:7603  from */\n      dup4\n        /* \"@openzeppelin/contracts/token/ERC20/ERC20.sol\":7599:7617  from != address(0) */\n      0xffffffffffffffffffffffffffffffffffffffff\n      and\n      sub\n        /* \"@openzeppelin/contracts/token/ERC20/ERC20.sol\":7591:7659  require(from != address(0), \"ERC20: transfer from the zero address\") */\n      tag_210\n      jumpi\n      mload(0x40)\n      0x08c379a000000000000000000000000000000000000000000000000000000000\n      dup2\n      mstore\n      0x04\n      add\n      tag_211\n      swap1\n      tag_212\n      jump\t// in\n    tag_211:\n      mload(0x40)\n      dup1\n      swap2\n      sub\n      swap1\n      revert\n    tag_210:\n        /* \"@openzeppelin/contracts/token/ERC20/ERC20.sol\":7691:7692  0 */\n      0x00\n        /* \"@openzeppelin/contracts/token/ERC20/ERC20.sol\":7677:7693  to != address(0) */\n      0xffffffffffffffffffffffffffffffffffffffff\n      and\n        /* \"@openzeppelin/contracts/token/ERC20/ERC20.sol\":7677:7679  to */\n      dup3\n        /* \"@openzeppelin/contracts/token/ERC20/ERC20.sol\":7677:7693  to != address(0) */\n      0xffffffffffffffffffffffffffffffffffffffff\n      and\n      sub\n        /* \"@openzeppelin/contracts/token/ERC20/ERC20.sol\":7669:7733  require(to != address(0), \"ERC20: transfer to the zero address\") */\n      tag_213\n      jumpi\n      mload(0x40)\n      0x08c379a000000000000000000000000000000000000000000000000000000000\n      dup2\n      mstore\n      0x04\n      add\n      tag_214\n      swap1\n      tag_215\n      jump\t// in\n    tag_214:\n      mload(0x40)\n      dup1\n      swap2\n      sub\n      swap1\n      revert\n    tag_213:\n        /* \"@openzeppelin/contracts/token/ERC20/ERC20.sol\":7744:7782  _beforeTokenTransfer(from, to, amount) */\n      tag_216\n        /* \"@openzeppelin/contracts/token/ERC20/ERC20.sol\":7765:7769  from */\n      dup4\n        /* \"@openzeppelin/contracts/token/ERC20/ERC20.sol\":7771:7773  to */\n      dup4\n        /* \"@openzeppelin/contracts/token/ERC20/ERC20.sol\":7775:7781  amount */\n      dup4\n        /* \"@openzeppelin/contracts/token/ERC20/ERC20.sol\":7744:7764  _beforeTokenTransfer */\n      tag_217\n        /* \"@openzeppelin/contracts/token/ERC20/ERC20.sol\":7744:7782  _beforeTokenTransfer(from, to, amount) */\n      jump\t// in\n    tag_216:\n        /* \"@openzeppelin/contracts/token/ERC20/ERC20.sol\":7793:7812  uint256 fromBalance */\n      0x00\n        /* \"@openzeppelin/contracts/token/ERC20/ERC20.sol\":7815:7824  _balances */\n      dup1\n        /* \"@openzeppelin/contracts/token/ERC20/ERC20.sol\":7815:7830  _balances[from] */\n      0x00\n        /* \"@openzeppelin/contracts/token/ERC20/ERC20.sol\":7825:7829  from */\n      dup6\n        /* \"@openzeppelin/contracts/token/ERC20/ERC20.sol\":7815:7830  _balances[from] */\n      0xffffffffffffffffffffffffffffffffffffffff\n      and\n      0xffffffffffffffffffffffffffffffffffffffff\n      and\n      dup2\n      mstore\n      0x20\n      add\n      swap1\n      dup2\n      mstore\n      0x20\n      add\n      0x00\n      keccak256\n      sload\n        /* \"@openzeppelin/contracts/token/ERC20/ERC20.sol\":7793:7830  uint256 fromBalance = _balances[from] */\n      swap1\n      pop\n        /* \"@openzeppelin/contracts/token/ERC20/ERC20.sol\":7863:7869  amount */\n      dup2\n        /* \"@openzeppelin/contracts/token/ERC20/ERC20.sol\":7848:7859  fromBalance */\n      dup2\n        /* \"@openzeppelin/contracts/token/ERC20/ERC20.sol\":7848:7869  fromBalance >= amount */\n      lt\n      iszero\n        /* \"@openzeppelin/contracts/token/ERC20/ERC20.sol\":7840:7912  require(fromBalance >= amount, \"ERC20: transfer amount exceeds balance\") */\n      tag_218\n      jumpi\n      mload(0x40)\n      0x08c379a000000000000000000000000000000000000000000000000000000000\n      dup2\n      mstore\n      0x04\n      add\n      tag_219\n      swap1\n      tag_220\n      jump\t// in\n    tag_219:\n      mload(0x40)\n      dup1\n      swap2\n      sub\n      swap1\n      revert\n    tag_218:\n        /* \"@openzeppelin/contracts/token/ERC20/ERC20.sol\":7978:7984  amount */\n      dup2\n        /* \"@openzeppelin/contracts/token/ERC20/ERC20.sol\":7964:7975  fromBalance */\n      dup2\n        /* \"@openzeppelin/contracts/token/ERC20/ERC20.sol\":7964:7984  fromBalance - amount */\n      sub\n        /* \"@openzeppelin/contracts/token/ERC20/ERC20.sol\":7946:7955  _balances */\n      0x00\n        /* \"@openzeppelin/contracts/token/ERC20/ERC20.sol\":7946:7961  _balances[from] */\n      dup1\n        /* \"@openzeppelin/contracts/token/ERC20/ERC20.sol\":7956:7960  from */\n      dup7\n        /* \"@openzeppelin/contracts/token/ERC20/ERC20.sol\":7946:7961  _balances[from] */\n      0xffffffffffffffffffffffffffffffffffffffff\n      and\n      0xffffffffffffffffffffffffffffffffffffffff\n      and\n      dup2\n      mstore\n      0x20\n      add\n      swap1\n      dup2\n      mstore\n      0x20\n      add\n      0x00\n      keccak256\n        /* \"@openzeppelin/contracts/token/ERC20/ERC20.sol\":7946:7984  _balances[from] = fromBalance - amount */\n      dup2\n      swap1\n      sstore\n      pop\n        /* \"@openzeppelin/contracts/token/ERC20/ERC20.sol\":8178:8184  amount */\n      dup2\n        /* \"@openzeppelin/contracts/token/ERC20/ERC20.sol\":8161:8170  _balances */\n      0x00\n        /* \"@openzeppelin/contracts/token/ERC20/ERC20.sol\":8161:8174  _balances[to] */\n      dup1\n        /* \"@openzeppelin/contracts/token/ERC20/ERC20.sol\":8171:8173  to */\n      dup6\n        /* \"@openzeppelin/contracts/token/ERC20/ERC20.sol\":8161:8174  _balances[to] */\n      0xffffffffffffffffffffffffffffffffffffffff\n      and\n      0xffffffffffffffffffffffffffffffffffffffff\n      and\n      dup2\n      mstore\n      0x20\n      add\n      swap1\n      dup2\n      mstore\n      0x20\n      add\n      0x00\n      keccak256\n      0x00\n        /* \"@openzeppelin/contracts/token/ERC20/ERC20.sol\":8161:8184  _balances[to] += amount */\n      dup3\n      dup3\n      sload\n      add\n      swap3\n      pop\n      pop\n      dup2\n      swap1\n      sstore\n      pop\n        /* \"@openzeppelin/contracts/token/ERC20/ERC20.sol\":8225:8227  to */\n      dup3\n        /* \"@openzeppelin/contracts/token/ERC20/ERC20.sol\":8210:8236  Transfer(from, to, amount) */\n      0xffffffffffffffffffffffffffffffffffffffff\n      and\n        /* \"@openzeppelin/contracts/token/ERC20/ERC20.sol\":8219:8223  from */\n      dup5\n        /* \"@openzeppelin/contracts/token/ERC20/ERC20.sol\":8210:8236  Transfer(from, to, amount) */\n      0xffffffffffffffffffffffffffffffffffffffff\n      and\n      0xddf252ad1be2c89b69c2b068fc378daa952ba7f163c4a11628f55a4df523b3ef\n        /* \"@openzeppelin/contracts/token/ERC20/ERC20.sol\":8229:8235  amount */\n      dup5\n        /* \"@openzeppelin/contracts/token/ERC20/ERC20.sol\":8210:8236  Transfer(from, to, amount) */\n      mload(0x40)\n      tag_221\n      swap2\n      swap1\n      tag_46\n      jump\t// in\n    tag_221:\n      mload(0x40)\n      dup1\n      swap2\n      sub\n      swap1\n      log3\n        /* \"@openzeppelin/contracts/token/ERC20/ERC20.sol\":8247:8284  _afterTokenTransfer(from, to, amount) */\n      tag_222\n        /* \"@openzeppelin/contracts/token/ERC20/ERC20.sol\":8267:8271  from */\n      dup5\n        /* \"@openzeppelin/contracts/token/ERC20/ERC20.sol\":8273:8275  to */\n      dup5\n        /* \"@openzeppelin/contracts/token/ERC20/ERC20.sol\":8277:8283  amount */\n      dup5\n        /* \"@openzeppelin/contracts/token/ERC20/ERC20.sol\":8247:8266  _afterTokenTransfer */\n      tag_223\n        /* \"@openzeppelin/contracts/token/ERC20/ERC20.sol\":8247:8284  _afterTokenTransfer(from, to, amount) */\n      jump\t// in\n    tag_222:\n        /* \"@openzeppelin/contracts/token/ERC20/ERC20.sol\":7581:8291  {... */\n      pop\n        /* \"@openzeppelin/contracts/token/ERC20/ERC20.sol\":7473:8291  function _transfer(... */\n      pop\n      pop\n      pop\n      jump\t// out\n        /* \"contracts/XENDoge.sol\":1706:2034  function calculateMintReward(uint256 amountBurned) private view returns (uint256) {... */\n    tag_161:\n        /* \"contracts/XENDoge.sol\":1779:1786  uint256 */\n      0x00\n        /* \"contracts/XENDoge.sol\":1799:1817  uint256 baseReward */\n      dup1\n        /* \"contracts/XENDoge.sol\":646:650  1000 */\n      0x03e8\n        /* \"contracts/XENDoge.sol\":1820:1832  amountBurned */\n      dup4\n        /* \"contracts/XENDoge.sol\":1820:1849  amountBurned / XEN_BURN_RATIO */\n      tag_225\n      swap2\n      swap1\n      tag_226\n      jump\t// in\n    tag_225:\n        /* \"contracts/XENDoge.sol\":1799:1849  uint256 baseReward = amountBurned / XEN_BURN_RATIO */\n      swap1\n      pop\n        /* \"contracts/XENDoge.sol\":1860:1879  uint32 percentBonus */\n      0x00\n        /* \"contracts/XENDoge.sol\":1882:1899  getPercentBonus() */\n      tag_227\n        /* \"contracts/XENDoge.sol\":1882:1897  getPercentBonus */\n      tag_228\n        /* \"contracts/XENDoge.sol\":1882:1899  getPercentBonus() */\n      jump\t// in\n    tag_227:\n        /* \"contracts/XENDoge.sol\":1860:1899  uint32 percentBonus = getPercentBonus() */\n      swap1\n      pop\n        /* \"contracts/XENDoge.sol\":1910:1935  uint256 earlyAdopterBonus */\n      0x00\n        /* \"contracts/XENDoge.sol\":1938:1976  percentageOf(baseReward, percentBonus) */\n      tag_229\n        /* \"contracts/XENDoge.sol\":1951:1961  baseReward */\n      dup4\n        /* \"contracts/XENDoge.sol\":1963:1975  percentBonus */\n      dup4\n        /* \"contracts/XENDoge.sol\":1938:1950  percentageOf */\n      tag_230\n        /* \"contracts/XENDoge.sol\":1938:1976  percentageOf(baseReward, percentBonus) */\n      jump\t// in\n    tag_229:\n        /* \"contracts/XENDoge.sol\":1910:1976  uint256 earlyAdopterBonus = percentageOf(baseReward, percentBonus) */\n      swap1\n      pop\n        /* \"contracts/XENDoge.sol\":2009:2026  earlyAdopterBonus */\n      dup1\n        /* \"contracts/XENDoge.sol\":1996:2006  baseReward */\n      dup4\n        /* \"contracts/XENDoge.sol\":1996:2026  baseReward + earlyAdopterBonus */\n      tag_231\n      swap2\n      swap1\n      tag_147\n      jump\t// in\n    tag_231:\n        /* \"contracts/XENDoge.sol\":1989:2026  return baseReward + earlyAdopterBonus */\n      swap4\n      pop\n      pop\n      pop\n      pop\n        /* \"contracts/XENDoge.sol\":1706:2034  function calculateMintReward(uint256 amountBurned) private view returns (uint256) {... */\n      swap2\n      swap1\n      pop\n      jump\t// out\n        /* \"@openzeppelin/contracts/token/ERC20/extensions/ERC20Capped.sol\":769:973  function _mint(address account, uint256 amount) internal virtual override {... */\n    tag_163:\n        /* \"@openzeppelin/contracts/token/ERC20/extensions/ERC20Capped.sol\":893:898  cap() */\n      tag_233\n        /* \"@openzeppelin/contracts/token/ERC20/extensions/ERC20Capped.sol\":893:896  cap */\n      tag_64\n        /* \"@openzeppelin/contracts/token/ERC20/extensions/ERC20Capped.sol\":893:898  cap() */\n      jump\t// in\n    tag_233:\n        /* \"@openzeppelin/contracts/token/ERC20/extensions/ERC20Capped.sol\":883:889  amount */\n      dup2\n        /* \"@openzeppelin/contracts/token/ERC20/extensions/ERC20Capped.sol\":861:880  ERC20.totalSupply() */\n      tag_234\n        /* \"@openzeppelin/contracts/token/ERC20/extensions/ERC20Capped.sol\":861:878  ERC20.totalSupply */\n      tag_44\n        /* \"@openzeppelin/contracts/token/ERC20/extensions/ERC20Capped.sol\":861:880  ERC20.totalSupply() */\n      jump\t// in\n    tag_234:\n        /* \"@openzeppelin/contracts/token/ERC20/extensions/ERC20Capped.sol\":861:889  ERC20.totalSupply() + amount */\n      tag_235\n      swap2\n      swap1\n      tag_147\n      jump\t// in\n    tag_235:\n        /* \"@openzeppelin/contracts/token/ERC20/extensions/ERC20Capped.sol\":861:898  ERC20.totalSupply() + amount <= cap() */\n      gt\n      iszero\n        /* \"@openzeppelin/contracts/token/ERC20/extensions/ERC20Capped.sol\":853:928  require(ERC20.totalSupply() + amount <= cap(), \"ERC20Capped: cap exceeded\") */\n      tag_236\n      jumpi\n      mload(0x40)\n      0x08c379a000000000000000000000000000000000000000000000000000000000\n      dup2\n      mstore\n      0x04\n      add\n      tag_237\n      swap1\n      tag_238\n      jump\t// in\n    tag_237:\n      mload(0x40)\n      dup1\n      swap2\n      sub\n      swap1\n      revert\n    tag_236:\n        /* \"@openzeppelin/contracts/token/ERC20/extensions/ERC20Capped.sol\":938:966  super._mint(account, amount) */\n      tag_239\n        /* \"@openzeppelin/contracts/token/ERC20/extensions/ERC20Capped.sol\":950:957  account */\n      dup3\n        /* \"@openzeppelin/contracts/token/ERC20/extensions/ERC20Capped.sol\":959:965  amount */\n      dup3\n        /* \"@openzeppelin/contracts/token/ERC20/extensions/ERC20Capped.sol\":938:949  super._mint */\n      tag_240\n        /* \"@openzeppelin/contracts/token/ERC20/extensions/ERC20Capped.sol\":938:966  super._mint(account, amount) */\n      jump\t// in\n    tag_239:\n        /* \"@openzeppelin/contracts/token/ERC20/extensions/ERC20Capped.sol\":769:973  function _mint(address account, uint256 amount) internal virtual override {... */\n      pop\n      pop\n      jump\t// out\n        /* \"@openzeppelin/contracts/token/ERC20/ERC20.sol\":12180:12301  function _beforeTokenTransfer(... */\n    tag_217:\n      pop\n      pop\n      pop\n      jump\t// out\n        /* \"@openzeppelin/contracts/token/ERC20/ERC20.sol\":12889:13009  function _afterTokenTransfer(... */\n    tag_223:\n      pop\n      pop\n      pop\n      jump\t// out\n        /* \"contracts/XENDoge.sol\":2042:3737  function getPercentBonus() private view returns (uint32) {... */\n    tag_228:\n        /* \"contracts/XENDoge.sol\":2091:2097  uint32 */\n      0x00\n        /* \"contracts/XENDoge.sol\":2136:2137  0 */\n      dup1\n        /* \"contracts/XENDoge.sol\":2114:2118  this */\n      address\n        /* \"contracts/XENDoge.sol\":2114:2130  this.totalSupply */\n      0xffffffffffffffffffffffffffffffffffffffff\n      and\n      0x18160ddd\n        /* \"contracts/XENDoge.sol\":2114:2132  this.totalSupply() */\n      mload(0x40)\n      dup2\n      0xffffffff\n      and\n      0xe0\n      shl\n      dup2\n      mstore\n      0x04\n      add\n      0x20\n      mload(0x40)\n      dup1\n      dup4\n      sub\n      dup2\n      dup7\n      gas\n      staticcall\n      iszero\n      dup1\n      iszero\n      tag_245\n      jumpi\n      returndatasize\n      0x00\n      dup1\n      returndatacopy\n      revert(0x00, returndatasize)\n    tag_245:\n      pop\n      pop\n      pop\n      pop\n      mload(0x40)\n      returndatasize\n      not(0x1f)\n      0x1f\n      dup3\n      add\n      and\n      dup3\n      add\n      dup1\n      0x40\n      mstore\n      pop\n      dup2\n      add\n      swap1\n      tag_246\n      swap2\n      swap1\n      tag_247\n      jump\t// in\n    tag_246:\n        /* \"contracts/XENDoge.sol\":2114:2137  this.totalSupply() >= 0 */\n      lt\n      iszero\n        /* \"contracts/XENDoge.sol\":2114:2191  this.totalSupply() >= 0 && this.totalSupply() <= 7500000000000000000000000000 */\n      dup1\n      iszero\n      tag_248\n      jumpi\n      pop\n        /* \"contracts/XENDoge.sol\":2163:2191  7500000000000000000000000000 */\n      0x183bdac6ae9bc1c8cc000000\n        /* \"contracts/XENDoge.sol\":2141:2145  this */\n      address\n        /* \"contracts/XENDoge.sol\":2141:2157  this.totalSupply */\n      0xffffffffffffffffffffffffffffffffffffffff\n      and\n      0x18160ddd\n        /* \"contracts/XENDoge.sol\":2141:2159  this.totalSupply() */\n      mload(0x40)\n      dup2\n      0xffffffff\n      and\n      0xe0\n      shl\n      dup2\n      mstore\n      0x04\n      add\n      0x20\n      mload(0x40)\n      dup1\n      dup4\n      sub\n      dup2\n      dup7\n      gas\n      staticcall\n      iszero\n      dup1\n      iszero\n      tag_250\n      jumpi\n      returndatasize\n      0x00\n      dup1\n      returndatacopy\n      revert(0x00, returndatasize)\n    tag_250:\n      pop\n      pop\n      pop\n      pop\n      mload(0x40)\n      returndatasize\n      not(0x1f)\n      0x1f\n      dup3\n      add\n      and\n      dup3\n      add\n      dup1\n      0x40\n      mstore\n      pop\n      dup2\n      add\n      swap1\n      tag_251\n      swap2\n      swap1\n      tag_247\n      jump\t// in\n    tag_251:\n        /* \"contracts/XENDoge.sol\":2141:2191  this.totalSupply() <= 7500000000000000000000000000 */\n      gt\n      iszero\n        /* \"contracts/XENDoge.sol\":2114:2191  this.totalSupply() >= 0 && this.totalSupply() <= 7500000000000000000000000000 */\n    tag_248:\n        /* \"contracts/XENDoge.sol\":2110:2206  if (this.totalSupply() >= 0 && this.totalSupply() <= 7500000000000000000000000000) return 150000 */\n      iszero\n      tag_252\n      jumpi\n        /* \"contracts/XENDoge.sol\":2200:2206  150000 */\n      0x0249f0\n        /* \"contracts/XENDoge.sol\":2193:2206  return 150000 */\n      swap1\n      pop\n      jump(tag_243)\n        /* \"contracts/XENDoge.sol\":2110:2206  if (this.totalSupply() >= 0 && this.totalSupply() <= 7500000000000000000000000000) return 150000 */\n    tag_252:\n        /* \"contracts/XENDoge.sol\":2245:2273  7500000000000000000000000000 */\n      0x183bdac6ae9bc1c8cc000000\n        /* \"contracts/XENDoge.sol\":2224:2228  this */\n      address\n        /* \"contracts/XENDoge.sol\":2224:2240  this.totalSupply */\n      0xffffffffffffffffffffffffffffffffffffffff\n      and\n      0x18160ddd\n        /* \"contracts/XENDoge.sol\":2224:2242  this.totalSupply() */\n      mload(0x40)\n      dup2\n      0xffffffff\n      and\n      0xe0\n      shl\n      dup2\n      mstore\n      0x04\n      add\n      0x20\n      mload(0x40)\n      dup1\n      dup4\n      sub\n      dup2\n      dup7\n      gas\n      staticcall\n      iszero\n      dup1\n      iszero\n      tag_254\n      jumpi\n      returndatasize\n      0x00\n      dup1\n      returndatacopy\n      revert(0x00, returndatasize)\n    tag_254:\n      pop\n      pop\n      pop\n      pop\n      mload(0x40)\n      returndatasize\n      not(0x1f)\n      0x1f\n      dup3\n      add\n      and\n      dup3\n      add\n      dup1\n      0x40\n      mstore\n      pop\n      dup2\n      add\n      swap1\n      tag_255\n      swap2\n      swap1\n      tag_247\n      jump\t// in\n    tag_255:\n        /* \"contracts/XENDoge.sol\":2224:2273  this.totalSupply() > 7500000000000000000000000000 */\n      gt\n        /* \"contracts/XENDoge.sol\":2224:2328  this.totalSupply() > 7500000000000000000000000000 && this.totalSupply() <= 12500000000000000000000000000 */\n      dup1\n      iszero\n      tag_256\n      jumpi\n      pop\n        /* \"contracts/XENDoge.sol\":2299:2328  12500000000000000000000000000 */\n      0x2863c1f5cdae42f954000000\n        /* \"contracts/XENDoge.sol\":2277:2281  this */\n      address\n        /* \"contracts/XENDoge.sol\":2277:2293  this.totalSupply */\n      0xffffffffffffffffffffffffffffffffffffffff\n      and\n      0x18160ddd\n        /* \"contracts/XENDoge.sol\":2277:2295  this.totalSupply() */\n      mload(0x40)\n      dup2\n      0xffffffff\n      and\n      0xe0\n      shl\n      dup2\n      mstore\n      0x04\n      add\n      0x20\n      mload(0x40)\n      dup1\n      dup4\n      sub\n      dup2\n      dup7\n      gas\n      staticcall\n      iszero\n      dup1\n      iszero\n      tag_258\n      jumpi\n      returndatasize\n      0x00\n      dup1\n      returndatacopy\n      revert(0x00, returndatasize)\n    tag_258:\n      pop\n      pop\n      pop\n      pop\n      mload(0x40)\n      returndatasize\n      not(0x1f)\n      0x1f\n      dup3\n      add\n      and\n      dup3\n      add\n      dup1\n      0x40\n      mstore\n      pop\n      dup2\n      add\n      swap1\n      tag_259\n      swap2\n      swap1\n      tag_247\n      jump\t// in\n    tag_259:\n        /* \"contracts/XENDoge.sol\":2277:2328  this.totalSupply() <= 12500000000000000000000000000 */\n      gt\n      iszero\n        /* \"contracts/XENDoge.sol\":2224:2328  this.totalSupply() > 7500000000000000000000000000 && this.totalSupply() <= 12500000000000000000000000000 */\n    tag_256:\n        /* \"contracts/XENDoge.sol\":2220:2343  if (this.totalSupply() > 7500000000000000000000000000 && this.totalSupply() <= 12500000000000000000000000000) return 100000 */\n      iszero\n      tag_260\n      jumpi\n        /* \"contracts/XENDoge.sol\":2337:2343  100000 */\n      0x0186a0\n        /* \"contracts/XENDoge.sol\":2330:2343  return 100000 */\n      swap1\n      pop\n      jump(tag_243)\n        /* \"contracts/XENDoge.sol\":2220:2343  if (this.totalSupply() > 7500000000000000000000000000 && this.totalSupply() <= 12500000000000000000000000000) return 100000 */\n    tag_260:\n        /* \"contracts/XENDoge.sol\":2381:2410  12500000000000000000000000000 */\n      0x2863c1f5cdae42f954000000\n        /* \"contracts/XENDoge.sol\":2360:2364  this */\n      address\n        /* \"contracts/XENDoge.sol\":2360:2376  this.totalSupply */\n      0xffffffffffffffffffffffffffffffffffffffff\n      and\n      0x18160ddd\n        /* \"contracts/XENDoge.sol\":2360:2378  this.totalSupply() */\n      mload(0x40)\n      dup2\n      0xffffffff\n      and\n      0xe0\n      shl\n      dup2\n      mstore\n      0x04\n      add\n      0x20\n      mload(0x40)\n      dup1\n      dup4\n      sub\n      dup2\n      dup7\n      gas\n      staticcall\n      iszero\n      dup1\n      iszero\n      tag_262\n      jumpi\n      returndatasize\n      0x00\n      dup1\n      returndatacopy\n      revert(0x00, returndatasize)\n    tag_262:\n      pop\n      pop\n      pop\n      pop\n      mload(0x40)\n      returndatasize\n      not(0x1f)\n      0x1f\n      dup3\n      add\n      and\n      dup3\n      add\n      dup1\n      0x40\n      mstore\n      pop\n      dup2\n      add\n      swap1\n      tag_263\n      swap2\n      swap1\n      tag_247\n      jump\t// in\n    tag_263:\n        /* \"contracts/XENDoge.sol\":2360:2410  this.totalSupply() > 12500000000000000000000000000 */\n      gt\n        /* \"contracts/XENDoge.sol\":2360:2465  this.totalSupply() > 12500000000000000000000000000 && this.totalSupply() <= 17500000000000000000000000000 */\n      dup1\n      iszero\n      tag_264\n      jumpi\n      pop\n        /* \"contracts/XENDoge.sol\":2436:2465  17500000000000000000000000000 */\n      0x388ba924ecc0c429dc000000\n        /* \"contracts/XENDoge.sol\":2414:2418  this */\n      address\n        /* \"contracts/XENDoge.sol\":2414:2430  this.totalSupply */\n      0xffffffffffffffffffffffffffffffffffffffff\n      and\n      0x18160ddd\n        /* \"contracts/XENDoge.sol\":2414:2432  this.totalSupply() */\n      mload(0x40)\n      dup2\n      0xffffffff\n      and\n      0xe0\n      shl\n      dup2\n      mstore\n      0x04\n      add\n      0x20\n      mload(0x40)\n      dup1\n      dup4\n      sub\n      dup2\n      dup7\n      gas\n      staticcall\n      iszero\n      dup1\n      iszero\n      tag_266\n      jumpi\n      returndatasize\n      0x00\n      dup1\n      returndatacopy\n      revert(0x00, returndatasize)\n    tag_266:\n      pop\n      pop\n      pop\n      pop\n      mload(0x40)\n      returndatasize\n      not(0x1f)\n      0x1f\n      dup3\n      add\n      and\n      dup3\n      add\n      dup1\n      0x40\n      mstore\n      pop\n      dup2\n      add\n      swap1\n      tag_267\n      swap2\n      swap1\n      tag_247\n      jump\t// in\n    tag_267:\n        /* \"contracts/XENDoge.sol\":2414:2465  this.totalSupply() <= 17500000000000000000000000000 */\n      gt\n      iszero\n        /* \"contracts/XENDoge.sol\":2360:2465  this.totalSupply() > 12500000000000000000000000000 && this.totalSupply() <= 17500000000000000000000000000 */\n    tag_264:\n        /* \"contracts/XENDoge.sol\":2356:2479  if (this.totalSupply() > 12500000000000000000000000000 && this.totalSupply() <= 17500000000000000000000000000) return 66600 */\n      iszero\n      tag_268\n      jumpi\n        /* \"contracts/XENDoge.sol\":2474:2479  66600 */\n      0x010428\n        /* \"contracts/XENDoge.sol\":2467:2479  return 66600 */\n      swap1\n      pop\n      jump(tag_243)\n        /* \"contracts/XENDoge.sol\":2356:2479  if (this.totalSupply() > 12500000000000000000000000000 && this.totalSupply() <= 17500000000000000000000000000) return 66600 */\n    tag_268:\n        /* \"contracts/XENDoge.sol\":2518:2547  17500000000000000000000000000 */\n      0x388ba924ecc0c429dc000000\n        /* \"contracts/XENDoge.sol\":2497:2501  this */\n      address\n        /* \"contracts/XENDoge.sol\":2497:2513  this.totalSupply */\n      0xffffffffffffffffffffffffffffffffffffffff\n      and\n      0x18160ddd\n        /* \"contracts/XENDoge.sol\":2497:2515  this.totalSupply() */\n      mload(0x40)\n      dup2\n      0xffffffff\n      and\n      0xe0\n      shl\n      dup2\n      mstore\n      0x04\n      add\n      0x20\n      mload(0x40)\n      dup1\n      dup4\n      sub\n      dup2\n      dup7\n      gas\n      staticcall\n      iszero\n      dup1\n      iszero\n      tag_270\n      jumpi\n      returndatasize\n      0x00\n      dup1\n      returndatacopy\n      revert(0x00, returndatasize)\n    tag_270:\n      pop\n      pop\n      pop\n      pop\n      mload(0x40)\n      returndatasize\n      not(0x1f)\n      0x1f\n      dup3\n      add\n      and\n      dup3\n      add\n      dup1\n      0x40\n      mstore\n      pop\n      dup2\n      add\n      swap1\n      tag_271\n      swap2\n      swap1\n      tag_247\n      jump\t// in\n    tag_271:\n        /* \"contracts/XENDoge.sol\":2497:2547  this.totalSupply() > 17500000000000000000000000000 */\n      gt\n        /* \"contracts/XENDoge.sol\":2497:2602  this.totalSupply() > 17500000000000000000000000000 && this.totalSupply() <= 22500000000000000000000000000 */\n      dup1\n      iszero\n      tag_272\n      jumpi\n      pop\n        /* \"contracts/XENDoge.sol\":2573:2602  22500000000000000000000000000 */\n      0x48b390540bd3455a64000000\n        /* \"contracts/XENDoge.sol\":2551:2555  this */\n      address\n        /* \"contracts/XENDoge.sol\":2551:2567  this.totalSupply */\n      0xffffffffffffffffffffffffffffffffffffffff\n      and\n      0x18160ddd\n        /* \"contracts/XENDoge.sol\":2551:2569  this.totalSupply() */\n      mload(0x40)\n      dup2\n      0xffffffff\n      and\n      0xe0\n      shl\n      dup2\n      mstore\n      0x04\n      add\n      0x20\n      mload(0x40)\n      dup1\n      dup4\n      sub\n      dup2\n      dup7\n      gas\n      staticcall\n      iszero\n      dup1\n      iszero\n      tag_274\n      jumpi\n      returndatasize\n      0x00\n      dup1\n      returndatacopy\n      revert(0x00, returndatasize)\n    tag_274:\n      pop\n      pop\n      pop\n      pop\n      mload(0x40)\n      returndatasize\n      not(0x1f)\n      0x1f\n      dup3\n      add\n      and\n      dup3\n      add\n      dup1\n      0x40\n      mstore\n      pop\n      dup2\n      add\n      swap1\n      tag_275\n      swap2\n      swap1\n      tag_247\n      jump\t// in\n    tag_275:\n        /* \"contracts/XENDoge.sol\":2551:2602  this.totalSupply() <= 22500000000000000000000000000 */\n      gt\n      iszero\n        /* \"contracts/XENDoge.sol\":2497:2602  this.totalSupply() > 17500000000000000000000000000 && this.totalSupply() <= 22500000000000000000000000000 */\n    tag_272:\n        /* \"contracts/XENDoge.sol\":2493:2616  if (this.totalSupply() > 17500000000000000000000000000 && this.totalSupply() <= 22500000000000000000000000000) return 44400 */\n      iszero\n      tag_276\n      jumpi\n        /* \"contracts/XENDoge.sol\":2611:2616  44400 */\n      0xad70\n        /* \"contracts/XENDoge.sol\":2604:2616  return 44400 */\n      swap1\n      pop\n      jump(tag_243)\n        /* \"contracts/XENDoge.sol\":2493:2616  if (this.totalSupply() > 17500000000000000000000000000 && this.totalSupply() <= 22500000000000000000000000000) return 44400 */\n    tag_276:\n        /* \"contracts/XENDoge.sol\":2655:2684  22500000000000000000000000000 */\n      0x48b390540bd3455a64000000\n        /* \"contracts/XENDoge.sol\":2634:2638  this */\n      address\n        /* \"contracts/XENDoge.sol\":2634:2650  this.totalSupply */\n      0xffffffffffffffffffffffffffffffffffffffff\n      and\n      0x18160ddd\n        /* \"contracts/XENDoge.sol\":2634:2652  this.totalSupply() */\n      mload(0x40)\n      dup2\n      0xffffffff\n      and\n      0xe0\n      shl\n      dup2\n      mstore\n      0x04\n      add\n      0x20\n      mload(0x40)\n      dup1\n      dup4\n      sub\n      dup2\n      dup7\n      gas\n      staticcall\n      iszero\n      dup1\n      iszero\n      tag_278\n      jumpi\n      returndatasize\n      0x00\n      dup1\n      returndatacopy\n      revert(0x00, returndatasize)\n    tag_278:\n      pop\n      pop\n      pop\n      pop\n      mload(0x40)\n      returndatasize\n      not(0x1f)\n      0x1f\n      dup3\n      add\n      and\n      dup3\n      add\n      dup1\n      0x40\n      mstore\n      pop\n      dup2\n      add\n      swap1\n      tag_279\n      swap2\n      swap1\n      tag_247\n      jump\t// in\n    tag_279:\n        /* \"contracts/XENDoge.sol\":2634:2684  this.totalSupply() > 22500000000000000000000000000 */\n      gt\n        /* \"contracts/XENDoge.sol\":2634:2739  this.totalSupply() > 22500000000000000000000000000 && this.totalSupply() <= 27500000000000000000000000000 */\n      dup1\n      iszero\n      tag_280\n      jumpi\n      pop\n        /* \"contracts/XENDoge.sol\":2710:2739  27500000000000000000000000000 */\n      0x58db77832ae5c68aec000000\n        /* \"contracts/XENDoge.sol\":2688:2692  this */\n      address\n        /* \"contracts/XENDoge.sol\":2688:2704  this.totalSupply */\n      0xffffffffffffffffffffffffffffffffffffffff\n      and\n      0x18160ddd\n        /* \"contracts/XENDoge.sol\":2688:2706  this.totalSupply() */\n      mload(0x40)\n      dup2\n      0xffffffff\n      and\n      0xe0\n      shl\n      dup2\n      mstore\n      0x04\n      add\n      0x20\n      mload(0x40)\n      dup1\n      dup4\n      sub\n      dup2\n      dup7\n      gas\n      staticcall\n      iszero\n      dup1\n      iszero\n      tag_282\n      jumpi\n      returndatasize\n      0x00\n      dup1\n      returndatacopy\n      revert(0x00, returndatasize)\n    tag_282:\n      pop\n      pop\n      pop\n      pop\n      mload(0x40)\n      returndatasize\n      not(0x1f)\n      0x1f\n      dup3\n      add\n      and\n      dup3\n      add\n      dup1\n      0x40\n      mstore\n      pop\n      dup2\n      add\n      swap1\n      tag_283\n      swap2\n      swap1\n      tag_247\n      jump\t// in\n    tag_283:\n        /* \"contracts/XENDoge.sol\":2688:2739  this.totalSupply() <= 27500000000000000000000000000 */\n      gt\n      iszero\n        /* \"contracts/XENDoge.sol\":2634:2739  this.totalSupply() > 22500000000000000000000000000 && this.totalSupply() <= 27500000000000000000000000000 */\n    tag_280:\n        /* \"contracts/XENDoge.sol\":2630:2753  if (this.totalSupply() > 22500000000000000000000000000 && this.totalSupply() <= 27500000000000000000000000000) return 29600 */\n      iszero\n      tag_284\n      jumpi\n        /* \"contracts/XENDoge.sol\":2748:2753  29600 */\n      0x73a0\n        /* \"contracts/XENDoge.sol\":2741:2753  return 29600 */\n      swap1\n      pop\n      jump(tag_243)\n        /* \"contracts/XENDoge.sol\":2630:2753  if (this.totalSupply() > 22500000000000000000000000000 && this.totalSupply() <= 27500000000000000000000000000) return 29600 */\n    tag_284:\n        /* \"contracts/XENDoge.sol\":2792:2821  27500000000000000000000000000 */\n      0x58db77832ae5c68aec000000\n        /* \"contracts/XENDoge.sol\":2771:2775  this */\n      address\n        /* \"contracts/XENDoge.sol\":2771:2787  this.totalSupply */\n      0xffffffffffffffffffffffffffffffffffffffff\n      and\n      0x18160ddd\n        /* \"contracts/XENDoge.sol\":2771:2789  this.totalSupply() */\n      mload(0x40)\n      dup2\n      0xffffffff\n      and\n      0xe0\n      shl\n      dup2\n      mstore\n      0x04\n      add\n      0x20\n      mload(0x40)\n      dup1\n      dup4\n      sub\n      dup2\n      dup7\n      gas\n      staticcall\n      iszero\n      dup1\n      iszero\n      tag_286\n      jumpi\n      returndatasize\n      0x00\n      dup1\n      returndatacopy\n      revert(0x00, returndatasize)\n    tag_286:\n      pop\n      pop\n      pop\n      pop\n      mload(0x40)\n      returndatasize\n      not(0x1f)\n      0x1f\n      dup3\n      add\n      and\n      dup3\n      add\n      dup1\n      0x40\n      mstore\n      pop\n      dup2\n      add\n      swap1\n      tag_287\n      swap2\n      swap1\n      tag_247\n      jump\t// in\n    tag_287:\n        /* \"contracts/XENDoge.sol\":2771:2821  this.totalSupply() > 27500000000000000000000000000 */\n      gt\n        /* \"contracts/XENDoge.sol\":2771:2876  this.totalSupply() > 27500000000000000000000000000 && this.totalSupply() <= 32500000000000000000000000000 */\n      dup1\n      iszero\n      tag_288\n      jumpi\n      pop\n        /* \"contracts/XENDoge.sol\":2847:2876  32500000000000000000000000000 */\n      0x69035eb249f847bb74000000\n        /* \"contracts/XENDoge.sol\":2825:2829  this */\n      address\n        /* \"contracts/XENDoge.sol\":2825:2841  this.totalSupply */\n      0xffffffffffffffffffffffffffffffffffffffff\n      and\n      0x18160ddd\n        /* \"contracts/XENDoge.sol\":2825:2843  this.totalSupply() */\n      mload(0x40)\n      dup2\n      0xffffffff\n      and\n      0xe0\n      shl\n      dup2\n      mstore\n      0x04\n      add\n      0x20\n      mload(0x40)\n      dup1\n      dup4\n      sub\n      dup2\n      dup7\n      gas\n      staticcall\n      iszero\n      dup1\n      iszero\n      tag_290\n      jumpi\n      returndatasize\n      0x00\n      dup1\n      returndatacopy\n      revert(0x00, returndatasize)\n    tag_290:\n      pop\n      pop\n      pop\n      pop\n      mload(0x40)\n      returndatasize\n      not(0x1f)\n      0x1f\n      dup3\n      add\n      and\n      dup3\n      add\n      dup1\n      0x40\n      mstore\n      pop\n      dup2\n      add\n      swap1\n      tag_291\n      swap2\n      swap1\n      tag_247\n      jump\t// in\n    tag_291:\n        /* \"contracts/XENDoge.sol\":2825:2876  this.totalSupply() <= 32500000000000000000000000000 */\n      gt\n      iszero\n        /* \"contracts/XENDoge.sol\":2771:2876  this.totalSupply() > 27500000000000000000000000000 && this.totalSupply() <= 32500000000000000000000000000 */\n    tag_288:\n        /* \"contracts/XENDoge.sol\":2767:2890  if (this.totalSupply() > 27500000000000000000000000000 && this.totalSupply() <= 32500000000000000000000000000) return 19700 */\n      iszero\n      tag_292\n      jumpi\n        /* \"contracts/XENDoge.sol\":2885:2890  19700 */\n      0x4cf4\n        /* \"contracts/XENDoge.sol\":2878:2890  return 19700 */\n      swap1\n      pop\n      jump(tag_243)\n        /* \"contracts/XENDoge.sol\":2767:2890  if (this.totalSupply() > 27500000000000000000000000000 && this.totalSupply() <= 32500000000000000000000000000) return 19700 */\n    tag_292:\n        /* \"contracts/XENDoge.sol\":2929:2958  32500000000000000000000000000 */\n      0x69035eb249f847bb74000000\n        /* \"contracts/XENDoge.sol\":2908:2912  this */\n      address\n        /* \"contracts/XENDoge.sol\":2908:2924  this.totalSupply */\n      0xffffffffffffffffffffffffffffffffffffffff\n      and\n      0x18160ddd\n        /* \"contracts/XENDoge.sol\":2908:2926  this.totalSupply() */\n      mload(0x40)\n      dup2\n      0xffffffff\n      and\n      0xe0\n      shl\n      dup2\n      mstore\n      0x04\n      add\n      0x20\n      mload(0x40)\n      dup1\n      dup4\n      sub\n      dup2\n      dup7\n      gas\n      staticcall\n      iszero\n      dup1\n      iszero\n      tag_294\n      jumpi\n      returndatasize\n      0x00\n      dup1\n      returndatacopy\n      revert(0x00, returndatasize)\n    tag_294:\n      pop\n      pop\n      pop\n      pop\n      mload(0x40)\n      returndatasize\n      not(0x1f)\n      0x1f\n      dup3\n      add\n      and\n      dup3\n      add\n      dup1\n      0x40\n      mstore\n      pop\n      dup2\n      add\n      swap1\n      tag_295\n      swap2\n      swap1\n      tag_247\n      jump\t// in\n    tag_295:\n        /* \"contracts/XENDoge.sol\":2908:2958  this.totalSupply() > 32500000000000000000000000000 */\n      gt\n        /* \"contracts/XENDoge.sol\":2908:3013  this.totalSupply() > 32500000000000000000000000000 && this.totalSupply() <= 35000000000000000000000000000 */\n      dup1\n      iszero\n      tag_296\n      jumpi\n      pop\n        /* \"contracts/XENDoge.sol\":2984:3013  35000000000000000000000000000 */\n      0x71175249d9818853b8000000\n        /* \"contracts/XENDoge.sol\":2962:2966  this */\n      address\n        /* \"contracts/XENDoge.sol\":2962:2978  this.totalSupply */\n      0xffffffffffffffffffffffffffffffffffffffff\n      and\n      0x18160ddd\n        /* \"contracts/XENDoge.sol\":2962:2980  this.totalSupply() */\n      mload(0x40)\n      dup2\n      0xffffffff\n      and\n      0xe0\n      shl\n      dup2\n      mstore\n      0x04\n      add\n      0x20\n      mload(0x40)\n      dup1\n      dup4\n      sub\n      dup2\n      dup7\n      gas\n      staticcall\n      iszero\n      dup1\n      iszero\n      tag_298\n      jumpi\n      returndatasize\n      0x00\n      dup1\n      returndatacopy\n      revert(0x00, returndatasize)\n    tag_298:\n      pop\n      pop\n      pop\n      pop\n      mload(0x40)\n      returndatasize\n      not(0x1f)\n      0x1f\n      dup3\n      add\n      and\n      dup3\n      add\n      dup1\n      0x40\n      mstore\n      pop\n      dup2\n      add\n      swap1\n      tag_299\n      swap2\n      swap1\n      tag_247\n      jump\t// in\n    tag_299:\n        /* \"contracts/XENDoge.sol\":2962:3013  this.totalSupply() <= 35000000000000000000000000000 */\n      gt\n      iszero\n        /* \"contracts/XENDoge.sol\":2908:3013  this.totalSupply() > 32500000000000000000000000000 && this.totalSupply() <= 35000000000000000000000000000 */\n    tag_296:\n        /* \"contracts/XENDoge.sol\":2904:3027  if (this.totalSupply() > 32500000000000000000000000000 && this.totalSupply() <= 35000000000000000000000000000) return 13100 */\n      iszero\n      tag_300\n      jumpi\n        /* \"contracts/XENDoge.sol\":3022:3027  13100 */\n      0x332c\n        /* \"contracts/XENDoge.sol\":3015:3027  return 13100 */\n      swap1\n      pop\n      jump(tag_243)\n        /* \"contracts/XENDoge.sol\":2904:3027  if (this.totalSupply() > 32500000000000000000000000000 && this.totalSupply() <= 35000000000000000000000000000) return 13100 */\n    tag_300:\n        /* \"contracts/XENDoge.sol\":3066:3095  35000000000000000000000000000 */\n      0x71175249d9818853b8000000\n        /* \"contracts/XENDoge.sol\":3045:3049  this */\n      address\n        /* \"contracts/XENDoge.sol\":3045:3061  this.totalSupply */\n      0xffffffffffffffffffffffffffffffffffffffff\n      and\n      0x18160ddd\n        /* \"contracts/XENDoge.sol\":3045:3063  this.totalSupply() */\n      mload(0x40)\n      dup2\n      0xffffffff\n      and\n      0xe0\n      shl\n      dup2\n      mstore\n      0x04\n      add\n      0x20\n      mload(0x40)\n      dup1\n      dup4\n      sub\n      dup2\n      dup7\n      gas\n      staticcall\n      iszero\n      dup1\n      iszero\n      tag_302\n      jumpi\n      returndatasize\n      0x00\n      dup1\n      returndatacopy\n      revert(0x00, returndatasize)\n    tag_302:\n      pop\n      pop\n      pop\n      pop\n      mload(0x40)\n      returndatasize\n      not(0x1f)\n      0x1f\n      dup3\n      add\n      and\n      dup3\n      add\n      dup1\n      0x40\n      mstore\n      pop\n      dup2\n      add\n      swap1\n      tag_303\n      swap2\n      swap1\n      tag_247\n      jump\t// in\n    tag_303:\n        /* \"contracts/XENDoge.sol\":3045:3095  this.totalSupply() > 35000000000000000000000000000 */\n      gt\n        /* \"contracts/XENDoge.sol\":3045:3150  this.totalSupply() > 35000000000000000000000000000 && this.totalSupply() <= 37500000000000000000000000000 */\n      dup1\n      iszero\n      tag_304\n      jumpi\n      pop\n        /* \"contracts/XENDoge.sol\":3121:3150  37500000000000000000000000000 */\n      0x792b45e1690ac8ebfc000000\n        /* \"contracts/XENDoge.sol\":3099:3103  this */\n      address\n        /* \"contracts/XENDoge.sol\":3099:3115  this.totalSupply */\n      0xffffffffffffffffffffffffffffffffffffffff\n      and\n      0x18160ddd\n        /* \"contracts/XENDoge.sol\":3099:3117  this.totalSupply() */\n      mload(0x40)\n      dup2\n      0xffffffff\n      and\n      0xe0\n      shl\n      dup2\n      mstore\n      0x04\n      add\n      0x20\n      mload(0x40)\n      dup1\n      dup4\n      sub\n      dup2\n      dup7\n      gas\n      staticcall\n      iszero\n      dup1\n      iszero\n      tag_306\n      jumpi\n      returndatasize\n      0x00\n      dup1\n      returndatacopy\n      revert(0x00, returndatasize)\n    tag_306:\n      pop\n      pop\n      pop\n      pop\n      mload(0x40)\n      returndatasize\n      not(0x1f)\n      0x1f\n      dup3\n      add\n      and\n      dup3\n      add\n      dup1\n      0x40\n      mstore\n      pop\n      dup2\n      add\n      swap1\n      tag_307\n      swap2\n      swap1\n      tag_247\n      jump\t// in\n    tag_307:\n        /* \"contracts/XENDoge.sol\":3099:3150  this.totalSupply() <= 37500000000000000000000000000 */\n      gt\n      iszero\n        /* \"contracts/XENDoge.sol\":3045:3150  this.totalSupply() > 35000000000000000000000000000 && this.totalSupply() <= 37500000000000000000000000000 */\n    tag_304:\n        /* \"contracts/XENDoge.sol\":3041:3163  if (this.totalSupply() > 35000000000000000000000000000 && this.totalSupply() <= 37500000000000000000000000000) return 8700 */\n      iszero\n      tag_308\n      jumpi\n        /* \"contracts/XENDoge.sol\":3159:3163  8700 */\n      0x21fc\n        /* \"contracts/XENDoge.sol\":3152:3163  return 8700 */\n      swap1\n      pop\n      jump(tag_243)\n        /* \"contracts/XENDoge.sol\":3041:3163  if (this.totalSupply() > 35000000000000000000000000000 && this.totalSupply() <= 37500000000000000000000000000) return 8700 */\n    tag_308:\n        /* \"contracts/XENDoge.sol\":3202:3231  37500000000000000000000000000 */\n      0x792b45e1690ac8ebfc000000\n        /* \"contracts/XENDoge.sol\":3181:3185  this */\n      address\n        /* \"contracts/XENDoge.sol\":3181:3197  this.totalSupply */\n      0xffffffffffffffffffffffffffffffffffffffff\n      and\n      0x18160ddd\n        /* \"contracts/XENDoge.sol\":3181:3199  this.totalSupply() */\n      mload(0x40)\n      dup2\n      0xffffffff\n      and\n      0xe0\n      shl\n      dup2\n      mstore\n      0x04\n      add\n      0x20\n      mload(0x40)\n      dup1\n      dup4\n      sub\n      dup2\n      dup7\n      gas\n      staticcall\n      iszero\n      dup1\n      iszero\n      tag_310\n      jumpi\n      returndatasize\n      0x00\n      dup1\n      returndatacopy\n      revert(0x00, returndatasize)\n    tag_310:\n      pop\n      pop\n      pop\n      pop\n      mload(0x40)\n      returndatasize\n      not(0x1f)\n      0x1f\n      dup3\n      add\n      and\n      dup3\n      add\n      dup1\n      0x40\n      mstore\n      pop\n      dup2\n      add\n      swap1\n      tag_311\n      swap2\n      swap1\n      tag_247\n      jump\t// in\n    tag_311:\n        /* \"contracts/XENDoge.sol\":3181:3231  this.totalSupply() > 37500000000000000000000000000 */\n      gt\n        /* \"contracts/XENDoge.sol\":3181:3286  this.totalSupply() > 37500000000000000000000000000 && this.totalSupply() <= 40000000000000000000000000000 */\n      dup1\n      iszero\n      tag_312\n      jumpi\n      pop\n        /* \"contracts/XENDoge.sol\":3257:3286  40000000000000000000000000000 */\n      0x813f3978f894098440000000\n        /* \"contracts/XENDoge.sol\":3235:3239  this */\n      address\n        /* \"contracts/XENDoge.sol\":3235:3251  this.totalSupply */\n      0xffffffffffffffffffffffffffffffffffffffff\n      and\n      0x18160ddd\n        /* \"contracts/XENDoge.sol\":3235:3253  this.totalSupply() */\n      mload(0x40)\n      dup2\n      0xffffffff\n      and\n      0xe0\n      shl\n      dup2\n      mstore\n      0x04\n      add\n      0x20\n      mload(0x40)\n      dup1\n      dup4\n      sub\n      dup2\n      dup7\n      gas\n      staticcall\n      iszero\n      dup1\n      iszero\n      tag_314\n      jumpi\n      returndatasize\n      0x00\n      dup1\n      returndatacopy\n      revert(0x00, returndatasize)\n    tag_314:\n      pop\n      pop\n      pop\n      pop\n      mload(0x40)\n      returndatasize\n      not(0x1f)\n      0x1f\n      dup3\n      add\n      and\n      dup3\n      add\n      dup1\n      0x40\n      mstore\n      pop\n      dup2\n      add\n      swap1\n      tag_315\n      swap2\n      swap1\n      tag_247\n      jump\t// in\n    tag_315:\n        /* \"contracts/XENDoge.sol\":3235:3286  this.totalSupply() <= 40000000000000000000000000000 */\n      gt\n      iszero\n        /* \"contracts/XENDoge.sol\":3181:3286  this.totalSupply() > 37500000000000000000000000000 && this.totalSupply() <= 40000000000000000000000000000 */\n    tag_312:\n        /* \"contracts/XENDoge.sol\":3177:3299  if (this.totalSupply() > 37500000000000000000000000000 && this.totalSupply() <= 40000000000000000000000000000) return 5800 */\n      iszero\n      tag_316\n      jumpi\n        /* \"contracts/XENDoge.sol\":3295:3299  5800 */\n      0x16a8\n        /* \"contracts/XENDoge.sol\":3288:3299  return 5800 */\n      swap1\n      pop\n      jump(tag_243)\n        /* \"contracts/XENDoge.sol\":3177:3299  if (this.totalSupply() > 37500000000000000000000000000 && this.totalSupply() <= 40000000000000000000000000000) return 5800 */\n    tag_316:\n        /* \"contracts/XENDoge.sol\":3338:3367  40000000000000000000000000000 */\n      0x813f3978f894098440000000\n        /* \"contracts/XENDoge.sol\":3317:3321  this */\n      address\n        /* \"contracts/XENDoge.sol\":3317:3333  this.totalSupply */\n      0xffffffffffffffffffffffffffffffffffffffff\n      and\n      0x18160ddd\n        /* \"contracts/XENDoge.sol\":3317:3335  this.totalSupply() */\n      mload(0x40)\n      dup2\n      0xffffffff\n      and\n      0xe0\n      shl\n      dup2\n      mstore\n      0x04\n      add\n      0x20\n      mload(0x40)\n      dup1\n      dup4\n      sub\n      dup2\n      dup7\n      gas\n      staticcall\n      iszero\n      dup1\n      iszero\n      tag_318\n      jumpi\n      returndatasize\n      0x00\n      dup1\n      returndatacopy\n      revert(0x00, returndatasize)\n    tag_318:\n      pop\n      pop\n      pop\n      pop\n      mload(0x40)\n      returndatasize\n      not(0x1f)\n      0x1f\n      dup3\n      add\n      and\n      dup3\n      add\n      dup1\n      0x40\n      mstore\n      pop\n      dup2\n      add\n      swap1\n      tag_319\n      swap2\n      swap1\n      tag_247\n      jump\t// in\n    tag_319:\n        /* \"contracts/XENDoge.sol\":3317:3367  this.totalSupply() > 40000000000000000000000000000 */\n      gt\n        /* \"contracts/XENDoge.sol\":3317:3422  this.totalSupply() > 40000000000000000000000000000 && this.totalSupply() <= 42500000000000000000000000000 */\n      dup1\n      iszero\n      tag_320\n      jumpi\n      pop\n        /* \"contracts/XENDoge.sol\":3393:3422  42500000000000000000000000000 */\n      0x89532d10881d4a1c84000000\n        /* \"contracts/XENDoge.sol\":3371:3375  this */\n      address\n        /* \"contracts/XENDoge.sol\":3371:3387  this.totalSupply */\n      0xffffffffffffffffffffffffffffffffffffffff\n      and\n      0x18160ddd\n        /* \"contracts/XENDoge.sol\":3371:3389  this.totalSupply() */\n      mload(0x40)\n      dup2\n      0xffffffff\n      and\n      0xe0\n      shl\n      dup2\n      mstore\n      0x04\n      add\n      0x20\n      mload(0x40)\n      dup1\n      dup4\n      sub\n      dup2\n      dup7\n      gas\n      staticcall\n      iszero\n      dup1\n      iszero\n      tag_322\n      jumpi\n      returndatasize\n      0x00\n      dup1\n      returndatacopy\n      revert(0x00, returndatasize)\n    tag_322:\n      pop\n      pop\n      pop\n      pop\n      mload(0x40)\n      returndatasize\n      not(0x1f)\n      0x1f\n      dup3\n      add\n      and\n      dup3\n      add\n      dup1\n      0x40\n      mstore\n      pop\n      dup2\n      add\n      swap1\n      tag_323\n      swap2\n      swap1\n      tag_247\n      jump\t// in\n    tag_323:\n        /* \"contracts/XENDoge.sol\":3371:3422  this.totalSupply() <= 42500000000000000000000000000 */\n      gt\n      iszero\n        /* \"contracts/XENDoge.sol\":3317:3422  this.totalSupply() > 40000000000000000000000000000 && this.totalSupply() <= 42500000000000000000000000000 */\n    tag_320:\n        /* \"contracts/XENDoge.sol\":3313:3435  if (this.totalSupply() > 40000000000000000000000000000 && this.totalSupply() <= 42500000000000000000000000000) return 3800 */\n      iszero\n      tag_324\n      jumpi\n        /* \"contracts/XENDoge.sol\":3431:3435  3800 */\n      0x0ed8\n        /* \"contracts/XENDoge.sol\":3424:3435  return 3800 */\n      swap1\n      pop\n      jump(tag_243)\n        /* \"contracts/XENDoge.sol\":3313:3435  if (this.totalSupply() > 40000000000000000000000000000 && this.totalSupply() <= 42500000000000000000000000000) return 3800 */\n    tag_324:\n        /* \"contracts/XENDoge.sol\":3474:3503  42500000000000000000000000000 */\n      0x89532d10881d4a1c84000000\n        /* \"contracts/XENDoge.sol\":3453:3457  this */\n      address\n        /* \"contracts/XENDoge.sol\":3453:3469  this.totalSupply */\n      0xffffffffffffffffffffffffffffffffffffffff\n      and\n      0x18160ddd\n        /* \"contracts/XENDoge.sol\":3453:3471  this.totalSupply() */\n      mload(0x40)\n      dup2\n      0xffffffff\n      and\n      0xe0\n      shl\n      dup2\n      mstore\n      0x04\n      add\n      0x20\n      mload(0x40)\n      dup1\n      dup4\n      sub\n      dup2\n      dup7\n      gas\n      staticcall\n      iszero\n      dup1\n      iszero\n      tag_326\n      jumpi\n      returndatasize\n      0x00\n      dup1\n      returndatacopy\n      revert(0x00, returndatasize)\n    tag_326:\n      pop\n      pop\n      pop\n      pop\n      mload(0x40)\n      returndatasize\n      not(0x1f)\n      0x1f\n      dup3\n      add\n      and\n      dup3\n      add\n      dup1\n      0x40\n      mstore\n      pop\n      dup2\n      add\n      swap1\n      tag_327\n      swap2\n      swap1\n      tag_247\n      jump\t// in\n    tag_327:\n        /* \"contracts/XENDoge.sol\":3453:3503  this.totalSupply() > 42500000000000000000000000000 */\n      gt\n        /* \"contracts/XENDoge.sol\":3453:3558  this.totalSupply() > 42500000000000000000000000000 && this.totalSupply() <= 45000000000000000000000000000 */\n      dup1\n      iszero\n      tag_328\n      jumpi\n      pop\n        /* \"contracts/XENDoge.sol\":3529:3558  45000000000000000000000000000 */\n      0x916720a817a68ab4c8000000\n        /* \"contracts/XENDoge.sol\":3507:3511  this */\n      address\n        /* \"contracts/XENDoge.sol\":3507:3523  this.totalSupply */\n      0xffffffffffffffffffffffffffffffffffffffff\n      and\n      0x18160ddd\n        /* \"contracts/XENDoge.sol\":3507:3525  this.totalSupply() */\n      mload(0x40)\n      dup2\n      0xffffffff\n      and\n      0xe0\n      shl\n      dup2\n      mstore\n      0x04\n      add\n      0x20\n      mload(0x40)\n      dup1\n      dup4\n      sub\n      dup2\n      dup7\n      gas\n      staticcall\n      iszero\n      dup1\n      iszero\n      tag_330\n      jumpi\n      returndatasize\n      0x00\n      dup1\n      returndatacopy\n      revert(0x00, returndatasize)\n    tag_330:\n      pop\n      pop\n      pop\n      pop\n      mload(0x40)\n      returndatasize\n      not(0x1f)\n      0x1f\n      dup3\n      add\n      and\n      dup3\n      add\n      dup1\n      0x40\n      mstore\n      pop\n      dup2\n      add\n      swap1\n      tag_331\n      swap2\n      swap1\n      tag_247\n      jump\t// in\n    tag_331:\n        /* \"contracts/XENDoge.sol\":3507:3558  this.totalSupply() <= 45000000000000000000000000000 */\n      gt\n      iszero\n        /* \"contracts/XENDoge.sol\":3453:3558  this.totalSupply() > 42500000000000000000000000000 && this.totalSupply() <= 45000000000000000000000000000 */\n    tag_328:\n        /* \"contracts/XENDoge.sol\":3449:3571  if (this.totalSupply() > 42500000000000000000000000000 && this.totalSupply() <= 45000000000000000000000000000) return 2500 */\n      iszero\n      tag_332\n      jumpi\n        /* \"contracts/XENDoge.sol\":3567:3571  2500 */\n      0x09c4\n        /* \"contracts/XENDoge.sol\":3560:3571  return 2500 */\n      swap1\n      pop\n      jump(tag_243)\n        /* \"contracts/XENDoge.sol\":3449:3571  if (this.totalSupply() > 42500000000000000000000000000 && this.totalSupply() <= 45000000000000000000000000000) return 2500 */\n    tag_332:\n        /* \"contracts/XENDoge.sol\":3610:3639  45000000000000000000000000000 */\n      0x916720a817a68ab4c8000000\n        /* \"contracts/XENDoge.sol\":3589:3593  this */\n      address\n        /* \"contracts/XENDoge.sol\":3589:3605  this.totalSupply */\n      0xffffffffffffffffffffffffffffffffffffffff\n      and\n      0x18160ddd\n        /* \"contracts/XENDoge.sol\":3589:3607  this.totalSupply() */\n      mload(0x40)\n      dup2\n      0xffffffff\n      and\n      0xe0\n      shl\n      dup2\n      mstore\n      0x04\n      add\n      0x20\n      mload(0x40)\n      dup1\n      dup4\n      sub\n      dup2\n      dup7\n      gas\n      staticcall\n      iszero\n      dup1\n      iszero\n      tag_334\n      jumpi\n      returndatasize\n      0x00\n      dup1\n      returndatacopy\n      revert(0x00, returndatasize)\n    tag_334:\n      pop\n      pop\n      pop\n      pop\n      mload(0x40)\n      returndatasize\n      not(0x1f)\n      0x1f\n      dup3\n      add\n      and\n      dup3\n      add\n      dup1\n      0x40\n      mstore\n      pop\n      dup2\n      add\n      swap1\n      tag_335\n      swap2\n      swap1\n      tag_247\n      jump\t// in\n    tag_335:\n        /* \"contracts/XENDoge.sol\":3589:3639  this.totalSupply() > 45000000000000000000000000000 */\n      gt\n        /* \"contracts/XENDoge.sol\":3589:3694  this.totalSupply() > 45000000000000000000000000000 && this.totalSupply() <= 47500000000000000000000000000 */\n      dup1\n      iszero\n      tag_336\n      jumpi\n      pop\n        /* \"contracts/XENDoge.sol\":3665:3694  47500000000000000000000000000 */\n      0x997b143fa72fcb4d0c000000\n        /* \"contracts/XENDoge.sol\":3643:3647  this */\n      address\n        /* \"contracts/XENDoge.sol\":3643:3659  this.totalSupply */\n      0xffffffffffffffffffffffffffffffffffffffff\n      and\n      0x18160ddd\n        /* \"contracts/XENDoge.sol\":3643:3661  this.totalSupply() */\n      mload(0x40)\n      dup2\n      0xffffffff\n      and\n      0xe0\n      shl\n      dup2\n      mstore\n      0x04\n      add\n      0x20\n      mload(0x40)\n      dup1\n      dup4\n      sub\n      dup2\n      dup7\n      gas\n      staticcall\n      iszero\n      dup1\n      iszero\n      tag_338\n      jumpi\n      returndatasize\n      0x00\n      dup1\n      returndatacopy\n      revert(0x00, returndatasize)\n    tag_338:\n      pop\n      pop\n      pop\n      pop\n      mload(0x40)\n      returndatasize\n      not(0x1f)\n      0x1f\n      dup3\n      add\n      and\n      dup3\n      add\n      dup1\n      0x40\n      mstore\n      pop\n      dup2\n      add\n      swap1\n      tag_339\n      swap2\n      swap1\n      tag_247\n      jump\t// in\n    tag_339:\n        /* \"contracts/XENDoge.sol\":3643:3694  this.totalSupply() <= 47500000000000000000000000000 */\n      gt\n      iszero\n        /* \"contracts/XENDoge.sol\":3589:3694  this.totalSupply() > 45000000000000000000000000000 && this.totalSupply() <= 47500000000000000000000000000 */\n    tag_336:\n        /* \"contracts/XENDoge.sol\":3585:3707  if (this.totalSupply() > 45000000000000000000000000000 && this.totalSupply() <= 47500000000000000000000000000) return 1700 */\n      iszero\n      tag_340\n      jumpi\n        /* \"contracts/XENDoge.sol\":3703:3707  1700 */\n      0x06a4\n        /* \"contracts/XENDoge.sol\":3696:3707  return 1700 */\n      swap1\n      pop\n      jump(tag_243)\n        /* \"contracts/XENDoge.sol\":3585:3707  if (this.totalSupply() > 45000000000000000000000000000 && this.totalSupply() <= 47500000000000000000000000000) return 1700 */\n    tag_340:\n        /* \"contracts/XENDoge.sol\":3728:3729  0 */\n      0x00\n        /* \"contracts/XENDoge.sol\":3721:3729  return 0 */\n      swap1\n      pop\n        /* \"contracts/XENDoge.sol\":2042:3737  function getPercentBonus() private view returns (uint32) {... */\n    tag_243:\n      swap1\n      jump\t// out\n        /* \"contracts/XENDoge.sol\":3745:3880  function percentageOf(uint256 number, uint32 percent) private pure returns (uint256) {... */\n    tag_230:\n        /* \"contracts/XENDoge.sol\":3821:3828  uint256 */\n      0x00\n        /* \"contracts/XENDoge.sol\":3867:3872  10000 */\n      0x2710\n        /* \"contracts/XENDoge.sol\":3857:3864  percent */\n      dup3\n        /* \"contracts/XENDoge.sol\":3848:3864  number * percent */\n      0xffffffff\n      and\n        /* \"contracts/XENDoge.sol\":3848:3854  number */\n      dup5\n        /* \"contracts/XENDoge.sol\":3848:3864  number * percent */\n      tag_342\n      swap2\n      swap1\n      tag_343\n      jump\t// in\n    tag_342:\n        /* \"contracts/XENDoge.sol\":3848:3872  number * percent / 10000 */\n      tag_344\n      swap2\n      swap1\n      tag_226\n      jump\t// in\n    tag_344:\n        /* \"contracts/XENDoge.sol\":3841:3872  return number * percent / 10000 */\n      swap1\n      pop\n        /* \"contracts/XENDoge.sol\":3745:3880  function percentageOf(uint256 number, uint32 percent) private pure returns (uint256) {... */\n      swap3\n      swap2\n      pop\n      pop\n      jump\t// out\n        /* \"@openzeppelin/contracts/token/ERC20/ERC20.sol\":8567:9102  function _mint(address account, uint256 amount) internal virtual {... */\n    tag_240:\n        /* \"@openzeppelin/contracts/token/ERC20/ERC20.sol\":8669:8670  0 */\n      0x00\n        /* \"@openzeppelin/contracts/token/ERC20/ERC20.sol\":8650:8671  account != address(0) */\n      0xffffffffffffffffffffffffffffffffffffffff\n      and\n        /* \"@openzeppelin/contracts/token/ERC20/ERC20.sol\":8650:8657  account */\n      dup3\n        /* \"@openzeppelin/contracts/token/ERC20/ERC20.sol\":8650:8671  account != address(0) */\n      0xffffffffffffffffffffffffffffffffffffffff\n      and\n      sub\n        /* \"@openzeppelin/contracts/token/ERC20/ERC20.sol\":8642:8707  require(account != address(0), \"ERC20: mint to the zero address\") */\n      tag_346\n      jumpi\n      mload(0x40)\n      0x08c379a000000000000000000000000000000000000000000000000000000000\n      dup2\n      mstore\n      0x04\n      add\n      tag_347\n      swap1\n      tag_348\n      jump\t// in\n    tag_347:\n      mload(0x40)\n      dup1\n      swap2\n      sub\n      swap1\n      revert\n    tag_346:\n        /* \"@openzeppelin/contracts/token/ERC20/ERC20.sol\":8718:8767  _beforeTokenTransfer(address(0), account, amount) */\n      tag_349\n        /* \"@openzeppelin/contracts/token/ERC20/ERC20.sol\":8747:8748  0 */\n      0x00\n        /* \"@openzeppelin/contracts/token/ERC20/ERC20.sol\":8751:8758  account */\n      dup4\n        /* \"@openzeppelin/contracts/token/ERC20/ERC20.sol\":8760:8766  amount */\n      dup4\n        /* \"@openzeppelin/contracts/token/ERC20/ERC20.sol\":8718:8738  _beforeTokenTransfer */\n      tag_217\n        /* \"@openzeppelin/contracts/token/ERC20/ERC20.sol\":8718:8767  _beforeTokenTransfer(address(0), account, amount) */\n      jump\t// in\n    tag_349:\n        /* \"@openzeppelin/contracts/token/ERC20/ERC20.sol\":8794:8800  amount */\n      dup1\n        /* \"@openzeppelin/contracts/token/ERC20/ERC20.sol\":8778:8790  _totalSupply */\n      0x02\n      0x00\n        /* \"@openzeppelin/contracts/token/ERC20/ERC20.sol\":8778:8800  _totalSupply += amount */\n      dup3\n      dup3\n      sload\n      tag_350\n      swap2\n      swap1\n      tag_147\n      jump\t// in\n    tag_350:\n      swap3\n      pop\n      pop\n      dup2\n      swap1\n      sstore\n      pop\n        /* \"@openzeppelin/contracts/token/ERC20/ERC20.sol\":8968:8974  amount */\n      dup1\n        /* \"@openzeppelin/contracts/token/ERC20/ERC20.sol\":8946:8955  _balances */\n      0x00\n        /* \"@openzeppelin/contracts/token/ERC20/ERC20.sol\":8946:8964  _balances[account] */\n      dup1\n        /* \"@openzeppelin/contracts/token/ERC20/ERC20.sol\":8956:8963  account */\n      dup5\n        /* \"@openzeppelin/contracts/token/ERC20/ERC20.sol\":8946:8964  _balances[account] */\n      0xffffffffffffffffffffffffffffffffffffffff\n      and\n      0xffffffffffffffffffffffffffffffffffffffff\n      and\n      dup2\n      mstore\n      0x20\n      add\n      swap1\n      dup2\n      mstore\n      0x20\n      add\n      0x00\n      keccak256\n      0x00\n        /* \"@openzeppelin/contracts/token/ERC20/ERC20.sol\":8946:8974  _balances[account] += amount */\n      dup3\n      dup3\n      sload\n      add\n      swap3\n      pop\n      pop\n      dup2\n      swap1\n      sstore\n      pop\n        /* \"@openzeppelin/contracts/token/ERC20/ERC20.sol\":9020:9027  account */\n      dup2\n        /* \"@openzeppelin/contracts/token/ERC20/ERC20.sol\":8999:9036  Transfer(address(0), account, amount) */\n      0xffffffffffffffffffffffffffffffffffffffff\n      and\n        /* \"@openzeppelin/contracts/token/ERC20/ERC20.sol\":9016:9017  0 */\n      0x00\n        /* \"@openzeppelin/contracts/token/ERC20/ERC20.sol\":8999:9036  Transfer(address(0), account, amount) */\n      0xffffffffffffffffffffffffffffffffffffffff\n      and\n      0xddf252ad1be2c89b69c2b068fc378daa952ba7f163c4a11628f55a4df523b3ef\n        /* \"@openzeppelin/contracts/token/ERC20/ERC20.sol\":9029:9035  amount */\n      dup4\n        /* \"@openzeppelin/contracts/token/ERC20/ERC20.sol\":8999:9036  Transfer(address(0), account, amount) */\n      mload(0x40)\n      tag_351\n      swap2\n      swap1\n      tag_46\n      jump\t// in\n    tag_351:\n      mload(0x40)\n      dup1\n      swap2\n      sub\n      swap1\n      log3\n        /* \"@openzeppelin/contracts/token/ERC20/ERC20.sol\":9047:9095  _afterTokenTransfer(address(0), account, amount) */\n      tag_352\n        /* \"@openzeppelin/contracts/token/ERC20/ERC20.sol\":9075:9076  0 */\n      0x00\n        /* \"@openzeppelin/contracts/token/ERC20/ERC20.sol\":9079:9086  account */\n      dup4\n        /* \"@openzeppelin/contracts/token/ERC20/ERC20.sol\":9088:9094  amount */\n      dup4\n        /* \"@openzeppelin/contracts/token/ERC20/ERC20.sol\":9047:9066  _afterTokenTransfer */\n      tag_223\n        /* \"@openzeppelin/contracts/token/ERC20/ERC20.sol\":9047:9095  _afterTokenTransfer(address(0), account, amount) */\n      jump\t// in\n    tag_352:\n        /* \"@openzeppelin/contracts/token/ERC20/ERC20.sol\":8567:9102  function _mint(address account, uint256 amount) internal virtual {... */\n      pop\n      pop\n      jump\t// out\n        /* \"#utility.yul\":88:205   */\n    tag_354:\n        /* \"#utility.yul\":197:198   */\n      0x00\n        /* \"#utility.yul\":194:195   */\n      dup1\n        /* \"#utility.yul\":187:199   */\n      revert\n        /* \"#utility.yul\":334:483   */\n    tag_356:\n        /* \"#utility.yul\":370:377   */\n      0x00\n        /* \"#utility.yul\":410:476   */\n      0xffffffff00000000000000000000000000000000000000000000000000000000\n        /* \"#utility.yul\":403:408   */\n      dup3\n        /* \"#utility.yul\":399:477   */\n      and\n        /* \"#utility.yul\":388:477   */\n      swap1\n      pop\n        /* \"#utility.yul\":334:483   */\n      swap2\n      swap1\n      pop\n      jump\t// out\n        /* \"#utility.yul\":489:609   */\n    tag_357:\n        /* \"#utility.yul\":561:584   */\n      tag_413\n        /* \"#utility.yul\":578:583   */\n      dup2\n        /* \"#utility.yul\":561:584   */\n      tag_356\n      jump\t// in\n    tag_413:\n        /* \"#utility.yul\":554:559   */\n      dup2\n        /* \"#utility.yul\":551:585   */\n      eq\n        /* \"#utility.yul\":541:603   */\n      tag_414\n      jumpi\n        /* \"#utility.yul\":599:600   */\n      0x00\n        /* \"#utility.yul\":596:597   */\n      dup1\n        /* \"#utility.yul\":589:601   */\n      revert\n        /* \"#utility.yul\":541:603   */\n    tag_414:\n        /* \"#utility.yul\":489:609   */\n      pop\n      jump\t// out\n        /* \"#utility.yul\":615:752   */\n    tag_358:\n        /* \"#utility.yul\":660:665   */\n      0x00\n        /* \"#utility.yul\":698:704   */\n      dup2\n        /* \"#utility.yul\":685:705   */\n      calldataload\n        /* \"#utility.yul\":676:705   */\n      swap1\n      pop\n        /* \"#utility.yul\":714:746   */\n      tag_416\n        /* \"#utility.yul\":740:745   */\n      dup2\n        /* \"#utility.yul\":714:746   */\n      tag_357\n      jump\t// in\n    tag_416:\n        /* \"#utility.yul\":615:752   */\n      swap3\n      swap2\n      pop\n      pop\n      jump\t// out\n        /* \"#utility.yul\":758:1085   */\n    tag_27:\n        /* \"#utility.yul\":816:822   */\n      0x00\n        /* \"#utility.yul\":865:867   */\n      0x20\n        /* \"#utility.yul\":853:862   */\n      dup3\n        /* \"#utility.yul\":844:851   */\n      dup5\n        /* \"#utility.yul\":840:863   */\n      sub\n        /* \"#utility.yul\":836:868   */\n      slt\n        /* \"#utility.yul\":833:952   */\n      iszero\n      tag_418\n      jumpi\n        /* \"#utility.yul\":871:950   */\n      tag_419\n      tag_354\n      jump\t// in\n    tag_419:\n        /* \"#utility.yul\":833:952   */\n    tag_418:\n        /* \"#utility.yul\":991:992   */\n      0x00\n        /* \"#utility.yul\":1016:1068   */\n      tag_420\n        /* \"#utility.yul\":1060:1067   */\n      dup5\n        /* \"#utility.yul\":1051:1057   */\n      dup3\n        /* \"#utility.yul\":1040:1049   */\n      dup6\n        /* \"#utility.yul\":1036:1058   */\n      add\n        /* \"#utility.yul\":1016:1068   */\n      tag_358\n      jump\t// in\n    tag_420:\n        /* \"#utility.yul\":1006:1068   */\n      swap2\n      pop\n        /* \"#utility.yul\":962:1078   */\n      pop\n        /* \"#utility.yul\":758:1085   */\n      swap3\n      swap2\n      pop\n      pop\n      jump\t// out\n        /* \"#utility.yul\":1091:1181   */\n    tag_359:\n        /* \"#utility.yul\":1125:1132   */\n      0x00\n        /* \"#utility.yul\":1168:1173   */\n      dup2\n        /* \"#utility.yul\":1161:1174   */\n      iszero\n        /* \"#utility.yul\":1154:1175   */\n      iszero\n        /* \"#utility.yul\":1143:1175   */\n      swap1\n      pop\n        /* \"#utility.yul\":1091:1181   */\n      swap2\n      swap1\n      pop\n      jump\t// out\n        /* \"#utility.yul\":1187:1296   */\n    tag_360:\n        /* \"#utility.yul\":1268:1289   */\n      tag_423\n        /* \"#utility.yul\":1283:1288   */\n      dup2\n        /* \"#utility.yul\":1268:1289   */\n      tag_359\n      jump\t// in\n    tag_423:\n        /* \"#utility.yul\":1263:1266   */\n      dup3\n        /* \"#utility.yul\":1256:1290   */\n      mstore\n        /* \"#utility.yul\":1187:1296   */\n      pop\n      pop\n      jump\t// out\n        /* \"#utility.yul\":1302:1512   */\n    tag_30:\n        /* \"#utility.yul\":1389:1393   */\n      0x00\n        /* \"#utility.yul\":1427:1429   */\n      0x20\n        /* \"#utility.yul\":1416:1425   */\n      dup3\n        /* \"#utility.yul\":1412:1430   */\n      add\n        /* \"#utility.yul\":1404:1430   */\n      swap1\n      pop\n        /* \"#utility.yul\":1440:1505   */\n      tag_425\n        /* \"#utility.yul\":1502:1503   */\n      0x00\n        /* \"#utility.yul\":1491:1500   */\n      dup4\n        /* \"#utility.yul\":1487:1504   */\n      add\n        /* \"#utility.yul\":1478:1484   */\n      dup5\n        /* \"#utility.yul\":1440:1505   */\n      tag_360\n      jump\t// in\n    tag_425:\n        /* \"#utility.yul\":1302:1512   */\n      swap3\n      swap2\n      pop\n      pop\n      jump\t// out\n        /* \"#utility.yul\":1518:1617   */\n    tag_361:\n        /* \"#utility.yul\":1570:1576   */\n      0x00\n        /* \"#utility.yul\":1604:1609   */\n      dup2\n        /* \"#utility.yul\":1598:1610   */\n      mload\n        /* \"#utility.yul\":1588:1610   */\n      swap1\n      pop\n        /* \"#utility.yul\":1518:1617   */\n      swap2\n      swap1\n      pop\n      jump\t// out\n        /* \"#utility.yul\":1623:1792   */\n    tag_362:\n        /* \"#utility.yul\":1707:1718   */\n      0x00\n        /* \"#utility.yul\":1741:1747   */\n      dup3\n        /* \"#utility.yul\":1736:1739   */\n      dup3\n        /* \"#utility.yul\":1729:1748   */\n      mstore\n        /* \"#utility.yul\":1781:1785   */\n      0x20\n        /* \"#utility.yul\":1776:1779   */\n      dup3\n        /* \"#utility.yul\":1772:1786   */\n      add\n        /* \"#utility.yul\":1757:1786   */\n      swap1\n      pop\n        /* \"#utility.yul\":1623:1792   */\n      swap3\n      swap2\n      pop\n      pop\n      jump\t// out\n        /* \"#utility.yul\":1798:2044   */\n    tag_363:\n        /* \"#utility.yul\":1879:1880   */\n      0x00\n        /* \"#utility.yul\":1889:2002   */\n    tag_429:\n        /* \"#utility.yul\":1903:1909   */\n      dup4\n        /* \"#utility.yul\":1900:1901   */\n      dup2\n        /* \"#utility.yul\":1897:1910   */\n      lt\n        /* \"#utility.yul\":1889:2002   */\n      iszero\n      tag_431\n      jumpi\n        /* \"#utility.yul\":1988:1989   */\n      dup1\n        /* \"#utility.yul\":1983:1986   */\n      dup3\n        /* \"#utility.yul\":1979:1990   */\n      add\n        /* \"#utility.yul\":1973:1991   */\n      mload\n        /* \"#utility.yul\":1969:1970   */\n      dup2\n        /* \"#utility.yul\":1964:1967   */\n      dup5\n        /* \"#utility.yul\":1960:1971   */\n      add\n        /* \"#utility.yul\":1953:1992   */\n      mstore\n        /* \"#utility.yul\":1925:1927   */\n      0x20\n        /* \"#utility.yul\":1922:1923   */\n      dup2\n        /* \"#utility.yul\":1918:1928   */\n      add\n        /* \"#utility.yul\":1913:1928   */\n      swap1\n      pop\n        /* \"#utility.yul\":1889:2002   */\n      jump(tag_429)\n    tag_431:\n        /* \"#utility.yul\":2036:2037   */\n      0x00\n        /* \"#utility.yul\":2027:2033   */\n      dup5\n        /* \"#utility.yul\":2022:2025   */\n      dup5\n        /* \"#utility.yul\":2018:2034   */\n      add\n        /* \"#utility.yul\":2011:2038   */\n      mstore\n        /* \"#utility.yul\":1860:2044   */\n      pop\n        /* \"#utility.yul\":1798:2044   */\n      pop\n      pop\n      pop\n      jump\t// out\n        /* \"#utility.yul\":2050:2152   */\n    tag_364:\n        /* \"#utility.yul\":2091:2097   */\n      0x00\n        /* \"#utility.yul\":2142:2144   */\n      0x1f\n        /* \"#utility.yul\":2138:2145   */\n      not\n        /* \"#utility.yul\":2133:2135   */\n      0x1f\n        /* \"#utility.yul\":2126:2131   */\n      dup4\n        /* \"#utility.yul\":2122:2136   */\n      add\n        /* \"#utility.yul\":2118:2146   */\n      and\n        /* \"#utility.yul\":2108:2146   */\n      swap1\n      pop\n        /* \"#utility.yul\":2050:2152   */\n      swap2\n      swap1\n      pop\n      jump\t// out\n        /* \"#utility.yul\":2158:2535   */\n    tag_365:\n        /* \"#utility.yul\":2246:2249   */\n      0x00\n        /* \"#utility.yul\":2274:2313   */\n      tag_434\n        /* \"#utility.yul\":2307:2312   */\n      dup3\n        /* \"#utility.yul\":2274:2313   */\n      tag_361\n      jump\t// in\n    tag_434:\n        /* \"#utility.yul\":2329:2400   */\n      tag_435\n        /* \"#utility.yul\":2393:2399   */\n      dup2\n        /* \"#utility.yul\":2388:2391   */\n      dup6\n        /* \"#utility.yul\":2329:2400   */\n      tag_362\n      jump\t// in\n    tag_435:\n        /* \"#utility.yul\":2322:2400   */\n      swap4\n      pop\n        /* \"#utility.yul\":2409:2474   */\n      tag_436\n        /* \"#utility.yul\":2467:2473   */\n      dup2\n        /* \"#utility.yul\":2462:2465   */\n      dup6\n        /* \"#utility.yul\":2455:2459   */\n      0x20\n        /* \"#utility.yul\":2448:2453   */\n      dup7\n        /* \"#utility.yul\":2444:2460   */\n      add\n        /* \"#utility.yul\":2409:2474   */\n      tag_363\n      jump\t// in\n    tag_436:\n        /* \"#utility.yul\":2499:2528   */\n      tag_437\n        /* \"#utility.yul\":2521:2527   */\n      dup2\n        /* \"#utility.yul\":2499:2528   */\n      tag_364\n      jump\t// in\n    tag_437:\n        /* \"#utility.yul\":2494:2497   */\n      dup5\n        /* \"#utility.yul\":2490:2529   */\n      add\n        /* \"#utility.yul\":2483:2529   */\n      swap2\n      pop\n        /* \"#utility.yul\":2250:2535   */\n      pop\n        /* \"#utility.yul\":2158:2535   */\n      swap3\n      swap2\n      pop\n      pop\n      jump\t// out\n        /* \"#utility.yul\":2541:2854   */\n    tag_35:\n        /* \"#utility.yul\":2654:2658   */\n      0x00\n        /* \"#utility.yul\":2692:2694   */\n      0x20\n        /* \"#utility.yul\":2681:2690   */\n      dup3\n        /* \"#utility.yul\":2677:2695   */\n      add\n        /* \"#utility.yul\":2669:2695   */\n      swap1\n      pop\n        /* \"#utility.yul\":2741:2750   */\n      dup2\n        /* \"#utility.yul\":2735:2739   */\n      dup2\n        /* \"#utility.yul\":2731:2751   */\n      sub\n        /* \"#utility.yul\":2727:2728   */\n      0x00\n        /* \"#utility.yul\":2716:2725   */\n      dup4\n        /* \"#utility.yul\":2712:2729   */\n      add\n        /* \"#utility.yul\":2705:2752   */\n      mstore\n        /* \"#utility.yul\":2769:2847   */\n      tag_439\n        /* \"#utility.yul\":2842:2846   */\n      dup2\n        /* \"#utility.yul\":2833:2839   */\n      dup5\n        /* \"#utility.yul\":2769:2847   */\n      tag_365\n      jump\t// in\n    tag_439:\n        /* \"#utility.yul\":2761:2847   */\n      swap1\n      pop\n        /* \"#utility.yul\":2541:2854   */\n      swap3\n      swap2\n      pop\n      pop\n      jump\t// out\n        /* \"#utility.yul\":2860:2986   */\n    tag_366:\n        /* \"#utility.yul\":2897:2904   */\n      0x00\n        /* \"#utility.yul\":2937:2979   */\n      0xffffffffffffffffffffffffffffffffffffffff\n        /* \"#utility.yul\":2930:2935   */\n      dup3\n        /* \"#utility.yul\":2926:2980   */\n      and\n        /* \"#utility.yul\":2915:2980   */\n      swap1\n      pop\n        /* \"#utility.yul\":2860:2986   */\n      swap2\n      swap1\n      pop\n      jump\t// out\n        /* \"#utility.yul\":2992:3088   */\n    tag_367:\n        /* \"#utility.yul\":3029:3036   */\n      0x00\n        /* \"#utility.yul\":3058:3082   */\n      tag_442\n        /* \"#utility.yul\":3076:3081   */\n      dup3\n        /* \"#utility.yul\":3058:3082   */\n      tag_366\n      jump\t// in\n    tag_442:\n        /* \"#utility.yul\":3047:3082   */\n      swap1\n      pop\n        /* \"#utility.yul\":2992:3088   */\n      swap2\n      swap1\n      pop\n      jump\t// out\n        /* \"#utility.yul\":3094:3216   */\n    tag_368:\n        /* \"#utility.yul\":3167:3191   */\n      tag_444\n        /* \"#utility.yul\":3185:3190   */\n      dup2\n        /* \"#utility.yul\":3167:3191   */\n      tag_367\n      jump\t// in\n    tag_444:\n        /* \"#utility.yul\":3160:3165   */\n      dup2\n        /* \"#utility.yul\":3157:3192   */\n      eq\n        /* \"#utility.yul\":3147:3210   */\n      tag_445\n      jumpi\n        /* \"#utility.yul\":3206:3207   */\n      0x00\n        /* \"#utility.yul\":3203:3204   */\n      dup1\n        /* \"#utility.yul\":3196:3208   */\n      revert\n        /* \"#utility.yul\":3147:3210   */\n    tag_445:\n        /* \"#utility.yul\":3094:3216   */\n      pop\n      jump\t// out\n        /* \"#utility.yul\":3222:3361   */\n    tag_369:\n        /* \"#utility.yul\":3268:3273   */\n      0x00\n        /* \"#utility.yul\":3306:3312   */\n      dup2\n        /* \"#utility.yul\":3293:3313   */\n      calldataload\n        /* \"#utility.yul\":3284:3313   */\n      swap1\n      pop\n        /* \"#utility.yul\":3322:3355   */\n      tag_447\n        /* \"#utility.yul\":3349:3354   */\n      dup2\n        /* \"#utility.yul\":3322:3355   */\n      tag_368\n      jump\t// in\n    tag_447:\n        /* \"#utility.yul\":3222:3361   */\n      swap3\n      swap2\n      pop\n      pop\n      jump\t// out\n        /* \"#utility.yul\":3367:3444   */\n    tag_370:\n        /* \"#utility.yul\":3404:3411   */\n      0x00\n        /* \"#utility.yul\":3433:3438   */\n      dup2\n        /* \"#utility.yul\":3422:3438   */\n      swap1\n      pop\n        /* \"#utility.yul\":3367:3444   */\n      swap2\n      swap1\n      pop\n      jump\t// out\n        /* \"#utility.yul\":3450:3572   */\n    tag_371:\n        /* \"#utility.yul\":3523:3547   */\n      tag_450\n        /* \"#utility.yul\":3541:3546   */\n      dup2\n        /* \"#utility.yul\":3523:3547   */\n      tag_370\n      jump\t// in\n    tag_450:\n        /* \"#utility.yul\":3516:3521   */\n      dup2\n        /* \"#utility.yul\":3513:3548   */\n      eq\n        /* \"#utility.yul\":3503:3566   */\n      tag_451\n      jumpi\n        /* \"#utility.yul\":3562:3563   */\n      0x00\n        /* \"#utility.yul\":3559:3560   */\n      dup1\n        /* \"#utility.yul\":3552:3564   */\n      revert\n        /* \"#utility.yul\":3503:3566   */\n    tag_451:\n        /* \"#utility.yul\":3450:3572   */\n      pop\n      jump\t// out\n        /* \"#utility.yul\":3578:3717   */\n    tag_372:\n        /* \"#utility.yul\":3624:3629   */\n      0x00\n        /* \"#utility.yul\":3662:3668   */\n      dup2\n        /* \"#utility.yul\":3649:3669   */\n      calldataload\n        /* \"#utility.yul\":3640:3669   */\n      swap1\n      pop\n        /* \"#utility.yul\":3678:3711   */\n      tag_453\n        /* \"#utility.yul\":3705:3710   */\n      dup2\n        /* \"#utility.yul\":3678:3711   */\n      tag_371\n      jump\t// in\n    tag_453:\n        /* \"#utility.yul\":3578:3717   */\n      swap3\n      swap2\n      pop\n      pop\n      jump\t// out\n        /* \"#utility.yul\":3723:4197   */\n    tag_39:\n        /* \"#utility.yul\":3791:3797   */\n      0x00\n        /* \"#utility.yul\":3799:3805   */\n      dup1\n        /* \"#utility.yul\":3848:3850   */\n      0x40\n        /* \"#utility.yul\":3836:3845   */\n      dup4\n        /* \"#utility.yul\":3827:3834   */\n      dup6\n        /* \"#utility.yul\":3823:3846   */\n      sub\n        /* \"#utility.yul\":3819:3851   */\n      slt\n        /* \"#utility.yul\":3816:3935   */\n      iszero\n      tag_455\n      jumpi\n        /* \"#utility.yul\":3854:3933   */\n      tag_456\n      tag_354\n      jump\t// in\n    tag_456:\n        /* \"#utility.yul\":3816:3935   */\n    tag_455:\n        /* \"#utility.yul\":3974:3975   */\n      0x00\n        /* \"#utility.yul\":3999:4052   */\n      tag_457\n        /* \"#utility.yul\":4044:4051   */\n      dup6\n        /* \"#utility.yul\":4035:4041   */\n      dup3\n        /* \"#utility.yul\":4024:4033   */\n      dup7\n        /* \"#utility.yul\":4020:4042   */\n      add\n        /* \"#utility.yul\":3999:4052   */\n      tag_369\n      jump\t// in\n    tag_457:\n        /* \"#utility.yul\":3989:4052   */\n      swap3\n      pop\n        /* \"#utility.yul\":3945:4062   */\n      pop\n        /* \"#utility.yul\":4101:4103   */\n      0x20\n        /* \"#utility.yul\":4127:4180   */\n      tag_458\n        /* \"#utility.yul\":4172:4179   */\n      dup6\n        /* \"#utility.yul\":4163:4169   */\n      dup3\n        /* \"#utility.yul\":4152:4161   */\n      dup7\n        /* \"#utility.yul\":4148:4170   */\n      add\n        /* \"#utility.yul\":4127:4180   */\n      tag_372\n      jump\t// in\n    tag_458:\n        /* \"#utility.yul\":4117:4180   */\n      swap2\n      pop\n        /* \"#utility.yul\":4072:4190   */\n      pop\n        /* \"#utility.yul\":3723:4197   */\n      swap3\n      pop\n      swap3\n      swap1\n      pop\n      jump\t// out\n        /* \"#utility.yul\":4203:4321   */\n    tag_373:\n        /* \"#utility.yul\":4290:4314   */\n      tag_460\n        /* \"#utility.yul\":4308:4313   */\n      dup2\n        /* \"#utility.yul\":4290:4314   */\n      tag_370\n      jump\t// in\n    tag_460:\n        /* \"#utility.yul\":4285:4288   */\n      dup3\n        /* \"#utility.yul\":4278:4315   */\n      mstore\n        /* \"#utility.yul\":4203:4321   */\n      pop\n      pop\n      jump\t// out\n        /* \"#utility.yul\":4327:4549   */\n    tag_46:\n        /* \"#utility.yul\":4420:4424   */\n      0x00\n        /* \"#utility.yul\":4458:4460   */\n      0x20\n        /* \"#utility.yul\":4447:4456   */\n      dup3\n        /* \"#utility.yul\":4443:4461   */\n      add\n        /* \"#utility.yul\":4435:4461   */\n      swap1\n      pop\n        /* \"#utility.yul\":4471:4542   */\n      tag_462\n        /* \"#utility.yul\":4539:4540   */\n      0x00\n        /* \"#utility.yul\":4528:4537   */\n      dup4\n        /* \"#utility.yul\":4524:4541   */\n      add\n        /* \"#utility.yul\":4515:4521   */\n      dup5\n        /* \"#utility.yul\":4471:4542   */\n      tag_373\n      jump\t// in\n    tag_462:\n        /* \"#utility.yul\":4327:4549   */\n      swap3\n      swap2\n      pop\n      pop\n      jump\t// out\n        /* \"#utility.yul\":4555:5174   */\n    tag_54:\n        /* \"#utility.yul\":4632:4638   */\n      0x00\n        /* \"#utility.yul\":4640:4646   */\n      dup1\n        /* \"#utility.yul\":4648:4654   */\n      0x00\n        /* \"#utility.yul\":4697:4699   */\n      0x60\n        /* \"#utility.yul\":4685:4694   */\n      dup5\n        /* \"#utility.yul\":4676:4683   */\n      dup7\n        /* \"#utility.yul\":4672:4695   */\n      sub\n        /* \"#utility.yul\":4668:4700   */\n      slt\n        /* \"#utility.yul\":4665:4784   */\n      iszero\n      tag_464\n      jumpi\n        /* \"#utility.yul\":4703:4782   */\n      tag_465\n      tag_354\n      jump\t// in\n    tag_465:\n        /* \"#utility.yul\":4665:4784   */\n    tag_464:\n        /* \"#utility.yul\":4823:4824   */\n      0x00\n        /* \"#utility.yul\":4848:4901   */\n      tag_466\n        /* \"#utility.yul\":4893:4900   */\n      dup7\n        /* \"#utility.yul\":4884:4890   */\n      dup3\n        /* \"#utility.yul\":4873:4882   */\n      dup8\n        /* \"#utility.yul\":4869:4891   */\n      add\n        /* \"#utility.yul\":4848:4901   */\n      tag_369\n      jump\t// in\n    tag_466:\n        /* \"#utility.yul\":4838:4901   */\n      swap4\n      pop\n        /* \"#utility.yul\":4794:4911   */\n      pop\n        /* \"#utility.yul\":4950:4952   */\n      0x20\n        /* \"#utility.yul\":4976:5029   */\n      tag_467\n        /* \"#utility.yul\":5021:5028   */\n      dup7\n        /* \"#utility.yul\":5012:5018   */\n      dup3\n        /* \"#utility.yul\":5001:5010   */\n      dup8\n        /* \"#utility.yul\":4997:5019   */\n      add\n        /* \"#utility.yul\":4976:5029   */\n      tag_369\n      jump\t// in\n    tag_467:\n        /* \"#utility.yul\":4966:5029   */\n      swap3\n      pop\n        /* \"#utility.yul\":4921:5039   */\n      pop\n        /* \"#utility.yul\":5078:5080   */\n      0x40\n        /* \"#utility.yul\":5104:5157   */\n      tag_468\n        /* \"#utility.yul\":5149:5156   */\n      dup7\n        /* \"#utility.yul\":5140:5146   */\n      dup3\n        /* \"#utility.yul\":5129:5138   */\n      dup8\n        /* \"#utility.yul\":5125:5147   */\n      add\n        /* \"#utility.yul\":5104:5157   */\n      tag_372\n      jump\t// in\n    tag_468:\n        /* \"#utility.yul\":5094:5157   */\n      swap2\n      pop\n        /* \"#utility.yul\":5049:5167   */\n      pop\n        /* \"#utility.yul\":4555:5174   */\n      swap3\n      pop\n      swap3\n      pop\n      swap3\n      jump\t// out\n        /* \"#utility.yul\":5180:5266   */\n    tag_374:\n        /* \"#utility.yul\":5215:5222   */\n      0x00\n        /* \"#utility.yul\":5255:5259   */\n      0xff\n        /* \"#utility.yul\":5248:5253   */\n      dup3\n        /* \"#utility.yul\":5244:5260   */\n      and\n        /* \"#utility.yul\":5233:5260   */\n      swap1\n      pop\n        /* \"#utility.yul\":5180:5266   */\n      swap2\n      swap1\n      pop\n      jump\t// out\n        /* \"#utility.yul\":5272:5384   */\n    tag_375:\n        /* \"#utility.yul\":5355:5377   */\n      tag_471\n        /* \"#utility.yul\":5371:5376   */\n      dup2\n        /* \"#utility.yul\":5355:5377   */\n      tag_374\n      jump\t// in\n    tag_471:\n        /* \"#utility.yul\":5350:5353   */\n      dup3\n        /* \"#utility.yul\":5343:5378   */\n      mstore\n        /* \"#utility.yul\":5272:5384   */\n      pop\n      pop\n      jump\t// out\n        /* \"#utility.yul\":5390:5604   */\n    tag_61:\n        /* \"#utility.yul\":5479:5483   */\n      0x00\n        /* \"#utility.yul\":5517:5519   */\n      0x20\n        /* \"#utility.yul\":5506:5515   */\n      dup3\n        /* \"#utility.yul\":5502:5520   */\n      add\n        /* \"#utility.yul\":5494:5520   */\n      swap1\n      pop\n        /* \"#utility.yul\":5530:5597   */\n      tag_473\n        /* \"#utility.yul\":5594:5595   */\n      0x00\n        /* \"#utility.yul\":5583:5592   */\n      dup4\n        /* \"#utility.yul\":5579:5596   */\n      add\n        /* \"#utility.yul\":5570:5576   */\n      dup5\n        /* \"#utility.yul\":5530:5597   */\n      tag_375\n      jump\t// in\n    tag_473:\n        /* \"#utility.yul\":5390:5604   */\n      swap3\n      swap2\n      pop\n      pop\n      jump\t// out\n        /* \"#utility.yul\":5610:5939   */\n    tag_81:\n        /* \"#utility.yul\":5669:5675   */\n      0x00\n        /* \"#utility.yul\":5718:5720   */\n      0x20\n        /* \"#utility.yul\":5706:5715   */\n      dup3\n        /* \"#utility.yul\":5697:5704   */\n      dup5\n        /* \"#utility.yul\":5693:5716   */\n      sub\n        /* \"#utility.yul\":5689:5721   */\n      slt\n        /* \"#utility.yul\":5686:5805   */\n      iszero\n      tag_475\n      jumpi\n        /* \"#utility.yul\":5724:5803   */\n      tag_476\n      tag_354\n      jump\t// in\n    tag_476:\n        /* \"#utility.yul\":5686:5805   */\n    tag_475:\n        /* \"#utility.yul\":5844:5845   */\n      0x00\n        /* \"#utility.yul\":5869:5922   */\n      tag_477\n        /* \"#utility.yul\":5914:5921   */\n      dup5\n        /* \"#utility.yul\":5905:5911   */\n      dup3\n        /* \"#utility.yul\":5894:5903   */\n      dup6\n        /* \"#utility.yul\":5890:5912   */\n      add\n        /* \"#utility.yul\":5869:5922   */\n      tag_372\n      jump\t// in\n    tag_477:\n        /* \"#utility.yul\":5859:5922   */\n      swap2\n      pop\n        /* \"#utility.yul\":5815:5932   */\n      pop\n        /* \"#utility.yul\":5610:5939   */\n      swap3\n      swap2\n      pop\n      pop\n      jump\t// out\n        /* \"#utility.yul\":5945:6274   */\n    tag_86:\n        /* \"#utility.yul\":6004:6010   */\n      0x00\n        /* \"#utility.yul\":6053:6055   */\n      0x20\n        /* \"#utility.yul\":6041:6050   */\n      dup3\n        /* \"#utility.yul\":6032:6039   */\n      dup5\n        /* \"#utility.yul\":6028:6051   */\n      sub\n        /* \"#utility.yul\":6024:6056   */\n      slt\n        /* \"#utility.yul\":6021:6140   */\n      iszero\n      tag_479\n      jumpi\n        /* \"#utility.yul\":6059:6138   */\n      tag_480\n      tag_354\n      jump\t// in\n    tag_480:\n        /* \"#utility.yul\":6021:6140   */\n    tag_479:\n        /* \"#utility.yul\":6179:6180   */\n      0x00\n        /* \"#utility.yul\":6204:6257   */\n      tag_481\n        /* \"#utility.yul\":6249:6256   */\n      dup5\n        /* \"#utility.yul\":6240:6246   */\n      dup3\n        /* \"#utility.yul\":6229:6238   */\n      dup6\n        /* \"#utility.yul\":6225:6247   */\n      add\n        /* \"#utility.yul\":6204:6257   */\n      tag_369\n      jump\t// in\n    tag_481:\n        /* \"#utility.yul\":6194:6257   */\n      swap2\n      pop\n        /* \"#utility.yul\":6150:6267   */\n      pop\n        /* \"#utility.yul\":5945:6274   */\n      swap3\n      swap2\n      pop\n      pop\n      jump\t// out\n        /* \"#utility.yul\":6280:6398   */\n    tag_376:\n        /* \"#utility.yul\":6367:6391   */\n      tag_483\n        /* \"#utility.yul\":6385:6390   */\n      dup2\n        /* \"#utility.yul\":6367:6391   */\n      tag_367\n      jump\t// in\n    tag_483:\n        /* \"#utility.yul\":6362:6365   */\n      dup3\n        /* \"#utility.yul\":6355:6392   */\n      mstore\n        /* \"#utility.yul\":6280:6398   */\n      pop\n      pop\n      jump\t// out\n        /* \"#utility.yul\":6404:6626   */\n    tag_107:\n        /* \"#utility.yul\":6497:6501   */\n      0x00\n        /* \"#utility.yul\":6535:6537   */\n      0x20\n        /* \"#utility.yul\":6524:6533   */\n      dup3\n        /* \"#utility.yul\":6520:6538   */\n      add\n        /* \"#utility.yul\":6512:6538   */\n      swap1\n      pop\n        /* \"#utility.yul\":6548:6619   */\n      tag_485\n        /* \"#utility.yul\":6616:6617   */\n      0x00\n        /* \"#utility.yul\":6605:6614   */\n      dup4\n        /* \"#utility.yul\":6601:6618   */\n      add\n        /* \"#utility.yul\":6592:6598   */\n      dup5\n        /* \"#utility.yul\":6548:6619   */\n      tag_376\n      jump\t// in\n    tag_485:\n        /* \"#utility.yul\":6404:6626   */\n      swap3\n      swap2\n      pop\n      pop\n      jump\t// out\n        /* \"#utility.yul\":6632:7106   */\n    tag_111:\n        /* \"#utility.yul\":6700:6706   */\n      0x00\n        /* \"#utility.yul\":6708:6714   */\n      dup1\n        /* \"#utility.yul\":6757:6759   */\n      0x40\n        /* \"#utility.yul\":6745:6754   */\n      dup4\n        /* \"#utility.yul\":6736:6743   */\n      dup6\n        /* \"#utility.yul\":6732:6755   */\n      sub\n        /* \"#utility.yul\":6728:6760   */\n      slt\n        /* \"#utility.yul\":6725:6844   */\n      iszero\n      tag_487\n      jumpi\n        /* \"#utility.yul\":6763:6842   */\n      tag_488\n      tag_354\n      jump\t// in\n    tag_488:\n        /* \"#utility.yul\":6725:6844   */\n    tag_487:\n        /* \"#utility.yul\":6883:6884   */\n      0x00\n        /* \"#utility.yul\":6908:6961   */\n      tag_489\n        /* \"#utility.yul\":6953:6960   */\n      dup6\n        /* \"#utility.yul\":6944:6950   */\n      dup3\n        /* \"#utility.yul\":6933:6942   */\n      dup7\n        /* \"#utility.yul\":6929:6951   */\n      add\n        /* \"#utility.yul\":6908:6961   */\n      tag_369\n      jump\t// in\n    tag_489:\n        /* \"#utility.yul\":6898:6961   */\n      swap3\n      pop\n        /* \"#utility.yul\":6854:6971   */\n      pop\n        /* \"#utility.yul\":7010:7012   */\n      0x20\n        /* \"#utility.yul\":7036:7089   */\n      tag_490\n        /* \"#utility.yul\":7081:7088   */\n      dup6\n        /* \"#utility.yul\":7072:7078   */\n      dup3\n        /* \"#utility.yul\":7061:7070   */\n      dup7\n        /* \"#utility.yul\":7057:7079   */\n      add\n        /* \"#utility.yul\":7036:7089   */\n      tag_369\n      jump\t// in\n    tag_490:\n        /* \"#utility.yul\":7026:7089   */\n      swap2\n      pop\n        /* \"#utility.yul\":6981:7099   */\n      pop\n        /* \"#utility.yul\":6632:7106   */\n      swap3\n      pop\n      swap3\n      swap1\n      pop\n      jump\t// out\n        /* \"#utility.yul\":7112:7216   */\n    tag_377:\n        /* \"#utility.yul\":7157:7164   */\n      0x00\n        /* \"#utility.yul\":7186:7210   */\n      tag_492\n        /* \"#utility.yul\":7204:7209   */\n      dup3\n        /* \"#utility.yul\":7186:7210   */\n      tag_366\n      jump\t// in\n    tag_492:\n        /* \"#utility.yul\":7175:7210   */\n      swap1\n      pop\n        /* \"#utility.yul\":7112:7216   */\n      swap2\n      swap1\n      pop\n      jump\t// out\n        /* \"#utility.yul\":7222:7364   */\n    tag_378:\n        /* \"#utility.yul\":7325:7357   */\n      tag_494\n        /* \"#utility.yul\":7351:7356   */\n      dup2\n        /* \"#utility.yul\":7325:7357   */\n      tag_377\n      jump\t// in\n    tag_494:\n        /* \"#utility.yul\":7320:7323   */\n      dup3\n        /* \"#utility.yul\":7313:7358   */\n      mstore\n        /* \"#utility.yul\":7222:7364   */\n      pop\n      pop\n      jump\t// out\n        /* \"#utility.yul\":7370:7624   */\n    tag_118:\n        /* \"#utility.yul\":7479:7483   */\n      0x00\n        /* \"#utility.yul\":7517:7519   */\n      0x20\n        /* \"#utility.yul\":7506:7515   */\n      dup3\n        /* \"#utility.yul\":7502:7520   */\n      add\n        /* \"#utility.yul\":7494:7520   */\n      swap1\n      pop\n        /* \"#utility.yul\":7530:7617   */\n      tag_496\n        /* \"#utility.yul\":7614:7615   */\n      0x00\n        /* \"#utility.yul\":7603:7612   */\n      dup4\n        /* \"#utility.yul\":7599:7616   */\n      add\n        /* \"#utility.yul\":7590:7596   */\n      dup5\n        /* \"#utility.yul\":7530:7617   */\n      tag_378\n      jump\t// in\n    tag_496:\n        /* \"#utility.yul\":7370:7624   */\n      swap3\n      swap2\n      pop\n      pop\n      jump\t// out\n        /* \"#utility.yul\":7630:7810   */\n    tag_379:\n        /* \"#utility.yul\":7678:7755   */\n      0x4e487b7100000000000000000000000000000000000000000000000000000000\n        /* \"#utility.yul\":7675:7676   */\n      0x00\n        /* \"#utility.yul\":7668:7756   */\n      mstore\n        /* \"#utility.yul\":7775:7779   */\n      0x22\n        /* \"#utility.yul\":7772:7773   */\n      0x04\n        /* \"#utility.yul\":7765:7780   */\n      mstore\n        /* \"#utility.yul\":7799:7803   */\n      0x24\n        /* \"#utility.yul\":7796:7797   */\n      0x00\n        /* \"#utility.yul\":7789:7804   */\n      revert\n        /* \"#utility.yul\":7816:8136   */\n    tag_123:\n        /* \"#utility.yul\":7860:7866   */\n      0x00\n        /* \"#utility.yul\":7897:7898   */\n      0x02\n        /* \"#utility.yul\":7891:7895   */\n      dup3\n        /* \"#utility.yul\":7887:7899   */\n      div\n        /* \"#utility.yul\":7877:7899   */\n      swap1\n      pop\n        /* \"#utility.yul\":7944:7945   */\n      0x01\n        /* \"#utility.yul\":7938:7942   */\n      dup3\n        /* \"#utility.yul\":7934:7946   */\n      and\n        /* \"#utility.yul\":7965:7983   */\n      dup1\n        /* \"#utility.yul\":7955:8036   */\n      tag_499\n      jumpi\n        /* \"#utility.yul\":8021:8025   */\n      0x7f\n        /* \"#utility.yul\":8013:8019   */\n      dup3\n        /* \"#utility.yul\":8009:8026   */\n      and\n        /* \"#utility.yul\":7999:8026   */\n      swap2\n      pop\n        /* \"#utility.yul\":7955:8036   */\n    tag_499:\n        /* \"#utility.yul\":8083:8085   */\n      0x20\n        /* \"#utility.yul\":8075:8081   */\n      dup3\n        /* \"#utility.yul\":8072:8086   */\n      lt\n        /* \"#utility.yul\":8052:8070   */\n      dup2\n        /* \"#utility.yul\":8049:8087   */\n      sub\n        /* \"#utility.yul\":8046:8130   */\n      tag_500\n      jumpi\n        /* \"#utility.yul\":8102:8120   */\n      tag_501\n      tag_379\n      jump\t// in\n    tag_501:\n        /* \"#utility.yul\":8046:8130   */\n    tag_500:\n        /* \"#utility.yul\":7867:8136   */\n      pop\n        /* \"#utility.yul\":7816:8136   */\n      swap2\n      swap1\n      pop\n      jump\t// out\n        /* \"#utility.yul\":8142:8322   */\n    tag_380:\n        /* \"#utility.yul\":8190:8267   */\n      0x4e487b7100000000000000000000000000000000000000000000000000000000\n        /* \"#utility.yul\":8187:8188   */\n      0x00\n        /* \"#utility.yul\":8180:8268   */\n      mstore\n        /* \"#utility.yul\":8287:8291   */\n      0x11\n        /* \"#utility.yul\":8284:8285   */\n      0x04\n        /* \"#utility.yul\":8277:8292   */\n      mstore\n        /* \"#utility.yul\":8311:8315   */\n      0x24\n        /* \"#utility.yul\":8308:8309   */\n      0x00\n        /* \"#utility.yul\":8301:8316   */\n      revert\n        /* \"#utility.yul\":8328:8519   */\n    tag_147:\n        /* \"#utility.yul\":8368:8371   */\n      0x00\n        /* \"#utility.yul\":8387:8407   */\n      tag_504\n        /* \"#utility.yul\":8405:8406   */\n      dup3\n        /* \"#utility.yul\":8387:8407   */\n      tag_370\n      jump\t// in\n    tag_504:\n        /* \"#utility.yul\":8382:8407   */\n      swap2\n      pop\n        /* \"#utility.yul\":8421:8441   */\n      tag_505\n        /* \"#utility.yul\":8439:8440   */\n      dup4\n        /* \"#utility.yul\":8421:8441   */\n      tag_370\n      jump\t// in\n    tag_505:\n        /* \"#utility.yul\":8416:8441   */\n      swap3\n      pop\n        /* \"#utility.yul\":8464:8465   */\n      dup3\n        /* \"#utility.yul\":8461:8462   */\n      dup3\n        /* \"#utility.yul\":8457:8466   */\n      add\n        /* \"#utility.yul\":8450:8466   */\n      swap1\n      pop\n        /* \"#utility.yul\":8485:8488   */\n      dup1\n        /* \"#utility.yul\":8482:8483   */\n      dup3\n        /* \"#utility.yul\":8479:8489   */\n      gt\n        /* \"#utility.yul\":8476:8512   */\n      iszero\n      tag_506\n      jumpi\n        /* \"#utility.yul\":8492:8510   */\n      tag_507\n      tag_380\n      jump\t// in\n    tag_507:\n        /* \"#utility.yul\":8476:8512   */\n    tag_506:\n        /* \"#utility.yul\":8328:8519   */\n      swap3\n      swap2\n      pop\n      pop\n      jump\t// out\n        /* \"#utility.yul\":8525:8747   */\n    tag_381:\n        /* \"#utility.yul\":8665:8699   */\n      0x58454e446f67653a2043616c6c6572206d7573742062652058454e2043727970\n        /* \"#utility.yul\":8661:8662   */\n      0x00\n        /* \"#utility.yul\":8653:8659   */\n      dup3\n        /* \"#utility.yul\":8649:8663   */\n      add\n        /* \"#utility.yul\":8642:8700   */\n      mstore\n        /* \"#utility.yul\":8734:8739   */\n      0x746f2e0000000000000000000000000000000000000000000000000000000000\n        /* \"#utility.yul\":8729:8731   */\n      0x20\n        /* \"#utility.yul\":8721:8727   */\n      dup3\n        /* \"#utility.yul\":8717:8732   */\n      add\n        /* \"#utility.yul\":8710:8740   */\n      mstore\n        /* \"#utility.yul\":8525:8747   */\n      pop\n      jump\t// out\n        /* \"#utility.yul\":8753:9119   */\n    tag_382:\n        /* \"#utility.yul\":8895:8898   */\n      0x00\n        /* \"#utility.yul\":8916:8983   */\n      tag_510\n        /* \"#utility.yul\":8980:8982   */\n      0x23\n        /* \"#utility.yul\":8975:8978   */\n      dup4\n        /* \"#utility.yul\":8916:8983   */\n      tag_362\n      jump\t// in\n    tag_510:\n        /* \"#utility.yul\":8909:8983   */\n      swap2\n      pop\n        /* \"#utility.yul\":8992:9085   */\n      tag_511\n        /* \"#utility.yul\":9081:9084   */\n      dup3\n        /* \"#utility.yul\":8992:9085   */\n      tag_381\n      jump\t// in\n    tag_511:\n        /* \"#utility.yul\":9110:9112   */\n      0x40\n        /* \"#utility.yul\":9105:9108   */\n      dup3\n        /* \"#utility.yul\":9101:9113   */\n      add\n        /* \"#utility.yul\":9094:9113   */\n      swap1\n      pop\n        /* \"#utility.yul\":8753:9119   */\n      swap2\n      swap1\n      pop\n      jump\t// out\n        /* \"#utility.yul\":9125:9544   */\n    tag_152:\n        /* \"#utility.yul\":9291:9295   */\n      0x00\n        /* \"#utility.yul\":9329:9331   */\n      0x20\n        /* \"#utility.yul\":9318:9327   */\n      dup3\n        /* \"#utility.yul\":9314:9332   */\n      add\n        /* \"#utility.yul\":9306:9332   */\n      swap1\n      pop\n        /* \"#utility.yul\":9378:9387   */\n      dup2\n        /* \"#utility.yul\":9372:9376   */\n      dup2\n        /* \"#utility.yul\":9368:9388   */\n      sub\n        /* \"#utility.yul\":9364:9365   */\n      0x00\n        /* \"#utility.yul\":9353:9362   */\n      dup4\n        /* \"#utility.yul\":9349:9366   */\n      add\n        /* \"#utility.yul\":9342:9389   */\n      mstore\n        /* \"#utility.yul\":9406:9537   */\n      tag_513\n        /* \"#utility.yul\":9532:9536   */\n      dup2\n        /* \"#utility.yul\":9406:9537   */\n      tag_382\n      jump\t// in\n    tag_513:\n        /* \"#utility.yul\":9398:9537   */\n      swap1\n      pop\n        /* \"#utility.yul\":9125:9544   */\n      swap2\n      swap1\n      pop\n      jump\t// out\n        /* \"#utility.yul\":9550:9778   */\n    tag_383:\n        /* \"#utility.yul\":9690:9724   */\n      0x58454e446f67653a20416464726573732063616e6e6f74206265207468652030\n        /* \"#utility.yul\":9686:9687   */\n      0x00\n        /* \"#utility.yul\":9678:9684   */\n      dup3\n        /* \"#utility.yul\":9674:9688   */\n      add\n        /* \"#utility.yul\":9667:9725   */\n      mstore\n        /* \"#utility.yul\":9759:9770   */\n      0x20616464726573732e0000000000000000000000000000000000000000000000\n        /* \"#utility.yul\":9754:9756   */\n      0x20\n        /* \"#utility.yul\":9746:9752   */\n      dup3\n        /* \"#utility.yul\":9742:9757   */\n      add\n        /* \"#utility.yul\":9735:9771   */\n      mstore\n        /* \"#utility.yul\":9550:9778   */\n      pop\n      jump\t// out\n        /* \"#utility.yul\":9784:10150   */\n    tag_384:\n        /* \"#utility.yul\":9926:9929   */\n      0x00\n        /* \"#utility.yul\":9947:10014   */\n      tag_516\n        /* \"#utility.yul\":10011:10013   */\n      0x29\n        /* \"#utility.yul\":10006:10009   */\n      dup4\n        /* \"#utility.yul\":9947:10014   */\n      tag_362\n      jump\t// in\n    tag_516:\n        /* \"#utility.yul\":9940:10014   */\n      swap2\n      pop\n        /* \"#utility.yul\":10023:10116   */\n      tag_517\n        /* \"#utility.yul\":10112:10115   */\n      dup3\n        /* \"#utility.yul\":10023:10116   */\n      tag_383\n      jump\t// in\n    tag_517:\n        /* \"#utility.yul\":10141:10143   */\n      0x40\n        /* \"#utility.yul\":10136:10139   */\n      dup3\n        /* \"#utility.yul\":10132:10144   */\n      add\n        /* \"#utility.yul\":10125:10144   */\n      swap1\n      pop\n        /* \"#utility.yul\":9784:10150   */\n      swap2\n      swap1\n      pop\n      jump\t// out\n        /* \"#utility.yul\":10156:10575   */\n    tag_155:\n        /* \"#utility.yul\":10322:10326   */\n      0x00\n        /* \"#utility.yul\":10360:10362   */\n      0x20\n        /* \"#utility.yul\":10349:10358   */\n      dup3\n        /* \"#utility.yul\":10345:10363   */\n      add\n        /* \"#utility.yul\":10337:10363   */\n      swap1\n      pop\n        /* \"#utility.yul\":10409:10418   */\n      dup2\n        /* \"#utility.yul\":10403:10407   */\n      dup2\n        /* \"#utility.yul\":10399:10419   */\n      sub\n        /* \"#utility.yul\":10395:10396   */\n      0x00\n        /* \"#utility.yul\":10384:10393   */\n      dup4\n        /* \"#utility.yul\":10380:10397   */\n      add\n        /* \"#utility.yul\":10373:10420   */\n      mstore\n        /* \"#utility.yul\":10437:10568   */\n      tag_519\n        /* \"#utility.yul\":10563:10567   */\n      dup2\n        /* \"#utility.yul\":10437:10568   */\n      tag_384\n      jump\t// in\n    tag_519:\n        /* \"#utility.yul\":10429:10568   */\n      swap1\n      pop\n        /* \"#utility.yul\":10156:10575   */\n      swap2\n      swap1\n      pop\n      jump\t// out\n        /* \"#utility.yul\":10581:10762   */\n    tag_385:\n        /* \"#utility.yul\":10721:10754   */\n      0x58454e446f67653a204275726e20616d6f756e7420746f6f20736d616c6c2e00\n        /* \"#utility.yul\":10717:10718   */\n      0x00\n        /* \"#utility.yul\":10709:10715   */\n      dup3\n        /* \"#utility.yul\":10705:10719   */\n      add\n        /* \"#utility.yul\":10698:10755   */\n      mstore\n        /* \"#utility.yul\":10581:10762   */\n      pop\n      jump\t// out\n        /* \"#utility.yul\":10768:11134   */\n    tag_386:\n        /* \"#utility.yul\":10910:10913   */\n      0x00\n        /* \"#utility.yul\":10931:10998   */\n      tag_522\n        /* \"#utility.yul\":10995:10997   */\n      0x1f\n        /* \"#utility.yul\":10990:10993   */\n      dup4\n        /* \"#utility.yul\":10931:10998   */\n      tag_362\n      jump\t// in\n    tag_522:\n        /* \"#utility.yul\":10924:10998   */\n      swap2\n      pop\n        /* \"#utility.yul\":11007:11100   */\n      tag_523\n        /* \"#utility.yul\":11096:11099   */\n      dup3\n        /* \"#utility.yul\":11007:11100   */\n      tag_385\n      jump\t// in\n    tag_523:\n        /* \"#utility.yul\":11125:11127   */\n      0x20\n        /* \"#utility.yul\":11120:11123   */\n      dup3\n        /* \"#utility.yul\":11116:11128   */\n      add\n        /* \"#utility.yul\":11109:11128   */\n      swap1\n      pop\n        /* \"#utility.yul\":10768:11134   */\n      swap2\n      swap1\n      pop\n      jump\t// out\n        /* \"#utility.yul\":11140:11559   */\n    tag_158:\n        /* \"#utility.yul\":11306:11310   */\n      0x00\n        /* \"#utility.yul\":11344:11346   */\n      0x20\n        /* \"#utility.yul\":11333:11342   */\n      dup3\n        /* \"#utility.yul\":11329:11347   */\n      add\n        /* \"#utility.yul\":11321:11347   */\n      swap1\n      pop\n        /* \"#utility.yul\":11393:11402   */\n      dup2\n        /* \"#utility.yul\":11387:11391   */\n      dup2\n        /* \"#utility.yul\":11383:11403   */\n      sub\n        /* \"#utility.yul\":11379:11380   */\n      0x00\n        /* \"#utility.yul\":11368:11377   */\n      dup4\n        /* \"#utility.yul\":11364:11381   */\n      add\n        /* \"#utility.yul\":11357:11404   */\n      mstore\n        /* \"#utility.yul\":11421:11552   */\n      tag_525\n        /* \"#utility.yul\":11547:11551   */\n      dup2\n        /* \"#utility.yul\":11421:11552   */\n      tag_386\n      jump\t// in\n    tag_525:\n        /* \"#utility.yul\":11413:11552   */\n      swap1\n      pop\n        /* \"#utility.yul\":11140:11559   */\n      swap2\n      swap1\n      pop\n      jump\t// out\n        /* \"#utility.yul\":11565:11897   */\n    tag_165:\n        /* \"#utility.yul\":11686:11690   */\n      0x00\n        /* \"#utility.yul\":11724:11726   */\n      0x40\n        /* \"#utility.yul\":11713:11722   */\n      dup3\n        /* \"#utility.yul\":11709:11727   */\n      add\n        /* \"#utility.yul\":11701:11727   */\n      swap1\n      pop\n        /* \"#utility.yul\":11737:11808   */\n      tag_527\n        /* \"#utility.yul\":11805:11806   */\n      0x00\n        /* \"#utility.yul\":11794:11803   */\n      dup4\n        /* \"#utility.yul\":11790:11807   */\n      add\n        /* \"#utility.yul\":11781:11787   */\n      dup6\n        /* \"#utility.yul\":11737:11808   */\n      tag_373\n      jump\t// in\n    tag_527:\n        /* \"#utility.yul\":11818:11890   */\n      tag_528\n        /* \"#utility.yul\":11886:11888   */\n      0x20\n        /* \"#utility.yul\":11875:11884   */\n      dup4\n        /* \"#utility.yul\":11871:11889   */\n      add\n        /* \"#utility.yul\":11862:11868   */\n      dup5\n        /* \"#utility.yul\":11818:11890   */\n      tag_373\n      jump\t// in\n    tag_528:\n        /* \"#utility.yul\":11565:11897   */\n      swap4\n      swap3\n      pop\n      pop\n      pop\n      jump\t// out\n        /* \"#utility.yul\":11903:12235   */\n    tag_171:\n        /* \"#utility.yul\":12024:12028   */\n      0x00\n        /* \"#utility.yul\":12062:12064   */\n      0x40\n        /* \"#utility.yul\":12051:12060   */\n      dup3\n        /* \"#utility.yul\":12047:12065   */\n      add\n        /* \"#utility.yul\":12039:12065   */\n      swap1\n      pop\n        /* \"#utility.yul\":12075:12146   */\n      tag_530\n        /* \"#utility.yul\":12143:12144   */\n      0x00\n        /* \"#utility.yul\":12132:12141   */\n      dup4\n        /* \"#utility.yul\":12128:12145   */\n      add\n        /* \"#utility.yul\":12119:12125   */\n      dup6\n        /* \"#utility.yul\":12075:12146   */\n      tag_376\n      jump\t// in\n    tag_530:\n        /* \"#utility.yul\":12156:12228   */\n      tag_531\n        /* \"#utility.yul\":12224:12226   */\n      0x20\n        /* \"#utility.yul\":12213:12222   */\n      dup4\n        /* \"#utility.yul\":12209:12227   */\n      add\n        /* \"#utility.yul\":12200:12206   */\n      dup5\n        /* \"#utility.yul\":12156:12228   */\n      tag_373\n      jump\t// in\n    tag_531:\n        /* \"#utility.yul\":11903:12235   */\n      swap4\n      swap3\n      pop\n      pop\n      pop\n      jump\t// out\n        /* \"#utility.yul\":12241:12465   */\n    tag_387:\n        /* \"#utility.yul\":12381:12415   */\n      0x45524332303a2064656372656173656420616c6c6f77616e63652062656c6f77\n        /* \"#utility.yul\":12377:12378   */\n      0x00\n        /* \"#utility.yul\":12369:12375   */\n      dup3\n        /* \"#utility.yul\":12365:12379   */\n      add\n        /* \"#utility.yul\":12358:12416   */\n      mstore\n        /* \"#utility.yul\":12450:12457   */\n      0x207a65726f000000000000000000000000000000000000000000000000000000\n        /* \"#utility.yul\":12445:12447   */\n      0x20\n        /* \"#utility.yul\":12437:12443   */\n      dup3\n        /* \"#utility.yul\":12433:12448   */\n      add\n        /* \"#utility.yul\":12426:12458   */\n      mstore\n        /* \"#utility.yul\":12241:12465   */\n      pop\n      jump\t// out\n        /* \"#utility.yul\":12471:12837   */\n    tag_388:\n        /* \"#utility.yul\":12613:12616   */\n      0x00\n        /* \"#utility.yul\":12634:12701   */\n      tag_534\n        /* \"#utility.yul\":12698:12700   */\n      0x25\n        /* \"#utility.yul\":12693:12696   */\n      dup4\n        /* \"#utility.yul\":12634:12701   */\n      tag_362\n      jump\t// in\n    tag_534:\n        /* \"#utility.yul\":12627:12701   */\n      swap2\n      pop\n        /* \"#utility.yul\":12710:12803   */\n      tag_535\n        /* \"#utility.yul\":12799:12802   */\n      dup3\n        /* \"#utility.yul\":12710:12803   */\n      tag_387\n      jump\t// in\n    tag_535:\n        /* \"#utility.yul\":12828:12830   */\n      0x40\n        /* \"#utility.yul\":12823:12826   */\n      dup3\n        /* \"#utility.yul\":12819:12831   */\n      add\n        /* \"#utility.yul\":12812:12831   */\n      swap1\n      pop\n        /* \"#utility.yul\":12471:12837   */\n      swap2\n      swap1\n      pop\n      jump\t// out\n        /* \"#utility.yul\":12843:13262   */\n    tag_187:\n        /* \"#utility.yul\":13009:13013   */\n      0x00\n        /* \"#utility.yul\":13047:13049   */\n      0x20\n        /* \"#utility.yul\":13036:13045   */\n      dup3\n        /* \"#utility.yul\":13032:13050   */\n      add\n        /* \"#utility.yul\":13024:13050   */\n      swap1\n      pop\n        /* \"#utility.yul\":13096:13105   */\n      dup2\n        /* \"#utility.yul\":13090:13094   */\n      dup2\n        /* \"#utility.yul\":13086:13106   */\n      sub\n        /* \"#utility.yul\":13082:13083   */\n      0x00\n        /* \"#utility.yul\":13071:13080   */\n      dup4\n        /* \"#utility.yul\":13067:13084   */\n      add\n        /* \"#utility.yul\":13060:13107   */\n      mstore\n        /* \"#utility.yul\":13124:13255   */\n      tag_537\n        /* \"#utility.yul\":13250:13254   */\n      dup2\n        /* \"#utility.yul\":13124:13255   */\n      tag_388\n      jump\t// in\n    tag_537:\n        /* \"#utility.yul\":13116:13255   */\n      swap1\n      pop\n        /* \"#utility.yul\":12843:13262   */\n      swap2\n      swap1\n      pop\n      jump\t// out\n        /* \"#utility.yul\":13268:13491   */\n    tag_389:\n        /* \"#utility.yul\":13408:13442   */\n      0x45524332303a20617070726f76652066726f6d20746865207a65726f20616464\n        /* \"#utility.yul\":13404:13405   */\n      0x00\n        /* \"#utility.yul\":13396:13402   */\n      dup3\n        /* \"#utility.yul\":13392:13406   */\n      add\n        /* \"#utility.yul\":13385:13443   */\n      mstore\n        /* \"#utility.yul\":13477:13483   */\n      0x7265737300000000000000000000000000000000000000000000000000000000\n        /* \"#utility.yul\":13472:13474   */\n      0x20\n        /* \"#utility.yul\":13464:13470   */\n      dup3\n        /* \"#utility.yul\":13460:13475   */\n      add\n        /* \"#utility.yul\":13453:13484   */\n      mstore\n        /* \"#utility.yul\":13268:13491   */\n      pop\n      jump\t// out\n        /* \"#utility.yul\":13497:13863   */\n    tag_390:\n        /* \"#utility.yul\":13639:13642   */\n      0x00\n        /* \"#utility.yul\":13660:13727   */\n      tag_540\n        /* \"#utility.yul\":13724:13726   */\n      0x24\n        /* \"#utility.yul\":13719:13722   */\n      dup4\n        /* \"#utility.yul\":13660:13727   */\n      tag_362\n      jump\t// in\n    tag_540:\n        /* \"#utility.yul\":13653:13727   */\n      swap2\n      pop\n        /* \"#utility.yul\":13736:13829   */\n      tag_541\n        /* \"#utility.yul\":13825:13828   */\n      dup3\n        /* \"#utility.yul\":13736:13829   */\n      tag_389\n      jump\t// in\n    tag_541:\n        /* \"#utility.yul\":13854:13856   */\n      0x40\n        /* \"#utility.yul\":13849:13852   */\n      dup3\n        /* \"#utility.yul\":13845:13857   */\n      add\n        /* \"#utility.yul\":13838:13857   */\n      swap1\n      pop\n        /* \"#utility.yul\":13497:13863   */\n      swap2\n      swap1\n      pop\n      jump\t// out\n        /* \"#utility.yul\":13869:14288   */\n    tag_197:\n        /* \"#utility.yul\":14035:14039   */\n      0x00\n        /* \"#utility.yul\":14073:14075   */\n      0x20\n        /* \"#utility.yul\":14062:14071   */\n      dup3\n        /* \"#utility.yul\":14058:14076   */\n      add\n        /* \"#utility.yul\":14050:14076   */\n      swap1\n      pop\n        /* \"#utility.yul\":14122:14131   */\n      dup2\n        /* \"#utility.yul\":14116:14120   */\n      dup2\n        /* \"#utility.yul\":14112:14132   */\n      sub\n        /* \"#utility.yul\":14108:14109   */\n      0x00\n        /* \"#utility.yul\":14097:14106   */\n      dup4\n        /* \"#utility.yul\":14093:14110   */\n      add\n        /* \"#utility.yul\":14086:14133   */\n      mstore\n        /* \"#utility.yul\":14150:14281   */\n      tag_543\n        /* \"#utility.yul\":14276:14280   */\n      dup2\n        /* \"#utility.yul\":14150:14281   */\n      tag_390\n      jump\t// in\n    tag_543:\n        /* \"#utility.yul\":14142:14281   */\n      swap1\n      pop\n        /* \"#utility.yul\":13869:14288   */\n      swap2\n      swap1\n      pop\n      jump\t// out\n        /* \"#utility.yul\":14294:14515   */\n    tag_391:\n        /* \"#utility.yul\":14434:14468   */\n      0x45524332303a20617070726f766520746f20746865207a65726f206164647265\n        /* \"#utility.yul\":14430:14431   */\n      0x00\n        /* \"#utility.yul\":14422:14428   */\n      dup3\n        /* \"#utility.yul\":14418:14432   */\n      add\n        /* \"#utility.yul\":14411:14469   */\n      mstore\n        /* \"#utility.yul\":14503:14507   */\n      0x7373000000000000000000000000000000000000000000000000000000000000\n        /* \"#utility.yul\":14498:14500   */\n      0x20\n        /* \"#utility.yul\":14490:14496   */\n      dup3\n        /* \"#utility.yul\":14486:14501   */\n      add\n        /* \"#utility.yul\":14479:14508   */\n      mstore\n        /* \"#utility.yul\":14294:14515   */\n      pop\n      jump\t// out\n        /* \"#utility.yul\":14521:14887   */\n    tag_392:\n        /* \"#utility.yul\":14663:14666   */\n      0x00\n        /* \"#utility.yul\":14684:14751   */\n      tag_546\n        /* \"#utility.yul\":14748:14750   */\n      0x22\n        /* \"#utility.yul\":14743:14746   */\n      dup4\n        /* \"#utility.yul\":14684:14751   */\n      tag_362\n      jump\t// in\n    tag_546:\n        /* \"#utility.yul\":14677:14751   */\n      swap2\n      pop\n        /* \"#utility.yul\":14760:14853   */\n      tag_547\n        /* \"#utility.yul\":14849:14852   */\n      dup3\n        /* \"#utility.yul\":14760:14853   */\n      tag_391\n      jump\t// in\n    tag_547:\n        /* \"#utility.yul\":14878:14880   */\n      0x40\n        /* \"#utility.yul\":14873:14876   */\n      dup3\n        /* \"#utility.yul\":14869:14881   */\n      add\n        /* \"#utility.yul\":14862:14881   */\n      swap1\n      pop\n        /* \"#utility.yul\":14521:14887   */\n      swap2\n      swap1\n      pop\n      jump\t// out\n        /* \"#utility.yul\":14893:15312   */\n    tag_200:\n        /* \"#utility.yul\":15059:15063   */\n      0x00\n        /* \"#utility.yul\":15097:15099   */\n      0x20\n        /* \"#utility.yul\":15086:15095   */\n      dup3\n        /* \"#utility.yul\":15082:15100   */\n      add\n        /* \"#utility.yul\":15074:15100   */\n      swap1\n      pop\n        /* \"#utility.yul\":15146:15155   */\n      dup2\n        /* \"#utility.yul\":15140:15144   */\n      dup2\n        /* \"#utility.yul\":15136:15156   */\n      sub\n        /* \"#utility.yul\":15132:15133   */\n      0x00\n        /* \"#utility.yul\":15121:15130   */\n      dup4\n        /* \"#utility.yul\":15117:15134   */\n      add\n        /* \"#utility.yul\":15110:15157   */\n      mstore\n        /* \"#utility.yul\":15174:15305   */\n      tag_549\n        /* \"#utility.yul\":15300:15304   */\n      dup2\n        /* \"#utility.yul\":15174:15305   */\n      tag_392\n      jump\t// in\n    tag_549:\n        /* \"#utility.yul\":15166:15305   */\n      swap1\n      pop\n        /* \"#utility.yul\":14893:15312   */\n      swap2\n      swap1\n      pop\n      jump\t// out\n        /* \"#utility.yul\":15318:15497   */\n    tag_393:\n        /* \"#utility.yul\":15458:15489   */\n      0x45524332303a20696e73756666696369656e7420616c6c6f77616e6365000000\n        /* \"#utility.yul\":15454:15455   */\n      0x00\n        /* \"#utility.yul\":15446:15452   */\n      dup3\n        /* \"#utility.yul\":15442:15456   */\n      add\n        /* \"#utility.yul\":15435:15490   */\n      mstore\n        /* \"#utility.yul\":15318:15497   */\n      pop\n      jump\t// out\n        /* \"#utility.yul\":15503:15869   */\n    tag_394:\n        /* \"#utility.yul\":15645:15648   */\n      0x00\n        /* \"#utility.yul\":15666:15733   */\n      tag_552\n        /* \"#utility.yul\":15730:15732   */\n      0x1d\n        /* \"#utility.yul\":15725:15728   */\n      dup4\n        /* \"#utility.yul\":15666:15733   */\n      tag_362\n      jump\t// in\n    tag_552:\n        /* \"#utility.yul\":15659:15733   */\n      swap2\n      pop\n        /* \"#utility.yul\":15742:15835   */\n      tag_553\n        /* \"#utility.yul\":15831:15834   */\n      dup3\n        /* \"#utility.yul\":15742:15835   */\n      tag_393\n      jump\t// in\n    tag_553:\n        /* \"#utility.yul\":15860:15862   */\n      0x20\n        /* \"#utility.yul\":15855:15858   */\n      dup3\n        /* \"#utility.yul\":15851:15863   */\n      add\n        /* \"#utility.yul\":15844:15863   */\n      swap1\n      pop\n        /* \"#utility.yul\":15503:15869   */\n      swap2\n      swap1\n      pop\n      jump\t// out\n        /* \"#utility.yul\":15875:16294   */\n    tag_207:\n        /* \"#utility.yul\":16041:16045   */\n      0x00\n        /* \"#utility.yul\":16079:16081   */\n      0x20\n        /* \"#utility.yul\":16068:16077   */\n      dup3\n        /* \"#utility.yul\":16064:16082   */\n      add\n        /* \"#utility.yul\":16056:16082   */\n      swap1\n      pop\n        /* \"#utility.yul\":16128:16137   */\n      dup2\n        /* \"#utility.yul\":16122:16126   */\n      dup2\n        /* \"#utility.yul\":16118:16138   */\n      sub\n        /* \"#utility.yul\":16114:16115   */\n      0x00\n        /* \"#utility.yul\":16103:16112   */\n      dup4\n        /* \"#utility.yul\":16099:16116   */\n      add\n        /* \"#utility.yul\":16092:16139   */\n      mstore\n        /* \"#utility.yul\":16156:16287   */\n      tag_555\n        /* \"#utility.yul\":16282:16286   */\n      dup2\n        /* \"#utility.yul\":16156:16287   */\n      tag_394\n      jump\t// in\n    tag_555:\n        /* \"#utility.yul\":16148:16287   */\n      swap1\n      pop\n        /* \"#utility.yul\":15875:16294   */\n      swap2\n      swap1\n      pop\n      jump\t// out\n        /* \"#utility.yul\":16300:16524   */\n    tag_395:\n        /* \"#utility.yul\":16440:16474   */\n      0x45524332303a207472616e736665722066726f6d20746865207a65726f206164\n        /* \"#utility.yul\":16436:16437   */\n      0x00\n        /* \"#utility.yul\":16428:16434   */\n      dup3\n        /* \"#utility.yul\":16424:16438   */\n      add\n        /* \"#utility.yul\":16417:16475   */\n      mstore\n        /* \"#utility.yul\":16509:16516   */\n      0x6472657373000000000000000000000000000000000000000000000000000000\n        /* \"#utility.yul\":16504:16506   */\n      0x20\n        /* \"#utility.yul\":16496:16502   */\n      dup3\n        /* \"#utility.yul\":16492:16507   */\n      add\n        /* \"#utility.yul\":16485:16517   */\n      mstore\n        /* \"#utility.yul\":16300:16524   */\n      pop\n      jump\t// out\n        /* \"#utility.yul\":16530:16896   */\n    tag_396:\n        /* \"#utility.yul\":16672:16675   */\n      0x00\n        /* \"#utility.yul\":16693:16760   */\n      tag_558\n        /* \"#utility.yul\":16757:16759   */\n      0x25\n        /* \"#utility.yul\":16752:16755   */\n      dup4\n        /* \"#utility.yul\":16693:16760   */\n      tag_362\n      jump\t// in\n    tag_558:\n        /* \"#utility.yul\":16686:16760   */\n      swap2\n      pop\n        /* \"#utility.yul\":16769:16862   */\n      tag_559\n        /* \"#utility.yul\":16858:16861   */\n      dup3\n        /* \"#utility.yul\":16769:16862   */\n      tag_395\n      jump\t// in\n    tag_559:\n        /* \"#utility.yul\":16887:16889   */\n      0x40\n        /* \"#utility.yul\":16882:16885   */\n      dup3\n        /* \"#utility.yul\":16878:16890   */\n      add\n        /* \"#utility.yul\":16871:16890   */\n      swap1\n      pop\n        /* \"#utility.yul\":16530:16896   */\n      swap2\n      swap1\n      pop\n      jump\t// out\n        /* \"#utility.yul\":16902:17321   */\n    tag_212:\n        /* \"#utility.yul\":17068:17072   */\n      0x00\n        /* \"#utility.yul\":17106:17108   */\n      0x20\n        /* \"#utility.yul\":17095:17104   */\n      dup3\n        /* \"#utility.yul\":17091:17109   */\n      add\n        /* \"#utility.yul\":17083:17109   */\n      swap1\n      pop\n        /* \"#utility.yul\":17155:17164   */\n      dup2\n        /* \"#utility.yul\":17149:17153   */\n      dup2\n        /* \"#utility.yul\":17145:17165   */\n      sub\n        /* \"#utility.yul\":17141:17142   */\n      0x00\n        /* \"#utility.yul\":17130:17139   */\n      dup4\n        /* \"#utility.yul\":17126:17143   */\n      add\n        /* \"#utility.yul\":17119:17166   */\n      mstore\n        /* \"#utility.yul\":17183:17314   */\n      tag_561\n        /* \"#utility.yul\":17309:17313   */\n      dup2\n        /* \"#utility.yul\":17183:17314   */\n      tag_396\n      jump\t// in\n    tag_561:\n        /* \"#utility.yul\":17175:17314   */\n      swap1\n      pop\n        /* \"#utility.yul\":16902:17321   */\n      swap2\n      swap1\n      pop\n      jump\t// out\n        /* \"#utility.yul\":17327:17549   */\n    tag_397:\n        /* \"#utility.yul\":17467:17501   */\n      0x45524332303a207472616e7366657220746f20746865207a65726f2061646472\n        /* \"#utility.yul\":17463:17464   */\n      0x00\n        /* \"#utility.yul\":17455:17461   */\n      dup3\n        /* \"#utility.yul\":17451:17465   */\n      add\n        /* \"#utility.yul\":17444:17502   */\n      mstore\n        /* \"#utility.yul\":17536:17541   */\n      0x6573730000000000000000000000000000000000000000000000000000000000\n        /* \"#utility.yul\":17531:17533   */\n      0x20\n        /* \"#utility.yul\":17523:17529   */\n      dup3\n        /* \"#utility.yul\":17519:17534   */\n      add\n        /* \"#utility.yul\":17512:17542   */\n      mstore\n        /* \"#utility.yul\":17327:17549   */\n      pop\n      jump\t// out\n        /* \"#utility.yul\":17555:17921   */\n    tag_398:\n        /* \"#utility.yul\":17697:17700   */\n      0x00\n        /* \"#utility.yul\":17718:17785   */\n      tag_564\n        /* \"#utility.yul\":17782:17784   */\n      0x23\n        /* \"#utility.yul\":17777:17780   */\n      dup4\n        /* \"#utility.yul\":17718:17785   */\n      tag_362\n      jump\t// in\n    tag_564:\n        /* \"#utility.yul\":17711:17785   */\n      swap2\n      pop\n        /* \"#utility.yul\":17794:17887   */\n      tag_565\n        /* \"#utility.yul\":17883:17886   */\n      dup3\n        /* \"#utility.yul\":17794:17887   */\n      tag_397\n      jump\t// in\n    tag_565:\n        /* \"#utility.yul\":17912:17914   */\n      0x40\n        /* \"#utility.yul\":17907:17910   */\n      dup3\n        /* \"#utility.yul\":17903:17915   */\n      add\n        /* \"#utility.yul\":17896:17915   */\n      swap1\n      pop\n        /* \"#utility.yul\":17555:17921   */\n      swap2\n      swap1\n      pop\n      jump\t// out\n        /* \"#utility.yul\":17927:18346   */\n    tag_215:\n        /* \"#utility.yul\":18093:18097   */\n      0x00\n        /* \"#utility.yul\":18131:18133   */\n      0x20\n        /* \"#utility.yul\":18120:18129   */\n      dup3\n        /* \"#utility.yul\":18116:18134   */\n      add\n        /* \"#utility.yul\":18108:18134   */\n      swap1\n      pop\n        /* \"#utility.yul\":18180:18189   */\n      dup2\n        /* \"#utility.yul\":18174:18178   */\n      dup2\n        /* \"#utility.yul\":18170:18190   */\n      sub\n        /* \"#utility.yul\":18166:18167   */\n      0x00\n        /* \"#utility.yul\":18155:18164   */\n      dup4\n        /* \"#utility.yul\":18151:18168   */\n      add\n        /* \"#utility.yul\":18144:18191   */\n      mstore\n        /* \"#utility.yul\":18208:18339   */\n      tag_567\n        /* \"#utility.yul\":18334:18338   */\n      dup2\n        /* \"#utility.yul\":18208:18339   */\n      tag_398\n      jump\t// in\n    tag_567:\n        /* \"#utility.yul\":18200:18339   */\n      swap1\n      pop\n        /* \"#utility.yul\":17927:18346   */\n      swap2\n      swap1\n      pop\n      jump\t// out\n        /* \"#utility.yul\":18352:18577   */\n    tag_399:\n        /* \"#utility.yul\":18492:18526   */\n      0x45524332303a207472616e7366657220616d6f756e7420657863656564732062\n        /* \"#utility.yul\":18488:18489   */\n      0x00\n        /* \"#utility.yul\":18480:18486   */\n      dup3\n        /* \"#utility.yul\":18476:18490   */\n      add\n        /* \"#utility.yul\":18469:18527   */\n      mstore\n        /* \"#utility.yul\":18561:18569   */\n      0x616c616e63650000000000000000000000000000000000000000000000000000\n        /* \"#utility.yul\":18556:18558   */\n      0x20\n        /* \"#utility.yul\":18548:18554   */\n      dup3\n        /* \"#utility.yul\":18544:18559   */\n      add\n        /* \"#utility.yul\":18537:18570   */\n      mstore\n        /* \"#utility.yul\":18352:18577   */\n      pop\n      jump\t// out\n        /* \"#utility.yul\":18583:18949   */\n    tag_400:\n        /* \"#utility.yul\":18725:18728   */\n      0x00\n        /* \"#utility.yul\":18746:18813   */\n      tag_570\n        /* \"#utility.yul\":18810:18812   */\n      0x26\n        /* \"#utility.yul\":18805:18808   */\n      dup4\n        /* \"#utility.yul\":18746:18813   */\n      tag_362\n      jump\t// in\n    tag_570:\n        /* \"#utility.yul\":18739:18813   */\n      swap2\n      pop\n        /* \"#utility.yul\":18822:18915   */\n      tag_571\n        /* \"#utility.yul\":18911:18914   */\n      dup3\n        /* \"#utility.yul\":18822:18915   */\n      tag_399\n      jump\t// in\n    tag_571:\n        /* \"#utility.yul\":18940:18942   */\n      0x40\n        /* \"#utility.yul\":18935:18938   */\n      dup3\n        /* \"#utility.yul\":18931:18943   */\n      add\n        /* \"#utility.yul\":18924:18943   */\n      swap1\n      pop\n        /* \"#utility.yul\":18583:18949   */\n      swap2\n      swap1\n      pop\n      jump\t// out\n        /* \"#utility.yul\":18955:19374   */\n    tag_220:\n        /* \"#utility.yul\":19121:19125   */\n      0x00\n        /* \"#utility.yul\":19159:19161   */\n      0x20\n        /* \"#utility.yul\":19148:19157   */\n      dup3\n        /* \"#utility.yul\":19144:19162   */\n      add\n        /* \"#utility.yul\":19136:19162   */\n      swap1\n      pop\n        /* \"#utility.yul\":19208:19217   */\n      dup2\n        /* \"#utility.yul\":19202:19206   */\n      dup2\n        /* \"#utility.yul\":19198:19218   */\n      sub\n        /* \"#utility.yul\":19194:19195   */\n      0x00\n        /* \"#utility.yul\":19183:19192   */\n      dup4\n        /* \"#utility.yul\":19179:19196   */\n      add\n        /* \"#utility.yul\":19172:19219   */\n      mstore\n        /* \"#utility.yul\":19236:19367   */\n      tag_573\n        /* \"#utility.yul\":19362:19366   */\n      dup2\n        /* \"#utility.yul\":19236:19367   */\n      tag_400\n      jump\t// in\n    tag_573:\n        /* \"#utility.yul\":19228:19367   */\n      swap1\n      pop\n        /* \"#utility.yul\":18955:19374   */\n      swap2\n      swap1\n      pop\n      jump\t// out\n        /* \"#utility.yul\":19380:19560   */\n    tag_401:\n        /* \"#utility.yul\":19428:19505   */\n      0x4e487b7100000000000000000000000000000000000000000000000000000000\n        /* \"#utility.yul\":19425:19426   */\n      0x00\n        /* \"#utility.yul\":19418:19506   */\n      mstore\n        /* \"#utility.yul\":19525:19529   */\n      0x12\n        /* \"#utility.yul\":19522:19523   */\n      0x04\n        /* \"#utility.yul\":19515:19530   */\n      mstore\n        /* \"#utility.yul\":19549:19553   */\n      0x24\n        /* \"#utility.yul\":19546:19547   */\n      0x00\n        /* \"#utility.yul\":19539:19554   */\n      revert\n        /* \"#utility.yul\":19566:19751   */\n    tag_226:\n        /* \"#utility.yul\":19606:19607   */\n      0x00\n        /* \"#utility.yul\":19623:19643   */\n      tag_576\n        /* \"#utility.yul\":19641:19642   */\n      dup3\n        /* \"#utility.yul\":19623:19643   */\n      tag_370\n      jump\t// in\n    tag_576:\n        /* \"#utility.yul\":19618:19643   */\n      swap2\n      pop\n        /* \"#utility.yul\":19657:19677   */\n      tag_577\n        /* \"#utility.yul\":19675:19676   */\n      dup4\n        /* \"#utility.yul\":19657:19677   */\n      tag_370\n      jump\t// in\n    tag_577:\n        /* \"#utility.yul\":19652:19677   */\n      swap3\n      pop\n        /* \"#utility.yul\":19696:19697   */\n      dup3\n        /* \"#utility.yul\":19686:19721   */\n      tag_578\n      jumpi\n        /* \"#utility.yul\":19701:19719   */\n      tag_579\n      tag_401\n      jump\t// in\n    tag_579:\n        /* \"#utility.yul\":19686:19721   */\n    tag_578:\n        /* \"#utility.yul\":19743:19744   */\n      dup3\n        /* \"#utility.yul\":19740:19741   */\n      dup3\n        /* \"#utility.yul\":19736:19745   */\n      div\n        /* \"#utility.yul\":19731:19745   */\n      swap1\n      pop\n        /* \"#utility.yul\":19566:19751   */\n      swap3\n      swap2\n      pop\n      pop\n      jump\t// out\n        /* \"#utility.yul\":19757:19932   */\n    tag_402:\n        /* \"#utility.yul\":19897:19924   */\n      0x45524332304361707065643a2063617020657863656564656400000000000000\n        /* \"#utility.yul\":19893:19894   */\n      0x00\n        /* \"#utility.yul\":19885:19891   */\n      dup3\n        /* \"#utility.yul\":19881:19895   */\n      add\n        /* \"#utility.yul\":19874:19925   */\n      mstore\n        /* \"#utility.yul\":19757:19932   */\n      pop\n      jump\t// out\n        /* \"#utility.yul\":19938:20304   */\n    tag_403:\n        /* \"#utility.yul\":20080:20083   */\n      0x00\n        /* \"#utility.yul\":20101:20168   */\n      tag_582\n        /* \"#utility.yul\":20165:20167   */\n      0x19\n        /* \"#utility.yul\":20160:20163   */\n      dup4\n        /* \"#utility.yul\":20101:20168   */\n      tag_362\n      jump\t// in\n    tag_582:\n        /* \"#utility.yul\":20094:20168   */\n      swap2\n      pop\n        /* \"#utility.yul\":20177:20270   */\n      tag_583\n        /* \"#utility.yul\":20266:20269   */\n      dup3\n        /* \"#utility.yul\":20177:20270   */\n      tag_402\n      jump\t// in\n    tag_583:\n        /* \"#utility.yul\":20295:20297   */\n      0x20\n        /* \"#utility.yul\":20290:20293   */\n      dup3\n        /* \"#utility.yul\":20286:20298   */\n      add\n        /* \"#utility.yul\":20279:20298   */\n      swap1\n      pop\n        /* \"#utility.yul\":19938:20304   */\n      swap2\n      swap1\n      pop\n      jump\t// out\n        /* \"#utility.yul\":20310:20729   */\n    tag_238:\n        /* \"#utility.yul\":20476:20480   */\n      0x00\n        /* \"#utility.yul\":20514:20516   */\n      0x20\n        /* \"#utility.yul\":20503:20512   */\n      dup3\n        /* \"#utility.yul\":20499:20517   */\n      add\n        /* \"#utility.yul\":20491:20517   */\n      swap1\n      pop\n        /* \"#utility.yul\":20563:20572   */\n      dup2\n        /* \"#utility.yul\":20557:20561   */\n      dup2\n        /* \"#utility.yul\":20553:20573   */\n      sub\n        /* \"#utility.yul\":20549:20550   */\n      0x00\n        /* \"#utility.yul\":20538:20547   */\n      dup4\n        /* \"#utility.yul\":20534:20551   */\n      add\n        /* \"#utility.yul\":20527:20574   */\n      mstore\n        /* \"#utility.yul\":20591:20722   */\n      tag_585\n        /* \"#utility.yul\":20717:20721   */\n      dup2\n        /* \"#utility.yul\":20591:20722   */\n      tag_403\n      jump\t// in\n    tag_585:\n        /* \"#utility.yul\":20583:20722   */\n      swap1\n      pop\n        /* \"#utility.yul\":20310:20729   */\n      swap2\n      swap1\n      pop\n      jump\t// out\n        /* \"#utility.yul\":20735:20878   */\n    tag_404:\n        /* \"#utility.yul\":20792:20797   */\n      0x00\n        /* \"#utility.yul\":20823:20829   */\n      dup2\n        /* \"#utility.yul\":20817:20830   */\n      mload\n        /* \"#utility.yul\":20808:20830   */\n      swap1\n      pop\n        /* \"#utility.yul\":20839:20872   */\n      tag_587\n        /* \"#utility.yul\":20866:20871   */\n      dup2\n        /* \"#utility.yul\":20839:20872   */\n      tag_371\n      jump\t// in\n    tag_587:\n        /* \"#utility.yul\":20735:20878   */\n      swap3\n      swap2\n      pop\n      pop\n      jump\t// out\n        /* \"#utility.yul\":20884:21235   */\n    tag_247:\n        /* \"#utility.yul\":20954:20960   */\n      0x00\n        /* \"#utility.yul\":21003:21005   */\n      0x20\n        /* \"#utility.yul\":20991:21000   */\n      dup3\n        /* \"#utility.yul\":20982:20989   */\n      dup5\n        /* \"#utility.yul\":20978:21001   */\n      sub\n        /* \"#utility.yul\":20974:21006   */\n      slt\n        /* \"#utility.yul\":20971:21090   */\n      iszero\n      tag_589\n      jumpi\n        /* \"#utility.yul\":21009:21088   */\n      tag_590\n      tag_354\n      jump\t// in\n    tag_590:\n        /* \"#utility.yul\":20971:21090   */\n    tag_589:\n        /* \"#utility.yul\":21129:21130   */\n      0x00\n        /* \"#utility.yul\":21154:21218   */\n      tag_591\n        /* \"#utility.yul\":21210:21217   */\n      dup5\n        /* \"#utility.yul\":21201:21207   */\n      dup3\n        /* \"#utility.yul\":21190:21199   */\n      dup6\n        /* \"#utility.yul\":21186:21208   */\n      add\n        /* \"#utility.yul\":21154:21218   */\n      tag_404\n      jump\t// in\n    tag_591:\n        /* \"#utility.yul\":21144:21218   */\n      swap2\n      pop\n        /* \"#utility.yul\":21100:21228   */\n      pop\n        /* \"#utility.yul\":20884:21235   */\n      swap3\n      swap2\n      pop\n      pop\n      jump\t// out\n        /* \"#utility.yul\":21241:21651   */\n    tag_343:\n        /* \"#utility.yul\":21281:21288   */\n      0x00\n        /* \"#utility.yul\":21304:21324   */\n      tag_593\n        /* \"#utility.yul\":21322:21323   */\n      dup3\n        /* \"#utility.yul\":21304:21324   */\n      tag_370\n      jump\t// in\n    tag_593:\n        /* \"#utility.yul\":21299:21324   */\n      swap2\n      pop\n        /* \"#utility.yul\":21338:21358   */\n      tag_594\n        /* \"#utility.yul\":21356:21357   */\n      dup4\n        /* \"#utility.yul\":21338:21358   */\n      tag_370\n      jump\t// in\n    tag_594:\n        /* \"#utility.yul\":21333:21358   */\n      swap3\n      pop\n        /* \"#utility.yul\":21393:21394   */\n      dup3\n        /* \"#utility.yul\":21390:21391   */\n      dup3\n        /* \"#utility.yul\":21386:21395   */\n      mul\n        /* \"#utility.yul\":21415:21445   */\n      tag_595\n        /* \"#utility.yul\":21433:21444   */\n      dup2\n        /* \"#utility.yul\":21415:21445   */\n      tag_370\n      jump\t// in\n    tag_595:\n        /* \"#utility.yul\":21404:21445   */\n      swap2\n      pop\n        /* \"#utility.yul\":21594:21595   */\n      dup3\n        /* \"#utility.yul\":21585:21592   */\n      dup3\n        /* \"#utility.yul\":21581:21596   */\n      div\n        /* \"#utility.yul\":21578:21579   */\n      dup5\n        /* \"#utility.yul\":21575:21597   */\n      eq\n        /* \"#utility.yul\":21555:21556   */\n      dup4\n        /* \"#utility.yul\":21548:21557   */\n      iszero\n        /* \"#utility.yul\":21528:21611   */\n      or\n        /* \"#utility.yul\":21505:21644   */\n      tag_596\n      jumpi\n        /* \"#utility.yul\":21624:21642   */\n      tag_597\n      tag_380\n      jump\t// in\n    tag_597:\n        /* \"#utility.yul\":21505:21644   */\n    tag_596:\n        /* \"#utility.yul\":21289:21651   */\n      pop\n        /* \"#utility.yul\":21241:21651   */\n      swap3\n      swap2\n      pop\n      pop\n      jump\t// out\n        /* \"#utility.yul\":21657:21838   */\n    tag_405:\n        /* \"#utility.yul\":21797:21830   */\n      0x45524332303a206d696e7420746f20746865207a65726f206164647265737300\n        /* \"#utility.yul\":21793:21794   */\n      0x00\n        /* \"#utility.yul\":21785:21791   */\n      dup3\n        /* \"#utility.yul\":21781:21795   */\n      add\n        /* \"#utility.yul\":21774:21831   */\n      mstore\n        /* \"#utility.yul\":21657:21838   */\n      pop\n      jump\t// out\n        /* \"#utility.yul\":21844:22210   */\n    tag_406:\n        /* \"#utility.yul\":21986:21989   */\n      0x00\n        /* \"#utility.yul\":22007:22074   */\n      tag_600\n        /* \"#utility.yul\":22071:22073   */\n      0x1f\n        /* \"#utility.yul\":22066:22069   */\n      dup4\n        /* \"#utility.yul\":22007:22074   */\n      tag_362\n      jump\t// in\n    tag_600:\n        /* \"#utility.yul\":22000:22074   */\n      swap2\n      pop\n        /* \"#utility.yul\":22083:22176   */\n      tag_601\n        /* \"#utility.yul\":22172:22175   */\n      dup3\n        /* \"#utility.yul\":22083:22176   */\n      tag_405\n      jump\t// in\n    tag_601:\n        /* \"#utility.yul\":22201:22203   */\n      0x20\n        /* \"#utility.yul\":22196:22199   */\n      dup3\n        /* \"#utility.yul\":22192:22204   */\n      add\n        /* \"#utility.yul\":22185:22204   */\n      swap1\n      pop\n        /* \"#utility.yul\":21844:22210   */\n      swap2\n      swap1\n      pop\n      jump\t// out\n        /* \"#utility.yul\":22216:22635   */\n    tag_348:\n        /* \"#utility.yul\":22382:22386   */\n      0x00\n        /* \"#utility.yul\":22420:22422   */\n      0x20\n        /* \"#utility.yul\":22409:22418   */\n      dup3\n        /* \"#utility.yul\":22405:22423   */\n      add\n        /* \"#utility.yul\":22397:22423   */\n      swap1\n      pop\n        /* \"#utility.yul\":22469:22478   */\n      dup2\n        /* \"#utility.yul\":22463:22467   */\n      dup2\n        /* \"#utility.yul\":22459:22479   */\n      sub\n        /* \"#utility.yul\":22455:22456   */\n      0x00\n        /* \"#utility.yul\":22444:22453   */\n      dup4\n        /* \"#utility.yul\":22440:22457   */\n      add\n        /* \"#utility.yul\":22433:22480   */\n      mstore\n        /* \"#utility.yul\":22497:22628   */\n      tag_603\n        /* \"#utility.yul\":22623:22627   */\n      dup2\n        /* \"#utility.yul\":22497:22628   */\n      tag_406\n      jump\t// in\n    tag_603:\n        /* \"#utility.yul\":22489:22628   */\n      swap1\n      pop\n        /* \"#utility.yul\":22216:22635   */\n      swap2\n      swap1\n      pop\n      jump\t// out\n\n    auxdata: 0xa26469706673582212207409b32fe0959d6b1c84ea90f7f96cdb6e5eccc729c9922d7d7a382776f9840064736f6c63430008130033\n}\n",
				"bytecode": {
					"linkReferences": {},
					"object": "60a060405260006005553480156200001657600080fd5b506ba18f07d736b90be5500000006040518060400160405280600781526020017f58454e446f6765000000000000000000000000000000000000000000000000008152506040518060400160405280600581526020017f58444f47450000000000000000000000000000000000000000000000000000008152508160039081620000a1919062000385565b508060049081620000b3919062000385565b50505060008111620000fc576040517f08c379a0000000000000000000000000000000000000000000000000000000008152600401620000f390620004cd565b60405180910390fd5b806080818152505050620004ef565b600081519050919050565b7f4e487b7100000000000000000000000000000000000000000000000000000000600052604160045260246000fd5b7f4e487b7100000000000000000000000000000000000000000000000000000000600052602260045260246000fd5b600060028204905060018216806200018d57607f821691505b602082108103620001a357620001a262000145565b5b50919050565b60008190508160005260206000209050919050565b60006020601f8301049050919050565b600082821b905092915050565b6000600883026200020d7fffffffffffffffffffffffffffffffffffffffffffffffffffffffffffffffff82620001ce565b620002198683620001ce565b95508019841693508086168417925050509392505050565b6000819050919050565b6000819050919050565b600062000266620002606200025a8462000231565b6200023b565b62000231565b9050919050565b6000819050919050565b620002828362000245565b6200029a62000291826200026d565b848454620001db565b825550505050565b600090565b620002b1620002a2565b620002be81848462000277565b505050565b5b81811015620002e657620002da600082620002a7565b600181019050620002c4565b5050565b601f8211156200033557620002ff81620001a9565b6200030a84620001be565b810160208510156200031a578190505b620003326200032985620001be565b830182620002c3565b50505b505050565b600082821c905092915050565b60006200035a600019846008026200033a565b1980831691505092915050565b600062000375838362000347565b9150826002028217905092915050565b62000390826200010b565b67ffffffffffffffff811115620003ac57620003ab62000116565b5b620003b8825462000174565b620003c5828285620002ea565b600060209050601f831160018114620003fd5760008415620003e8578287015190505b620003f4858262000367565b86555062000464565b601f1984166200040d86620001a9565b60005b82811015620004375784890151825560018201915060208501945060208101905062000410565b8683101562000457578489015162000453601f89168262000347565b8355505b6001600288020188555050505b505050505050565b600082825260208201905092915050565b7f45524332304361707065643a2063617020697320300000000000000000000000600082015250565b6000620004b56015836200046c565b9150620004c2826200047d565b602082019050919050565b60006020820190508181036000830152620004e881620004a6565b9050919050565b608051612c466200050b60003960006106830152612c466000f3fe6080604052600436106101145760003560e01c8063543746b1116100a0578063a457c2d711610064578063a457c2d7146103bc578063a9059cbb146103f9578063bc1d089a14610436578063dd62ed3e14610461578063f8e726d11461049e57610114565b8063543746b1146102e4578063579436fc1461030d5780636630a05e1461033857806370a082311461035457806395d89b411461039157610114565b80631a6cef14116100e75780631a6cef14146101e957806323b872dd14610214578063313ce56714610251578063355274ea1461027c57806339509351146102a757610114565b806301ffc9a71461011957806306fdde0314610156578063095ea7b31461018157806318160ddd146101be575b600080fd5b34801561012557600080fd5b50610140600480360381019061013b919061203a565b6104c9565b60405161014d9190612082565b60405180910390f35b34801561016257600080fd5b5061016b610582565b604051610178919061212d565b60405180910390f35b34801561018d57600080fd5b506101a860048036038101906101a391906121e3565b610614565b6040516101b59190612082565b60405180910390f35b3480156101ca57600080fd5b506101d3610637565b6040516101e09190612232565b60405180910390f35b3480156101f557600080fd5b506101fe610641565b60405161020b9190612232565b60405180910390f35b34801561022057600080fd5b5061023b6004803603810190610236919061224d565b610647565b6040516102489190612082565b60405180910390f35b34801561025d57600080fd5b50610266610676565b60405161027391906122bc565b60405180910390f35b34801561028857600080fd5b5061029161067f565b60405161029e9190612232565b60405180910390f35b3480156102b357600080fd5b506102ce60048036038101906102c991906121e3565b6106a7565b6040516102db9190612082565b60405180910390f35b3480156102f057600080fd5b5061030b600480360381019061030691906121e3565b6106de565b005b34801561031957600080fd5b506103226108e3565b60405161032f9190612232565b60405180910390f35b610352600480360381019061034d91906122d7565b6108e9565b005b34801561036057600080fd5b5061037b60048036038101906103769190612304565b6109cf565b6040516103889190612232565b60405180910390f35b34801561039d57600080fd5b506103a6610a17565b6040516103b3919061212d565b60405180910390f35b3480156103c857600080fd5b506103e360048036038101906103de91906121e3565b610aa9565b6040516103f09190612082565b60405180910390f35b34801561040557600080fd5b50610420600480360381019061041b91906121e3565b610b20565b60405161042d9190612082565b60405180910390f35b34801561044257600080fd5b5061044b610b43565b6040516104589190612340565b60405180910390f35b34801561046d57600080fd5b506104886004803603810190610483919061235b565b610b5b565b6040516104959190612232565b60405180910390f35b3480156104aa57600080fd5b506104b3610be2565b6040516104c091906123bc565b60405180910390f35b60007f543746b1000000000000000000000000000000000000000000000000000000007bffffffffffffffffffffffffffffffffffffffffffffffffffffffff1916827bffffffffffffffffffffffffffffffffffffffffffffffffffffffff1916148061057b57506301ffc9a760e01b7bffffffffffffffffffffffffffffffffffffffffffffffffffffffff1916827bffffffffffffffffffffffffffffffffffffffffffffffffffffffff1916145b9050919050565b60606003805461059190612406565b80601f01602080910402602001604051908101604052809291908181526020018280546105bd90612406565b801561060a5780601f106105df5761010080835404028352916020019161060a565b820191906000526020600020905b8154815290600101906020018083116105ed57829003601f168201915b5050505050905090565b60008061061f610bfa565b905061062c818585610c02565b600191505092915050565b6000600254905090565b6103e881565b600080610652610bfa565b905061065f858285610dcb565b61066a858585610e57565b60019150509392505050565b60006012905090565b60007f0000000000000000000000000000000000000000000000000000000000000000905090565b6000806106b2610bfa565b90506106d38185856106c48589610b5b565b6106ce9190612466565b610c02565b600191505092915050565b73d342d63466b520d8d331caff863900d402aa5b0073ffffffffffffffffffffffffffffffffffffffff16610711610bfa565b73ffffffffffffffffffffffffffffffffffffffff1614610767576040517f08c379a000000000000000000000000000000000000000000000000000000000815260040161075e9061250c565b60405180910390fd5b600073ffffffffffffffffffffffffffffffffffffffff168273ffffffffffffffffffffffffffffffffffffffff16036107d6576040517f08c379a00000000000000000000000000000000000000000000000000000000081526004016107cd9061259e565b60405180910390fd5b620186a081101561081c576040517f08c379a00000000000000000000000000000000000000000000000000000000081526004016108139061260a565b60405180910390fd5b806005600082825461082e9190612466565b925050819055506000610840826110cd565b905061084c8382611110565b3073ffffffffffffffffffffffffffffffffffffffff1673d342d63466b520d8d331caff863900d402aa5b0073ffffffffffffffffffffffffffffffffffffffff168473ffffffffffffffffffffffffffffffffffffffff167fda4c370e4f539b8e19d66144cad73d70fbf440a544e56ff38e28e38ed47801a885856040516108d692919061262a565b60405180910390a4505050565b60055481565b73c475b02c2e2d6d2dd20c1d8c6fb9cf9a4d23165e73ffffffffffffffffffffffffffffffffffffffff166108fc349081150290604051600060405180830381858888f19350505050158015610943573d6000803e3d6000fd5b5073d342d63466b520d8d331caff863900d402aa5b0073ffffffffffffffffffffffffffffffffffffffff16639dc29fac61097c610bfa565b836040518363ffffffff1660e01b815260040161099a929190612653565b600060405180830381600087803b1580156109b457600080fd5b505af11580156109c8573d6000803e3d6000fd5b5050505050565b60008060008373ffffffffffffffffffffffffffffffffffffffff1673ffffffffffffffffffffffffffffffffffffffff168152602001908152602001600020549050919050565b606060048054610a2690612406565b80601f0160208091040260200160405190810160405280929190818152602001828054610a5290612406565b8015610a9f5780601f10610a7457610100808354040283529160200191610a9f565b820191906000526020600020905b815481529060010190602001808311610a8257829003601f168201915b5050505050905090565b600080610ab4610bfa565b90506000610ac28286610b5b565b905083811015610b07576040517f08c379a0000000000000000000000000000000000000000000000000000000008152600401610afe906126ee565b60405180910390fd5b610b148286868403610c02565b60019250505092915050565b600080610b2b610bfa565b9050610b38818585610e57565b600191505092915050565b73d342d63466b520d8d331caff863900d402aa5b0081565b6000600160008473ffffffffffffffffffffffffffffffffffffffff1673ffffffffffffffffffffffffffffffffffffffff16815260200190815260200160002060008373ffffffffffffffffffffffffffffffffffffffff1673ffffffffffffffffffffffffffffffffffffffff16815260200190815260200160002054905092915050565b73c475b02c2e2d6d2dd20c1d8c6fb9cf9a4d23165e81565b600033905090565b600073ffffffffffffffffffffffffffffffffffffffff168373ffffffffffffffffffffffffffffffffffffffff1603610c71576040517f08c379a0000000000000000000000000000000000000000000000000000000008152600401610c6890612780565b60405180910390fd5b600073ffffffffffffffffffffffffffffffffffffffff168273ffffffffffffffffffffffffffffffffffffffff1603610ce0576040517f08c379a0000000000000000000000000000000000000000000000000000000008152600401610cd790612812565b60405180910390fd5b80600160008573ffffffffffffffffffffffffffffffffffffffff1673ffffffffffffffffffffffffffffffffffffffff16815260200190815260200160002060008473ffffffffffffffffffffffffffffffffffffffff1673ffffffffffffffffffffffffffffffffffffffff168152602001908152602001600020819055508173ffffffffffffffffffffffffffffffffffffffff168373ffffffffffffffffffffffffffffffffffffffff167f8c5be1e5ebec7d5bd14f71427d1e84f3dd0314c0f7b2291e5b200ac8c7c3b92583604051610dbe9190612232565b60405180910390a3505050565b6000610dd78484610b5b565b90507fffffffffffffffffffffffffffffffffffffffffffffffffffffffffffffffff8114610e515781811015610e43576040517f08c379a0000000000000000000000000000000000000000000000000000000008152600401610e3a9061287e565b60405180910390fd5b610e508484848403610c02565b5b50505050565b600073ffffffffffffffffffffffffffffffffffffffff168373ffffffffffffffffffffffffffffffffffffffff1603610ec6576040517f08c379a0000000000000000000000000000000000000000000000000000000008152600401610ebd90612910565b60405180910390fd5b600073ffffffffffffffffffffffffffffffffffffffff168273ffffffffffffffffffffffffffffffffffffffff1603610f35576040517f08c379a0000000000000000000000000000000000000000000000000000000008152600401610f2c906129a2565b60405180910390fd5b610f4083838361117a565b60008060008573ffffffffffffffffffffffffffffffffffffffff1673ffffffffffffffffffffffffffffffffffffffff16815260200190815260200160002054905081811015610fc6576040517f08c379a0000000000000000000000000000000000000000000000000000000008152600401610fbd90612a34565b60405180910390fd5b8181036000808673ffffffffffffffffffffffffffffffffffffffff1673ffffffffffffffffffffffffffffffffffffffff16815260200190815260200160002081905550816000808573ffffffffffffffffffffffffffffffffffffffff1673ffffffffffffffffffffffffffffffffffffffff168152602001908152602001600020600082825401925050819055508273ffffffffffffffffffffffffffffffffffffffff168473ffffffffffffffffffffffffffffffffffffffff167fddf252ad1be2c89b69c2b068fc378daa952ba7f163c4a11628f55a4df523b3ef846040516110b49190612232565b60405180910390a36110c784848461117f565b50505050565b6000806103e8836110de9190612a83565b905060006110ea611184565b905060006110f88383611e5e565b905080836111069190612466565b9350505050919050565b61111861067f565b81611121610637565b61112b9190612466565b111561116c576040517f08c379a000000000000000000000000000000000000000000000000000000000815260040161116390612b00565b60405180910390fd5b6111768282611e87565b5050565b505050565b505050565b6000803073ffffffffffffffffffffffffffffffffffffffff166318160ddd6040518163ffffffff1660e01b8152600401602060405180830381865afa1580156111d2573d6000803e3d6000fd5b505050506040513d601f19601f820116820180604052508101906111f69190612b35565b1015801561127e57506b183bdac6ae9bc1c8cc0000003073ffffffffffffffffffffffffffffffffffffffff166318160ddd6040518163ffffffff1660e01b8152600401602060405180830381865afa158015611257573d6000803e3d6000fd5b505050506040513d601f19601f8201168201806040525081019061127b9190612b35565b11155b1561128e57620249f09050611e5b565b6b183bdac6ae9bc1c8cc0000003073ffffffffffffffffffffffffffffffffffffffff166318160ddd6040518163ffffffff1660e01b8152600401602060405180830381865afa1580156112e6573d6000803e3d6000fd5b505050506040513d601f19601f8201168201806040525081019061130a9190612b35565b11801561139157506b2863c1f5cdae42f9540000003073ffffffffffffffffffffffffffffffffffffffff166318160ddd6040518163ffffffff1660e01b8152600401602060405180830381865afa15801561136a573d6000803e3d6000fd5b505050506040513d601f19601f8201168201806040525081019061138e9190612b35565b11155b156113a157620186a09050611e5b565b6b2863c1f5cdae42f9540000003073ffffffffffffffffffffffffffffffffffffffff166318160ddd6040518163ffffffff1660e01b8152600401602060405180830381865afa1580156113f9573d6000803e3d6000fd5b505050506040513d601f19601f8201168201806040525081019061141d9190612b35565b1180156114a457506b388ba924ecc0c429dc0000003073ffffffffffffffffffffffffffffffffffffffff166318160ddd6040518163ffffffff1660e01b8152600401602060405180830381865afa15801561147d573d6000803e3d6000fd5b505050506040513d601f19601f820116820180604052508101906114a19190612b35565b11155b156114b457620104289050611e5b565b6b388ba924ecc0c429dc0000003073ffffffffffffffffffffffffffffffffffffffff166318160ddd6040518163ffffffff1660e01b8152600401602060405180830381865afa15801561150c573d6000803e3d6000fd5b505050506040513d601f19601f820116820180604052508101906115309190612b35565b1180156115b757506b48b390540bd3455a640000003073ffffffffffffffffffffffffffffffffffffffff166318160ddd6040518163ffffffff1660e01b8152600401602060405180830381865afa158015611590573d6000803e3d6000fd5b505050506040513d601f19601f820116820180604052508101906115b49190612b35565b11155b156115c65761ad709050611e5b565b6b48b390540bd3455a640000003073ffffffffffffffffffffffffffffffffffffffff166318160ddd6040518163ffffffff1660e01b8152600401602060405180830381865afa15801561161e573d6000803e3d6000fd5b505050506040513d601f19601f820116820180604052508101906116429190612b35565b1180156116c957506b58db77832ae5c68aec0000003073ffffffffffffffffffffffffffffffffffffffff166318160ddd6040518163ffffffff1660e01b8152600401602060405180830381865afa1580156116a2573d6000803e3d6000fd5b505050506040513d601f19601f820116820180604052508101906116c69190612b35565b11155b156116d8576173a09050611e5b565b6b58db77832ae5c68aec0000003073ffffffffffffffffffffffffffffffffffffffff166318160ddd6040518163ffffffff1660e01b8152600401602060405180830381865afa158015611730573d6000803e3d6000fd5b505050506040513d601f19601f820116820180604052508101906117549190612b35565b1180156117db57506b69035eb249f847bb740000003073ffffffffffffffffffffffffffffffffffffffff166318160ddd6040518163ffffffff1660e01b8152600401602060405180830381865afa1580156117b4573d6000803e3d6000fd5b505050506040513d601f19601f820116820180604052508101906117d89190612b35565b11155b156117ea57614cf49050611e5b565b6b69035eb249f847bb740000003073ffffffffffffffffffffffffffffffffffffffff166318160ddd6040518163ffffffff1660e01b8152600401602060405180830381865afa158015611842573d6000803e3d6000fd5b505050506040513d601f19601f820116820180604052508101906118669190612b35565b1180156118ed57506b71175249d9818853b80000003073ffffffffffffffffffffffffffffffffffffffff166318160ddd6040518163ffffffff1660e01b8152600401602060405180830381865afa1580156118c6573d6000803e3d6000fd5b505050506040513d601f19601f820116820180604052508101906118ea9190612b35565b11155b156118fc5761332c9050611e5b565b6b71175249d9818853b80000003073ffffffffffffffffffffffffffffffffffffffff166318160ddd6040518163ffffffff1660e01b8152600401602060405180830381865afa158015611954573d6000803e3d6000fd5b505050506040513d601f19601f820116820180604052508101906119789190612b35565b1180156119ff57506b792b45e1690ac8ebfc0000003073ffffffffffffffffffffffffffffffffffffffff166318160ddd6040518163ffffffff1660e01b8152600401602060405180830381865afa1580156119d8573d6000803e3d6000fd5b505050506040513d601f19601f820116820180604052508101906119fc9190612b35565b11155b15611a0e576121fc9050611e5b565b6b792b45e1690ac8ebfc0000003073ffffffffffffffffffffffffffffffffffffffff166318160ddd6040518163ffffffff1660e01b8152600401602060405180830381865afa158015611a66573d6000803e3d6000fd5b505050506040513d601f19601f82011682018060405250810190611a8a9190612b35565b118015611b1157506b813f3978f8940984400000003073ffffffffffffffffffffffffffffffffffffffff166318160ddd6040518163ffffffff1660e01b8152600401602060405180830381865afa158015611aea573d6000803e3d6000fd5b505050506040513d601f19601f82011682018060405250810190611b0e9190612b35565b11155b15611b20576116a89050611e5b565b6b813f3978f8940984400000003073ffffffffffffffffffffffffffffffffffffffff166318160ddd6040518163ffffffff1660e01b8152600401602060405180830381865afa158015611b78573d6000803e3d6000fd5b505050506040513d601f19601f82011682018060405250810190611b9c9190612b35565b118015611c2357506b89532d10881d4a1c840000003073ffffffffffffffffffffffffffffffffffffffff166318160ddd6040518163ffffffff1660e01b8152600401602060405180830381865afa158015611bfc573d6000803e3d6000fd5b505050506040513d601f19601f82011682018060405250810190611c209190612b35565b11155b15611c3257610ed89050611e5b565b6b89532d10881d4a1c840000003073ffffffffffffffffffffffffffffffffffffffff166318160ddd6040518163ffffffff1660e01b8152600401602060405180830381865afa158015611c8a573d6000803e3d6000fd5b505050506040513d601f19601f82011682018060405250810190611cae9190612b35565b118015611d3557506b916720a817a68ab4c80000003073ffffffffffffffffffffffffffffffffffffffff166318160ddd6040518163ffffffff1660e01b8152600401602060405180830381865afa158015611d0e573d6000803e3d6000fd5b505050506040513d601f19601f82011682018060405250810190611d329190612b35565b11155b15611d44576109c49050611e5b565b6b916720a817a68ab4c80000003073ffffffffffffffffffffffffffffffffffffffff166318160ddd6040518163ffffffff1660e01b8152600401602060405180830381865afa158015611d9c573d6000803e3d6000fd5b505050506040513d601f19601f82011682018060405250810190611dc09190612b35565b118015611e4757506b997b143fa72fcb4d0c0000003073ffffffffffffffffffffffffffffffffffffffff166318160ddd6040518163ffffffff1660e01b8152600401602060405180830381865afa158015611e20573d6000803e3d6000fd5b505050506040513d601f19601f82011682018060405250810190611e449190612b35565b11155b15611e56576106a49050611e5b565b600090505b90565b60006127108263ffffffff1684611e759190612b62565b611e7f9190612a83565b905092915050565b600073ffffffffffffffffffffffffffffffffffffffff168273ffffffffffffffffffffffffffffffffffffffff1603611ef6576040517f08c379a0000000000000000000000000000000000000000000000000000000008152600401611eed90612bf0565b60405180910390fd5b611f026000838361117a565b8060026000828254611f149190612466565b92505081905550806000808473ffffffffffffffffffffffffffffffffffffffff1673ffffffffffffffffffffffffffffffffffffffff168152602001908152602001600020600082825401925050819055508173ffffffffffffffffffffffffffffffffffffffff16600073ffffffffffffffffffffffffffffffffffffffff167fddf252ad1be2c89b69c2b068fc378daa952ba7f163c4a11628f55a4df523b3ef83604051611fc59190612232565b60405180910390a3611fd96000838361117f565b5050565b600080fd5b60007fffffffff0000000000000000000000000000000000000000000000000000000082169050919050565b61201781611fe2565b811461202257600080fd5b50565b6000813590506120348161200e565b92915050565b6000602082840312156120505761204f611fdd565b5b600061205e84828501612025565b91505092915050565b60008115159050919050565b61207c81612067565b82525050565b60006020820190506120976000830184612073565b92915050565b600081519050919050565b600082825260208201905092915050565b60005b838110156120d75780820151818401526020810190506120bc565b60008484015250505050565b6000601f19601f8301169050919050565b60006120ff8261209d565b61210981856120a8565b93506121198185602086016120b9565b612122816120e3565b840191505092915050565b6000602082019050818103600083015261214781846120f4565b905092915050565b600073ffffffffffffffffffffffffffffffffffffffff82169050919050565b600061217a8261214f565b9050919050565b61218a8161216f565b811461219557600080fd5b50565b6000813590506121a781612181565b92915050565b6000819050919050565b6121c0816121ad565b81146121cb57600080fd5b50565b6000813590506121dd816121b7565b92915050565b600080604083850312156121fa576121f9611fdd565b5b600061220885828601612198565b9250506020612219858286016121ce565b9150509250929050565b61222c816121ad565b82525050565b60006020820190506122476000830184612223565b92915050565b60008060006060848603121561226657612265611fdd565b5b600061227486828701612198565b935050602061228586828701612198565b9250506040612296868287016121ce565b9150509250925092565b600060ff82169050919050565b6122b6816122a0565b82525050565b60006020820190506122d160008301846122ad565b92915050565b6000602082840312156122ed576122ec611fdd565b5b60006122fb848285016121ce565b91505092915050565b60006020828403121561231a57612319611fdd565b5b600061232884828501612198565b91505092915050565b61233a8161216f565b82525050565b60006020820190506123556000830184612331565b92915050565b6000806040838503121561237257612371611fdd565b5b600061238085828601612198565b925050602061239185828601612198565b9150509250929050565b60006123a68261214f565b9050919050565b6123b68161239b565b82525050565b60006020820190506123d160008301846123ad565b92915050565b7f4e487b7100000000000000000000000000000000000000000000000000000000600052602260045260246000fd5b6000600282049050600182168061241e57607f821691505b602082108103612431576124306123d7565b5b50919050565b7f4e487b7100000000000000000000000000000000000000000000000000000000600052601160045260246000fd5b6000612471826121ad565b915061247c836121ad565b925082820190508082111561249457612493612437565b5b92915050565b7f58454e446f67653a2043616c6c6572206d7573742062652058454e204372797060008201527f746f2e0000000000000000000000000000000000000000000000000000000000602082015250565b60006124f66023836120a8565b91506125018261249a565b604082019050919050565b60006020820190508181036000830152612525816124e9565b9050919050565b7f58454e446f67653a20416464726573732063616e6e6f7420626520746865203060008201527f20616464726573732e0000000000000000000000000000000000000000000000602082015250565b60006125886029836120a8565b91506125938261252c565b604082019050919050565b600060208201905081810360008301526125b78161257b565b9050919050565b7f58454e446f67653a204275726e20616d6f756e7420746f6f20736d616c6c2e00600082015250565b60006125f4601f836120a8565b91506125ff826125be565b602082019050919050565b60006020820190508181036000830152612623816125e7565b9050919050565b600060408201905061263f6000830185612223565b61264c6020830184612223565b9392505050565b60006040820190506126686000830185612331565b6126756020830184612223565b9392505050565b7f45524332303a2064656372656173656420616c6c6f77616e63652062656c6f7760008201527f207a65726f000000000000000000000000000000000000000000000000000000602082015250565b60006126d86025836120a8565b91506126e38261267c565b604082019050919050565b60006020820190508181036000830152612707816126cb565b9050919050565b7f45524332303a20617070726f76652066726f6d20746865207a65726f2061646460008201527f7265737300000000000000000000000000000000000000000000000000000000602082015250565b600061276a6024836120a8565b91506127758261270e565b604082019050919050565b600060208201905081810360008301526127998161275d565b9050919050565b7f45524332303a20617070726f766520746f20746865207a65726f20616464726560008201527f7373000000000000000000000000000000000000000000000000000000000000602082015250565b60006127fc6022836120a8565b9150612807826127a0565b604082019050919050565b6000602082019050818103600083015261282b816127ef565b9050919050565b7f45524332303a20696e73756666696369656e7420616c6c6f77616e6365000000600082015250565b6000612868601d836120a8565b915061287382612832565b602082019050919050565b600060208201905081810360008301526128978161285b565b9050919050565b7f45524332303a207472616e736665722066726f6d20746865207a65726f20616460008201527f6472657373000000000000000000000000000000000000000000000000000000602082015250565b60006128fa6025836120a8565b91506129058261289e565b604082019050919050565b60006020820190508181036000830152612929816128ed565b9050919050565b7f45524332303a207472616e7366657220746f20746865207a65726f206164647260008201527f6573730000000000000000000000000000000000000000000000000000000000602082015250565b600061298c6023836120a8565b915061299782612930565b604082019050919050565b600060208201905081810360008301526129bb8161297f565b9050919050565b7f45524332303a207472616e7366657220616d6f756e742065786365656473206260008201527f616c616e63650000000000000000000000000000000000000000000000000000602082015250565b6000612a1e6026836120a8565b9150612a29826129c2565b604082019050919050565b60006020820190508181036000830152612a4d81612a11565b9050919050565b7f4e487b7100000000000000000000000000000000000000000000000000000000600052601260045260246000fd5b6000612a8e826121ad565b9150612a99836121ad565b925082612aa957612aa8612a54565b5b828204905092915050565b7f45524332304361707065643a2063617020657863656564656400000000000000600082015250565b6000612aea6019836120a8565b9150612af582612ab4565b602082019050919050565b60006020820190508181036000830152612b1981612add565b9050919050565b600081519050612b2f816121b7565b92915050565b600060208284031215612b4b57612b4a611fdd565b5b6000612b5984828501612b20565b91505092915050565b6000612b6d826121ad565b9150612b78836121ad565b9250828202612b86816121ad565b91508282048414831517612b9d57612b9c612437565b5b5092915050565b7f45524332303a206d696e7420746f20746865207a65726f206164647265737300600082015250565b6000612bda601f836120a8565b9150612be582612ba4565b602082019050919050565b60006020820190508181036000830152612c0981612bcd565b905091905056fea26469706673582212207409b32fe0959d6b1c84ea90f7f96cdb6e5eccc729c9922d7d7a382776f9840064736f6c63430008130033",
					"opcodes": "PUSH1 0xA0 PUSH1 0x40 MSTORE PUSH1 0x0 PUSH1 0x5 SSTORE CALLVALUE DUP1 ISZERO PUSH3 0x16 JUMPI PUSH1 0x0 DUP1 REVERT JUMPDEST POP PUSH12 0xA18F07D736B90BE550000000 PUSH1 0x40 MLOAD DUP1 PUSH1 0x40 ADD PUSH1 0x40 MSTORE DUP1 PUSH1 0x7 DUP2 MSTORE PUSH1 0x20 ADD PUSH32 0x58454E446F676500000000000000000000000000000000000000000000000000 DUP2 MSTORE POP PUSH1 0x40 MLOAD DUP1 PUSH1 0x40 ADD PUSH1 0x40 MSTORE DUP1 PUSH1 0x5 DUP2 MSTORE PUSH1 0x20 ADD PUSH32 0x58444F4745000000000000000000000000000000000000000000000000000000 DUP2 MSTORE POP DUP2 PUSH1 0x3 SWAP1 DUP2 PUSH3 0xA1 SWAP2 SWAP1 PUSH3 0x385 JUMP JUMPDEST POP DUP1 PUSH1 0x4 SWAP1 DUP2 PUSH3 0xB3 SWAP2 SWAP1 PUSH3 0x385 JUMP JUMPDEST POP POP POP PUSH1 0x0 DUP2 GT PUSH3 0xFC JUMPI PUSH1 0x40 MLOAD PUSH32 0x8C379A000000000000000000000000000000000000000000000000000000000 DUP2 MSTORE PUSH1 0x4 ADD PUSH3 0xF3 SWAP1 PUSH3 0x4CD JUMP JUMPDEST PUSH1 0x40 MLOAD DUP1 SWAP2 SUB SWAP1 REVERT JUMPDEST DUP1 PUSH1 0x80 DUP2 DUP2 MSTORE POP POP POP PUSH3 0x4EF JUMP JUMPDEST PUSH1 0x0 DUP2 MLOAD SWAP1 POP SWAP2 SWAP1 POP JUMP JUMPDEST PUSH32 0x4E487B7100000000000000000000000000000000000000000000000000000000 PUSH1 0x0 MSTORE PUSH1 0x41 PUSH1 0x4 MSTORE PUSH1 0x24 PUSH1 0x0 REVERT JUMPDEST PUSH32 0x4E487B7100000000000000000000000000000000000000000000000000000000 PUSH1 0x0 MSTORE PUSH1 0x22 PUSH1 0x4 MSTORE PUSH1 0x24 PUSH1 0x0 REVERT JUMPDEST PUSH1 0x0 PUSH1 0x2 DUP3 DIV SWAP1 POP PUSH1 0x1 DUP3 AND DUP1 PUSH3 0x18D JUMPI PUSH1 0x7F DUP3 AND SWAP2 POP JUMPDEST PUSH1 0x20 DUP3 LT DUP2 SUB PUSH3 0x1A3 JUMPI PUSH3 0x1A2 PUSH3 0x145 JUMP JUMPDEST JUMPDEST POP SWAP2 SWAP1 POP JUMP JUMPDEST PUSH1 0x0 DUP2 SWAP1 POP DUP2 PUSH1 0x0 MSTORE PUSH1 0x20 PUSH1 0x0 KECCAK256 SWAP1 POP SWAP2 SWAP1 POP JUMP JUMPDEST PUSH1 0x0 PUSH1 0x20 PUSH1 0x1F DUP4 ADD DIV SWAP1 POP SWAP2 SWAP1 POP JUMP JUMPDEST PUSH1 0x0 DUP3 DUP3 SHL SWAP1 POP SWAP3 SWAP2 POP POP JUMP JUMPDEST PUSH1 0x0 PUSH1 0x8 DUP4 MUL PUSH3 0x20D PUSH32 0xFFFFFFFFFFFFFFFFFFFFFFFFFFFFFFFFFFFFFFFFFFFFFFFFFFFFFFFFFFFFFFFF DUP3 PUSH3 0x1CE JUMP JUMPDEST PUSH3 0x219 DUP7 DUP4 PUSH3 0x1CE JUMP JUMPDEST SWAP6 POP DUP1 NOT DUP5 AND SWAP4 POP DUP1 DUP7 AND DUP5 OR SWAP3 POP POP POP SWAP4 SWAP3 POP POP POP JUMP JUMPDEST PUSH1 0x0 DUP2 SWAP1 POP SWAP2 SWAP1 POP JUMP JUMPDEST PUSH1 0x0 DUP2 SWAP1 POP SWAP2 SWAP1 POP JUMP JUMPDEST PUSH1 0x0 PUSH3 0x266 PUSH3 0x260 PUSH3 0x25A DUP5 PUSH3 0x231 JUMP JUMPDEST PUSH3 0x23B JUMP JUMPDEST PUSH3 0x231 JUMP JUMPDEST SWAP1 POP SWAP2 SWAP1 POP JUMP JUMPDEST PUSH1 0x0 DUP2 SWAP1 POP SWAP2 SWAP1 POP JUMP JUMPDEST PUSH3 0x282 DUP4 PUSH3 0x245 JUMP JUMPDEST PUSH3 0x29A PUSH3 0x291 DUP3 PUSH3 0x26D JUMP JUMPDEST DUP5 DUP5 SLOAD PUSH3 0x1DB JUMP JUMPDEST DUP3 SSTORE POP POP POP POP JUMP JUMPDEST PUSH1 0x0 SWAP1 JUMP JUMPDEST PUSH3 0x2B1 PUSH3 0x2A2 JUMP JUMPDEST PUSH3 0x2BE DUP2 DUP5 DUP5 PUSH3 0x277 JUMP JUMPDEST POP POP POP JUMP JUMPDEST JUMPDEST DUP2 DUP2 LT ISZERO PUSH3 0x2E6 JUMPI PUSH3 0x2DA PUSH1 0x0 DUP3 PUSH3 0x2A7 JUMP JUMPDEST PUSH1 0x1 DUP2 ADD SWAP1 POP PUSH3 0x2C4 JUMP JUMPDEST POP POP JUMP JUMPDEST PUSH1 0x1F DUP3 GT ISZERO PUSH3 0x335 JUMPI PUSH3 0x2FF DUP2 PUSH3 0x1A9 JUMP JUMPDEST PUSH3 0x30A DUP5 PUSH3 0x1BE JUMP JUMPDEST DUP2 ADD PUSH1 0x20 DUP6 LT ISZERO PUSH3 0x31A JUMPI DUP2 SWAP1 POP JUMPDEST PUSH3 0x332 PUSH3 0x329 DUP6 PUSH3 0x1BE JUMP JUMPDEST DUP4 ADD DUP3 PUSH3 0x2C3 JUMP JUMPDEST POP POP JUMPDEST POP POP POP JUMP JUMPDEST PUSH1 0x0 DUP3 DUP3 SHR SWAP1 POP SWAP3 SWAP2 POP POP JUMP JUMPDEST PUSH1 0x0 PUSH3 0x35A PUSH1 0x0 NOT DUP5 PUSH1 0x8 MUL PUSH3 0x33A JUMP JUMPDEST NOT DUP1 DUP4 AND SWAP2 POP POP SWAP3 SWAP2 POP POP JUMP JUMPDEST PUSH1 0x0 PUSH3 0x375 DUP4 DUP4 PUSH3 0x347 JUMP JUMPDEST SWAP2 POP DUP3 PUSH1 0x2 MUL DUP3 OR SWAP1 POP SWAP3 SWAP2 POP POP JUMP JUMPDEST PUSH3 0x390 DUP3 PUSH3 0x10B JUMP JUMPDEST PUSH8 0xFFFFFFFFFFFFFFFF DUP2 GT ISZERO PUSH3 0x3AC JUMPI PUSH3 0x3AB PUSH3 0x116 JUMP JUMPDEST JUMPDEST PUSH3 0x3B8 DUP3 SLOAD PUSH3 0x174 JUMP JUMPDEST PUSH3 0x3C5 DUP3 DUP3 DUP6 PUSH3 0x2EA JUMP JUMPDEST PUSH1 0x0 PUSH1 0x20 SWAP1 POP PUSH1 0x1F DUP4 GT PUSH1 0x1 DUP2 EQ PUSH3 0x3FD JUMPI PUSH1 0x0 DUP5 ISZERO PUSH3 0x3E8 JUMPI DUP3 DUP8 ADD MLOAD SWAP1 POP JUMPDEST PUSH3 0x3F4 DUP6 DUP3 PUSH3 0x367 JUMP JUMPDEST DUP7 SSTORE POP PUSH3 0x464 JUMP JUMPDEST PUSH1 0x1F NOT DUP5 AND PUSH3 0x40D DUP7 PUSH3 0x1A9 JUMP JUMPDEST PUSH1 0x0 JUMPDEST DUP3 DUP2 LT ISZERO PUSH3 0x437 JUMPI DUP5 DUP10 ADD MLOAD DUP3 SSTORE PUSH1 0x1 DUP3 ADD SWAP2 POP PUSH1 0x20 DUP6 ADD SWAP5 POP PUSH1 0x20 DUP2 ADD SWAP1 POP PUSH3 0x410 JUMP JUMPDEST DUP7 DUP4 LT ISZERO PUSH3 0x457 JUMPI DUP5 DUP10 ADD MLOAD PUSH3 0x453 PUSH1 0x1F DUP10 AND DUP3 PUSH3 0x347 JUMP JUMPDEST DUP4 SSTORE POP JUMPDEST PUSH1 0x1 PUSH1 0x2 DUP9 MUL ADD DUP9 SSTORE POP POP POP JUMPDEST POP POP POP POP POP POP JUMP JUMPDEST PUSH1 0x0 DUP3 DUP3 MSTORE PUSH1 0x20 DUP3 ADD SWAP1 POP SWAP3 SWAP2 POP POP JUMP JUMPDEST PUSH32 0x45524332304361707065643A2063617020697320300000000000000000000000 PUSH1 0x0 DUP3 ADD MSTORE POP JUMP JUMPDEST PUSH1 0x0 PUSH3 0x4B5 PUSH1 0x15 DUP4 PUSH3 0x46C JUMP JUMPDEST SWAP2 POP PUSH3 0x4C2 DUP3 PUSH3 0x47D JUMP JUMPDEST PUSH1 0x20 DUP3 ADD SWAP1 POP SWAP2 SWAP1 POP JUMP JUMPDEST PUSH1 0x0 PUSH1 0x20 DUP3 ADD SWAP1 POP DUP2 DUP2 SUB PUSH1 0x0 DUP4 ADD MSTORE PUSH3 0x4E8 DUP2 PUSH3 0x4A6 JUMP JUMPDEST SWAP1 POP SWAP2 SWAP1 POP JUMP JUMPDEST PUSH1 0x80 MLOAD PUSH2 0x2C46 PUSH3 0x50B PUSH1 0x0 CODECOPY PUSH1 0x0 PUSH2 0x683 ADD MSTORE PUSH2 0x2C46 PUSH1 0x0 RETURN INVALID PUSH1 0x80 PUSH1 0x40 MSTORE PUSH1 0x4 CALLDATASIZE LT PUSH2 0x114 JUMPI PUSH1 0x0 CALLDATALOAD PUSH1 0xE0 SHR DUP1 PUSH4 0x543746B1 GT PUSH2 0xA0 JUMPI DUP1 PUSH4 0xA457C2D7 GT PUSH2 0x64 JUMPI DUP1 PUSH4 0xA457C2D7 EQ PUSH2 0x3BC JUMPI DUP1 PUSH4 0xA9059CBB EQ PUSH2 0x3F9 JUMPI DUP1 PUSH4 0xBC1D089A EQ PUSH2 0x436 JUMPI DUP1 PUSH4 0xDD62ED3E EQ PUSH2 0x461 JUMPI DUP1 PUSH4 0xF8E726D1 EQ PUSH2 0x49E JUMPI PUSH2 0x114 JUMP JUMPDEST DUP1 PUSH4 0x543746B1 EQ PUSH2 0x2E4 JUMPI DUP1 PUSH4 0x579436FC EQ PUSH2 0x30D JUMPI DUP1 PUSH4 0x6630A05E EQ PUSH2 0x338 JUMPI DUP1 PUSH4 0x70A08231 EQ PUSH2 0x354 JUMPI DUP1 PUSH4 0x95D89B41 EQ PUSH2 0x391 JUMPI PUSH2 0x114 JUMP JUMPDEST DUP1 PUSH4 0x1A6CEF14 GT PUSH2 0xE7 JUMPI DUP1 PUSH4 0x1A6CEF14 EQ PUSH2 0x1E9 JUMPI DUP1 PUSH4 0x23B872DD EQ PUSH2 0x214 JUMPI DUP1 PUSH4 0x313CE567 EQ PUSH2 0x251 JUMPI DUP1 PUSH4 0x355274EA EQ PUSH2 0x27C JUMPI DUP1 PUSH4 0x39509351 EQ PUSH2 0x2A7 JUMPI PUSH2 0x114 JUMP JUMPDEST DUP1 PUSH4 0x1FFC9A7 EQ PUSH2 0x119 JUMPI DUP1 PUSH4 0x6FDDE03 EQ PUSH2 0x156 JUMPI DUP1 PUSH4 0x95EA7B3 EQ PUSH2 0x181 JUMPI DUP1 PUSH4 0x18160DDD EQ PUSH2 0x1BE JUMPI JUMPDEST PUSH1 0x0 DUP1 REVERT JUMPDEST CALLVALUE DUP1 ISZERO PUSH2 0x125 JUMPI PUSH1 0x0 DUP1 REVERT JUMPDEST POP PUSH2 0x140 PUSH1 0x4 DUP1 CALLDATASIZE SUB DUP2 ADD SWAP1 PUSH2 0x13B SWAP2 SWAP1 PUSH2 0x203A JUMP JUMPDEST PUSH2 0x4C9 JUMP JUMPDEST PUSH1 0x40 MLOAD PUSH2 0x14D SWAP2 SWAP1 PUSH2 0x2082 JUMP JUMPDEST PUSH1 0x40 MLOAD DUP1 SWAP2 SUB SWAP1 RETURN JUMPDEST CALLVALUE DUP1 ISZERO PUSH2 0x162 JUMPI PUSH1 0x0 DUP1 REVERT JUMPDEST POP PUSH2 0x16B PUSH2 0x582 JUMP JUMPDEST PUSH1 0x40 MLOAD PUSH2 0x178 SWAP2 SWAP1 PUSH2 0x212D JUMP JUMPDEST PUSH1 0x40 MLOAD DUP1 SWAP2 SUB SWAP1 RETURN JUMPDEST CALLVALUE DUP1 ISZERO PUSH2 0x18D JUMPI PUSH1 0x0 DUP1 REVERT JUMPDEST POP PUSH2 0x1A8 PUSH1 0x4 DUP1 CALLDATASIZE SUB DUP2 ADD SWAP1 PUSH2 0x1A3 SWAP2 SWAP1 PUSH2 0x21E3 JUMP JUMPDEST PUSH2 0x614 JUMP JUMPDEST PUSH1 0x40 MLOAD PUSH2 0x1B5 SWAP2 SWAP1 PUSH2 0x2082 JUMP JUMPDEST PUSH1 0x40 MLOAD DUP1 SWAP2 SUB SWAP1 RETURN JUMPDEST CALLVALUE DUP1 ISZERO PUSH2 0x1CA JUMPI PUSH1 0x0 DUP1 REVERT JUMPDEST POP PUSH2 0x1D3 PUSH2 0x637 JUMP JUMPDEST PUSH1 0x40 MLOAD PUSH2 0x1E0 SWAP2 SWAP1 PUSH2 0x2232 JUMP JUMPDEST PUSH1 0x40 MLOAD DUP1 SWAP2 SUB SWAP1 RETURN JUMPDEST CALLVALUE DUP1 ISZERO PUSH2 0x1F5 JUMPI PUSH1 0x0 DUP1 REVERT JUMPDEST POP PUSH2 0x1FE PUSH2 0x641 JUMP JUMPDEST PUSH1 0x40 MLOAD PUSH2 0x20B SWAP2 SWAP1 PUSH2 0x2232 JUMP JUMPDEST PUSH1 0x40 MLOAD DUP1 SWAP2 SUB SWAP1 RETURN JUMPDEST CALLVALUE DUP1 ISZERO PUSH2 0x220 JUMPI PUSH1 0x0 DUP1 REVERT JUMPDEST POP PUSH2 0x23B PUSH1 0x4 DUP1 CALLDATASIZE SUB DUP2 ADD SWAP1 PUSH2 0x236 SWAP2 SWAP1 PUSH2 0x224D JUMP JUMPDEST PUSH2 0x647 JUMP JUMPDEST PUSH1 0x40 MLOAD PUSH2 0x248 SWAP2 SWAP1 PUSH2 0x2082 JUMP JUMPDEST PUSH1 0x40 MLOAD DUP1 SWAP2 SUB SWAP1 RETURN JUMPDEST CALLVALUE DUP1 ISZERO PUSH2 0x25D JUMPI PUSH1 0x0 DUP1 REVERT JUMPDEST POP PUSH2 0x266 PUSH2 0x676 JUMP JUMPDEST PUSH1 0x40 MLOAD PUSH2 0x273 SWAP2 SWAP1 PUSH2 0x22BC JUMP JUMPDEST PUSH1 0x40 MLOAD DUP1 SWAP2 SUB SWAP1 RETURN JUMPDEST CALLVALUE DUP1 ISZERO PUSH2 0x288 JUMPI PUSH1 0x0 DUP1 REVERT JUMPDEST POP PUSH2 0x291 PUSH2 0x67F JUMP JUMPDEST PUSH1 0x40 MLOAD PUSH2 0x29E SWAP2 SWAP1 PUSH2 0x2232 JUMP JUMPDEST PUSH1 0x40 MLOAD DUP1 SWAP2 SUB SWAP1 RETURN JUMPDEST CALLVALUE DUP1 ISZERO PUSH2 0x2B3 JUMPI PUSH1 0x0 DUP1 REVERT JUMPDEST POP PUSH2 0x2CE PUSH1 0x4 DUP1 CALLDATASIZE SUB DUP2 ADD SWAP1 PUSH2 0x2C9 SWAP2 SWAP1 PUSH2 0x21E3 JUMP JUMPDEST PUSH2 0x6A7 JUMP JUMPDEST PUSH1 0x40 MLOAD PUSH2 0x2DB SWAP2 SWAP1 PUSH2 0x2082 JUMP JUMPDEST PUSH1 0x40 MLOAD DUP1 SWAP2 SUB SWAP1 RETURN JUMPDEST CALLVALUE DUP1 ISZERO PUSH2 0x2F0 JUMPI PUSH1 0x0 DUP1 REVERT JUMPDEST POP PUSH2 0x30B PUSH1 0x4 DUP1 CALLDATASIZE SUB DUP2 ADD SWAP1 PUSH2 0x306 SWAP2 SWAP1 PUSH2 0x21E3 JUMP JUMPDEST PUSH2 0x6DE JUMP JUMPDEST STOP JUMPDEST CALLVALUE DUP1 ISZERO PUSH2 0x319 JUMPI PUSH1 0x0 DUP1 REVERT JUMPDEST POP PUSH2 0x322 PUSH2 0x8E3 JUMP JUMPDEST PUSH1 0x40 MLOAD PUSH2 0x32F SWAP2 SWAP1 PUSH2 0x2232 JUMP JUMPDEST PUSH1 0x40 MLOAD DUP1 SWAP2 SUB SWAP1 RETURN JUMPDEST PUSH2 0x352 PUSH1 0x4 DUP1 CALLDATASIZE SUB DUP2 ADD SWAP1 PUSH2 0x34D SWAP2 SWAP1 PUSH2 0x22D7 JUMP JUMPDEST PUSH2 0x8E9 JUMP JUMPDEST STOP JUMPDEST CALLVALUE DUP1 ISZERO PUSH2 0x360 JUMPI PUSH1 0x0 DUP1 REVERT JUMPDEST POP PUSH2 0x37B PUSH1 0x4 DUP1 CALLDATASIZE SUB DUP2 ADD SWAP1 PUSH2 0x376 SWAP2 SWAP1 PUSH2 0x2304 JUMP JUMPDEST PUSH2 0x9CF JUMP JUMPDEST PUSH1 0x40 MLOAD PUSH2 0x388 SWAP2 SWAP1 PUSH2 0x2232 JUMP JUMPDEST PUSH1 0x40 MLOAD DUP1 SWAP2 SUB SWAP1 RETURN JUMPDEST CALLVALUE DUP1 ISZERO PUSH2 0x39D JUMPI PUSH1 0x0 DUP1 REVERT JUMPDEST POP PUSH2 0x3A6 PUSH2 0xA17 JUMP JUMPDEST PUSH1 0x40 MLOAD PUSH2 0x3B3 SWAP2 SWAP1 PUSH2 0x212D JUMP JUMPDEST PUSH1 0x40 MLOAD DUP1 SWAP2 SUB SWAP1 RETURN JUMPDEST CALLVALUE DUP1 ISZERO PUSH2 0x3C8 JUMPI PUSH1 0x0 DUP1 REVERT JUMPDEST POP PUSH2 0x3E3 PUSH1 0x4 DUP1 CALLDATASIZE SUB DUP2 ADD SWAP1 PUSH2 0x3DE SWAP2 SWAP1 PUSH2 0x21E3 JUMP JUMPDEST PUSH2 0xAA9 JUMP JUMPDEST PUSH1 0x40 MLOAD PUSH2 0x3F0 SWAP2 SWAP1 PUSH2 0x2082 JUMP JUMPDEST PUSH1 0x40 MLOAD DUP1 SWAP2 SUB SWAP1 RETURN JUMPDEST CALLVALUE DUP1 ISZERO PUSH2 0x405 JUMPI PUSH1 0x0 DUP1 REVERT JUMPDEST POP PUSH2 0x420 PUSH1 0x4 DUP1 CALLDATASIZE SUB DUP2 ADD SWAP1 PUSH2 0x41B SWAP2 SWAP1 PUSH2 0x21E3 JUMP JUMPDEST PUSH2 0xB20 JUMP JUMPDEST PUSH1 0x40 MLOAD PUSH2 0x42D SWAP2 SWAP1 PUSH2 0x2082 JUMP JUMPDEST PUSH1 0x40 MLOAD DUP1 SWAP2 SUB SWAP1 RETURN JUMPDEST CALLVALUE DUP1 ISZERO PUSH2 0x442 JUMPI PUSH1 0x0 DUP1 REVERT JUMPDEST POP PUSH2 0x44B PUSH2 0xB43 JUMP JUMPDEST PUSH1 0x40 MLOAD PUSH2 0x458 SWAP2 SWAP1 PUSH2 0x2340 JUMP JUMPDEST PUSH1 0x40 MLOAD DUP1 SWAP2 SUB SWAP1 RETURN JUMPDEST CALLVALUE DUP1 ISZERO PUSH2 0x46D JUMPI PUSH1 0x0 DUP1 REVERT JUMPDEST POP PUSH2 0x488 PUSH1 0x4 DUP1 CALLDATASIZE SUB DUP2 ADD SWAP1 PUSH2 0x483 SWAP2 SWAP1 PUSH2 0x235B JUMP JUMPDEST PUSH2 0xB5B JUMP JUMPDEST PUSH1 0x40 MLOAD PUSH2 0x495 SWAP2 SWAP1 PUSH2 0x2232 JUMP JUMPDEST PUSH1 0x40 MLOAD DUP1 SWAP2 SUB SWAP1 RETURN JUMPDEST CALLVALUE DUP1 ISZERO PUSH2 0x4AA JUMPI PUSH1 0x0 DUP1 REVERT JUMPDEST POP PUSH2 0x4B3 PUSH2 0xBE2 JUMP JUMPDEST PUSH1 0x40 MLOAD PUSH2 0x4C0 SWAP2 SWAP1 PUSH2 0x23BC JUMP JUMPDEST PUSH1 0x40 MLOAD DUP1 SWAP2 SUB SWAP1 RETURN JUMPDEST PUSH1 0x0 PUSH32 0x543746B100000000000000000000000000000000000000000000000000000000 PUSH28 0xFFFFFFFFFFFFFFFFFFFFFFFFFFFFFFFFFFFFFFFFFFFFFFFFFFFFFFFF NOT AND DUP3 PUSH28 0xFFFFFFFFFFFFFFFFFFFFFFFFFFFFFFFFFFFFFFFFFFFFFFFFFFFFFFFF NOT AND EQ DUP1 PUSH2 0x57B JUMPI POP PUSH4 0x1FFC9A7 PUSH1 0xE0 SHL PUSH28 0xFFFFFFFFFFFFFFFFFFFFFFFFFFFFFFFFFFFFFFFFFFFFFFFFFFFFFFFF NOT AND DUP3 PUSH28 0xFFFFFFFFFFFFFFFFFFFFFFFFFFFFFFFFFFFFFFFFFFFFFFFFFFFFFFFF NOT AND EQ JUMPDEST SWAP1 POP SWAP2 SWAP1 POP JUMP JUMPDEST PUSH1 0x60 PUSH1 0x3 DUP1 SLOAD PUSH2 0x591 SWAP1 PUSH2 0x2406 JUMP JUMPDEST DUP1 PUSH1 0x1F ADD PUSH1 0x20 DUP1 SWAP2 DIV MUL PUSH1 0x20 ADD PUSH1 0x40 MLOAD SWAP1 DUP2 ADD PUSH1 0x40 MSTORE DUP1 SWAP3 SWAP2 SWAP1 DUP2 DUP2 MSTORE PUSH1 0x20 ADD DUP3 DUP1 SLOAD PUSH2 0x5BD SWAP1 PUSH2 0x2406 JUMP JUMPDEST DUP1 ISZERO PUSH2 0x60A JUMPI DUP1 PUSH1 0x1F LT PUSH2 0x5DF JUMPI PUSH2 0x100 DUP1 DUP4 SLOAD DIV MUL DUP4 MSTORE SWAP2 PUSH1 0x20 ADD SWAP2 PUSH2 0x60A JUMP JUMPDEST DUP3 ADD SWAP2 SWAP1 PUSH1 0x0 MSTORE PUSH1 0x20 PUSH1 0x0 KECCAK256 SWAP1 JUMPDEST DUP2 SLOAD DUP2 MSTORE SWAP1 PUSH1 0x1 ADD SWAP1 PUSH1 0x20 ADD DUP1 DUP4 GT PUSH2 0x5ED JUMPI DUP3 SWAP1 SUB PUSH1 0x1F AND DUP3 ADD SWAP2 JUMPDEST POP POP POP POP POP SWAP1 POP SWAP1 JUMP JUMPDEST PUSH1 0x0 DUP1 PUSH2 0x61F PUSH2 0xBFA JUMP JUMPDEST SWAP1 POP PUSH2 0x62C DUP2 DUP6 DUP6 PUSH2 0xC02 JUMP JUMPDEST PUSH1 0x1 SWAP2 POP POP SWAP3 SWAP2 POP POP JUMP JUMPDEST PUSH1 0x0 PUSH1 0x2 SLOAD SWAP1 POP SWAP1 JUMP JUMPDEST PUSH2 0x3E8 DUP2 JUMP JUMPDEST PUSH1 0x0 DUP1 PUSH2 0x652 PUSH2 0xBFA JUMP JUMPDEST SWAP1 POP PUSH2 0x65F DUP6 DUP3 DUP6 PUSH2 0xDCB JUMP JUMPDEST PUSH2 0x66A DUP6 DUP6 DUP6 PUSH2 0xE57 JUMP JUMPDEST PUSH1 0x1 SWAP2 POP POP SWAP4 SWAP3 POP POP POP JUMP JUMPDEST PUSH1 0x0 PUSH1 0x12 SWAP1 POP SWAP1 JUMP JUMPDEST PUSH1 0x0 PUSH32 0x0 SWAP1 POP SWAP1 JUMP JUMPDEST PUSH1 0x0 DUP1 PUSH2 0x6B2 PUSH2 0xBFA JUMP JUMPDEST SWAP1 POP PUSH2 0x6D3 DUP2 DUP6 DUP6 PUSH2 0x6C4 DUP6 DUP10 PUSH2 0xB5B JUMP JUMPDEST PUSH2 0x6CE SWAP2 SWAP1 PUSH2 0x2466 JUMP JUMPDEST PUSH2 0xC02 JUMP JUMPDEST PUSH1 0x1 SWAP2 POP POP SWAP3 SWAP2 POP POP JUMP JUMPDEST PUSH20 0xD342D63466B520D8D331CAFF863900D402AA5B00 PUSH20 0xFFFFFFFFFFFFFFFFFFFFFFFFFFFFFFFFFFFFFFFF AND PUSH2 0x711 PUSH2 0xBFA JUMP JUMPDEST PUSH20 0xFFFFFFFFFFFFFFFFFFFFFFFFFFFFFFFFFFFFFFFF AND EQ PUSH2 0x767 JUMPI PUSH1 0x40 MLOAD PUSH32 0x8C379A000000000000000000000000000000000000000000000000000000000 DUP2 MSTORE PUSH1 0x4 ADD PUSH2 0x75E SWAP1 PUSH2 0x250C JUMP JUMPDEST PUSH1 0x40 MLOAD DUP1 SWAP2 SUB SWAP1 REVERT JUMPDEST PUSH1 0x0 PUSH20 0xFFFFFFFFFFFFFFFFFFFFFFFFFFFFFFFFFFFFFFFF AND DUP3 PUSH20 0xFFFFFFFFFFFFFFFFFFFFFFFFFFFFFFFFFFFFFFFF AND SUB PUSH2 0x7D6 JUMPI PUSH1 0x40 MLOAD PUSH32 0x8C379A000000000000000000000000000000000000000000000000000000000 DUP2 MSTORE PUSH1 0x4 ADD PUSH2 0x7CD SWAP1 PUSH2 0x259E JUMP JUMPDEST PUSH1 0x40 MLOAD DUP1 SWAP2 SUB SWAP1 REVERT JUMPDEST PUSH3 0x186A0 DUP2 LT ISZERO PUSH2 0x81C JUMPI PUSH1 0x40 MLOAD PUSH32 0x8C379A000000000000000000000000000000000000000000000000000000000 DUP2 MSTORE PUSH1 0x4 ADD PUSH2 0x813 SWAP1 PUSH2 0x260A JUMP JUMPDEST PUSH1 0x40 MLOAD DUP1 SWAP2 SUB SWAP1 REVERT JUMPDEST DUP1 PUSH1 0x5 PUSH1 0x0 DUP3 DUP3 SLOAD PUSH2 0x82E SWAP2 SWAP1 PUSH2 0x2466 JUMP JUMPDEST SWAP3 POP POP DUP2 SWAP1 SSTORE POP PUSH1 0x0 PUSH2 0x840 DUP3 PUSH2 0x10CD JUMP JUMPDEST SWAP1 POP PUSH2 0x84C DUP4 DUP3 PUSH2 0x1110 JUMP JUMPDEST ADDRESS PUSH20 0xFFFFFFFFFFFFFFFFFFFFFFFFFFFFFFFFFFFFFFFF AND PUSH20 0xD342D63466B520D8D331CAFF863900D402AA5B00 PUSH20 0xFFFFFFFFFFFFFFFFFFFFFFFFFFFFFFFFFFFFFFFF AND DUP5 PUSH20 0xFFFFFFFFFFFFFFFFFFFFFFFFFFFFFFFFFFFFFFFF AND PUSH32 0xDA4C370E4F539B8E19D66144CAD73D70FBF440A544E56FF38E28E38ED47801A8 DUP6 DUP6 PUSH1 0x40 MLOAD PUSH2 0x8D6 SWAP3 SWAP2 SWAP1 PUSH2 0x262A JUMP JUMPDEST PUSH1 0x40 MLOAD DUP1 SWAP2 SUB SWAP1 LOG4 POP POP POP JUMP JUMPDEST PUSH1 0x5 SLOAD DUP2 JUMP JUMPDEST PUSH20 0xC475B02C2E2D6D2DD20C1D8C6FB9CF9A4D23165E PUSH20 0xFFFFFFFFFFFFFFFFFFFFFFFFFFFFFFFFFFFFFFFF AND PUSH2 0x8FC CALLVALUE SWAP1 DUP2 ISZERO MUL SWAP1 PUSH1 0x40 MLOAD PUSH1 0x0 PUSH1 0x40 MLOAD DUP1 DUP4 SUB DUP2 DUP6 DUP9 DUP9 CALL SWAP4 POP POP POP POP ISZERO DUP1 ISZERO PUSH2 0x943 JUMPI RETURNDATASIZE PUSH1 0x0 DUP1 RETURNDATACOPY RETURNDATASIZE PUSH1 0x0 REVERT JUMPDEST POP PUSH20 0xD342D63466B520D8D331CAFF863900D402AA5B00 PUSH20 0xFFFFFFFFFFFFFFFFFFFFFFFFFFFFFFFFFFFFFFFF AND PUSH4 0x9DC29FAC PUSH2 0x97C PUSH2 0xBFA JUMP JUMPDEST DUP4 PUSH1 0x40 MLOAD DUP4 PUSH4 0xFFFFFFFF AND PUSH1 0xE0 SHL DUP2 MSTORE PUSH1 0x4 ADD PUSH2 0x99A SWAP3 SWAP2 SWAP1 PUSH2 0x2653 JUMP JUMPDEST PUSH1 0x0 PUSH1 0x40 MLOAD DUP1 DUP4 SUB DUP2 PUSH1 0x0 DUP8 DUP1 EXTCODESIZE ISZERO DUP1 ISZERO PUSH2 0x9B4 JUMPI PUSH1 0x0 DUP1 REVERT JUMPDEST POP GAS CALL ISZERO DUP1 ISZERO PUSH2 0x9C8 JUMPI RETURNDATASIZE PUSH1 0x0 DUP1 RETURNDATACOPY RETURNDATASIZE PUSH1 0x0 REVERT JUMPDEST POP POP POP POP POP JUMP JUMPDEST PUSH1 0x0 DUP1 PUSH1 0x0 DUP4 PUSH20 0xFFFFFFFFFFFFFFFFFFFFFFFFFFFFFFFFFFFFFFFF AND PUSH20 0xFFFFFFFFFFFFFFFFFFFFFFFFFFFFFFFFFFFFFFFF AND DUP2 MSTORE PUSH1 0x20 ADD SWAP1 DUP2 MSTORE PUSH1 0x20 ADD PUSH1 0x0 KECCAK256 SLOAD SWAP1 POP SWAP2 SWAP1 POP JUMP JUMPDEST PUSH1 0x60 PUSH1 0x4 DUP1 SLOAD PUSH2 0xA26 SWAP1 PUSH2 0x2406 JUMP JUMPDEST DUP1 PUSH1 0x1F ADD PUSH1 0x20 DUP1 SWAP2 DIV MUL PUSH1 0x20 ADD PUSH1 0x40 MLOAD SWAP1 DUP2 ADD PUSH1 0x40 MSTORE DUP1 SWAP3 SWAP2 SWAP1 DUP2 DUP2 MSTORE PUSH1 0x20 ADD DUP3 DUP1 SLOAD PUSH2 0xA52 SWAP1 PUSH2 0x2406 JUMP JUMPDEST DUP1 ISZERO PUSH2 0xA9F JUMPI DUP1 PUSH1 0x1F LT PUSH2 0xA74 JUMPI PUSH2 0x100 DUP1 DUP4 SLOAD DIV MUL DUP4 MSTORE SWAP2 PUSH1 0x20 ADD SWAP2 PUSH2 0xA9F JUMP JUMPDEST DUP3 ADD SWAP2 SWAP1 PUSH1 0x0 MSTORE PUSH1 0x20 PUSH1 0x0 KECCAK256 SWAP1 JUMPDEST DUP2 SLOAD DUP2 MSTORE SWAP1 PUSH1 0x1 ADD SWAP1 PUSH1 0x20 ADD DUP1 DUP4 GT PUSH2 0xA82 JUMPI DUP3 SWAP1 SUB PUSH1 0x1F AND DUP3 ADD SWAP2 JUMPDEST POP POP POP POP POP SWAP1 POP SWAP1 JUMP JUMPDEST PUSH1 0x0 DUP1 PUSH2 0xAB4 PUSH2 0xBFA JUMP JUMPDEST SWAP1 POP PUSH1 0x0 PUSH2 0xAC2 DUP3 DUP7 PUSH2 0xB5B JUMP JUMPDEST SWAP1 POP DUP4 DUP2 LT ISZERO PUSH2 0xB07 JUMPI PUSH1 0x40 MLOAD PUSH32 0x8C379A000000000000000000000000000000000000000000000000000000000 DUP2 MSTORE PUSH1 0x4 ADD PUSH2 0xAFE SWAP1 PUSH2 0x26EE JUMP JUMPDEST PUSH1 0x40 MLOAD DUP1 SWAP2 SUB SWAP1 REVERT JUMPDEST PUSH2 0xB14 DUP3 DUP7 DUP7 DUP5 SUB PUSH2 0xC02 JUMP JUMPDEST PUSH1 0x1 SWAP3 POP POP POP SWAP3 SWAP2 POP POP JUMP JUMPDEST PUSH1 0x0 DUP1 PUSH2 0xB2B PUSH2 0xBFA JUMP JUMPDEST SWAP1 POP PUSH2 0xB38 DUP2 DUP6 DUP6 PUSH2 0xE57 JUMP JUMPDEST PUSH1 0x1 SWAP2 POP POP SWAP3 SWAP2 POP POP JUMP JUMPDEST PUSH20 0xD342D63466B520D8D331CAFF863900D402AA5B00 DUP2 JUMP JUMPDEST PUSH1 0x0 PUSH1 0x1 PUSH1 0x0 DUP5 PUSH20 0xFFFFFFFFFFFFFFFFFFFFFFFFFFFFFFFFFFFFFFFF AND PUSH20 0xFFFFFFFFFFFFFFFFFFFFFFFFFFFFFFFFFFFFFFFF AND DUP2 MSTORE PUSH1 0x20 ADD SWAP1 DUP2 MSTORE PUSH1 0x20 ADD PUSH1 0x0 KECCAK256 PUSH1 0x0 DUP4 PUSH20 0xFFFFFFFFFFFFFFFFFFFFFFFFFFFFFFFFFFFFFFFF AND PUSH20 0xFFFFFFFFFFFFFFFFFFFFFFFFFFFFFFFFFFFFFFFF AND DUP2 MSTORE PUSH1 0x20 ADD SWAP1 DUP2 MSTORE PUSH1 0x20 ADD PUSH1 0x0 KECCAK256 SLOAD SWAP1 POP SWAP3 SWAP2 POP POP JUMP JUMPDEST PUSH20 0xC475B02C2E2D6D2DD20C1D8C6FB9CF9A4D23165E DUP2 JUMP JUMPDEST PUSH1 0x0 CALLER SWAP1 POP SWAP1 JUMP JUMPDEST PUSH1 0x0 PUSH20 0xFFFFFFFFFFFFFFFFFFFFFFFFFFFFFFFFFFFFFFFF AND DUP4 PUSH20 0xFFFFFFFFFFFFFFFFFFFFFFFFFFFFFFFFFFFFFFFF AND SUB PUSH2 0xC71 JUMPI PUSH1 0x40 MLOAD PUSH32 0x8C379A000000000000000000000000000000000000000000000000000000000 DUP2 MSTORE PUSH1 0x4 ADD PUSH2 0xC68 SWAP1 PUSH2 0x2780 JUMP JUMPDEST PUSH1 0x40 MLOAD DUP1 SWAP2 SUB SWAP1 REVERT JUMPDEST PUSH1 0x0 PUSH20 0xFFFFFFFFFFFFFFFFFFFFFFFFFFFFFFFFFFFFFFFF AND DUP3 PUSH20 0xFFFFFFFFFFFFFFFFFFFFFFFFFFFFFFFFFFFFFFFF AND SUB PUSH2 0xCE0 JUMPI PUSH1 0x40 MLOAD PUSH32 0x8C379A000000000000000000000000000000000000000000000000000000000 DUP2 MSTORE PUSH1 0x4 ADD PUSH2 0xCD7 SWAP1 PUSH2 0x2812 JUMP JUMPDEST PUSH1 0x40 MLOAD DUP1 SWAP2 SUB SWAP1 REVERT JUMPDEST DUP1 PUSH1 0x1 PUSH1 0x0 DUP6 PUSH20 0xFFFFFFFFFFFFFFFFFFFFFFFFFFFFFFFFFFFFFFFF AND PUSH20 0xFFFFFFFFFFFFFFFFFFFFFFFFFFFFFFFFFFFFFFFF AND DUP2 MSTORE PUSH1 0x20 ADD SWAP1 DUP2 MSTORE PUSH1 0x20 ADD PUSH1 0x0 KECCAK256 PUSH1 0x0 DUP5 PUSH20 0xFFFFFFFFFFFFFFFFFFFFFFFFFFFFFFFFFFFFFFFF AND PUSH20 0xFFFFFFFFFFFFFFFFFFFFFFFFFFFFFFFFFFFFFFFF AND DUP2 MSTORE PUSH1 0x20 ADD SWAP1 DUP2 MSTORE PUSH1 0x20 ADD PUSH1 0x0 KECCAK256 DUP2 SWAP1 SSTORE POP DUP2 PUSH20 0xFFFFFFFFFFFFFFFFFFFFFFFFFFFFFFFFFFFFFFFF AND DUP4 PUSH20 0xFFFFFFFFFFFFFFFFFFFFFFFFFFFFFFFFFFFFFFFF AND PUSH32 0x8C5BE1E5EBEC7D5BD14F71427D1E84F3DD0314C0F7B2291E5B200AC8C7C3B925 DUP4 PUSH1 0x40 MLOAD PUSH2 0xDBE SWAP2 SWAP1 PUSH2 0x2232 JUMP JUMPDEST PUSH1 0x40 MLOAD DUP1 SWAP2 SUB SWAP1 LOG3 POP POP POP JUMP JUMPDEST PUSH1 0x0 PUSH2 0xDD7 DUP5 DUP5 PUSH2 0xB5B JUMP JUMPDEST SWAP1 POP PUSH32 0xFFFFFFFFFFFFFFFFFFFFFFFFFFFFFFFFFFFFFFFFFFFFFFFFFFFFFFFFFFFFFFFF DUP2 EQ PUSH2 0xE51 JUMPI DUP2 DUP2 LT ISZERO PUSH2 0xE43 JUMPI PUSH1 0x40 MLOAD PUSH32 0x8C379A000000000000000000000000000000000000000000000000000000000 DUP2 MSTORE PUSH1 0x4 ADD PUSH2 0xE3A SWAP1 PUSH2 0x287E JUMP JUMPDEST PUSH1 0x40 MLOAD DUP1 SWAP2 SUB SWAP1 REVERT JUMPDEST PUSH2 0xE50 DUP5 DUP5 DUP5 DUP5 SUB PUSH2 0xC02 JUMP JUMPDEST JUMPDEST POP POP POP POP JUMP JUMPDEST PUSH1 0x0 PUSH20 0xFFFFFFFFFFFFFFFFFFFFFFFFFFFFFFFFFFFFFFFF AND DUP4 PUSH20 0xFFFFFFFFFFFFFFFFFFFFFFFFFFFFFFFFFFFFFFFF AND SUB PUSH2 0xEC6 JUMPI PUSH1 0x40 MLOAD PUSH32 0x8C379A000000000000000000000000000000000000000000000000000000000 DUP2 MSTORE PUSH1 0x4 ADD PUSH2 0xEBD SWAP1 PUSH2 0x2910 JUMP JUMPDEST PUSH1 0x40 MLOAD DUP1 SWAP2 SUB SWAP1 REVERT JUMPDEST PUSH1 0x0 PUSH20 0xFFFFFFFFFFFFFFFFFFFFFFFFFFFFFFFFFFFFFFFF AND DUP3 PUSH20 0xFFFFFFFFFFFFFFFFFFFFFFFFFFFFFFFFFFFFFFFF AND SUB PUSH2 0xF35 JUMPI PUSH1 0x40 MLOAD PUSH32 0x8C379A000000000000000000000000000000000000000000000000000000000 DUP2 MSTORE PUSH1 0x4 ADD PUSH2 0xF2C SWAP1 PUSH2 0x29A2 JUMP JUMPDEST PUSH1 0x40 MLOAD DUP1 SWAP2 SUB SWAP1 REVERT JUMPDEST PUSH2 0xF40 DUP4 DUP4 DUP4 PUSH2 0x117A JUMP JUMPDEST PUSH1 0x0 DUP1 PUSH1 0x0 DUP6 PUSH20 0xFFFFFFFFFFFFFFFFFFFFFFFFFFFFFFFFFFFFFFFF AND PUSH20 0xFFFFFFFFFFFFFFFFFFFFFFFFFFFFFFFFFFFFFFFF AND DUP2 MSTORE PUSH1 0x20 ADD SWAP1 DUP2 MSTORE PUSH1 0x20 ADD PUSH1 0x0 KECCAK256 SLOAD SWAP1 POP DUP2 DUP2 LT ISZERO PUSH2 0xFC6 JUMPI PUSH1 0x40 MLOAD PUSH32 0x8C379A000000000000000000000000000000000000000000000000000000000 DUP2 MSTORE PUSH1 0x4 ADD PUSH2 0xFBD SWAP1 PUSH2 0x2A34 JUMP JUMPDEST PUSH1 0x40 MLOAD DUP1 SWAP2 SUB SWAP1 REVERT JUMPDEST DUP2 DUP2 SUB PUSH1 0x0 DUP1 DUP7 PUSH20 0xFFFFFFFFFFFFFFFFFFFFFFFFFFFFFFFFFFFFFFFF AND PUSH20 0xFFFFFFFFFFFFFFFFFFFFFFFFFFFFFFFFFFFFFFFF AND DUP2 MSTORE PUSH1 0x20 ADD SWAP1 DUP2 MSTORE PUSH1 0x20 ADD PUSH1 0x0 KECCAK256 DUP2 SWAP1 SSTORE POP DUP2 PUSH1 0x0 DUP1 DUP6 PUSH20 0xFFFFFFFFFFFFFFFFFFFFFFFFFFFFFFFFFFFFFFFF AND PUSH20 0xFFFFFFFFFFFFFFFFFFFFFFFFFFFFFFFFFFFFFFFF AND DUP2 MSTORE PUSH1 0x20 ADD SWAP1 DUP2 MSTORE PUSH1 0x20 ADD PUSH1 0x0 KECCAK256 PUSH1 0x0 DUP3 DUP3 SLOAD ADD SWAP3 POP POP DUP2 SWAP1 SSTORE POP DUP3 PUSH20 0xFFFFFFFFFFFFFFFFFFFFFFFFFFFFFFFFFFFFFFFF AND DUP5 PUSH20 0xFFFFFFFFFFFFFFFFFFFFFFFFFFFFFFFFFFFFFFFF AND PUSH32 0xDDF252AD1BE2C89B69C2B068FC378DAA952BA7F163C4A11628F55A4DF523B3EF DUP5 PUSH1 0x40 MLOAD PUSH2 0x10B4 SWAP2 SWAP1 PUSH2 0x2232 JUMP JUMPDEST PUSH1 0x40 MLOAD DUP1 SWAP2 SUB SWAP1 LOG3 PUSH2 0x10C7 DUP5 DUP5 DUP5 PUSH2 0x117F JUMP JUMPDEST POP POP POP POP JUMP JUMPDEST PUSH1 0x0 DUP1 PUSH2 0x3E8 DUP4 PUSH2 0x10DE SWAP2 SWAP1 PUSH2 0x2A83 JUMP JUMPDEST SWAP1 POP PUSH1 0x0 PUSH2 0x10EA PUSH2 0x1184 JUMP JUMPDEST SWAP1 POP PUSH1 0x0 PUSH2 0x10F8 DUP4 DUP4 PUSH2 0x1E5E JUMP JUMPDEST SWAP1 POP DUP1 DUP4 PUSH2 0x1106 SWAP2 SWAP1 PUSH2 0x2466 JUMP JUMPDEST SWAP4 POP POP POP POP SWAP2 SWAP1 POP JUMP JUMPDEST PUSH2 0x1118 PUSH2 0x67F JUMP JUMPDEST DUP2 PUSH2 0x1121 PUSH2 0x637 JUMP JUMPDEST PUSH2 0x112B SWAP2 SWAP1 PUSH2 0x2466 JUMP JUMPDEST GT ISZERO PUSH2 0x116C JUMPI PUSH1 0x40 MLOAD PUSH32 0x8C379A000000000000000000000000000000000000000000000000000000000 DUP2 MSTORE PUSH1 0x4 ADD PUSH2 0x1163 SWAP1 PUSH2 0x2B00 JUMP JUMPDEST PUSH1 0x40 MLOAD DUP1 SWAP2 SUB SWAP1 REVERT JUMPDEST PUSH2 0x1176 DUP3 DUP3 PUSH2 0x1E87 JUMP JUMPDEST POP POP JUMP JUMPDEST POP POP POP JUMP JUMPDEST POP POP POP JUMP JUMPDEST PUSH1 0x0 DUP1 ADDRESS PUSH20 0xFFFFFFFFFFFFFFFFFFFFFFFFFFFFFFFFFFFFFFFF AND PUSH4 0x18160DDD PUSH1 0x40 MLOAD DUP2 PUSH4 0xFFFFFFFF AND PUSH1 0xE0 SHL DUP2 MSTORE PUSH1 0x4 ADD PUSH1 0x20 PUSH1 0x40 MLOAD DUP1 DUP4 SUB DUP2 DUP7 GAS STATICCALL ISZERO DUP1 ISZERO PUSH2 0x11D2 JUMPI RETURNDATASIZE PUSH1 0x0 DUP1 RETURNDATACOPY RETURNDATASIZE PUSH1 0x0 REVERT JUMPDEST POP POP POP POP PUSH1 0x40 MLOAD RETURNDATASIZE PUSH1 0x1F NOT PUSH1 0x1F DUP3 ADD AND DUP3 ADD DUP1 PUSH1 0x40 MSTORE POP DUP2 ADD SWAP1 PUSH2 0x11F6 SWAP2 SWAP1 PUSH2 0x2B35 JUMP JUMPDEST LT ISZERO DUP1 ISZERO PUSH2 0x127E JUMPI POP PUSH12 0x183BDAC6AE9BC1C8CC000000 ADDRESS PUSH20 0xFFFFFFFFFFFFFFFFFFFFFFFFFFFFFFFFFFFFFFFF AND PUSH4 0x18160DDD PUSH1 0x40 MLOAD DUP2 PUSH4 0xFFFFFFFF AND PUSH1 0xE0 SHL DUP2 MSTORE PUSH1 0x4 ADD PUSH1 0x20 PUSH1 0x40 MLOAD DUP1 DUP4 SUB DUP2 DUP7 GAS STATICCALL ISZERO DUP1 ISZERO PUSH2 0x1257 JUMPI RETURNDATASIZE PUSH1 0x0 DUP1 RETURNDATACOPY RETURNDATASIZE PUSH1 0x0 REVERT JUMPDEST POP POP POP POP PUSH1 0x40 MLOAD RETURNDATASIZE PUSH1 0x1F NOT PUSH1 0x1F DUP3 ADD AND DUP3 ADD DUP1 PUSH1 0x40 MSTORE POP DUP2 ADD SWAP1 PUSH2 0x127B SWAP2 SWAP1 PUSH2 0x2B35 JUMP JUMPDEST GT ISZERO JUMPDEST ISZERO PUSH2 0x128E JUMPI PUSH3 0x249F0 SWAP1 POP PUSH2 0x1E5B JUMP JUMPDEST PUSH12 0x183BDAC6AE9BC1C8CC000000 ADDRESS PUSH20 0xFFFFFFFFFFFFFFFFFFFFFFFFFFFFFFFFFFFFFFFF AND PUSH4 0x18160DDD PUSH1 0x40 MLOAD DUP2 PUSH4 0xFFFFFFFF AND PUSH1 0xE0 SHL DUP2 MSTORE PUSH1 0x4 ADD PUSH1 0x20 PUSH1 0x40 MLOAD DUP1 DUP4 SUB DUP2 DUP7 GAS STATICCALL ISZERO DUP1 ISZERO PUSH2 0x12E6 JUMPI RETURNDATASIZE PUSH1 0x0 DUP1 RETURNDATACOPY RETURNDATASIZE PUSH1 0x0 REVERT JUMPDEST POP POP POP POP PUSH1 0x40 MLOAD RETURNDATASIZE PUSH1 0x1F NOT PUSH1 0x1F DUP3 ADD AND DUP3 ADD DUP1 PUSH1 0x40 MSTORE POP DUP2 ADD SWAP1 PUSH2 0x130A SWAP2 SWAP1 PUSH2 0x2B35 JUMP JUMPDEST GT DUP1 ISZERO PUSH2 0x1391 JUMPI POP PUSH12 0x2863C1F5CDAE42F954000000 ADDRESS PUSH20 0xFFFFFFFFFFFFFFFFFFFFFFFFFFFFFFFFFFFFFFFF AND PUSH4 0x18160DDD PUSH1 0x40 MLOAD DUP2 PUSH4 0xFFFFFFFF AND PUSH1 0xE0 SHL DUP2 MSTORE PUSH1 0x4 ADD PUSH1 0x20 PUSH1 0x40 MLOAD DUP1 DUP4 SUB DUP2 DUP7 GAS STATICCALL ISZERO DUP1 ISZERO PUSH2 0x136A JUMPI RETURNDATASIZE PUSH1 0x0 DUP1 RETURNDATACOPY RETURNDATASIZE PUSH1 0x0 REVERT JUMPDEST POP POP POP POP PUSH1 0x40 MLOAD RETURNDATASIZE PUSH1 0x1F NOT PUSH1 0x1F DUP3 ADD AND DUP3 ADD DUP1 PUSH1 0x40 MSTORE POP DUP2 ADD SWAP1 PUSH2 0x138E SWAP2 SWAP1 PUSH2 0x2B35 JUMP JUMPDEST GT ISZERO JUMPDEST ISZERO PUSH2 0x13A1 JUMPI PUSH3 0x186A0 SWAP1 POP PUSH2 0x1E5B JUMP JUMPDEST PUSH12 0x2863C1F5CDAE42F954000000 ADDRESS PUSH20 0xFFFFFFFFFFFFFFFFFFFFFFFFFFFFFFFFFFFFFFFF AND PUSH4 0x18160DDD PUSH1 0x40 MLOAD DUP2 PUSH4 0xFFFFFFFF AND PUSH1 0xE0 SHL DUP2 MSTORE PUSH1 0x4 ADD PUSH1 0x20 PUSH1 0x40 MLOAD DUP1 DUP4 SUB DUP2 DUP7 GAS STATICCALL ISZERO DUP1 ISZERO PUSH2 0x13F9 JUMPI RETURNDATASIZE PUSH1 0x0 DUP1 RETURNDATACOPY RETURNDATASIZE PUSH1 0x0 REVERT JUMPDEST POP POP POP POP PUSH1 0x40 MLOAD RETURNDATASIZE PUSH1 0x1F NOT PUSH1 0x1F DUP3 ADD AND DUP3 ADD DUP1 PUSH1 0x40 MSTORE POP DUP2 ADD SWAP1 PUSH2 0x141D SWAP2 SWAP1 PUSH2 0x2B35 JUMP JUMPDEST GT DUP1 ISZERO PUSH2 0x14A4 JUMPI POP PUSH12 0x388BA924ECC0C429DC000000 ADDRESS PUSH20 0xFFFFFFFFFFFFFFFFFFFFFFFFFFFFFFFFFFFFFFFF AND PUSH4 0x18160DDD PUSH1 0x40 MLOAD DUP2 PUSH4 0xFFFFFFFF AND PUSH1 0xE0 SHL DUP2 MSTORE PUSH1 0x4 ADD PUSH1 0x20 PUSH1 0x40 MLOAD DUP1 DUP4 SUB DUP2 DUP7 GAS STATICCALL ISZERO DUP1 ISZERO PUSH2 0x147D JUMPI RETURNDATASIZE PUSH1 0x0 DUP1 RETURNDATACOPY RETURNDATASIZE PUSH1 0x0 REVERT JUMPDEST POP POP POP POP PUSH1 0x40 MLOAD RETURNDATASIZE PUSH1 0x1F NOT PUSH1 0x1F DUP3 ADD AND DUP3 ADD DUP1 PUSH1 0x40 MSTORE POP DUP2 ADD SWAP1 PUSH2 0x14A1 SWAP2 SWAP1 PUSH2 0x2B35 JUMP JUMPDEST GT ISZERO JUMPDEST ISZERO PUSH2 0x14B4 JUMPI PUSH3 0x10428 SWAP1 POP PUSH2 0x1E5B JUMP JUMPDEST PUSH12 0x388BA924ECC0C429DC000000 ADDRESS PUSH20 0xFFFFFFFFFFFFFFFFFFFFFFFFFFFFFFFFFFFFFFFF AND PUSH4 0x18160DDD PUSH1 0x40 MLOAD DUP2 PUSH4 0xFFFFFFFF AND PUSH1 0xE0 SHL DUP2 MSTORE PUSH1 0x4 ADD PUSH1 0x20 PUSH1 0x40 MLOAD DUP1 DUP4 SUB DUP2 DUP7 GAS STATICCALL ISZERO DUP1 ISZERO PUSH2 0x150C JUMPI RETURNDATASIZE PUSH1 0x0 DUP1 RETURNDATACOPY RETURNDATASIZE PUSH1 0x0 REVERT JUMPDEST POP POP POP POP PUSH1 0x40 MLOAD RETURNDATASIZE PUSH1 0x1F NOT PUSH1 0x1F DUP3 ADD AND DUP3 ADD DUP1 PUSH1 0x40 MSTORE POP DUP2 ADD SWAP1 PUSH2 0x1530 SWAP2 SWAP1 PUSH2 0x2B35 JUMP JUMPDEST GT DUP1 ISZERO PUSH2 0x15B7 JUMPI POP PUSH12 0x48B390540BD3455A64000000 ADDRESS PUSH20 0xFFFFFFFFFFFFFFFFFFFFFFFFFFFFFFFFFFFFFFFF AND PUSH4 0x18160DDD PUSH1 0x40 MLOAD DUP2 PUSH4 0xFFFFFFFF AND PUSH1 0xE0 SHL DUP2 MSTORE PUSH1 0x4 ADD PUSH1 0x20 PUSH1 0x40 MLOAD DUP1 DUP4 SUB DUP2 DUP7 GAS STATICCALL ISZERO DUP1 ISZERO PUSH2 0x1590 JUMPI RETURNDATASIZE PUSH1 0x0 DUP1 RETURNDATACOPY RETURNDATASIZE PUSH1 0x0 REVERT JUMPDEST POP POP POP POP PUSH1 0x40 MLOAD RETURNDATASIZE PUSH1 0x1F NOT PUSH1 0x1F DUP3 ADD AND DUP3 ADD DUP1 PUSH1 0x40 MSTORE POP DUP2 ADD SWAP1 PUSH2 0x15B4 SWAP2 SWAP1 PUSH2 0x2B35 JUMP JUMPDEST GT ISZERO JUMPDEST ISZERO PUSH2 0x15C6 JUMPI PUSH2 0xAD70 SWAP1 POP PUSH2 0x1E5B JUMP JUMPDEST PUSH12 0x48B390540BD3455A64000000 ADDRESS PUSH20 0xFFFFFFFFFFFFFFFFFFFFFFFFFFFFFFFFFFFFFFFF AND PUSH4 0x18160DDD PUSH1 0x40 MLOAD DUP2 PUSH4 0xFFFFFFFF AND PUSH1 0xE0 SHL DUP2 MSTORE PUSH1 0x4 ADD PUSH1 0x20 PUSH1 0x40 MLOAD DUP1 DUP4 SUB DUP2 DUP7 GAS STATICCALL ISZERO DUP1 ISZERO PUSH2 0x161E JUMPI RETURNDATASIZE PUSH1 0x0 DUP1 RETURNDATACOPY RETURNDATASIZE PUSH1 0x0 REVERT JUMPDEST POP POP POP POP PUSH1 0x40 MLOAD RETURNDATASIZE PUSH1 0x1F NOT PUSH1 0x1F DUP3 ADD AND DUP3 ADD DUP1 PUSH1 0x40 MSTORE POP DUP2 ADD SWAP1 PUSH2 0x1642 SWAP2 SWAP1 PUSH2 0x2B35 JUMP JUMPDEST GT DUP1 ISZERO PUSH2 0x16C9 JUMPI POP PUSH12 0x58DB77832AE5C68AEC000000 ADDRESS PUSH20 0xFFFFFFFFFFFFFFFFFFFFFFFFFFFFFFFFFFFFFFFF AND PUSH4 0x18160DDD PUSH1 0x40 MLOAD DUP2 PUSH4 0xFFFFFFFF AND PUSH1 0xE0 SHL DUP2 MSTORE PUSH1 0x4 ADD PUSH1 0x20 PUSH1 0x40 MLOAD DUP1 DUP4 SUB DUP2 DUP7 GAS STATICCALL ISZERO DUP1 ISZERO PUSH2 0x16A2 JUMPI RETURNDATASIZE PUSH1 0x0 DUP1 RETURNDATACOPY RETURNDATASIZE PUSH1 0x0 REVERT JUMPDEST POP POP POP POP PUSH1 0x40 MLOAD RETURNDATASIZE PUSH1 0x1F NOT PUSH1 0x1F DUP3 ADD AND DUP3 ADD DUP1 PUSH1 0x40 MSTORE POP DUP2 ADD SWAP1 PUSH2 0x16C6 SWAP2 SWAP1 PUSH2 0x2B35 JUMP JUMPDEST GT ISZERO JUMPDEST ISZERO PUSH2 0x16D8 JUMPI PUSH2 0x73A0 SWAP1 POP PUSH2 0x1E5B JUMP JUMPDEST PUSH12 0x58DB77832AE5C68AEC000000 ADDRESS PUSH20 0xFFFFFFFFFFFFFFFFFFFFFFFFFFFFFFFFFFFFFFFF AND PUSH4 0x18160DDD PUSH1 0x40 MLOAD DUP2 PUSH4 0xFFFFFFFF AND PUSH1 0xE0 SHL DUP2 MSTORE PUSH1 0x4 ADD PUSH1 0x20 PUSH1 0x40 MLOAD DUP1 DUP4 SUB DUP2 DUP7 GAS STATICCALL ISZERO DUP1 ISZERO PUSH2 0x1730 JUMPI RETURNDATASIZE PUSH1 0x0 DUP1 RETURNDATACOPY RETURNDATASIZE PUSH1 0x0 REVERT JUMPDEST POP POP POP POP PUSH1 0x40 MLOAD RETURNDATASIZE PUSH1 0x1F NOT PUSH1 0x1F DUP3 ADD AND DUP3 ADD DUP1 PUSH1 0x40 MSTORE POP DUP2 ADD SWAP1 PUSH2 0x1754 SWAP2 SWAP1 PUSH2 0x2B35 JUMP JUMPDEST GT DUP1 ISZERO PUSH2 0x17DB JUMPI POP PUSH12 0x69035EB249F847BB74000000 ADDRESS PUSH20 0xFFFFFFFFFFFFFFFFFFFFFFFFFFFFFFFFFFFFFFFF AND PUSH4 0x18160DDD PUSH1 0x40 MLOAD DUP2 PUSH4 0xFFFFFFFF AND PUSH1 0xE0 SHL DUP2 MSTORE PUSH1 0x4 ADD PUSH1 0x20 PUSH1 0x40 MLOAD DUP1 DUP4 SUB DUP2 DUP7 GAS STATICCALL ISZERO DUP1 ISZERO PUSH2 0x17B4 JUMPI RETURNDATASIZE PUSH1 0x0 DUP1 RETURNDATACOPY RETURNDATASIZE PUSH1 0x0 REVERT JUMPDEST POP POP POP POP PUSH1 0x40 MLOAD RETURNDATASIZE PUSH1 0x1F NOT PUSH1 0x1F DUP3 ADD AND DUP3 ADD DUP1 PUSH1 0x40 MSTORE POP DUP2 ADD SWAP1 PUSH2 0x17D8 SWAP2 SWAP1 PUSH2 0x2B35 JUMP JUMPDEST GT ISZERO JUMPDEST ISZERO PUSH2 0x17EA JUMPI PUSH2 0x4CF4 SWAP1 POP PUSH2 0x1E5B JUMP JUMPDEST PUSH12 0x69035EB249F847BB74000000 ADDRESS PUSH20 0xFFFFFFFFFFFFFFFFFFFFFFFFFFFFFFFFFFFFFFFF AND PUSH4 0x18160DDD PUSH1 0x40 MLOAD DUP2 PUSH4 0xFFFFFFFF AND PUSH1 0xE0 SHL DUP2 MSTORE PUSH1 0x4 ADD PUSH1 0x20 PUSH1 0x40 MLOAD DUP1 DUP4 SUB DUP2 DUP7 GAS STATICCALL ISZERO DUP1 ISZERO PUSH2 0x1842 JUMPI RETURNDATASIZE PUSH1 0x0 DUP1 RETURNDATACOPY RETURNDATASIZE PUSH1 0x0 REVERT JUMPDEST POP POP POP POP PUSH1 0x40 MLOAD RETURNDATASIZE PUSH1 0x1F NOT PUSH1 0x1F DUP3 ADD AND DUP3 ADD DUP1 PUSH1 0x40 MSTORE POP DUP2 ADD SWAP1 PUSH2 0x1866 SWAP2 SWAP1 PUSH2 0x2B35 JUMP JUMPDEST GT DUP1 ISZERO PUSH2 0x18ED JUMPI POP PUSH12 0x71175249D9818853B8000000 ADDRESS PUSH20 0xFFFFFFFFFFFFFFFFFFFFFFFFFFFFFFFFFFFFFFFF AND PUSH4 0x18160DDD PUSH1 0x40 MLOAD DUP2 PUSH4 0xFFFFFFFF AND PUSH1 0xE0 SHL DUP2 MSTORE PUSH1 0x4 ADD PUSH1 0x20 PUSH1 0x40 MLOAD DUP1 DUP4 SUB DUP2 DUP7 GAS STATICCALL ISZERO DUP1 ISZERO PUSH2 0x18C6 JUMPI RETURNDATASIZE PUSH1 0x0 DUP1 RETURNDATACOPY RETURNDATASIZE PUSH1 0x0 REVERT JUMPDEST POP POP POP POP PUSH1 0x40 MLOAD RETURNDATASIZE PUSH1 0x1F NOT PUSH1 0x1F DUP3 ADD AND DUP3 ADD DUP1 PUSH1 0x40 MSTORE POP DUP2 ADD SWAP1 PUSH2 0x18EA SWAP2 SWAP1 PUSH2 0x2B35 JUMP JUMPDEST GT ISZERO JUMPDEST ISZERO PUSH2 0x18FC JUMPI PUSH2 0x332C SWAP1 POP PUSH2 0x1E5B JUMP JUMPDEST PUSH12 0x71175249D9818853B8000000 ADDRESS PUSH20 0xFFFFFFFFFFFFFFFFFFFFFFFFFFFFFFFFFFFFFFFF AND PUSH4 0x18160DDD PUSH1 0x40 MLOAD DUP2 PUSH4 0xFFFFFFFF AND PUSH1 0xE0 SHL DUP2 MSTORE PUSH1 0x4 ADD PUSH1 0x20 PUSH1 0x40 MLOAD DUP1 DUP4 SUB DUP2 DUP7 GAS STATICCALL ISZERO DUP1 ISZERO PUSH2 0x1954 JUMPI RETURNDATASIZE PUSH1 0x0 DUP1 RETURNDATACOPY RETURNDATASIZE PUSH1 0x0 REVERT JUMPDEST POP POP POP POP PUSH1 0x40 MLOAD RETURNDATASIZE PUSH1 0x1F NOT PUSH1 0x1F DUP3 ADD AND DUP3 ADD DUP1 PUSH1 0x40 MSTORE POP DUP2 ADD SWAP1 PUSH2 0x1978 SWAP2 SWAP1 PUSH2 0x2B35 JUMP JUMPDEST GT DUP1 ISZERO PUSH2 0x19FF JUMPI POP PUSH12 0x792B45E1690AC8EBFC000000 ADDRESS PUSH20 0xFFFFFFFFFFFFFFFFFFFFFFFFFFFFFFFFFFFFFFFF AND PUSH4 0x18160DDD PUSH1 0x40 MLOAD DUP2 PUSH4 0xFFFFFFFF AND PUSH1 0xE0 SHL DUP2 MSTORE PUSH1 0x4 ADD PUSH1 0x20 PUSH1 0x40 MLOAD DUP1 DUP4 SUB DUP2 DUP7 GAS STATICCALL ISZERO DUP1 ISZERO PUSH2 0x19D8 JUMPI RETURNDATASIZE PUSH1 0x0 DUP1 RETURNDATACOPY RETURNDATASIZE PUSH1 0x0 REVERT JUMPDEST POP POP POP POP PUSH1 0x40 MLOAD RETURNDATASIZE PUSH1 0x1F NOT PUSH1 0x1F DUP3 ADD AND DUP3 ADD DUP1 PUSH1 0x40 MSTORE POP DUP2 ADD SWAP1 PUSH2 0x19FC SWAP2 SWAP1 PUSH2 0x2B35 JUMP JUMPDEST GT ISZERO JUMPDEST ISZERO PUSH2 0x1A0E JUMPI PUSH2 0x21FC SWAP1 POP PUSH2 0x1E5B JUMP JUMPDEST PUSH12 0x792B45E1690AC8EBFC000000 ADDRESS PUSH20 0xFFFFFFFFFFFFFFFFFFFFFFFFFFFFFFFFFFFFFFFF AND PUSH4 0x18160DDD PUSH1 0x40 MLOAD DUP2 PUSH4 0xFFFFFFFF AND PUSH1 0xE0 SHL DUP2 MSTORE PUSH1 0x4 ADD PUSH1 0x20 PUSH1 0x40 MLOAD DUP1 DUP4 SUB DUP2 DUP7 GAS STATICCALL ISZERO DUP1 ISZERO PUSH2 0x1A66 JUMPI RETURNDATASIZE PUSH1 0x0 DUP1 RETURNDATACOPY RETURNDATASIZE PUSH1 0x0 REVERT JUMPDEST POP POP POP POP PUSH1 0x40 MLOAD RETURNDATASIZE PUSH1 0x1F NOT PUSH1 0x1F DUP3 ADD AND DUP3 ADD DUP1 PUSH1 0x40 MSTORE POP DUP2 ADD SWAP1 PUSH2 0x1A8A SWAP2 SWAP1 PUSH2 0x2B35 JUMP JUMPDEST GT DUP1 ISZERO PUSH2 0x1B11 JUMPI POP PUSH12 0x813F3978F894098440000000 ADDRESS PUSH20 0xFFFFFFFFFFFFFFFFFFFFFFFFFFFFFFFFFFFFFFFF AND PUSH4 0x18160DDD PUSH1 0x40 MLOAD DUP2 PUSH4 0xFFFFFFFF AND PUSH1 0xE0 SHL DUP2 MSTORE PUSH1 0x4 ADD PUSH1 0x20 PUSH1 0x40 MLOAD DUP1 DUP4 SUB DUP2 DUP7 GAS STATICCALL ISZERO DUP1 ISZERO PUSH2 0x1AEA JUMPI RETURNDATASIZE PUSH1 0x0 DUP1 RETURNDATACOPY RETURNDATASIZE PUSH1 0x0 REVERT JUMPDEST POP POP POP POP PUSH1 0x40 MLOAD RETURNDATASIZE PUSH1 0x1F NOT PUSH1 0x1F DUP3 ADD AND DUP3 ADD DUP1 PUSH1 0x40 MSTORE POP DUP2 ADD SWAP1 PUSH2 0x1B0E SWAP2 SWAP1 PUSH2 0x2B35 JUMP JUMPDEST GT ISZERO JUMPDEST ISZERO PUSH2 0x1B20 JUMPI PUSH2 0x16A8 SWAP1 POP PUSH2 0x1E5B JUMP JUMPDEST PUSH12 0x813F3978F894098440000000 ADDRESS PUSH20 0xFFFFFFFFFFFFFFFFFFFFFFFFFFFFFFFFFFFFFFFF AND PUSH4 0x18160DDD PUSH1 0x40 MLOAD DUP2 PUSH4 0xFFFFFFFF AND PUSH1 0xE0 SHL DUP2 MSTORE PUSH1 0x4 ADD PUSH1 0x20 PUSH1 0x40 MLOAD DUP1 DUP4 SUB DUP2 DUP7 GAS STATICCALL ISZERO DUP1 ISZERO PUSH2 0x1B78 JUMPI RETURNDATASIZE PUSH1 0x0 DUP1 RETURNDATACOPY RETURNDATASIZE PUSH1 0x0 REVERT JUMPDEST POP POP POP POP PUSH1 0x40 MLOAD RETURNDATASIZE PUSH1 0x1F NOT PUSH1 0x1F DUP3 ADD AND DUP3 ADD DUP1 PUSH1 0x40 MSTORE POP DUP2 ADD SWAP1 PUSH2 0x1B9C SWAP2 SWAP1 PUSH2 0x2B35 JUMP JUMPDEST GT DUP1 ISZERO PUSH2 0x1C23 JUMPI POP PUSH12 0x89532D10881D4A1C84000000 ADDRESS PUSH20 0xFFFFFFFFFFFFFFFFFFFFFFFFFFFFFFFFFFFFFFFF AND PUSH4 0x18160DDD PUSH1 0x40 MLOAD DUP2 PUSH4 0xFFFFFFFF AND PUSH1 0xE0 SHL DUP2 MSTORE PUSH1 0x4 ADD PUSH1 0x20 PUSH1 0x40 MLOAD DUP1 DUP4 SUB DUP2 DUP7 GAS STATICCALL ISZERO DUP1 ISZERO PUSH2 0x1BFC JUMPI RETURNDATASIZE PUSH1 0x0 DUP1 RETURNDATACOPY RETURNDATASIZE PUSH1 0x0 REVERT JUMPDEST POP POP POP POP PUSH1 0x40 MLOAD RETURNDATASIZE PUSH1 0x1F NOT PUSH1 0x1F DUP3 ADD AND DUP3 ADD DUP1 PUSH1 0x40 MSTORE POP DUP2 ADD SWAP1 PUSH2 0x1C20 SWAP2 SWAP1 PUSH2 0x2B35 JUMP JUMPDEST GT ISZERO JUMPDEST ISZERO PUSH2 0x1C32 JUMPI PUSH2 0xED8 SWAP1 POP PUSH2 0x1E5B JUMP JUMPDEST PUSH12 0x89532D10881D4A1C84000000 ADDRESS PUSH20 0xFFFFFFFFFFFFFFFFFFFFFFFFFFFFFFFFFFFFFFFF AND PUSH4 0x18160DDD PUSH1 0x40 MLOAD DUP2 PUSH4 0xFFFFFFFF AND PUSH1 0xE0 SHL DUP2 MSTORE PUSH1 0x4 ADD PUSH1 0x20 PUSH1 0x40 MLOAD DUP1 DUP4 SUB DUP2 DUP7 GAS STATICCALL ISZERO DUP1 ISZERO PUSH2 0x1C8A JUMPI RETURNDATASIZE PUSH1 0x0 DUP1 RETURNDATACOPY RETURNDATASIZE PUSH1 0x0 REVERT JUMPDEST POP POP POP POP PUSH1 0x40 MLOAD RETURNDATASIZE PUSH1 0x1F NOT PUSH1 0x1F DUP3 ADD AND DUP3 ADD DUP1 PUSH1 0x40 MSTORE POP DUP2 ADD SWAP1 PUSH2 0x1CAE SWAP2 SWAP1 PUSH2 0x2B35 JUMP JUMPDEST GT DUP1 ISZERO PUSH2 0x1D35 JUMPI POP PUSH12 0x916720A817A68AB4C8000000 ADDRESS PUSH20 0xFFFFFFFFFFFFFFFFFFFFFFFFFFFFFFFFFFFFFFFF AND PUSH4 0x18160DDD PUSH1 0x40 MLOAD DUP2 PUSH4 0xFFFFFFFF AND PUSH1 0xE0 SHL DUP2 MSTORE PUSH1 0x4 ADD PUSH1 0x20 PUSH1 0x40 MLOAD DUP1 DUP4 SUB DUP2 DUP7 GAS STATICCALL ISZERO DUP1 ISZERO PUSH2 0x1D0E JUMPI RETURNDATASIZE PUSH1 0x0 DUP1 RETURNDATACOPY RETURNDATASIZE PUSH1 0x0 REVERT JUMPDEST POP POP POP POP PUSH1 0x40 MLOAD RETURNDATASIZE PUSH1 0x1F NOT PUSH1 0x1F DUP3 ADD AND DUP3 ADD DUP1 PUSH1 0x40 MSTORE POP DUP2 ADD SWAP1 PUSH2 0x1D32 SWAP2 SWAP1 PUSH2 0x2B35 JUMP JUMPDEST GT ISZERO JUMPDEST ISZERO PUSH2 0x1D44 JUMPI PUSH2 0x9C4 SWAP1 POP PUSH2 0x1E5B JUMP JUMPDEST PUSH12 0x916720A817A68AB4C8000000 ADDRESS PUSH20 0xFFFFFFFFFFFFFFFFFFFFFFFFFFFFFFFFFFFFFFFF AND PUSH4 0x18160DDD PUSH1 0x40 MLOAD DUP2 PUSH4 0xFFFFFFFF AND PUSH1 0xE0 SHL DUP2 MSTORE PUSH1 0x4 ADD PUSH1 0x20 PUSH1 0x40 MLOAD DUP1 DUP4 SUB DUP2 DUP7 GAS STATICCALL ISZERO DUP1 ISZERO PUSH2 0x1D9C JUMPI RETURNDATASIZE PUSH1 0x0 DUP1 RETURNDATACOPY RETURNDATASIZE PUSH1 0x0 REVERT JUMPDEST POP POP POP POP PUSH1 0x40 MLOAD RETURNDATASIZE PUSH1 0x1F NOT PUSH1 0x1F DUP3 ADD AND DUP3 ADD DUP1 PUSH1 0x40 MSTORE POP DUP2 ADD SWAP1 PUSH2 0x1DC0 SWAP2 SWAP1 PUSH2 0x2B35 JUMP JUMPDEST GT DUP1 ISZERO PUSH2 0x1E47 JUMPI POP PUSH12 0x997B143FA72FCB4D0C000000 ADDRESS PUSH20 0xFFFFFFFFFFFFFFFFFFFFFFFFFFFFFFFFFFFFFFFF AND PUSH4 0x18160DDD PUSH1 0x40 MLOAD DUP2 PUSH4 0xFFFFFFFF AND PUSH1 0xE0 SHL DUP2 MSTORE PUSH1 0x4 ADD PUSH1 0x20 PUSH1 0x40 MLOAD DUP1 DUP4 SUB DUP2 DUP7 GAS STATICCALL ISZERO DUP1 ISZERO PUSH2 0x1E20 JUMPI RETURNDATASIZE PUSH1 0x0 DUP1 RETURNDATACOPY RETURNDATASIZE PUSH1 0x0 REVERT JUMPDEST POP POP POP POP PUSH1 0x40 MLOAD RETURNDATASIZE PUSH1 0x1F NOT PUSH1 0x1F DUP3 ADD AND DUP3 ADD DUP1 PUSH1 0x40 MSTORE POP DUP2 ADD SWAP1 PUSH2 0x1E44 SWAP2 SWAP1 PUSH2 0x2B35 JUMP JUMPDEST GT ISZERO JUMPDEST ISZERO PUSH2 0x1E56 JUMPI PUSH2 0x6A4 SWAP1 POP PUSH2 0x1E5B JUMP JUMPDEST PUSH1 0x0 SWAP1 POP JUMPDEST SWAP1 JUMP JUMPDEST PUSH1 0x0 PUSH2 0x2710 DUP3 PUSH4 0xFFFFFFFF AND DUP5 PUSH2 0x1E75 SWAP2 SWAP1 PUSH2 0x2B62 JUMP JUMPDEST PUSH2 0x1E7F SWAP2 SWAP1 PUSH2 0x2A83 JUMP JUMPDEST SWAP1 POP SWAP3 SWAP2 POP POP JUMP JUMPDEST PUSH1 0x0 PUSH20 0xFFFFFFFFFFFFFFFFFFFFFFFFFFFFFFFFFFFFFFFF AND DUP3 PUSH20 0xFFFFFFFFFFFFFFFFFFFFFFFFFFFFFFFFFFFFFFFF AND SUB PUSH2 0x1EF6 JUMPI PUSH1 0x40 MLOAD PUSH32 0x8C379A000000000000000000000000000000000000000000000000000000000 DUP2 MSTORE PUSH1 0x4 ADD PUSH2 0x1EED SWAP1 PUSH2 0x2BF0 JUMP JUMPDEST PUSH1 0x40 MLOAD DUP1 SWAP2 SUB SWAP1 REVERT JUMPDEST PUSH2 0x1F02 PUSH1 0x0 DUP4 DUP4 PUSH2 0x117A JUMP JUMPDEST DUP1 PUSH1 0x2 PUSH1 0x0 DUP3 DUP3 SLOAD PUSH2 0x1F14 SWAP2 SWAP1 PUSH2 0x2466 JUMP JUMPDEST SWAP3 POP POP DUP2 SWAP1 SSTORE POP DUP1 PUSH1 0x0 DUP1 DUP5 PUSH20 0xFFFFFFFFFFFFFFFFFFFFFFFFFFFFFFFFFFFFFFFF AND PUSH20 0xFFFFFFFFFFFFFFFFFFFFFFFFFFFFFFFFFFFFFFFF AND DUP2 MSTORE PUSH1 0x20 ADD SWAP1 DUP2 MSTORE PUSH1 0x20 ADD PUSH1 0x0 KECCAK256 PUSH1 0x0 DUP3 DUP3 SLOAD ADD SWAP3 POP POP DUP2 SWAP1 SSTORE POP DUP2 PUSH20 0xFFFFFFFFFFFFFFFFFFFFFFFFFFFFFFFFFFFFFFFF AND PUSH1 0x0 PUSH20 0xFFFFFFFFFFFFFFFFFFFFFFFFFFFFFFFFFFFFFFFF AND PUSH32 0xDDF252AD1BE2C89B69C2B068FC378DAA952BA7F163C4A11628F55A4DF523B3EF DUP4 PUSH1 0x40 MLOAD PUSH2 0x1FC5 SWAP2 SWAP1 PUSH2 0x2232 JUMP JUMPDEST PUSH1 0x40 MLOAD DUP1 SWAP2 SUB SWAP1 LOG3 PUSH2 0x1FD9 PUSH1 0x0 DUP4 DUP4 PUSH2 0x117F JUMP JUMPDEST POP POP JUMP JUMPDEST PUSH1 0x0 DUP1 REVERT JUMPDEST PUSH1 0x0 PUSH32 0xFFFFFFFF00000000000000000000000000000000000000000000000000000000 DUP3 AND SWAP1 POP SWAP2 SWAP1 POP JUMP JUMPDEST PUSH2 0x2017 DUP2 PUSH2 0x1FE2 JUMP JUMPDEST DUP2 EQ PUSH2 0x2022 JUMPI PUSH1 0x0 DUP1 REVERT JUMPDEST POP JUMP JUMPDEST PUSH1 0x0 DUP2 CALLDATALOAD SWAP1 POP PUSH2 0x2034 DUP2 PUSH2 0x200E JUMP JUMPDEST SWAP3 SWAP2 POP POP JUMP JUMPDEST PUSH1 0x0 PUSH1 0x20 DUP3 DUP5 SUB SLT ISZERO PUSH2 0x2050 JUMPI PUSH2 0x204F PUSH2 0x1FDD JUMP JUMPDEST JUMPDEST PUSH1 0x0 PUSH2 0x205E DUP5 DUP3 DUP6 ADD PUSH2 0x2025 JUMP JUMPDEST SWAP2 POP POP SWAP3 SWAP2 POP POP JUMP JUMPDEST PUSH1 0x0 DUP2 ISZERO ISZERO SWAP1 POP SWAP2 SWAP1 POP JUMP JUMPDEST PUSH2 0x207C DUP2 PUSH2 0x2067 JUMP JUMPDEST DUP3 MSTORE POP POP JUMP JUMPDEST PUSH1 0x0 PUSH1 0x20 DUP3 ADD SWAP1 POP PUSH2 0x2097 PUSH1 0x0 DUP4 ADD DUP5 PUSH2 0x2073 JUMP JUMPDEST SWAP3 SWAP2 POP POP JUMP JUMPDEST PUSH1 0x0 DUP2 MLOAD SWAP1 POP SWAP2 SWAP1 POP JUMP JUMPDEST PUSH1 0x0 DUP3 DUP3 MSTORE PUSH1 0x20 DUP3 ADD SWAP1 POP SWAP3 SWAP2 POP POP JUMP JUMPDEST PUSH1 0x0 JUMPDEST DUP4 DUP2 LT ISZERO PUSH2 0x20D7 JUMPI DUP1 DUP3 ADD MLOAD DUP2 DUP5 ADD MSTORE PUSH1 0x20 DUP2 ADD SWAP1 POP PUSH2 0x20BC JUMP JUMPDEST PUSH1 0x0 DUP5 DUP5 ADD MSTORE POP POP POP POP JUMP JUMPDEST PUSH1 0x0 PUSH1 0x1F NOT PUSH1 0x1F DUP4 ADD AND SWAP1 POP SWAP2 SWAP1 POP JUMP JUMPDEST PUSH1 0x0 PUSH2 0x20FF DUP3 PUSH2 0x209D JUMP JUMPDEST PUSH2 0x2109 DUP2 DUP6 PUSH2 0x20A8 JUMP JUMPDEST SWAP4 POP PUSH2 0x2119 DUP2 DUP6 PUSH1 0x20 DUP7 ADD PUSH2 0x20B9 JUMP JUMPDEST PUSH2 0x2122 DUP2 PUSH2 0x20E3 JUMP JUMPDEST DUP5 ADD SWAP2 POP POP SWAP3 SWAP2 POP POP JUMP JUMPDEST PUSH1 0x0 PUSH1 0x20 DUP3 ADD SWAP1 POP DUP2 DUP2 SUB PUSH1 0x0 DUP4 ADD MSTORE PUSH2 0x2147 DUP2 DUP5 PUSH2 0x20F4 JUMP JUMPDEST SWAP1 POP SWAP3 SWAP2 POP POP JUMP JUMPDEST PUSH1 0x0 PUSH20 0xFFFFFFFFFFFFFFFFFFFFFFFFFFFFFFFFFFFFFFFF DUP3 AND SWAP1 POP SWAP2 SWAP1 POP JUMP JUMPDEST PUSH1 0x0 PUSH2 0x217A DUP3 PUSH2 0x214F JUMP JUMPDEST SWAP1 POP SWAP2 SWAP1 POP JUMP JUMPDEST PUSH2 0x218A DUP2 PUSH2 0x216F JUMP JUMPDEST DUP2 EQ PUSH2 0x2195 JUMPI PUSH1 0x0 DUP1 REVERT JUMPDEST POP JUMP JUMPDEST PUSH1 0x0 DUP2 CALLDATALOAD SWAP1 POP PUSH2 0x21A7 DUP2 PUSH2 0x2181 JUMP JUMPDEST SWAP3 SWAP2 POP POP JUMP JUMPDEST PUSH1 0x0 DUP2 SWAP1 POP SWAP2 SWAP1 POP JUMP JUMPDEST PUSH2 0x21C0 DUP2 PUSH2 0x21AD JUMP JUMPDEST DUP2 EQ PUSH2 0x21CB JUMPI PUSH1 0x0 DUP1 REVERT JUMPDEST POP JUMP JUMPDEST PUSH1 0x0 DUP2 CALLDATALOAD SWAP1 POP PUSH2 0x21DD DUP2 PUSH2 0x21B7 JUMP JUMPDEST SWAP3 SWAP2 POP POP JUMP JUMPDEST PUSH1 0x0 DUP1 PUSH1 0x40 DUP4 DUP6 SUB SLT ISZERO PUSH2 0x21FA JUMPI PUSH2 0x21F9 PUSH2 0x1FDD JUMP JUMPDEST JUMPDEST PUSH1 0x0 PUSH2 0x2208 DUP6 DUP3 DUP7 ADD PUSH2 0x2198 JUMP JUMPDEST SWAP3 POP POP PUSH1 0x20 PUSH2 0x2219 DUP6 DUP3 DUP7 ADD PUSH2 0x21CE JUMP JUMPDEST SWAP2 POP POP SWAP3 POP SWAP3 SWAP1 POP JUMP JUMPDEST PUSH2 0x222C DUP2 PUSH2 0x21AD JUMP JUMPDEST DUP3 MSTORE POP POP JUMP JUMPDEST PUSH1 0x0 PUSH1 0x20 DUP3 ADD SWAP1 POP PUSH2 0x2247 PUSH1 0x0 DUP4 ADD DUP5 PUSH2 0x2223 JUMP JUMPDEST SWAP3 SWAP2 POP POP JUMP JUMPDEST PUSH1 0x0 DUP1 PUSH1 0x0 PUSH1 0x60 DUP5 DUP7 SUB SLT ISZERO PUSH2 0x2266 JUMPI PUSH2 0x2265 PUSH2 0x1FDD JUMP JUMPDEST JUMPDEST PUSH1 0x0 PUSH2 0x2274 DUP7 DUP3 DUP8 ADD PUSH2 0x2198 JUMP JUMPDEST SWAP4 POP POP PUSH1 0x20 PUSH2 0x2285 DUP7 DUP3 DUP8 ADD PUSH2 0x2198 JUMP JUMPDEST SWAP3 POP POP PUSH1 0x40 PUSH2 0x2296 DUP7 DUP3 DUP8 ADD PUSH2 0x21CE JUMP JUMPDEST SWAP2 POP POP SWAP3 POP SWAP3 POP SWAP3 JUMP JUMPDEST PUSH1 0x0 PUSH1 0xFF DUP3 AND SWAP1 POP SWAP2 SWAP1 POP JUMP JUMPDEST PUSH2 0x22B6 DUP2 PUSH2 0x22A0 JUMP JUMPDEST DUP3 MSTORE POP POP JUMP JUMPDEST PUSH1 0x0 PUSH1 0x20 DUP3 ADD SWAP1 POP PUSH2 0x22D1 PUSH1 0x0 DUP4 ADD DUP5 PUSH2 0x22AD JUMP JUMPDEST SWAP3 SWAP2 POP POP JUMP JUMPDEST PUSH1 0x0 PUSH1 0x20 DUP3 DUP5 SUB SLT ISZERO PUSH2 0x22ED JUMPI PUSH2 0x22EC PUSH2 0x1FDD JUMP JUMPDEST JUMPDEST PUSH1 0x0 PUSH2 0x22FB DUP5 DUP3 DUP6 ADD PUSH2 0x21CE JUMP JUMPDEST SWAP2 POP POP SWAP3 SWAP2 POP POP JUMP JUMPDEST PUSH1 0x0 PUSH1 0x20 DUP3 DUP5 SUB SLT ISZERO PUSH2 0x231A JUMPI PUSH2 0x2319 PUSH2 0x1FDD JUMP JUMPDEST JUMPDEST PUSH1 0x0 PUSH2 0x2328 DUP5 DUP3 DUP6 ADD PUSH2 0x2198 JUMP JUMPDEST SWAP2 POP POP SWAP3 SWAP2 POP POP JUMP JUMPDEST PUSH2 0x233A DUP2 PUSH2 0x216F JUMP JUMPDEST DUP3 MSTORE POP POP JUMP JUMPDEST PUSH1 0x0 PUSH1 0x20 DUP3 ADD SWAP1 POP PUSH2 0x2355 PUSH1 0x0 DUP4 ADD DUP5 PUSH2 0x2331 JUMP JUMPDEST SWAP3 SWAP2 POP POP JUMP JUMPDEST PUSH1 0x0 DUP1 PUSH1 0x40 DUP4 DUP6 SUB SLT ISZERO PUSH2 0x2372 JUMPI PUSH2 0x2371 PUSH2 0x1FDD JUMP JUMPDEST JUMPDEST PUSH1 0x0 PUSH2 0x2380 DUP6 DUP3 DUP7 ADD PUSH2 0x2198 JUMP JUMPDEST SWAP3 POP POP PUSH1 0x20 PUSH2 0x2391 DUP6 DUP3 DUP7 ADD PUSH2 0x2198 JUMP JUMPDEST SWAP2 POP POP SWAP3 POP SWAP3 SWAP1 POP JUMP JUMPDEST PUSH1 0x0 PUSH2 0x23A6 DUP3 PUSH2 0x214F JUMP JUMPDEST SWAP1 POP SWAP2 SWAP1 POP JUMP JUMPDEST PUSH2 0x23B6 DUP2 PUSH2 0x239B JUMP JUMPDEST DUP3 MSTORE POP POP JUMP JUMPDEST PUSH1 0x0 PUSH1 0x20 DUP3 ADD SWAP1 POP PUSH2 0x23D1 PUSH1 0x0 DUP4 ADD DUP5 PUSH2 0x23AD JUMP JUMPDEST SWAP3 SWAP2 POP POP JUMP JUMPDEST PUSH32 0x4E487B7100000000000000000000000000000000000000000000000000000000 PUSH1 0x0 MSTORE PUSH1 0x22 PUSH1 0x4 MSTORE PUSH1 0x24 PUSH1 0x0 REVERT JUMPDEST PUSH1 0x0 PUSH1 0x2 DUP3 DIV SWAP1 POP PUSH1 0x1 DUP3 AND DUP1 PUSH2 0x241E JUMPI PUSH1 0x7F DUP3 AND SWAP2 POP JUMPDEST PUSH1 0x20 DUP3 LT DUP2 SUB PUSH2 0x2431 JUMPI PUSH2 0x2430 PUSH2 0x23D7 JUMP JUMPDEST JUMPDEST POP SWAP2 SWAP1 POP JUMP JUMPDEST PUSH32 0x4E487B7100000000000000000000000000000000000000000000000000000000 PUSH1 0x0 MSTORE PUSH1 0x11 PUSH1 0x4 MSTORE PUSH1 0x24 PUSH1 0x0 REVERT JUMPDEST PUSH1 0x0 PUSH2 0x2471 DUP3 PUSH2 0x21AD JUMP JUMPDEST SWAP2 POP PUSH2 0x247C DUP4 PUSH2 0x21AD JUMP JUMPDEST SWAP3 POP DUP3 DUP3 ADD SWAP1 POP DUP1 DUP3 GT ISZERO PUSH2 0x2494 JUMPI PUSH2 0x2493 PUSH2 0x2437 JUMP JUMPDEST JUMPDEST SWAP3 SWAP2 POP POP JUMP JUMPDEST PUSH32 0x58454E446F67653A2043616C6C6572206D7573742062652058454E2043727970 PUSH1 0x0 DUP3 ADD MSTORE PUSH32 0x746F2E0000000000000000000000000000000000000000000000000000000000 PUSH1 0x20 DUP3 ADD MSTORE POP JUMP JUMPDEST PUSH1 0x0 PUSH2 0x24F6 PUSH1 0x23 DUP4 PUSH2 0x20A8 JUMP JUMPDEST SWAP2 POP PUSH2 0x2501 DUP3 PUSH2 0x249A JUMP JUMPDEST PUSH1 0x40 DUP3 ADD SWAP1 POP SWAP2 SWAP1 POP JUMP JUMPDEST PUSH1 0x0 PUSH1 0x20 DUP3 ADD SWAP1 POP DUP2 DUP2 SUB PUSH1 0x0 DUP4 ADD MSTORE PUSH2 0x2525 DUP2 PUSH2 0x24E9 JUMP JUMPDEST SWAP1 POP SWAP2 SWAP1 POP JUMP JUMPDEST PUSH32 0x58454E446F67653A20416464726573732063616E6E6F74206265207468652030 PUSH1 0x0 DUP3 ADD MSTORE PUSH32 0x20616464726573732E0000000000000000000000000000000000000000000000 PUSH1 0x20 DUP3 ADD MSTORE POP JUMP JUMPDEST PUSH1 0x0 PUSH2 0x2588 PUSH1 0x29 DUP4 PUSH2 0x20A8 JUMP JUMPDEST SWAP2 POP PUSH2 0x2593 DUP3 PUSH2 0x252C JUMP JUMPDEST PUSH1 0x40 DUP3 ADD SWAP1 POP SWAP2 SWAP1 POP JUMP JUMPDEST PUSH1 0x0 PUSH1 0x20 DUP3 ADD SWAP1 POP DUP2 DUP2 SUB PUSH1 0x0 DUP4 ADD MSTORE PUSH2 0x25B7 DUP2 PUSH2 0x257B JUMP JUMPDEST SWAP1 POP SWAP2 SWAP1 POP JUMP JUMPDEST PUSH32 0x58454E446F67653A204275726E20616D6F756E7420746F6F20736D616C6C2E00 PUSH1 0x0 DUP3 ADD MSTORE POP JUMP JUMPDEST PUSH1 0x0 PUSH2 0x25F4 PUSH1 0x1F DUP4 PUSH2 0x20A8 JUMP JUMPDEST SWAP2 POP PUSH2 0x25FF DUP3 PUSH2 0x25BE JUMP JUMPDEST PUSH1 0x20 DUP3 ADD SWAP1 POP SWAP2 SWAP1 POP JUMP JUMPDEST PUSH1 0x0 PUSH1 0x20 DUP3 ADD SWAP1 POP DUP2 DUP2 SUB PUSH1 0x0 DUP4 ADD MSTORE PUSH2 0x2623 DUP2 PUSH2 0x25E7 JUMP JUMPDEST SWAP1 POP SWAP2 SWAP1 POP JUMP JUMPDEST PUSH1 0x0 PUSH1 0x40 DUP3 ADD SWAP1 POP PUSH2 0x263F PUSH1 0x0 DUP4 ADD DUP6 PUSH2 0x2223 JUMP JUMPDEST PUSH2 0x264C PUSH1 0x20 DUP4 ADD DUP5 PUSH2 0x2223 JUMP JUMPDEST SWAP4 SWAP3 POP POP POP JUMP JUMPDEST PUSH1 0x0 PUSH1 0x40 DUP3 ADD SWAP1 POP PUSH2 0x2668 PUSH1 0x0 DUP4 ADD DUP6 PUSH2 0x2331 JUMP JUMPDEST PUSH2 0x2675 PUSH1 0x20 DUP4 ADD DUP5 PUSH2 0x2223 JUMP JUMPDEST SWAP4 SWAP3 POP POP POP JUMP JUMPDEST PUSH32 0x45524332303A2064656372656173656420616C6C6F77616E63652062656C6F77 PUSH1 0x0 DUP3 ADD MSTORE PUSH32 0x207A65726F000000000000000000000000000000000000000000000000000000 PUSH1 0x20 DUP3 ADD MSTORE POP JUMP JUMPDEST PUSH1 0x0 PUSH2 0x26D8 PUSH1 0x25 DUP4 PUSH2 0x20A8 JUMP JUMPDEST SWAP2 POP PUSH2 0x26E3 DUP3 PUSH2 0x267C JUMP JUMPDEST PUSH1 0x40 DUP3 ADD SWAP1 POP SWAP2 SWAP1 POP JUMP JUMPDEST PUSH1 0x0 PUSH1 0x20 DUP3 ADD SWAP1 POP DUP2 DUP2 SUB PUSH1 0x0 DUP4 ADD MSTORE PUSH2 0x2707 DUP2 PUSH2 0x26CB JUMP JUMPDEST SWAP1 POP SWAP2 SWAP1 POP JUMP JUMPDEST PUSH32 0x45524332303A20617070726F76652066726F6D20746865207A65726F20616464 PUSH1 0x0 DUP3 ADD MSTORE PUSH32 0x7265737300000000000000000000000000000000000000000000000000000000 PUSH1 0x20 DUP3 ADD MSTORE POP JUMP JUMPDEST PUSH1 0x0 PUSH2 0x276A PUSH1 0x24 DUP4 PUSH2 0x20A8 JUMP JUMPDEST SWAP2 POP PUSH2 0x2775 DUP3 PUSH2 0x270E JUMP JUMPDEST PUSH1 0x40 DUP3 ADD SWAP1 POP SWAP2 SWAP1 POP JUMP JUMPDEST PUSH1 0x0 PUSH1 0x20 DUP3 ADD SWAP1 POP DUP2 DUP2 SUB PUSH1 0x0 DUP4 ADD MSTORE PUSH2 0x2799 DUP2 PUSH2 0x275D JUMP JUMPDEST SWAP1 POP SWAP2 SWAP1 POP JUMP JUMPDEST PUSH32 0x45524332303A20617070726F766520746F20746865207A65726F206164647265 PUSH1 0x0 DUP3 ADD MSTORE PUSH32 0x7373000000000000000000000000000000000000000000000000000000000000 PUSH1 0x20 DUP3 ADD MSTORE POP JUMP JUMPDEST PUSH1 0x0 PUSH2 0x27FC PUSH1 0x22 DUP4 PUSH2 0x20A8 JUMP JUMPDEST SWAP2 POP PUSH2 0x2807 DUP3 PUSH2 0x27A0 JUMP JUMPDEST PUSH1 0x40 DUP3 ADD SWAP1 POP SWAP2 SWAP1 POP JUMP JUMPDEST PUSH1 0x0 PUSH1 0x20 DUP3 ADD SWAP1 POP DUP2 DUP2 SUB PUSH1 0x0 DUP4 ADD MSTORE PUSH2 0x282B DUP2 PUSH2 0x27EF JUMP JUMPDEST SWAP1 POP SWAP2 SWAP1 POP JUMP JUMPDEST PUSH32 0x45524332303A20696E73756666696369656E7420616C6C6F77616E6365000000 PUSH1 0x0 DUP3 ADD MSTORE POP JUMP JUMPDEST PUSH1 0x0 PUSH2 0x2868 PUSH1 0x1D DUP4 PUSH2 0x20A8 JUMP JUMPDEST SWAP2 POP PUSH2 0x2873 DUP3 PUSH2 0x2832 JUMP JUMPDEST PUSH1 0x20 DUP3 ADD SWAP1 POP SWAP2 SWAP1 POP JUMP JUMPDEST PUSH1 0x0 PUSH1 0x20 DUP3 ADD SWAP1 POP DUP2 DUP2 SUB PUSH1 0x0 DUP4 ADD MSTORE PUSH2 0x2897 DUP2 PUSH2 0x285B JUMP JUMPDEST SWAP1 POP SWAP2 SWAP1 POP JUMP JUMPDEST PUSH32 0x45524332303A207472616E736665722066726F6D20746865207A65726F206164 PUSH1 0x0 DUP3 ADD MSTORE PUSH32 0x6472657373000000000000000000000000000000000000000000000000000000 PUSH1 0x20 DUP3 ADD MSTORE POP JUMP JUMPDEST PUSH1 0x0 PUSH2 0x28FA PUSH1 0x25 DUP4 PUSH2 0x20A8 JUMP JUMPDEST SWAP2 POP PUSH2 0x2905 DUP3 PUSH2 0x289E JUMP JUMPDEST PUSH1 0x40 DUP3 ADD SWAP1 POP SWAP2 SWAP1 POP JUMP JUMPDEST PUSH1 0x0 PUSH1 0x20 DUP3 ADD SWAP1 POP DUP2 DUP2 SUB PUSH1 0x0 DUP4 ADD MSTORE PUSH2 0x2929 DUP2 PUSH2 0x28ED JUMP JUMPDEST SWAP1 POP SWAP2 SWAP1 POP JUMP JUMPDEST PUSH32 0x45524332303A207472616E7366657220746F20746865207A65726F2061646472 PUSH1 0x0 DUP3 ADD MSTORE PUSH32 0x6573730000000000000000000000000000000000000000000000000000000000 PUSH1 0x20 DUP3 ADD MSTORE POP JUMP JUMPDEST PUSH1 0x0 PUSH2 0x298C PUSH1 0x23 DUP4 PUSH2 0x20A8 JUMP JUMPDEST SWAP2 POP PUSH2 0x2997 DUP3 PUSH2 0x2930 JUMP JUMPDEST PUSH1 0x40 DUP3 ADD SWAP1 POP SWAP2 SWAP1 POP JUMP JUMPDEST PUSH1 0x0 PUSH1 0x20 DUP3 ADD SWAP1 POP DUP2 DUP2 SUB PUSH1 0x0 DUP4 ADD MSTORE PUSH2 0x29BB DUP2 PUSH2 0x297F JUMP JUMPDEST SWAP1 POP SWAP2 SWAP1 POP JUMP JUMPDEST PUSH32 0x45524332303A207472616E7366657220616D6F756E7420657863656564732062 PUSH1 0x0 DUP3 ADD MSTORE PUSH32 0x616C616E63650000000000000000000000000000000000000000000000000000 PUSH1 0x20 DUP3 ADD MSTORE POP JUMP JUMPDEST PUSH1 0x0 PUSH2 0x2A1E PUSH1 0x26 DUP4 PUSH2 0x20A8 JUMP JUMPDEST SWAP2 POP PUSH2 0x2A29 DUP3 PUSH2 0x29C2 JUMP JUMPDEST PUSH1 0x40 DUP3 ADD SWAP1 POP SWAP2 SWAP1 POP JUMP JUMPDEST PUSH1 0x0 PUSH1 0x20 DUP3 ADD SWAP1 POP DUP2 DUP2 SUB PUSH1 0x0 DUP4 ADD MSTORE PUSH2 0x2A4D DUP2 PUSH2 0x2A11 JUMP JUMPDEST SWAP1 POP SWAP2 SWAP1 POP JUMP JUMPDEST PUSH32 0x4E487B7100000000000000000000000000000000000000000000000000000000 PUSH1 0x0 MSTORE PUSH1 0x12 PUSH1 0x4 MSTORE PUSH1 0x24 PUSH1 0x0 REVERT JUMPDEST PUSH1 0x0 PUSH2 0x2A8E DUP3 PUSH2 0x21AD JUMP JUMPDEST SWAP2 POP PUSH2 0x2A99 DUP4 PUSH2 0x21AD JUMP JUMPDEST SWAP3 POP DUP3 PUSH2 0x2AA9 JUMPI PUSH2 0x2AA8 PUSH2 0x2A54 JUMP JUMPDEST JUMPDEST DUP3 DUP3 DIV SWAP1 POP SWAP3 SWAP2 POP POP JUMP JUMPDEST PUSH32 0x45524332304361707065643A2063617020657863656564656400000000000000 PUSH1 0x0 DUP3 ADD MSTORE POP JUMP JUMPDEST PUSH1 0x0 PUSH2 0x2AEA PUSH1 0x19 DUP4 PUSH2 0x20A8 JUMP JUMPDEST SWAP2 POP PUSH2 0x2AF5 DUP3 PUSH2 0x2AB4 JUMP JUMPDEST PUSH1 0x20 DUP3 ADD SWAP1 POP SWAP2 SWAP1 POP JUMP JUMPDEST PUSH1 0x0 PUSH1 0x20 DUP3 ADD SWAP1 POP DUP2 DUP2 SUB PUSH1 0x0 DUP4 ADD MSTORE PUSH2 0x2B19 DUP2 PUSH2 0x2ADD JUMP JUMPDEST SWAP1 POP SWAP2 SWAP1 POP JUMP JUMPDEST PUSH1 0x0 DUP2 MLOAD SWAP1 POP PUSH2 0x2B2F DUP2 PUSH2 0x21B7 JUMP JUMPDEST SWAP3 SWAP2 POP POP JUMP JUMPDEST PUSH1 0x0 PUSH1 0x20 DUP3 DUP5 SUB SLT ISZERO PUSH2 0x2B4B JUMPI PUSH2 0x2B4A PUSH2 0x1FDD JUMP JUMPDEST JUMPDEST PUSH1 0x0 PUSH2 0x2B59 DUP5 DUP3 DUP6 ADD PUSH2 0x2B20 JUMP JUMPDEST SWAP2 POP POP SWAP3 SWAP2 POP POP JUMP JUMPDEST PUSH1 0x0 PUSH2 0x2B6D DUP3 PUSH2 0x21AD JUMP JUMPDEST SWAP2 POP PUSH2 0x2B78 DUP4 PUSH2 0x21AD JUMP JUMPDEST SWAP3 POP DUP3 DUP3 MUL PUSH2 0x2B86 DUP2 PUSH2 0x21AD JUMP JUMPDEST SWAP2 POP DUP3 DUP3 DIV DUP5 EQ DUP4 ISZERO OR PUSH2 0x2B9D JUMPI PUSH2 0x2B9C PUSH2 0x2437 JUMP JUMPDEST JUMPDEST POP SWAP3 SWAP2 POP POP JUMP JUMPDEST PUSH32 0x45524332303A206D696E7420746F20746865207A65726F206164647265737300 PUSH1 0x0 DUP3 ADD MSTORE POP JUMP JUMPDEST PUSH1 0x0 PUSH2 0x2BDA PUSH1 0x1F DUP4 PUSH2 0x20A8 JUMP JUMPDEST SWAP2 POP PUSH2 0x2BE5 DUP3 PUSH2 0x2BA4 JUMP JUMPDEST PUSH1 0x20 DUP3 ADD SWAP1 POP SWAP2 SWAP1 POP JUMP JUMPDEST PUSH1 0x0 PUSH1 0x20 DUP3 ADD SWAP1 POP DUP2 DUP2 SUB PUSH1 0x0 DUP4 ADD MSTORE PUSH2 0x2C09 DUP2 PUSH2 0x2BCD JUMP JUMPDEST SWAP1 POP SWAP2 SWAP1 POP JUMP INVALID LOG2 PUSH5 0x6970667358 0x22 SLT KECCAK256 PUSH21 0x9B32FE0959D6B1C84EA90F7F96CDB6E5ECCC729C9 SWAP3 0x2D PUSH30 0x7A382776F9840064736F6C63430008130033000000000000000000000000 "
				},
				"gasEstimates": {
					"creation": {
						"codeDepositCost": "2266800",
						"executionCost": "infinite",
						"totalCost": "infinite"
					},
					"external": {
						"DONATION_ADDRESS()": "488",
						"XEN_ADDRESS()": "444",
						"XEN_BURN_RATIO()": "352",
						"allowance(address,address)": "infinite",
						"approve(address,uint256)": "infinite",
						"balanceOf(address)": "2930",
						"burnXEN(uint256)": "infinite",
						"cap()": "infinite",
						"decimals()": "410",
						"decreaseAllowance(address,uint256)": "infinite",
						"increaseAllowance(address,uint256)": "infinite",
						"name()": "infinite",
						"onTokenBurned(address,uint256)": "infinite",
						"supportsInterface(bytes4)": "714",
						"symbol()": "infinite",
						"totalSupply()": "2527",
						"totalXenBurned()": "2474",
						"transfer(address,uint256)": "infinite",
						"transferFrom(address,address,uint256)": "infinite"
					},
					"internal": {
						"calculateMintReward(uint256)": "infinite",
						"getPercentBonus()": "infinite",
						"percentageOf(uint256,uint32)": "infinite"
					}
				},
				"methodIdentifiers": {
					"DONATION_ADDRESS()": "f8e726d1",
					"XEN_ADDRESS()": "bc1d089a",
					"XEN_BURN_RATIO()": "1a6cef14",
					"allowance(address,address)": "dd62ed3e",
					"approve(address,uint256)": "095ea7b3",
					"balanceOf(address)": "70a08231",
					"burnXEN(uint256)": "6630a05e",
					"cap()": "355274ea",
					"decimals()": "313ce567",
					"decreaseAllowance(address,uint256)": "a457c2d7",
					"increaseAllowance(address,uint256)": "39509351",
					"name()": "06fdde03",
					"onTokenBurned(address,uint256)": "543746b1",
					"supportsInterface(bytes4)": "01ffc9a7",
					"symbol()": "95d89b41",
					"totalSupply()": "18160ddd",
					"totalXenBurned()": "579436fc",
					"transfer(address,uint256)": "a9059cbb",
					"transferFrom(address,address,uint256)": "23b872dd"
				}
			},
			"storageLayout": {
				"storage": [
					{
						"astId": 50,
						"contract": "contracts/XENDoge.sol:XENDoge",
						"label": "_balances",
						"offset": 0,
						"slot": "0",
						"type": "t_mapping(t_address,t_uint256)"
					},
					{
						"astId": 56,
						"contract": "contracts/XENDoge.sol:XENDoge",
						"label": "_allowances",
						"offset": 0,
						"slot": "1",
						"type": "t_mapping(t_address,t_mapping(t_address,t_uint256))"
					},
					{
						"astId": 58,
						"contract": "contracts/XENDoge.sol:XENDoge",
						"label": "_totalSupply",
						"offset": 0,
						"slot": "2",
						"type": "t_uint256"
					},
					{
						"astId": 60,
						"contract": "contracts/XENDoge.sol:XENDoge",
						"label": "_name",
						"offset": 0,
						"slot": "3",
						"type": "t_string_storage"
					},
					{
						"astId": 62,
						"contract": "contracts/XENDoge.sol:XENDoge",
						"label": "_symbol",
						"offset": 0,
						"slot": "4",
						"type": "t_string_storage"
					},
					{
						"astId": 850,
						"contract": "contracts/XENDoge.sol:XENDoge",
						"label": "totalXenBurned",
						"offset": 0,
						"slot": "5",
						"type": "t_uint256"
					}
				],
				"types": {
					"t_address": {
						"encoding": "inplace",
						"label": "address",
						"numberOfBytes": "20"
					},
					"t_mapping(t_address,t_mapping(t_address,t_uint256))": {
						"encoding": "mapping",
						"key": "t_address",
						"label": "mapping(address => mapping(address => uint256))",
						"numberOfBytes": "32",
						"value": "t_mapping(t_address,t_uint256)"
					},
					"t_mapping(t_address,t_uint256)": {
						"encoding": "mapping",
						"key": "t_address",
						"label": "mapping(address => uint256)",
						"numberOfBytes": "32",
						"value": "t_uint256"
					},
					"t_string_storage": {
						"encoding": "bytes",
						"label": "string",
						"numberOfBytes": "32"
					},
					"t_uint256": {
						"encoding": "inplace",
						"label": "uint256",
						"numberOfBytes": "32"
					}
				}
			},
			"userdoc": {
				"kind": "user",
				"methods": {},
				"version": 1
			}
		}
	}
}