{
	"contracts/XENDoge.sol": {
		"XENDoge": {
			"abi": [
				{
					"inputs": [],
					"stateMutability": "nonpayable",
					"type": "constructor"
				},
				{
					"anonymous": false,
					"inputs": [
						{
							"indexed": true,
							"internalType": "address",
							"name": "owner",
							"type": "address"
						},
						{
							"indexed": true,
							"internalType": "address",
							"name": "spender",
							"type": "address"
						},
						{
							"indexed": false,
							"internalType": "uint256",
							"name": "value",
							"type": "uint256"
						}
					],
					"name": "Approval",
					"type": "event"
				},
				{
					"anonymous": false,
					"inputs": [
						{
							"indexed": true,
							"internalType": "address",
							"name": "user",
							"type": "address"
						},
						{
							"indexed": true,
							"internalType": "address",
							"name": "xenContract",
							"type": "address"
						},
						{
							"indexed": true,
							"internalType": "address",
							"name": "tokenContract",
							"type": "address"
						},
						{
							"indexed": false,
							"internalType": "uint256",
							"name": "xenAmount",
							"type": "uint256"
						},
						{
							"indexed": false,
							"internalType": "uint256",
							"name": "tokenAmount",
							"type": "uint256"
						}
					],
					"name": "Redeemed",
					"type": "event"
				},
				{
					"anonymous": false,
					"inputs": [
						{
							"indexed": true,
							"internalType": "address",
							"name": "from",
							"type": "address"
						},
						{
							"indexed": true,
							"internalType": "address",
							"name": "to",
							"type": "address"
						},
						{
							"indexed": false,
							"internalType": "uint256",
							"name": "value",
							"type": "uint256"
						}
					],
					"name": "Transfer",
					"type": "event"
				},
				{
					"inputs": [],
					"name": "DONATION_ADDRESS",
					"outputs": [
						{
							"internalType": "address payable",
							"name": "",
							"type": "address"
						}
					],
					"stateMutability": "view",
					"type": "function"
				},
				{
					"inputs": [],
					"name": "XEN_ADDRESS",
					"outputs": [
						{
							"internalType": "address",
							"name": "",
							"type": "address"
						}
					],
					"stateMutability": "view",
					"type": "function"
				},
				{
					"inputs": [],
					"name": "XEN_BURN_RATIO",
					"outputs": [
						{
							"internalType": "uint256",
							"name": "",
							"type": "uint256"
						}
					],
					"stateMutability": "view",
					"type": "function"
				},
				{
					"inputs": [
						{
							"internalType": "address",
							"name": "owner",
							"type": "address"
						},
						{
							"internalType": "address",
							"name": "spender",
							"type": "address"
						}
					],
					"name": "allowance",
					"outputs": [
						{
							"internalType": "uint256",
							"name": "",
							"type": "uint256"
						}
					],
					"stateMutability": "view",
					"type": "function"
				},
				{
					"inputs": [
						{
							"internalType": "address",
							"name": "spender",
							"type": "address"
						},
						{
							"internalType": "uint256",
							"name": "amount",
							"type": "uint256"
						}
					],
					"name": "approve",
					"outputs": [
						{
							"internalType": "bool",
							"name": "",
							"type": "bool"
						}
					],
					"stateMutability": "nonpayable",
					"type": "function"
				},
				{
					"inputs": [
						{
							"internalType": "address",
							"name": "account",
							"type": "address"
						}
					],
					"name": "balanceOf",
					"outputs": [
						{
							"internalType": "uint256",
							"name": "",
							"type": "uint256"
						}
					],
					"stateMutability": "view",
					"type": "function"
				},
				{
					"inputs": [
						{
							"internalType": "uint256",
							"name": "xen",
							"type": "uint256"
						}
					],
					"name": "burnXEN",
					"outputs": [],
					"stateMutability": "payable",
					"type": "function"
				},
				{
					"inputs": [],
					"name": "cap",
					"outputs": [
						{
							"internalType": "uint256",
							"name": "",
							"type": "uint256"
						}
					],
					"stateMutability": "view",
					"type": "function"
				},
				{
					"inputs": [],
					"name": "decimals",
					"outputs": [
						{
							"internalType": "uint8",
							"name": "",
							"type": "uint8"
						}
					],
					"stateMutability": "view",
					"type": "function"
				},
				{
					"inputs": [
						{
							"internalType": "address",
							"name": "spender",
							"type": "address"
						},
						{
							"internalType": "uint256",
							"name": "subtractedValue",
							"type": "uint256"
						}
					],
					"name": "decreaseAllowance",
					"outputs": [
						{
							"internalType": "bool",
							"name": "",
							"type": "bool"
						}
					],
					"stateMutability": "nonpayable",
					"type": "function"
				},
				{
					"inputs": [
						{
							"internalType": "address",
							"name": "spender",
							"type": "address"
						},
						{
							"internalType": "uint256",
							"name": "addedValue",
							"type": "uint256"
						}
					],
					"name": "increaseAllowance",
					"outputs": [
						{
							"internalType": "bool",
							"name": "",
							"type": "bool"
						}
					],
					"stateMutability": "nonpayable",
					"type": "function"
				},
				{
					"inputs": [],
					"name": "name",
					"outputs": [
						{
							"internalType": "string",
							"name": "",
							"type": "string"
						}
					],
					"stateMutability": "view",
					"type": "function"
				},
				{
					"inputs": [
						{
							"internalType": "address",
							"name": "user",
							"type": "address"
						},
						{
							"internalType": "uint256",
							"name": "amount",
							"type": "uint256"
						}
					],
					"name": "onTokenBurned",
					"outputs": [],
					"stateMutability": "nonpayable",
					"type": "function"
				},
				{
					"inputs": [
						{
							"internalType": "bytes4",
							"name": "interfaceId",
							"type": "bytes4"
						}
					],
					"name": "supportsInterface",
					"outputs": [
						{
							"internalType": "bool",
							"name": "",
							"type": "bool"
						}
					],
					"stateMutability": "view",
					"type": "function"
				},
				{
					"inputs": [],
					"name": "symbol",
					"outputs": [
						{
							"internalType": "string",
							"name": "",
							"type": "string"
						}
					],
					"stateMutability": "view",
					"type": "function"
				},
				{
					"inputs": [],
					"name": "totalDonated",
					"outputs": [
						{
							"internalType": "uint256",
							"name": "",
							"type": "uint256"
						}
					],
					"stateMutability": "view",
					"type": "function"
				},
				{
					"inputs": [],
					"name": "totalSupply",
					"outputs": [
						{
							"internalType": "uint256",
							"name": "",
							"type": "uint256"
						}
					],
					"stateMutability": "view",
					"type": "function"
				},
				{
					"inputs": [],
					"name": "totalXenBurned",
					"outputs": [
						{
							"internalType": "uint256",
							"name": "",
							"type": "uint256"
						}
					],
					"stateMutability": "view",
					"type": "function"
				},
				{
					"inputs": [
						{
							"internalType": "address",
							"name": "to",
							"type": "address"
						},
						{
							"internalType": "uint256",
							"name": "amount",
							"type": "uint256"
						}
					],
					"name": "transfer",
					"outputs": [
						{
							"internalType": "bool",
							"name": "",
							"type": "bool"
						}
					],
					"stateMutability": "nonpayable",
					"type": "function"
				},
				{
					"inputs": [
						{
							"internalType": "address",
							"name": "from",
							"type": "address"
						},
						{
							"internalType": "address",
							"name": "to",
							"type": "address"
						},
						{
							"internalType": "uint256",
							"name": "amount",
							"type": "uint256"
						}
					],
					"name": "transferFrom",
					"outputs": [
						{
							"internalType": "bool",
							"name": "",
							"type": "bool"
						}
					],
					"stateMutability": "nonpayable",
					"type": "function"
				}
			],
			"devdoc": {
				"events": {
					"Approval(address,address,uint256)": {
						"details": "Emitted when the allowance of a `spender` for an `owner` is set by a call to {approve}. `value` is the new allowance."
					},
					"Transfer(address,address,uint256)": {
						"details": "Emitted when `value` tokens are moved from one account (`from`) to another (`to`). Note that `value` may be zero."
					}
				},
				"kind": "dev",
				"methods": {
					"allowance(address,address)": {
						"details": "See {IERC20-allowance}."
					},
					"approve(address,uint256)": {
						"details": "See {IERC20-approve}. NOTE: If `amount` is the maximum `uint256`, the allowance is not updated on `transferFrom`. This is semantically equivalent to an infinite approval. Requirements: - `spender` cannot be the zero address."
					},
					"balanceOf(address)": {
						"details": "See {IERC20-balanceOf}."
					},
					"cap()": {
						"details": "Returns the cap on the token's total supply."
					},
					"decimals()": {
						"details": "Returns the number of decimals used to get its user representation. For example, if `decimals` equals `2`, a balance of `505` tokens should be displayed to a user as `5.05` (`505 / 10 ** 2`). Tokens usually opt for a value of 18, imitating the relationship between Ether and Wei. This is the value {ERC20} uses, unless this function is overridden; NOTE: This information is only used for _display_ purposes: it in no way affects any of the arithmetic of the contract, including {IERC20-balanceOf} and {IERC20-transfer}."
					},
					"decreaseAllowance(address,uint256)": {
						"details": "Atomically decreases the allowance granted to `spender` by the caller. This is an alternative to {approve} that can be used as a mitigation for problems described in {IERC20-approve}. Emits an {Approval} event indicating the updated allowance. Requirements: - `spender` cannot be the zero address. - `spender` must have allowance for the caller of at least `subtractedValue`."
					},
					"increaseAllowance(address,uint256)": {
						"details": "Atomically increases the allowance granted to `spender` by the caller. This is an alternative to {approve} that can be used as a mitigation for problems described in {IERC20-approve}. Emits an {Approval} event indicating the updated allowance. Requirements: - `spender` cannot be the zero address."
					},
					"name()": {
						"details": "Returns the name of the token."
					},
					"supportsInterface(bytes4)": {
						"details": "Returns true if this contract implements the interface defined by `interfaceId`. See the corresponding https://eips.ethereum.org/EIPS/eip-165#how-interfaces-are-identified[EIP section] to learn more about how these ids are created. This function call must use less than 30 000 gas."
					},
					"symbol()": {
						"details": "Returns the symbol of the token, usually a shorter version of the name."
					},
					"totalSupply()": {
						"details": "See {IERC20-totalSupply}."
					},
					"transfer(address,uint256)": {
						"details": "See {IERC20-transfer}. Requirements: - `to` cannot be the zero address. - the caller must have a balance of at least `amount`."
					},
					"transferFrom(address,address,uint256)": {
						"details": "See {IERC20-transferFrom}. Emits an {Approval} event indicating the updated allowance. This is not required by the EIP. See the note at the beginning of {ERC20}. NOTE: Does not update the allowance if the current allowance is the maximum `uint256`. Requirements: - `from` and `to` cannot be the zero address. - `from` must have a balance of at least `amount`. - the caller must have allowance for ``from``'s tokens of at least `amount`."
					}
				},
				"version": 1
			},
			"evm": {
				"assembly": "    /* \"contracts/XENDoge.sol\":343:3917  contract XENDoge is ERC20Capped, IERC165, IBurnRedeemable { ... */\n  mstore(0x40, 0xa0)\n    /* \"contracts/XENDoge.sol\":689:690  0 */\n  0x00\n    /* \"contracts/XENDoge.sol\":657:690  uint256 public totalXenBurned = 0 */\n  0x05\n  sstore\n    /* \"contracts/XENDoge.sol\":727:728  0 */\n  0x00\n    /* \"contracts/XENDoge.sol\":697:728  uint256 public totalDonated = 0 */\n  0x06\n  sstore\n    /* \"contracts/XENDoge.sol\":737:822  constructor() ERC20(\"XENDoge\", \"XDOGE\") ERC20Capped(50000000000000000000000000000) {} */\n  callvalue\n  dup1\n  iszero\n  tag_1\n  jumpi\n  0x00\n  dup1\n  revert\ntag_1:\n  pop\n    /* \"contracts/XENDoge.sol\":789:818  50000000000000000000000000000 */\n  0xa18f07d736b90be550000000\n    /* \"@openzeppelin/contracts/token/ERC20/ERC20.sol\":1976:2089  constructor(string memory name_, string memory symbol_) {... */\n  mload(0x40)\n  dup1\n  0x40\n  add\n  0x40\n  mstore\n  dup1\n  0x07\n  dup2\n  mstore\n  0x20\n  add\n  0x58454e446f676500000000000000000000000000000000000000000000000000\n  dup2\n  mstore\n  pop\n  mload(0x40)\n  dup1\n  0x40\n  add\n  0x40\n  mstore\n  dup1\n  0x05\n  dup2\n  mstore\n  0x20\n  add\n  0x58444f4745000000000000000000000000000000000000000000000000000000\n  dup2\n  mstore\n  pop\n    /* \"@openzeppelin/contracts/token/ERC20/ERC20.sol\":2050:2055  name_ */\n  dup2\n    /* \"@openzeppelin/contracts/token/ERC20/ERC20.sol\":2042:2047  _name */\n  0x03\n    /* \"@openzeppelin/contracts/token/ERC20/ERC20.sol\":2042:2055  _name = name_ */\n  swap1\n  dup2\n  tag_6\n  swap2\n  swap1\n  tag_7\n  jump\t// in\ntag_6:\n  pop\n    /* \"@openzeppelin/contracts/token/ERC20/ERC20.sol\":2075:2082  symbol_ */\n  dup1\n    /* \"@openzeppelin/contracts/token/ERC20/ERC20.sol\":2065:2072  _symbol */\n  0x04\n    /* \"@openzeppelin/contracts/token/ERC20/ERC20.sol\":2065:2082  _symbol = symbol_ */\n  swap1\n  dup2\n  tag_8\n  swap2\n  swap1\n  tag_7\n  jump\t// in\ntag_8:\n  pop\n    /* \"@openzeppelin/contracts/token/ERC20/ERC20.sol\":1976:2089  constructor(string memory name_, string memory symbol_) {... */\n  pop\n  pop\n    /* \"@openzeppelin/contracts/token/ERC20/extensions/ERC20Capped.sol\":501:502  0 */\n  0x00\n    /* \"@openzeppelin/contracts/token/ERC20/extensions/ERC20Capped.sol\":494:498  cap_ */\n  dup2\n    /* \"@openzeppelin/contracts/token/ERC20/extensions/ERC20Capped.sol\":494:502  cap_ > 0 */\n  gt\n    /* \"@openzeppelin/contracts/token/ERC20/extensions/ERC20Capped.sol\":486:528  require(cap_ > 0, \"ERC20Capped: cap is 0\") */\n  tag_10\n  jumpi\n  mload(0x40)\n  0x08c379a000000000000000000000000000000000000000000000000000000000\n  dup2\n  mstore\n  0x04\n  add\n  tag_11\n  swap1\n  tag_12\n  jump\t// in\ntag_11:\n  mload(0x40)\n  dup1\n  swap2\n  sub\n  swap1\n  revert\ntag_10:\n    /* \"@openzeppelin/contracts/token/ERC20/extensions/ERC20Capped.sol\":545:549  cap_ */\n  dup1\n    /* \"@openzeppelin/contracts/token/ERC20/extensions/ERC20Capped.sol\":538:549  _cap = cap_ */\n  0x80\n  dup2\n  dup2\n  mstore\n  pop\n  pop\n    /* \"@openzeppelin/contracts/token/ERC20/extensions/ERC20Capped.sol\":450:556  constructor(uint256 cap_) {... */\n  pop\n    /* \"contracts/XENDoge.sol\":343:3917  contract XENDoge is ERC20Capped, IERC165, IBurnRedeemable { ... */\n  jump(tag_14)\n    /* \"#utility.yul\":7:106   */\ntag_15:\n    /* \"#utility.yul\":59:65   */\n  0x00\n    /* \"#utility.yul\":93:98   */\n  dup2\n    /* \"#utility.yul\":87:99   */\n  mload\n    /* \"#utility.yul\":77:99   */\n  swap1\n  pop\n    /* \"#utility.yul\":7:106   */\n  swap2\n  swap1\n  pop\n  jump\t// out\n    /* \"#utility.yul\":112:292   */\ntag_16:\n    /* \"#utility.yul\":160:237   */\n  0x4e487b7100000000000000000000000000000000000000000000000000000000\n    /* \"#utility.yul\":157:158   */\n  0x00\n    /* \"#utility.yul\":150:238   */\n  mstore\n    /* \"#utility.yul\":257:261   */\n  0x41\n    /* \"#utility.yul\":254:255   */\n  0x04\n    /* \"#utility.yul\":247:262   */\n  mstore\n    /* \"#utility.yul\":281:285   */\n  0x24\n    /* \"#utility.yul\":278:279   */\n  0x00\n    /* \"#utility.yul\":271:286   */\n  revert\n    /* \"#utility.yul\":298:478   */\ntag_17:\n    /* \"#utility.yul\":346:423   */\n  0x4e487b7100000000000000000000000000000000000000000000000000000000\n    /* \"#utility.yul\":343:344   */\n  0x00\n    /* \"#utility.yul\":336:424   */\n  mstore\n    /* \"#utility.yul\":443:447   */\n  0x22\n    /* \"#utility.yul\":440:441   */\n  0x04\n    /* \"#utility.yul\":433:448   */\n  mstore\n    /* \"#utility.yul\":467:471   */\n  0x24\n    /* \"#utility.yul\":464:465   */\n  0x00\n    /* \"#utility.yul\":457:472   */\n  revert\n    /* \"#utility.yul\":484:804   */\ntag_18:\n    /* \"#utility.yul\":528:534   */\n  0x00\n    /* \"#utility.yul\":565:566   */\n  0x02\n    /* \"#utility.yul\":559:563   */\n  dup3\n    /* \"#utility.yul\":555:567   */\n  div\n    /* \"#utility.yul\":545:567   */\n  swap1\n  pop\n    /* \"#utility.yul\":612:613   */\n  0x01\n    /* \"#utility.yul\":606:610   */\n  dup3\n    /* \"#utility.yul\":602:614   */\n  and\n    /* \"#utility.yul\":633:651   */\n  dup1\n    /* \"#utility.yul\":623:704   */\n  tag_43\n  jumpi\n    /* \"#utility.yul\":689:693   */\n  0x7f\n    /* \"#utility.yul\":681:687   */\n  dup3\n    /* \"#utility.yul\":677:694   */\n  and\n    /* \"#utility.yul\":667:694   */\n  swap2\n  pop\n    /* \"#utility.yul\":623:704   */\ntag_43:\n    /* \"#utility.yul\":751:753   */\n  0x20\n    /* \"#utility.yul\":743:749   */\n  dup3\n    /* \"#utility.yul\":740:754   */\n  lt\n    /* \"#utility.yul\":720:738   */\n  dup2\n    /* \"#utility.yul\":717:755   */\n  sub\n    /* \"#utility.yul\":714:798   */\n  tag_44\n  jumpi\n    /* \"#utility.yul\":770:788   */\n  tag_45\n  tag_17\n  jump\t// in\ntag_45:\n    /* \"#utility.yul\":714:798   */\ntag_44:\n    /* \"#utility.yul\":535:804   */\n  pop\n    /* \"#utility.yul\":484:804   */\n  swap2\n  swap1\n  pop\n  jump\t// out\n    /* \"#utility.yul\":810:951   */\ntag_19:\n    /* \"#utility.yul\":859:863   */\n  0x00\n    /* \"#utility.yul\":882:885   */\n  dup2\n    /* \"#utility.yul\":874:885   */\n  swap1\n  pop\n    /* \"#utility.yul\":905:908   */\n  dup2\n    /* \"#utility.yul\":902:903   */\n  0x00\n    /* \"#utility.yul\":895:909   */\n  mstore\n    /* \"#utility.yul\":939:943   */\n  0x20\n    /* \"#utility.yul\":936:937   */\n  0x00\n    /* \"#utility.yul\":926:944   */\n  keccak256\n    /* \"#utility.yul\":918:944   */\n  swap1\n  pop\n    /* \"#utility.yul\":810:951   */\n  swap2\n  swap1\n  pop\n  jump\t// out\n    /* \"#utility.yul\":957:1050   */\ntag_20:\n    /* \"#utility.yul\":994:1000   */\n  0x00\n    /* \"#utility.yul\":1041:1043   */\n  0x20\n    /* \"#utility.yul\":1036:1038   */\n  0x1f\n    /* \"#utility.yul\":1029:1034   */\n  dup4\n    /* \"#utility.yul\":1025:1039   */\n  add\n    /* \"#utility.yul\":1021:1044   */\n  div\n    /* \"#utility.yul\":1011:1044   */\n  swap1\n  pop\n    /* \"#utility.yul\":957:1050   */\n  swap2\n  swap1\n  pop\n  jump\t// out\n    /* \"#utility.yul\":1056:1163   */\ntag_21:\n    /* \"#utility.yul\":1100:1108   */\n  0x00\n    /* \"#utility.yul\":1150:1155   */\n  dup3\n    /* \"#utility.yul\":1144:1148   */\n  dup3\n    /* \"#utility.yul\":1140:1156   */\n  shl\n    /* \"#utility.yul\":1119:1156   */\n  swap1\n  pop\n    /* \"#utility.yul\":1056:1163   */\n  swap3\n  swap2\n  pop\n  pop\n  jump\t// out\n    /* \"#utility.yul\":1169:1562   */\ntag_22:\n    /* \"#utility.yul\":1238:1244   */\n  0x00\n    /* \"#utility.yul\":1288:1289   */\n  0x08\n    /* \"#utility.yul\":1276:1286   */\n  dup4\n    /* \"#utility.yul\":1272:1290   */\n  mul\n    /* \"#utility.yul\":1311:1408   */\n  tag_50\n    /* \"#utility.yul\":1341:1407   */\n  0xffffffffffffffffffffffffffffffffffffffffffffffffffffffffffffffff\n    /* \"#utility.yul\":1330:1339   */\n  dup3\n    /* \"#utility.yul\":1311:1408   */\n  tag_21\n  jump\t// in\ntag_50:\n    /* \"#utility.yul\":1429:1468   */\n  tag_51\n    /* \"#utility.yul\":1459:1467   */\n  dup7\n    /* \"#utility.yul\":1448:1457   */\n  dup4\n    /* \"#utility.yul\":1429:1468   */\n  tag_21\n  jump\t// in\ntag_51:\n    /* \"#utility.yul\":1417:1468   */\n  swap6\n  pop\n    /* \"#utility.yul\":1501:1505   */\n  dup1\n    /* \"#utility.yul\":1497:1506   */\n  not\n    /* \"#utility.yul\":1490:1495   */\n  dup5\n    /* \"#utility.yul\":1486:1507   */\n  and\n    /* \"#utility.yul\":1477:1507   */\n  swap4\n  pop\n    /* \"#utility.yul\":1550:1554   */\n  dup1\n    /* \"#utility.yul\":1540:1548   */\n  dup7\n    /* \"#utility.yul\":1536:1555   */\n  and\n    /* \"#utility.yul\":1529:1534   */\n  dup5\n    /* \"#utility.yul\":1526:1556   */\n  or\n    /* \"#utility.yul\":1516:1556   */\n  swap3\n  pop\n    /* \"#utility.yul\":1245:1562   */\n  pop\n  pop\n    /* \"#utility.yul\":1169:1562   */\n  swap4\n  swap3\n  pop\n  pop\n  pop\n  jump\t// out\n    /* \"#utility.yul\":1568:1645   */\ntag_23:\n    /* \"#utility.yul\":1605:1612   */\n  0x00\n    /* \"#utility.yul\":1634:1639   */\n  dup2\n    /* \"#utility.yul\":1623:1639   */\n  swap1\n  pop\n    /* \"#utility.yul\":1568:1645   */\n  swap2\n  swap1\n  pop\n  jump\t// out\n    /* \"#utility.yul\":1651:1711   */\ntag_24:\n    /* \"#utility.yul\":1679:1682   */\n  0x00\n    /* \"#utility.yul\":1700:1705   */\n  dup2\n    /* \"#utility.yul\":1693:1705   */\n  swap1\n  pop\n    /* \"#utility.yul\":1651:1711   */\n  swap2\n  swap1\n  pop\n  jump\t// out\n    /* \"#utility.yul\":1717:1859   */\ntag_25:\n    /* \"#utility.yul\":1767:1776   */\n  0x00\n    /* \"#utility.yul\":1800:1853   */\n  tag_55\n    /* \"#utility.yul\":1818:1852   */\n  tag_56\n    /* \"#utility.yul\":1827:1851   */\n  tag_57\n    /* \"#utility.yul\":1845:1850   */\n  dup5\n    /* \"#utility.yul\":1827:1851   */\n  tag_23\n  jump\t// in\ntag_57:\n    /* \"#utility.yul\":1818:1852   */\n  tag_24\n  jump\t// in\ntag_56:\n    /* \"#utility.yul\":1800:1853   */\n  tag_23\n  jump\t// in\ntag_55:\n    /* \"#utility.yul\":1787:1853   */\n  swap1\n  pop\n    /* \"#utility.yul\":1717:1859   */\n  swap2\n  swap1\n  pop\n  jump\t// out\n    /* \"#utility.yul\":1865:1940   */\ntag_26:\n    /* \"#utility.yul\":1908:1911   */\n  0x00\n    /* \"#utility.yul\":1929:1934   */\n  dup2\n    /* \"#utility.yul\":1922:1934   */\n  swap1\n  pop\n    /* \"#utility.yul\":1865:1940   */\n  swap2\n  swap1\n  pop\n  jump\t// out\n    /* \"#utility.yul\":1946:2215   */\ntag_27:\n    /* \"#utility.yul\":2056:2095   */\n  tag_60\n    /* \"#utility.yul\":2087:2094   */\n  dup4\n    /* \"#utility.yul\":2056:2095   */\n  tag_25\n  jump\t// in\ntag_60:\n    /* \"#utility.yul\":2117:2208   */\n  tag_61\n    /* \"#utility.yul\":2166:2207   */\n  tag_62\n    /* \"#utility.yul\":2190:2206   */\n  dup3\n    /* \"#utility.yul\":2166:2207   */\n  tag_26\n  jump\t// in\ntag_62:\n    /* \"#utility.yul\":2158:2164   */\n  dup5\n    /* \"#utility.yul\":2151:2155   */\n  dup5\n    /* \"#utility.yul\":2145:2156   */\n  sload\n    /* \"#utility.yul\":2117:2208   */\n  tag_22\n  jump\t// in\ntag_61:\n    /* \"#utility.yul\":2111:2115   */\n  dup3\n    /* \"#utility.yul\":2104:2209   */\n  sstore\n    /* \"#utility.yul\":2022:2215   */\n  pop\n    /* \"#utility.yul\":1946:2215   */\n  pop\n  pop\n  pop\n  jump\t// out\n    /* \"#utility.yul\":2221:2294   */\ntag_28:\n    /* \"#utility.yul\":2266:2269   */\n  0x00\n    /* \"#utility.yul\":2221:2294   */\n  swap1\n  jump\t// out\n    /* \"#utility.yul\":2300:2489   */\ntag_29:\n    /* \"#utility.yul\":2377:2409   */\n  tag_65\n  tag_28\n  jump\t// in\ntag_65:\n    /* \"#utility.yul\":2418:2483   */\n  tag_66\n    /* \"#utility.yul\":2476:2482   */\n  dup2\n    /* \"#utility.yul\":2468:2474   */\n  dup5\n    /* \"#utility.yul\":2462:2466   */\n  dup5\n    /* \"#utility.yul\":2418:2483   */\n  tag_27\n  jump\t// in\ntag_66:\n    /* \"#utility.yul\":2353:2489   */\n  pop\n    /* \"#utility.yul\":2300:2489   */\n  pop\n  pop\n  jump\t// out\n    /* \"#utility.yul\":2495:2681   */\ntag_30:\n    /* \"#utility.yul\":2555:2675   */\ntag_68:\n    /* \"#utility.yul\":2572:2575   */\n  dup2\n    /* \"#utility.yul\":2565:2570   */\n  dup2\n    /* \"#utility.yul\":2562:2576   */\n  lt\n    /* \"#utility.yul\":2555:2675   */\n  iszero\n  tag_70\n  jumpi\n    /* \"#utility.yul\":2626:2665   */\n  tag_71\n    /* \"#utility.yul\":2663:2664   */\n  0x00\n    /* \"#utility.yul\":2656:2661   */\n  dup3\n    /* \"#utility.yul\":2626:2665   */\n  tag_29\n  jump\t// in\ntag_71:\n    /* \"#utility.yul\":2599:2600   */\n  0x01\n    /* \"#utility.yul\":2592:2597   */\n  dup2\n    /* \"#utility.yul\":2588:2601   */\n  add\n    /* \"#utility.yul\":2579:2601   */\n  swap1\n  pop\n    /* \"#utility.yul\":2555:2675   */\n  jump(tag_68)\ntag_70:\n    /* \"#utility.yul\":2495:2681   */\n  pop\n  pop\n  jump\t// out\n    /* \"#utility.yul\":2687:3230   */\ntag_31:\n    /* \"#utility.yul\":2788:2790   */\n  0x1f\n    /* \"#utility.yul\":2783:2786   */\n  dup3\n    /* \"#utility.yul\":2780:2791   */\n  gt\n    /* \"#utility.yul\":2777:3223   */\n  iszero\n  tag_73\n  jumpi\n    /* \"#utility.yul\":2822:2860   */\n  tag_74\n    /* \"#utility.yul\":2854:2859   */\n  dup2\n    /* \"#utility.yul\":2822:2860   */\n  tag_19\n  jump\t// in\ntag_74:\n    /* \"#utility.yul\":2906:2935   */\n  tag_75\n    /* \"#utility.yul\":2924:2934   */\n  dup5\n    /* \"#utility.yul\":2906:2935   */\n  tag_20\n  jump\t// in\ntag_75:\n    /* \"#utility.yul\":2896:2904   */\n  dup2\n    /* \"#utility.yul\":2892:2936   */\n  add\n    /* \"#utility.yul\":3089:3091   */\n  0x20\n    /* \"#utility.yul\":3077:3087   */\n  dup6\n    /* \"#utility.yul\":3074:3092   */\n  lt\n    /* \"#utility.yul\":3071:3120   */\n  iszero\n  tag_76\n  jumpi\n    /* \"#utility.yul\":3110:3118   */\n  dup2\n    /* \"#utility.yul\":3095:3118   */\n  swap1\n  pop\n    /* \"#utility.yul\":3071:3120   */\ntag_76:\n    /* \"#utility.yul\":3133:3213   */\n  tag_77\n    /* \"#utility.yul\":3189:3211   */\n  tag_78\n    /* \"#utility.yul\":3207:3210   */\n  dup6\n    /* \"#utility.yul\":3189:3211   */\n  tag_20\n  jump\t// in\ntag_78:\n    /* \"#utility.yul\":3179:3187   */\n  dup4\n    /* \"#utility.yul\":3175:3212   */\n  add\n    /* \"#utility.yul\":3162:3173   */\n  dup3\n    /* \"#utility.yul\":3133:3213   */\n  tag_30\n  jump\t// in\ntag_77:\n    /* \"#utility.yul\":2792:3223   */\n  pop\n  pop\n    /* \"#utility.yul\":2777:3223   */\ntag_73:\n    /* \"#utility.yul\":2687:3230   */\n  pop\n  pop\n  pop\n  jump\t// out\n    /* \"#utility.yul\":3236:3353   */\ntag_32:\n    /* \"#utility.yul\":3290:3298   */\n  0x00\n    /* \"#utility.yul\":3340:3345   */\n  dup3\n    /* \"#utility.yul\":3334:3338   */\n  dup3\n    /* \"#utility.yul\":3330:3346   */\n  shr\n    /* \"#utility.yul\":3309:3346   */\n  swap1\n  pop\n    /* \"#utility.yul\":3236:3353   */\n  swap3\n  swap2\n  pop\n  pop\n  jump\t// out\n    /* \"#utility.yul\":3359:3528   */\ntag_33:\n    /* \"#utility.yul\":3403:3409   */\n  0x00\n    /* \"#utility.yul\":3436:3487   */\n  tag_81\n    /* \"#utility.yul\":3484:3485   */\n  0x00\n    /* \"#utility.yul\":3480:3486   */\n  not\n    /* \"#utility.yul\":3472:3477   */\n  dup5\n    /* \"#utility.yul\":3469:3470   */\n  0x08\n    /* \"#utility.yul\":3465:3478   */\n  mul\n    /* \"#utility.yul\":3436:3487   */\n  tag_32\n  jump\t// in\ntag_81:\n    /* \"#utility.yul\":3432:3488   */\n  not\n    /* \"#utility.yul\":3517:3521   */\n  dup1\n    /* \"#utility.yul\":3511:3515   */\n  dup4\n    /* \"#utility.yul\":3507:3522   */\n  and\n    /* \"#utility.yul\":3497:3522   */\n  swap2\n  pop\n    /* \"#utility.yul\":3410:3528   */\n  pop\n    /* \"#utility.yul\":3359:3528   */\n  swap3\n  swap2\n  pop\n  pop\n  jump\t// out\n    /* \"#utility.yul\":3533:3828   */\ntag_34:\n    /* \"#utility.yul\":3609:3613   */\n  0x00\n    /* \"#utility.yul\":3755:3784   */\n  tag_83\n    /* \"#utility.yul\":3780:3783   */\n  dup4\n    /* \"#utility.yul\":3774:3778   */\n  dup4\n    /* \"#utility.yul\":3755:3784   */\n  tag_33\n  jump\t// in\ntag_83:\n    /* \"#utility.yul\":3747:3784   */\n  swap2\n  pop\n    /* \"#utility.yul\":3817:3820   */\n  dup3\n    /* \"#utility.yul\":3814:3815   */\n  0x02\n    /* \"#utility.yul\":3810:3821   */\n  mul\n    /* \"#utility.yul\":3804:3808   */\n  dup3\n    /* \"#utility.yul\":3801:3822   */\n  or\n    /* \"#utility.yul\":3793:3822   */\n  swap1\n  pop\n    /* \"#utility.yul\":3533:3828   */\n  swap3\n  swap2\n  pop\n  pop\n  jump\t// out\n    /* \"#utility.yul\":3833:5228   */\ntag_7:\n    /* \"#utility.yul\":3950:3987   */\n  tag_85\n    /* \"#utility.yul\":3983:3986   */\n  dup3\n    /* \"#utility.yul\":3950:3987   */\n  tag_15\n  jump\t// in\ntag_85:\n    /* \"#utility.yul\":4052:4070   */\n  0xffffffffffffffff\n    /* \"#utility.yul\":4044:4050   */\n  dup2\n    /* \"#utility.yul\":4041:4071   */\n  gt\n    /* \"#utility.yul\":4038:4094   */\n  iszero\n  tag_86\n  jumpi\n    /* \"#utility.yul\":4074:4092   */\n  tag_87\n  tag_16\n  jump\t// in\ntag_87:\n    /* \"#utility.yul\":4038:4094   */\ntag_86:\n    /* \"#utility.yul\":4118:4156   */\n  tag_88\n    /* \"#utility.yul\":4150:4154   */\n  dup3\n    /* \"#utility.yul\":4144:4155   */\n  sload\n    /* \"#utility.yul\":4118:4156   */\n  tag_18\n  jump\t// in\ntag_88:\n    /* \"#utility.yul\":4203:4270   */\n  tag_89\n    /* \"#utility.yul\":4263:4269   */\n  dup3\n    /* \"#utility.yul\":4255:4261   */\n  dup3\n    /* \"#utility.yul\":4249:4253   */\n  dup6\n    /* \"#utility.yul\":4203:4270   */\n  tag_31\n  jump\t// in\ntag_89:\n    /* \"#utility.yul\":4297:4298   */\n  0x00\n    /* \"#utility.yul\":4321:4325   */\n  0x20\n    /* \"#utility.yul\":4308:4325   */\n  swap1\n  pop\n    /* \"#utility.yul\":4353:4355   */\n  0x1f\n    /* \"#utility.yul\":4345:4351   */\n  dup4\n    /* \"#utility.yul\":4342:4356   */\n  gt\n    /* \"#utility.yul\":4370:4371   */\n  0x01\n    /* \"#utility.yul\":4365:4983   */\n  dup2\n  eq\n  tag_91\n  jumpi\n    /* \"#utility.yul\":5027:5028   */\n  0x00\n    /* \"#utility.yul\":5044:5050   */\n  dup5\n    /* \"#utility.yul\":5041:5118   */\n  iszero\n  tag_92\n  jumpi\n    /* \"#utility.yul\":5093:5102   */\n  dup3\n    /* \"#utility.yul\":5088:5091   */\n  dup8\n    /* \"#utility.yul\":5084:5103   */\n  add\n    /* \"#utility.yul\":5078:5104   */\n  mload\n    /* \"#utility.yul\":5069:5104   */\n  swap1\n  pop\n    /* \"#utility.yul\":5041:5118   */\ntag_92:\n    /* \"#utility.yul\":5144:5211   */\n  tag_93\n    /* \"#utility.yul\":5204:5210   */\n  dup6\n    /* \"#utility.yul\":5197:5202   */\n  dup3\n    /* \"#utility.yul\":5144:5211   */\n  tag_34\n  jump\t// in\ntag_93:\n    /* \"#utility.yul\":5138:5142   */\n  dup7\n    /* \"#utility.yul\":5131:5212   */\n  sstore\n    /* \"#utility.yul\":5000:5222   */\n  pop\n    /* \"#utility.yul\":4335:5222   */\n  jump(tag_90)\n    /* \"#utility.yul\":4365:4983   */\ntag_91:\n    /* \"#utility.yul\":4417:4421   */\n  0x1f\n    /* \"#utility.yul\":4413:4422   */\n  not\n    /* \"#utility.yul\":4405:4411   */\n  dup5\n    /* \"#utility.yul\":4401:4423   */\n  and\n    /* \"#utility.yul\":4451:4488   */\n  tag_94\n    /* \"#utility.yul\":4483:4487   */\n  dup7\n    /* \"#utility.yul\":4451:4488   */\n  tag_19\n  jump\t// in\ntag_94:\n    /* \"#utility.yul\":4510:4511   */\n  0x00\n    /* \"#utility.yul\":4524:4732   */\ntag_95:\n    /* \"#utility.yul\":4538:4545   */\n  dup3\n    /* \"#utility.yul\":4535:4536   */\n  dup2\n    /* \"#utility.yul\":4532:4546   */\n  lt\n    /* \"#utility.yul\":4524:4732   */\n  iszero\n  tag_97\n  jumpi\n    /* \"#utility.yul\":4617:4626   */\n  dup5\n    /* \"#utility.yul\":4612:4615   */\n  dup10\n    /* \"#utility.yul\":4608:4627   */\n  add\n    /* \"#utility.yul\":4602:4628   */\n  mload\n    /* \"#utility.yul\":4594:4600   */\n  dup3\n    /* \"#utility.yul\":4587:4629   */\n  sstore\n    /* \"#utility.yul\":4668:4669   */\n  0x01\n    /* \"#utility.yul\":4660:4666   */\n  dup3\n    /* \"#utility.yul\":4656:4670   */\n  add\n    /* \"#utility.yul\":4646:4670   */\n  swap2\n  pop\n    /* \"#utility.yul\":4715:4717   */\n  0x20\n    /* \"#utility.yul\":4704:4713   */\n  dup6\n    /* \"#utility.yul\":4700:4718   */\n  add\n    /* \"#utility.yul\":4687:4718   */\n  swap5\n  pop\n    /* \"#utility.yul\":4561:4565   */\n  0x20\n    /* \"#utility.yul\":4558:4559   */\n  dup2\n    /* \"#utility.yul\":4554:4566   */\n  add\n    /* \"#utility.yul\":4549:4566   */\n  swap1\n  pop\n    /* \"#utility.yul\":4524:4732   */\n  jump(tag_95)\ntag_97:\n    /* \"#utility.yul\":4760:4766   */\n  dup7\n    /* \"#utility.yul\":4751:4758   */\n  dup4\n    /* \"#utility.yul\":4748:4767   */\n  lt\n    /* \"#utility.yul\":4745:4924   */\n  iszero\n  tag_98\n  jumpi\n    /* \"#utility.yul\":4818:4827   */\n  dup5\n    /* \"#utility.yul\":4813:4816   */\n  dup10\n    /* \"#utility.yul\":4809:4828   */\n  add\n    /* \"#utility.yul\":4803:4829   */\n  mload\n    /* \"#utility.yul\":4861:4909   */\n  tag_99\n    /* \"#utility.yul\":4903:4907   */\n  0x1f\n    /* \"#utility.yul\":4895:4901   */\n  dup10\n    /* \"#utility.yul\":4891:4908   */\n  and\n    /* \"#utility.yul\":4880:4889   */\n  dup3\n    /* \"#utility.yul\":4861:4909   */\n  tag_33\n  jump\t// in\ntag_99:\n    /* \"#utility.yul\":4853:4859   */\n  dup4\n    /* \"#utility.yul\":4846:4910   */\n  sstore\n    /* \"#utility.yul\":4768:4924   */\n  pop\n    /* \"#utility.yul\":4745:4924   */\ntag_98:\n    /* \"#utility.yul\":4970:4971   */\n  0x01\n    /* \"#utility.yul\":4966:4967   */\n  0x02\n    /* \"#utility.yul\":4958:4964   */\n  dup9\n    /* \"#utility.yul\":4954:4968   */\n  mul\n    /* \"#utility.yul\":4950:4972   */\n  add\n    /* \"#utility.yul\":4944:4948   */\n  dup9\n    /* \"#utility.yul\":4937:4973   */\n  sstore\n    /* \"#utility.yul\":4372:4983   */\n  pop\n  pop\n  pop\n    /* \"#utility.yul\":4335:5222   */\ntag_90:\n  pop\n    /* \"#utility.yul\":3925:5228   */\n  pop\n  pop\n  pop\n    /* \"#utility.yul\":3833:5228   */\n  pop\n  pop\n  jump\t// out\n    /* \"#utility.yul\":5234:5403   */\ntag_35:\n    /* \"#utility.yul\":5318:5329   */\n  0x00\n    /* \"#utility.yul\":5352:5358   */\n  dup3\n    /* \"#utility.yul\":5347:5350   */\n  dup3\n    /* \"#utility.yul\":5340:5359   */\n  mstore\n    /* \"#utility.yul\":5392:5396   */\n  0x20\n    /* \"#utility.yul\":5387:5390   */\n  dup3\n    /* \"#utility.yul\":5383:5397   */\n  add\n    /* \"#utility.yul\":5368:5397   */\n  swap1\n  pop\n    /* \"#utility.yul\":5234:5403   */\n  swap3\n  swap2\n  pop\n  pop\n  jump\t// out\n    /* \"#utility.yul\":5409:5580   */\ntag_36:\n    /* \"#utility.yul\":5549:5572   */\n  0x45524332304361707065643a2063617020697320300000000000000000000000\n    /* \"#utility.yul\":5545:5546   */\n  0x00\n    /* \"#utility.yul\":5537:5543   */\n  dup3\n    /* \"#utility.yul\":5533:5547   */\n  add\n    /* \"#utility.yul\":5526:5573   */\n  mstore\n    /* \"#utility.yul\":5409:5580   */\n  pop\n  jump\t// out\n    /* \"#utility.yul\":5586:5952   */\ntag_37:\n    /* \"#utility.yul\":5728:5731   */\n  0x00\n    /* \"#utility.yul\":5749:5816   */\n  tag_103\n    /* \"#utility.yul\":5813:5815   */\n  0x15\n    /* \"#utility.yul\":5808:5811   */\n  dup4\n    /* \"#utility.yul\":5749:5816   */\n  tag_35\n  jump\t// in\ntag_103:\n    /* \"#utility.yul\":5742:5816   */\n  swap2\n  pop\n    /* \"#utility.yul\":5825:5918   */\n  tag_104\n    /* \"#utility.yul\":5914:5917   */\n  dup3\n    /* \"#utility.yul\":5825:5918   */\n  tag_36\n  jump\t// in\ntag_104:\n    /* \"#utility.yul\":5943:5945   */\n  0x20\n    /* \"#utility.yul\":5938:5941   */\n  dup3\n    /* \"#utility.yul\":5934:5946   */\n  add\n    /* \"#utility.yul\":5927:5946   */\n  swap1\n  pop\n    /* \"#utility.yul\":5586:5952   */\n  swap2\n  swap1\n  pop\n  jump\t// out\n    /* \"#utility.yul\":5958:6377   */\ntag_12:\n    /* \"#utility.yul\":6124:6128   */\n  0x00\n    /* \"#utility.yul\":6162:6164   */\n  0x20\n    /* \"#utility.yul\":6151:6160   */\n  dup3\n    /* \"#utility.yul\":6147:6165   */\n  add\n    /* \"#utility.yul\":6139:6165   */\n  swap1\n  pop\n    /* \"#utility.yul\":6211:6220   */\n  dup2\n    /* \"#utility.yul\":6205:6209   */\n  dup2\n    /* \"#utility.yul\":6201:6221   */\n  sub\n    /* \"#utility.yul\":6197:6198   */\n  0x00\n    /* \"#utility.yul\":6186:6195   */\n  dup4\n    /* \"#utility.yul\":6182:6199   */\n  add\n    /* \"#utility.yul\":6175:6222   */\n  mstore\n    /* \"#utility.yul\":6239:6370   */\n  tag_106\n    /* \"#utility.yul\":6365:6369   */\n  dup2\n    /* \"#utility.yul\":6239:6370   */\n  tag_37\n  jump\t// in\ntag_106:\n    /* \"#utility.yul\":6231:6370   */\n  swap1\n  pop\n    /* \"#utility.yul\":5958:6377   */\n  swap2\n  swap1\n  pop\n  jump\t// out\n    /* \"contracts/XENDoge.sol\":343:3917  contract XENDoge is ERC20Capped, IERC165, IBurnRedeemable { ... */\ntag_14:\n  mload(0x80)\n  codecopy(0x00, dataOffset(sub_0), dataSize(sub_0))\n  0x00\n  assignImmutable(\"0x3458437a5f15baa46336263fead0d1d72e4acda03961eb239e7d1c02a1c98ad3\")\n  return(0x00, dataSize(sub_0))\nstop\n\nsub_0: assembly {\n        /* \"contracts/XENDoge.sol\":343:3917  contract XENDoge is ERC20Capped, IERC165, IBurnRedeemable { ... */\n      mstore(0x40, 0x80)\n      jumpi(tag_1, lt(calldatasize, 0x04))\n      shr(0xe0, calldataload(0x00))\n      dup1\n      0x543746b1\n      gt\n      tag_22\n      jumpi\n      dup1\n      0xa457c2d7\n      gt\n      tag_23\n      jumpi\n      dup1\n      0xa457c2d7\n      eq\n      tag_17\n      jumpi\n      dup1\n      0xa9059cbb\n      eq\n      tag_18\n      jumpi\n      dup1\n      0xbc1d089a\n      eq\n      tag_19\n      jumpi\n      dup1\n      0xdd62ed3e\n      eq\n      tag_20\n      jumpi\n      dup1\n      0xf8e726d1\n      eq\n      tag_21\n      jumpi\n      jump(tag_1)\n    tag_23:\n      dup1\n      0x543746b1\n      eq\n      tag_12\n      jumpi\n      dup1\n      0x579436fc\n      eq\n      tag_13\n      jumpi\n      dup1\n      0x6630a05e\n      eq\n      tag_14\n      jumpi\n      dup1\n      0x70a08231\n      eq\n      tag_15\n      jumpi\n      dup1\n      0x95d89b41\n      eq\n      tag_16\n      jumpi\n      jump(tag_1)\n    tag_22:\n      dup1\n      0x1a6cef14\n      gt\n      tag_24\n      jumpi\n      dup1\n      0x1a6cef14\n      eq\n      tag_7\n      jumpi\n      dup1\n      0x23b872dd\n      eq\n      tag_8\n      jumpi\n      dup1\n      0x313ce567\n      eq\n      tag_9\n      jumpi\n      dup1\n      0x355274ea\n      eq\n      tag_10\n      jumpi\n      dup1\n      0x39509351\n      eq\n      tag_11\n      jumpi\n      jump(tag_1)\n    tag_24:\n      dup1\n      0xb37044\n      eq\n      tag_2\n      jumpi\n      dup1\n      0x01ffc9a7\n      eq\n      tag_3\n      jumpi\n      dup1\n      0x06fdde03\n      eq\n      tag_4\n      jumpi\n      dup1\n      0x095ea7b3\n      eq\n      tag_5\n      jumpi\n      dup1\n      0x18160ddd\n      eq\n      tag_6\n      jumpi\n    tag_1:\n      0x00\n      dup1\n      revert\n        /* \"contracts/XENDoge.sol\":697:728  uint256 public totalDonated = 0 */\n    tag_2:\n      callvalue\n      dup1\n      iszero\n      tag_25\n      jumpi\n      0x00\n      dup1\n      revert\n    tag_25:\n      pop\n      tag_26\n      tag_27\n      jump\t// in\n    tag_26:\n      mload(0x40)\n      tag_28\n      swap2\n      swap1\n      tag_29\n      jump\t// in\n    tag_28:\n      mload(0x40)\n      dup1\n      swap2\n      sub\n      swap1\n      return\n        /* \"contracts/XENDoge.sol\":830:1045  function supportsInterface(bytes4 interfaceId) public view virtual override returns (bool) {... */\n    tag_3:\n      callvalue\n      dup1\n      iszero\n      tag_30\n      jumpi\n      0x00\n      dup1\n      revert\n    tag_30:\n      pop\n      tag_31\n      0x04\n      dup1\n      calldatasize\n      sub\n      dup2\n      add\n      swap1\n      tag_32\n      swap2\n      swap1\n      tag_33\n      jump\t// in\n    tag_32:\n      tag_34\n      jump\t// in\n    tag_31:\n      mload(0x40)\n      tag_35\n      swap2\n      swap1\n      tag_36\n      jump\t// in\n    tag_35:\n      mload(0x40)\n      dup1\n      swap2\n      sub\n      swap1\n      return\n        /* \"@openzeppelin/contracts/token/ERC20/ERC20.sol\":2154:2252  function name() public view virtual override returns (string memory) {... */\n    tag_4:\n      callvalue\n      dup1\n      iszero\n      tag_37\n      jumpi\n      0x00\n      dup1\n      revert\n    tag_37:\n      pop\n      tag_38\n      tag_39\n      jump\t// in\n    tag_38:\n      mload(0x40)\n      tag_40\n      swap2\n      swap1\n      tag_41\n      jump\t// in\n    tag_40:\n      mload(0x40)\n      dup1\n      swap2\n      sub\n      swap1\n      return\n        /* \"@openzeppelin/contracts/token/ERC20/ERC20.sol\":4431:4628  function approve(address spender, uint256 amount) public virtual override returns (bool) {... */\n    tag_5:\n      callvalue\n      dup1\n      iszero\n      tag_42\n      jumpi\n      0x00\n      dup1\n      revert\n    tag_42:\n      pop\n      tag_43\n      0x04\n      dup1\n      calldatasize\n      sub\n      dup2\n      add\n      swap1\n      tag_44\n      swap2\n      swap1\n      tag_45\n      jump\t// in\n    tag_44:\n      tag_46\n      jump\t// in\n    tag_43:\n      mload(0x40)\n      tag_47\n      swap2\n      swap1\n      tag_36\n      jump\t// in\n    tag_47:\n      mload(0x40)\n      dup1\n      swap2\n      sub\n      swap1\n      return\n        /* \"@openzeppelin/contracts/token/ERC20/ERC20.sol\":3242:3348  function totalSupply() public view virtual override returns (uint256) {... */\n    tag_6:\n      callvalue\n      dup1\n      iszero\n      tag_48\n      jumpi\n      0x00\n      dup1\n      revert\n    tag_48:\n      pop\n      tag_49\n      tag_50\n      jump\t// in\n    tag_49:\n      mload(0x40)\n      tag_51\n      swap2\n      swap1\n      tag_29\n      jump\t// in\n    tag_51:\n      mload(0x40)\n      dup1\n      swap2\n      sub\n      swap1\n      return\n        /* \"contracts/XENDoge.sol\":605:650  uint256 public constant XEN_BURN_RATIO = 1000 */\n    tag_7:\n      callvalue\n      dup1\n      iszero\n      tag_52\n      jumpi\n      0x00\n      dup1\n      revert\n    tag_52:\n      pop\n      tag_53\n      tag_54\n      jump\t// in\n    tag_53:\n      mload(0x40)\n      tag_55\n      swap2\n      swap1\n      tag_29\n      jump\t// in\n    tag_55:\n      mload(0x40)\n      dup1\n      swap2\n      sub\n      swap1\n      return\n        /* \"@openzeppelin/contracts/token/ERC20/ERC20.sol\":5190:5476  function transferFrom(... */\n    tag_8:\n      callvalue\n      dup1\n      iszero\n      tag_56\n      jumpi\n      0x00\n      dup1\n      revert\n    tag_56:\n      pop\n      tag_57\n      0x04\n      dup1\n      calldatasize\n      sub\n      dup2\n      add\n      swap1\n      tag_58\n      swap2\n      swap1\n      tag_59\n      jump\t// in\n    tag_58:\n      tag_60\n      jump\t// in\n    tag_57:\n      mload(0x40)\n      tag_61\n      swap2\n      swap1\n      tag_36\n      jump\t// in\n    tag_61:\n      mload(0x40)\n      dup1\n      swap2\n      sub\n      swap1\n      return\n        /* \"@openzeppelin/contracts/token/ERC20/ERC20.sol\":3091:3182  function decimals() public view virtual override returns (uint8) {... */\n    tag_9:\n      callvalue\n      dup1\n      iszero\n      tag_62\n      jumpi\n      0x00\n      dup1\n      revert\n    tag_62:\n      pop\n      tag_63\n      tag_64\n      jump\t// in\n    tag_63:\n      mload(0x40)\n      tag_65\n      swap2\n      swap1\n      tag_66\n      jump\t// in\n    tag_65:\n      mload(0x40)\n      dup1\n      swap2\n      sub\n      swap1\n      return\n        /* \"@openzeppelin/contracts/token/ERC20/extensions/ERC20Capped.sol\":635:716  function cap() public view virtual returns (uint256) {... */\n    tag_10:\n      callvalue\n      dup1\n      iszero\n      tag_67\n      jumpi\n      0x00\n      dup1\n      revert\n    tag_67:\n      pop\n      tag_68\n      tag_69\n      jump\t// in\n    tag_68:\n      mload(0x40)\n      tag_70\n      swap2\n      swap1\n      tag_29\n      jump\t// in\n    tag_70:\n      mload(0x40)\n      dup1\n      swap2\n      sub\n      swap1\n      return\n        /* \"@openzeppelin/contracts/token/ERC20/ERC20.sol\":5871:6105  function increaseAllowance(address spender, uint256 addedValue) public virtual returns (bool) {... */\n    tag_11:\n      callvalue\n      dup1\n      iszero\n      tag_71\n      jumpi\n      0x00\n      dup1\n      revert\n    tag_71:\n      pop\n      tag_72\n      0x04\n      dup1\n      calldatasize\n      sub\n      dup2\n      add\n      swap1\n      tag_73\n      swap2\n      swap1\n      tag_45\n      jump\t// in\n    tag_73:\n      tag_74\n      jump\t// in\n    tag_72:\n      mload(0x40)\n      tag_75\n      swap2\n      swap1\n      tag_36\n      jump\t// in\n    tag_75:\n      mload(0x40)\n      dup1\n      swap2\n      sub\n      swap1\n      return\n        /* \"contracts/XENDoge.sol\":1259:1792  function onTokenBurned(address user, uint256 amount) external {... */\n    tag_12:\n      callvalue\n      dup1\n      iszero\n      tag_76\n      jumpi\n      0x00\n      dup1\n      revert\n    tag_76:\n      pop\n      tag_77\n      0x04\n      dup1\n      calldatasize\n      sub\n      dup2\n      add\n      swap1\n      tag_78\n      swap2\n      swap1\n      tag_45\n      jump\t// in\n    tag_78:\n      tag_79\n      jump\t// in\n    tag_77:\n      stop\n        /* \"contracts/XENDoge.sol\":657:690  uint256 public totalXenBurned = 0 */\n    tag_13:\n      callvalue\n      dup1\n      iszero\n      tag_80\n      jumpi\n      0x00\n      dup1\n      revert\n    tag_80:\n      pop\n      tag_81\n      tag_82\n      jump\t// in\n    tag_81:\n      mload(0x40)\n      tag_83\n      swap2\n      swap1\n      tag_29\n      jump\t// in\n    tag_83:\n      mload(0x40)\n      dup1\n      swap2\n      sub\n      swap1\n      return\n        /* \"contracts/XENDoge.sol\":1053:1251  function burnXEN(uint256 xen) public payable {... */\n    tag_14:\n      tag_84\n      0x04\n      dup1\n      calldatasize\n      sub\n      dup2\n      add\n      swap1\n      tag_85\n      swap2\n      swap1\n      tag_86\n      jump\t// in\n    tag_85:\n      tag_87\n      jump\t// in\n    tag_84:\n      stop\n        /* \"@openzeppelin/contracts/token/ERC20/ERC20.sol\":3406:3531  function balanceOf(address account) public view virtual override returns (uint256) {... */\n    tag_15:\n      callvalue\n      dup1\n      iszero\n      tag_88\n      jumpi\n      0x00\n      dup1\n      revert\n    tag_88:\n      pop\n      tag_89\n      0x04\n      dup1\n      calldatasize\n      sub\n      dup2\n      add\n      swap1\n      tag_90\n      swap2\n      swap1\n      tag_91\n      jump\t// in\n    tag_90:\n      tag_92\n      jump\t// in\n    tag_89:\n      mload(0x40)\n      tag_93\n      swap2\n      swap1\n      tag_29\n      jump\t// in\n    tag_93:\n      mload(0x40)\n      dup1\n      swap2\n      sub\n      swap1\n      return\n        /* \"@openzeppelin/contracts/token/ERC20/ERC20.sol\":2365:2467  function symbol() public view virtual override returns (string memory) {... */\n    tag_16:\n      callvalue\n      dup1\n      iszero\n      tag_94\n      jumpi\n      0x00\n      dup1\n      revert\n    tag_94:\n      pop\n      tag_95\n      tag_96\n      jump\t// in\n    tag_95:\n      mload(0x40)\n      tag_97\n      swap2\n      swap1\n      tag_41\n      jump\t// in\n    tag_97:\n      mload(0x40)\n      dup1\n      swap2\n      sub\n      swap1\n      return\n        /* \"@openzeppelin/contracts/token/ERC20/ERC20.sol\":6592:7019  function decreaseAllowance(address spender, uint256 subtractedValue) public virtual returns (bool) {... */\n    tag_17:\n      callvalue\n      dup1\n      iszero\n      tag_98\n      jumpi\n      0x00\n      dup1\n      revert\n    tag_98:\n      pop\n      tag_99\n      0x04\n      dup1\n      calldatasize\n      sub\n      dup2\n      add\n      swap1\n      tag_100\n      swap2\n      swap1\n      tag_45\n      jump\t// in\n    tag_100:\n      tag_101\n      jump\t// in\n    tag_99:\n      mload(0x40)\n      tag_102\n      swap2\n      swap1\n      tag_36\n      jump\t// in\n    tag_102:\n      mload(0x40)\n      dup1\n      swap2\n      sub\n      swap1\n      return\n        /* \"@openzeppelin/contracts/token/ERC20/ERC20.sol\":3727:3916  function transfer(address to, uint256 amount) public virtual override returns (bool) {... */\n    tag_18:\n      callvalue\n      dup1\n      iszero\n      tag_103\n      jumpi\n      0x00\n      dup1\n      revert\n    tag_103:\n      pop\n      tag_104\n      0x04\n      dup1\n      calldatasize\n      sub\n      dup2\n      add\n      swap1\n      tag_105\n      swap2\n      swap1\n      tag_45\n      jump\t// in\n    tag_105:\n      tag_106\n      jump\t// in\n    tag_104:\n      mload(0x40)\n      tag_107\n      swap2\n      swap1\n      tag_36\n      jump\t// in\n    tag_107:\n      mload(0x40)\n      dup1\n      swap2\n      sub\n      swap1\n      return\n        /* \"contracts/XENDoge.sol\":409:489  address public constant XEN_ADDRESS = 0xD342D63466B520d8D331CaFF863900d402Aa5b00 */\n    tag_19:\n      callvalue\n      dup1\n      iszero\n      tag_108\n      jumpi\n      0x00\n      dup1\n      revert\n    tag_108:\n      pop\n      tag_109\n      tag_110\n      jump\t// in\n    tag_109:\n      mload(0x40)\n      tag_111\n      swap2\n      swap1\n      tag_112\n      jump\t// in\n    tag_111:\n      mload(0x40)\n      dup1\n      swap2\n      sub\n      swap1\n      return\n        /* \"@openzeppelin/contracts/token/ERC20/ERC20.sol\":3974:4123  function allowance(address owner, address spender) public view virtual override returns (uint256) {... */\n    tag_20:\n      callvalue\n      dup1\n      iszero\n      tag_113\n      jumpi\n      0x00\n      dup1\n      revert\n    tag_113:\n      pop\n      tag_114\n      0x04\n      dup1\n      calldatasize\n      sub\n      dup2\n      add\n      swap1\n      tag_115\n      swap2\n      swap1\n      tag_116\n      jump\t// in\n    tag_115:\n      tag_117\n      jump\t// in\n    tag_114:\n      mload(0x40)\n      tag_118\n      swap2\n      swap1\n      tag_29\n      jump\t// in\n    tag_118:\n      mload(0x40)\n      dup1\n      swap2\n      sub\n      swap1\n      return\n        /* \"contracts/XENDoge.sol\":496:598  address payable public constant DONATION_ADDRESS = payable(0xc475b02C2e2D6D2Dd20c1D8c6fB9Cf9a4D23165e) */\n    tag_21:\n      callvalue\n      dup1\n      iszero\n      tag_119\n      jumpi\n      0x00\n      dup1\n      revert\n    tag_119:\n      pop\n      tag_120\n      tag_121\n      jump\t// in\n    tag_120:\n      mload(0x40)\n      tag_122\n      swap2\n      swap1\n      tag_123\n      jump\t// in\n    tag_122:\n      mload(0x40)\n      dup1\n      swap2\n      sub\n      swap1\n      return\n        /* \"contracts/XENDoge.sol\":697:728  uint256 public totalDonated = 0 */\n    tag_27:\n      sload(0x06)\n      dup2\n      jump\t// out\n        /* \"contracts/XENDoge.sol\":830:1045  function supportsInterface(bytes4 interfaceId) public view virtual override returns (bool) {... */\n    tag_34:\n        /* \"contracts/XENDoge.sol\":915:919  bool */\n      0x00\n        /* \"contracts/XENDoge.sol\":954:987  type(IBurnRedeemable).interfaceId */\n      0x543746b100000000000000000000000000000000000000000000000000000000\n        /* \"contracts/XENDoge.sol\":939:987  interfaceId == type(IBurnRedeemable).interfaceId */\n      not(0xffffffffffffffffffffffffffffffffffffffffffffffffffffffff)\n      and\n        /* \"contracts/XENDoge.sol\":939:950  interfaceId */\n      dup3\n        /* \"contracts/XENDoge.sol\":939:987  interfaceId == type(IBurnRedeemable).interfaceId */\n      not(0xffffffffffffffffffffffffffffffffffffffffffffffffffffffff)\n      and\n      eq\n        /* \"contracts/XENDoge.sol\":939:1037  interfaceId == type(IBurnRedeemable).interfaceId || interfaceId == this.supportsInterface.selector */\n      dup1\n      tag_125\n      jumpi\n      pop\n        /* \"contracts/XENDoge.sol\":1006:1037  this.supportsInterface.selector */\n      shl(0xe0, 0x01ffc9a7)\n        /* \"contracts/XENDoge.sol\":991:1037  interfaceId == this.supportsInterface.selector */\n      not(0xffffffffffffffffffffffffffffffffffffffffffffffffffffffff)\n      and\n        /* \"contracts/XENDoge.sol\":991:1002  interfaceId */\n      dup3\n        /* \"contracts/XENDoge.sol\":991:1037  interfaceId == this.supportsInterface.selector */\n      not(0xffffffffffffffffffffffffffffffffffffffffffffffffffffffff)\n      and\n      eq\n        /* \"contracts/XENDoge.sol\":939:1037  interfaceId == type(IBurnRedeemable).interfaceId || interfaceId == this.supportsInterface.selector */\n    tag_125:\n        /* \"contracts/XENDoge.sol\":932:1037  return interfaceId == type(IBurnRedeemable).interfaceId || interfaceId == this.supportsInterface.selector */\n      swap1\n      pop\n        /* \"contracts/XENDoge.sol\":830:1045  function supportsInterface(bytes4 interfaceId) public view virtual override returns (bool) {... */\n      swap2\n      swap1\n      pop\n      jump\t// out\n        /* \"@openzeppelin/contracts/token/ERC20/ERC20.sol\":2154:2252  function name() public view virtual override returns (string memory) {... */\n    tag_39:\n        /* \"@openzeppelin/contracts/token/ERC20/ERC20.sol\":2208:2221  string memory */\n      0x60\n        /* \"@openzeppelin/contracts/token/ERC20/ERC20.sol\":2240:2245  _name */\n      0x03\n        /* \"@openzeppelin/contracts/token/ERC20/ERC20.sol\":2233:2245  return _name */\n      dup1\n      sload\n      tag_127\n      swap1\n      tag_128\n      jump\t// in\n    tag_127:\n      dup1\n      0x1f\n      add\n      0x20\n      dup1\n      swap2\n      div\n      mul\n      0x20\n      add\n      mload(0x40)\n      swap1\n      dup2\n      add\n      0x40\n      mstore\n      dup1\n      swap3\n      swap2\n      swap1\n      dup2\n      dup2\n      mstore\n      0x20\n      add\n      dup3\n      dup1\n      sload\n      tag_129\n      swap1\n      tag_128\n      jump\t// in\n    tag_129:\n      dup1\n      iszero\n      tag_130\n      jumpi\n      dup1\n      0x1f\n      lt\n      tag_131\n      jumpi\n      0x0100\n      dup1\n      dup4\n      sload\n      div\n      mul\n      dup4\n      mstore\n      swap2\n      0x20\n      add\n      swap2\n      jump(tag_130)\n    tag_131:\n      dup3\n      add\n      swap2\n      swap1\n      0x00\n      mstore\n      keccak256(0x00, 0x20)\n      swap1\n    tag_132:\n      dup2\n      sload\n      dup2\n      mstore\n      swap1\n      0x01\n      add\n      swap1\n      0x20\n      add\n      dup1\n      dup4\n      gt\n      tag_132\n      jumpi\n      dup3\n      swap1\n      sub\n      0x1f\n      and\n      dup3\n      add\n      swap2\n    tag_130:\n      pop\n      pop\n      pop\n      pop\n      pop\n      swap1\n      pop\n        /* \"@openzeppelin/contracts/token/ERC20/ERC20.sol\":2154:2252  function name() public view virtual override returns (string memory) {... */\n      swap1\n      jump\t// out\n        /* \"@openzeppelin/contracts/token/ERC20/ERC20.sol\":4431:4628  function approve(address spender, uint256 amount) public virtual override returns (bool) {... */\n    tag_46:\n        /* \"@openzeppelin/contracts/token/ERC20/ERC20.sol\":4514:4518  bool */\n      0x00\n        /* \"@openzeppelin/contracts/token/ERC20/ERC20.sol\":4530:4543  address owner */\n      dup1\n        /* \"@openzeppelin/contracts/token/ERC20/ERC20.sol\":4546:4558  _msgSender() */\n      tag_134\n        /* \"@openzeppelin/contracts/token/ERC20/ERC20.sol\":4546:4556  _msgSender */\n      tag_135\n        /* \"@openzeppelin/contracts/token/ERC20/ERC20.sol\":4546:4558  _msgSender() */\n      jump\t// in\n    tag_134:\n        /* \"@openzeppelin/contracts/token/ERC20/ERC20.sol\":4530:4558  address owner = _msgSender() */\n      swap1\n      pop\n        /* \"@openzeppelin/contracts/token/ERC20/ERC20.sol\":4568:4600  _approve(owner, spender, amount) */\n      tag_136\n        /* \"@openzeppelin/contracts/token/ERC20/ERC20.sol\":4577:4582  owner */\n      dup2\n        /* \"@openzeppelin/contracts/token/ERC20/ERC20.sol\":4584:4591  spender */\n      dup6\n        /* \"@openzeppelin/contracts/token/ERC20/ERC20.sol\":4593:4599  amount */\n      dup6\n        /* \"@openzeppelin/contracts/token/ERC20/ERC20.sol\":4568:4576  _approve */\n      tag_137\n        /* \"@openzeppelin/contracts/token/ERC20/ERC20.sol\":4568:4600  _approve(owner, spender, amount) */\n      jump\t// in\n    tag_136:\n        /* \"@openzeppelin/contracts/token/ERC20/ERC20.sol\":4617:4621  true */\n      0x01\n        /* \"@openzeppelin/contracts/token/ERC20/ERC20.sol\":4610:4621  return true */\n      swap2\n      pop\n      pop\n        /* \"@openzeppelin/contracts/token/ERC20/ERC20.sol\":4431:4628  function approve(address spender, uint256 amount) public virtual override returns (bool) {... */\n      swap3\n      swap2\n      pop\n      pop\n      jump\t// out\n        /* \"@openzeppelin/contracts/token/ERC20/ERC20.sol\":3242:3348  function totalSupply() public view virtual override returns (uint256) {... */\n    tag_50:\n        /* \"@openzeppelin/contracts/token/ERC20/ERC20.sol\":3303:3310  uint256 */\n      0x00\n        /* \"@openzeppelin/contracts/token/ERC20/ERC20.sol\":3329:3341  _totalSupply */\n      sload(0x02)\n        /* \"@openzeppelin/contracts/token/ERC20/ERC20.sol\":3322:3341  return _totalSupply */\n      swap1\n      pop\n        /* \"@openzeppelin/contracts/token/ERC20/ERC20.sol\":3242:3348  function totalSupply() public view virtual override returns (uint256) {... */\n      swap1\n      jump\t// out\n        /* \"contracts/XENDoge.sol\":605:650  uint256 public constant XEN_BURN_RATIO = 1000 */\n    tag_54:\n        /* \"contracts/XENDoge.sol\":646:650  1000 */\n      0x03e8\n        /* \"contracts/XENDoge.sol\":605:650  uint256 public constant XEN_BURN_RATIO = 1000 */\n      dup2\n      jump\t// out\n        /* \"@openzeppelin/contracts/token/ERC20/ERC20.sol\":5190:5476  function transferFrom(... */\n    tag_60:\n        /* \"@openzeppelin/contracts/token/ERC20/ERC20.sol\":5317:5321  bool */\n      0x00\n        /* \"@openzeppelin/contracts/token/ERC20/ERC20.sol\":5333:5348  address spender */\n      dup1\n        /* \"@openzeppelin/contracts/token/ERC20/ERC20.sol\":5351:5363  _msgSender() */\n      tag_140\n        /* \"@openzeppelin/contracts/token/ERC20/ERC20.sol\":5351:5361  _msgSender */\n      tag_135\n        /* \"@openzeppelin/contracts/token/ERC20/ERC20.sol\":5351:5363  _msgSender() */\n      jump\t// in\n    tag_140:\n        /* \"@openzeppelin/contracts/token/ERC20/ERC20.sol\":5333:5363  address spender = _msgSender() */\n      swap1\n      pop\n        /* \"@openzeppelin/contracts/token/ERC20/ERC20.sol\":5373:5411  _spendAllowance(from, spender, amount) */\n      tag_141\n        /* \"@openzeppelin/contracts/token/ERC20/ERC20.sol\":5389:5393  from */\n      dup6\n        /* \"@openzeppelin/contracts/token/ERC20/ERC20.sol\":5395:5402  spender */\n      dup3\n        /* \"@openzeppelin/contracts/token/ERC20/ERC20.sol\":5404:5410  amount */\n      dup6\n        /* \"@openzeppelin/contracts/token/ERC20/ERC20.sol\":5373:5388  _spendAllowance */\n      tag_142\n        /* \"@openzeppelin/contracts/token/ERC20/ERC20.sol\":5373:5411  _spendAllowance(from, spender, amount) */\n      jump\t// in\n    tag_141:\n        /* \"@openzeppelin/contracts/token/ERC20/ERC20.sol\":5421:5448  _transfer(from, to, amount) */\n      tag_143\n        /* \"@openzeppelin/contracts/token/ERC20/ERC20.sol\":5431:5435  from */\n      dup6\n        /* \"@openzeppelin/contracts/token/ERC20/ERC20.sol\":5437:5439  to */\n      dup6\n        /* \"@openzeppelin/contracts/token/ERC20/ERC20.sol\":5441:5447  amount */\n      dup6\n        /* \"@openzeppelin/contracts/token/ERC20/ERC20.sol\":5421:5430  _transfer */\n      tag_144\n        /* \"@openzeppelin/contracts/token/ERC20/ERC20.sol\":5421:5448  _transfer(from, to, amount) */\n      jump\t// in\n    tag_143:\n        /* \"@openzeppelin/contracts/token/ERC20/ERC20.sol\":5465:5469  true */\n      0x01\n        /* \"@openzeppelin/contracts/token/ERC20/ERC20.sol\":5458:5469  return true */\n      swap2\n      pop\n      pop\n        /* \"@openzeppelin/contracts/token/ERC20/ERC20.sol\":5190:5476  function transferFrom(... */\n      swap4\n      swap3\n      pop\n      pop\n      pop\n      jump\t// out\n        /* \"@openzeppelin/contracts/token/ERC20/ERC20.sol\":3091:3182  function decimals() public view virtual override returns (uint8) {... */\n    tag_64:\n        /* \"@openzeppelin/contracts/token/ERC20/ERC20.sol\":3149:3154  uint8 */\n      0x00\n        /* \"@openzeppelin/contracts/token/ERC20/ERC20.sol\":3173:3175  18 */\n      0x12\n        /* \"@openzeppelin/contracts/token/ERC20/ERC20.sol\":3166:3175  return 18 */\n      swap1\n      pop\n        /* \"@openzeppelin/contracts/token/ERC20/ERC20.sol\":3091:3182  function decimals() public view virtual override returns (uint8) {... */\n      swap1\n      jump\t// out\n        /* \"@openzeppelin/contracts/token/ERC20/extensions/ERC20Capped.sol\":635:716  function cap() public view virtual returns (uint256) {... */\n    tag_69:\n        /* \"@openzeppelin/contracts/token/ERC20/extensions/ERC20Capped.sol\":679:686  uint256 */\n      0x00\n        /* \"@openzeppelin/contracts/token/ERC20/extensions/ERC20Capped.sol\":705:709  _cap */\n      immutable(\"0x3458437a5f15baa46336263fead0d1d72e4acda03961eb239e7d1c02a1c98ad3\")\n        /* \"@openzeppelin/contracts/token/ERC20/extensions/ERC20Capped.sol\":698:709  return _cap */\n      swap1\n      pop\n        /* \"@openzeppelin/contracts/token/ERC20/extensions/ERC20Capped.sol\":635:716  function cap() public view virtual returns (uint256) {... */\n      swap1\n      jump\t// out\n        /* \"@openzeppelin/contracts/token/ERC20/ERC20.sol\":5871:6105  function increaseAllowance(address spender, uint256 addedValue) public virtual returns (bool) {... */\n    tag_74:\n        /* \"@openzeppelin/contracts/token/ERC20/ERC20.sol\":5959:5963  bool */\n      0x00\n        /* \"@openzeppelin/contracts/token/ERC20/ERC20.sol\":5975:5988  address owner */\n      dup1\n        /* \"@openzeppelin/contracts/token/ERC20/ERC20.sol\":5991:6003  _msgSender() */\n      tag_148\n        /* \"@openzeppelin/contracts/token/ERC20/ERC20.sol\":5991:6001  _msgSender */\n      tag_135\n        /* \"@openzeppelin/contracts/token/ERC20/ERC20.sol\":5991:6003  _msgSender() */\n      jump\t// in\n    tag_148:\n        /* \"@openzeppelin/contracts/token/ERC20/ERC20.sol\":5975:6003  address owner = _msgSender() */\n      swap1\n      pop\n        /* \"@openzeppelin/contracts/token/ERC20/ERC20.sol\":6013:6077  _approve(owner, spender, allowance(owner, spender) + addedValue) */\n      tag_149\n        /* \"@openzeppelin/contracts/token/ERC20/ERC20.sol\":6022:6027  owner */\n      dup2\n        /* \"@openzeppelin/contracts/token/ERC20/ERC20.sol\":6029:6036  spender */\n      dup6\n        /* \"@openzeppelin/contracts/token/ERC20/ERC20.sol\":6066:6076  addedValue */\n      dup6\n        /* \"@openzeppelin/contracts/token/ERC20/ERC20.sol\":6038:6063  allowance(owner, spender) */\n      tag_150\n        /* \"@openzeppelin/contracts/token/ERC20/ERC20.sol\":6048:6053  owner */\n      dup6\n        /* \"@openzeppelin/contracts/token/ERC20/ERC20.sol\":6055:6062  spender */\n      dup10\n        /* \"@openzeppelin/contracts/token/ERC20/ERC20.sol\":6038:6047  allowance */\n      tag_117\n        /* \"@openzeppelin/contracts/token/ERC20/ERC20.sol\":6038:6063  allowance(owner, spender) */\n      jump\t// in\n    tag_150:\n        /* \"@openzeppelin/contracts/token/ERC20/ERC20.sol\":6038:6076  allowance(owner, spender) + addedValue */\n      tag_151\n      swap2\n      swap1\n      tag_152\n      jump\t// in\n    tag_151:\n        /* \"@openzeppelin/contracts/token/ERC20/ERC20.sol\":6013:6021  _approve */\n      tag_137\n        /* \"@openzeppelin/contracts/token/ERC20/ERC20.sol\":6013:6077  _approve(owner, spender, allowance(owner, spender) + addedValue) */\n      jump\t// in\n    tag_149:\n        /* \"@openzeppelin/contracts/token/ERC20/ERC20.sol\":6094:6098  true */\n      0x01\n        /* \"@openzeppelin/contracts/token/ERC20/ERC20.sol\":6087:6098  return true */\n      swap2\n      pop\n      pop\n        /* \"@openzeppelin/contracts/token/ERC20/ERC20.sol\":5871:6105  function increaseAllowance(address spender, uint256 addedValue) public virtual returns (bool) {... */\n      swap3\n      swap2\n      pop\n      pop\n      jump\t// out\n        /* \"contracts/XENDoge.sol\":1259:1792  function onTokenBurned(address user, uint256 amount) external {... */\n    tag_79:\n        /* \"contracts/XENDoge.sol\":447:489  0xD342D63466B520d8D331CaFF863900d402Aa5b00 */\n      0xd342d63466b520d8d331caff863900d402aa5b00\n        /* \"contracts/XENDoge.sol\":1340:1367  _msgSender() == XEN_ADDRESS */\n      0xffffffffffffffffffffffffffffffffffffffff\n      and\n        /* \"contracts/XENDoge.sol\":1340:1352  _msgSender() */\n      tag_154\n        /* \"contracts/XENDoge.sol\":1340:1350  _msgSender */\n      tag_135\n        /* \"contracts/XENDoge.sol\":1340:1352  _msgSender() */\n      jump\t// in\n    tag_154:\n        /* \"contracts/XENDoge.sol\":1340:1367  _msgSender() == XEN_ADDRESS */\n      0xffffffffffffffffffffffffffffffffffffffff\n      and\n      eq\n        /* \"contracts/XENDoge.sol\":1332:1407  require(_msgSender() == XEN_ADDRESS, \"XENDoge: Caller must be XEN Crypto.\") */\n      tag_155\n      jumpi\n      mload(0x40)\n      0x08c379a000000000000000000000000000000000000000000000000000000000\n      dup2\n      mstore\n      0x04\n      add\n      tag_156\n      swap1\n      tag_157\n      jump\t// in\n    tag_156:\n      mload(0x40)\n      dup1\n      swap2\n      sub\n      swap1\n      revert\n    tag_155:\n        /* \"contracts/XENDoge.sol\":1442:1443  0 */\n      0x00\n        /* \"contracts/XENDoge.sol\":1426:1444  user != address(0) */\n      0xffffffffffffffffffffffffffffffffffffffff\n      and\n        /* \"contracts/XENDoge.sol\":1426:1430  user */\n      dup3\n        /* \"contracts/XENDoge.sol\":1426:1444  user != address(0) */\n      0xffffffffffffffffffffffffffffffffffffffff\n      and\n      sub\n        /* \"contracts/XENDoge.sol\":1418:1490  require(user != address(0), \"XENDoge: Address cannot be the 0 address.\") */\n      tag_158\n      jumpi\n      mload(0x40)\n      0x08c379a000000000000000000000000000000000000000000000000000000000\n      dup2\n      mstore\n      0x04\n      add\n      tag_159\n      swap1\n      tag_160\n      jump\t// in\n    tag_159:\n      mload(0x40)\n      dup1\n      swap2\n      sub\n      swap1\n      revert\n    tag_158:\n        /* \"contracts/XENDoge.sol\":1519:1525  100000 */\n      0x0186a0\n        /* \"contracts/XENDoge.sol\":1509:1515  amount */\n      dup2\n        /* \"contracts/XENDoge.sol\":1509:1525  amount >= 100000 */\n      lt\n      iszero\n        /* \"contracts/XENDoge.sol\":1501:1561  require(amount >= 100000, \"XENDoge: Burn amount too small.\") */\n      tag_161\n      jumpi\n      mload(0x40)\n      0x08c379a000000000000000000000000000000000000000000000000000000000\n      dup2\n      mstore\n      0x04\n      add\n      tag_162\n      swap1\n      tag_163\n      jump\t// in\n    tag_162:\n      mload(0x40)\n      dup1\n      swap2\n      sub\n      swap1\n      revert\n    tag_161:\n        /* \"contracts/XENDoge.sol\":1592:1598  amount */\n      dup1\n        /* \"contracts/XENDoge.sol\":1574:1588  totalXenBurned */\n      0x05\n      0x00\n        /* \"contracts/XENDoge.sol\":1574:1598  totalXenBurned += amount */\n      dup3\n      dup3\n      sload\n      tag_164\n      swap2\n      swap1\n      tag_152\n      jump\t// in\n    tag_164:\n      swap3\n      pop\n      pop\n      dup2\n      swap1\n      sstore\n      pop\n        /* \"contracts/XENDoge.sol\":1611:1626  uint256 xenDoge */\n      0x00\n        /* \"contracts/XENDoge.sol\":1629:1676  calculateMintReward(this.totalSupply(), amount) */\n      tag_165\n        /* \"contracts/XENDoge.sol\":1649:1653  this */\n      address\n        /* \"contracts/XENDoge.sol\":1649:1665  this.totalSupply */\n      0xffffffffffffffffffffffffffffffffffffffff\n      and\n      0x18160ddd\n        /* \"contracts/XENDoge.sol\":1649:1667  this.totalSupply() */\n      mload(0x40)\n      dup2\n      0xffffffff\n      and\n      0xe0\n      shl\n      dup2\n      mstore\n      0x04\n      add\n      0x20\n      mload(0x40)\n      dup1\n      dup4\n      sub\n      dup2\n      dup7\n      gas\n      staticcall\n      iszero\n      dup1\n      iszero\n      tag_167\n      jumpi\n      returndatasize\n      0x00\n      dup1\n      returndatacopy\n      revert(0x00, returndatasize)\n    tag_167:\n      pop\n      pop\n      pop\n      pop\n      mload(0x40)\n      returndatasize\n      not(0x1f)\n      0x1f\n      dup3\n      add\n      and\n      dup3\n      add\n      dup1\n      0x40\n      mstore\n      pop\n      dup2\n      add\n      swap1\n      tag_168\n      swap2\n      swap1\n      tag_169\n      jump\t// in\n    tag_168:\n        /* \"contracts/XENDoge.sol\":1669:1675  amount */\n      dup4\n        /* \"contracts/XENDoge.sol\":1629:1648  calculateMintReward */\n      tag_170\n        /* \"contracts/XENDoge.sol\":1629:1676  calculateMintReward(this.totalSupply(), amount) */\n      jump\t// in\n    tag_165:\n        /* \"contracts/XENDoge.sol\":1611:1676  uint256 xenDoge = calculateMintReward(this.totalSupply(), amount) */\n      swap1\n      pop\n        /* \"contracts/XENDoge.sol\":1687:1707  _mint(user, xenDoge) */\n      tag_171\n        /* \"contracts/XENDoge.sol\":1693:1697  user */\n      dup4\n        /* \"contracts/XENDoge.sol\":1699:1706  xenDoge */\n      dup3\n        /* \"contracts/XENDoge.sol\":1687:1692  _mint */\n      tag_172\n        /* \"contracts/XENDoge.sol\":1687:1707  _mint(user, xenDoge) */\n      jump\t// in\n    tag_171:\n        /* \"contracts/XENDoge.sol\":1761:1765  this */\n      address\n        /* \"contracts/XENDoge.sol\":1725:1784  Redeemed(user, XEN_ADDRESS, address(this), amount, xenDoge) */\n      0xffffffffffffffffffffffffffffffffffffffff\n      and\n        /* \"contracts/XENDoge.sol\":447:489  0xD342D63466B520d8D331CaFF863900d402Aa5b00 */\n      0xd342d63466b520d8d331caff863900d402aa5b00\n        /* \"contracts/XENDoge.sol\":1725:1784  Redeemed(user, XEN_ADDRESS, address(this), amount, xenDoge) */\n      0xffffffffffffffffffffffffffffffffffffffff\n      and\n        /* \"contracts/XENDoge.sol\":1734:1738  user */\n      dup5\n        /* \"contracts/XENDoge.sol\":1725:1784  Redeemed(user, XEN_ADDRESS, address(this), amount, xenDoge) */\n      0xffffffffffffffffffffffffffffffffffffffff\n      and\n      0xda4c370e4f539b8e19d66144cad73d70fbf440a544e56ff38e28e38ed47801a8\n        /* \"contracts/XENDoge.sol\":1768:1774  amount */\n      dup6\n        /* \"contracts/XENDoge.sol\":1776:1783  xenDoge */\n      dup6\n        /* \"contracts/XENDoge.sol\":1725:1784  Redeemed(user, XEN_ADDRESS, address(this), amount, xenDoge) */\n      mload(0x40)\n      tag_173\n      swap3\n      swap2\n      swap1\n      tag_174\n      jump\t// in\n    tag_173:\n      mload(0x40)\n      dup1\n      swap2\n      sub\n      swap1\n      log4\n        /* \"contracts/XENDoge.sol\":1321:1792  {... */\n      pop\n        /* \"contracts/XENDoge.sol\":1259:1792  function onTokenBurned(address user, uint256 amount) external {... */\n      pop\n      pop\n      jump\t// out\n        /* \"contracts/XENDoge.sol\":657:690  uint256 public totalXenBurned = 0 */\n    tag_82:\n      sload(0x05)\n      dup2\n      jump\t// out\n        /* \"contracts/XENDoge.sol\":1053:1251  function burnXEN(uint256 xen) public payable {... */\n    tag_87:\n        /* \"contracts/XENDoge.sol\":1125:1134  msg.value */\n      callvalue\n        /* \"contracts/XENDoge.sol\":1109:1121  totalDonated */\n      0x06\n      0x00\n        /* \"contracts/XENDoge.sol\":1109:1134  totalDonated += msg.value */\n      dup3\n      dup3\n      sload\n      tag_176\n      swap2\n      swap1\n      tag_152\n      jump\t// in\n    tag_176:\n      swap3\n      pop\n      pop\n      dup2\n      swap1\n      sstore\n      pop\n        /* \"contracts/XENDoge.sol\":555:597  0xc475b02C2e2D6D2Dd20c1D8c6fB9Cf9a4D23165e */\n      0xc475b02c2e2d6d2dd20c1d8c6fb9cf9a4d23165e\n        /* \"contracts/XENDoge.sol\":1145:1170  DONATION_ADDRESS.transfer */\n      0xffffffffffffffffffffffffffffffffffffffff\n      and\n        /* \"contracts/XENDoge.sol\":1145:1181  DONATION_ADDRESS.transfer(msg.value) */\n      0x08fc\n        /* \"contracts/XENDoge.sol\":1171:1180  msg.value */\n      callvalue\n        /* \"contracts/XENDoge.sol\":1145:1181  DONATION_ADDRESS.transfer(msg.value) */\n      swap1\n      dup2\n      iszero\n      mul\n      swap1\n      mload(0x40)\n      0x00\n      mload(0x40)\n      dup1\n      dup4\n      sub\n      dup2\n      dup6\n      dup9\n      dup9\n      call\n      swap4\n      pop\n      pop\n      pop\n      pop\n      iszero\n      dup1\n      iszero\n      tag_178\n      jumpi\n      returndatasize\n      0x00\n      dup1\n      returndatacopy\n      revert(0x00, returndatasize)\n    tag_178:\n      pop\n        /* \"contracts/XENDoge.sol\":447:489  0xD342D63466B520d8D331CaFF863900d402Aa5b00 */\n      0xd342d63466b520d8d331caff863900d402aa5b00\n        /* \"contracts/XENDoge.sol\":1192:1224  IBurnableToken(XEN_ADDRESS).burn */\n      0xffffffffffffffffffffffffffffffffffffffff\n      and\n      0x9dc29fac\n        /* \"contracts/XENDoge.sol\":1225:1237  _msgSender() */\n      tag_179\n        /* \"contracts/XENDoge.sol\":1225:1235  _msgSender */\n      tag_135\n        /* \"contracts/XENDoge.sol\":1225:1237  _msgSender() */\n      jump\t// in\n    tag_179:\n        /* \"contracts/XENDoge.sol\":1239:1242  xen */\n      dup4\n        /* \"contracts/XENDoge.sol\":1192:1243  IBurnableToken(XEN_ADDRESS).burn(_msgSender(), xen) */\n      mload(0x40)\n      dup4\n      0xffffffff\n      and\n      0xe0\n      shl\n      dup2\n      mstore\n      0x04\n      add\n      tag_180\n      swap3\n      swap2\n      swap1\n      tag_181\n      jump\t// in\n    tag_180:\n      0x00\n      mload(0x40)\n      dup1\n      dup4\n      sub\n      dup2\n      0x00\n      dup8\n      dup1\n      extcodesize\n      iszero\n      dup1\n      iszero\n      tag_182\n      jumpi\n      0x00\n      dup1\n      revert\n    tag_182:\n      pop\n      gas\n      call\n      iszero\n      dup1\n      iszero\n      tag_184\n      jumpi\n      returndatasize\n      0x00\n      dup1\n      returndatacopy\n      revert(0x00, returndatasize)\n    tag_184:\n      pop\n      pop\n      pop\n      pop\n        /* \"contracts/XENDoge.sol\":1053:1251  function burnXEN(uint256 xen) public payable {... */\n      pop\n      jump\t// out\n        /* \"@openzeppelin/contracts/token/ERC20/ERC20.sol\":3406:3531  function balanceOf(address account) public view virtual override returns (uint256) {... */\n    tag_92:\n        /* \"@openzeppelin/contracts/token/ERC20/ERC20.sol\":3480:3487  uint256 */\n      0x00\n        /* \"@openzeppelin/contracts/token/ERC20/ERC20.sol\":3506:3515  _balances */\n      dup1\n        /* \"@openzeppelin/contracts/token/ERC20/ERC20.sol\":3506:3524  _balances[account] */\n      0x00\n        /* \"@openzeppelin/contracts/token/ERC20/ERC20.sol\":3516:3523  account */\n      dup4\n        /* \"@openzeppelin/contracts/token/ERC20/ERC20.sol\":3506:3524  _balances[account] */\n      0xffffffffffffffffffffffffffffffffffffffff\n      and\n      0xffffffffffffffffffffffffffffffffffffffff\n      and\n      dup2\n      mstore\n      0x20\n      add\n      swap1\n      dup2\n      mstore\n      0x20\n      add\n      0x00\n      keccak256\n      sload\n        /* \"@openzeppelin/contracts/token/ERC20/ERC20.sol\":3499:3524  return _balances[account] */\n      swap1\n      pop\n        /* \"@openzeppelin/contracts/token/ERC20/ERC20.sol\":3406:3531  function balanceOf(address account) public view virtual override returns (uint256) {... */\n      swap2\n      swap1\n      pop\n      jump\t// out\n        /* \"@openzeppelin/contracts/token/ERC20/ERC20.sol\":2365:2467  function symbol() public view virtual override returns (string memory) {... */\n    tag_96:\n        /* \"@openzeppelin/contracts/token/ERC20/ERC20.sol\":2421:2434  string memory */\n      0x60\n        /* \"@openzeppelin/contracts/token/ERC20/ERC20.sol\":2453:2460  _symbol */\n      0x04\n        /* \"@openzeppelin/contracts/token/ERC20/ERC20.sol\":2446:2460  return _symbol */\n      dup1\n      sload\n      tag_187\n      swap1\n      tag_128\n      jump\t// in\n    tag_187:\n      dup1\n      0x1f\n      add\n      0x20\n      dup1\n      swap2\n      div\n      mul\n      0x20\n      add\n      mload(0x40)\n      swap1\n      dup2\n      add\n      0x40\n      mstore\n      dup1\n      swap3\n      swap2\n      swap1\n      dup2\n      dup2\n      mstore\n      0x20\n      add\n      dup3\n      dup1\n      sload\n      tag_188\n      swap1\n      tag_128\n      jump\t// in\n    tag_188:\n      dup1\n      iszero\n      tag_189\n      jumpi\n      dup1\n      0x1f\n      lt\n      tag_190\n      jumpi\n      0x0100\n      dup1\n      dup4\n      sload\n      div\n      mul\n      dup4\n      mstore\n      swap2\n      0x20\n      add\n      swap2\n      jump(tag_189)\n    tag_190:\n      dup3\n      add\n      swap2\n      swap1\n      0x00\n      mstore\n      keccak256(0x00, 0x20)\n      swap1\n    tag_191:\n      dup2\n      sload\n      dup2\n      mstore\n      swap1\n      0x01\n      add\n      swap1\n      0x20\n      add\n      dup1\n      dup4\n      gt\n      tag_191\n      jumpi\n      dup3\n      swap1\n      sub\n      0x1f\n      and\n      dup3\n      add\n      swap2\n    tag_189:\n      pop\n      pop\n      pop\n      pop\n      pop\n      swap1\n      pop\n        /* \"@openzeppelin/contracts/token/ERC20/ERC20.sol\":2365:2467  function symbol() public view virtual override returns (string memory) {... */\n      swap1\n      jump\t// out\n        /* \"@openzeppelin/contracts/token/ERC20/ERC20.sol\":6592:7019  function decreaseAllowance(address spender, uint256 subtractedValue) public virtual returns (bool) {... */\n    tag_101:\n        /* \"@openzeppelin/contracts/token/ERC20/ERC20.sol\":6685:6689  bool */\n      0x00\n        /* \"@openzeppelin/contracts/token/ERC20/ERC20.sol\":6701:6714  address owner */\n      dup1\n        /* \"@openzeppelin/contracts/token/ERC20/ERC20.sol\":6717:6729  _msgSender() */\n      tag_193\n        /* \"@openzeppelin/contracts/token/ERC20/ERC20.sol\":6717:6727  _msgSender */\n      tag_135\n        /* \"@openzeppelin/contracts/token/ERC20/ERC20.sol\":6717:6729  _msgSender() */\n      jump\t// in\n    tag_193:\n        /* \"@openzeppelin/contracts/token/ERC20/ERC20.sol\":6701:6729  address owner = _msgSender() */\n      swap1\n      pop\n        /* \"@openzeppelin/contracts/token/ERC20/ERC20.sol\":6739:6763  uint256 currentAllowance */\n      0x00\n        /* \"@openzeppelin/contracts/token/ERC20/ERC20.sol\":6766:6791  allowance(owner, spender) */\n      tag_194\n        /* \"@openzeppelin/contracts/token/ERC20/ERC20.sol\":6776:6781  owner */\n      dup3\n        /* \"@openzeppelin/contracts/token/ERC20/ERC20.sol\":6783:6790  spender */\n      dup7\n        /* \"@openzeppelin/contracts/token/ERC20/ERC20.sol\":6766:6775  allowance */\n      tag_117\n        /* \"@openzeppelin/contracts/token/ERC20/ERC20.sol\":6766:6791  allowance(owner, spender) */\n      jump\t// in\n    tag_194:\n        /* \"@openzeppelin/contracts/token/ERC20/ERC20.sol\":6739:6791  uint256 currentAllowance = allowance(owner, spender) */\n      swap1\n      pop\n        /* \"@openzeppelin/contracts/token/ERC20/ERC20.sol\":6829:6844  subtractedValue */\n      dup4\n        /* \"@openzeppelin/contracts/token/ERC20/ERC20.sol\":6809:6825  currentAllowance */\n      dup2\n        /* \"@openzeppelin/contracts/token/ERC20/ERC20.sol\":6809:6844  currentAllowance >= subtractedValue */\n      lt\n      iszero\n        /* \"@openzeppelin/contracts/token/ERC20/ERC20.sol\":6801:6886  require(currentAllowance >= subtractedValue, \"ERC20: decreased allowance below zero\") */\n      tag_195\n      jumpi\n      mload(0x40)\n      0x08c379a000000000000000000000000000000000000000000000000000000000\n      dup2\n      mstore\n      0x04\n      add\n      tag_196\n      swap1\n      tag_197\n      jump\t// in\n    tag_196:\n      mload(0x40)\n      dup1\n      swap2\n      sub\n      swap1\n      revert\n    tag_195:\n        /* \"@openzeppelin/contracts/token/ERC20/ERC20.sol\":6920:6980  _approve(owner, spender, currentAllowance - subtractedValue) */\n      tag_198\n        /* \"@openzeppelin/contracts/token/ERC20/ERC20.sol\":6929:6934  owner */\n      dup3\n        /* \"@openzeppelin/contracts/token/ERC20/ERC20.sol\":6936:6943  spender */\n      dup7\n        /* \"@openzeppelin/contracts/token/ERC20/ERC20.sol\":6964:6979  subtractedValue */\n      dup7\n        /* \"@openzeppelin/contracts/token/ERC20/ERC20.sol\":6945:6961  currentAllowance */\n      dup5\n        /* \"@openzeppelin/contracts/token/ERC20/ERC20.sol\":6945:6979  currentAllowance - subtractedValue */\n      sub\n        /* \"@openzeppelin/contracts/token/ERC20/ERC20.sol\":6920:6928  _approve */\n      tag_137\n        /* \"@openzeppelin/contracts/token/ERC20/ERC20.sol\":6920:6980  _approve(owner, spender, currentAllowance - subtractedValue) */\n      jump\t// in\n    tag_198:\n        /* \"@openzeppelin/contracts/token/ERC20/ERC20.sol\":7008:7012  true */\n      0x01\n        /* \"@openzeppelin/contracts/token/ERC20/ERC20.sol\":7001:7012  return true */\n      swap3\n      pop\n      pop\n      pop\n        /* \"@openzeppelin/contracts/token/ERC20/ERC20.sol\":6592:7019  function decreaseAllowance(address spender, uint256 subtractedValue) public virtual returns (bool) {... */\n      swap3\n      swap2\n      pop\n      pop\n      jump\t// out\n        /* \"@openzeppelin/contracts/token/ERC20/ERC20.sol\":3727:3916  function transfer(address to, uint256 amount) public virtual override returns (bool) {... */\n    tag_106:\n        /* \"@openzeppelin/contracts/token/ERC20/ERC20.sol\":3806:3810  bool */\n      0x00\n        /* \"@openzeppelin/contracts/token/ERC20/ERC20.sol\":3822:3835  address owner */\n      dup1\n        /* \"@openzeppelin/contracts/token/ERC20/ERC20.sol\":3838:3850  _msgSender() */\n      tag_200\n        /* \"@openzeppelin/contracts/token/ERC20/ERC20.sol\":3838:3848  _msgSender */\n      tag_135\n        /* \"@openzeppelin/contracts/token/ERC20/ERC20.sol\":3838:3850  _msgSender() */\n      jump\t// in\n    tag_200:\n        /* \"@openzeppelin/contracts/token/ERC20/ERC20.sol\":3822:3850  address owner = _msgSender() */\n      swap1\n      pop\n        /* \"@openzeppelin/contracts/token/ERC20/ERC20.sol\":3860:3888  _transfer(owner, to, amount) */\n      tag_201\n        /* \"@openzeppelin/contracts/token/ERC20/ERC20.sol\":3870:3875  owner */\n      dup2\n        /* \"@openzeppelin/contracts/token/ERC20/ERC20.sol\":3877:3879  to */\n      dup6\n        /* \"@openzeppelin/contracts/token/ERC20/ERC20.sol\":3881:3887  amount */\n      dup6\n        /* \"@openzeppelin/contracts/token/ERC20/ERC20.sol\":3860:3869  _transfer */\n      tag_144\n        /* \"@openzeppelin/contracts/token/ERC20/ERC20.sol\":3860:3888  _transfer(owner, to, amount) */\n      jump\t// in\n    tag_201:\n        /* \"@openzeppelin/contracts/token/ERC20/ERC20.sol\":3905:3909  true */\n      0x01\n        /* \"@openzeppelin/contracts/token/ERC20/ERC20.sol\":3898:3909  return true */\n      swap2\n      pop\n      pop\n        /* \"@openzeppelin/contracts/token/ERC20/ERC20.sol\":3727:3916  function transfer(address to, uint256 amount) public virtual override returns (bool) {... */\n      swap3\n      swap2\n      pop\n      pop\n      jump\t// out\n        /* \"contracts/XENDoge.sol\":409:489  address public constant XEN_ADDRESS = 0xD342D63466B520d8D331CaFF863900d402Aa5b00 */\n    tag_110:\n        /* \"contracts/XENDoge.sol\":447:489  0xD342D63466B520d8D331CaFF863900d402Aa5b00 */\n      0xd342d63466b520d8d331caff863900d402aa5b00\n        /* \"contracts/XENDoge.sol\":409:489  address public constant XEN_ADDRESS = 0xD342D63466B520d8D331CaFF863900d402Aa5b00 */\n      dup2\n      jump\t// out\n        /* \"@openzeppelin/contracts/token/ERC20/ERC20.sol\":3974:4123  function allowance(address owner, address spender) public view virtual override returns (uint256) {... */\n    tag_117:\n        /* \"@openzeppelin/contracts/token/ERC20/ERC20.sol\":4063:4070  uint256 */\n      0x00\n        /* \"@openzeppelin/contracts/token/ERC20/ERC20.sol\":4089:4100  _allowances */\n      0x01\n        /* \"@openzeppelin/contracts/token/ERC20/ERC20.sol\":4089:4107  _allowances[owner] */\n      0x00\n        /* \"@openzeppelin/contracts/token/ERC20/ERC20.sol\":4101:4106  owner */\n      dup5\n        /* \"@openzeppelin/contracts/token/ERC20/ERC20.sol\":4089:4107  _allowances[owner] */\n      0xffffffffffffffffffffffffffffffffffffffff\n      and\n      0xffffffffffffffffffffffffffffffffffffffff\n      and\n      dup2\n      mstore\n      0x20\n      add\n      swap1\n      dup2\n      mstore\n      0x20\n      add\n      0x00\n      keccak256\n        /* \"@openzeppelin/contracts/token/ERC20/ERC20.sol\":4089:4116  _allowances[owner][spender] */\n      0x00\n        /* \"@openzeppelin/contracts/token/ERC20/ERC20.sol\":4108:4115  spender */\n      dup4\n        /* \"@openzeppelin/contracts/token/ERC20/ERC20.sol\":4089:4116  _allowances[owner][spender] */\n      0xffffffffffffffffffffffffffffffffffffffff\n      and\n      0xffffffffffffffffffffffffffffffffffffffff\n      and\n      dup2\n      mstore\n      0x20\n      add\n      swap1\n      dup2\n      mstore\n      0x20\n      add\n      0x00\n      keccak256\n      sload\n        /* \"@openzeppelin/contracts/token/ERC20/ERC20.sol\":4082:4116  return _allowances[owner][spender] */\n      swap1\n      pop\n        /* \"@openzeppelin/contracts/token/ERC20/ERC20.sol\":3974:4123  function allowance(address owner, address spender) public view virtual override returns (uint256) {... */\n      swap3\n      swap2\n      pop\n      pop\n      jump\t// out\n        /* \"contracts/XENDoge.sol\":496:598  address payable public constant DONATION_ADDRESS = payable(0xc475b02C2e2D6D2Dd20c1D8c6fB9Cf9a4D23165e) */\n    tag_121:\n        /* \"contracts/XENDoge.sol\":555:597  0xc475b02C2e2D6D2Dd20c1D8c6fB9Cf9a4D23165e */\n      0xc475b02c2e2d6d2dd20c1d8c6fb9cf9a4d23165e\n        /* \"contracts/XENDoge.sol\":496:598  address payable public constant DONATION_ADDRESS = payable(0xc475b02C2e2D6D2Dd20c1D8c6fB9Cf9a4D23165e) */\n      dup2\n      jump\t// out\n        /* \"@openzeppelin/contracts/utils/Context.sol\":640:736  function _msgSender() internal view virtual returns (address) {... */\n    tag_135:\n        /* \"@openzeppelin/contracts/utils/Context.sol\":693:700  address */\n      0x00\n        /* \"@openzeppelin/contracts/utils/Context.sol\":719:729  msg.sender */\n      caller\n        /* \"@openzeppelin/contracts/utils/Context.sol\":712:729  return msg.sender */\n      swap1\n      pop\n        /* \"@openzeppelin/contracts/utils/Context.sol\":640:736  function _msgSender() internal view virtual returns (address) {... */\n      swap1\n      jump\t// out\n        /* \"@openzeppelin/contracts/token/ERC20/ERC20.sol\":10504:10874  function _approve(... */\n    tag_137:\n        /* \"@openzeppelin/contracts/token/ERC20/ERC20.sol\":10652:10653  0 */\n      0x00\n        /* \"@openzeppelin/contracts/token/ERC20/ERC20.sol\":10635:10654  owner != address(0) */\n      0xffffffffffffffffffffffffffffffffffffffff\n      and\n        /* \"@openzeppelin/contracts/token/ERC20/ERC20.sol\":10635:10640  owner */\n      dup4\n        /* \"@openzeppelin/contracts/token/ERC20/ERC20.sol\":10635:10654  owner != address(0) */\n      0xffffffffffffffffffffffffffffffffffffffff\n      and\n      sub\n        /* \"@openzeppelin/contracts/token/ERC20/ERC20.sol\":10627:10695  require(owner != address(0), \"ERC20: approve from the zero address\") */\n      tag_205\n      jumpi\n      mload(0x40)\n      0x08c379a000000000000000000000000000000000000000000000000000000000\n      dup2\n      mstore\n      0x04\n      add\n      tag_206\n      swap1\n      tag_207\n      jump\t// in\n    tag_206:\n      mload(0x40)\n      dup1\n      swap2\n      sub\n      swap1\n      revert\n    tag_205:\n        /* \"@openzeppelin/contracts/token/ERC20/ERC20.sol\":10732:10733  0 */\n      0x00\n        /* \"@openzeppelin/contracts/token/ERC20/ERC20.sol\":10713:10734  spender != address(0) */\n      0xffffffffffffffffffffffffffffffffffffffff\n      and\n        /* \"@openzeppelin/contracts/token/ERC20/ERC20.sol\":10713:10720  spender */\n      dup3\n        /* \"@openzeppelin/contracts/token/ERC20/ERC20.sol\":10713:10734  spender != address(0) */\n      0xffffffffffffffffffffffffffffffffffffffff\n      and\n      sub\n        /* \"@openzeppelin/contracts/token/ERC20/ERC20.sol\":10705:10773  require(spender != address(0), \"ERC20: approve to the zero address\") */\n      tag_208\n      jumpi\n      mload(0x40)\n      0x08c379a000000000000000000000000000000000000000000000000000000000\n      dup2\n      mstore\n      0x04\n      add\n      tag_209\n      swap1\n      tag_210\n      jump\t// in\n    tag_209:\n      mload(0x40)\n      dup1\n      swap2\n      sub\n      swap1\n      revert\n    tag_208:\n        /* \"@openzeppelin/contracts/token/ERC20/ERC20.sol\":10814:10820  amount */\n      dup1\n        /* \"@openzeppelin/contracts/token/ERC20/ERC20.sol\":10784:10795  _allowances */\n      0x01\n        /* \"@openzeppelin/contracts/token/ERC20/ERC20.sol\":10784:10802  _allowances[owner] */\n      0x00\n        /* \"@openzeppelin/contracts/token/ERC20/ERC20.sol\":10796:10801  owner */\n      dup6\n        /* \"@openzeppelin/contracts/token/ERC20/ERC20.sol\":10784:10802  _allowances[owner] */\n      0xffffffffffffffffffffffffffffffffffffffff\n      and\n      0xffffffffffffffffffffffffffffffffffffffff\n      and\n      dup2\n      mstore\n      0x20\n      add\n      swap1\n      dup2\n      mstore\n      0x20\n      add\n      0x00\n      keccak256\n        /* \"@openzeppelin/contracts/token/ERC20/ERC20.sol\":10784:10811  _allowances[owner][spender] */\n      0x00\n        /* \"@openzeppelin/contracts/token/ERC20/ERC20.sol\":10803:10810  spender */\n      dup5\n        /* \"@openzeppelin/contracts/token/ERC20/ERC20.sol\":10784:10811  _allowances[owner][spender] */\n      0xffffffffffffffffffffffffffffffffffffffff\n      and\n      0xffffffffffffffffffffffffffffffffffffffff\n      and\n      dup2\n      mstore\n      0x20\n      add\n      swap1\n      dup2\n      mstore\n      0x20\n      add\n      0x00\n      keccak256\n        /* \"@openzeppelin/contracts/token/ERC20/ERC20.sol\":10784:10820  _allowances[owner][spender] = amount */\n      dup2\n      swap1\n      sstore\n      pop\n        /* \"@openzeppelin/contracts/token/ERC20/ERC20.sol\":10851:10858  spender */\n      dup2\n        /* \"@openzeppelin/contracts/token/ERC20/ERC20.sol\":10835:10867  Approval(owner, spender, amount) */\n      0xffffffffffffffffffffffffffffffffffffffff\n      and\n        /* \"@openzeppelin/contracts/token/ERC20/ERC20.sol\":10844:10849  owner */\n      dup4\n        /* \"@openzeppelin/contracts/token/ERC20/ERC20.sol\":10835:10867  Approval(owner, spender, amount) */\n      0xffffffffffffffffffffffffffffffffffffffff\n      and\n      0x8c5be1e5ebec7d5bd14f71427d1e84f3dd0314c0f7b2291e5b200ac8c7c3b925\n        /* \"@openzeppelin/contracts/token/ERC20/ERC20.sol\":10860:10866  amount */\n      dup4\n        /* \"@openzeppelin/contracts/token/ERC20/ERC20.sol\":10835:10867  Approval(owner, spender, amount) */\n      mload(0x40)\n      tag_211\n      swap2\n      swap1\n      tag_29\n      jump\t// in\n    tag_211:\n      mload(0x40)\n      dup1\n      swap2\n      sub\n      swap1\n      log3\n        /* \"@openzeppelin/contracts/token/ERC20/ERC20.sol\":10504:10874  function _approve(... */\n      pop\n      pop\n      pop\n      jump\t// out\n        /* \"@openzeppelin/contracts/token/ERC20/ERC20.sol\":11155:11596  function _spendAllowance(... */\n    tag_142:\n        /* \"@openzeppelin/contracts/token/ERC20/ERC20.sol\":11285:11309  uint256 currentAllowance */\n      0x00\n        /* \"@openzeppelin/contracts/token/ERC20/ERC20.sol\":11312:11337  allowance(owner, spender) */\n      tag_213\n        /* \"@openzeppelin/contracts/token/ERC20/ERC20.sol\":11322:11327  owner */\n      dup5\n        /* \"@openzeppelin/contracts/token/ERC20/ERC20.sol\":11329:11336  spender */\n      dup5\n        /* \"@openzeppelin/contracts/token/ERC20/ERC20.sol\":11312:11321  allowance */\n      tag_117\n        /* \"@openzeppelin/contracts/token/ERC20/ERC20.sol\":11312:11337  allowance(owner, spender) */\n      jump\t// in\n    tag_213:\n        /* \"@openzeppelin/contracts/token/ERC20/ERC20.sol\":11285:11337  uint256 currentAllowance = allowance(owner, spender) */\n      swap1\n      pop\n        /* \"@openzeppelin/contracts/token/ERC20/ERC20.sol\":11371:11388  type(uint256).max */\n      0xffffffffffffffffffffffffffffffffffffffffffffffffffffffffffffffff\n        /* \"@openzeppelin/contracts/token/ERC20/ERC20.sol\":11351:11367  currentAllowance */\n      dup2\n        /* \"@openzeppelin/contracts/token/ERC20/ERC20.sol\":11351:11388  currentAllowance != type(uint256).max */\n      eq\n        /* \"@openzeppelin/contracts/token/ERC20/ERC20.sol\":11347:11590  if (currentAllowance != type(uint256).max) {... */\n      tag_214\n      jumpi\n        /* \"@openzeppelin/contracts/token/ERC20/ERC20.sol\":11432:11438  amount */\n      dup2\n        /* \"@openzeppelin/contracts/token/ERC20/ERC20.sol\":11412:11428  currentAllowance */\n      dup2\n        /* \"@openzeppelin/contracts/token/ERC20/ERC20.sol\":11412:11438  currentAllowance >= amount */\n      lt\n      iszero\n        /* \"@openzeppelin/contracts/token/ERC20/ERC20.sol\":11404:11472  require(currentAllowance >= amount, \"ERC20: insufficient allowance\") */\n      tag_215\n      jumpi\n      mload(0x40)\n      0x08c379a000000000000000000000000000000000000000000000000000000000\n      dup2\n      mstore\n      0x04\n      add\n      tag_216\n      swap1\n      tag_217\n      jump\t// in\n    tag_216:\n      mload(0x40)\n      dup1\n      swap2\n      sub\n      swap1\n      revert\n    tag_215:\n        /* \"@openzeppelin/contracts/token/ERC20/ERC20.sol\":11514:11565  _approve(owner, spender, currentAllowance - amount) */\n      tag_218\n        /* \"@openzeppelin/contracts/token/ERC20/ERC20.sol\":11523:11528  owner */\n      dup5\n        /* \"@openzeppelin/contracts/token/ERC20/ERC20.sol\":11530:11537  spender */\n      dup5\n        /* \"@openzeppelin/contracts/token/ERC20/ERC20.sol\":11558:11564  amount */\n      dup5\n        /* \"@openzeppelin/contracts/token/ERC20/ERC20.sol\":11539:11555  currentAllowance */\n      dup5\n        /* \"@openzeppelin/contracts/token/ERC20/ERC20.sol\":11539:11564  currentAllowance - amount */\n      sub\n        /* \"@openzeppelin/contracts/token/ERC20/ERC20.sol\":11514:11522  _approve */\n      tag_137\n        /* \"@openzeppelin/contracts/token/ERC20/ERC20.sol\":11514:11565  _approve(owner, spender, currentAllowance - amount) */\n      jump\t// in\n    tag_218:\n        /* \"@openzeppelin/contracts/token/ERC20/ERC20.sol\":11347:11590  if (currentAllowance != type(uint256).max) {... */\n    tag_214:\n        /* \"@openzeppelin/contracts/token/ERC20/ERC20.sol\":11275:11596  {... */\n      pop\n        /* \"@openzeppelin/contracts/token/ERC20/ERC20.sol\":11155:11596  function _spendAllowance(... */\n      pop\n      pop\n      pop\n      jump\t// out\n        /* \"@openzeppelin/contracts/token/ERC20/ERC20.sol\":7473:8291  function _transfer(... */\n    tag_144:\n        /* \"@openzeppelin/contracts/token/ERC20/ERC20.sol\":7615:7616  0 */\n      0x00\n        /* \"@openzeppelin/contracts/token/ERC20/ERC20.sol\":7599:7617  from != address(0) */\n      0xffffffffffffffffffffffffffffffffffffffff\n      and\n        /* \"@openzeppelin/contracts/token/ERC20/ERC20.sol\":7599:7603  from */\n      dup4\n        /* \"@openzeppelin/contracts/token/ERC20/ERC20.sol\":7599:7617  from != address(0) */\n      0xffffffffffffffffffffffffffffffffffffffff\n      and\n      sub\n        /* \"@openzeppelin/contracts/token/ERC20/ERC20.sol\":7591:7659  require(from != address(0), \"ERC20: transfer from the zero address\") */\n      tag_220\n      jumpi\n      mload(0x40)\n      0x08c379a000000000000000000000000000000000000000000000000000000000\n      dup2\n      mstore\n      0x04\n      add\n      tag_221\n      swap1\n      tag_222\n      jump\t// in\n    tag_221:\n      mload(0x40)\n      dup1\n      swap2\n      sub\n      swap1\n      revert\n    tag_220:\n        /* \"@openzeppelin/contracts/token/ERC20/ERC20.sol\":7691:7692  0 */\n      0x00\n        /* \"@openzeppelin/contracts/token/ERC20/ERC20.sol\":7677:7693  to != address(0) */\n      0xffffffffffffffffffffffffffffffffffffffff\n      and\n        /* \"@openzeppelin/contracts/token/ERC20/ERC20.sol\":7677:7679  to */\n      dup3\n        /* \"@openzeppelin/contracts/token/ERC20/ERC20.sol\":7677:7693  to != address(0) */\n      0xffffffffffffffffffffffffffffffffffffffff\n      and\n      sub\n        /* \"@openzeppelin/contracts/token/ERC20/ERC20.sol\":7669:7733  require(to != address(0), \"ERC20: transfer to the zero address\") */\n      tag_223\n      jumpi\n      mload(0x40)\n      0x08c379a000000000000000000000000000000000000000000000000000000000\n      dup2\n      mstore\n      0x04\n      add\n      tag_224\n      swap1\n      tag_225\n      jump\t// in\n    tag_224:\n      mload(0x40)\n      dup1\n      swap2\n      sub\n      swap1\n      revert\n    tag_223:\n        /* \"@openzeppelin/contracts/token/ERC20/ERC20.sol\":7744:7782  _beforeTokenTransfer(from, to, amount) */\n      tag_226\n        /* \"@openzeppelin/contracts/token/ERC20/ERC20.sol\":7765:7769  from */\n      dup4\n        /* \"@openzeppelin/contracts/token/ERC20/ERC20.sol\":7771:7773  to */\n      dup4\n        /* \"@openzeppelin/contracts/token/ERC20/ERC20.sol\":7775:7781  amount */\n      dup4\n        /* \"@openzeppelin/contracts/token/ERC20/ERC20.sol\":7744:7764  _beforeTokenTransfer */\n      tag_227\n        /* \"@openzeppelin/contracts/token/ERC20/ERC20.sol\":7744:7782  _beforeTokenTransfer(from, to, amount) */\n      jump\t// in\n    tag_226:\n        /* \"@openzeppelin/contracts/token/ERC20/ERC20.sol\":7793:7812  uint256 fromBalance */\n      0x00\n        /* \"@openzeppelin/contracts/token/ERC20/ERC20.sol\":7815:7824  _balances */\n      dup1\n        /* \"@openzeppelin/contracts/token/ERC20/ERC20.sol\":7815:7830  _balances[from] */\n      0x00\n        /* \"@openzeppelin/contracts/token/ERC20/ERC20.sol\":7825:7829  from */\n      dup6\n        /* \"@openzeppelin/contracts/token/ERC20/ERC20.sol\":7815:7830  _balances[from] */\n      0xffffffffffffffffffffffffffffffffffffffff\n      and\n      0xffffffffffffffffffffffffffffffffffffffff\n      and\n      dup2\n      mstore\n      0x20\n      add\n      swap1\n      dup2\n      mstore\n      0x20\n      add\n      0x00\n      keccak256\n      sload\n        /* \"@openzeppelin/contracts/token/ERC20/ERC20.sol\":7793:7830  uint256 fromBalance = _balances[from] */\n      swap1\n      pop\n        /* \"@openzeppelin/contracts/token/ERC20/ERC20.sol\":7863:7869  amount */\n      dup2\n        /* \"@openzeppelin/contracts/token/ERC20/ERC20.sol\":7848:7859  fromBalance */\n      dup2\n        /* \"@openzeppelin/contracts/token/ERC20/ERC20.sol\":7848:7869  fromBalance >= amount */\n      lt\n      iszero\n        /* \"@openzeppelin/contracts/token/ERC20/ERC20.sol\":7840:7912  require(fromBalance >= amount, \"ERC20: transfer amount exceeds balance\") */\n      tag_228\n      jumpi\n      mload(0x40)\n      0x08c379a000000000000000000000000000000000000000000000000000000000\n      dup2\n      mstore\n      0x04\n      add\n      tag_229\n      swap1\n      tag_230\n      jump\t// in\n    tag_229:\n      mload(0x40)\n      dup1\n      swap2\n      sub\n      swap1\n      revert\n    tag_228:\n        /* \"@openzeppelin/contracts/token/ERC20/ERC20.sol\":7978:7984  amount */\n      dup2\n        /* \"@openzeppelin/contracts/token/ERC20/ERC20.sol\":7964:7975  fromBalance */\n      dup2\n        /* \"@openzeppelin/contracts/token/ERC20/ERC20.sol\":7964:7984  fromBalance - amount */\n      sub\n        /* \"@openzeppelin/contracts/token/ERC20/ERC20.sol\":7946:7955  _balances */\n      0x00\n        /* \"@openzeppelin/contracts/token/ERC20/ERC20.sol\":7946:7961  _balances[from] */\n      dup1\n        /* \"@openzeppelin/contracts/token/ERC20/ERC20.sol\":7956:7960  from */\n      dup7\n        /* \"@openzeppelin/contracts/token/ERC20/ERC20.sol\":7946:7961  _balances[from] */\n      0xffffffffffffffffffffffffffffffffffffffff\n      and\n      0xffffffffffffffffffffffffffffffffffffffff\n      and\n      dup2\n      mstore\n      0x20\n      add\n      swap1\n      dup2\n      mstore\n      0x20\n      add\n      0x00\n      keccak256\n        /* \"@openzeppelin/contracts/token/ERC20/ERC20.sol\":7946:7984  _balances[from] = fromBalance - amount */\n      dup2\n      swap1\n      sstore\n      pop\n        /* \"@openzeppelin/contracts/token/ERC20/ERC20.sol\":8178:8184  amount */\n      dup2\n        /* \"@openzeppelin/contracts/token/ERC20/ERC20.sol\":8161:8170  _balances */\n      0x00\n        /* \"@openzeppelin/contracts/token/ERC20/ERC20.sol\":8161:8174  _balances[to] */\n      dup1\n        /* \"@openzeppelin/contracts/token/ERC20/ERC20.sol\":8171:8173  to */\n      dup6\n        /* \"@openzeppelin/contracts/token/ERC20/ERC20.sol\":8161:8174  _balances[to] */\n      0xffffffffffffffffffffffffffffffffffffffff\n      and\n      0xffffffffffffffffffffffffffffffffffffffff\n      and\n      dup2\n      mstore\n      0x20\n      add\n      swap1\n      dup2\n      mstore\n      0x20\n      add\n      0x00\n      keccak256\n      0x00\n        /* \"@openzeppelin/contracts/token/ERC20/ERC20.sol\":8161:8184  _balances[to] += amount */\n      dup3\n      dup3\n      sload\n      add\n      swap3\n      pop\n      pop\n      dup2\n      swap1\n      sstore\n      pop\n        /* \"@openzeppelin/contracts/token/ERC20/ERC20.sol\":8225:8227  to */\n      dup3\n        /* \"@openzeppelin/contracts/token/ERC20/ERC20.sol\":8210:8236  Transfer(from, to, amount) */\n      0xffffffffffffffffffffffffffffffffffffffff\n      and\n        /* \"@openzeppelin/contracts/token/ERC20/ERC20.sol\":8219:8223  from */\n      dup5\n        /* \"@openzeppelin/contracts/token/ERC20/ERC20.sol\":8210:8236  Transfer(from, to, amount) */\n      0xffffffffffffffffffffffffffffffffffffffff\n      and\n      0xddf252ad1be2c89b69c2b068fc378daa952ba7f163c4a11628f55a4df523b3ef\n        /* \"@openzeppelin/contracts/token/ERC20/ERC20.sol\":8229:8235  amount */\n      dup5\n        /* \"@openzeppelin/contracts/token/ERC20/ERC20.sol\":8210:8236  Transfer(from, to, amount) */\n      mload(0x40)\n      tag_231\n      swap2\n      swap1\n      tag_29\n      jump\t// in\n    tag_231:\n      mload(0x40)\n      dup1\n      swap2\n      sub\n      swap1\n      log3\n        /* \"@openzeppelin/contracts/token/ERC20/ERC20.sol\":8247:8284  _afterTokenTransfer(from, to, amount) */\n      tag_232\n        /* \"@openzeppelin/contracts/token/ERC20/ERC20.sol\":8267:8271  from */\n      dup5\n        /* \"@openzeppelin/contracts/token/ERC20/ERC20.sol\":8273:8275  to */\n      dup5\n        /* \"@openzeppelin/contracts/token/ERC20/ERC20.sol\":8277:8283  amount */\n      dup5\n        /* \"@openzeppelin/contracts/token/ERC20/ERC20.sol\":8247:8266  _afterTokenTransfer */\n      tag_233\n        /* \"@openzeppelin/contracts/token/ERC20/ERC20.sol\":8247:8284  _afterTokenTransfer(from, to, amount) */\n      jump\t// in\n    tag_232:\n        /* \"@openzeppelin/contracts/token/ERC20/ERC20.sol\":7581:8291  {... */\n      pop\n        /* \"@openzeppelin/contracts/token/ERC20/ERC20.sol\":7473:8291  function _transfer(... */\n      pop\n      pop\n      pop\n      jump\t// out\n        /* \"contracts/XENDoge.sol\":1800:2165  function calculateMintReward(uint256 currentSupply, uint256 amountBurned) internal pure returns (uint256) {... */\n    tag_170:\n        /* \"contracts/XENDoge.sol\":1897:1904  uint256 */\n      0x00\n        /* \"contracts/XENDoge.sol\":1917:1935  uint256 baseReward */\n      dup1\n        /* \"contracts/XENDoge.sol\":646:650  1000 */\n      0x03e8\n        /* \"contracts/XENDoge.sol\":1938:1950  amountBurned */\n      dup4\n        /* \"contracts/XENDoge.sol\":1938:1967  amountBurned / XEN_BURN_RATIO */\n      tag_235\n      swap2\n      swap1\n      tag_236\n      jump\t// in\n    tag_235:\n        /* \"contracts/XENDoge.sol\":1917:1967  uint256 baseReward = amountBurned / XEN_BURN_RATIO */\n      swap1\n      pop\n        /* \"contracts/XENDoge.sol\":1978:1997  uint32 percentBonus */\n      0x00\n        /* \"contracts/XENDoge.sol\":2000:2030  getPercentBonus(currentSupply) */\n      tag_237\n        /* \"contracts/XENDoge.sol\":2016:2029  currentSupply */\n      dup6\n        /* \"contracts/XENDoge.sol\":2000:2015  getPercentBonus */\n      tag_238\n        /* \"contracts/XENDoge.sol\":2000:2030  getPercentBonus(currentSupply) */\n      jump\t// in\n    tag_237:\n        /* \"contracts/XENDoge.sol\":1978:2030  uint32 percentBonus = getPercentBonus(currentSupply) */\n      swap1\n      pop\n        /* \"contracts/XENDoge.sol\":2041:2066  uint256 earlyAdopterBonus */\n      0x00\n        /* \"contracts/XENDoge.sol\":2069:2107  percentageOf(baseReward, percentBonus) */\n      tag_239\n        /* \"contracts/XENDoge.sol\":2082:2092  baseReward */\n      dup4\n        /* \"contracts/XENDoge.sol\":2094:2106  percentBonus */\n      dup4\n        /* \"contracts/XENDoge.sol\":2069:2081  percentageOf */\n      tag_240\n        /* \"contracts/XENDoge.sol\":2069:2107  percentageOf(baseReward, percentBonus) */\n      jump\t// in\n    tag_239:\n        /* \"contracts/XENDoge.sol\":2041:2107  uint256 earlyAdopterBonus = percentageOf(baseReward, percentBonus) */\n      swap1\n      pop\n        /* \"contracts/XENDoge.sol\":2140:2157  earlyAdopterBonus */\n      dup1\n        /* \"contracts/XENDoge.sol\":2127:2137  baseReward */\n      dup4\n        /* \"contracts/XENDoge.sol\":2127:2157  baseReward + earlyAdopterBonus */\n      tag_241\n      swap2\n      swap1\n      tag_152\n      jump\t// in\n    tag_241:\n        /* \"contracts/XENDoge.sol\":2120:2157  return baseReward + earlyAdopterBonus */\n      swap4\n      pop\n      pop\n      pop\n      pop\n        /* \"contracts/XENDoge.sol\":1800:2165  function calculateMintReward(uint256 currentSupply, uint256 amountBurned) internal pure returns (uint256) {... */\n      swap3\n      swap2\n      pop\n      pop\n      jump\t// out\n        /* \"@openzeppelin/contracts/token/ERC20/extensions/ERC20Capped.sol\":769:973  function _mint(address account, uint256 amount) internal virtual override {... */\n    tag_172:\n        /* \"@openzeppelin/contracts/token/ERC20/extensions/ERC20Capped.sol\":893:898  cap() */\n      tag_243\n        /* \"@openzeppelin/contracts/token/ERC20/extensions/ERC20Capped.sol\":893:896  cap */\n      tag_69\n        /* \"@openzeppelin/contracts/token/ERC20/extensions/ERC20Capped.sol\":893:898  cap() */\n      jump\t// in\n    tag_243:\n        /* \"@openzeppelin/contracts/token/ERC20/extensions/ERC20Capped.sol\":883:889  amount */\n      dup2\n        /* \"@openzeppelin/contracts/token/ERC20/extensions/ERC20Capped.sol\":861:880  ERC20.totalSupply() */\n      tag_244\n        /* \"@openzeppelin/contracts/token/ERC20/extensions/ERC20Capped.sol\":861:878  ERC20.totalSupply */\n      tag_50\n        /* \"@openzeppelin/contracts/token/ERC20/extensions/ERC20Capped.sol\":861:880  ERC20.totalSupply() */\n      jump\t// in\n    tag_244:\n        /* \"@openzeppelin/contracts/token/ERC20/extensions/ERC20Capped.sol\":861:889  ERC20.totalSupply() + amount */\n      tag_245\n      swap2\n      swap1\n      tag_152\n      jump\t// in\n    tag_245:\n        /* \"@openzeppelin/contracts/token/ERC20/extensions/ERC20Capped.sol\":861:898  ERC20.totalSupply() + amount <= cap() */\n      gt\n      iszero\n        /* \"@openzeppelin/contracts/token/ERC20/extensions/ERC20Capped.sol\":853:928  require(ERC20.totalSupply() + amount <= cap(), \"ERC20Capped: cap exceeded\") */\n      tag_246\n      jumpi\n      mload(0x40)\n      0x08c379a000000000000000000000000000000000000000000000000000000000\n      dup2\n      mstore\n      0x04\n      add\n      tag_247\n      swap1\n      tag_248\n      jump\t// in\n    tag_247:\n      mload(0x40)\n      dup1\n      swap2\n      sub\n      swap1\n      revert\n    tag_246:\n        /* \"@openzeppelin/contracts/token/ERC20/extensions/ERC20Capped.sol\":938:966  super._mint(account, amount) */\n      tag_249\n        /* \"@openzeppelin/contracts/token/ERC20/extensions/ERC20Capped.sol\":950:957  account */\n      dup3\n        /* \"@openzeppelin/contracts/token/ERC20/extensions/ERC20Capped.sol\":959:965  amount */\n      dup3\n        /* \"@openzeppelin/contracts/token/ERC20/extensions/ERC20Capped.sol\":938:949  super._mint */\n      tag_250\n        /* \"@openzeppelin/contracts/token/ERC20/extensions/ERC20Capped.sol\":938:966  super._mint(account, amount) */\n      jump\t// in\n    tag_249:\n        /* \"@openzeppelin/contracts/token/ERC20/extensions/ERC20Capped.sol\":769:973  function _mint(address account, uint256 amount) internal virtual override {... */\n      pop\n      pop\n      jump\t// out\n        /* \"@openzeppelin/contracts/token/ERC20/ERC20.sol\":12180:12301  function _beforeTokenTransfer(... */\n    tag_227:\n      pop\n      pop\n      pop\n      jump\t// out\n        /* \"@openzeppelin/contracts/token/ERC20/ERC20.sol\":12889:13009  function _afterTokenTransfer(... */\n    tag_233:\n      pop\n      pop\n      pop\n      jump\t// out\n        /* \"contracts/XENDoge.sol\":2173:3770  function getPercentBonus(uint256 currentSupply) internal pure returns (uint32) {... */\n    tag_238:\n        /* \"contracts/XENDoge.sol\":2244:2250  uint32 */\n      0x00\n        /* \"contracts/XENDoge.sol\":2284:2285  0 */\n      dup1\n        /* \"contracts/XENDoge.sol\":2267:2280  currentSupply */\n      dup3\n        /* \"contracts/XENDoge.sol\":2267:2285  currentSupply >= 0 */\n      lt\n      iszero\n        /* \"contracts/XENDoge.sol\":2267:2334  currentSupply >= 0 && currentSupply <= 7500000000000000000000000000 */\n      dup1\n      iszero\n      tag_254\n      jumpi\n      pop\n        /* \"contracts/XENDoge.sol\":2306:2334  7500000000000000000000000000 */\n      0x183bdac6ae9bc1c8cc000000\n        /* \"contracts/XENDoge.sol\":2289:2302  currentSupply */\n      dup3\n        /* \"contracts/XENDoge.sol\":2289:2334  currentSupply <= 7500000000000000000000000000 */\n      gt\n      iszero\n        /* \"contracts/XENDoge.sol\":2267:2334  currentSupply >= 0 && currentSupply <= 7500000000000000000000000000 */\n    tag_254:\n        /* \"contracts/XENDoge.sol\":2263:2349  if (currentSupply >= 0 && currentSupply <= 7500000000000000000000000000) return 150000 */\n      iszero\n      tag_255\n      jumpi\n        /* \"contracts/XENDoge.sol\":2343:2349  150000 */\n      0x0249f0\n        /* \"contracts/XENDoge.sol\":2336:2349  return 150000 */\n      swap1\n      pop\n      jump(tag_253)\n        /* \"contracts/XENDoge.sol\":2263:2349  if (currentSupply >= 0 && currentSupply <= 7500000000000000000000000000) return 150000 */\n    tag_255:\n        /* \"contracts/XENDoge.sol\":2383:2411  7500000000000000000000000000 */\n      0x183bdac6ae9bc1c8cc000000\n        /* \"contracts/XENDoge.sol\":2367:2380  currentSupply */\n      dup3\n        /* \"contracts/XENDoge.sol\":2367:2411  currentSupply > 7500000000000000000000000000 */\n      gt\n        /* \"contracts/XENDoge.sol\":2367:2461  currentSupply > 7500000000000000000000000000 && currentSupply <= 12500000000000000000000000000 */\n      dup1\n      iszero\n      tag_256\n      jumpi\n      pop\n        /* \"contracts/XENDoge.sol\":2432:2461  12500000000000000000000000000 */\n      0x2863c1f5cdae42f954000000\n        /* \"contracts/XENDoge.sol\":2415:2428  currentSupply */\n      dup3\n        /* \"contracts/XENDoge.sol\":2415:2461  currentSupply <= 12500000000000000000000000000 */\n      gt\n      iszero\n        /* \"contracts/XENDoge.sol\":2367:2461  currentSupply > 7500000000000000000000000000 && currentSupply <= 12500000000000000000000000000 */\n    tag_256:\n        /* \"contracts/XENDoge.sol\":2363:2476  if (currentSupply > 7500000000000000000000000000 && currentSupply <= 12500000000000000000000000000) return 100000 */\n      iszero\n      tag_257\n      jumpi\n        /* \"contracts/XENDoge.sol\":2470:2476  100000 */\n      0x0186a0\n        /* \"contracts/XENDoge.sol\":2463:2476  return 100000 */\n      swap1\n      pop\n      jump(tag_253)\n        /* \"contracts/XENDoge.sol\":2363:2476  if (currentSupply > 7500000000000000000000000000 && currentSupply <= 12500000000000000000000000000) return 100000 */\n    tag_257:\n        /* \"contracts/XENDoge.sol\":2509:2538  12500000000000000000000000000 */\n      0x2863c1f5cdae42f954000000\n        /* \"contracts/XENDoge.sol\":2493:2506  currentSupply */\n      dup3\n        /* \"contracts/XENDoge.sol\":2493:2538  currentSupply > 12500000000000000000000000000 */\n      gt\n        /* \"contracts/XENDoge.sol\":2493:2588  currentSupply > 12500000000000000000000000000 && currentSupply <= 17500000000000000000000000000 */\n      dup1\n      iszero\n      tag_258\n      jumpi\n      pop\n        /* \"contracts/XENDoge.sol\":2559:2588  17500000000000000000000000000 */\n      0x388ba924ecc0c429dc000000\n        /* \"contracts/XENDoge.sol\":2542:2555  currentSupply */\n      dup3\n        /* \"contracts/XENDoge.sol\":2542:2588  currentSupply <= 17500000000000000000000000000 */\n      gt\n      iszero\n        /* \"contracts/XENDoge.sol\":2493:2588  currentSupply > 12500000000000000000000000000 && currentSupply <= 17500000000000000000000000000 */\n    tag_258:\n        /* \"contracts/XENDoge.sol\":2489:2602  if (currentSupply > 12500000000000000000000000000 && currentSupply <= 17500000000000000000000000000) return 66600 */\n      iszero\n      tag_259\n      jumpi\n        /* \"contracts/XENDoge.sol\":2597:2602  66600 */\n      0x010428\n        /* \"contracts/XENDoge.sol\":2590:2602  return 66600 */\n      swap1\n      pop\n      jump(tag_253)\n        /* \"contracts/XENDoge.sol\":2489:2602  if (currentSupply > 12500000000000000000000000000 && currentSupply <= 17500000000000000000000000000) return 66600 */\n    tag_259:\n        /* \"contracts/XENDoge.sol\":2636:2665  17500000000000000000000000000 */\n      0x388ba924ecc0c429dc000000\n        /* \"contracts/XENDoge.sol\":2620:2633  currentSupply */\n      dup3\n        /* \"contracts/XENDoge.sol\":2620:2665  currentSupply > 17500000000000000000000000000 */\n      gt\n        /* \"contracts/XENDoge.sol\":2620:2715  currentSupply > 17500000000000000000000000000 && currentSupply <= 22500000000000000000000000000 */\n      dup1\n      iszero\n      tag_260\n      jumpi\n      pop\n        /* \"contracts/XENDoge.sol\":2686:2715  22500000000000000000000000000 */\n      0x48b390540bd3455a64000000\n        /* \"contracts/XENDoge.sol\":2669:2682  currentSupply */\n      dup3\n        /* \"contracts/XENDoge.sol\":2669:2715  currentSupply <= 22500000000000000000000000000 */\n      gt\n      iszero\n        /* \"contracts/XENDoge.sol\":2620:2715  currentSupply > 17500000000000000000000000000 && currentSupply <= 22500000000000000000000000000 */\n    tag_260:\n        /* \"contracts/XENDoge.sol\":2616:2729  if (currentSupply > 17500000000000000000000000000 && currentSupply <= 22500000000000000000000000000) return 44400 */\n      iszero\n      tag_261\n      jumpi\n        /* \"contracts/XENDoge.sol\":2724:2729  44400 */\n      0xad70\n        /* \"contracts/XENDoge.sol\":2717:2729  return 44400 */\n      swap1\n      pop\n      jump(tag_253)\n        /* \"contracts/XENDoge.sol\":2616:2729  if (currentSupply > 17500000000000000000000000000 && currentSupply <= 22500000000000000000000000000) return 44400 */\n    tag_261:\n        /* \"contracts/XENDoge.sol\":2763:2792  22500000000000000000000000000 */\n      0x48b390540bd3455a64000000\n        /* \"contracts/XENDoge.sol\":2747:2760  currentSupply */\n      dup3\n        /* \"contracts/XENDoge.sol\":2747:2792  currentSupply > 22500000000000000000000000000 */\n      gt\n        /* \"contracts/XENDoge.sol\":2747:2842  currentSupply > 22500000000000000000000000000 && currentSupply <= 27500000000000000000000000000 */\n      dup1\n      iszero\n      tag_262\n      jumpi\n      pop\n        /* \"contracts/XENDoge.sol\":2813:2842  27500000000000000000000000000 */\n      0x58db77832ae5c68aec000000\n        /* \"contracts/XENDoge.sol\":2796:2809  currentSupply */\n      dup3\n        /* \"contracts/XENDoge.sol\":2796:2842  currentSupply <= 27500000000000000000000000000 */\n      gt\n      iszero\n        /* \"contracts/XENDoge.sol\":2747:2842  currentSupply > 22500000000000000000000000000 && currentSupply <= 27500000000000000000000000000 */\n    tag_262:\n        /* \"contracts/XENDoge.sol\":2743:2856  if (currentSupply > 22500000000000000000000000000 && currentSupply <= 27500000000000000000000000000) return 29600 */\n      iszero\n      tag_263\n      jumpi\n        /* \"contracts/XENDoge.sol\":2851:2856  29600 */\n      0x73a0\n        /* \"contracts/XENDoge.sol\":2844:2856  return 29600 */\n      swap1\n      pop\n      jump(tag_253)\n        /* \"contracts/XENDoge.sol\":2743:2856  if (currentSupply > 22500000000000000000000000000 && currentSupply <= 27500000000000000000000000000) return 29600 */\n    tag_263:\n        /* \"contracts/XENDoge.sol\":2890:2919  27500000000000000000000000000 */\n      0x58db77832ae5c68aec000000\n        /* \"contracts/XENDoge.sol\":2874:2887  currentSupply */\n      dup3\n        /* \"contracts/XENDoge.sol\":2874:2919  currentSupply > 27500000000000000000000000000 */\n      gt\n        /* \"contracts/XENDoge.sol\":2874:2969  currentSupply > 27500000000000000000000000000 && currentSupply <= 32500000000000000000000000000 */\n      dup1\n      iszero\n      tag_264\n      jumpi\n      pop\n        /* \"contracts/XENDoge.sol\":2940:2969  32500000000000000000000000000 */\n      0x69035eb249f847bb74000000\n        /* \"contracts/XENDoge.sol\":2923:2936  currentSupply */\n      dup3\n        /* \"contracts/XENDoge.sol\":2923:2969  currentSupply <= 32500000000000000000000000000 */\n      gt\n      iszero\n        /* \"contracts/XENDoge.sol\":2874:2969  currentSupply > 27500000000000000000000000000 && currentSupply <= 32500000000000000000000000000 */\n    tag_264:\n        /* \"contracts/XENDoge.sol\":2870:2983  if (currentSupply > 27500000000000000000000000000 && currentSupply <= 32500000000000000000000000000) return 19700 */\n      iszero\n      tag_265\n      jumpi\n        /* \"contracts/XENDoge.sol\":2978:2983  19700 */\n      0x4cf4\n        /* \"contracts/XENDoge.sol\":2971:2983  return 19700 */\n      swap1\n      pop\n      jump(tag_253)\n        /* \"contracts/XENDoge.sol\":2870:2983  if (currentSupply > 27500000000000000000000000000 && currentSupply <= 32500000000000000000000000000) return 19700 */\n    tag_265:\n        /* \"contracts/XENDoge.sol\":3017:3046  32500000000000000000000000000 */\n      0x69035eb249f847bb74000000\n        /* \"contracts/XENDoge.sol\":3001:3014  currentSupply */\n      dup3\n        /* \"contracts/XENDoge.sol\":3001:3046  currentSupply > 32500000000000000000000000000 */\n      gt\n        /* \"contracts/XENDoge.sol\":3001:3096  currentSupply > 32500000000000000000000000000 && currentSupply <= 35000000000000000000000000000 */\n      dup1\n      iszero\n      tag_266\n      jumpi\n      pop\n        /* \"contracts/XENDoge.sol\":3067:3096  35000000000000000000000000000 */\n      0x71175249d9818853b8000000\n        /* \"contracts/XENDoge.sol\":3050:3063  currentSupply */\n      dup3\n        /* \"contracts/XENDoge.sol\":3050:3096  currentSupply <= 35000000000000000000000000000 */\n      gt\n      iszero\n        /* \"contracts/XENDoge.sol\":3001:3096  currentSupply > 32500000000000000000000000000 && currentSupply <= 35000000000000000000000000000 */\n    tag_266:\n        /* \"contracts/XENDoge.sol\":2997:3110  if (currentSupply > 32500000000000000000000000000 && currentSupply <= 35000000000000000000000000000) return 13100 */\n      iszero\n      tag_267\n      jumpi\n        /* \"contracts/XENDoge.sol\":3105:3110  13100 */\n      0x332c\n        /* \"contracts/XENDoge.sol\":3098:3110  return 13100 */\n      swap1\n      pop\n      jump(tag_253)\n        /* \"contracts/XENDoge.sol\":2997:3110  if (currentSupply > 32500000000000000000000000000 && currentSupply <= 35000000000000000000000000000) return 13100 */\n    tag_267:\n        /* \"contracts/XENDoge.sol\":3144:3173  35000000000000000000000000000 */\n      0x71175249d9818853b8000000\n        /* \"contracts/XENDoge.sol\":3128:3141  currentSupply */\n      dup3\n        /* \"contracts/XENDoge.sol\":3128:3173  currentSupply > 35000000000000000000000000000 */\n      gt\n        /* \"contracts/XENDoge.sol\":3128:3223  currentSupply > 35000000000000000000000000000 && currentSupply <= 37500000000000000000000000000 */\n      dup1\n      iszero\n      tag_268\n      jumpi\n      pop\n        /* \"contracts/XENDoge.sol\":3194:3223  37500000000000000000000000000 */\n      0x792b45e1690ac8ebfc000000\n        /* \"contracts/XENDoge.sol\":3177:3190  currentSupply */\n      dup3\n        /* \"contracts/XENDoge.sol\":3177:3223  currentSupply <= 37500000000000000000000000000 */\n      gt\n      iszero\n        /* \"contracts/XENDoge.sol\":3128:3223  currentSupply > 35000000000000000000000000000 && currentSupply <= 37500000000000000000000000000 */\n    tag_268:\n        /* \"contracts/XENDoge.sol\":3124:3236  if (currentSupply > 35000000000000000000000000000 && currentSupply <= 37500000000000000000000000000) return 8700 */\n      iszero\n      tag_269\n      jumpi\n        /* \"contracts/XENDoge.sol\":3232:3236  8700 */\n      0x21fc\n        /* \"contracts/XENDoge.sol\":3225:3236  return 8700 */\n      swap1\n      pop\n      jump(tag_253)\n        /* \"contracts/XENDoge.sol\":3124:3236  if (currentSupply > 35000000000000000000000000000 && currentSupply <= 37500000000000000000000000000) return 8700 */\n    tag_269:\n        /* \"contracts/XENDoge.sol\":3270:3299  37500000000000000000000000000 */\n      0x792b45e1690ac8ebfc000000\n        /* \"contracts/XENDoge.sol\":3254:3267  currentSupply */\n      dup3\n        /* \"contracts/XENDoge.sol\":3254:3299  currentSupply > 37500000000000000000000000000 */\n      gt\n        /* \"contracts/XENDoge.sol\":3254:3349  currentSupply > 37500000000000000000000000000 && currentSupply <= 40000000000000000000000000000 */\n      dup1\n      iszero\n      tag_270\n      jumpi\n      pop\n        /* \"contracts/XENDoge.sol\":3320:3349  40000000000000000000000000000 */\n      0x813f3978f894098440000000\n        /* \"contracts/XENDoge.sol\":3303:3316  currentSupply */\n      dup3\n        /* \"contracts/XENDoge.sol\":3303:3349  currentSupply <= 40000000000000000000000000000 */\n      gt\n      iszero\n        /* \"contracts/XENDoge.sol\":3254:3349  currentSupply > 37500000000000000000000000000 && currentSupply <= 40000000000000000000000000000 */\n    tag_270:\n        /* \"contracts/XENDoge.sol\":3250:3362  if (currentSupply > 37500000000000000000000000000 && currentSupply <= 40000000000000000000000000000) return 5800 */\n      iszero\n      tag_271\n      jumpi\n        /* \"contracts/XENDoge.sol\":3358:3362  5800 */\n      0x16a8\n        /* \"contracts/XENDoge.sol\":3351:3362  return 5800 */\n      swap1\n      pop\n      jump(tag_253)\n        /* \"contracts/XENDoge.sol\":3250:3362  if (currentSupply > 37500000000000000000000000000 && currentSupply <= 40000000000000000000000000000) return 5800 */\n    tag_271:\n        /* \"contracts/XENDoge.sol\":3396:3425  40000000000000000000000000000 */\n      0x813f3978f894098440000000\n        /* \"contracts/XENDoge.sol\":3380:3393  currentSupply */\n      dup3\n        /* \"contracts/XENDoge.sol\":3380:3425  currentSupply > 40000000000000000000000000000 */\n      gt\n        /* \"contracts/XENDoge.sol\":3380:3475  currentSupply > 40000000000000000000000000000 && currentSupply <= 42500000000000000000000000000 */\n      dup1\n      iszero\n      tag_272\n      jumpi\n      pop\n        /* \"contracts/XENDoge.sol\":3446:3475  42500000000000000000000000000 */\n      0x89532d10881d4a1c84000000\n        /* \"contracts/XENDoge.sol\":3429:3442  currentSupply */\n      dup3\n        /* \"contracts/XENDoge.sol\":3429:3475  currentSupply <= 42500000000000000000000000000 */\n      gt\n      iszero\n        /* \"contracts/XENDoge.sol\":3380:3475  currentSupply > 40000000000000000000000000000 && currentSupply <= 42500000000000000000000000000 */\n    tag_272:\n        /* \"contracts/XENDoge.sol\":3376:3488  if (currentSupply > 40000000000000000000000000000 && currentSupply <= 42500000000000000000000000000) return 3800 */\n      iszero\n      tag_273\n      jumpi\n        /* \"contracts/XENDoge.sol\":3484:3488  3800 */\n      0x0ed8\n        /* \"contracts/XENDoge.sol\":3477:3488  return 3800 */\n      swap1\n      pop\n      jump(tag_253)\n        /* \"contracts/XENDoge.sol\":3376:3488  if (currentSupply > 40000000000000000000000000000 && currentSupply <= 42500000000000000000000000000) return 3800 */\n    tag_273:\n        /* \"contracts/XENDoge.sol\":3522:3551  42500000000000000000000000000 */\n      0x89532d10881d4a1c84000000\n        /* \"contracts/XENDoge.sol\":3506:3519  currentSupply */\n      dup3\n        /* \"contracts/XENDoge.sol\":3506:3551  currentSupply > 42500000000000000000000000000 */\n      gt\n        /* \"contracts/XENDoge.sol\":3506:3601  currentSupply > 42500000000000000000000000000 && currentSupply <= 45000000000000000000000000000 */\n      dup1\n      iszero\n      tag_274\n      jumpi\n      pop\n        /* \"contracts/XENDoge.sol\":3572:3601  45000000000000000000000000000 */\n      0x916720a817a68ab4c8000000\n        /* \"contracts/XENDoge.sol\":3555:3568  currentSupply */\n      dup3\n        /* \"contracts/XENDoge.sol\":3555:3601  currentSupply <= 45000000000000000000000000000 */\n      gt\n      iszero\n        /* \"contracts/XENDoge.sol\":3506:3601  currentSupply > 42500000000000000000000000000 && currentSupply <= 45000000000000000000000000000 */\n    tag_274:\n        /* \"contracts/XENDoge.sol\":3502:3614  if (currentSupply > 42500000000000000000000000000 && currentSupply <= 45000000000000000000000000000) return 2500 */\n      iszero\n      tag_275\n      jumpi\n        /* \"contracts/XENDoge.sol\":3610:3614  2500 */\n      0x09c4\n        /* \"contracts/XENDoge.sol\":3603:3614  return 2500 */\n      swap1\n      pop\n      jump(tag_253)\n        /* \"contracts/XENDoge.sol\":3502:3614  if (currentSupply > 42500000000000000000000000000 && currentSupply <= 45000000000000000000000000000) return 2500 */\n    tag_275:\n        /* \"contracts/XENDoge.sol\":3648:3677  45000000000000000000000000000 */\n      0x916720a817a68ab4c8000000\n        /* \"contracts/XENDoge.sol\":3632:3645  currentSupply */\n      dup3\n        /* \"contracts/XENDoge.sol\":3632:3677  currentSupply > 45000000000000000000000000000 */\n      gt\n        /* \"contracts/XENDoge.sol\":3632:3727  currentSupply > 45000000000000000000000000000 && currentSupply <= 47500000000000000000000000000 */\n      dup1\n      iszero\n      tag_276\n      jumpi\n      pop\n        /* \"contracts/XENDoge.sol\":3698:3727  47500000000000000000000000000 */\n      0x997b143fa72fcb4d0c000000\n        /* \"contracts/XENDoge.sol\":3681:3694  currentSupply */\n      dup3\n        /* \"contracts/XENDoge.sol\":3681:3727  currentSupply <= 47500000000000000000000000000 */\n      gt\n      iszero\n        /* \"contracts/XENDoge.sol\":3632:3727  currentSupply > 45000000000000000000000000000 && currentSupply <= 47500000000000000000000000000 */\n    tag_276:\n        /* \"contracts/XENDoge.sol\":3628:3740  if (currentSupply > 45000000000000000000000000000 && currentSupply <= 47500000000000000000000000000) return 1700 */\n      iszero\n      tag_277\n      jumpi\n        /* \"contracts/XENDoge.sol\":3736:3740  1700 */\n      0x06a4\n        /* \"contracts/XENDoge.sol\":3729:3740  return 1700 */\n      swap1\n      pop\n      jump(tag_253)\n        /* \"contracts/XENDoge.sol\":3628:3740  if (currentSupply > 45000000000000000000000000000 && currentSupply <= 47500000000000000000000000000) return 1700 */\n    tag_277:\n        /* \"contracts/XENDoge.sol\":3761:3762  0 */\n      0x00\n        /* \"contracts/XENDoge.sol\":3754:3762  return 0 */\n      swap1\n      pop\n        /* \"contracts/XENDoge.sol\":2173:3770  function getPercentBonus(uint256 currentSupply) internal pure returns (uint32) {... */\n    tag_253:\n      swap2\n      swap1\n      pop\n      jump\t// out\n        /* \"contracts/XENDoge.sol\":3778:3914  function percentageOf(uint256 number, uint32 percent) internal pure returns (uint256) {... */\n    tag_240:\n        /* \"contracts/XENDoge.sol\":3855:3862  uint256 */\n      0x00\n        /* \"contracts/XENDoge.sol\":3901:3906  10000 */\n      0x2710\n        /* \"contracts/XENDoge.sol\":3891:3898  percent */\n      dup3\n        /* \"contracts/XENDoge.sol\":3882:3898  number * percent */\n      0xffffffff\n      and\n        /* \"contracts/XENDoge.sol\":3882:3888  number */\n      dup5\n        /* \"contracts/XENDoge.sol\":3882:3898  number * percent */\n      tag_279\n      swap2\n      swap1\n      tag_280\n      jump\t// in\n    tag_279:\n        /* \"contracts/XENDoge.sol\":3882:3906  number * percent / 10000 */\n      tag_281\n      swap2\n      swap1\n      tag_236\n      jump\t// in\n    tag_281:\n        /* \"contracts/XENDoge.sol\":3875:3906  return number * percent / 10000 */\n      swap1\n      pop\n        /* \"contracts/XENDoge.sol\":3778:3914  function percentageOf(uint256 number, uint32 percent) internal pure returns (uint256) {... */\n      swap3\n      swap2\n      pop\n      pop\n      jump\t// out\n        /* \"@openzeppelin/contracts/token/ERC20/ERC20.sol\":8567:9102  function _mint(address account, uint256 amount) internal virtual {... */\n    tag_250:\n        /* \"@openzeppelin/contracts/token/ERC20/ERC20.sol\":8669:8670  0 */\n      0x00\n        /* \"@openzeppelin/contracts/token/ERC20/ERC20.sol\":8650:8671  account != address(0) */\n      0xffffffffffffffffffffffffffffffffffffffff\n      and\n        /* \"@openzeppelin/contracts/token/ERC20/ERC20.sol\":8650:8657  account */\n      dup3\n        /* \"@openzeppelin/contracts/token/ERC20/ERC20.sol\":8650:8671  account != address(0) */\n      0xffffffffffffffffffffffffffffffffffffffff\n      and\n      sub\n        /* \"@openzeppelin/contracts/token/ERC20/ERC20.sol\":8642:8707  require(account != address(0), \"ERC20: mint to the zero address\") */\n      tag_283\n      jumpi\n      mload(0x40)\n      0x08c379a000000000000000000000000000000000000000000000000000000000\n      dup2\n      mstore\n      0x04\n      add\n      tag_284\n      swap1\n      tag_285\n      jump\t// in\n    tag_284:\n      mload(0x40)\n      dup1\n      swap2\n      sub\n      swap1\n      revert\n    tag_283:\n        /* \"@openzeppelin/contracts/token/ERC20/ERC20.sol\":8718:8767  _beforeTokenTransfer(address(0), account, amount) */\n      tag_286\n        /* \"@openzeppelin/contracts/token/ERC20/ERC20.sol\":8747:8748  0 */\n      0x00\n        /* \"@openzeppelin/contracts/token/ERC20/ERC20.sol\":8751:8758  account */\n      dup4\n        /* \"@openzeppelin/contracts/token/ERC20/ERC20.sol\":8760:8766  amount */\n      dup4\n        /* \"@openzeppelin/contracts/token/ERC20/ERC20.sol\":8718:8738  _beforeTokenTransfer */\n      tag_227\n        /* \"@openzeppelin/contracts/token/ERC20/ERC20.sol\":8718:8767  _beforeTokenTransfer(address(0), account, amount) */\n      jump\t// in\n    tag_286:\n        /* \"@openzeppelin/contracts/token/ERC20/ERC20.sol\":8794:8800  amount */\n      dup1\n        /* \"@openzeppelin/contracts/token/ERC20/ERC20.sol\":8778:8790  _totalSupply */\n      0x02\n      0x00\n        /* \"@openzeppelin/contracts/token/ERC20/ERC20.sol\":8778:8800  _totalSupply += amount */\n      dup3\n      dup3\n      sload\n      tag_287\n      swap2\n      swap1\n      tag_152\n      jump\t// in\n    tag_287:\n      swap3\n      pop\n      pop\n      dup2\n      swap1\n      sstore\n      pop\n        /* \"@openzeppelin/contracts/token/ERC20/ERC20.sol\":8968:8974  amount */\n      dup1\n        /* \"@openzeppelin/contracts/token/ERC20/ERC20.sol\":8946:8955  _balances */\n      0x00\n        /* \"@openzeppelin/contracts/token/ERC20/ERC20.sol\":8946:8964  _balances[account] */\n      dup1\n        /* \"@openzeppelin/contracts/token/ERC20/ERC20.sol\":8956:8963  account */\n      dup5\n        /* \"@openzeppelin/contracts/token/ERC20/ERC20.sol\":8946:8964  _balances[account] */\n      0xffffffffffffffffffffffffffffffffffffffff\n      and\n      0xffffffffffffffffffffffffffffffffffffffff\n      and\n      dup2\n      mstore\n      0x20\n      add\n      swap1\n      dup2\n      mstore\n      0x20\n      add\n      0x00\n      keccak256\n      0x00\n        /* \"@openzeppelin/contracts/token/ERC20/ERC20.sol\":8946:8974  _balances[account] += amount */\n      dup3\n      dup3\n      sload\n      add\n      swap3\n      pop\n      pop\n      dup2\n      swap1\n      sstore\n      pop\n        /* \"@openzeppelin/contracts/token/ERC20/ERC20.sol\":9020:9027  account */\n      dup2\n        /* \"@openzeppelin/contracts/token/ERC20/ERC20.sol\":8999:9036  Transfer(address(0), account, amount) */\n      0xffffffffffffffffffffffffffffffffffffffff\n      and\n        /* \"@openzeppelin/contracts/token/ERC20/ERC20.sol\":9016:9017  0 */\n      0x00\n        /* \"@openzeppelin/contracts/token/ERC20/ERC20.sol\":8999:9036  Transfer(address(0), account, amount) */\n      0xffffffffffffffffffffffffffffffffffffffff\n      and\n      0xddf252ad1be2c89b69c2b068fc378daa952ba7f163c4a11628f55a4df523b3ef\n        /* \"@openzeppelin/contracts/token/ERC20/ERC20.sol\":9029:9035  amount */\n      dup4\n        /* \"@openzeppelin/contracts/token/ERC20/ERC20.sol\":8999:9036  Transfer(address(0), account, amount) */\n      mload(0x40)\n      tag_288\n      swap2\n      swap1\n      tag_29\n      jump\t// in\n    tag_288:\n      mload(0x40)\n      dup1\n      swap2\n      sub\n      swap1\n      log3\n        /* \"@openzeppelin/contracts/token/ERC20/ERC20.sol\":9047:9095  _afterTokenTransfer(address(0), account, amount) */\n      tag_289\n        /* \"@openzeppelin/contracts/token/ERC20/ERC20.sol\":9075:9076  0 */\n      0x00\n        /* \"@openzeppelin/contracts/token/ERC20/ERC20.sol\":9079:9086  account */\n      dup4\n        /* \"@openzeppelin/contracts/token/ERC20/ERC20.sol\":9088:9094  amount */\n      dup4\n        /* \"@openzeppelin/contracts/token/ERC20/ERC20.sol\":9047:9066  _afterTokenTransfer */\n      tag_233\n        /* \"@openzeppelin/contracts/token/ERC20/ERC20.sol\":9047:9095  _afterTokenTransfer(address(0), account, amount) */\n      jump\t// in\n    tag_289:\n        /* \"@openzeppelin/contracts/token/ERC20/ERC20.sol\":8567:9102  function _mint(address account, uint256 amount) internal virtual {... */\n      pop\n      pop\n      jump\t// out\n        /* \"#utility.yul\":7:84   */\n    tag_290:\n        /* \"#utility.yul\":44:51   */\n      0x00\n        /* \"#utility.yul\":73:78   */\n      dup2\n        /* \"#utility.yul\":62:78   */\n      swap1\n      pop\n        /* \"#utility.yul\":7:84   */\n      swap2\n      swap1\n      pop\n      jump\t// out\n        /* \"#utility.yul\":90:208   */\n    tag_291:\n        /* \"#utility.yul\":177:201   */\n      tag_347\n        /* \"#utility.yul\":195:200   */\n      dup2\n        /* \"#utility.yul\":177:201   */\n      tag_290\n      jump\t// in\n    tag_347:\n        /* \"#utility.yul\":172:175   */\n      dup3\n        /* \"#utility.yul\":165:202   */\n      mstore\n        /* \"#utility.yul\":90:208   */\n      pop\n      pop\n      jump\t// out\n        /* \"#utility.yul\":214:436   */\n    tag_29:\n        /* \"#utility.yul\":307:311   */\n      0x00\n        /* \"#utility.yul\":345:347   */\n      0x20\n        /* \"#utility.yul\":334:343   */\n      dup3\n        /* \"#utility.yul\":330:348   */\n      add\n        /* \"#utility.yul\":322:348   */\n      swap1\n      pop\n        /* \"#utility.yul\":358:429   */\n      tag_349\n        /* \"#utility.yul\":426:427   */\n      0x00\n        /* \"#utility.yul\":415:424   */\n      dup4\n        /* \"#utility.yul\":411:428   */\n      add\n        /* \"#utility.yul\":402:408   */\n      dup5\n        /* \"#utility.yul\":358:429   */\n      tag_291\n      jump\t// in\n    tag_349:\n        /* \"#utility.yul\":214:436   */\n      swap3\n      swap2\n      pop\n      pop\n      jump\t// out\n        /* \"#utility.yul\":523:640   */\n    tag_293:\n        /* \"#utility.yul\":632:633   */\n      0x00\n        /* \"#utility.yul\":629:630   */\n      dup1\n        /* \"#utility.yul\":622:634   */\n      revert\n        /* \"#utility.yul\":769:918   */\n    tag_295:\n        /* \"#utility.yul\":805:812   */\n      0x00\n        /* \"#utility.yul\":845:911   */\n      0xffffffff00000000000000000000000000000000000000000000000000000000\n        /* \"#utility.yul\":838:843   */\n      dup3\n        /* \"#utility.yul\":834:912   */\n      and\n        /* \"#utility.yul\":823:912   */\n      swap1\n      pop\n        /* \"#utility.yul\":769:918   */\n      swap2\n      swap1\n      pop\n      jump\t// out\n        /* \"#utility.yul\":924:1044   */\n    tag_296:\n        /* \"#utility.yul\":996:1019   */\n      tag_355\n        /* \"#utility.yul\":1013:1018   */\n      dup2\n        /* \"#utility.yul\":996:1019   */\n      tag_295\n      jump\t// in\n    tag_355:\n        /* \"#utility.yul\":989:994   */\n      dup2\n        /* \"#utility.yul\":986:1020   */\n      eq\n        /* \"#utility.yul\":976:1038   */\n      tag_356\n      jumpi\n        /* \"#utility.yul\":1034:1035   */\n      0x00\n        /* \"#utility.yul\":1031:1032   */\n      dup1\n        /* \"#utility.yul\":1024:1036   */\n      revert\n        /* \"#utility.yul\":976:1038   */\n    tag_356:\n        /* \"#utility.yul\":924:1044   */\n      pop\n      jump\t// out\n        /* \"#utility.yul\":1050:1187   */\n    tag_297:\n        /* \"#utility.yul\":1095:1100   */\n      0x00\n        /* \"#utility.yul\":1133:1139   */\n      dup2\n        /* \"#utility.yul\":1120:1140   */\n      calldataload\n        /* \"#utility.yul\":1111:1140   */\n      swap1\n      pop\n        /* \"#utility.yul\":1149:1181   */\n      tag_358\n        /* \"#utility.yul\":1175:1180   */\n      dup2\n        /* \"#utility.yul\":1149:1181   */\n      tag_296\n      jump\t// in\n    tag_358:\n        /* \"#utility.yul\":1050:1187   */\n      swap3\n      swap2\n      pop\n      pop\n      jump\t// out\n        /* \"#utility.yul\":1193:1520   */\n    tag_33:\n        /* \"#utility.yul\":1251:1257   */\n      0x00\n        /* \"#utility.yul\":1300:1302   */\n      0x20\n        /* \"#utility.yul\":1288:1297   */\n      dup3\n        /* \"#utility.yul\":1279:1286   */\n      dup5\n        /* \"#utility.yul\":1275:1298   */\n      sub\n        /* \"#utility.yul\":1271:1303   */\n      slt\n        /* \"#utility.yul\":1268:1387   */\n      iszero\n      tag_360\n      jumpi\n        /* \"#utility.yul\":1306:1385   */\n      tag_361\n      tag_293\n      jump\t// in\n    tag_361:\n        /* \"#utility.yul\":1268:1387   */\n    tag_360:\n        /* \"#utility.yul\":1426:1427   */\n      0x00\n        /* \"#utility.yul\":1451:1503   */\n      tag_362\n        /* \"#utility.yul\":1495:1502   */\n      dup5\n        /* \"#utility.yul\":1486:1492   */\n      dup3\n        /* \"#utility.yul\":1475:1484   */\n      dup6\n        /* \"#utility.yul\":1471:1493   */\n      add\n        /* \"#utility.yul\":1451:1503   */\n      tag_297\n      jump\t// in\n    tag_362:\n        /* \"#utility.yul\":1441:1503   */\n      swap2\n      pop\n        /* \"#utility.yul\":1397:1513   */\n      pop\n        /* \"#utility.yul\":1193:1520   */\n      swap3\n      swap2\n      pop\n      pop\n      jump\t// out\n        /* \"#utility.yul\":1526:1616   */\n    tag_298:\n        /* \"#utility.yul\":1560:1567   */\n      0x00\n        /* \"#utility.yul\":1603:1608   */\n      dup2\n        /* \"#utility.yul\":1596:1609   */\n      iszero\n        /* \"#utility.yul\":1589:1610   */\n      iszero\n        /* \"#utility.yul\":1578:1610   */\n      swap1\n      pop\n        /* \"#utility.yul\":1526:1616   */\n      swap2\n      swap1\n      pop\n      jump\t// out\n        /* \"#utility.yul\":1622:1731   */\n    tag_299:\n        /* \"#utility.yul\":1703:1724   */\n      tag_365\n        /* \"#utility.yul\":1718:1723   */\n      dup2\n        /* \"#utility.yul\":1703:1724   */\n      tag_298\n      jump\t// in\n    tag_365:\n        /* \"#utility.yul\":1698:1701   */\n      dup3\n        /* \"#utility.yul\":1691:1725   */\n      mstore\n        /* \"#utility.yul\":1622:1731   */\n      pop\n      pop\n      jump\t// out\n        /* \"#utility.yul\":1737:1947   */\n    tag_36:\n        /* \"#utility.yul\":1824:1828   */\n      0x00\n        /* \"#utility.yul\":1862:1864   */\n      0x20\n        /* \"#utility.yul\":1851:1860   */\n      dup3\n        /* \"#utility.yul\":1847:1865   */\n      add\n        /* \"#utility.yul\":1839:1865   */\n      swap1\n      pop\n        /* \"#utility.yul\":1875:1940   */\n      tag_367\n        /* \"#utility.yul\":1937:1938   */\n      0x00\n        /* \"#utility.yul\":1926:1935   */\n      dup4\n        /* \"#utility.yul\":1922:1939   */\n      add\n        /* \"#utility.yul\":1913:1919   */\n      dup5\n        /* \"#utility.yul\":1875:1940   */\n      tag_299\n      jump\t// in\n    tag_367:\n        /* \"#utility.yul\":1737:1947   */\n      swap3\n      swap2\n      pop\n      pop\n      jump\t// out\n        /* \"#utility.yul\":1953:2052   */\n    tag_300:\n        /* \"#utility.yul\":2005:2011   */\n      0x00\n        /* \"#utility.yul\":2039:2044   */\n      dup2\n        /* \"#utility.yul\":2033:2045   */\n      mload\n        /* \"#utility.yul\":2023:2045   */\n      swap1\n      pop\n        /* \"#utility.yul\":1953:2052   */\n      swap2\n      swap1\n      pop\n      jump\t// out\n        /* \"#utility.yul\":2058:2227   */\n    tag_301:\n        /* \"#utility.yul\":2142:2153   */\n      0x00\n        /* \"#utility.yul\":2176:2182   */\n      dup3\n        /* \"#utility.yul\":2171:2174   */\n      dup3\n        /* \"#utility.yul\":2164:2183   */\n      mstore\n        /* \"#utility.yul\":2216:2220   */\n      0x20\n        /* \"#utility.yul\":2211:2214   */\n      dup3\n        /* \"#utility.yul\":2207:2221   */\n      add\n        /* \"#utility.yul\":2192:2221   */\n      swap1\n      pop\n        /* \"#utility.yul\":2058:2227   */\n      swap3\n      swap2\n      pop\n      pop\n      jump\t// out\n        /* \"#utility.yul\":2233:2479   */\n    tag_302:\n        /* \"#utility.yul\":2314:2315   */\n      0x00\n        /* \"#utility.yul\":2324:2437   */\n    tag_371:\n        /* \"#utility.yul\":2338:2344   */\n      dup4\n        /* \"#utility.yul\":2335:2336   */\n      dup2\n        /* \"#utility.yul\":2332:2345   */\n      lt\n        /* \"#utility.yul\":2324:2437   */\n      iszero\n      tag_373\n      jumpi\n        /* \"#utility.yul\":2423:2424   */\n      dup1\n        /* \"#utility.yul\":2418:2421   */\n      dup3\n        /* \"#utility.yul\":2414:2425   */\n      add\n        /* \"#utility.yul\":2408:2426   */\n      mload\n        /* \"#utility.yul\":2404:2405   */\n      dup2\n        /* \"#utility.yul\":2399:2402   */\n      dup5\n        /* \"#utility.yul\":2395:2406   */\n      add\n        /* \"#utility.yul\":2388:2427   */\n      mstore\n        /* \"#utility.yul\":2360:2362   */\n      0x20\n        /* \"#utility.yul\":2357:2358   */\n      dup2\n        /* \"#utility.yul\":2353:2363   */\n      add\n        /* \"#utility.yul\":2348:2363   */\n      swap1\n      pop\n        /* \"#utility.yul\":2324:2437   */\n      jump(tag_371)\n    tag_373:\n        /* \"#utility.yul\":2471:2472   */\n      0x00\n        /* \"#utility.yul\":2462:2468   */\n      dup5\n        /* \"#utility.yul\":2457:2460   */\n      dup5\n        /* \"#utility.yul\":2453:2469   */\n      add\n        /* \"#utility.yul\":2446:2473   */\n      mstore\n        /* \"#utility.yul\":2295:2479   */\n      pop\n        /* \"#utility.yul\":2233:2479   */\n      pop\n      pop\n      pop\n      jump\t// out\n        /* \"#utility.yul\":2485:2587   */\n    tag_303:\n        /* \"#utility.yul\":2526:2532   */\n      0x00\n        /* \"#utility.yul\":2577:2579   */\n      0x1f\n        /* \"#utility.yul\":2573:2580   */\n      not\n        /* \"#utility.yul\":2568:2570   */\n      0x1f\n        /* \"#utility.yul\":2561:2566   */\n      dup4\n        /* \"#utility.yul\":2557:2571   */\n      add\n        /* \"#utility.yul\":2553:2581   */\n      and\n        /* \"#utility.yul\":2543:2581   */\n      swap1\n      pop\n        /* \"#utility.yul\":2485:2587   */\n      swap2\n      swap1\n      pop\n      jump\t// out\n        /* \"#utility.yul\":2593:2970   */\n    tag_304:\n        /* \"#utility.yul\":2681:2684   */\n      0x00\n        /* \"#utility.yul\":2709:2748   */\n      tag_376\n        /* \"#utility.yul\":2742:2747   */\n      dup3\n        /* \"#utility.yul\":2709:2748   */\n      tag_300\n      jump\t// in\n    tag_376:\n        /* \"#utility.yul\":2764:2835   */\n      tag_377\n        /* \"#utility.yul\":2828:2834   */\n      dup2\n        /* \"#utility.yul\":2823:2826   */\n      dup6\n        /* \"#utility.yul\":2764:2835   */\n      tag_301\n      jump\t// in\n    tag_377:\n        /* \"#utility.yul\":2757:2835   */\n      swap4\n      pop\n        /* \"#utility.yul\":2844:2909   */\n      tag_378\n        /* \"#utility.yul\":2902:2908   */\n      dup2\n        /* \"#utility.yul\":2897:2900   */\n      dup6\n        /* \"#utility.yul\":2890:2894   */\n      0x20\n        /* \"#utility.yul\":2883:2888   */\n      dup7\n        /* \"#utility.yul\":2879:2895   */\n      add\n        /* \"#utility.yul\":2844:2909   */\n      tag_302\n      jump\t// in\n    tag_378:\n        /* \"#utility.yul\":2934:2963   */\n      tag_379\n        /* \"#utility.yul\":2956:2962   */\n      dup2\n        /* \"#utility.yul\":2934:2963   */\n      tag_303\n      jump\t// in\n    tag_379:\n        /* \"#utility.yul\":2929:2932   */\n      dup5\n        /* \"#utility.yul\":2925:2964   */\n      add\n        /* \"#utility.yul\":2918:2964   */\n      swap2\n      pop\n        /* \"#utility.yul\":2685:2970   */\n      pop\n        /* \"#utility.yul\":2593:2970   */\n      swap3\n      swap2\n      pop\n      pop\n      jump\t// out\n        /* \"#utility.yul\":2976:3289   */\n    tag_41:\n        /* \"#utility.yul\":3089:3093   */\n      0x00\n        /* \"#utility.yul\":3127:3129   */\n      0x20\n        /* \"#utility.yul\":3116:3125   */\n      dup3\n        /* \"#utility.yul\":3112:3130   */\n      add\n        /* \"#utility.yul\":3104:3130   */\n      swap1\n      pop\n        /* \"#utility.yul\":3176:3185   */\n      dup2\n        /* \"#utility.yul\":3170:3174   */\n      dup2\n        /* \"#utility.yul\":3166:3186   */\n      sub\n        /* \"#utility.yul\":3162:3163   */\n      0x00\n        /* \"#utility.yul\":3151:3160   */\n      dup4\n        /* \"#utility.yul\":3147:3164   */\n      add\n        /* \"#utility.yul\":3140:3187   */\n      mstore\n        /* \"#utility.yul\":3204:3282   */\n      tag_381\n        /* \"#utility.yul\":3277:3281   */\n      dup2\n        /* \"#utility.yul\":3268:3274   */\n      dup5\n        /* \"#utility.yul\":3204:3282   */\n      tag_304\n      jump\t// in\n    tag_381:\n        /* \"#utility.yul\":3196:3282   */\n      swap1\n      pop\n        /* \"#utility.yul\":2976:3289   */\n      swap3\n      swap2\n      pop\n      pop\n      jump\t// out\n        /* \"#utility.yul\":3295:3421   */\n    tag_305:\n        /* \"#utility.yul\":3332:3339   */\n      0x00\n        /* \"#utility.yul\":3372:3414   */\n      0xffffffffffffffffffffffffffffffffffffffff\n        /* \"#utility.yul\":3365:3370   */\n      dup3\n        /* \"#utility.yul\":3361:3415   */\n      and\n        /* \"#utility.yul\":3350:3415   */\n      swap1\n      pop\n        /* \"#utility.yul\":3295:3421   */\n      swap2\n      swap1\n      pop\n      jump\t// out\n        /* \"#utility.yul\":3427:3523   */\n    tag_306:\n        /* \"#utility.yul\":3464:3471   */\n      0x00\n        /* \"#utility.yul\":3493:3517   */\n      tag_384\n        /* \"#utility.yul\":3511:3516   */\n      dup3\n        /* \"#utility.yul\":3493:3517   */\n      tag_305\n      jump\t// in\n    tag_384:\n        /* \"#utility.yul\":3482:3517   */\n      swap1\n      pop\n        /* \"#utility.yul\":3427:3523   */\n      swap2\n      swap1\n      pop\n      jump\t// out\n        /* \"#utility.yul\":3529:3651   */\n    tag_307:\n        /* \"#utility.yul\":3602:3626   */\n      tag_386\n        /* \"#utility.yul\":3620:3625   */\n      dup2\n        /* \"#utility.yul\":3602:3626   */\n      tag_306\n      jump\t// in\n    tag_386:\n        /* \"#utility.yul\":3595:3600   */\n      dup2\n        /* \"#utility.yul\":3592:3627   */\n      eq\n        /* \"#utility.yul\":3582:3645   */\n      tag_387\n      jumpi\n        /* \"#utility.yul\":3641:3642   */\n      0x00\n        /* \"#utility.yul\":3638:3639   */\n      dup1\n        /* \"#utility.yul\":3631:3643   */\n      revert\n        /* \"#utility.yul\":3582:3645   */\n    tag_387:\n        /* \"#utility.yul\":3529:3651   */\n      pop\n      jump\t// out\n        /* \"#utility.yul\":3657:3796   */\n    tag_308:\n        /* \"#utility.yul\":3703:3708   */\n      0x00\n        /* \"#utility.yul\":3741:3747   */\n      dup2\n        /* \"#utility.yul\":3728:3748   */\n      calldataload\n        /* \"#utility.yul\":3719:3748   */\n      swap1\n      pop\n        /* \"#utility.yul\":3757:3790   */\n      tag_389\n        /* \"#utility.yul\":3784:3789   */\n      dup2\n        /* \"#utility.yul\":3757:3790   */\n      tag_307\n      jump\t// in\n    tag_389:\n        /* \"#utility.yul\":3657:3796   */\n      swap3\n      swap2\n      pop\n      pop\n      jump\t// out\n        /* \"#utility.yul\":3802:3924   */\n    tag_309:\n        /* \"#utility.yul\":3875:3899   */\n      tag_391\n        /* \"#utility.yul\":3893:3898   */\n      dup2\n        /* \"#utility.yul\":3875:3899   */\n      tag_290\n      jump\t// in\n    tag_391:\n        /* \"#utility.yul\":3868:3873   */\n      dup2\n        /* \"#utility.yul\":3865:3900   */\n      eq\n        /* \"#utility.yul\":3855:3918   */\n      tag_392\n      jumpi\n        /* \"#utility.yul\":3914:3915   */\n      0x00\n        /* \"#utility.yul\":3911:3912   */\n      dup1\n        /* \"#utility.yul\":3904:3916   */\n      revert\n        /* \"#utility.yul\":3855:3918   */\n    tag_392:\n        /* \"#utility.yul\":3802:3924   */\n      pop\n      jump\t// out\n        /* \"#utility.yul\":3930:4069   */\n    tag_310:\n        /* \"#utility.yul\":3976:3981   */\n      0x00\n        /* \"#utility.yul\":4014:4020   */\n      dup2\n        /* \"#utility.yul\":4001:4021   */\n      calldataload\n        /* \"#utility.yul\":3992:4021   */\n      swap1\n      pop\n        /* \"#utility.yul\":4030:4063   */\n      tag_394\n        /* \"#utility.yul\":4057:4062   */\n      dup2\n        /* \"#utility.yul\":4030:4063   */\n      tag_309\n      jump\t// in\n    tag_394:\n        /* \"#utility.yul\":3930:4069   */\n      swap3\n      swap2\n      pop\n      pop\n      jump\t// out\n        /* \"#utility.yul\":4075:4549   */\n    tag_45:\n        /* \"#utility.yul\":4143:4149   */\n      0x00\n        /* \"#utility.yul\":4151:4157   */\n      dup1\n        /* \"#utility.yul\":4200:4202   */\n      0x40\n        /* \"#utility.yul\":4188:4197   */\n      dup4\n        /* \"#utility.yul\":4179:4186   */\n      dup6\n        /* \"#utility.yul\":4175:4198   */\n      sub\n        /* \"#utility.yul\":4171:4203   */\n      slt\n        /* \"#utility.yul\":4168:4287   */\n      iszero\n      tag_396\n      jumpi\n        /* \"#utility.yul\":4206:4285   */\n      tag_397\n      tag_293\n      jump\t// in\n    tag_397:\n        /* \"#utility.yul\":4168:4287   */\n    tag_396:\n        /* \"#utility.yul\":4326:4327   */\n      0x00\n        /* \"#utility.yul\":4351:4404   */\n      tag_398\n        /* \"#utility.yul\":4396:4403   */\n      dup6\n        /* \"#utility.yul\":4387:4393   */\n      dup3\n        /* \"#utility.yul\":4376:4385   */\n      dup7\n        /* \"#utility.yul\":4372:4394   */\n      add\n        /* \"#utility.yul\":4351:4404   */\n      tag_308\n      jump\t// in\n    tag_398:\n        /* \"#utility.yul\":4341:4404   */\n      swap3\n      pop\n        /* \"#utility.yul\":4297:4414   */\n      pop\n        /* \"#utility.yul\":4453:4455   */\n      0x20\n        /* \"#utility.yul\":4479:4532   */\n      tag_399\n        /* \"#utility.yul\":4524:4531   */\n      dup6\n        /* \"#utility.yul\":4515:4521   */\n      dup3\n        /* \"#utility.yul\":4504:4513   */\n      dup7\n        /* \"#utility.yul\":4500:4522   */\n      add\n        /* \"#utility.yul\":4479:4532   */\n      tag_310\n      jump\t// in\n    tag_399:\n        /* \"#utility.yul\":4469:4532   */\n      swap2\n      pop\n        /* \"#utility.yul\":4424:4542   */\n      pop\n        /* \"#utility.yul\":4075:4549   */\n      swap3\n      pop\n      swap3\n      swap1\n      pop\n      jump\t// out\n        /* \"#utility.yul\":4555:5174   */\n    tag_59:\n        /* \"#utility.yul\":4632:4638   */\n      0x00\n        /* \"#utility.yul\":4640:4646   */\n      dup1\n        /* \"#utility.yul\":4648:4654   */\n      0x00\n        /* \"#utility.yul\":4697:4699   */\n      0x60\n        /* \"#utility.yul\":4685:4694   */\n      dup5\n        /* \"#utility.yul\":4676:4683   */\n      dup7\n        /* \"#utility.yul\":4672:4695   */\n      sub\n        /* \"#utility.yul\":4668:4700   */\n      slt\n        /* \"#utility.yul\":4665:4784   */\n      iszero\n      tag_401\n      jumpi\n        /* \"#utility.yul\":4703:4782   */\n      tag_402\n      tag_293\n      jump\t// in\n    tag_402:\n        /* \"#utility.yul\":4665:4784   */\n    tag_401:\n        /* \"#utility.yul\":4823:4824   */\n      0x00\n        /* \"#utility.yul\":4848:4901   */\n      tag_403\n        /* \"#utility.yul\":4893:4900   */\n      dup7\n        /* \"#utility.yul\":4884:4890   */\n      dup3\n        /* \"#utility.yul\":4873:4882   */\n      dup8\n        /* \"#utility.yul\":4869:4891   */\n      add\n        /* \"#utility.yul\":4848:4901   */\n      tag_308\n      jump\t// in\n    tag_403:\n        /* \"#utility.yul\":4838:4901   */\n      swap4\n      pop\n        /* \"#utility.yul\":4794:4911   */\n      pop\n        /* \"#utility.yul\":4950:4952   */\n      0x20\n        /* \"#utility.yul\":4976:5029   */\n      tag_404\n        /* \"#utility.yul\":5021:5028   */\n      dup7\n        /* \"#utility.yul\":5012:5018   */\n      dup3\n        /* \"#utility.yul\":5001:5010   */\n      dup8\n        /* \"#utility.yul\":4997:5019   */\n      add\n        /* \"#utility.yul\":4976:5029   */\n      tag_308\n      jump\t// in\n    tag_404:\n        /* \"#utility.yul\":4966:5029   */\n      swap3\n      pop\n        /* \"#utility.yul\":4921:5039   */\n      pop\n        /* \"#utility.yul\":5078:5080   */\n      0x40\n        /* \"#utility.yul\":5104:5157   */\n      tag_405\n        /* \"#utility.yul\":5149:5156   */\n      dup7\n        /* \"#utility.yul\":5140:5146   */\n      dup3\n        /* \"#utility.yul\":5129:5138   */\n      dup8\n        /* \"#utility.yul\":5125:5147   */\n      add\n        /* \"#utility.yul\":5104:5157   */\n      tag_310\n      jump\t// in\n    tag_405:\n        /* \"#utility.yul\":5094:5157   */\n      swap2\n      pop\n        /* \"#utility.yul\":5049:5167   */\n      pop\n        /* \"#utility.yul\":4555:5174   */\n      swap3\n      pop\n      swap3\n      pop\n      swap3\n      jump\t// out\n        /* \"#utility.yul\":5180:5266   */\n    tag_311:\n        /* \"#utility.yul\":5215:5222   */\n      0x00\n        /* \"#utility.yul\":5255:5259   */\n      0xff\n        /* \"#utility.yul\":5248:5253   */\n      dup3\n        /* \"#utility.yul\":5244:5260   */\n      and\n        /* \"#utility.yul\":5233:5260   */\n      swap1\n      pop\n        /* \"#utility.yul\":5180:5266   */\n      swap2\n      swap1\n      pop\n      jump\t// out\n        /* \"#utility.yul\":5272:5384   */\n    tag_312:\n        /* \"#utility.yul\":5355:5377   */\n      tag_408\n        /* \"#utility.yul\":5371:5376   */\n      dup2\n        /* \"#utility.yul\":5355:5377   */\n      tag_311\n      jump\t// in\n    tag_408:\n        /* \"#utility.yul\":5350:5353   */\n      dup3\n        /* \"#utility.yul\":5343:5378   */\n      mstore\n        /* \"#utility.yul\":5272:5384   */\n      pop\n      pop\n      jump\t// out\n        /* \"#utility.yul\":5390:5604   */\n    tag_66:\n        /* \"#utility.yul\":5479:5483   */\n      0x00\n        /* \"#utility.yul\":5517:5519   */\n      0x20\n        /* \"#utility.yul\":5506:5515   */\n      dup3\n        /* \"#utility.yul\":5502:5520   */\n      add\n        /* \"#utility.yul\":5494:5520   */\n      swap1\n      pop\n        /* \"#utility.yul\":5530:5597   */\n      tag_410\n        /* \"#utility.yul\":5594:5595   */\n      0x00\n        /* \"#utility.yul\":5583:5592   */\n      dup4\n        /* \"#utility.yul\":5579:5596   */\n      add\n        /* \"#utility.yul\":5570:5576   */\n      dup5\n        /* \"#utility.yul\":5530:5597   */\n      tag_312\n      jump\t// in\n    tag_410:\n        /* \"#utility.yul\":5390:5604   */\n      swap3\n      swap2\n      pop\n      pop\n      jump\t// out\n        /* \"#utility.yul\":5610:5939   */\n    tag_86:\n        /* \"#utility.yul\":5669:5675   */\n      0x00\n        /* \"#utility.yul\":5718:5720   */\n      0x20\n        /* \"#utility.yul\":5706:5715   */\n      dup3\n        /* \"#utility.yul\":5697:5704   */\n      dup5\n        /* \"#utility.yul\":5693:5716   */\n      sub\n        /* \"#utility.yul\":5689:5721   */\n      slt\n        /* \"#utility.yul\":5686:5805   */\n      iszero\n      tag_412\n      jumpi\n        /* \"#utility.yul\":5724:5803   */\n      tag_413\n      tag_293\n      jump\t// in\n    tag_413:\n        /* \"#utility.yul\":5686:5805   */\n    tag_412:\n        /* \"#utility.yul\":5844:5845   */\n      0x00\n        /* \"#utility.yul\":5869:5922   */\n      tag_414\n        /* \"#utility.yul\":5914:5921   */\n      dup5\n        /* \"#utility.yul\":5905:5911   */\n      dup3\n        /* \"#utility.yul\":5894:5903   */\n      dup6\n        /* \"#utility.yul\":5890:5912   */\n      add\n        /* \"#utility.yul\":5869:5922   */\n      tag_310\n      jump\t// in\n    tag_414:\n        /* \"#utility.yul\":5859:5922   */\n      swap2\n      pop\n        /* \"#utility.yul\":5815:5932   */\n      pop\n        /* \"#utility.yul\":5610:5939   */\n      swap3\n      swap2\n      pop\n      pop\n      jump\t// out\n        /* \"#utility.yul\":5945:6274   */\n    tag_91:\n        /* \"#utility.yul\":6004:6010   */\n      0x00\n        /* \"#utility.yul\":6053:6055   */\n      0x20\n        /* \"#utility.yul\":6041:6050   */\n      dup3\n        /* \"#utility.yul\":6032:6039   */\n      dup5\n        /* \"#utility.yul\":6028:6051   */\n      sub\n        /* \"#utility.yul\":6024:6056   */\n      slt\n        /* \"#utility.yul\":6021:6140   */\n      iszero\n      tag_416\n      jumpi\n        /* \"#utility.yul\":6059:6138   */\n      tag_417\n      tag_293\n      jump\t// in\n    tag_417:\n        /* \"#utility.yul\":6021:6140   */\n    tag_416:\n        /* \"#utility.yul\":6179:6180   */\n      0x00\n        /* \"#utility.yul\":6204:6257   */\n      tag_418\n        /* \"#utility.yul\":6249:6256   */\n      dup5\n        /* \"#utility.yul\":6240:6246   */\n      dup3\n        /* \"#utility.yul\":6229:6238   */\n      dup6\n        /* \"#utility.yul\":6225:6247   */\n      add\n        /* \"#utility.yul\":6204:6257   */\n      tag_308\n      jump\t// in\n    tag_418:\n        /* \"#utility.yul\":6194:6257   */\n      swap2\n      pop\n        /* \"#utility.yul\":6150:6267   */\n      pop\n        /* \"#utility.yul\":5945:6274   */\n      swap3\n      swap2\n      pop\n      pop\n      jump\t// out\n        /* \"#utility.yul\":6280:6398   */\n    tag_313:\n        /* \"#utility.yul\":6367:6391   */\n      tag_420\n        /* \"#utility.yul\":6385:6390   */\n      dup2\n        /* \"#utility.yul\":6367:6391   */\n      tag_306\n      jump\t// in\n    tag_420:\n        /* \"#utility.yul\":6362:6365   */\n      dup3\n        /* \"#utility.yul\":6355:6392   */\n      mstore\n        /* \"#utility.yul\":6280:6398   */\n      pop\n      pop\n      jump\t// out\n        /* \"#utility.yul\":6404:6626   */\n    tag_112:\n        /* \"#utility.yul\":6497:6501   */\n      0x00\n        /* \"#utility.yul\":6535:6537   */\n      0x20\n        /* \"#utility.yul\":6524:6533   */\n      dup3\n        /* \"#utility.yul\":6520:6538   */\n      add\n        /* \"#utility.yul\":6512:6538   */\n      swap1\n      pop\n        /* \"#utility.yul\":6548:6619   */\n      tag_422\n        /* \"#utility.yul\":6616:6617   */\n      0x00\n        /* \"#utility.yul\":6605:6614   */\n      dup4\n        /* \"#utility.yul\":6601:6618   */\n      add\n        /* \"#utility.yul\":6592:6598   */\n      dup5\n        /* \"#utility.yul\":6548:6619   */\n      tag_313\n      jump\t// in\n    tag_422:\n        /* \"#utility.yul\":6404:6626   */\n      swap3\n      swap2\n      pop\n      pop\n      jump\t// out\n        /* \"#utility.yul\":6632:7106   */\n    tag_116:\n        /* \"#utility.yul\":6700:6706   */\n      0x00\n        /* \"#utility.yul\":6708:6714   */\n      dup1\n        /* \"#utility.yul\":6757:6759   */\n      0x40\n        /* \"#utility.yul\":6745:6754   */\n      dup4\n        /* \"#utility.yul\":6736:6743   */\n      dup6\n        /* \"#utility.yul\":6732:6755   */\n      sub\n        /* \"#utility.yul\":6728:6760   */\n      slt\n        /* \"#utility.yul\":6725:6844   */\n      iszero\n      tag_424\n      jumpi\n        /* \"#utility.yul\":6763:6842   */\n      tag_425\n      tag_293\n      jump\t// in\n    tag_425:\n        /* \"#utility.yul\":6725:6844   */\n    tag_424:\n        /* \"#utility.yul\":6883:6884   */\n      0x00\n        /* \"#utility.yul\":6908:6961   */\n      tag_426\n        /* \"#utility.yul\":6953:6960   */\n      dup6\n        /* \"#utility.yul\":6944:6950   */\n      dup3\n        /* \"#utility.yul\":6933:6942   */\n      dup7\n        /* \"#utility.yul\":6929:6951   */\n      add\n        /* \"#utility.yul\":6908:6961   */\n      tag_308\n      jump\t// in\n    tag_426:\n        /* \"#utility.yul\":6898:6961   */\n      swap3\n      pop\n        /* \"#utility.yul\":6854:6971   */\n      pop\n        /* \"#utility.yul\":7010:7012   */\n      0x20\n        /* \"#utility.yul\":7036:7089   */\n      tag_427\n        /* \"#utility.yul\":7081:7088   */\n      dup6\n        /* \"#utility.yul\":7072:7078   */\n      dup3\n        /* \"#utility.yul\":7061:7070   */\n      dup7\n        /* \"#utility.yul\":7057:7079   */\n      add\n        /* \"#utility.yul\":7036:7089   */\n      tag_308\n      jump\t// in\n    tag_427:\n        /* \"#utility.yul\":7026:7089   */\n      swap2\n      pop\n        /* \"#utility.yul\":6981:7099   */\n      pop\n        /* \"#utility.yul\":6632:7106   */\n      swap3\n      pop\n      swap3\n      swap1\n      pop\n      jump\t// out\n        /* \"#utility.yul\":7112:7216   */\n    tag_314:\n        /* \"#utility.yul\":7157:7164   */\n      0x00\n        /* \"#utility.yul\":7186:7210   */\n      tag_429\n        /* \"#utility.yul\":7204:7209   */\n      dup3\n        /* \"#utility.yul\":7186:7210   */\n      tag_305\n      jump\t// in\n    tag_429:\n        /* \"#utility.yul\":7175:7210   */\n      swap1\n      pop\n        /* \"#utility.yul\":7112:7216   */\n      swap2\n      swap1\n      pop\n      jump\t// out\n        /* \"#utility.yul\":7222:7364   */\n    tag_315:\n        /* \"#utility.yul\":7325:7357   */\n      tag_431\n        /* \"#utility.yul\":7351:7356   */\n      dup2\n        /* \"#utility.yul\":7325:7357   */\n      tag_314\n      jump\t// in\n    tag_431:\n        /* \"#utility.yul\":7320:7323   */\n      dup3\n        /* \"#utility.yul\":7313:7358   */\n      mstore\n        /* \"#utility.yul\":7222:7364   */\n      pop\n      pop\n      jump\t// out\n        /* \"#utility.yul\":7370:7624   */\n    tag_123:\n        /* \"#utility.yul\":7479:7483   */\n      0x00\n        /* \"#utility.yul\":7517:7519   */\n      0x20\n        /* \"#utility.yul\":7506:7515   */\n      dup3\n        /* \"#utility.yul\":7502:7520   */\n      add\n        /* \"#utility.yul\":7494:7520   */\n      swap1\n      pop\n        /* \"#utility.yul\":7530:7617   */\n      tag_433\n        /* \"#utility.yul\":7614:7615   */\n      0x00\n        /* \"#utility.yul\":7603:7612   */\n      dup4\n        /* \"#utility.yul\":7599:7616   */\n      add\n        /* \"#utility.yul\":7590:7596   */\n      dup5\n        /* \"#utility.yul\":7530:7617   */\n      tag_315\n      jump\t// in\n    tag_433:\n        /* \"#utility.yul\":7370:7624   */\n      swap3\n      swap2\n      pop\n      pop\n      jump\t// out\n        /* \"#utility.yul\":7630:7810   */\n    tag_316:\n        /* \"#utility.yul\":7678:7755   */\n      0x4e487b7100000000000000000000000000000000000000000000000000000000\n        /* \"#utility.yul\":7675:7676   */\n      0x00\n        /* \"#utility.yul\":7668:7756   */\n      mstore\n        /* \"#utility.yul\":7775:7779   */\n      0x22\n        /* \"#utility.yul\":7772:7773   */\n      0x04\n        /* \"#utility.yul\":7765:7780   */\n      mstore\n        /* \"#utility.yul\":7799:7803   */\n      0x24\n        /* \"#utility.yul\":7796:7797   */\n      0x00\n        /* \"#utility.yul\":7789:7804   */\n      revert\n        /* \"#utility.yul\":7816:8136   */\n    tag_128:\n        /* \"#utility.yul\":7860:7866   */\n      0x00\n        /* \"#utility.yul\":7897:7898   */\n      0x02\n        /* \"#utility.yul\":7891:7895   */\n      dup3\n        /* \"#utility.yul\":7887:7899   */\n      div\n        /* \"#utility.yul\":7877:7899   */\n      swap1\n      pop\n        /* \"#utility.yul\":7944:7945   */\n      0x01\n        /* \"#utility.yul\":7938:7942   */\n      dup3\n        /* \"#utility.yul\":7934:7946   */\n      and\n        /* \"#utility.yul\":7965:7983   */\n      dup1\n        /* \"#utility.yul\":7955:8036   */\n      tag_436\n      jumpi\n        /* \"#utility.yul\":8021:8025   */\n      0x7f\n        /* \"#utility.yul\":8013:8019   */\n      dup3\n        /* \"#utility.yul\":8009:8026   */\n      and\n        /* \"#utility.yul\":7999:8026   */\n      swap2\n      pop\n        /* \"#utility.yul\":7955:8036   */\n    tag_436:\n        /* \"#utility.yul\":8083:8085   */\n      0x20\n        /* \"#utility.yul\":8075:8081   */\n      dup3\n        /* \"#utility.yul\":8072:8086   */\n      lt\n        /* \"#utility.yul\":8052:8070   */\n      dup2\n        /* \"#utility.yul\":8049:8087   */\n      sub\n        /* \"#utility.yul\":8046:8130   */\n      tag_437\n      jumpi\n        /* \"#utility.yul\":8102:8120   */\n      tag_438\n      tag_316\n      jump\t// in\n    tag_438:\n        /* \"#utility.yul\":8046:8130   */\n    tag_437:\n        /* \"#utility.yul\":7867:8136   */\n      pop\n        /* \"#utility.yul\":7816:8136   */\n      swap2\n      swap1\n      pop\n      jump\t// out\n        /* \"#utility.yul\":8142:8322   */\n    tag_317:\n        /* \"#utility.yul\":8190:8267   */\n      0x4e487b7100000000000000000000000000000000000000000000000000000000\n        /* \"#utility.yul\":8187:8188   */\n      0x00\n        /* \"#utility.yul\":8180:8268   */\n      mstore\n        /* \"#utility.yul\":8287:8291   */\n      0x11\n        /* \"#utility.yul\":8284:8285   */\n      0x04\n        /* \"#utility.yul\":8277:8292   */\n      mstore\n        /* \"#utility.yul\":8311:8315   */\n      0x24\n        /* \"#utility.yul\":8308:8309   */\n      0x00\n        /* \"#utility.yul\":8301:8316   */\n      revert\n        /* \"#utility.yul\":8328:8519   */\n    tag_152:\n        /* \"#utility.yul\":8368:8371   */\n      0x00\n        /* \"#utility.yul\":8387:8407   */\n      tag_441\n        /* \"#utility.yul\":8405:8406   */\n      dup3\n        /* \"#utility.yul\":8387:8407   */\n      tag_290\n      jump\t// in\n    tag_441:\n        /* \"#utility.yul\":8382:8407   */\n      swap2\n      pop\n        /* \"#utility.yul\":8421:8441   */\n      tag_442\n        /* \"#utility.yul\":8439:8440   */\n      dup4\n        /* \"#utility.yul\":8421:8441   */\n      tag_290\n      jump\t// in\n    tag_442:\n        /* \"#utility.yul\":8416:8441   */\n      swap3\n      pop\n        /* \"#utility.yul\":8464:8465   */\n      dup3\n        /* \"#utility.yul\":8461:8462   */\n      dup3\n        /* \"#utility.yul\":8457:8466   */\n      add\n        /* \"#utility.yul\":8450:8466   */\n      swap1\n      pop\n        /* \"#utility.yul\":8485:8488   */\n      dup1\n        /* \"#utility.yul\":8482:8483   */\n      dup3\n        /* \"#utility.yul\":8479:8489   */\n      gt\n        /* \"#utility.yul\":8476:8512   */\n      iszero\n      tag_443\n      jumpi\n        /* \"#utility.yul\":8492:8510   */\n      tag_444\n      tag_317\n      jump\t// in\n    tag_444:\n        /* \"#utility.yul\":8476:8512   */\n    tag_443:\n        /* \"#utility.yul\":8328:8519   */\n      swap3\n      swap2\n      pop\n      pop\n      jump\t// out\n        /* \"#utility.yul\":8525:8747   */\n    tag_318:\n        /* \"#utility.yul\":8665:8699   */\n      0x58454e446f67653a2043616c6c6572206d7573742062652058454e2043727970\n        /* \"#utility.yul\":8661:8662   */\n      0x00\n        /* \"#utility.yul\":8653:8659   */\n      dup3\n        /* \"#utility.yul\":8649:8663   */\n      add\n        /* \"#utility.yul\":8642:8700   */\n      mstore\n        /* \"#utility.yul\":8734:8739   */\n      0x746f2e0000000000000000000000000000000000000000000000000000000000\n        /* \"#utility.yul\":8729:8731   */\n      0x20\n        /* \"#utility.yul\":8721:8727   */\n      dup3\n        /* \"#utility.yul\":8717:8732   */\n      add\n        /* \"#utility.yul\":8710:8740   */\n      mstore\n        /* \"#utility.yul\":8525:8747   */\n      pop\n      jump\t// out\n        /* \"#utility.yul\":8753:9119   */\n    tag_319:\n        /* \"#utility.yul\":8895:8898   */\n      0x00\n        /* \"#utility.yul\":8916:8983   */\n      tag_447\n        /* \"#utility.yul\":8980:8982   */\n      0x23\n        /* \"#utility.yul\":8975:8978   */\n      dup4\n        /* \"#utility.yul\":8916:8983   */\n      tag_301\n      jump\t// in\n    tag_447:\n        /* \"#utility.yul\":8909:8983   */\n      swap2\n      pop\n        /* \"#utility.yul\":8992:9085   */\n      tag_448\n        /* \"#utility.yul\":9081:9084   */\n      dup3\n        /* \"#utility.yul\":8992:9085   */\n      tag_318\n      jump\t// in\n    tag_448:\n        /* \"#utility.yul\":9110:9112   */\n      0x40\n        /* \"#utility.yul\":9105:9108   */\n      dup3\n        /* \"#utility.yul\":9101:9113   */\n      add\n        /* \"#utility.yul\":9094:9113   */\n      swap1\n      pop\n        /* \"#utility.yul\":8753:9119   */\n      swap2\n      swap1\n      pop\n      jump\t// out\n        /* \"#utility.yul\":9125:9544   */\n    tag_157:\n        /* \"#utility.yul\":9291:9295   */\n      0x00\n        /* \"#utility.yul\":9329:9331   */\n      0x20\n        /* \"#utility.yul\":9318:9327   */\n      dup3\n        /* \"#utility.yul\":9314:9332   */\n      add\n        /* \"#utility.yul\":9306:9332   */\n      swap1\n      pop\n        /* \"#utility.yul\":9378:9387   */\n      dup2\n        /* \"#utility.yul\":9372:9376   */\n      dup2\n        /* \"#utility.yul\":9368:9388   */\n      sub\n        /* \"#utility.yul\":9364:9365   */\n      0x00\n        /* \"#utility.yul\":9353:9362   */\n      dup4\n        /* \"#utility.yul\":9349:9366   */\n      add\n        /* \"#utility.yul\":9342:9389   */\n      mstore\n        /* \"#utility.yul\":9406:9537   */\n      tag_450\n        /* \"#utility.yul\":9532:9536   */\n      dup2\n        /* \"#utility.yul\":9406:9537   */\n      tag_319\n      jump\t// in\n    tag_450:\n        /* \"#utility.yul\":9398:9537   */\n      swap1\n      pop\n        /* \"#utility.yul\":9125:9544   */\n      swap2\n      swap1\n      pop\n      jump\t// out\n        /* \"#utility.yul\":9550:9778   */\n    tag_320:\n        /* \"#utility.yul\":9690:9724   */\n      0x58454e446f67653a20416464726573732063616e6e6f74206265207468652030\n        /* \"#utility.yul\":9686:9687   */\n      0x00\n        /* \"#utility.yul\":9678:9684   */\n      dup3\n        /* \"#utility.yul\":9674:9688   */\n      add\n        /* \"#utility.yul\":9667:9725   */\n      mstore\n        /* \"#utility.yul\":9759:9770   */\n      0x20616464726573732e0000000000000000000000000000000000000000000000\n        /* \"#utility.yul\":9754:9756   */\n      0x20\n        /* \"#utility.yul\":9746:9752   */\n      dup3\n        /* \"#utility.yul\":9742:9757   */\n      add\n        /* \"#utility.yul\":9735:9771   */\n      mstore\n        /* \"#utility.yul\":9550:9778   */\n      pop\n      jump\t// out\n        /* \"#utility.yul\":9784:10150   */\n    tag_321:\n        /* \"#utility.yul\":9926:9929   */\n      0x00\n        /* \"#utility.yul\":9947:10014   */\n      tag_453\n        /* \"#utility.yul\":10011:10013   */\n      0x29\n        /* \"#utility.yul\":10006:10009   */\n      dup4\n        /* \"#utility.yul\":9947:10014   */\n      tag_301\n      jump\t// in\n    tag_453:\n        /* \"#utility.yul\":9940:10014   */\n      swap2\n      pop\n        /* \"#utility.yul\":10023:10116   */\n      tag_454\n        /* \"#utility.yul\":10112:10115   */\n      dup3\n        /* \"#utility.yul\":10023:10116   */\n      tag_320\n      jump\t// in\n    tag_454:\n        /* \"#utility.yul\":10141:10143   */\n      0x40\n        /* \"#utility.yul\":10136:10139   */\n      dup3\n        /* \"#utility.yul\":10132:10144   */\n      add\n        /* \"#utility.yul\":10125:10144   */\n      swap1\n      pop\n        /* \"#utility.yul\":9784:10150   */\n      swap2\n      swap1\n      pop\n      jump\t// out\n        /* \"#utility.yul\":10156:10575   */\n    tag_160:\n        /* \"#utility.yul\":10322:10326   */\n      0x00\n        /* \"#utility.yul\":10360:10362   */\n      0x20\n        /* \"#utility.yul\":10349:10358   */\n      dup3\n        /* \"#utility.yul\":10345:10363   */\n      add\n        /* \"#utility.yul\":10337:10363   */\n      swap1\n      pop\n        /* \"#utility.yul\":10409:10418   */\n      dup2\n        /* \"#utility.yul\":10403:10407   */\n      dup2\n        /* \"#utility.yul\":10399:10419   */\n      sub\n        /* \"#utility.yul\":10395:10396   */\n      0x00\n        /* \"#utility.yul\":10384:10393   */\n      dup4\n        /* \"#utility.yul\":10380:10397   */\n      add\n        /* \"#utility.yul\":10373:10420   */\n      mstore\n        /* \"#utility.yul\":10437:10568   */\n      tag_456\n        /* \"#utility.yul\":10563:10567   */\n      dup2\n        /* \"#utility.yul\":10437:10568   */\n      tag_321\n      jump\t// in\n    tag_456:\n        /* \"#utility.yul\":10429:10568   */\n      swap1\n      pop\n        /* \"#utility.yul\":10156:10575   */\n      swap2\n      swap1\n      pop\n      jump\t// out\n        /* \"#utility.yul\":10581:10762   */\n    tag_322:\n        /* \"#utility.yul\":10721:10754   */\n      0x58454e446f67653a204275726e20616d6f756e7420746f6f20736d616c6c2e00\n        /* \"#utility.yul\":10717:10718   */\n      0x00\n        /* \"#utility.yul\":10709:10715   */\n      dup3\n        /* \"#utility.yul\":10705:10719   */\n      add\n        /* \"#utility.yul\":10698:10755   */\n      mstore\n        /* \"#utility.yul\":10581:10762   */\n      pop\n      jump\t// out\n        /* \"#utility.yul\":10768:11134   */\n    tag_323:\n        /* \"#utility.yul\":10910:10913   */\n      0x00\n        /* \"#utility.yul\":10931:10998   */\n      tag_459\n        /* \"#utility.yul\":10995:10997   */\n      0x1f\n        /* \"#utility.yul\":10990:10993   */\n      dup4\n        /* \"#utility.yul\":10931:10998   */\n      tag_301\n      jump\t// in\n    tag_459:\n        /* \"#utility.yul\":10924:10998   */\n      swap2\n      pop\n        /* \"#utility.yul\":11007:11100   */\n      tag_460\n        /* \"#utility.yul\":11096:11099   */\n      dup3\n        /* \"#utility.yul\":11007:11100   */\n      tag_322\n      jump\t// in\n    tag_460:\n        /* \"#utility.yul\":11125:11127   */\n      0x20\n        /* \"#utility.yul\":11120:11123   */\n      dup3\n        /* \"#utility.yul\":11116:11128   */\n      add\n        /* \"#utility.yul\":11109:11128   */\n      swap1\n      pop\n        /* \"#utility.yul\":10768:11134   */\n      swap2\n      swap1\n      pop\n      jump\t// out\n        /* \"#utility.yul\":11140:11559   */\n    tag_163:\n        /* \"#utility.yul\":11306:11310   */\n      0x00\n        /* \"#utility.yul\":11344:11346   */\n      0x20\n        /* \"#utility.yul\":11333:11342   */\n      dup3\n        /* \"#utility.yul\":11329:11347   */\n      add\n        /* \"#utility.yul\":11321:11347   */\n      swap1\n      pop\n        /* \"#utility.yul\":11393:11402   */\n      dup2\n        /* \"#utility.yul\":11387:11391   */\n      dup2\n        /* \"#utility.yul\":11383:11403   */\n      sub\n        /* \"#utility.yul\":11379:11380   */\n      0x00\n        /* \"#utility.yul\":11368:11377   */\n      dup4\n        /* \"#utility.yul\":11364:11381   */\n      add\n        /* \"#utility.yul\":11357:11404   */\n      mstore\n        /* \"#utility.yul\":11421:11552   */\n      tag_462\n        /* \"#utility.yul\":11547:11551   */\n      dup2\n        /* \"#utility.yul\":11421:11552   */\n      tag_323\n      jump\t// in\n    tag_462:\n        /* \"#utility.yul\":11413:11552   */\n      swap1\n      pop\n        /* \"#utility.yul\":11140:11559   */\n      swap2\n      swap1\n      pop\n      jump\t// out\n        /* \"#utility.yul\":11565:11708   */\n    tag_324:\n        /* \"#utility.yul\":11622:11627   */\n      0x00\n        /* \"#utility.yul\":11653:11659   */\n      dup2\n        /* \"#utility.yul\":11647:11660   */\n      mload\n        /* \"#utility.yul\":11638:11660   */\n      swap1\n      pop\n        /* \"#utility.yul\":11669:11702   */\n      tag_464\n        /* \"#utility.yul\":11696:11701   */\n      dup2\n        /* \"#utility.yul\":11669:11702   */\n      tag_309\n      jump\t// in\n    tag_464:\n        /* \"#utility.yul\":11565:11708   */\n      swap3\n      swap2\n      pop\n      pop\n      jump\t// out\n        /* \"#utility.yul\":11714:12065   */\n    tag_169:\n        /* \"#utility.yul\":11784:11790   */\n      0x00\n        /* \"#utility.yul\":11833:11835   */\n      0x20\n        /* \"#utility.yul\":11821:11830   */\n      dup3\n        /* \"#utility.yul\":11812:11819   */\n      dup5\n        /* \"#utility.yul\":11808:11831   */\n      sub\n        /* \"#utility.yul\":11804:11836   */\n      slt\n        /* \"#utility.yul\":11801:11920   */\n      iszero\n      tag_466\n      jumpi\n        /* \"#utility.yul\":11839:11918   */\n      tag_467\n      tag_293\n      jump\t// in\n    tag_467:\n        /* \"#utility.yul\":11801:11920   */\n    tag_466:\n        /* \"#utility.yul\":11959:11960   */\n      0x00\n        /* \"#utility.yul\":11984:12048   */\n      tag_468\n        /* \"#utility.yul\":12040:12047   */\n      dup5\n        /* \"#utility.yul\":12031:12037   */\n      dup3\n        /* \"#utility.yul\":12020:12029   */\n      dup6\n        /* \"#utility.yul\":12016:12038   */\n      add\n        /* \"#utility.yul\":11984:12048   */\n      tag_324\n      jump\t// in\n    tag_468:\n        /* \"#utility.yul\":11974:12048   */\n      swap2\n      pop\n        /* \"#utility.yul\":11930:12058   */\n      pop\n        /* \"#utility.yul\":11714:12065   */\n      swap3\n      swap2\n      pop\n      pop\n      jump\t// out\n        /* \"#utility.yul\":12071:12403   */\n    tag_174:\n        /* \"#utility.yul\":12192:12196   */\n      0x00\n        /* \"#utility.yul\":12230:12232   */\n      0x40\n        /* \"#utility.yul\":12219:12228   */\n      dup3\n        /* \"#utility.yul\":12215:12233   */\n      add\n        /* \"#utility.yul\":12207:12233   */\n      swap1\n      pop\n        /* \"#utility.yul\":12243:12314   */\n      tag_470\n        /* \"#utility.yul\":12311:12312   */\n      0x00\n        /* \"#utility.yul\":12300:12309   */\n      dup4\n        /* \"#utility.yul\":12296:12313   */\n      add\n        /* \"#utility.yul\":12287:12293   */\n      dup6\n        /* \"#utility.yul\":12243:12314   */\n      tag_291\n      jump\t// in\n    tag_470:\n        /* \"#utility.yul\":12324:12396   */\n      tag_471\n        /* \"#utility.yul\":12392:12394   */\n      0x20\n        /* \"#utility.yul\":12381:12390   */\n      dup4\n        /* \"#utility.yul\":12377:12395   */\n      add\n        /* \"#utility.yul\":12368:12374   */\n      dup5\n        /* \"#utility.yul\":12324:12396   */\n      tag_291\n      jump\t// in\n    tag_471:\n        /* \"#utility.yul\":12071:12403   */\n      swap4\n      swap3\n      pop\n      pop\n      pop\n      jump\t// out\n        /* \"#utility.yul\":12409:12741   */\n    tag_181:\n        /* \"#utility.yul\":12530:12534   */\n      0x00\n        /* \"#utility.yul\":12568:12570   */\n      0x40\n        /* \"#utility.yul\":12557:12566   */\n      dup3\n        /* \"#utility.yul\":12553:12571   */\n      add\n        /* \"#utility.yul\":12545:12571   */\n      swap1\n      pop\n        /* \"#utility.yul\":12581:12652   */\n      tag_473\n        /* \"#utility.yul\":12649:12650   */\n      0x00\n        /* \"#utility.yul\":12638:12647   */\n      dup4\n        /* \"#utility.yul\":12634:12651   */\n      add\n        /* \"#utility.yul\":12625:12631   */\n      dup6\n        /* \"#utility.yul\":12581:12652   */\n      tag_313\n      jump\t// in\n    tag_473:\n        /* \"#utility.yul\":12662:12734   */\n      tag_474\n        /* \"#utility.yul\":12730:12732   */\n      0x20\n        /* \"#utility.yul\":12719:12728   */\n      dup4\n        /* \"#utility.yul\":12715:12733   */\n      add\n        /* \"#utility.yul\":12706:12712   */\n      dup5\n        /* \"#utility.yul\":12662:12734   */\n      tag_291\n      jump\t// in\n    tag_474:\n        /* \"#utility.yul\":12409:12741   */\n      swap4\n      swap3\n      pop\n      pop\n      pop\n      jump\t// out\n        /* \"#utility.yul\":12747:12971   */\n    tag_325:\n        /* \"#utility.yul\":12887:12921   */\n      0x45524332303a2064656372656173656420616c6c6f77616e63652062656c6f77\n        /* \"#utility.yul\":12883:12884   */\n      0x00\n        /* \"#utility.yul\":12875:12881   */\n      dup3\n        /* \"#utility.yul\":12871:12885   */\n      add\n        /* \"#utility.yul\":12864:12922   */\n      mstore\n        /* \"#utility.yul\":12956:12963   */\n      0x207a65726f000000000000000000000000000000000000000000000000000000\n        /* \"#utility.yul\":12951:12953   */\n      0x20\n        /* \"#utility.yul\":12943:12949   */\n      dup3\n        /* \"#utility.yul\":12939:12954   */\n      add\n        /* \"#utility.yul\":12932:12964   */\n      mstore\n        /* \"#utility.yul\":12747:12971   */\n      pop\n      jump\t// out\n        /* \"#utility.yul\":12977:13343   */\n    tag_326:\n        /* \"#utility.yul\":13119:13122   */\n      0x00\n        /* \"#utility.yul\":13140:13207   */\n      tag_477\n        /* \"#utility.yul\":13204:13206   */\n      0x25\n        /* \"#utility.yul\":13199:13202   */\n      dup4\n        /* \"#utility.yul\":13140:13207   */\n      tag_301\n      jump\t// in\n    tag_477:\n        /* \"#utility.yul\":13133:13207   */\n      swap2\n      pop\n        /* \"#utility.yul\":13216:13309   */\n      tag_478\n        /* \"#utility.yul\":13305:13308   */\n      dup3\n        /* \"#utility.yul\":13216:13309   */\n      tag_325\n      jump\t// in\n    tag_478:\n        /* \"#utility.yul\":13334:13336   */\n      0x40\n        /* \"#utility.yul\":13329:13332   */\n      dup3\n        /* \"#utility.yul\":13325:13337   */\n      add\n        /* \"#utility.yul\":13318:13337   */\n      swap1\n      pop\n        /* \"#utility.yul\":12977:13343   */\n      swap2\n      swap1\n      pop\n      jump\t// out\n        /* \"#utility.yul\":13349:13768   */\n    tag_197:\n        /* \"#utility.yul\":13515:13519   */\n      0x00\n        /* \"#utility.yul\":13553:13555   */\n      0x20\n        /* \"#utility.yul\":13542:13551   */\n      dup3\n        /* \"#utility.yul\":13538:13556   */\n      add\n        /* \"#utility.yul\":13530:13556   */\n      swap1\n      pop\n        /* \"#utility.yul\":13602:13611   */\n      dup2\n        /* \"#utility.yul\":13596:13600   */\n      dup2\n        /* \"#utility.yul\":13592:13612   */\n      sub\n        /* \"#utility.yul\":13588:13589   */\n      0x00\n        /* \"#utility.yul\":13577:13586   */\n      dup4\n        /* \"#utility.yul\":13573:13590   */\n      add\n        /* \"#utility.yul\":13566:13613   */\n      mstore\n        /* \"#utility.yul\":13630:13761   */\n      tag_480\n        /* \"#utility.yul\":13756:13760   */\n      dup2\n        /* \"#utility.yul\":13630:13761   */\n      tag_326\n      jump\t// in\n    tag_480:\n        /* \"#utility.yul\":13622:13761   */\n      swap1\n      pop\n        /* \"#utility.yul\":13349:13768   */\n      swap2\n      swap1\n      pop\n      jump\t// out\n        /* \"#utility.yul\":13774:13997   */\n    tag_327:\n        /* \"#utility.yul\":13914:13948   */\n      0x45524332303a20617070726f76652066726f6d20746865207a65726f20616464\n        /* \"#utility.yul\":13910:13911   */\n      0x00\n        /* \"#utility.yul\":13902:13908   */\n      dup3\n        /* \"#utility.yul\":13898:13912   */\n      add\n        /* \"#utility.yul\":13891:13949   */\n      mstore\n        /* \"#utility.yul\":13983:13989   */\n      0x7265737300000000000000000000000000000000000000000000000000000000\n        /* \"#utility.yul\":13978:13980   */\n      0x20\n        /* \"#utility.yul\":13970:13976   */\n      dup3\n        /* \"#utility.yul\":13966:13981   */\n      add\n        /* \"#utility.yul\":13959:13990   */\n      mstore\n        /* \"#utility.yul\":13774:13997   */\n      pop\n      jump\t// out\n        /* \"#utility.yul\":14003:14369   */\n    tag_328:\n        /* \"#utility.yul\":14145:14148   */\n      0x00\n        /* \"#utility.yul\":14166:14233   */\n      tag_483\n        /* \"#utility.yul\":14230:14232   */\n      0x24\n        /* \"#utility.yul\":14225:14228   */\n      dup4\n        /* \"#utility.yul\":14166:14233   */\n      tag_301\n      jump\t// in\n    tag_483:\n        /* \"#utility.yul\":14159:14233   */\n      swap2\n      pop\n        /* \"#utility.yul\":14242:14335   */\n      tag_484\n        /* \"#utility.yul\":14331:14334   */\n      dup3\n        /* \"#utility.yul\":14242:14335   */\n      tag_327\n      jump\t// in\n    tag_484:\n        /* \"#utility.yul\":14360:14362   */\n      0x40\n        /* \"#utility.yul\":14355:14358   */\n      dup3\n        /* \"#utility.yul\":14351:14363   */\n      add\n        /* \"#utility.yul\":14344:14363   */\n      swap1\n      pop\n        /* \"#utility.yul\":14003:14369   */\n      swap2\n      swap1\n      pop\n      jump\t// out\n        /* \"#utility.yul\":14375:14794   */\n    tag_207:\n        /* \"#utility.yul\":14541:14545   */\n      0x00\n        /* \"#utility.yul\":14579:14581   */\n      0x20\n        /* \"#utility.yul\":14568:14577   */\n      dup3\n        /* \"#utility.yul\":14564:14582   */\n      add\n        /* \"#utility.yul\":14556:14582   */\n      swap1\n      pop\n        /* \"#utility.yul\":14628:14637   */\n      dup2\n        /* \"#utility.yul\":14622:14626   */\n      dup2\n        /* \"#utility.yul\":14618:14638   */\n      sub\n        /* \"#utility.yul\":14614:14615   */\n      0x00\n        /* \"#utility.yul\":14603:14612   */\n      dup4\n        /* \"#utility.yul\":14599:14616   */\n      add\n        /* \"#utility.yul\":14592:14639   */\n      mstore\n        /* \"#utility.yul\":14656:14787   */\n      tag_486\n        /* \"#utility.yul\":14782:14786   */\n      dup2\n        /* \"#utility.yul\":14656:14787   */\n      tag_328\n      jump\t// in\n    tag_486:\n        /* \"#utility.yul\":14648:14787   */\n      swap1\n      pop\n        /* \"#utility.yul\":14375:14794   */\n      swap2\n      swap1\n      pop\n      jump\t// out\n        /* \"#utility.yul\":14800:15021   */\n    tag_329:\n        /* \"#utility.yul\":14940:14974   */\n      0x45524332303a20617070726f766520746f20746865207a65726f206164647265\n        /* \"#utility.yul\":14936:14937   */\n      0x00\n        /* \"#utility.yul\":14928:14934   */\n      dup3\n        /* \"#utility.yul\":14924:14938   */\n      add\n        /* \"#utility.yul\":14917:14975   */\n      mstore\n        /* \"#utility.yul\":15009:15013   */\n      0x7373000000000000000000000000000000000000000000000000000000000000\n        /* \"#utility.yul\":15004:15006   */\n      0x20\n        /* \"#utility.yul\":14996:15002   */\n      dup3\n        /* \"#utility.yul\":14992:15007   */\n      add\n        /* \"#utility.yul\":14985:15014   */\n      mstore\n        /* \"#utility.yul\":14800:15021   */\n      pop\n      jump\t// out\n        /* \"#utility.yul\":15027:15393   */\n    tag_330:\n        /* \"#utility.yul\":15169:15172   */\n      0x00\n        /* \"#utility.yul\":15190:15257   */\n      tag_489\n        /* \"#utility.yul\":15254:15256   */\n      0x22\n        /* \"#utility.yul\":15249:15252   */\n      dup4\n        /* \"#utility.yul\":15190:15257   */\n      tag_301\n      jump\t// in\n    tag_489:\n        /* \"#utility.yul\":15183:15257   */\n      swap2\n      pop\n        /* \"#utility.yul\":15266:15359   */\n      tag_490\n        /* \"#utility.yul\":15355:15358   */\n      dup3\n        /* \"#utility.yul\":15266:15359   */\n      tag_329\n      jump\t// in\n    tag_490:\n        /* \"#utility.yul\":15384:15386   */\n      0x40\n        /* \"#utility.yul\":15379:15382   */\n      dup3\n        /* \"#utility.yul\":15375:15387   */\n      add\n        /* \"#utility.yul\":15368:15387   */\n      swap1\n      pop\n        /* \"#utility.yul\":15027:15393   */\n      swap2\n      swap1\n      pop\n      jump\t// out\n        /* \"#utility.yul\":15399:15818   */\n    tag_210:\n        /* \"#utility.yul\":15565:15569   */\n      0x00\n        /* \"#utility.yul\":15603:15605   */\n      0x20\n        /* \"#utility.yul\":15592:15601   */\n      dup3\n        /* \"#utility.yul\":15588:15606   */\n      add\n        /* \"#utility.yul\":15580:15606   */\n      swap1\n      pop\n        /* \"#utility.yul\":15652:15661   */\n      dup2\n        /* \"#utility.yul\":15646:15650   */\n      dup2\n        /* \"#utility.yul\":15642:15662   */\n      sub\n        /* \"#utility.yul\":15638:15639   */\n      0x00\n        /* \"#utility.yul\":15627:15636   */\n      dup4\n        /* \"#utility.yul\":15623:15640   */\n      add\n        /* \"#utility.yul\":15616:15663   */\n      mstore\n        /* \"#utility.yul\":15680:15811   */\n      tag_492\n        /* \"#utility.yul\":15806:15810   */\n      dup2\n        /* \"#utility.yul\":15680:15811   */\n      tag_330\n      jump\t// in\n    tag_492:\n        /* \"#utility.yul\":15672:15811   */\n      swap1\n      pop\n        /* \"#utility.yul\":15399:15818   */\n      swap2\n      swap1\n      pop\n      jump\t// out\n        /* \"#utility.yul\":15824:16003   */\n    tag_331:\n        /* \"#utility.yul\":15964:15995   */\n      0x45524332303a20696e73756666696369656e7420616c6c6f77616e6365000000\n        /* \"#utility.yul\":15960:15961   */\n      0x00\n        /* \"#utility.yul\":15952:15958   */\n      dup3\n        /* \"#utility.yul\":15948:15962   */\n      add\n        /* \"#utility.yul\":15941:15996   */\n      mstore\n        /* \"#utility.yul\":15824:16003   */\n      pop\n      jump\t// out\n        /* \"#utility.yul\":16009:16375   */\n    tag_332:\n        /* \"#utility.yul\":16151:16154   */\n      0x00\n        /* \"#utility.yul\":16172:16239   */\n      tag_495\n        /* \"#utility.yul\":16236:16238   */\n      0x1d\n        /* \"#utility.yul\":16231:16234   */\n      dup4\n        /* \"#utility.yul\":16172:16239   */\n      tag_301\n      jump\t// in\n    tag_495:\n        /* \"#utility.yul\":16165:16239   */\n      swap2\n      pop\n        /* \"#utility.yul\":16248:16341   */\n      tag_496\n        /* \"#utility.yul\":16337:16340   */\n      dup3\n        /* \"#utility.yul\":16248:16341   */\n      tag_331\n      jump\t// in\n    tag_496:\n        /* \"#utility.yul\":16366:16368   */\n      0x20\n        /* \"#utility.yul\":16361:16364   */\n      dup3\n        /* \"#utility.yul\":16357:16369   */\n      add\n        /* \"#utility.yul\":16350:16369   */\n      swap1\n      pop\n        /* \"#utility.yul\":16009:16375   */\n      swap2\n      swap1\n      pop\n      jump\t// out\n        /* \"#utility.yul\":16381:16800   */\n    tag_217:\n        /* \"#utility.yul\":16547:16551   */\n      0x00\n        /* \"#utility.yul\":16585:16587   */\n      0x20\n        /* \"#utility.yul\":16574:16583   */\n      dup3\n        /* \"#utility.yul\":16570:16588   */\n      add\n        /* \"#utility.yul\":16562:16588   */\n      swap1\n      pop\n        /* \"#utility.yul\":16634:16643   */\n      dup2\n        /* \"#utility.yul\":16628:16632   */\n      dup2\n        /* \"#utility.yul\":16624:16644   */\n      sub\n        /* \"#utility.yul\":16620:16621   */\n      0x00\n        /* \"#utility.yul\":16609:16618   */\n      dup4\n        /* \"#utility.yul\":16605:16622   */\n      add\n        /* \"#utility.yul\":16598:16645   */\n      mstore\n        /* \"#utility.yul\":16662:16793   */\n      tag_498\n        /* \"#utility.yul\":16788:16792   */\n      dup2\n        /* \"#utility.yul\":16662:16793   */\n      tag_332\n      jump\t// in\n    tag_498:\n        /* \"#utility.yul\":16654:16793   */\n      swap1\n      pop\n        /* \"#utility.yul\":16381:16800   */\n      swap2\n      swap1\n      pop\n      jump\t// out\n        /* \"#utility.yul\":16806:17030   */\n    tag_333:\n        /* \"#utility.yul\":16946:16980   */\n      0x45524332303a207472616e736665722066726f6d20746865207a65726f206164\n        /* \"#utility.yul\":16942:16943   */\n      0x00\n        /* \"#utility.yul\":16934:16940   */\n      dup3\n        /* \"#utility.yul\":16930:16944   */\n      add\n        /* \"#utility.yul\":16923:16981   */\n      mstore\n        /* \"#utility.yul\":17015:17022   */\n      0x6472657373000000000000000000000000000000000000000000000000000000\n        /* \"#utility.yul\":17010:17012   */\n      0x20\n        /* \"#utility.yul\":17002:17008   */\n      dup3\n        /* \"#utility.yul\":16998:17013   */\n      add\n        /* \"#utility.yul\":16991:17023   */\n      mstore\n        /* \"#utility.yul\":16806:17030   */\n      pop\n      jump\t// out\n        /* \"#utility.yul\":17036:17402   */\n    tag_334:\n        /* \"#utility.yul\":17178:17181   */\n      0x00\n        /* \"#utility.yul\":17199:17266   */\n      tag_501\n        /* \"#utility.yul\":17263:17265   */\n      0x25\n        /* \"#utility.yul\":17258:17261   */\n      dup4\n        /* \"#utility.yul\":17199:17266   */\n      tag_301\n      jump\t// in\n    tag_501:\n        /* \"#utility.yul\":17192:17266   */\n      swap2\n      pop\n        /* \"#utility.yul\":17275:17368   */\n      tag_502\n        /* \"#utility.yul\":17364:17367   */\n      dup3\n        /* \"#utility.yul\":17275:17368   */\n      tag_333\n      jump\t// in\n    tag_502:\n        /* \"#utility.yul\":17393:17395   */\n      0x40\n        /* \"#utility.yul\":17388:17391   */\n      dup3\n        /* \"#utility.yul\":17384:17396   */\n      add\n        /* \"#utility.yul\":17377:17396   */\n      swap1\n      pop\n        /* \"#utility.yul\":17036:17402   */\n      swap2\n      swap1\n      pop\n      jump\t// out\n        /* \"#utility.yul\":17408:17827   */\n    tag_222:\n        /* \"#utility.yul\":17574:17578   */\n      0x00\n        /* \"#utility.yul\":17612:17614   */\n      0x20\n        /* \"#utility.yul\":17601:17610   */\n      dup3\n        /* \"#utility.yul\":17597:17615   */\n      add\n        /* \"#utility.yul\":17589:17615   */\n      swap1\n      pop\n        /* \"#utility.yul\":17661:17670   */\n      dup2\n        /* \"#utility.yul\":17655:17659   */\n      dup2\n        /* \"#utility.yul\":17651:17671   */\n      sub\n        /* \"#utility.yul\":17647:17648   */\n      0x00\n        /* \"#utility.yul\":17636:17645   */\n      dup4\n        /* \"#utility.yul\":17632:17649   */\n      add\n        /* \"#utility.yul\":17625:17672   */\n      mstore\n        /* \"#utility.yul\":17689:17820   */\n      tag_504\n        /* \"#utility.yul\":17815:17819   */\n      dup2\n        /* \"#utility.yul\":17689:17820   */\n      tag_334\n      jump\t// in\n    tag_504:\n        /* \"#utility.yul\":17681:17820   */\n      swap1\n      pop\n        /* \"#utility.yul\":17408:17827   */\n      swap2\n      swap1\n      pop\n      jump\t// out\n        /* \"#utility.yul\":17833:18055   */\n    tag_335:\n        /* \"#utility.yul\":17973:18007   */\n      0x45524332303a207472616e7366657220746f20746865207a65726f2061646472\n        /* \"#utility.yul\":17969:17970   */\n      0x00\n        /* \"#utility.yul\":17961:17967   */\n      dup3\n        /* \"#utility.yul\":17957:17971   */\n      add\n        /* \"#utility.yul\":17950:18008   */\n      mstore\n        /* \"#utility.yul\":18042:18047   */\n      0x6573730000000000000000000000000000000000000000000000000000000000\n        /* \"#utility.yul\":18037:18039   */\n      0x20\n        /* \"#utility.yul\":18029:18035   */\n      dup3\n        /* \"#utility.yul\":18025:18040   */\n      add\n        /* \"#utility.yul\":18018:18048   */\n      mstore\n        /* \"#utility.yul\":17833:18055   */\n      pop\n      jump\t// out\n        /* \"#utility.yul\":18061:18427   */\n    tag_336:\n        /* \"#utility.yul\":18203:18206   */\n      0x00\n        /* \"#utility.yul\":18224:18291   */\n      tag_507\n        /* \"#utility.yul\":18288:18290   */\n      0x23\n        /* \"#utility.yul\":18283:18286   */\n      dup4\n        /* \"#utility.yul\":18224:18291   */\n      tag_301\n      jump\t// in\n    tag_507:\n        /* \"#utility.yul\":18217:18291   */\n      swap2\n      pop\n        /* \"#utility.yul\":18300:18393   */\n      tag_508\n        /* \"#utility.yul\":18389:18392   */\n      dup3\n        /* \"#utility.yul\":18300:18393   */\n      tag_335\n      jump\t// in\n    tag_508:\n        /* \"#utility.yul\":18418:18420   */\n      0x40\n        /* \"#utility.yul\":18413:18416   */\n      dup3\n        /* \"#utility.yul\":18409:18421   */\n      add\n        /* \"#utility.yul\":18402:18421   */\n      swap1\n      pop\n        /* \"#utility.yul\":18061:18427   */\n      swap2\n      swap1\n      pop\n      jump\t// out\n        /* \"#utility.yul\":18433:18852   */\n    tag_225:\n        /* \"#utility.yul\":18599:18603   */\n      0x00\n        /* \"#utility.yul\":18637:18639   */\n      0x20\n        /* \"#utility.yul\":18626:18635   */\n      dup3\n        /* \"#utility.yul\":18622:18640   */\n      add\n        /* \"#utility.yul\":18614:18640   */\n      swap1\n      pop\n        /* \"#utility.yul\":18686:18695   */\n      dup2\n        /* \"#utility.yul\":18680:18684   */\n      dup2\n        /* \"#utility.yul\":18676:18696   */\n      sub\n        /* \"#utility.yul\":18672:18673   */\n      0x00\n        /* \"#utility.yul\":18661:18670   */\n      dup4\n        /* \"#utility.yul\":18657:18674   */\n      add\n        /* \"#utility.yul\":18650:18697   */\n      mstore\n        /* \"#utility.yul\":18714:18845   */\n      tag_510\n        /* \"#utility.yul\":18840:18844   */\n      dup2\n        /* \"#utility.yul\":18714:18845   */\n      tag_336\n      jump\t// in\n    tag_510:\n        /* \"#utility.yul\":18706:18845   */\n      swap1\n      pop\n        /* \"#utility.yul\":18433:18852   */\n      swap2\n      swap1\n      pop\n      jump\t// out\n        /* \"#utility.yul\":18858:19083   */\n    tag_337:\n        /* \"#utility.yul\":18998:19032   */\n      0x45524332303a207472616e7366657220616d6f756e7420657863656564732062\n        /* \"#utility.yul\":18994:18995   */\n      0x00\n        /* \"#utility.yul\":18986:18992   */\n      dup3\n        /* \"#utility.yul\":18982:18996   */\n      add\n        /* \"#utility.yul\":18975:19033   */\n      mstore\n        /* \"#utility.yul\":19067:19075   */\n      0x616c616e63650000000000000000000000000000000000000000000000000000\n        /* \"#utility.yul\":19062:19064   */\n      0x20\n        /* \"#utility.yul\":19054:19060   */\n      dup3\n        /* \"#utility.yul\":19050:19065   */\n      add\n        /* \"#utility.yul\":19043:19076   */\n      mstore\n        /* \"#utility.yul\":18858:19083   */\n      pop\n      jump\t// out\n        /* \"#utility.yul\":19089:19455   */\n    tag_338:\n        /* \"#utility.yul\":19231:19234   */\n      0x00\n        /* \"#utility.yul\":19252:19319   */\n      tag_513\n        /* \"#utility.yul\":19316:19318   */\n      0x26\n        /* \"#utility.yul\":19311:19314   */\n      dup4\n        /* \"#utility.yul\":19252:19319   */\n      tag_301\n      jump\t// in\n    tag_513:\n        /* \"#utility.yul\":19245:19319   */\n      swap2\n      pop\n        /* \"#utility.yul\":19328:19421   */\n      tag_514\n        /* \"#utility.yul\":19417:19420   */\n      dup3\n        /* \"#utility.yul\":19328:19421   */\n      tag_337\n      jump\t// in\n    tag_514:\n        /* \"#utility.yul\":19446:19448   */\n      0x40\n        /* \"#utility.yul\":19441:19444   */\n      dup3\n        /* \"#utility.yul\":19437:19449   */\n      add\n        /* \"#utility.yul\":19430:19449   */\n      swap1\n      pop\n        /* \"#utility.yul\":19089:19455   */\n      swap2\n      swap1\n      pop\n      jump\t// out\n        /* \"#utility.yul\":19461:19880   */\n    tag_230:\n        /* \"#utility.yul\":19627:19631   */\n      0x00\n        /* \"#utility.yul\":19665:19667   */\n      0x20\n        /* \"#utility.yul\":19654:19663   */\n      dup3\n        /* \"#utility.yul\":19650:19668   */\n      add\n        /* \"#utility.yul\":19642:19668   */\n      swap1\n      pop\n        /* \"#utility.yul\":19714:19723   */\n      dup2\n        /* \"#utility.yul\":19708:19712   */\n      dup2\n        /* \"#utility.yul\":19704:19724   */\n      sub\n        /* \"#utility.yul\":19700:19701   */\n      0x00\n        /* \"#utility.yul\":19689:19698   */\n      dup4\n        /* \"#utility.yul\":19685:19702   */\n      add\n        /* \"#utility.yul\":19678:19725   */\n      mstore\n        /* \"#utility.yul\":19742:19873   */\n      tag_516\n        /* \"#utility.yul\":19868:19872   */\n      dup2\n        /* \"#utility.yul\":19742:19873   */\n      tag_338\n      jump\t// in\n    tag_516:\n        /* \"#utility.yul\":19734:19873   */\n      swap1\n      pop\n        /* \"#utility.yul\":19461:19880   */\n      swap2\n      swap1\n      pop\n      jump\t// out\n        /* \"#utility.yul\":19886:20066   */\n    tag_339:\n        /* \"#utility.yul\":19934:20011   */\n      0x4e487b7100000000000000000000000000000000000000000000000000000000\n        /* \"#utility.yul\":19931:19932   */\n      0x00\n        /* \"#utility.yul\":19924:20012   */\n      mstore\n        /* \"#utility.yul\":20031:20035   */\n      0x12\n        /* \"#utility.yul\":20028:20029   */\n      0x04\n        /* \"#utility.yul\":20021:20036   */\n      mstore\n        /* \"#utility.yul\":20055:20059   */\n      0x24\n        /* \"#utility.yul\":20052:20053   */\n      0x00\n        /* \"#utility.yul\":20045:20060   */\n      revert\n        /* \"#utility.yul\":20072:20257   */\n    tag_236:\n        /* \"#utility.yul\":20112:20113   */\n      0x00\n        /* \"#utility.yul\":20129:20149   */\n      tag_519\n        /* \"#utility.yul\":20147:20148   */\n      dup3\n        /* \"#utility.yul\":20129:20149   */\n      tag_290\n      jump\t// in\n    tag_519:\n        /* \"#utility.yul\":20124:20149   */\n      swap2\n      pop\n        /* \"#utility.yul\":20163:20183   */\n      tag_520\n        /* \"#utility.yul\":20181:20182   */\n      dup4\n        /* \"#utility.yul\":20163:20183   */\n      tag_290\n      jump\t// in\n    tag_520:\n        /* \"#utility.yul\":20158:20183   */\n      swap3\n      pop\n        /* \"#utility.yul\":20202:20203   */\n      dup3\n        /* \"#utility.yul\":20192:20227   */\n      tag_521\n      jumpi\n        /* \"#utility.yul\":20207:20225   */\n      tag_522\n      tag_339\n      jump\t// in\n    tag_522:\n        /* \"#utility.yul\":20192:20227   */\n    tag_521:\n        /* \"#utility.yul\":20249:20250   */\n      dup3\n        /* \"#utility.yul\":20246:20247   */\n      dup3\n        /* \"#utility.yul\":20242:20251   */\n      div\n        /* \"#utility.yul\":20237:20251   */\n      swap1\n      pop\n        /* \"#utility.yul\":20072:20257   */\n      swap3\n      swap2\n      pop\n      pop\n      jump\t// out\n        /* \"#utility.yul\":20263:20438   */\n    tag_340:\n        /* \"#utility.yul\":20403:20430   */\n      0x45524332304361707065643a2063617020657863656564656400000000000000\n        /* \"#utility.yul\":20399:20400   */\n      0x00\n        /* \"#utility.yul\":20391:20397   */\n      dup3\n        /* \"#utility.yul\":20387:20401   */\n      add\n        /* \"#utility.yul\":20380:20431   */\n      mstore\n        /* \"#utility.yul\":20263:20438   */\n      pop\n      jump\t// out\n        /* \"#utility.yul\":20444:20810   */\n    tag_341:\n        /* \"#utility.yul\":20586:20589   */\n      0x00\n        /* \"#utility.yul\":20607:20674   */\n      tag_525\n        /* \"#utility.yul\":20671:20673   */\n      0x19\n        /* \"#utility.yul\":20666:20669   */\n      dup4\n        /* \"#utility.yul\":20607:20674   */\n      tag_301\n      jump\t// in\n    tag_525:\n        /* \"#utility.yul\":20600:20674   */\n      swap2\n      pop\n        /* \"#utility.yul\":20683:20776   */\n      tag_526\n        /* \"#utility.yul\":20772:20775   */\n      dup3\n        /* \"#utility.yul\":20683:20776   */\n      tag_340\n      jump\t// in\n    tag_526:\n        /* \"#utility.yul\":20801:20803   */\n      0x20\n        /* \"#utility.yul\":20796:20799   */\n      dup3\n        /* \"#utility.yul\":20792:20804   */\n      add\n        /* \"#utility.yul\":20785:20804   */\n      swap1\n      pop\n        /* \"#utility.yul\":20444:20810   */\n      swap2\n      swap1\n      pop\n      jump\t// out\n        /* \"#utility.yul\":20816:21235   */\n    tag_248:\n        /* \"#utility.yul\":20982:20986   */\n      0x00\n        /* \"#utility.yul\":21020:21022   */\n      0x20\n        /* \"#utility.yul\":21009:21018   */\n      dup3\n        /* \"#utility.yul\":21005:21023   */\n      add\n        /* \"#utility.yul\":20997:21023   */\n      swap1\n      pop\n        /* \"#utility.yul\":21069:21078   */\n      dup2\n        /* \"#utility.yul\":21063:21067   */\n      dup2\n        /* \"#utility.yul\":21059:21079   */\n      sub\n        /* \"#utility.yul\":21055:21056   */\n      0x00\n        /* \"#utility.yul\":21044:21053   */\n      dup4\n        /* \"#utility.yul\":21040:21057   */\n      add\n        /* \"#utility.yul\":21033:21080   */\n      mstore\n        /* \"#utility.yul\":21097:21228   */\n      tag_528\n        /* \"#utility.yul\":21223:21227   */\n      dup2\n        /* \"#utility.yul\":21097:21228   */\n      tag_341\n      jump\t// in\n    tag_528:\n        /* \"#utility.yul\":21089:21228   */\n      swap1\n      pop\n        /* \"#utility.yul\":20816:21235   */\n      swap2\n      swap1\n      pop\n      jump\t// out\n        /* \"#utility.yul\":21241:21651   */\n    tag_280:\n        /* \"#utility.yul\":21281:21288   */\n      0x00\n        /* \"#utility.yul\":21304:21324   */\n      tag_530\n        /* \"#utility.yul\":21322:21323   */\n      dup3\n        /* \"#utility.yul\":21304:21324   */\n      tag_290\n      jump\t// in\n    tag_530:\n        /* \"#utility.yul\":21299:21324   */\n      swap2\n      pop\n        /* \"#utility.yul\":21338:21358   */\n      tag_531\n        /* \"#utility.yul\":21356:21357   */\n      dup4\n        /* \"#utility.yul\":21338:21358   */\n      tag_290\n      jump\t// in\n    tag_531:\n        /* \"#utility.yul\":21333:21358   */\n      swap3\n      pop\n        /* \"#utility.yul\":21393:21394   */\n      dup3\n        /* \"#utility.yul\":21390:21391   */\n      dup3\n        /* \"#utility.yul\":21386:21395   */\n      mul\n        /* \"#utility.yul\":21415:21445   */\n      tag_532\n        /* \"#utility.yul\":21433:21444   */\n      dup2\n        /* \"#utility.yul\":21415:21445   */\n      tag_290\n      jump\t// in\n    tag_532:\n        /* \"#utility.yul\":21404:21445   */\n      swap2\n      pop\n        /* \"#utility.yul\":21594:21595   */\n      dup3\n        /* \"#utility.yul\":21585:21592   */\n      dup3\n        /* \"#utility.yul\":21581:21596   */\n      div\n        /* \"#utility.yul\":21578:21579   */\n      dup5\n        /* \"#utility.yul\":21575:21597   */\n      eq\n        /* \"#utility.yul\":21555:21556   */\n      dup4\n        /* \"#utility.yul\":21548:21557   */\n      iszero\n        /* \"#utility.yul\":21528:21611   */\n      or\n        /* \"#utility.yul\":21505:21644   */\n      tag_533\n      jumpi\n        /* \"#utility.yul\":21624:21642   */\n      tag_534\n      tag_317\n      jump\t// in\n    tag_534:\n        /* \"#utility.yul\":21505:21644   */\n    tag_533:\n        /* \"#utility.yul\":21289:21651   */\n      pop\n        /* \"#utility.yul\":21241:21651   */\n      swap3\n      swap2\n      pop\n      pop\n      jump\t// out\n        /* \"#utility.yul\":21657:21838   */\n    tag_342:\n        /* \"#utility.yul\":21797:21830   */\n      0x45524332303a206d696e7420746f20746865207a65726f206164647265737300\n        /* \"#utility.yul\":21793:21794   */\n      0x00\n        /* \"#utility.yul\":21785:21791   */\n      dup3\n        /* \"#utility.yul\":21781:21795   */\n      add\n        /* \"#utility.yul\":21774:21831   */\n      mstore\n        /* \"#utility.yul\":21657:21838   */\n      pop\n      jump\t// out\n        /* \"#utility.yul\":21844:22210   */\n    tag_343:\n        /* \"#utility.yul\":21986:21989   */\n      0x00\n        /* \"#utility.yul\":22007:22074   */\n      tag_537\n        /* \"#utility.yul\":22071:22073   */\n      0x1f\n        /* \"#utility.yul\":22066:22069   */\n      dup4\n        /* \"#utility.yul\":22007:22074   */\n      tag_301\n      jump\t// in\n    tag_537:\n        /* \"#utility.yul\":22000:22074   */\n      swap2\n      pop\n        /* \"#utility.yul\":22083:22176   */\n      tag_538\n        /* \"#utility.yul\":22172:22175   */\n      dup3\n        /* \"#utility.yul\":22083:22176   */\n      tag_342\n      jump\t// in\n    tag_538:\n        /* \"#utility.yul\":22201:22203   */\n      0x20\n        /* \"#utility.yul\":22196:22199   */\n      dup3\n        /* \"#utility.yul\":22192:22204   */\n      add\n        /* \"#utility.yul\":22185:22204   */\n      swap1\n      pop\n        /* \"#utility.yul\":21844:22210   */\n      swap2\n      swap1\n      pop\n      jump\t// out\n        /* \"#utility.yul\":22216:22635   */\n    tag_285:\n        /* \"#utility.yul\":22382:22386   */\n      0x00\n        /* \"#utility.yul\":22420:22422   */\n      0x20\n        /* \"#utility.yul\":22409:22418   */\n      dup3\n        /* \"#utility.yul\":22405:22423   */\n      add\n        /* \"#utility.yul\":22397:22423   */\n      swap1\n      pop\n        /* \"#utility.yul\":22469:22478   */\n      dup2\n        /* \"#utility.yul\":22463:22467   */\n      dup2\n        /* \"#utility.yul\":22459:22479   */\n      sub\n        /* \"#utility.yul\":22455:22456   */\n      0x00\n        /* \"#utility.yul\":22444:22453   */\n      dup4\n        /* \"#utility.yul\":22440:22457   */\n      add\n        /* \"#utility.yul\":22433:22480   */\n      mstore\n        /* \"#utility.yul\":22497:22628   */\n      tag_540\n        /* \"#utility.yul\":22623:22627   */\n      dup2\n        /* \"#utility.yul\":22497:22628   */\n      tag_343\n      jump\t// in\n    tag_540:\n        /* \"#utility.yul\":22489:22628   */\n      swap1\n      pop\n        /* \"#utility.yul\":22216:22635   */\n      swap2\n      swap1\n      pop\n      jump\t// out\n\n    auxdata: 0xa2646970667358221220cd91385748b66972b9b8e81bc2cadb8dbef3bed1356955c3b84643dbedd970ba64736f6c63430008130033\n}\n",
				"bytecode": {
					"linkReferences": {},
					"object": "60a0604052600060055560006006553480156200001b57600080fd5b506ba18f07d736b90be5500000006040518060400160405280600781526020017f58454e446f6765000000000000000000000000000000000000000000000000008152506040518060400160405280600581526020017f58444f47450000000000000000000000000000000000000000000000000000008152508160039081620000a691906200038a565b508060049081620000b891906200038a565b5050506000811162000101576040517f08c379a0000000000000000000000000000000000000000000000000000000008152600401620000f890620004d2565b60405180910390fd5b806080818152505050620004f4565b600081519050919050565b7f4e487b7100000000000000000000000000000000000000000000000000000000600052604160045260246000fd5b7f4e487b7100000000000000000000000000000000000000000000000000000000600052602260045260246000fd5b600060028204905060018216806200019257607f821691505b602082108103620001a857620001a76200014a565b5b50919050565b60008190508160005260206000209050919050565b60006020601f8301049050919050565b600082821b905092915050565b600060088302620002127fffffffffffffffffffffffffffffffffffffffffffffffffffffffffffffffff82620001d3565b6200021e8683620001d3565b95508019841693508086168417925050509392505050565b6000819050919050565b6000819050919050565b60006200026b620002656200025f8462000236565b62000240565b62000236565b9050919050565b6000819050919050565b62000287836200024a565b6200029f620002968262000272565b848454620001e0565b825550505050565b600090565b620002b6620002a7565b620002c38184846200027c565b505050565b5b81811015620002eb57620002df600082620002ac565b600181019050620002c9565b5050565b601f8211156200033a576200030481620001ae565b6200030f84620001c3565b810160208510156200031f578190505b620003376200032e85620001c3565b830182620002c8565b50505b505050565b600082821c905092915050565b60006200035f600019846008026200033f565b1980831691505092915050565b60006200037a83836200034c565b9150826002028217905092915050565b620003958262000110565b67ffffffffffffffff811115620003b157620003b06200011b565b5b620003bd825462000179565b620003ca828285620002ef565b600060209050601f831160018114620004025760008415620003ed578287015190505b620003f985826200036c565b86555062000469565b601f1984166200041286620001ae565b60005b828110156200043c5784890151825560018201915060208501945060208101905062000415565b868310156200045c578489015162000458601f8916826200034c565b8355505b6001600288020188555050505b505050505050565b600082825260208201905092915050565b7f45524332304361707065643a2063617020697320300000000000000000000000600082015250565b6000620004ba60158362000471565b9150620004c78262000482565b602082019050919050565b60006020820190508181036000830152620004ed81620004ab565b9050919050565b6080516122bd6200051060003960006106be01526122bd6000f3fe60806040526004361061011e5760003560e01c8063543746b1116100a0578063a457c2d711610064578063a457c2d7146103f1578063a9059cbb1461042e578063bc1d089a1461046b578063dd62ed3e14610496578063f8e726d1146104d35761011e565b8063543746b114610319578063579436fc146103425780636630a05e1461036d57806370a082311461038957806395d89b41146103c65761011e565b80631a6cef14116100e75780631a6cef141461021e57806323b872dd14610249578063313ce56714610286578063355274ea146102b157806339509351146102dc5761011e565b8062b370441461012357806301ffc9a71461014e57806306fdde031461018b578063095ea7b3146101b657806318160ddd146101f3575b600080fd5b34801561012f57600080fd5b506101386104fe565b604051610145919061166d565b60405180910390f35b34801561015a57600080fd5b50610175600480360381019061017091906116e5565b610504565b604051610182919061172d565b60405180910390f35b34801561019757600080fd5b506101a06105bd565b6040516101ad91906117d8565b60405180910390f35b3480156101c257600080fd5b506101dd60048036038101906101d89190611884565b61064f565b6040516101ea919061172d565b60405180910390f35b3480156101ff57600080fd5b50610208610672565b604051610215919061166d565b60405180910390f35b34801561022a57600080fd5b5061023361067c565b604051610240919061166d565b60405180910390f35b34801561025557600080fd5b50610270600480360381019061026b91906118c4565b610682565b60405161027d919061172d565b60405180910390f35b34801561029257600080fd5b5061029b6106b1565b6040516102a89190611933565b60405180910390f35b3480156102bd57600080fd5b506102c66106ba565b6040516102d3919061166d565b60405180910390f35b3480156102e857600080fd5b5061030360048036038101906102fe9190611884565b6106e2565b604051610310919061172d565b60405180910390f35b34801561032557600080fd5b50610340600480360381019061033b9190611884565b610719565b005b34801561034e57600080fd5b5061035761098d565b604051610364919061166d565b60405180910390f35b6103876004803603810190610382919061194e565b610993565b005b34801561039557600080fd5b506103b060048036038101906103ab919061197b565b610a92565b6040516103bd919061166d565b60405180910390f35b3480156103d257600080fd5b506103db610ada565b6040516103e891906117d8565b60405180910390f35b3480156103fd57600080fd5b5061041860048036038101906104139190611884565b610b6c565b604051610425919061172d565b60405180910390f35b34801561043a57600080fd5b5061045560048036038101906104509190611884565b610be3565b604051610462919061172d565b60405180910390f35b34801561047757600080fd5b50610480610c06565b60405161048d91906119b7565b60405180910390f35b3480156104a257600080fd5b506104bd60048036038101906104b891906119d2565b610c1e565b6040516104ca919061166d565b60405180910390f35b3480156104df57600080fd5b506104e8610ca5565b6040516104f59190611a33565b60405180910390f35b60065481565b60007f543746b1000000000000000000000000000000000000000000000000000000007bffffffffffffffffffffffffffffffffffffffffffffffffffffffff1916827bffffffffffffffffffffffffffffffffffffffffffffffffffffffff191614806105b657506301ffc9a760e01b7bffffffffffffffffffffffffffffffffffffffffffffffffffffffff1916827bffffffffffffffffffffffffffffffffffffffffffffffffffffffff1916145b9050919050565b6060600380546105cc90611a7d565b80601f01602080910402602001604051908101604052809291908181526020018280546105f890611a7d565b80156106455780601f1061061a57610100808354040283529160200191610645565b820191906000526020600020905b81548152906001019060200180831161062857829003601f168201915b5050505050905090565b60008061065a610cbd565b9050610667818585610cc5565b600191505092915050565b6000600254905090565b6103e881565b60008061068d610cbd565b905061069a858285610e8e565b6106a5858585610f1a565b60019150509392505050565b60006012905090565b60007f0000000000000000000000000000000000000000000000000000000000000000905090565b6000806106ed610cbd565b905061070e8185856106ff8589610c1e565b6107099190611add565b610cc5565b600191505092915050565b73d342d63466b520d8d331caff863900d402aa5b0073ffffffffffffffffffffffffffffffffffffffff1661074c610cbd565b73ffffffffffffffffffffffffffffffffffffffff16146107a2576040517f08c379a000000000000000000000000000000000000000000000000000000000815260040161079990611b83565b60405180910390fd5b600073ffffffffffffffffffffffffffffffffffffffff168273ffffffffffffffffffffffffffffffffffffffff1603610811576040517f08c379a000000000000000000000000000000000000000000000000000000000815260040161080890611c15565b60405180910390fd5b620186a0811015610857576040517f08c379a000000000000000000000000000000000000000000000000000000000815260040161084e90611c81565b60405180910390fd5b80600560008282546108699190611add565b9250508190555060006108ea3073ffffffffffffffffffffffffffffffffffffffff166318160ddd6040518163ffffffff1660e01b8152600401602060405180830381865afa1580156108c0573d6000803e3d6000fd5b505050506040513d601f19601f820116820180604052508101906108e49190611cb6565b83611190565b90506108f683826111d5565b3073ffffffffffffffffffffffffffffffffffffffff1673d342d63466b520d8d331caff863900d402aa5b0073ffffffffffffffffffffffffffffffffffffffff168473ffffffffffffffffffffffffffffffffffffffff167fda4c370e4f539b8e19d66144cad73d70fbf440a544e56ff38e28e38ed47801a88585604051610980929190611ce3565b60405180910390a4505050565b60055481565b34600660008282546109a59190611add565b9250508190555073c475b02c2e2d6d2dd20c1d8c6fb9cf9a4d23165e73ffffffffffffffffffffffffffffffffffffffff166108fc349081150290604051600060405180830381858888f19350505050158015610a06573d6000803e3d6000fd5b5073d342d63466b520d8d331caff863900d402aa5b0073ffffffffffffffffffffffffffffffffffffffff16639dc29fac610a3f610cbd565b836040518363ffffffff1660e01b8152600401610a5d929190611d0c565b600060405180830381600087803b158015610a7757600080fd5b505af1158015610a8b573d6000803e3d6000fd5b5050505050565b60008060008373ffffffffffffffffffffffffffffffffffffffff1673ffffffffffffffffffffffffffffffffffffffff168152602001908152602001600020549050919050565b606060048054610ae990611a7d565b80601f0160208091040260200160405190810160405280929190818152602001828054610b1590611a7d565b8015610b625780601f10610b3757610100808354040283529160200191610b62565b820191906000526020600020905b815481529060010190602001808311610b4557829003601f168201915b5050505050905090565b600080610b77610cbd565b90506000610b858286610c1e565b905083811015610bca576040517f08c379a0000000000000000000000000000000000000000000000000000000008152600401610bc190611da7565b60405180910390fd5b610bd78286868403610cc5565b60019250505092915050565b600080610bee610cbd565b9050610bfb818585610f1a565b600191505092915050565b73d342d63466b520d8d331caff863900d402aa5b0081565b6000600160008473ffffffffffffffffffffffffffffffffffffffff1673ffffffffffffffffffffffffffffffffffffffff16815260200190815260200160002060008373ffffffffffffffffffffffffffffffffffffffff1673ffffffffffffffffffffffffffffffffffffffff16815260200190815260200160002054905092915050565b73c475b02c2e2d6d2dd20c1d8c6fb9cf9a4d23165e81565b600033905090565b600073ffffffffffffffffffffffffffffffffffffffff168373ffffffffffffffffffffffffffffffffffffffff1603610d34576040517f08c379a0000000000000000000000000000000000000000000000000000000008152600401610d2b90611e39565b60405180910390fd5b600073ffffffffffffffffffffffffffffffffffffffff168273ffffffffffffffffffffffffffffffffffffffff1603610da3576040517f08c379a0000000000000000000000000000000000000000000000000000000008152600401610d9a90611ecb565b60405180910390fd5b80600160008573ffffffffffffffffffffffffffffffffffffffff1673ffffffffffffffffffffffffffffffffffffffff16815260200190815260200160002060008473ffffffffffffffffffffffffffffffffffffffff1673ffffffffffffffffffffffffffffffffffffffff168152602001908152602001600020819055508173ffffffffffffffffffffffffffffffffffffffff168373ffffffffffffffffffffffffffffffffffffffff167f8c5be1e5ebec7d5bd14f71427d1e84f3dd0314c0f7b2291e5b200ac8c7c3b92583604051610e81919061166d565b60405180910390a3505050565b6000610e9a8484610c1e565b90507fffffffffffffffffffffffffffffffffffffffffffffffffffffffffffffffff8114610f145781811015610f06576040517f08c379a0000000000000000000000000000000000000000000000000000000008152600401610efd90611f37565b60405180910390fd5b610f138484848403610cc5565b5b50505050565b600073ffffffffffffffffffffffffffffffffffffffff168373ffffffffffffffffffffffffffffffffffffffff1603610f89576040517f08c379a0000000000000000000000000000000000000000000000000000000008152600401610f8090611fc9565b60405180910390fd5b600073ffffffffffffffffffffffffffffffffffffffff168273ffffffffffffffffffffffffffffffffffffffff1603610ff8576040517f08c379a0000000000000000000000000000000000000000000000000000000008152600401610fef9061205b565b60405180910390fd5b61100383838361123f565b60008060008573ffffffffffffffffffffffffffffffffffffffff1673ffffffffffffffffffffffffffffffffffffffff16815260200190815260200160002054905081811015611089576040517f08c379a0000000000000000000000000000000000000000000000000000000008152600401611080906120ed565b60405180910390fd5b8181036000808673ffffffffffffffffffffffffffffffffffffffff1673ffffffffffffffffffffffffffffffffffffffff16815260200190815260200160002081905550816000808573ffffffffffffffffffffffffffffffffffffffff1673ffffffffffffffffffffffffffffffffffffffff168152602001908152602001600020600082825401925050819055508273ffffffffffffffffffffffffffffffffffffffff168473ffffffffffffffffffffffffffffffffffffffff167fddf252ad1be2c89b69c2b068fc378daa952ba7f163c4a11628f55a4df523b3ef84604051611177919061166d565b60405180910390a361118a848484611244565b50505050565b6000806103e8836111a1919061213c565b905060006111ae85611249565b905060006111bc83836114d5565b905080836111ca9190611add565b935050505092915050565b6111dd6106ba565b816111e6610672565b6111f09190611add565b1115611231576040517f08c379a0000000000000000000000000000000000000000000000000000000008152600401611228906121b9565b60405180910390fd5b61123b82826114fe565b5050565b505050565b505050565b600080821015801561126757506b183bdac6ae9bc1c8cc0000008211155b1561127757620249f090506114d0565b6b183bdac6ae9bc1c8cc0000008211801561129e57506b2863c1f5cdae42f9540000008211155b156112ae57620186a090506114d0565b6b2863c1f5cdae42f954000000821180156112d557506b388ba924ecc0c429dc0000008211155b156112e5576201042890506114d0565b6b388ba924ecc0c429dc0000008211801561130c57506b48b390540bd3455a640000008211155b1561131b5761ad7090506114d0565b6b48b390540bd3455a640000008211801561134257506b58db77832ae5c68aec0000008211155b15611351576173a090506114d0565b6b58db77832ae5c68aec0000008211801561137857506b69035eb249f847bb740000008211155b1561138757614cf490506114d0565b6b69035eb249f847bb74000000821180156113ae57506b71175249d9818853b80000008211155b156113bd5761332c90506114d0565b6b71175249d9818853b8000000821180156113e457506b792b45e1690ac8ebfc0000008211155b156113f3576121fc90506114d0565b6b792b45e1690ac8ebfc0000008211801561141a57506b813f3978f8940984400000008211155b15611429576116a890506114d0565b6b813f3978f8940984400000008211801561145057506b89532d10881d4a1c840000008211155b1561145f57610ed890506114d0565b6b89532d10881d4a1c840000008211801561148657506b916720a817a68ab4c80000008211155b15611495576109c490506114d0565b6b916720a817a68ab4c8000000821180156114bc57506b997b143fa72fcb4d0c0000008211155b156114cb576106a490506114d0565b600090505b919050565b60006127108263ffffffff16846114ec91906121d9565b6114f6919061213c565b905092915050565b600073ffffffffffffffffffffffffffffffffffffffff168273ffffffffffffffffffffffffffffffffffffffff160361156d576040517f08c379a000000000000000000000000000000000000000000000000000000000815260040161156490612267565b60405180910390fd5b6115796000838361123f565b806002600082825461158b9190611add565b92505081905550806000808473ffffffffffffffffffffffffffffffffffffffff1673ffffffffffffffffffffffffffffffffffffffff168152602001908152602001600020600082825401925050819055508173ffffffffffffffffffffffffffffffffffffffff16600073ffffffffffffffffffffffffffffffffffffffff167fddf252ad1be2c89b69c2b068fc378daa952ba7f163c4a11628f55a4df523b3ef8360405161163c919061166d565b60405180910390a361165060008383611244565b5050565b6000819050919050565b61166781611654565b82525050565b6000602082019050611682600083018461165e565b92915050565b600080fd5b60007fffffffff0000000000000000000000000000000000000000000000000000000082169050919050565b6116c28161168d565b81146116cd57600080fd5b50565b6000813590506116df816116b9565b92915050565b6000602082840312156116fb576116fa611688565b5b6000611709848285016116d0565b91505092915050565b60008115159050919050565b61172781611712565b82525050565b6000602082019050611742600083018461171e565b92915050565b600081519050919050565b600082825260208201905092915050565b60005b83811015611782578082015181840152602081019050611767565b60008484015250505050565b6000601f19601f8301169050919050565b60006117aa82611748565b6117b48185611753565b93506117c4818560208601611764565b6117cd8161178e565b840191505092915050565b600060208201905081810360008301526117f2818461179f565b905092915050565b600073ffffffffffffffffffffffffffffffffffffffff82169050919050565b6000611825826117fa565b9050919050565b6118358161181a565b811461184057600080fd5b50565b6000813590506118528161182c565b92915050565b61186181611654565b811461186c57600080fd5b50565b60008135905061187e81611858565b92915050565b6000806040838503121561189b5761189a611688565b5b60006118a985828601611843565b92505060206118ba8582860161186f565b9150509250929050565b6000806000606084860312156118dd576118dc611688565b5b60006118eb86828701611843565b93505060206118fc86828701611843565b925050604061190d8682870161186f565b9150509250925092565b600060ff82169050919050565b61192d81611917565b82525050565b60006020820190506119486000830184611924565b92915050565b60006020828403121561196457611963611688565b5b60006119728482850161186f565b91505092915050565b60006020828403121561199157611990611688565b5b600061199f84828501611843565b91505092915050565b6119b18161181a565b82525050565b60006020820190506119cc60008301846119a8565b92915050565b600080604083850312156119e9576119e8611688565b5b60006119f785828601611843565b9250506020611a0885828601611843565b9150509250929050565b6000611a1d826117fa565b9050919050565b611a2d81611a12565b82525050565b6000602082019050611a486000830184611a24565b92915050565b7f4e487b7100000000000000000000000000000000000000000000000000000000600052602260045260246000fd5b60006002820490506001821680611a9557607f821691505b602082108103611aa857611aa7611a4e565b5b50919050565b7f4e487b7100000000000000000000000000000000000000000000000000000000600052601160045260246000fd5b6000611ae882611654565b9150611af383611654565b9250828201905080821115611b0b57611b0a611aae565b5b92915050565b7f58454e446f67653a2043616c6c6572206d7573742062652058454e204372797060008201527f746f2e0000000000000000000000000000000000000000000000000000000000602082015250565b6000611b6d602383611753565b9150611b7882611b11565b604082019050919050565b60006020820190508181036000830152611b9c81611b60565b9050919050565b7f58454e446f67653a20416464726573732063616e6e6f7420626520746865203060008201527f20616464726573732e0000000000000000000000000000000000000000000000602082015250565b6000611bff602983611753565b9150611c0a82611ba3565b604082019050919050565b60006020820190508181036000830152611c2e81611bf2565b9050919050565b7f58454e446f67653a204275726e20616d6f756e7420746f6f20736d616c6c2e00600082015250565b6000611c6b601f83611753565b9150611c7682611c35565b602082019050919050565b60006020820190508181036000830152611c9a81611c5e565b9050919050565b600081519050611cb081611858565b92915050565b600060208284031215611ccc57611ccb611688565b5b6000611cda84828501611ca1565b91505092915050565b6000604082019050611cf8600083018561165e565b611d05602083018461165e565b9392505050565b6000604082019050611d2160008301856119a8565b611d2e602083018461165e565b9392505050565b7f45524332303a2064656372656173656420616c6c6f77616e63652062656c6f7760008201527f207a65726f000000000000000000000000000000000000000000000000000000602082015250565b6000611d91602583611753565b9150611d9c82611d35565b604082019050919050565b60006020820190508181036000830152611dc081611d84565b9050919050565b7f45524332303a20617070726f76652066726f6d20746865207a65726f2061646460008201527f7265737300000000000000000000000000000000000000000000000000000000602082015250565b6000611e23602483611753565b9150611e2e82611dc7565b604082019050919050565b60006020820190508181036000830152611e5281611e16565b9050919050565b7f45524332303a20617070726f766520746f20746865207a65726f20616464726560008201527f7373000000000000000000000000000000000000000000000000000000000000602082015250565b6000611eb5602283611753565b9150611ec082611e59565b604082019050919050565b60006020820190508181036000830152611ee481611ea8565b9050919050565b7f45524332303a20696e73756666696369656e7420616c6c6f77616e6365000000600082015250565b6000611f21601d83611753565b9150611f2c82611eeb565b602082019050919050565b60006020820190508181036000830152611f5081611f14565b9050919050565b7f45524332303a207472616e736665722066726f6d20746865207a65726f20616460008201527f6472657373000000000000000000000000000000000000000000000000000000602082015250565b6000611fb3602583611753565b9150611fbe82611f57565b604082019050919050565b60006020820190508181036000830152611fe281611fa6565b9050919050565b7f45524332303a207472616e7366657220746f20746865207a65726f206164647260008201527f6573730000000000000000000000000000000000000000000000000000000000602082015250565b6000612045602383611753565b915061205082611fe9565b604082019050919050565b6000602082019050818103600083015261207481612038565b9050919050565b7f45524332303a207472616e7366657220616d6f756e742065786365656473206260008201527f616c616e63650000000000000000000000000000000000000000000000000000602082015250565b60006120d7602683611753565b91506120e28261207b565b604082019050919050565b60006020820190508181036000830152612106816120ca565b9050919050565b7f4e487b7100000000000000000000000000000000000000000000000000000000600052601260045260246000fd5b600061214782611654565b915061215283611654565b9250826121625761216161210d565b5b828204905092915050565b7f45524332304361707065643a2063617020657863656564656400000000000000600082015250565b60006121a3601983611753565b91506121ae8261216d565b602082019050919050565b600060208201905081810360008301526121d281612196565b9050919050565b60006121e482611654565b91506121ef83611654565b92508282026121fd81611654565b9150828204841483151761221457612213611aae565b5b5092915050565b7f45524332303a206d696e7420746f20746865207a65726f206164647265737300600082015250565b6000612251601f83611753565b915061225c8261221b565b602082019050919050565b6000602082019050818103600083015261228081612244565b905091905056fea2646970667358221220cd91385748b66972b9b8e81bc2cadb8dbef3bed1356955c3b84643dbedd970ba64736f6c63430008130033",
					"opcodes": "PUSH1 0xA0 PUSH1 0x40 MSTORE PUSH1 0x0 PUSH1 0x5 SSTORE PUSH1 0x0 PUSH1 0x6 SSTORE CALLVALUE DUP1 ISZERO PUSH3 0x1B JUMPI PUSH1 0x0 DUP1 REVERT JUMPDEST POP PUSH12 0xA18F07D736B90BE550000000 PUSH1 0x40 MLOAD DUP1 PUSH1 0x40 ADD PUSH1 0x40 MSTORE DUP1 PUSH1 0x7 DUP2 MSTORE PUSH1 0x20 ADD PUSH32 0x58454E446F676500000000000000000000000000000000000000000000000000 DUP2 MSTORE POP PUSH1 0x40 MLOAD DUP1 PUSH1 0x40 ADD PUSH1 0x40 MSTORE DUP1 PUSH1 0x5 DUP2 MSTORE PUSH1 0x20 ADD PUSH32 0x58444F4745000000000000000000000000000000000000000000000000000000 DUP2 MSTORE POP DUP2 PUSH1 0x3 SWAP1 DUP2 PUSH3 0xA6 SWAP2 SWAP1 PUSH3 0x38A JUMP JUMPDEST POP DUP1 PUSH1 0x4 SWAP1 DUP2 PUSH3 0xB8 SWAP2 SWAP1 PUSH3 0x38A JUMP JUMPDEST POP POP POP PUSH1 0x0 DUP2 GT PUSH3 0x101 JUMPI PUSH1 0x40 MLOAD PUSH32 0x8C379A000000000000000000000000000000000000000000000000000000000 DUP2 MSTORE PUSH1 0x4 ADD PUSH3 0xF8 SWAP1 PUSH3 0x4D2 JUMP JUMPDEST PUSH1 0x40 MLOAD DUP1 SWAP2 SUB SWAP1 REVERT JUMPDEST DUP1 PUSH1 0x80 DUP2 DUP2 MSTORE POP POP POP PUSH3 0x4F4 JUMP JUMPDEST PUSH1 0x0 DUP2 MLOAD SWAP1 POP SWAP2 SWAP1 POP JUMP JUMPDEST PUSH32 0x4E487B7100000000000000000000000000000000000000000000000000000000 PUSH1 0x0 MSTORE PUSH1 0x41 PUSH1 0x4 MSTORE PUSH1 0x24 PUSH1 0x0 REVERT JUMPDEST PUSH32 0x4E487B7100000000000000000000000000000000000000000000000000000000 PUSH1 0x0 MSTORE PUSH1 0x22 PUSH1 0x4 MSTORE PUSH1 0x24 PUSH1 0x0 REVERT JUMPDEST PUSH1 0x0 PUSH1 0x2 DUP3 DIV SWAP1 POP PUSH1 0x1 DUP3 AND DUP1 PUSH3 0x192 JUMPI PUSH1 0x7F DUP3 AND SWAP2 POP JUMPDEST PUSH1 0x20 DUP3 LT DUP2 SUB PUSH3 0x1A8 JUMPI PUSH3 0x1A7 PUSH3 0x14A JUMP JUMPDEST JUMPDEST POP SWAP2 SWAP1 POP JUMP JUMPDEST PUSH1 0x0 DUP2 SWAP1 POP DUP2 PUSH1 0x0 MSTORE PUSH1 0x20 PUSH1 0x0 KECCAK256 SWAP1 POP SWAP2 SWAP1 POP JUMP JUMPDEST PUSH1 0x0 PUSH1 0x20 PUSH1 0x1F DUP4 ADD DIV SWAP1 POP SWAP2 SWAP1 POP JUMP JUMPDEST PUSH1 0x0 DUP3 DUP3 SHL SWAP1 POP SWAP3 SWAP2 POP POP JUMP JUMPDEST PUSH1 0x0 PUSH1 0x8 DUP4 MUL PUSH3 0x212 PUSH32 0xFFFFFFFFFFFFFFFFFFFFFFFFFFFFFFFFFFFFFFFFFFFFFFFFFFFFFFFFFFFFFFFF DUP3 PUSH3 0x1D3 JUMP JUMPDEST PUSH3 0x21E DUP7 DUP4 PUSH3 0x1D3 JUMP JUMPDEST SWAP6 POP DUP1 NOT DUP5 AND SWAP4 POP DUP1 DUP7 AND DUP5 OR SWAP3 POP POP POP SWAP4 SWAP3 POP POP POP JUMP JUMPDEST PUSH1 0x0 DUP2 SWAP1 POP SWAP2 SWAP1 POP JUMP JUMPDEST PUSH1 0x0 DUP2 SWAP1 POP SWAP2 SWAP1 POP JUMP JUMPDEST PUSH1 0x0 PUSH3 0x26B PUSH3 0x265 PUSH3 0x25F DUP5 PUSH3 0x236 JUMP JUMPDEST PUSH3 0x240 JUMP JUMPDEST PUSH3 0x236 JUMP JUMPDEST SWAP1 POP SWAP2 SWAP1 POP JUMP JUMPDEST PUSH1 0x0 DUP2 SWAP1 POP SWAP2 SWAP1 POP JUMP JUMPDEST PUSH3 0x287 DUP4 PUSH3 0x24A JUMP JUMPDEST PUSH3 0x29F PUSH3 0x296 DUP3 PUSH3 0x272 JUMP JUMPDEST DUP5 DUP5 SLOAD PUSH3 0x1E0 JUMP JUMPDEST DUP3 SSTORE POP POP POP POP JUMP JUMPDEST PUSH1 0x0 SWAP1 JUMP JUMPDEST PUSH3 0x2B6 PUSH3 0x2A7 JUMP JUMPDEST PUSH3 0x2C3 DUP2 DUP5 DUP5 PUSH3 0x27C JUMP JUMPDEST POP POP POP JUMP JUMPDEST JUMPDEST DUP2 DUP2 LT ISZERO PUSH3 0x2EB JUMPI PUSH3 0x2DF PUSH1 0x0 DUP3 PUSH3 0x2AC JUMP JUMPDEST PUSH1 0x1 DUP2 ADD SWAP1 POP PUSH3 0x2C9 JUMP JUMPDEST POP POP JUMP JUMPDEST PUSH1 0x1F DUP3 GT ISZERO PUSH3 0x33A JUMPI PUSH3 0x304 DUP2 PUSH3 0x1AE JUMP JUMPDEST PUSH3 0x30F DUP5 PUSH3 0x1C3 JUMP JUMPDEST DUP2 ADD PUSH1 0x20 DUP6 LT ISZERO PUSH3 0x31F JUMPI DUP2 SWAP1 POP JUMPDEST PUSH3 0x337 PUSH3 0x32E DUP6 PUSH3 0x1C3 JUMP JUMPDEST DUP4 ADD DUP3 PUSH3 0x2C8 JUMP JUMPDEST POP POP JUMPDEST POP POP POP JUMP JUMPDEST PUSH1 0x0 DUP3 DUP3 SHR SWAP1 POP SWAP3 SWAP2 POP POP JUMP JUMPDEST PUSH1 0x0 PUSH3 0x35F PUSH1 0x0 NOT DUP5 PUSH1 0x8 MUL PUSH3 0x33F JUMP JUMPDEST NOT DUP1 DUP4 AND SWAP2 POP POP SWAP3 SWAP2 POP POP JUMP JUMPDEST PUSH1 0x0 PUSH3 0x37A DUP4 DUP4 PUSH3 0x34C JUMP JUMPDEST SWAP2 POP DUP3 PUSH1 0x2 MUL DUP3 OR SWAP1 POP SWAP3 SWAP2 POP POP JUMP JUMPDEST PUSH3 0x395 DUP3 PUSH3 0x110 JUMP JUMPDEST PUSH8 0xFFFFFFFFFFFFFFFF DUP2 GT ISZERO PUSH3 0x3B1 JUMPI PUSH3 0x3B0 PUSH3 0x11B JUMP JUMPDEST JUMPDEST PUSH3 0x3BD DUP3 SLOAD PUSH3 0x179 JUMP JUMPDEST PUSH3 0x3CA DUP3 DUP3 DUP6 PUSH3 0x2EF JUMP JUMPDEST PUSH1 0x0 PUSH1 0x20 SWAP1 POP PUSH1 0x1F DUP4 GT PUSH1 0x1 DUP2 EQ PUSH3 0x402 JUMPI PUSH1 0x0 DUP5 ISZERO PUSH3 0x3ED JUMPI DUP3 DUP8 ADD MLOAD SWAP1 POP JUMPDEST PUSH3 0x3F9 DUP6 DUP3 PUSH3 0x36C JUMP JUMPDEST DUP7 SSTORE POP PUSH3 0x469 JUMP JUMPDEST PUSH1 0x1F NOT DUP5 AND PUSH3 0x412 DUP7 PUSH3 0x1AE JUMP JUMPDEST PUSH1 0x0 JUMPDEST DUP3 DUP2 LT ISZERO PUSH3 0x43C JUMPI DUP5 DUP10 ADD MLOAD DUP3 SSTORE PUSH1 0x1 DUP3 ADD SWAP2 POP PUSH1 0x20 DUP6 ADD SWAP5 POP PUSH1 0x20 DUP2 ADD SWAP1 POP PUSH3 0x415 JUMP JUMPDEST DUP7 DUP4 LT ISZERO PUSH3 0x45C JUMPI DUP5 DUP10 ADD MLOAD PUSH3 0x458 PUSH1 0x1F DUP10 AND DUP3 PUSH3 0x34C JUMP JUMPDEST DUP4 SSTORE POP JUMPDEST PUSH1 0x1 PUSH1 0x2 DUP9 MUL ADD DUP9 SSTORE POP POP POP JUMPDEST POP POP POP POP POP POP JUMP JUMPDEST PUSH1 0x0 DUP3 DUP3 MSTORE PUSH1 0x20 DUP3 ADD SWAP1 POP SWAP3 SWAP2 POP POP JUMP JUMPDEST PUSH32 0x45524332304361707065643A2063617020697320300000000000000000000000 PUSH1 0x0 DUP3 ADD MSTORE POP JUMP JUMPDEST PUSH1 0x0 PUSH3 0x4BA PUSH1 0x15 DUP4 PUSH3 0x471 JUMP JUMPDEST SWAP2 POP PUSH3 0x4C7 DUP3 PUSH3 0x482 JUMP JUMPDEST PUSH1 0x20 DUP3 ADD SWAP1 POP SWAP2 SWAP1 POP JUMP JUMPDEST PUSH1 0x0 PUSH1 0x20 DUP3 ADD SWAP1 POP DUP2 DUP2 SUB PUSH1 0x0 DUP4 ADD MSTORE PUSH3 0x4ED DUP2 PUSH3 0x4AB JUMP JUMPDEST SWAP1 POP SWAP2 SWAP1 POP JUMP JUMPDEST PUSH1 0x80 MLOAD PUSH2 0x22BD PUSH3 0x510 PUSH1 0x0 CODECOPY PUSH1 0x0 PUSH2 0x6BE ADD MSTORE PUSH2 0x22BD PUSH1 0x0 RETURN INVALID PUSH1 0x80 PUSH1 0x40 MSTORE PUSH1 0x4 CALLDATASIZE LT PUSH2 0x11E JUMPI PUSH1 0x0 CALLDATALOAD PUSH1 0xE0 SHR DUP1 PUSH4 0x543746B1 GT PUSH2 0xA0 JUMPI DUP1 PUSH4 0xA457C2D7 GT PUSH2 0x64 JUMPI DUP1 PUSH4 0xA457C2D7 EQ PUSH2 0x3F1 JUMPI DUP1 PUSH4 0xA9059CBB EQ PUSH2 0x42E JUMPI DUP1 PUSH4 0xBC1D089A EQ PUSH2 0x46B JUMPI DUP1 PUSH4 0xDD62ED3E EQ PUSH2 0x496 JUMPI DUP1 PUSH4 0xF8E726D1 EQ PUSH2 0x4D3 JUMPI PUSH2 0x11E JUMP JUMPDEST DUP1 PUSH4 0x543746B1 EQ PUSH2 0x319 JUMPI DUP1 PUSH4 0x579436FC EQ PUSH2 0x342 JUMPI DUP1 PUSH4 0x6630A05E EQ PUSH2 0x36D JUMPI DUP1 PUSH4 0x70A08231 EQ PUSH2 0x389 JUMPI DUP1 PUSH4 0x95D89B41 EQ PUSH2 0x3C6 JUMPI PUSH2 0x11E JUMP JUMPDEST DUP1 PUSH4 0x1A6CEF14 GT PUSH2 0xE7 JUMPI DUP1 PUSH4 0x1A6CEF14 EQ PUSH2 0x21E JUMPI DUP1 PUSH4 0x23B872DD EQ PUSH2 0x249 JUMPI DUP1 PUSH4 0x313CE567 EQ PUSH2 0x286 JUMPI DUP1 PUSH4 0x355274EA EQ PUSH2 0x2B1 JUMPI DUP1 PUSH4 0x39509351 EQ PUSH2 0x2DC JUMPI PUSH2 0x11E JUMP JUMPDEST DUP1 PUSH3 0xB37044 EQ PUSH2 0x123 JUMPI DUP1 PUSH4 0x1FFC9A7 EQ PUSH2 0x14E JUMPI DUP1 PUSH4 0x6FDDE03 EQ PUSH2 0x18B JUMPI DUP1 PUSH4 0x95EA7B3 EQ PUSH2 0x1B6 JUMPI DUP1 PUSH4 0x18160DDD EQ PUSH2 0x1F3 JUMPI JUMPDEST PUSH1 0x0 DUP1 REVERT JUMPDEST CALLVALUE DUP1 ISZERO PUSH2 0x12F JUMPI PUSH1 0x0 DUP1 REVERT JUMPDEST POP PUSH2 0x138 PUSH2 0x4FE JUMP JUMPDEST PUSH1 0x40 MLOAD PUSH2 0x145 SWAP2 SWAP1 PUSH2 0x166D JUMP JUMPDEST PUSH1 0x40 MLOAD DUP1 SWAP2 SUB SWAP1 RETURN JUMPDEST CALLVALUE DUP1 ISZERO PUSH2 0x15A JUMPI PUSH1 0x0 DUP1 REVERT JUMPDEST POP PUSH2 0x175 PUSH1 0x4 DUP1 CALLDATASIZE SUB DUP2 ADD SWAP1 PUSH2 0x170 SWAP2 SWAP1 PUSH2 0x16E5 JUMP JUMPDEST PUSH2 0x504 JUMP JUMPDEST PUSH1 0x40 MLOAD PUSH2 0x182 SWAP2 SWAP1 PUSH2 0x172D JUMP JUMPDEST PUSH1 0x40 MLOAD DUP1 SWAP2 SUB SWAP1 RETURN JUMPDEST CALLVALUE DUP1 ISZERO PUSH2 0x197 JUMPI PUSH1 0x0 DUP1 REVERT JUMPDEST POP PUSH2 0x1A0 PUSH2 0x5BD JUMP JUMPDEST PUSH1 0x40 MLOAD PUSH2 0x1AD SWAP2 SWAP1 PUSH2 0x17D8 JUMP JUMPDEST PUSH1 0x40 MLOAD DUP1 SWAP2 SUB SWAP1 RETURN JUMPDEST CALLVALUE DUP1 ISZERO PUSH2 0x1C2 JUMPI PUSH1 0x0 DUP1 REVERT JUMPDEST POP PUSH2 0x1DD PUSH1 0x4 DUP1 CALLDATASIZE SUB DUP2 ADD SWAP1 PUSH2 0x1D8 SWAP2 SWAP1 PUSH2 0x1884 JUMP JUMPDEST PUSH2 0x64F JUMP JUMPDEST PUSH1 0x40 MLOAD PUSH2 0x1EA SWAP2 SWAP1 PUSH2 0x172D JUMP JUMPDEST PUSH1 0x40 MLOAD DUP1 SWAP2 SUB SWAP1 RETURN JUMPDEST CALLVALUE DUP1 ISZERO PUSH2 0x1FF JUMPI PUSH1 0x0 DUP1 REVERT JUMPDEST POP PUSH2 0x208 PUSH2 0x672 JUMP JUMPDEST PUSH1 0x40 MLOAD PUSH2 0x215 SWAP2 SWAP1 PUSH2 0x166D JUMP JUMPDEST PUSH1 0x40 MLOAD DUP1 SWAP2 SUB SWAP1 RETURN JUMPDEST CALLVALUE DUP1 ISZERO PUSH2 0x22A JUMPI PUSH1 0x0 DUP1 REVERT JUMPDEST POP PUSH2 0x233 PUSH2 0x67C JUMP JUMPDEST PUSH1 0x40 MLOAD PUSH2 0x240 SWAP2 SWAP1 PUSH2 0x166D JUMP JUMPDEST PUSH1 0x40 MLOAD DUP1 SWAP2 SUB SWAP1 RETURN JUMPDEST CALLVALUE DUP1 ISZERO PUSH2 0x255 JUMPI PUSH1 0x0 DUP1 REVERT JUMPDEST POP PUSH2 0x270 PUSH1 0x4 DUP1 CALLDATASIZE SUB DUP2 ADD SWAP1 PUSH2 0x26B SWAP2 SWAP1 PUSH2 0x18C4 JUMP JUMPDEST PUSH2 0x682 JUMP JUMPDEST PUSH1 0x40 MLOAD PUSH2 0x27D SWAP2 SWAP1 PUSH2 0x172D JUMP JUMPDEST PUSH1 0x40 MLOAD DUP1 SWAP2 SUB SWAP1 RETURN JUMPDEST CALLVALUE DUP1 ISZERO PUSH2 0x292 JUMPI PUSH1 0x0 DUP1 REVERT JUMPDEST POP PUSH2 0x29B PUSH2 0x6B1 JUMP JUMPDEST PUSH1 0x40 MLOAD PUSH2 0x2A8 SWAP2 SWAP1 PUSH2 0x1933 JUMP JUMPDEST PUSH1 0x40 MLOAD DUP1 SWAP2 SUB SWAP1 RETURN JUMPDEST CALLVALUE DUP1 ISZERO PUSH2 0x2BD JUMPI PUSH1 0x0 DUP1 REVERT JUMPDEST POP PUSH2 0x2C6 PUSH2 0x6BA JUMP JUMPDEST PUSH1 0x40 MLOAD PUSH2 0x2D3 SWAP2 SWAP1 PUSH2 0x166D JUMP JUMPDEST PUSH1 0x40 MLOAD DUP1 SWAP2 SUB SWAP1 RETURN JUMPDEST CALLVALUE DUP1 ISZERO PUSH2 0x2E8 JUMPI PUSH1 0x0 DUP1 REVERT JUMPDEST POP PUSH2 0x303 PUSH1 0x4 DUP1 CALLDATASIZE SUB DUP2 ADD SWAP1 PUSH2 0x2FE SWAP2 SWAP1 PUSH2 0x1884 JUMP JUMPDEST PUSH2 0x6E2 JUMP JUMPDEST PUSH1 0x40 MLOAD PUSH2 0x310 SWAP2 SWAP1 PUSH2 0x172D JUMP JUMPDEST PUSH1 0x40 MLOAD DUP1 SWAP2 SUB SWAP1 RETURN JUMPDEST CALLVALUE DUP1 ISZERO PUSH2 0x325 JUMPI PUSH1 0x0 DUP1 REVERT JUMPDEST POP PUSH2 0x340 PUSH1 0x4 DUP1 CALLDATASIZE SUB DUP2 ADD SWAP1 PUSH2 0x33B SWAP2 SWAP1 PUSH2 0x1884 JUMP JUMPDEST PUSH2 0x719 JUMP JUMPDEST STOP JUMPDEST CALLVALUE DUP1 ISZERO PUSH2 0x34E JUMPI PUSH1 0x0 DUP1 REVERT JUMPDEST POP PUSH2 0x357 PUSH2 0x98D JUMP JUMPDEST PUSH1 0x40 MLOAD PUSH2 0x364 SWAP2 SWAP1 PUSH2 0x166D JUMP JUMPDEST PUSH1 0x40 MLOAD DUP1 SWAP2 SUB SWAP1 RETURN JUMPDEST PUSH2 0x387 PUSH1 0x4 DUP1 CALLDATASIZE SUB DUP2 ADD SWAP1 PUSH2 0x382 SWAP2 SWAP1 PUSH2 0x194E JUMP JUMPDEST PUSH2 0x993 JUMP JUMPDEST STOP JUMPDEST CALLVALUE DUP1 ISZERO PUSH2 0x395 JUMPI PUSH1 0x0 DUP1 REVERT JUMPDEST POP PUSH2 0x3B0 PUSH1 0x4 DUP1 CALLDATASIZE SUB DUP2 ADD SWAP1 PUSH2 0x3AB SWAP2 SWAP1 PUSH2 0x197B JUMP JUMPDEST PUSH2 0xA92 JUMP JUMPDEST PUSH1 0x40 MLOAD PUSH2 0x3BD SWAP2 SWAP1 PUSH2 0x166D JUMP JUMPDEST PUSH1 0x40 MLOAD DUP1 SWAP2 SUB SWAP1 RETURN JUMPDEST CALLVALUE DUP1 ISZERO PUSH2 0x3D2 JUMPI PUSH1 0x0 DUP1 REVERT JUMPDEST POP PUSH2 0x3DB PUSH2 0xADA JUMP JUMPDEST PUSH1 0x40 MLOAD PUSH2 0x3E8 SWAP2 SWAP1 PUSH2 0x17D8 JUMP JUMPDEST PUSH1 0x40 MLOAD DUP1 SWAP2 SUB SWAP1 RETURN JUMPDEST CALLVALUE DUP1 ISZERO PUSH2 0x3FD JUMPI PUSH1 0x0 DUP1 REVERT JUMPDEST POP PUSH2 0x418 PUSH1 0x4 DUP1 CALLDATASIZE SUB DUP2 ADD SWAP1 PUSH2 0x413 SWAP2 SWAP1 PUSH2 0x1884 JUMP JUMPDEST PUSH2 0xB6C JUMP JUMPDEST PUSH1 0x40 MLOAD PUSH2 0x425 SWAP2 SWAP1 PUSH2 0x172D JUMP JUMPDEST PUSH1 0x40 MLOAD DUP1 SWAP2 SUB SWAP1 RETURN JUMPDEST CALLVALUE DUP1 ISZERO PUSH2 0x43A JUMPI PUSH1 0x0 DUP1 REVERT JUMPDEST POP PUSH2 0x455 PUSH1 0x4 DUP1 CALLDATASIZE SUB DUP2 ADD SWAP1 PUSH2 0x450 SWAP2 SWAP1 PUSH2 0x1884 JUMP JUMPDEST PUSH2 0xBE3 JUMP JUMPDEST PUSH1 0x40 MLOAD PUSH2 0x462 SWAP2 SWAP1 PUSH2 0x172D JUMP JUMPDEST PUSH1 0x40 MLOAD DUP1 SWAP2 SUB SWAP1 RETURN JUMPDEST CALLVALUE DUP1 ISZERO PUSH2 0x477 JUMPI PUSH1 0x0 DUP1 REVERT JUMPDEST POP PUSH2 0x480 PUSH2 0xC06 JUMP JUMPDEST PUSH1 0x40 MLOAD PUSH2 0x48D SWAP2 SWAP1 PUSH2 0x19B7 JUMP JUMPDEST PUSH1 0x40 MLOAD DUP1 SWAP2 SUB SWAP1 RETURN JUMPDEST CALLVALUE DUP1 ISZERO PUSH2 0x4A2 JUMPI PUSH1 0x0 DUP1 REVERT JUMPDEST POP PUSH2 0x4BD PUSH1 0x4 DUP1 CALLDATASIZE SUB DUP2 ADD SWAP1 PUSH2 0x4B8 SWAP2 SWAP1 PUSH2 0x19D2 JUMP JUMPDEST PUSH2 0xC1E JUMP JUMPDEST PUSH1 0x40 MLOAD PUSH2 0x4CA SWAP2 SWAP1 PUSH2 0x166D JUMP JUMPDEST PUSH1 0x40 MLOAD DUP1 SWAP2 SUB SWAP1 RETURN JUMPDEST CALLVALUE DUP1 ISZERO PUSH2 0x4DF JUMPI PUSH1 0x0 DUP1 REVERT JUMPDEST POP PUSH2 0x4E8 PUSH2 0xCA5 JUMP JUMPDEST PUSH1 0x40 MLOAD PUSH2 0x4F5 SWAP2 SWAP1 PUSH2 0x1A33 JUMP JUMPDEST PUSH1 0x40 MLOAD DUP1 SWAP2 SUB SWAP1 RETURN JUMPDEST PUSH1 0x6 SLOAD DUP2 JUMP JUMPDEST PUSH1 0x0 PUSH32 0x543746B100000000000000000000000000000000000000000000000000000000 PUSH28 0xFFFFFFFFFFFFFFFFFFFFFFFFFFFFFFFFFFFFFFFFFFFFFFFFFFFFFFFF NOT AND DUP3 PUSH28 0xFFFFFFFFFFFFFFFFFFFFFFFFFFFFFFFFFFFFFFFFFFFFFFFFFFFFFFFF NOT AND EQ DUP1 PUSH2 0x5B6 JUMPI POP PUSH4 0x1FFC9A7 PUSH1 0xE0 SHL PUSH28 0xFFFFFFFFFFFFFFFFFFFFFFFFFFFFFFFFFFFFFFFFFFFFFFFFFFFFFFFF NOT AND DUP3 PUSH28 0xFFFFFFFFFFFFFFFFFFFFFFFFFFFFFFFFFFFFFFFFFFFFFFFFFFFFFFFF NOT AND EQ JUMPDEST SWAP1 POP SWAP2 SWAP1 POP JUMP JUMPDEST PUSH1 0x60 PUSH1 0x3 DUP1 SLOAD PUSH2 0x5CC SWAP1 PUSH2 0x1A7D JUMP JUMPDEST DUP1 PUSH1 0x1F ADD PUSH1 0x20 DUP1 SWAP2 DIV MUL PUSH1 0x20 ADD PUSH1 0x40 MLOAD SWAP1 DUP2 ADD PUSH1 0x40 MSTORE DUP1 SWAP3 SWAP2 SWAP1 DUP2 DUP2 MSTORE PUSH1 0x20 ADD DUP3 DUP1 SLOAD PUSH2 0x5F8 SWAP1 PUSH2 0x1A7D JUMP JUMPDEST DUP1 ISZERO PUSH2 0x645 JUMPI DUP1 PUSH1 0x1F LT PUSH2 0x61A JUMPI PUSH2 0x100 DUP1 DUP4 SLOAD DIV MUL DUP4 MSTORE SWAP2 PUSH1 0x20 ADD SWAP2 PUSH2 0x645 JUMP JUMPDEST DUP3 ADD SWAP2 SWAP1 PUSH1 0x0 MSTORE PUSH1 0x20 PUSH1 0x0 KECCAK256 SWAP1 JUMPDEST DUP2 SLOAD DUP2 MSTORE SWAP1 PUSH1 0x1 ADD SWAP1 PUSH1 0x20 ADD DUP1 DUP4 GT PUSH2 0x628 JUMPI DUP3 SWAP1 SUB PUSH1 0x1F AND DUP3 ADD SWAP2 JUMPDEST POP POP POP POP POP SWAP1 POP SWAP1 JUMP JUMPDEST PUSH1 0x0 DUP1 PUSH2 0x65A PUSH2 0xCBD JUMP JUMPDEST SWAP1 POP PUSH2 0x667 DUP2 DUP6 DUP6 PUSH2 0xCC5 JUMP JUMPDEST PUSH1 0x1 SWAP2 POP POP SWAP3 SWAP2 POP POP JUMP JUMPDEST PUSH1 0x0 PUSH1 0x2 SLOAD SWAP1 POP SWAP1 JUMP JUMPDEST PUSH2 0x3E8 DUP2 JUMP JUMPDEST PUSH1 0x0 DUP1 PUSH2 0x68D PUSH2 0xCBD JUMP JUMPDEST SWAP1 POP PUSH2 0x69A DUP6 DUP3 DUP6 PUSH2 0xE8E JUMP JUMPDEST PUSH2 0x6A5 DUP6 DUP6 DUP6 PUSH2 0xF1A JUMP JUMPDEST PUSH1 0x1 SWAP2 POP POP SWAP4 SWAP3 POP POP POP JUMP JUMPDEST PUSH1 0x0 PUSH1 0x12 SWAP1 POP SWAP1 JUMP JUMPDEST PUSH1 0x0 PUSH32 0x0 SWAP1 POP SWAP1 JUMP JUMPDEST PUSH1 0x0 DUP1 PUSH2 0x6ED PUSH2 0xCBD JUMP JUMPDEST SWAP1 POP PUSH2 0x70E DUP2 DUP6 DUP6 PUSH2 0x6FF DUP6 DUP10 PUSH2 0xC1E JUMP JUMPDEST PUSH2 0x709 SWAP2 SWAP1 PUSH2 0x1ADD JUMP JUMPDEST PUSH2 0xCC5 JUMP JUMPDEST PUSH1 0x1 SWAP2 POP POP SWAP3 SWAP2 POP POP JUMP JUMPDEST PUSH20 0xD342D63466B520D8D331CAFF863900D402AA5B00 PUSH20 0xFFFFFFFFFFFFFFFFFFFFFFFFFFFFFFFFFFFFFFFF AND PUSH2 0x74C PUSH2 0xCBD JUMP JUMPDEST PUSH20 0xFFFFFFFFFFFFFFFFFFFFFFFFFFFFFFFFFFFFFFFF AND EQ PUSH2 0x7A2 JUMPI PUSH1 0x40 MLOAD PUSH32 0x8C379A000000000000000000000000000000000000000000000000000000000 DUP2 MSTORE PUSH1 0x4 ADD PUSH2 0x799 SWAP1 PUSH2 0x1B83 JUMP JUMPDEST PUSH1 0x40 MLOAD DUP1 SWAP2 SUB SWAP1 REVERT JUMPDEST PUSH1 0x0 PUSH20 0xFFFFFFFFFFFFFFFFFFFFFFFFFFFFFFFFFFFFFFFF AND DUP3 PUSH20 0xFFFFFFFFFFFFFFFFFFFFFFFFFFFFFFFFFFFFFFFF AND SUB PUSH2 0x811 JUMPI PUSH1 0x40 MLOAD PUSH32 0x8C379A000000000000000000000000000000000000000000000000000000000 DUP2 MSTORE PUSH1 0x4 ADD PUSH2 0x808 SWAP1 PUSH2 0x1C15 JUMP JUMPDEST PUSH1 0x40 MLOAD DUP1 SWAP2 SUB SWAP1 REVERT JUMPDEST PUSH3 0x186A0 DUP2 LT ISZERO PUSH2 0x857 JUMPI PUSH1 0x40 MLOAD PUSH32 0x8C379A000000000000000000000000000000000000000000000000000000000 DUP2 MSTORE PUSH1 0x4 ADD PUSH2 0x84E SWAP1 PUSH2 0x1C81 JUMP JUMPDEST PUSH1 0x40 MLOAD DUP1 SWAP2 SUB SWAP1 REVERT JUMPDEST DUP1 PUSH1 0x5 PUSH1 0x0 DUP3 DUP3 SLOAD PUSH2 0x869 SWAP2 SWAP1 PUSH2 0x1ADD JUMP JUMPDEST SWAP3 POP POP DUP2 SWAP1 SSTORE POP PUSH1 0x0 PUSH2 0x8EA ADDRESS PUSH20 0xFFFFFFFFFFFFFFFFFFFFFFFFFFFFFFFFFFFFFFFF AND PUSH4 0x18160DDD PUSH1 0x40 MLOAD DUP2 PUSH4 0xFFFFFFFF AND PUSH1 0xE0 SHL DUP2 MSTORE PUSH1 0x4 ADD PUSH1 0x20 PUSH1 0x40 MLOAD DUP1 DUP4 SUB DUP2 DUP7 GAS STATICCALL ISZERO DUP1 ISZERO PUSH2 0x8C0 JUMPI RETURNDATASIZE PUSH1 0x0 DUP1 RETURNDATACOPY RETURNDATASIZE PUSH1 0x0 REVERT JUMPDEST POP POP POP POP PUSH1 0x40 MLOAD RETURNDATASIZE PUSH1 0x1F NOT PUSH1 0x1F DUP3 ADD AND DUP3 ADD DUP1 PUSH1 0x40 MSTORE POP DUP2 ADD SWAP1 PUSH2 0x8E4 SWAP2 SWAP1 PUSH2 0x1CB6 JUMP JUMPDEST DUP4 PUSH2 0x1190 JUMP JUMPDEST SWAP1 POP PUSH2 0x8F6 DUP4 DUP3 PUSH2 0x11D5 JUMP JUMPDEST ADDRESS PUSH20 0xFFFFFFFFFFFFFFFFFFFFFFFFFFFFFFFFFFFFFFFF AND PUSH20 0xD342D63466B520D8D331CAFF863900D402AA5B00 PUSH20 0xFFFFFFFFFFFFFFFFFFFFFFFFFFFFFFFFFFFFFFFF AND DUP5 PUSH20 0xFFFFFFFFFFFFFFFFFFFFFFFFFFFFFFFFFFFFFFFF AND PUSH32 0xDA4C370E4F539B8E19D66144CAD73D70FBF440A544E56FF38E28E38ED47801A8 DUP6 DUP6 PUSH1 0x40 MLOAD PUSH2 0x980 SWAP3 SWAP2 SWAP1 PUSH2 0x1CE3 JUMP JUMPDEST PUSH1 0x40 MLOAD DUP1 SWAP2 SUB SWAP1 LOG4 POP POP POP JUMP JUMPDEST PUSH1 0x5 SLOAD DUP2 JUMP JUMPDEST CALLVALUE PUSH1 0x6 PUSH1 0x0 DUP3 DUP3 SLOAD PUSH2 0x9A5 SWAP2 SWAP1 PUSH2 0x1ADD JUMP JUMPDEST SWAP3 POP POP DUP2 SWAP1 SSTORE POP PUSH20 0xC475B02C2E2D6D2DD20C1D8C6FB9CF9A4D23165E PUSH20 0xFFFFFFFFFFFFFFFFFFFFFFFFFFFFFFFFFFFFFFFF AND PUSH2 0x8FC CALLVALUE SWAP1 DUP2 ISZERO MUL SWAP1 PUSH1 0x40 MLOAD PUSH1 0x0 PUSH1 0x40 MLOAD DUP1 DUP4 SUB DUP2 DUP6 DUP9 DUP9 CALL SWAP4 POP POP POP POP ISZERO DUP1 ISZERO PUSH2 0xA06 JUMPI RETURNDATASIZE PUSH1 0x0 DUP1 RETURNDATACOPY RETURNDATASIZE PUSH1 0x0 REVERT JUMPDEST POP PUSH20 0xD342D63466B520D8D331CAFF863900D402AA5B00 PUSH20 0xFFFFFFFFFFFFFFFFFFFFFFFFFFFFFFFFFFFFFFFF AND PUSH4 0x9DC29FAC PUSH2 0xA3F PUSH2 0xCBD JUMP JUMPDEST DUP4 PUSH1 0x40 MLOAD DUP4 PUSH4 0xFFFFFFFF AND PUSH1 0xE0 SHL DUP2 MSTORE PUSH1 0x4 ADD PUSH2 0xA5D SWAP3 SWAP2 SWAP1 PUSH2 0x1D0C JUMP JUMPDEST PUSH1 0x0 PUSH1 0x40 MLOAD DUP1 DUP4 SUB DUP2 PUSH1 0x0 DUP8 DUP1 EXTCODESIZE ISZERO DUP1 ISZERO PUSH2 0xA77 JUMPI PUSH1 0x0 DUP1 REVERT JUMPDEST POP GAS CALL ISZERO DUP1 ISZERO PUSH2 0xA8B JUMPI RETURNDATASIZE PUSH1 0x0 DUP1 RETURNDATACOPY RETURNDATASIZE PUSH1 0x0 REVERT JUMPDEST POP POP POP POP POP JUMP JUMPDEST PUSH1 0x0 DUP1 PUSH1 0x0 DUP4 PUSH20 0xFFFFFFFFFFFFFFFFFFFFFFFFFFFFFFFFFFFFFFFF AND PUSH20 0xFFFFFFFFFFFFFFFFFFFFFFFFFFFFFFFFFFFFFFFF AND DUP2 MSTORE PUSH1 0x20 ADD SWAP1 DUP2 MSTORE PUSH1 0x20 ADD PUSH1 0x0 KECCAK256 SLOAD SWAP1 POP SWAP2 SWAP1 POP JUMP JUMPDEST PUSH1 0x60 PUSH1 0x4 DUP1 SLOAD PUSH2 0xAE9 SWAP1 PUSH2 0x1A7D JUMP JUMPDEST DUP1 PUSH1 0x1F ADD PUSH1 0x20 DUP1 SWAP2 DIV MUL PUSH1 0x20 ADD PUSH1 0x40 MLOAD SWAP1 DUP2 ADD PUSH1 0x40 MSTORE DUP1 SWAP3 SWAP2 SWAP1 DUP2 DUP2 MSTORE PUSH1 0x20 ADD DUP3 DUP1 SLOAD PUSH2 0xB15 SWAP1 PUSH2 0x1A7D JUMP JUMPDEST DUP1 ISZERO PUSH2 0xB62 JUMPI DUP1 PUSH1 0x1F LT PUSH2 0xB37 JUMPI PUSH2 0x100 DUP1 DUP4 SLOAD DIV MUL DUP4 MSTORE SWAP2 PUSH1 0x20 ADD SWAP2 PUSH2 0xB62 JUMP JUMPDEST DUP3 ADD SWAP2 SWAP1 PUSH1 0x0 MSTORE PUSH1 0x20 PUSH1 0x0 KECCAK256 SWAP1 JUMPDEST DUP2 SLOAD DUP2 MSTORE SWAP1 PUSH1 0x1 ADD SWAP1 PUSH1 0x20 ADD DUP1 DUP4 GT PUSH2 0xB45 JUMPI DUP3 SWAP1 SUB PUSH1 0x1F AND DUP3 ADD SWAP2 JUMPDEST POP POP POP POP POP SWAP1 POP SWAP1 JUMP JUMPDEST PUSH1 0x0 DUP1 PUSH2 0xB77 PUSH2 0xCBD JUMP JUMPDEST SWAP1 POP PUSH1 0x0 PUSH2 0xB85 DUP3 DUP7 PUSH2 0xC1E JUMP JUMPDEST SWAP1 POP DUP4 DUP2 LT ISZERO PUSH2 0xBCA JUMPI PUSH1 0x40 MLOAD PUSH32 0x8C379A000000000000000000000000000000000000000000000000000000000 DUP2 MSTORE PUSH1 0x4 ADD PUSH2 0xBC1 SWAP1 PUSH2 0x1DA7 JUMP JUMPDEST PUSH1 0x40 MLOAD DUP1 SWAP2 SUB SWAP1 REVERT JUMPDEST PUSH2 0xBD7 DUP3 DUP7 DUP7 DUP5 SUB PUSH2 0xCC5 JUMP JUMPDEST PUSH1 0x1 SWAP3 POP POP POP SWAP3 SWAP2 POP POP JUMP JUMPDEST PUSH1 0x0 DUP1 PUSH2 0xBEE PUSH2 0xCBD JUMP JUMPDEST SWAP1 POP PUSH2 0xBFB DUP2 DUP6 DUP6 PUSH2 0xF1A JUMP JUMPDEST PUSH1 0x1 SWAP2 POP POP SWAP3 SWAP2 POP POP JUMP JUMPDEST PUSH20 0xD342D63466B520D8D331CAFF863900D402AA5B00 DUP2 JUMP JUMPDEST PUSH1 0x0 PUSH1 0x1 PUSH1 0x0 DUP5 PUSH20 0xFFFFFFFFFFFFFFFFFFFFFFFFFFFFFFFFFFFFFFFF AND PUSH20 0xFFFFFFFFFFFFFFFFFFFFFFFFFFFFFFFFFFFFFFFF AND DUP2 MSTORE PUSH1 0x20 ADD SWAP1 DUP2 MSTORE PUSH1 0x20 ADD PUSH1 0x0 KECCAK256 PUSH1 0x0 DUP4 PUSH20 0xFFFFFFFFFFFFFFFFFFFFFFFFFFFFFFFFFFFFFFFF AND PUSH20 0xFFFFFFFFFFFFFFFFFFFFFFFFFFFFFFFFFFFFFFFF AND DUP2 MSTORE PUSH1 0x20 ADD SWAP1 DUP2 MSTORE PUSH1 0x20 ADD PUSH1 0x0 KECCAK256 SLOAD SWAP1 POP SWAP3 SWAP2 POP POP JUMP JUMPDEST PUSH20 0xC475B02C2E2D6D2DD20C1D8C6FB9CF9A4D23165E DUP2 JUMP JUMPDEST PUSH1 0x0 CALLER SWAP1 POP SWAP1 JUMP JUMPDEST PUSH1 0x0 PUSH20 0xFFFFFFFFFFFFFFFFFFFFFFFFFFFFFFFFFFFFFFFF AND DUP4 PUSH20 0xFFFFFFFFFFFFFFFFFFFFFFFFFFFFFFFFFFFFFFFF AND SUB PUSH2 0xD34 JUMPI PUSH1 0x40 MLOAD PUSH32 0x8C379A000000000000000000000000000000000000000000000000000000000 DUP2 MSTORE PUSH1 0x4 ADD PUSH2 0xD2B SWAP1 PUSH2 0x1E39 JUMP JUMPDEST PUSH1 0x40 MLOAD DUP1 SWAP2 SUB SWAP1 REVERT JUMPDEST PUSH1 0x0 PUSH20 0xFFFFFFFFFFFFFFFFFFFFFFFFFFFFFFFFFFFFFFFF AND DUP3 PUSH20 0xFFFFFFFFFFFFFFFFFFFFFFFFFFFFFFFFFFFFFFFF AND SUB PUSH2 0xDA3 JUMPI PUSH1 0x40 MLOAD PUSH32 0x8C379A000000000000000000000000000000000000000000000000000000000 DUP2 MSTORE PUSH1 0x4 ADD PUSH2 0xD9A SWAP1 PUSH2 0x1ECB JUMP JUMPDEST PUSH1 0x40 MLOAD DUP1 SWAP2 SUB SWAP1 REVERT JUMPDEST DUP1 PUSH1 0x1 PUSH1 0x0 DUP6 PUSH20 0xFFFFFFFFFFFFFFFFFFFFFFFFFFFFFFFFFFFFFFFF AND PUSH20 0xFFFFFFFFFFFFFFFFFFFFFFFFFFFFFFFFFFFFFFFF AND DUP2 MSTORE PUSH1 0x20 ADD SWAP1 DUP2 MSTORE PUSH1 0x20 ADD PUSH1 0x0 KECCAK256 PUSH1 0x0 DUP5 PUSH20 0xFFFFFFFFFFFFFFFFFFFFFFFFFFFFFFFFFFFFFFFF AND PUSH20 0xFFFFFFFFFFFFFFFFFFFFFFFFFFFFFFFFFFFFFFFF AND DUP2 MSTORE PUSH1 0x20 ADD SWAP1 DUP2 MSTORE PUSH1 0x20 ADD PUSH1 0x0 KECCAK256 DUP2 SWAP1 SSTORE POP DUP2 PUSH20 0xFFFFFFFFFFFFFFFFFFFFFFFFFFFFFFFFFFFFFFFF AND DUP4 PUSH20 0xFFFFFFFFFFFFFFFFFFFFFFFFFFFFFFFFFFFFFFFF AND PUSH32 0x8C5BE1E5EBEC7D5BD14F71427D1E84F3DD0314C0F7B2291E5B200AC8C7C3B925 DUP4 PUSH1 0x40 MLOAD PUSH2 0xE81 SWAP2 SWAP1 PUSH2 0x166D JUMP JUMPDEST PUSH1 0x40 MLOAD DUP1 SWAP2 SUB SWAP1 LOG3 POP POP POP JUMP JUMPDEST PUSH1 0x0 PUSH2 0xE9A DUP5 DUP5 PUSH2 0xC1E JUMP JUMPDEST SWAP1 POP PUSH32 0xFFFFFFFFFFFFFFFFFFFFFFFFFFFFFFFFFFFFFFFFFFFFFFFFFFFFFFFFFFFFFFFF DUP2 EQ PUSH2 0xF14 JUMPI DUP2 DUP2 LT ISZERO PUSH2 0xF06 JUMPI PUSH1 0x40 MLOAD PUSH32 0x8C379A000000000000000000000000000000000000000000000000000000000 DUP2 MSTORE PUSH1 0x4 ADD PUSH2 0xEFD SWAP1 PUSH2 0x1F37 JUMP JUMPDEST PUSH1 0x40 MLOAD DUP1 SWAP2 SUB SWAP1 REVERT JUMPDEST PUSH2 0xF13 DUP5 DUP5 DUP5 DUP5 SUB PUSH2 0xCC5 JUMP JUMPDEST JUMPDEST POP POP POP POP JUMP JUMPDEST PUSH1 0x0 PUSH20 0xFFFFFFFFFFFFFFFFFFFFFFFFFFFFFFFFFFFFFFFF AND DUP4 PUSH20 0xFFFFFFFFFFFFFFFFFFFFFFFFFFFFFFFFFFFFFFFF AND SUB PUSH2 0xF89 JUMPI PUSH1 0x40 MLOAD PUSH32 0x8C379A000000000000000000000000000000000000000000000000000000000 DUP2 MSTORE PUSH1 0x4 ADD PUSH2 0xF80 SWAP1 PUSH2 0x1FC9 JUMP JUMPDEST PUSH1 0x40 MLOAD DUP1 SWAP2 SUB SWAP1 REVERT JUMPDEST PUSH1 0x0 PUSH20 0xFFFFFFFFFFFFFFFFFFFFFFFFFFFFFFFFFFFFFFFF AND DUP3 PUSH20 0xFFFFFFFFFFFFFFFFFFFFFFFFFFFFFFFFFFFFFFFF AND SUB PUSH2 0xFF8 JUMPI PUSH1 0x40 MLOAD PUSH32 0x8C379A000000000000000000000000000000000000000000000000000000000 DUP2 MSTORE PUSH1 0x4 ADD PUSH2 0xFEF SWAP1 PUSH2 0x205B JUMP JUMPDEST PUSH1 0x40 MLOAD DUP1 SWAP2 SUB SWAP1 REVERT JUMPDEST PUSH2 0x1003 DUP4 DUP4 DUP4 PUSH2 0x123F JUMP JUMPDEST PUSH1 0x0 DUP1 PUSH1 0x0 DUP6 PUSH20 0xFFFFFFFFFFFFFFFFFFFFFFFFFFFFFFFFFFFFFFFF AND PUSH20 0xFFFFFFFFFFFFFFFFFFFFFFFFFFFFFFFFFFFFFFFF AND DUP2 MSTORE PUSH1 0x20 ADD SWAP1 DUP2 MSTORE PUSH1 0x20 ADD PUSH1 0x0 KECCAK256 SLOAD SWAP1 POP DUP2 DUP2 LT ISZERO PUSH2 0x1089 JUMPI PUSH1 0x40 MLOAD PUSH32 0x8C379A000000000000000000000000000000000000000000000000000000000 DUP2 MSTORE PUSH1 0x4 ADD PUSH2 0x1080 SWAP1 PUSH2 0x20ED JUMP JUMPDEST PUSH1 0x40 MLOAD DUP1 SWAP2 SUB SWAP1 REVERT JUMPDEST DUP2 DUP2 SUB PUSH1 0x0 DUP1 DUP7 PUSH20 0xFFFFFFFFFFFFFFFFFFFFFFFFFFFFFFFFFFFFFFFF AND PUSH20 0xFFFFFFFFFFFFFFFFFFFFFFFFFFFFFFFFFFFFFFFF AND DUP2 MSTORE PUSH1 0x20 ADD SWAP1 DUP2 MSTORE PUSH1 0x20 ADD PUSH1 0x0 KECCAK256 DUP2 SWAP1 SSTORE POP DUP2 PUSH1 0x0 DUP1 DUP6 PUSH20 0xFFFFFFFFFFFFFFFFFFFFFFFFFFFFFFFFFFFFFFFF AND PUSH20 0xFFFFFFFFFFFFFFFFFFFFFFFFFFFFFFFFFFFFFFFF AND DUP2 MSTORE PUSH1 0x20 ADD SWAP1 DUP2 MSTORE PUSH1 0x20 ADD PUSH1 0x0 KECCAK256 PUSH1 0x0 DUP3 DUP3 SLOAD ADD SWAP3 POP POP DUP2 SWAP1 SSTORE POP DUP3 PUSH20 0xFFFFFFFFFFFFFFFFFFFFFFFFFFFFFFFFFFFFFFFF AND DUP5 PUSH20 0xFFFFFFFFFFFFFFFFFFFFFFFFFFFFFFFFFFFFFFFF AND PUSH32 0xDDF252AD1BE2C89B69C2B068FC378DAA952BA7F163C4A11628F55A4DF523B3EF DUP5 PUSH1 0x40 MLOAD PUSH2 0x1177 SWAP2 SWAP1 PUSH2 0x166D JUMP JUMPDEST PUSH1 0x40 MLOAD DUP1 SWAP2 SUB SWAP1 LOG3 PUSH2 0x118A DUP5 DUP5 DUP5 PUSH2 0x1244 JUMP JUMPDEST POP POP POP POP JUMP JUMPDEST PUSH1 0x0 DUP1 PUSH2 0x3E8 DUP4 PUSH2 0x11A1 SWAP2 SWAP1 PUSH2 0x213C JUMP JUMPDEST SWAP1 POP PUSH1 0x0 PUSH2 0x11AE DUP6 PUSH2 0x1249 JUMP JUMPDEST SWAP1 POP PUSH1 0x0 PUSH2 0x11BC DUP4 DUP4 PUSH2 0x14D5 JUMP JUMPDEST SWAP1 POP DUP1 DUP4 PUSH2 0x11CA SWAP2 SWAP1 PUSH2 0x1ADD JUMP JUMPDEST SWAP4 POP POP POP POP SWAP3 SWAP2 POP POP JUMP JUMPDEST PUSH2 0x11DD PUSH2 0x6BA JUMP JUMPDEST DUP2 PUSH2 0x11E6 PUSH2 0x672 JUMP JUMPDEST PUSH2 0x11F0 SWAP2 SWAP1 PUSH2 0x1ADD JUMP JUMPDEST GT ISZERO PUSH2 0x1231 JUMPI PUSH1 0x40 MLOAD PUSH32 0x8C379A000000000000000000000000000000000000000000000000000000000 DUP2 MSTORE PUSH1 0x4 ADD PUSH2 0x1228 SWAP1 PUSH2 0x21B9 JUMP JUMPDEST PUSH1 0x40 MLOAD DUP1 SWAP2 SUB SWAP1 REVERT JUMPDEST PUSH2 0x123B DUP3 DUP3 PUSH2 0x14FE JUMP JUMPDEST POP POP JUMP JUMPDEST POP POP POP JUMP JUMPDEST POP POP POP JUMP JUMPDEST PUSH1 0x0 DUP1 DUP3 LT ISZERO DUP1 ISZERO PUSH2 0x1267 JUMPI POP PUSH12 0x183BDAC6AE9BC1C8CC000000 DUP3 GT ISZERO JUMPDEST ISZERO PUSH2 0x1277 JUMPI PUSH3 0x249F0 SWAP1 POP PUSH2 0x14D0 JUMP JUMPDEST PUSH12 0x183BDAC6AE9BC1C8CC000000 DUP3 GT DUP1 ISZERO PUSH2 0x129E JUMPI POP PUSH12 0x2863C1F5CDAE42F954000000 DUP3 GT ISZERO JUMPDEST ISZERO PUSH2 0x12AE JUMPI PUSH3 0x186A0 SWAP1 POP PUSH2 0x14D0 JUMP JUMPDEST PUSH12 0x2863C1F5CDAE42F954000000 DUP3 GT DUP1 ISZERO PUSH2 0x12D5 JUMPI POP PUSH12 0x388BA924ECC0C429DC000000 DUP3 GT ISZERO JUMPDEST ISZERO PUSH2 0x12E5 JUMPI PUSH3 0x10428 SWAP1 POP PUSH2 0x14D0 JUMP JUMPDEST PUSH12 0x388BA924ECC0C429DC000000 DUP3 GT DUP1 ISZERO PUSH2 0x130C JUMPI POP PUSH12 0x48B390540BD3455A64000000 DUP3 GT ISZERO JUMPDEST ISZERO PUSH2 0x131B JUMPI PUSH2 0xAD70 SWAP1 POP PUSH2 0x14D0 JUMP JUMPDEST PUSH12 0x48B390540BD3455A64000000 DUP3 GT DUP1 ISZERO PUSH2 0x1342 JUMPI POP PUSH12 0x58DB77832AE5C68AEC000000 DUP3 GT ISZERO JUMPDEST ISZERO PUSH2 0x1351 JUMPI PUSH2 0x73A0 SWAP1 POP PUSH2 0x14D0 JUMP JUMPDEST PUSH12 0x58DB77832AE5C68AEC000000 DUP3 GT DUP1 ISZERO PUSH2 0x1378 JUMPI POP PUSH12 0x69035EB249F847BB74000000 DUP3 GT ISZERO JUMPDEST ISZERO PUSH2 0x1387 JUMPI PUSH2 0x4CF4 SWAP1 POP PUSH2 0x14D0 JUMP JUMPDEST PUSH12 0x69035EB249F847BB74000000 DUP3 GT DUP1 ISZERO PUSH2 0x13AE JUMPI POP PUSH12 0x71175249D9818853B8000000 DUP3 GT ISZERO JUMPDEST ISZERO PUSH2 0x13BD JUMPI PUSH2 0x332C SWAP1 POP PUSH2 0x14D0 JUMP JUMPDEST PUSH12 0x71175249D9818853B8000000 DUP3 GT DUP1 ISZERO PUSH2 0x13E4 JUMPI POP PUSH12 0x792B45E1690AC8EBFC000000 DUP3 GT ISZERO JUMPDEST ISZERO PUSH2 0x13F3 JUMPI PUSH2 0x21FC SWAP1 POP PUSH2 0x14D0 JUMP JUMPDEST PUSH12 0x792B45E1690AC8EBFC000000 DUP3 GT DUP1 ISZERO PUSH2 0x141A JUMPI POP PUSH12 0x813F3978F894098440000000 DUP3 GT ISZERO JUMPDEST ISZERO PUSH2 0x1429 JUMPI PUSH2 0x16A8 SWAP1 POP PUSH2 0x14D0 JUMP JUMPDEST PUSH12 0x813F3978F894098440000000 DUP3 GT DUP1 ISZERO PUSH2 0x1450 JUMPI POP PUSH12 0x89532D10881D4A1C84000000 DUP3 GT ISZERO JUMPDEST ISZERO PUSH2 0x145F JUMPI PUSH2 0xED8 SWAP1 POP PUSH2 0x14D0 JUMP JUMPDEST PUSH12 0x89532D10881D4A1C84000000 DUP3 GT DUP1 ISZERO PUSH2 0x1486 JUMPI POP PUSH12 0x916720A817A68AB4C8000000 DUP3 GT ISZERO JUMPDEST ISZERO PUSH2 0x1495 JUMPI PUSH2 0x9C4 SWAP1 POP PUSH2 0x14D0 JUMP JUMPDEST PUSH12 0x916720A817A68AB4C8000000 DUP3 GT DUP1 ISZERO PUSH2 0x14BC JUMPI POP PUSH12 0x997B143FA72FCB4D0C000000 DUP3 GT ISZERO JUMPDEST ISZERO PUSH2 0x14CB JUMPI PUSH2 0x6A4 SWAP1 POP PUSH2 0x14D0 JUMP JUMPDEST PUSH1 0x0 SWAP1 POP JUMPDEST SWAP2 SWAP1 POP JUMP JUMPDEST PUSH1 0x0 PUSH2 0x2710 DUP3 PUSH4 0xFFFFFFFF AND DUP5 PUSH2 0x14EC SWAP2 SWAP1 PUSH2 0x21D9 JUMP JUMPDEST PUSH2 0x14F6 SWAP2 SWAP1 PUSH2 0x213C JUMP JUMPDEST SWAP1 POP SWAP3 SWAP2 POP POP JUMP JUMPDEST PUSH1 0x0 PUSH20 0xFFFFFFFFFFFFFFFFFFFFFFFFFFFFFFFFFFFFFFFF AND DUP3 PUSH20 0xFFFFFFFFFFFFFFFFFFFFFFFFFFFFFFFFFFFFFFFF AND SUB PUSH2 0x156D JUMPI PUSH1 0x40 MLOAD PUSH32 0x8C379A000000000000000000000000000000000000000000000000000000000 DUP2 MSTORE PUSH1 0x4 ADD PUSH2 0x1564 SWAP1 PUSH2 0x2267 JUMP JUMPDEST PUSH1 0x40 MLOAD DUP1 SWAP2 SUB SWAP1 REVERT JUMPDEST PUSH2 0x1579 PUSH1 0x0 DUP4 DUP4 PUSH2 0x123F JUMP JUMPDEST DUP1 PUSH1 0x2 PUSH1 0x0 DUP3 DUP3 SLOAD PUSH2 0x158B SWAP2 SWAP1 PUSH2 0x1ADD JUMP JUMPDEST SWAP3 POP POP DUP2 SWAP1 SSTORE POP DUP1 PUSH1 0x0 DUP1 DUP5 PUSH20 0xFFFFFFFFFFFFFFFFFFFFFFFFFFFFFFFFFFFFFFFF AND PUSH20 0xFFFFFFFFFFFFFFFFFFFFFFFFFFFFFFFFFFFFFFFF AND DUP2 MSTORE PUSH1 0x20 ADD SWAP1 DUP2 MSTORE PUSH1 0x20 ADD PUSH1 0x0 KECCAK256 PUSH1 0x0 DUP3 DUP3 SLOAD ADD SWAP3 POP POP DUP2 SWAP1 SSTORE POP DUP2 PUSH20 0xFFFFFFFFFFFFFFFFFFFFFFFFFFFFFFFFFFFFFFFF AND PUSH1 0x0 PUSH20 0xFFFFFFFFFFFFFFFFFFFFFFFFFFFFFFFFFFFFFFFF AND PUSH32 0xDDF252AD1BE2C89B69C2B068FC378DAA952BA7F163C4A11628F55A4DF523B3EF DUP4 PUSH1 0x40 MLOAD PUSH2 0x163C SWAP2 SWAP1 PUSH2 0x166D JUMP JUMPDEST PUSH1 0x40 MLOAD DUP1 SWAP2 SUB SWAP1 LOG3 PUSH2 0x1650 PUSH1 0x0 DUP4 DUP4 PUSH2 0x1244 JUMP JUMPDEST POP POP JUMP JUMPDEST PUSH1 0x0 DUP2 SWAP1 POP SWAP2 SWAP1 POP JUMP JUMPDEST PUSH2 0x1667 DUP2 PUSH2 0x1654 JUMP JUMPDEST DUP3 MSTORE POP POP JUMP JUMPDEST PUSH1 0x0 PUSH1 0x20 DUP3 ADD SWAP1 POP PUSH2 0x1682 PUSH1 0x0 DUP4 ADD DUP5 PUSH2 0x165E JUMP JUMPDEST SWAP3 SWAP2 POP POP JUMP JUMPDEST PUSH1 0x0 DUP1 REVERT JUMPDEST PUSH1 0x0 PUSH32 0xFFFFFFFF00000000000000000000000000000000000000000000000000000000 DUP3 AND SWAP1 POP SWAP2 SWAP1 POP JUMP JUMPDEST PUSH2 0x16C2 DUP2 PUSH2 0x168D JUMP JUMPDEST DUP2 EQ PUSH2 0x16CD JUMPI PUSH1 0x0 DUP1 REVERT JUMPDEST POP JUMP JUMPDEST PUSH1 0x0 DUP2 CALLDATALOAD SWAP1 POP PUSH2 0x16DF DUP2 PUSH2 0x16B9 JUMP JUMPDEST SWAP3 SWAP2 POP POP JUMP JUMPDEST PUSH1 0x0 PUSH1 0x20 DUP3 DUP5 SUB SLT ISZERO PUSH2 0x16FB JUMPI PUSH2 0x16FA PUSH2 0x1688 JUMP JUMPDEST JUMPDEST PUSH1 0x0 PUSH2 0x1709 DUP5 DUP3 DUP6 ADD PUSH2 0x16D0 JUMP JUMPDEST SWAP2 POP POP SWAP3 SWAP2 POP POP JUMP JUMPDEST PUSH1 0x0 DUP2 ISZERO ISZERO SWAP1 POP SWAP2 SWAP1 POP JUMP JUMPDEST PUSH2 0x1727 DUP2 PUSH2 0x1712 JUMP JUMPDEST DUP3 MSTORE POP POP JUMP JUMPDEST PUSH1 0x0 PUSH1 0x20 DUP3 ADD SWAP1 POP PUSH2 0x1742 PUSH1 0x0 DUP4 ADD DUP5 PUSH2 0x171E JUMP JUMPDEST SWAP3 SWAP2 POP POP JUMP JUMPDEST PUSH1 0x0 DUP2 MLOAD SWAP1 POP SWAP2 SWAP1 POP JUMP JUMPDEST PUSH1 0x0 DUP3 DUP3 MSTORE PUSH1 0x20 DUP3 ADD SWAP1 POP SWAP3 SWAP2 POP POP JUMP JUMPDEST PUSH1 0x0 JUMPDEST DUP4 DUP2 LT ISZERO PUSH2 0x1782 JUMPI DUP1 DUP3 ADD MLOAD DUP2 DUP5 ADD MSTORE PUSH1 0x20 DUP2 ADD SWAP1 POP PUSH2 0x1767 JUMP JUMPDEST PUSH1 0x0 DUP5 DUP5 ADD MSTORE POP POP POP POP JUMP JUMPDEST PUSH1 0x0 PUSH1 0x1F NOT PUSH1 0x1F DUP4 ADD AND SWAP1 POP SWAP2 SWAP1 POP JUMP JUMPDEST PUSH1 0x0 PUSH2 0x17AA DUP3 PUSH2 0x1748 JUMP JUMPDEST PUSH2 0x17B4 DUP2 DUP6 PUSH2 0x1753 JUMP JUMPDEST SWAP4 POP PUSH2 0x17C4 DUP2 DUP6 PUSH1 0x20 DUP7 ADD PUSH2 0x1764 JUMP JUMPDEST PUSH2 0x17CD DUP2 PUSH2 0x178E JUMP JUMPDEST DUP5 ADD SWAP2 POP POP SWAP3 SWAP2 POP POP JUMP JUMPDEST PUSH1 0x0 PUSH1 0x20 DUP3 ADD SWAP1 POP DUP2 DUP2 SUB PUSH1 0x0 DUP4 ADD MSTORE PUSH2 0x17F2 DUP2 DUP5 PUSH2 0x179F JUMP JUMPDEST SWAP1 POP SWAP3 SWAP2 POP POP JUMP JUMPDEST PUSH1 0x0 PUSH20 0xFFFFFFFFFFFFFFFFFFFFFFFFFFFFFFFFFFFFFFFF DUP3 AND SWAP1 POP SWAP2 SWAP1 POP JUMP JUMPDEST PUSH1 0x0 PUSH2 0x1825 DUP3 PUSH2 0x17FA JUMP JUMPDEST SWAP1 POP SWAP2 SWAP1 POP JUMP JUMPDEST PUSH2 0x1835 DUP2 PUSH2 0x181A JUMP JUMPDEST DUP2 EQ PUSH2 0x1840 JUMPI PUSH1 0x0 DUP1 REVERT JUMPDEST POP JUMP JUMPDEST PUSH1 0x0 DUP2 CALLDATALOAD SWAP1 POP PUSH2 0x1852 DUP2 PUSH2 0x182C JUMP JUMPDEST SWAP3 SWAP2 POP POP JUMP JUMPDEST PUSH2 0x1861 DUP2 PUSH2 0x1654 JUMP JUMPDEST DUP2 EQ PUSH2 0x186C JUMPI PUSH1 0x0 DUP1 REVERT JUMPDEST POP JUMP JUMPDEST PUSH1 0x0 DUP2 CALLDATALOAD SWAP1 POP PUSH2 0x187E DUP2 PUSH2 0x1858 JUMP JUMPDEST SWAP3 SWAP2 POP POP JUMP JUMPDEST PUSH1 0x0 DUP1 PUSH1 0x40 DUP4 DUP6 SUB SLT ISZERO PUSH2 0x189B JUMPI PUSH2 0x189A PUSH2 0x1688 JUMP JUMPDEST JUMPDEST PUSH1 0x0 PUSH2 0x18A9 DUP6 DUP3 DUP7 ADD PUSH2 0x1843 JUMP JUMPDEST SWAP3 POP POP PUSH1 0x20 PUSH2 0x18BA DUP6 DUP3 DUP7 ADD PUSH2 0x186F JUMP JUMPDEST SWAP2 POP POP SWAP3 POP SWAP3 SWAP1 POP JUMP JUMPDEST PUSH1 0x0 DUP1 PUSH1 0x0 PUSH1 0x60 DUP5 DUP7 SUB SLT ISZERO PUSH2 0x18DD JUMPI PUSH2 0x18DC PUSH2 0x1688 JUMP JUMPDEST JUMPDEST PUSH1 0x0 PUSH2 0x18EB DUP7 DUP3 DUP8 ADD PUSH2 0x1843 JUMP JUMPDEST SWAP4 POP POP PUSH1 0x20 PUSH2 0x18FC DUP7 DUP3 DUP8 ADD PUSH2 0x1843 JUMP JUMPDEST SWAP3 POP POP PUSH1 0x40 PUSH2 0x190D DUP7 DUP3 DUP8 ADD PUSH2 0x186F JUMP JUMPDEST SWAP2 POP POP SWAP3 POP SWAP3 POP SWAP3 JUMP JUMPDEST PUSH1 0x0 PUSH1 0xFF DUP3 AND SWAP1 POP SWAP2 SWAP1 POP JUMP JUMPDEST PUSH2 0x192D DUP2 PUSH2 0x1917 JUMP JUMPDEST DUP3 MSTORE POP POP JUMP JUMPDEST PUSH1 0x0 PUSH1 0x20 DUP3 ADD SWAP1 POP PUSH2 0x1948 PUSH1 0x0 DUP4 ADD DUP5 PUSH2 0x1924 JUMP JUMPDEST SWAP3 SWAP2 POP POP JUMP JUMPDEST PUSH1 0x0 PUSH1 0x20 DUP3 DUP5 SUB SLT ISZERO PUSH2 0x1964 JUMPI PUSH2 0x1963 PUSH2 0x1688 JUMP JUMPDEST JUMPDEST PUSH1 0x0 PUSH2 0x1972 DUP5 DUP3 DUP6 ADD PUSH2 0x186F JUMP JUMPDEST SWAP2 POP POP SWAP3 SWAP2 POP POP JUMP JUMPDEST PUSH1 0x0 PUSH1 0x20 DUP3 DUP5 SUB SLT ISZERO PUSH2 0x1991 JUMPI PUSH2 0x1990 PUSH2 0x1688 JUMP JUMPDEST JUMPDEST PUSH1 0x0 PUSH2 0x199F DUP5 DUP3 DUP6 ADD PUSH2 0x1843 JUMP JUMPDEST SWAP2 POP POP SWAP3 SWAP2 POP POP JUMP JUMPDEST PUSH2 0x19B1 DUP2 PUSH2 0x181A JUMP JUMPDEST DUP3 MSTORE POP POP JUMP JUMPDEST PUSH1 0x0 PUSH1 0x20 DUP3 ADD SWAP1 POP PUSH2 0x19CC PUSH1 0x0 DUP4 ADD DUP5 PUSH2 0x19A8 JUMP JUMPDEST SWAP3 SWAP2 POP POP JUMP JUMPDEST PUSH1 0x0 DUP1 PUSH1 0x40 DUP4 DUP6 SUB SLT ISZERO PUSH2 0x19E9 JUMPI PUSH2 0x19E8 PUSH2 0x1688 JUMP JUMPDEST JUMPDEST PUSH1 0x0 PUSH2 0x19F7 DUP6 DUP3 DUP7 ADD PUSH2 0x1843 JUMP JUMPDEST SWAP3 POP POP PUSH1 0x20 PUSH2 0x1A08 DUP6 DUP3 DUP7 ADD PUSH2 0x1843 JUMP JUMPDEST SWAP2 POP POP SWAP3 POP SWAP3 SWAP1 POP JUMP JUMPDEST PUSH1 0x0 PUSH2 0x1A1D DUP3 PUSH2 0x17FA JUMP JUMPDEST SWAP1 POP SWAP2 SWAP1 POP JUMP JUMPDEST PUSH2 0x1A2D DUP2 PUSH2 0x1A12 JUMP JUMPDEST DUP3 MSTORE POP POP JUMP JUMPDEST PUSH1 0x0 PUSH1 0x20 DUP3 ADD SWAP1 POP PUSH2 0x1A48 PUSH1 0x0 DUP4 ADD DUP5 PUSH2 0x1A24 JUMP JUMPDEST SWAP3 SWAP2 POP POP JUMP JUMPDEST PUSH32 0x4E487B7100000000000000000000000000000000000000000000000000000000 PUSH1 0x0 MSTORE PUSH1 0x22 PUSH1 0x4 MSTORE PUSH1 0x24 PUSH1 0x0 REVERT JUMPDEST PUSH1 0x0 PUSH1 0x2 DUP3 DIV SWAP1 POP PUSH1 0x1 DUP3 AND DUP1 PUSH2 0x1A95 JUMPI PUSH1 0x7F DUP3 AND SWAP2 POP JUMPDEST PUSH1 0x20 DUP3 LT DUP2 SUB PUSH2 0x1AA8 JUMPI PUSH2 0x1AA7 PUSH2 0x1A4E JUMP JUMPDEST JUMPDEST POP SWAP2 SWAP1 POP JUMP JUMPDEST PUSH32 0x4E487B7100000000000000000000000000000000000000000000000000000000 PUSH1 0x0 MSTORE PUSH1 0x11 PUSH1 0x4 MSTORE PUSH1 0x24 PUSH1 0x0 REVERT JUMPDEST PUSH1 0x0 PUSH2 0x1AE8 DUP3 PUSH2 0x1654 JUMP JUMPDEST SWAP2 POP PUSH2 0x1AF3 DUP4 PUSH2 0x1654 JUMP JUMPDEST SWAP3 POP DUP3 DUP3 ADD SWAP1 POP DUP1 DUP3 GT ISZERO PUSH2 0x1B0B JUMPI PUSH2 0x1B0A PUSH2 0x1AAE JUMP JUMPDEST JUMPDEST SWAP3 SWAP2 POP POP JUMP JUMPDEST PUSH32 0x58454E446F67653A2043616C6C6572206D7573742062652058454E2043727970 PUSH1 0x0 DUP3 ADD MSTORE PUSH32 0x746F2E0000000000000000000000000000000000000000000000000000000000 PUSH1 0x20 DUP3 ADD MSTORE POP JUMP JUMPDEST PUSH1 0x0 PUSH2 0x1B6D PUSH1 0x23 DUP4 PUSH2 0x1753 JUMP JUMPDEST SWAP2 POP PUSH2 0x1B78 DUP3 PUSH2 0x1B11 JUMP JUMPDEST PUSH1 0x40 DUP3 ADD SWAP1 POP SWAP2 SWAP1 POP JUMP JUMPDEST PUSH1 0x0 PUSH1 0x20 DUP3 ADD SWAP1 POP DUP2 DUP2 SUB PUSH1 0x0 DUP4 ADD MSTORE PUSH2 0x1B9C DUP2 PUSH2 0x1B60 JUMP JUMPDEST SWAP1 POP SWAP2 SWAP1 POP JUMP JUMPDEST PUSH32 0x58454E446F67653A20416464726573732063616E6E6F74206265207468652030 PUSH1 0x0 DUP3 ADD MSTORE PUSH32 0x20616464726573732E0000000000000000000000000000000000000000000000 PUSH1 0x20 DUP3 ADD MSTORE POP JUMP JUMPDEST PUSH1 0x0 PUSH2 0x1BFF PUSH1 0x29 DUP4 PUSH2 0x1753 JUMP JUMPDEST SWAP2 POP PUSH2 0x1C0A DUP3 PUSH2 0x1BA3 JUMP JUMPDEST PUSH1 0x40 DUP3 ADD SWAP1 POP SWAP2 SWAP1 POP JUMP JUMPDEST PUSH1 0x0 PUSH1 0x20 DUP3 ADD SWAP1 POP DUP2 DUP2 SUB PUSH1 0x0 DUP4 ADD MSTORE PUSH2 0x1C2E DUP2 PUSH2 0x1BF2 JUMP JUMPDEST SWAP1 POP SWAP2 SWAP1 POP JUMP JUMPDEST PUSH32 0x58454E446F67653A204275726E20616D6F756E7420746F6F20736D616C6C2E00 PUSH1 0x0 DUP3 ADD MSTORE POP JUMP JUMPDEST PUSH1 0x0 PUSH2 0x1C6B PUSH1 0x1F DUP4 PUSH2 0x1753 JUMP JUMPDEST SWAP2 POP PUSH2 0x1C76 DUP3 PUSH2 0x1C35 JUMP JUMPDEST PUSH1 0x20 DUP3 ADD SWAP1 POP SWAP2 SWAP1 POP JUMP JUMPDEST PUSH1 0x0 PUSH1 0x20 DUP3 ADD SWAP1 POP DUP2 DUP2 SUB PUSH1 0x0 DUP4 ADD MSTORE PUSH2 0x1C9A DUP2 PUSH2 0x1C5E JUMP JUMPDEST SWAP1 POP SWAP2 SWAP1 POP JUMP JUMPDEST PUSH1 0x0 DUP2 MLOAD SWAP1 POP PUSH2 0x1CB0 DUP2 PUSH2 0x1858 JUMP JUMPDEST SWAP3 SWAP2 POP POP JUMP JUMPDEST PUSH1 0x0 PUSH1 0x20 DUP3 DUP5 SUB SLT ISZERO PUSH2 0x1CCC JUMPI PUSH2 0x1CCB PUSH2 0x1688 JUMP JUMPDEST JUMPDEST PUSH1 0x0 PUSH2 0x1CDA DUP5 DUP3 DUP6 ADD PUSH2 0x1CA1 JUMP JUMPDEST SWAP2 POP POP SWAP3 SWAP2 POP POP JUMP JUMPDEST PUSH1 0x0 PUSH1 0x40 DUP3 ADD SWAP1 POP PUSH2 0x1CF8 PUSH1 0x0 DUP4 ADD DUP6 PUSH2 0x165E JUMP JUMPDEST PUSH2 0x1D05 PUSH1 0x20 DUP4 ADD DUP5 PUSH2 0x165E JUMP JUMPDEST SWAP4 SWAP3 POP POP POP JUMP JUMPDEST PUSH1 0x0 PUSH1 0x40 DUP3 ADD SWAP1 POP PUSH2 0x1D21 PUSH1 0x0 DUP4 ADD DUP6 PUSH2 0x19A8 JUMP JUMPDEST PUSH2 0x1D2E PUSH1 0x20 DUP4 ADD DUP5 PUSH2 0x165E JUMP JUMPDEST SWAP4 SWAP3 POP POP POP JUMP JUMPDEST PUSH32 0x45524332303A2064656372656173656420616C6C6F77616E63652062656C6F77 PUSH1 0x0 DUP3 ADD MSTORE PUSH32 0x207A65726F000000000000000000000000000000000000000000000000000000 PUSH1 0x20 DUP3 ADD MSTORE POP JUMP JUMPDEST PUSH1 0x0 PUSH2 0x1D91 PUSH1 0x25 DUP4 PUSH2 0x1753 JUMP JUMPDEST SWAP2 POP PUSH2 0x1D9C DUP3 PUSH2 0x1D35 JUMP JUMPDEST PUSH1 0x40 DUP3 ADD SWAP1 POP SWAP2 SWAP1 POP JUMP JUMPDEST PUSH1 0x0 PUSH1 0x20 DUP3 ADD SWAP1 POP DUP2 DUP2 SUB PUSH1 0x0 DUP4 ADD MSTORE PUSH2 0x1DC0 DUP2 PUSH2 0x1D84 JUMP JUMPDEST SWAP1 POP SWAP2 SWAP1 POP JUMP JUMPDEST PUSH32 0x45524332303A20617070726F76652066726F6D20746865207A65726F20616464 PUSH1 0x0 DUP3 ADD MSTORE PUSH32 0x7265737300000000000000000000000000000000000000000000000000000000 PUSH1 0x20 DUP3 ADD MSTORE POP JUMP JUMPDEST PUSH1 0x0 PUSH2 0x1E23 PUSH1 0x24 DUP4 PUSH2 0x1753 JUMP JUMPDEST SWAP2 POP PUSH2 0x1E2E DUP3 PUSH2 0x1DC7 JUMP JUMPDEST PUSH1 0x40 DUP3 ADD SWAP1 POP SWAP2 SWAP1 POP JUMP JUMPDEST PUSH1 0x0 PUSH1 0x20 DUP3 ADD SWAP1 POP DUP2 DUP2 SUB PUSH1 0x0 DUP4 ADD MSTORE PUSH2 0x1E52 DUP2 PUSH2 0x1E16 JUMP JUMPDEST SWAP1 POP SWAP2 SWAP1 POP JUMP JUMPDEST PUSH32 0x45524332303A20617070726F766520746F20746865207A65726F206164647265 PUSH1 0x0 DUP3 ADD MSTORE PUSH32 0x7373000000000000000000000000000000000000000000000000000000000000 PUSH1 0x20 DUP3 ADD MSTORE POP JUMP JUMPDEST PUSH1 0x0 PUSH2 0x1EB5 PUSH1 0x22 DUP4 PUSH2 0x1753 JUMP JUMPDEST SWAP2 POP PUSH2 0x1EC0 DUP3 PUSH2 0x1E59 JUMP JUMPDEST PUSH1 0x40 DUP3 ADD SWAP1 POP SWAP2 SWAP1 POP JUMP JUMPDEST PUSH1 0x0 PUSH1 0x20 DUP3 ADD SWAP1 POP DUP2 DUP2 SUB PUSH1 0x0 DUP4 ADD MSTORE PUSH2 0x1EE4 DUP2 PUSH2 0x1EA8 JUMP JUMPDEST SWAP1 POP SWAP2 SWAP1 POP JUMP JUMPDEST PUSH32 0x45524332303A20696E73756666696369656E7420616C6C6F77616E6365000000 PUSH1 0x0 DUP3 ADD MSTORE POP JUMP JUMPDEST PUSH1 0x0 PUSH2 0x1F21 PUSH1 0x1D DUP4 PUSH2 0x1753 JUMP JUMPDEST SWAP2 POP PUSH2 0x1F2C DUP3 PUSH2 0x1EEB JUMP JUMPDEST PUSH1 0x20 DUP3 ADD SWAP1 POP SWAP2 SWAP1 POP JUMP JUMPDEST PUSH1 0x0 PUSH1 0x20 DUP3 ADD SWAP1 POP DUP2 DUP2 SUB PUSH1 0x0 DUP4 ADD MSTORE PUSH2 0x1F50 DUP2 PUSH2 0x1F14 JUMP JUMPDEST SWAP1 POP SWAP2 SWAP1 POP JUMP JUMPDEST PUSH32 0x45524332303A207472616E736665722066726F6D20746865207A65726F206164 PUSH1 0x0 DUP3 ADD MSTORE PUSH32 0x6472657373000000000000000000000000000000000000000000000000000000 PUSH1 0x20 DUP3 ADD MSTORE POP JUMP JUMPDEST PUSH1 0x0 PUSH2 0x1FB3 PUSH1 0x25 DUP4 PUSH2 0x1753 JUMP JUMPDEST SWAP2 POP PUSH2 0x1FBE DUP3 PUSH2 0x1F57 JUMP JUMPDEST PUSH1 0x40 DUP3 ADD SWAP1 POP SWAP2 SWAP1 POP JUMP JUMPDEST PUSH1 0x0 PUSH1 0x20 DUP3 ADD SWAP1 POP DUP2 DUP2 SUB PUSH1 0x0 DUP4 ADD MSTORE PUSH2 0x1FE2 DUP2 PUSH2 0x1FA6 JUMP JUMPDEST SWAP1 POP SWAP2 SWAP1 POP JUMP JUMPDEST PUSH32 0x45524332303A207472616E7366657220746F20746865207A65726F2061646472 PUSH1 0x0 DUP3 ADD MSTORE PUSH32 0x6573730000000000000000000000000000000000000000000000000000000000 PUSH1 0x20 DUP3 ADD MSTORE POP JUMP JUMPDEST PUSH1 0x0 PUSH2 0x2045 PUSH1 0x23 DUP4 PUSH2 0x1753 JUMP JUMPDEST SWAP2 POP PUSH2 0x2050 DUP3 PUSH2 0x1FE9 JUMP JUMPDEST PUSH1 0x40 DUP3 ADD SWAP1 POP SWAP2 SWAP1 POP JUMP JUMPDEST PUSH1 0x0 PUSH1 0x20 DUP3 ADD SWAP1 POP DUP2 DUP2 SUB PUSH1 0x0 DUP4 ADD MSTORE PUSH2 0x2074 DUP2 PUSH2 0x2038 JUMP JUMPDEST SWAP1 POP SWAP2 SWAP1 POP JUMP JUMPDEST PUSH32 0x45524332303A207472616E7366657220616D6F756E7420657863656564732062 PUSH1 0x0 DUP3 ADD MSTORE PUSH32 0x616C616E63650000000000000000000000000000000000000000000000000000 PUSH1 0x20 DUP3 ADD MSTORE POP JUMP JUMPDEST PUSH1 0x0 PUSH2 0x20D7 PUSH1 0x26 DUP4 PUSH2 0x1753 JUMP JUMPDEST SWAP2 POP PUSH2 0x20E2 DUP3 PUSH2 0x207B JUMP JUMPDEST PUSH1 0x40 DUP3 ADD SWAP1 POP SWAP2 SWAP1 POP JUMP JUMPDEST PUSH1 0x0 PUSH1 0x20 DUP3 ADD SWAP1 POP DUP2 DUP2 SUB PUSH1 0x0 DUP4 ADD MSTORE PUSH2 0x2106 DUP2 PUSH2 0x20CA JUMP JUMPDEST SWAP1 POP SWAP2 SWAP1 POP JUMP JUMPDEST PUSH32 0x4E487B7100000000000000000000000000000000000000000000000000000000 PUSH1 0x0 MSTORE PUSH1 0x12 PUSH1 0x4 MSTORE PUSH1 0x24 PUSH1 0x0 REVERT JUMPDEST PUSH1 0x0 PUSH2 0x2147 DUP3 PUSH2 0x1654 JUMP JUMPDEST SWAP2 POP PUSH2 0x2152 DUP4 PUSH2 0x1654 JUMP JUMPDEST SWAP3 POP DUP3 PUSH2 0x2162 JUMPI PUSH2 0x2161 PUSH2 0x210D JUMP JUMPDEST JUMPDEST DUP3 DUP3 DIV SWAP1 POP SWAP3 SWAP2 POP POP JUMP JUMPDEST PUSH32 0x45524332304361707065643A2063617020657863656564656400000000000000 PUSH1 0x0 DUP3 ADD MSTORE POP JUMP JUMPDEST PUSH1 0x0 PUSH2 0x21A3 PUSH1 0x19 DUP4 PUSH2 0x1753 JUMP JUMPDEST SWAP2 POP PUSH2 0x21AE DUP3 PUSH2 0x216D JUMP JUMPDEST PUSH1 0x20 DUP3 ADD SWAP1 POP SWAP2 SWAP1 POP JUMP JUMPDEST PUSH1 0x0 PUSH1 0x20 DUP3 ADD SWAP1 POP DUP2 DUP2 SUB PUSH1 0x0 DUP4 ADD MSTORE PUSH2 0x21D2 DUP2 PUSH2 0x2196 JUMP JUMPDEST SWAP1 POP SWAP2 SWAP1 POP JUMP JUMPDEST PUSH1 0x0 PUSH2 0x21E4 DUP3 PUSH2 0x1654 JUMP JUMPDEST SWAP2 POP PUSH2 0x21EF DUP4 PUSH2 0x1654 JUMP JUMPDEST SWAP3 POP DUP3 DUP3 MUL PUSH2 0x21FD DUP2 PUSH2 0x1654 JUMP JUMPDEST SWAP2 POP DUP3 DUP3 DIV DUP5 EQ DUP4 ISZERO OR PUSH2 0x2214 JUMPI PUSH2 0x2213 PUSH2 0x1AAE JUMP JUMPDEST JUMPDEST POP SWAP3 SWAP2 POP POP JUMP JUMPDEST PUSH32 0x45524332303A206D696E7420746F20746865207A65726F206164647265737300 PUSH1 0x0 DUP3 ADD MSTORE POP JUMP JUMPDEST PUSH1 0x0 PUSH2 0x2251 PUSH1 0x1F DUP4 PUSH2 0x1753 JUMP JUMPDEST SWAP2 POP PUSH2 0x225C DUP3 PUSH2 0x221B JUMP JUMPDEST PUSH1 0x20 DUP3 ADD SWAP1 POP SWAP2 SWAP1 POP JUMP JUMPDEST PUSH1 0x0 PUSH1 0x20 DUP3 ADD SWAP1 POP DUP2 DUP2 SUB PUSH1 0x0 DUP4 ADD MSTORE PUSH2 0x2280 DUP2 PUSH2 0x2244 JUMP JUMPDEST SWAP1 POP SWAP2 SWAP1 POP JUMP INVALID LOG2 PUSH5 0x6970667358 0x22 SLT KECCAK256 0xCD SWAP2 CODESIZE JUMPI BASEFEE 0xB6 PUSH10 0x72B9B8E81BC2CADB8DBE RETURN 0xBE 0xD1 CALLDATALOAD PUSH10 0x55C3B84643DBEDD970BA PUSH5 0x736F6C6343 STOP ADDMOD SGT STOP CALLER "
				},
				"gasEstimates": {
					"creation": {
						"codeDepositCost": "1778600",
						"executionCost": "infinite",
						"totalCost": "infinite"
					},
					"external": {
						"DONATION_ADDRESS()": "488",
						"XEN_ADDRESS()": "444",
						"XEN_BURN_RATIO()": "352",
						"allowance(address,address)": "infinite",
						"approve(address,uint256)": "infinite",
						"balanceOf(address)": "2930",
						"burnXEN(uint256)": "infinite",
						"cap()": "infinite",
						"decimals()": "410",
						"decreaseAllowance(address,uint256)": "infinite",
						"increaseAllowance(address,uint256)": "infinite",
						"name()": "infinite",
						"onTokenBurned(address,uint256)": "infinite",
						"supportsInterface(bytes4)": "736",
						"symbol()": "infinite",
						"totalDonated()": "2453",
						"totalSupply()": "2549",
						"totalXenBurned()": "2474",
						"transfer(address,uint256)": "infinite",
						"transferFrom(address,address,uint256)": "infinite"
					},
					"internal": {
						"calculateMintReward(uint256,uint256)": "infinite",
						"getPercentBonus(uint256)": "762",
						"percentageOf(uint256,uint32)": "infinite"
					}
				},
				"methodIdentifiers": {
					"DONATION_ADDRESS()": "f8e726d1",
					"XEN_ADDRESS()": "bc1d089a",
					"XEN_BURN_RATIO()": "1a6cef14",
					"allowance(address,address)": "dd62ed3e",
					"approve(address,uint256)": "095ea7b3",
					"balanceOf(address)": "70a08231",
					"burnXEN(uint256)": "6630a05e",
					"cap()": "355274ea",
					"decimals()": "313ce567",
					"decreaseAllowance(address,uint256)": "a457c2d7",
					"increaseAllowance(address,uint256)": "39509351",
					"name()": "06fdde03",
					"onTokenBurned(address,uint256)": "543746b1",
					"supportsInterface(bytes4)": "01ffc9a7",
					"symbol()": "95d89b41",
					"totalDonated()": "00b37044",
					"totalSupply()": "18160ddd",
					"totalXenBurned()": "579436fc",
					"transfer(address,uint256)": "a9059cbb",
					"transferFrom(address,address,uint256)": "23b872dd"
				}
			},
			"storageLayout": {
				"storage": [
					{
						"astId": 50,
						"contract": "contracts/XENDoge.sol:XENDoge",
						"label": "_balances",
						"offset": 0,
						"slot": "0",
						"type": "t_mapping(t_address,t_uint256)"
					},
					{
						"astId": 56,
						"contract": "contracts/XENDoge.sol:XENDoge",
						"label": "_allowances",
						"offset": 0,
						"slot": "1",
						"type": "t_mapping(t_address,t_mapping(t_address,t_uint256))"
					},
					{
						"astId": 58,
						"contract": "contracts/XENDoge.sol:XENDoge",
						"label": "_totalSupply",
						"offset": 0,
						"slot": "2",
						"type": "t_uint256"
					},
					{
						"astId": 60,
						"contract": "contracts/XENDoge.sol:XENDoge",
						"label": "_name",
						"offset": 0,
						"slot": "3",
						"type": "t_string_storage"
					},
					{
						"astId": 62,
						"contract": "contracts/XENDoge.sol:XENDoge",
						"label": "_symbol",
						"offset": 0,
						"slot": "4",
						"type": "t_string_storage"
					},
					{
						"astId": 850,
						"contract": "contracts/XENDoge.sol:XENDoge",
						"label": "totalXenBurned",
						"offset": 0,
						"slot": "5",
						"type": "t_uint256"
					},
					{
						"astId": 853,
						"contract": "contracts/XENDoge.sol:XENDoge",
						"label": "totalDonated",
						"offset": 0,
						"slot": "6",
						"type": "t_uint256"
					}
				],
				"types": {
					"t_address": {
						"encoding": "inplace",
						"label": "address",
						"numberOfBytes": "20"
					},
					"t_mapping(t_address,t_mapping(t_address,t_uint256))": {
						"encoding": "mapping",
						"key": "t_address",
						"label": "mapping(address => mapping(address => uint256))",
						"numberOfBytes": "32",
						"value": "t_mapping(t_address,t_uint256)"
					},
					"t_mapping(t_address,t_uint256)": {
						"encoding": "mapping",
						"key": "t_address",
						"label": "mapping(address => uint256)",
						"numberOfBytes": "32",
						"value": "t_uint256"
					},
					"t_string_storage": {
						"encoding": "bytes",
						"label": "string",
						"numberOfBytes": "32"
					},
					"t_uint256": {
						"encoding": "inplace",
						"label": "uint256",
						"numberOfBytes": "32"
					}
				}
			},
			"userdoc": {
				"kind": "user",
				"methods": {},
				"version": 1
			}
		}
	}
}